:100000000C94F30F0C942E100C942E100C942E10B4
:100010000C942E100C942E100C942E100C942E1068
:100020000C942E100C942E100C942E100C942E1058
:100030000C942E100C94A7470C942E100C942E1098
:100040000C942E100C942E100C942E100C942E1038
:100050000C942E100C942E100C942E100C942E1028
:100060000C942E100C9465FB0C942E100C9491FBA8
:100070000C942E100C94EBB80C942E100C942E10A3
:100080000C9430470C942E100C942E100C942E10BF
:100090000C94C5FB0C942E100C94F1FB0C942E10B8
:1000A0000C942E100C942E100C942E100C942E10D8
:1000B0000C942E100C942E100C942E100C94CF47F0
:1000C0000C942E100C942E100C942E100C942E10B8
:1000D0000C942E100C942E100C942E100C942E10A8
:1000E0000C942E10EC407F413B41184146410B429D
:1000F0000B42184172410B42824187419C41A14110
:100100000B420B42504118416D410B42FF404B41A5
:10011000A641BB41C3410B420B42EA415265706CA0
:1001200069636174307220310093026900000069D4
:1001300000EE016900000069002601B8010000001E
:10014000007003BC000000BC00E006BC000000BC66
:1001500000B807BC000000BC002D08BC00A908BC0A
:10016000000000BC00C00D4D0100000000C00D20CB
:10017000010000BC005311BC000000BC005B12B1C8
:100180000100000000C00DC80000001400C00DC830
:100190000000001400910E9001000014005A10900D
:1001A0000100001400C00D200300000000C805C8B5
:1001B0000000001400C805C80000001400C805C8ED
:1001C0000000001400DD04B004000014007505C830
:1001D00000000014007505C800000014007505C873
:1001E00000000014009704B00400000000700390A9
:1001F00001000014005504C800000014002705C8C1
:1002000000000014007003900100000000C00DC841
:100210000000001400C00DC800000014005A10C8EF
:100220000000001400C00D9001000000001704C879
:10023000000000DC0027056400000078007505C898
:10024000000000DC002006640000007800E006C822
:10025000000000DC002006C8000000DC002006C80A
:10026000000000DC002D08C8000000000024F40499
:10027000D9201BC40C5C0E9804C4095F0265077189
:1002800001F405F900FB04B30048048700C10369C9
:10029000005803550003034500BE023A00840231B2
:1002A0000053022A002902250004022000E4011C58
:1002B00000C8011900AF0117009801140084011350
:1002C00000710110006101100051010E0043010D89
:1002D0000036010B002B010B0020010B001501095A
:1002E000000C01090003010800FB000800F30008EE
:1002F00000EB000700E4000600DE000600D8000660
:1003000000D2000600CC000500C7000500C20005B1
:1003100000BD000400B9000400B5000400B10004F1
:1003200000AD000400A9000400A5000300A2000322
:10033000009F0004009B000300980003009500024A
:100340000093000300900003008D0002008B000367
:100350000088000200860002008400030081000281
:10036000007F0002007D0002007B00020079000295
:1003700000770001007600020074000200720001A4
:1003800000710002006F0002006D0001006C0002AD
:10039000006A0001006900020067000100660001B8
:1003A00000650001006400020062000100610001BC
:1003B00000600001005F0002005D0001005C0001C0
:1003C000005B0001005A00010059000100580001C3
:1003D00000570001005600010055000100540001C3
:1003E00000530000005300010052000100510001C1
:1003F00000500001004F0001004E0000004E0001BF
:10040000004D0001004C0001004B0000004B0001BA
:10041000004A0001004900010048000000480001B6
:1004200000470001004600000046000100450000B2
:1004300000450001004400010043000000430001AA
:1004400000420000004200010041000000410001A4
:1004500000400001003F0000003F0001003E00009E
:10046000003E0001003D0000003D0001003C000096
:10047000003C0000003C0001003B0000003B00018C
:10048000003A0000003A0001003900000039000184
:10049000003800000038000000380001003700007C
:1004A0000037000100360000003600000036000171
:1004B0000035000000350000003500010034000068
:1004C000003400000034000100330000003300005D
:1004D0000033000100320000003200000032000151
:1004E0000031000000310000003100010030000048
:1004F0000030000000300001002F0000002F00003D
:10050000002F0000002F0001002E0000002E000030
:10051000002E0001002D0000002D0000002D000025
:10052000002D0001002C0000002C0000002C000019
:10053000002C0001002B0000002B0000002B00000D
:10054000002B0001002A0000002A0000002A000001
:10055000002A0001002900000029000000290000F5
:1005600000290000002900010028000000280000E8
:1005700000280000002800000028000100270000DB
:1005800000270000002700000027000000270001CE
:1005900000260000002600000026000000260000C3
:1005A00000260001002500000025000000250000B5
:1005B00000250000002500000025000100240000A7
:1005C000002400000024000000240000002400019A
:1005D000002300000023000000230000002300008F
:1005E000002300000023000000230001002200007F
:1005F0000022000000220000002200000022000073
:100600000022000100210000002100000021000064
:100610000021000000210000002100000021000155
:10062000002000000020000000200000002000004A
:100630000020000000200000002000000020000139
:10064000001F0000001F0000001F0000001F00002E
:10065000001F0000001F0000001F0001001E00001E
:10066000001E0000001E0000001E00000024F4D444
:100670003050C38E20C2A24017828B7011127A9123
:100680000D816CD90AA861E108C75866076151431A
:10069000061E4B5D05C145A7041A411104093D988A
:1006A00003713931034036DB0265339102D4305493
:1006B00002802E1D02632CEE01752AC501B028A010
:1006C00001102781018F2564012B244B01E0223486
:1006D00001AC211F018D200D01801FFC00841EED47
:1006E00000971DDF00B81CD200E61BC600201BBC13
:1006F00000641AB200B219A8000A19A0006A189979
:1007000000D117910040178B00B516840031167E7A
:1007100000B31579003A157300C7146F0058146AB6
:1007200000EE1366008813630025135E00C7125B9A
:10073000006C12570015125400C111510070114F76
:100740000021114B00D61049008D1047004610447F
:100750000002104200C00F4000800F3E00420F3CDC
:1007600000060F3B00CB0E3800930E37005C0E35B1
:1007700000270E3400F30D3200C10D3100900D3012
:1007800000600D2E00320D2D00050D2C00D90C2B14
:1007900000AE0C2900850C29005C0C2700350C27C5
:1007A000000E0C2600E80B2400C40B2400A00B2331
:1007B000007D0B23005A0B2100390B2100180B2060
:1007C00000F80A1F00D90A1E00BB0A1E009D0A1D60
:1007D00000800A1D00630A1C00470A1B002C0A1B2C
:1007E00000110A1A00F7091A00DD091900C40919D5
:1007F00000AB091900920917007B0918006309175B
:10080000004C09160036091600200916000A0915C1
:1008100000F5081500E0081400CC081400B808140E
:1008200000A4081400900813007D0812006B081340
:10083000005808120046081200340811002308115D
:10084000001208110001081100F0071000E0071065
:1008500000D0071000C0071000B0070F00A107105C
:100860000091070E0083070F0074070F0065070E45
:100870000057070E0049070E003B070D002E070E1C
:100880000020070D0013070D0006070D00F9060CE8
:1008900000ED060D00E0060C00D4060C00C8060CA6
:1008A00000BC060C00B0060C00A4060B0099060C58
:1008B000008D060B0082060B0077060B006C060B02
:1008C0000061060A0057060B004C060A0042060AA1
:1008D0000038060A002E060A0024060A001A060A34
:1008E000001006090007060A00FD050900F40509C5
:1008F00000EB050900E2050900D9050900D005094A
:1009000000C7050900BE050900B5050800AD0508CA
:1009100000A50509009C050800940508008C050841
:1009200000840508007C050800740508006C0507B4
:1009300000650508005D050700560508004E05071F
:100940000047050700400508003805070031050786
:10095000002A050700230507001C050600160507E9
:10096000000F0507000805060002050700FB040646
:1009700000F5040700EE040600E8040600E20407A0
:1009800000DB040600D5040600CF040600C90406F7
:1009900000C3040600BD040600B7040600B1040548
:1009A00000AC040600A6040600A00405009B040693
:1009B0000095040500900406008A040500850405DE
:1009C00000800406007A0405007504050070040523
:1009D000006B04050066040500610405005C040565
:1009E0000057040500520405004D040500480405A5
:1009F00000430405003E0404003A040500350405E4
:100A000000300404002C040500270404002304051E
:100A1000001E0404001A0404001604050011040456
:100A2000000D04040009040500040404000004048B
:100A300000FC030400F8030400F4030400F00304C2
:100A400000EC030400E8030400E4030400E00304F2
:100A500000DC030400D8030400D4030400D0030422
:100A600000CC030400C8030300C5030300890899F0
:100A70000000000052657047204275696C64009662
:100A800000FF840369010000140083048800000053
:100A900014008C000000000000000030F8FFFF0090
:100AA000000000000000009B0000000000000000AB
:100AB000000000000000000000000000A51C000075
:100AC000180000A04095048304DC05000014009089
:100AD0001F8B0000000000000000A00F00000000BD
:100AE000000000000000800000009B0000000000EB
:100AF000000000A40F00000000000000000000A59E
:100B00001C0000180AD7233C95049B00000000003D
:100B1000000000000000000000000000000000A035
:100B20000F000018F62820418002891B9500000064
:100B30000042792068616E64206D6F76652074686C
:100B4000652065782D00950100000074727564655C
:100B50007220746F20646966666572656E74200029
:100B60009501000000706F736974696F6E73206F78
:100B70007665722074686520200095070000006289
:100B800075696C6420706C6174666F726D2E2E2EA8
:100B90002E00950000000041646A7573742074682B
:100BA000652073706163696E672020009501000005
:100BB000006265747765656E207468652065787479
:100BC00072756465720095010000006E6F7A7A6C30
:100BD0006520616E6420706C6174666F726D2000B8
:100BE00095070000007769746820746865206B6E53
:100BF0006F62732E2E2E009500000000756E6465E6
:100C0000722074686520706C6174666F726D20204C
:100C1000009501000000616E6420612073686565C5
:100C200074206F662070617065720095010000008D
:100C3000706C61636564206265747765656E2074AD
:100C400068652020009507000000706C6174666F75
:100C5000726D20616E64207468652E2E2E009500E2
:100C60000000006E6F7A7A6C652E205768656E20E2
:100C7000796F7520617265009501000000646F6EE8
:100C8000652C2070726573732074686520202020A5
:100C90002000950700000063656E74657220627520
:100CA00074746F6E2E00891F62003B02000000000A
:100CB0002110422063308440A550C660E77008814F
:100CC00029914AA16BB18CC1ADD1CEE1EFF13112C6
:100CD000100273325222B5529442F772D66239939F
:100CE00018837BB35AA3BDD39CC3FFF3DEE3622416
:100CF000433420040114E664C774A44485546AA5EF
:100D00004BB528850995EEE5CFF5ACC58DD55336A5
:100D1000722611163006D776F6669556B4465BB73E
:100D20007AA719973887DFF7FEE79DD7BCC7C44875
:100D3000E5588668A7784008611802282338CCC98E
:100D4000EDD98EE9AFF9488969990AA92BB9F55A05
:100D5000D44AB77A966A711A500A333A122AFDDBDE
:100D6000DCCBBFFB9EEB799B588B3BBB1AABA66CD5
:100D7000877CE44CC55C222C033C600C411CAEED2E
:100D80008FFDECCDCDDD2AAD0BBD688D499D977EE5
:100D9000B66ED55EF44E133E322E511E700E9FFF7E
:100DA000BEEFDDDFFCCF1BBF3AAF599F788F889134
:100DB000A981CAB1EBA10CD12DC14EF16FE1801018
:100DC000A100C230E3200450254046706760B9831B
:100DD0009893FBA3DAB33DC31CD37FE35EF3B10268
:100DE0009012F322D2323542145277625672EAB52B
:100DF000CBA5A89589856EF54FE52CD50DC5E234B8
:100E0000C324A01481046674476424540544DBA7FA
:100E1000FAB79987B8975FE77EF71DC73CD7D32607
:100E2000F2369106B01657667676154634564CD98A
:100E30006DC90EF92FE9C899E9898AB9ABA9445857
:100E4000654806782768C018E1088238A3287DCB5A
:100E50005CDB3FEB1EFBF98BD89BBBAB9ABB754AA7
:100E6000545A376A167AF10AD01AB32A923A2EFDEA
:100E70000FED6CDD4DCDAABD8BADE89DC98D267CF7
:100E8000076C645C454CA23C832CE01CC10C1FEF3A
:100E90003EFF5DCF7CDF9BAFBABFD98FF89F176E47
:100EA000367E554E745E932EB23ED10EF01E5361C7
:100EB000696C666973682046462043726561746F89
:100EC00072580020202020202020202020202020B8
:100ED00020202020202020002D2D2D205468696EF8
:100EE00067203332303834202D2D2D2D0041546DA4
:100EF00065676120323536302031352F30372F305D
:100F000039005361696C666973682076372E372023
:100F1000723031353931002F20202043004320200A
:100F2000202000200054686973206D656E75206371
:100F3000616E206D616B6500796F757220626F74F0
:100F400020696E6F70657261626C652E005072650B
:100F5000737320555020746F2070726F63656564E1
:100F60002E00536176696E672E2E2E005344206347
:100F7000617264207772697465206661696C65646A
:100F800000656570726F6D5F64756D702E62696E5D
:100F90002066696C65616C72656164792065786949
:100FA00073747300526573746F72696E672E2E2EA0
:100FB0000052656164206661696C65643B2045454B
:100FC00050524F4D206D617920626520636F7272BF
:100FD00075707400656570726F6D5F64756D702EED
:100FE00062696E2066696C656E6F7420666F756EDF
:100FF000640045726173696E672E2E2E002A2050A0
:1010000072657373200078206D6F72652100202057
:10101000202000010049033600FF006B00D100A032
:1010200000B800D500A6000A0199003F018E0074A7
:10103000018400A9017C00DE01740013026C0048E9
:101040000265007D025D00B2025600E7024E001C00
:1010500003460051033D0086033200BB032200F02B
:10106000030300FF030000D0FEC0FF18FFD0FF63A2
:10107000FFE0FFB1FFF0FF0000000052001000A4ED
:10108000002000F80030004D014000A2015000F7A0
:101090000160004C027000A0028000F30290004545
:1010A00003A0009703B000E903C0003B04D0008D0B
:1010B00004E000E004F0003305000187051001DBC7
:1010C00005200130063001DA065001456C6170736D
:1010D00065643A20202020203030306830306D00A8
:1010E00020736563730054696D65204C6566743ABE
:1010F0002020203030306830306D005A506F733A05
:1011000020202020202020202020202020202000FF
:10111000557365203020666F7220756E6C696D693D
:10112000746564004D6178205A2050726F626520AA
:1011300048697473005072696E74206F62737472C0
:10114000756374696F6E20202064657465637465CF
:10115000642E2020436865636B2074686570726933
:101160006E7420616E642065787472756465722E89
:10117000205072657373204C45465420666F722070
:101180006D656E752E004175746F2D6C6576656C9E
:10119000206661696C65640A50726F6265206E6FCB
:1011A000742063616C696272617465640041757476
:1011B0006F2D6C6576656C206661696C65640A5498
:1011C0006F6F20666172206F7574206F66206C658A
:1011D00076656C0050726573732043454E544552DA
:1011E00020627574746F6E20746F20636F6E746903
:1011F0006E75652E00546865206275696C64207098
:101200006C61746520697320206E6F74206C657644
:10121000656C65642100546865206275696C6420A2
:10122000706C61746520697320206C6576656C65EF
:101230006421004175746F2D6C6576656C202030DB
:101240002E303030206D6D004175746F2D6C6576D9
:10125000656C20696E616374697665200041757400
:101260006F2D6C6576656C206661696C65640A49F2
:101270006E636F6D706C6574652070726F62696EFD
:1012800067004175746F2D6C6576656C20666169C9
:101290006C65640A4261642070726F62696E6720D7
:1012A000706F696E7473006265747765656E207027
:1012B000726F6265207074732E004D6178206865CE
:1012C000696768742076617269616E636500417553
:1012D000746F2D6C6576656C2056617269616E6302
:1012E0006500204465666C656374696F6E004175C6
:1012F000746F2D6C6576656C2041646A00554152AF
:1013000054310020205553420053657269616C20AE
:10131000492F4F00457261736520456570726F6D8E
:10132000005344202D3E20456570726F6D00456569
:1013300070726F6D202D3E20534400456570726FB2
:101340006D005072696E742054696D653A202020DA
:10135000682030306D004C617374205072696E7477
:101360003A20202020682030306D004C696665747A
:10137000696D653A202020202020682030306D00E3
:10138000526573756D696E6720706F736974696FEC
:101390006E2E2E2E00436C656172696E6720627539
:1013A000696C642E2E2E20202000447261696E69C3
:1013B0006E6720706970656C696E652E2E2E004C0C
:1013C000656176696E672070617573652E2E2E20BB
:1013D0002020200043616E63656C6C696E6720702D
:1013E00072696E742E2E2E2000456E746572696EC1
:1013F000672070617573652E2E2E202020004C69A9
:101400006E653A202020203130303030303030309E
:10141000302B005061757365206174205A506F73D2
:101420003A2000506C6174666F726D2054656D7067
:101430003A202020004C6566742054656D703A2077
:101440000052696768742054656D703A2000546FCB
:101450006F6C68656164204F666673657473002005
:10146000546F6F6C68656164204F66667365743A8B
:1014700000204F66667365743A0055702F446E2FD6
:101480004C6566742F4D20746F2053657400557041
:101490002F446E2F522F4C2F4D20746F20536574A4
:1014A0000050726F66696C65204E616D653A00533D
:1014B00061766520546F2050726F66696C650043D9
:1014C00068616E6765204E616D6500446973706C7C
:1014D000617920436F6E66696700526573746F723D
:1014E000650052657365743A2070726573732043AA
:1014F000454E5445520046696C2E20547269703A2C
:101500000046696C616D656E743A00547269703A98
:10151000004C6966653A0046696C616D656E7420C1
:101520004F646F6D657465720048656174657273B0
:10153000204F66660043616E63656C205072696E71
:1015400074005072696E74205374617469737469A5
:101550006373004261636B20746F204D6F6E69741A
:101560006F72004C696E653A2020202020202020D8
:1015700020202020202020006D006D6D00486F6D20
:1015800065204F6666736574730050726F66696C90
:1015900065730046696C616D656E743A2020202089
:1015A0002020302E306D6D0046696C616D656E7463
:1015B0003A005A506F736974696F6E3A00507269DD
:1015C0006E742054696D653A202020202068202008
:1015D0006D0054656D706572617475726520726519
:1015E0006164732020206F7574206F662072616EB5
:1015F00067652E20202020202020436865636B2013
:10160000776972696E672E0054656D7065726174DA
:101610007572652072656164732020206172652097
:101620006661696C696E672E2020202020202020B2
:10163000436865636B20776972696E672E00546535
:101640006D70657261747572652064726F70706917
:101650006E67436865636B20776972696E672E00F9
:101660004E6F742068656174696E672070726F7068
:1016700065726C79436865636B20776972696E6720
:101680002E0054656D70206C696D697420726561FF
:10169000636865642E2053687574646F776E206F7D
:1016A0007220726573746172742E00506C6174667E
:1016B0006F726D204661696C757265212020200073
:1016C000546F6F6C2031204661696C757265212002
:1016D0002020202000546F6F6C2030204661696C00
:1016E0007572652120202020200045787472756471
:1016F0006572204661696C75726521202020004862
:101700006561746572732073687574646F776E2099
:10171000647565746F20696E616374697669747944
:101720000046696C616D656E74206C6F61642F7525
:101730006E6C6F616463616E63656C656420647573
:101740006520746F20746865207072696F722068FC
:101750006561746572206572726F72004D792074D4
:10176000656D706572617475726520776173202094
:101770006368616E6765642065787465726E616C1C
:101780006C792E20526573656C6563742066696C94
:10179000616D656E742020206D656E7520746F20FC
:1017A00074727920616761696E2E0077616974696E
:1017B0006E67200020204E4120202020006572729C
:1017C0006F7221004F464620202000435553544F4E
:1017D0004D0057484954452000505552504C450043
:1017E000424C5545202000475245454E2000504967
:1017F0004E4B2020004F52414E4745005245442059
:101800002020004C454420436F6C6F7572002843C4
:10181000616E6E6F74205072696E7420436F7079C0
:1018200029005072696E7420416E6F746865722071
:10183000436F7079004D61696E204D656E75005380
:10184000657420436F6F6C696E672046616E204F30
:1018500046460053657420436F6F6C696E6720467F
:10186000616E204F4E20004368616E6765205465AD
:101870006D7065726174757265004368616E67654D
:101880002053706565640050617573652061742034
:101890005A506F7300446974746F205072696E748B
:1018A000696E67004E2F4100502D53746F70207485
:1018B000726967676572656400502D53746F70209C
:1018C000496E76657274656400502D53746F702094
:1018D000436F6E74726F6C00436865636B20534492
:1018E0002052656164730045787472756465722076
:1018F000486F6C6400506175736520776974682067
:1019000048656174004F766572726964652047634B
:1019100054656D700048425020696E7374616C6C40
:10192000656400416363656C65726174696F6E0024
:1019300045786974204D656E7500536F756E64004F
:10194000457874727564657220436F756E740042D9
:101950006F742053746174697374696373004361B5
:101960006C696272617465204E6F7A7A6C6573007F
:10197000526573746F72652053657474696E677312
:101980000047656E6572616C2053657474696E679B
:101990007300507265686561742053657474696E74
:1019A0006773004C6576656C204275696C642050E5
:1019B0006C61746500456E61626C6520537465707E
:1019C0007065727320200044697361626C652053F6
:1019D000746570706572730056657273696F6E20FE
:1019E000496E666F726D6174696F6E0046696C61F5
:1019F0006D656E74204C6F6164696E6700486F6D31
:101A0000652041786573004A6F67204D6F646500FB
:101A10004D6F6E69746F72204D6F64650055746907
:101A20006C69746965730050726568656174005013
:101A300072696E742066726F6D2053440049207481
:101A4000696D6564206F7574207768696C65202006
:101A500020617474656D7074696E6720746F20689E
:101A600065617420206D7920706C6174666F726D91
:101A70002E00492074696D6564206F757420776845
:101A8000696C65202020617474656D7074696E677F
:101A900020746F206865617420206D7920657874EA
:101AA00072756465722E00556E61626C6520746F8C
:101AB0002072656164205344202020636172642099
:101AC000706172746974696F6E73206F76657232BB
:101AD000474220696E2073697A652E2020466F7216
:101AE0006D61746173204641542D3136206F722030
:101AF0002D33322E00556E61626C6520746F20723A
:101B00006561642074686973205344206361726462
:101B100020666F726D61742E2020202020466F7227
:101B20006D6174206173204641542D3136206F72EF
:101B3000204641542D33322E005344206361726499
:101B40002072656164206572726F722E20546F6F0F
:101B5000206D616E7920435243206572726F7273FB
:101B60002E426164206361726420636F6E746163EE
:101B70007473206F72656C656374726963616C2045
:101B80006E6F6973652E0053442063617264207226
:101B9000656164206572726F7200534420636172E4
:101BA00064206E6F742070726573656E740043619B
:101BB0006E6E6F7420696E69742053442063617285
:101BC000640053442063617264206C61636B732012
:101BD0006120726F6F74706172746974696F6E00E6
:101BE00043616E6E6F74206F70656E205344206386
:101BF00061726420706172746974696F6E0053441D
:101C0000206361726420697320656D70747900438C
:101C1000616E6E6F74206F70656E207468652066EB
:101C2000696C65005344206361726420726561646D
:101C300073206172652020206E6F7420676F696E5B
:101C4000672077656C6C2E2020547279612064695E
:101C500066666572656E7420636172640049276D03
:101C600020616C7265616479206275696C64696E6B
:101C70006700436F6C6420506175736500556E702A
:101C80006175736500506175736520200043616E56
:101C900063656C206C6F61642F756E6C6F61643F5F
:101CA0000043616E63656C207468697320707269AB
:101CB0006E743F0073657474696E67733F0052659C
:101CC00073746F726520666163746F727900506C13
:101CD0006174666F726D202020202020202020203B
:101CE00020004C65667420457874727564657220B6
:101CF0002020202020005269676874204578747283
:101D00007564657220202020200045787472756407
:101D100065722020202020202020202020005072CA
:101D2000657373206C65667420746F2063616E63E5
:101D3000656C0045787472756465723A2020202DB8
:101D40002D2D2F2D2D2D4300506C6174666F726DFB
:101D50003A2020202D2D2D2F2D2D2D43004C2045B8
:101D6000787472756465723A202D2D2D2F2D2D2DCE
:101D70004300522045787472756465723A202D2DA7
:101D80002D2F2D2D2D4300202D2D2500486561740C
:101D9000696E673A2020202020202020202020204B
:101DA0000048656174696E673A00203C2D59202017
:101DB000284D656E7529202020202020202000201D
:101DC0003C2D582020284D656E752920205A2D3E27
:101DD000202020002020202020202020582D2020DE
:101DE000202020202020202000202020202020280B
:101DF0004D656E75292020592D3E20202000202081
:101E0000202020202020582B20202020202020208F
:101E100020200020202020204A6F67206D6F6465FD
:101E20002020202020202000556E6C6F6164206CE3
:101E300065667400556E6C6F6164207269676874C2
:101E400000556E6C6F6164004C6F6164004C6F6193
:101E500064206C656674004C6F6164207269676809
:101E6000740035206D696E7574652074696D656FD9
:101E7000757420686173656C61707365642E2020D1
:101E80005072657373207468652063656E74657243
:101E900020627574746F6E20746F20202020666934
:101EA0006E6973682E00426567696E206C6F6164AD
:101EB000696E67206F7220202020756E6C6F6164E0
:101EC000696E672E20507265737320746865636550
:101ED0006E74657220627574746F6E207768656EBB
:101EE000202066696E69736865642E004578747297
:101EF000756465727320617265206E6F7420202096
:101F000068656174696E672E2020436865636B2085
:101F100074686520776972696E672E005920417870
:101F20006973204C696E6500582041786973204CB4
:101F3000696E6500594553004E4F2000446F6E6531
:101F40000053656C6563742062657374206C696E00
:101F500065733A00457874727564657200506C61FF
:101F600074666F726D005475726E20486561746599
:101F70007273204F4646005374617274205072652C
:101F800068656174696E67004672656520535241E9
:101F90004D20004F4646004F4E20000049373F3B42
:101FA0002F4318443E4CFF4D99516B5529577E6B7A
:101FB0008C7FFE826E8F2A9036915A930B94FCAFE1
:101FC000ECB073B87BB81AB9C5B9B2BBF5BC36C1B1
:101FD00082C15AC460C868C84BF324F756F85EFA49
:101FE000D4FA25FC33FCE4ECFCE185EC91E201C081
:101FF0008193EF3FF907E0F3D9F311241FBECFEF30
:10200000D1E2DEBFCDBF00E00CBF17E0A0E0B2E040
:10201000E2ECF3E002E00BBF02C007900D92A234A5
:10202000B107D9F71CE1A2E4B7E001C01D92A43CBE
:10203000B107E1F71FE1C6EEDFE100E006C022973D
:102040000109FE010BBF0F942901CC39D10780E0B3
:102050000807A9F70E948B430D94DF010C94000040
:10206000A0E3B0E0E6E3F0E10D94F400298F3A8FAD
:102070004B8F5C8F6D8F7E8F8F8F98A3A98ABA8AC2
:10208000CB8ADC8AED8AFE8A0F8B188F098D1A8D18
:102090002B8D3C8D09A31AA32BA33CA368017901C6
:1020A0008FEF9FEFA0E0B0E0C822D922EA22FB2206
:1020B00089012227332709A71AA72BA73CA709893B
:1020C0001A892B893C890DA31EA32FA338A7480189
:1020D000590188229922AA22BB2229016624772449
:1020E000C501B401A70196010F9463006DA77EA7F7
:1020F0008FA798ABC301B2010F9463006B017C0101
:10210000C501B40129A53AA54BA55CA50F946300B0
:102110004B015C01C301B2010F946300AB01BC0130
:10212000C80CD91CEA1CFB1C0DA51EA52FA538A99F
:10213000C901AA27BB27C80ED91EEA1EFB1EC81458
:10214000D904EA04FB0420F4405050406F4F7F4F05
:10215000C701AA27BB27840F951FA61FB71F8D8312
:102160009E83AF83B8877601DD24CC244DA55EA580
:102170006FA578A960707070C40ED51EE61EF71E9C
:10218000C982DA82EB82FC821C2D0A818B804C8012
:102190008D878E818E878F818F878885888B2D890B
:1021A0003E894F89588D69A17AA18BA19CA10F947A
:1021B00063006B017C012D8D3E8D4F8D58A16DA16B
:1021C0007EA18FA198A50F946300DC01CB01C80EFE
:1021D000D91EEA1EFB1E8D859E85AF85B8898C0DA4
:1021E0009D1DAE1DBF1D8D879E87AF87B88B682F45
:1021F0007E85212F302F482D542D8F859889E0968C
:10220000E0E10D941001CF92DF92EF92FF920F93D5
:10221000CF93DF93CDB7DEB760970FB6F894DEBFEC
:102220000FBECDBF002309F45AC029873A874B87D8
:102230005C876D877E878F87988B80E2801B4D85BA
:102240005E856F8578891816B4F01D821E821F8204
:102250001886992787FD9095909581959F4F04C08A
:1022600076956795579547958A95D2F749835A830E
:102270006B837C832CC06A017B01002E04C0F69422
:10228000E794D794C7940A94D2F7CD82DE82EF8286
:10229000F8866A017B0104C0CC0CDD1CEE1CFF1C1F
:1022A0008A95D2F7D701C60149855A856B857C8509
:1022B00004C076956795579547950A95D2F7842B74
:1022C000952BA62BB72B89839A83AB83BC8329815B
:1022D0003A814B815C816D817E818F81988560968A
:1022E0000FB6F894DEBF0FBECDBFDF91CF910F9137
:1022F000FF90EF90DF90CF900895CF92DF92EF9212
:10230000FF920F93CF93DF93CDB7DEB760970FB6F1
:10231000F894DEBF0FBECDBF002309F45AC0298751
:102320003A874B875C876D877E878F87988B80E2A3
:10233000801B49855A856B857C851816B4F01982F7
:102340001A821B821C82992787FD90959095819512
:102350009F4F04C0440F551F661F771F8A95D2F701
:102360004D835E836F8378872CC06A017B01002ECA
:1023700004C0CC0CDD1CEE1CFF1C0A94D2F7C982F1
:10238000DA82EB82FC826A017B0104C0F694E79456
:10239000D794C7948A95D2F7D701C6014D855E853B
:1023A0006F85788904C0440F551F661F771F0A95F3
:1023B000D2F7842B952BA62BB72B8D839E83AF83CF
:1023C000B88729813A814B815C816D817E818F81C3
:1023D000988560960FB6F894DEBF0FBECDBFDF9133
:1023E000CF910F91FF90EF90DF90CF9008950F93D2
:1023F000CF93DF93CDB7DEB760970FB6F894DEBF0B
:102400000FBECDBF002309F456C029873A874B87FA
:102410005C876D877E878F87988B20E2201B8D8558
:102420009E85AF85B889AC01BD011216B4F0770F57
:10243000440B542FBA014D835E836F837887332713
:1024400027FD3095309521953F4F04C0B595A79550
:10245000979587952A95D2F722C0002E04C07595CE
:102460006795579547950A94D2F74D835E836F839E
:10247000788704C0880F991FAA1FBB1F2A95D2F71F
:1024800049855A856B857C8504C0769567955795F7
:1024900047950A95D2F7842B952BA62BB72B8983CA
:1024A0009A83AB83BC8329813A814B815C816D81A6
:1024B0007E818F81988560960FB6F894DEBF0FBE3F
:1024C000CDBFDF91CF910F910895A8E4B0E0EBE686
:1024D000F2E10D94F300F50129A33AA34BA35CA309
:1024E0006DA37EA38FA398A7A98EFA8FCB8EDC8EC7
:1024F000ED8EFE8E0F8F18A38DA09EA0AFA0B8A466
:10250000B7FE67C02195B1E0121608F0B0E0319532
:10251000A1E0131608F0A0E0B32EBB1ABB2D88244F
:1025200083943B1508F08824A829419531E01416BE
:1025300008F030E0B42EBA1AAB2D882483944B15E2
:1025400008F088243829519541E0151608F040E03C
:10255000452E431A31E0541508F030E0432B6195C5
:1025600031E0161608F030E0862E841A41E0681536
:1025700008F040E0342B719541E0171608F040E078
:10258000572F531B31E0751708F030E0432B81952E
:1025900031E0181608F030E0682F641B462F61E028
:1025A000841708F060E0362B9195931B29A3BAA3FA
:1025B000ABA34CA28DA25EA34FA398A78FEF9FEF72
:1025C000AFEFBFEF25968CAF9DAFAEAFBFAF2597F6
:1025D00006C025961CAE1DAE1EAE1FAE25978D8D76
:1025E0009E8DAF8DB8A1B7FF68C025962CAD3DADCF
:1025F0004EAD5FAD25972095309540955095259629
:102600002CAF3DAF4EAF5FAF2597E19581E01E1631
:1026100008F080E0F19591E01F1608F090E04F2F50
:10262000481B81E0F41708F080E0982BC19481E00A
:102630001C1408F080E06C2D691B91E0C61608F0B0
:1026400090E0892BD19491E01D1408F090E05D2D6D
:10265000581B81E0D51608F080E0982BE19481E0CA
:102660001E1408F080E03E2D391B91E0E31608F0BF
:1026700090E0892BF19491E01F1408F090E02F2D49
:10268000281B81E0F21608F080E0982B019581E08C
:10269000101608F080E0702F791B972F71E0091752
:1026A00008F070E0872B1195181BE98F4A8F6B8F0C
:1026B0005C8F3D8F2E8F9F8F18A3798D6A8D5B8DD8
:1026C0004C8D3D8D2E8D9F8D88A1E9A1E98BEAA1CE
:1026D000EA8BEBA1EB8BECA1EC8BEDA1ED8BEEA1EA
:1026E000EE8BEFA1EF8BE8A5E88F79876A875B8790
:1026F0004C873D872E879F87888B89849A84AB84FB
:10270000BC848D859E85AF85B889E988FA880B8958
:102710001C89EDAAFEAA0FAB18AFCD88DE88EF8822
:10272000F88C0097A105B10509F0BFC3C814D904FE
:10273000EA04FB0408F04EC100E0801600E09006B9
:1027400001E0A00600E0B00660F41FEF81169104DE
:10275000A104B10409F098F480E090E0A0E0B0E0BA
:1027600017C020E0821620E0920620E0A20621E0B9
:10277000B20650F480E190E0A0E0B0E009C088E04B
:1027800090E0A0E0B0E004C088E190E0A0E0B0E01C
:10279000B501A401082E04C0769567955795479515
:1027A0000A94D2F7FA01E257FD4F208140E250E04F
:1027B00060E070E0481B590B6A0B7B0B421B510910
:1027C000610971094115510561057105A1F1042ED9
:1027D00004C0880C991CAA1CBB1C0A94D2F7970150
:1027E0008601042E04C0000F111F221F331F0A94FC
:1027F000D2F780E290E0841B950BCDA8DEA8EFA86D
:10280000F8AC04C0F694E794D794C7948A95D2F7AD
:10281000C02AD12AE22AF32A0DA91EA92FA938AD70
:1028200004C0000F111F221F331F4A95D2F70DABB2
:102830001EAB2FAB38AF25016624772495018401A8
:102840002070307009AB1AAB2BAB3CABC701B601A3
:10285000A30192010F94B5002DA73EA74FA758AB37
:1028600069A77AA78BA79CA7C701B601A30192010C
:102870000F94B500CA01B90129A93AA94BA95CA9CD
:102880000F946300AB01BC0109A51AA52BA53CA5BB
:102890007801DD24CC240DA91EA92FA938ADC901CA
:1028A000AA27BB27C82AD92AEA2AFB2A0DA51EA5D2
:1028B0002FA538A9C416D506E606F70638F5015047
:1028C00010402040304009A71AA72BA73CA7C80CEE
:1028D000D91CEA1CFB1CC814D904EA04FB04D0F080
:1028E000C416D506E606F706A8F40DA51EA52FA565
:1028F00038A9025010402040304009A71AA72BA742
:102900003CA7C80CD91CEA1CFB1C04C009A71AA7C9
:102910002BA73CA7C41AD50AE60AF70AC701B601D5
:10292000A30192010F94B5002DA73EA74FA758AB66
:1029300069AF7AAF8BAF9CAFC701B601A30192011B
:102940000F94B500CA01B90129A93AA94BA95CA9FC
:102950000F9463006B017C0149AD5AAD6BAD7CAD4A
:102960009A01112700274DA95EA96FA978AD607063
:102970007070042B152B262B372B8DA59EA5AFA58C
:10298000B8A90C151D052E053F05C0F40197A10936
:10299000B109080D191D2A1D3B1D081519052A0529
:1029A0003B0560F00C151D052E053F0538F48DA57F
:1029B0009EA5AFA5B8A90297A109B10909A51AA5B5
:1029C0002BA53CA57801DD24CC24C82AD92AEA2AE3
:1029D000FB2AB9C481149104A104B10451F461E04B
:1029E00070E080E090E0A50194010F94B5004901EA
:1029F0005A0110E0811610E0910611E0A10610E0E6
:102A0000B10660F42FEF82169104A104B10409F01D
:102A100098F480E090E0A0E0B0E017C030E08316CA
:102A200030E0930630E0A30631E0B30650F480E1D5
:102A300090E0A0E0B0E009C088E090E0A0E0B0E065
:102A400004C088E190E0A0E0B0E0B501A401082E48
:102A500004C076956795579547950A94D2F7FA0181
:102A6000E257FD4F2081AC01BD01420F511D611D98
:102A7000711D80E290E0A0E0B0E0841B950BA60BF6
:102A8000B70B51F4C818D908EA08FB08F1E04F2E3B
:102A9000512C612C712C28C1082E04C0880C991C63
:102AA000AA1CBB1C0A94D2F797018601042E04C00D
:102AB00036952795179507950A94D2F709AB1AAB67
:102AC0002BAB3CAB97018601082E04C0000F111FF1
:102AD000221F331F0A94D2F70DA71EA72FA738ABCA
:102AE000EDA8FEA80FA918AD04C016950795F79498
:102AF000E7944A95D2F7B801A7010DA51EA52FA509
:102B000038A9042B152B262B372B0DA71EA72FA773
:102B100038ABEDA8FEA80FA918AD04C0EE0CFF1C41
:102B2000001F111F8A95D2F7EDAAFEAA0FAB18AFAE
:102B3000250166247724950184012070307009AF47
:102B40001AAF2BAF3CAF69A97AA98BA99CA9A301A5
:102B500092010F94B50029A73AA74BA75CA76B0178
:102B60007C0169A97AA98BA99CA9A30192010F9460
:102B7000B500CA01B90129AD3AAD4BAD5CAD0F94BA
:102B80006300AB01BC017601DD24CC240DA51EA59C
:102B90002FA538A9C901AA27BB27C82AD92AEA2AFA
:102BA000FB2A09A51AA52BA53CA5C416D506E60641
:102BB000F70638F5015010402040304009AB1AAB01
:102BC0002BAB3CABC80CD91CEA1CFB1CC814D904A9
:102BD000EA04FB04D0F0C416D506E606F706A8F40E
:102BE00009A51AA52BA53CA5025010402040304055
:102BF00009AB1AAB2BAB3CABC80CD91CEA1CFB1CB9
:102C000004C009AB1AAB2BAB3CABC41AD50AE60A1D
:102C1000F70AC701B601A30192010F94B50029A7D5
:102C20003AA74BA75CA721966CAF7DAF8EAF9FAF45
:102C30002197C701B601A30192010F94B500CA0103
:102C4000B90129AD3AAD4BAD5CAD0F9463008B017A
:102C50009C0121964CAD5DAD6EAD7FAD2197DA0143
:102C6000992788274DA55EA56FA578A9607070701B
:102C7000842B952BA62BB72B49A55AA56BA57CA514
:102C800080179107A207B307F0F44150504060400D
:102C90007040880D991DAA1DBB1D88159905AA05B0
:102CA000BB0588F080179107A207B30760F449A518
:102CB0005AA56BA57CA54250504060407040880DDD
:102CC000991DAA1DBB1D6C017D01C01AD10AE20A23
:102CD000F30A09A91AA92BA93CA9380155244424AF
:102CE000442A552A662A772A8501222733270DA7E9
:102CF0001EA72FA738AB950184012070307009AF53
:102D00001AAF2BAF3CAFC701B6012DA53EA54FA50D
:102D100058A90F94B50029A73AA74BA75CA769ABA0
:102D20007AAB8BAB9CABC701B6012DA53EA54FA5D9
:102D300058A90F94B500CA01B90129AD3AAD4BAD00
:102D40005CAD0F946300AB01BC0109A91AA92BA9C2
:102D50003CA97801DD24CC240DA91EA92FA938ADEA
:102D6000C901AA27BB27C82AD92AEA2AFB2A09A50A
:102D70001AA52BA53CA5C416D506E606F70638F518
:102D8000015010402040304009AB1AAB2BAB3CAB9C
:102D9000C80CD91CEA1CFB1CC814D904EA04FB04A7
:102DA000D0F0C416D506E606F706A8F409A51AA5BC
:102DB0002BA53CA5025010402040304009AB1AAB77
:102DC0002BAB3CABC80CD91CEA1CFB1C04C009ABE8
:102DD0001AAB2BAB3CABC41AD50AE60AF70AC701FB
:102DE000B6012DA53EA54FA558A90F94B50029A75A
:102DF0003AA74BA75CA721966CAF7DAF8EAF9FAF74
:102E00002197C701B6012DA53EA54FA558A90F943E
:102E1000B500CA01B90129AD3AAD4BAD5CAD0F9417
:102E200063008B019C0121964CAD5DAD6EAD7FAD15
:102E30002197DA01992788274DA95EA96FA978AD56
:102E400060707070842B952BA62BB72B49A55AA5C3
:102E50006BA57CA580179107A207B307D0F441505A
:102E6000504060407040880D991DAA1DBB1D8815FB
:102E70009905AA05BB0568F080179107A207B3075B
:102E800040F449A55AA56BA57CA54250504060402E
:102E9000704009A91AA92BA93CA97801DD24CC24EA
:102EA000C42AD52AE62AF72A51C2C816D906EA0644
:102EB000FB0608F438C2803010E0910711E0A1074A
:102EC00010E0B10758F48F3F9105A105B10509F055
:102ED00090F400E010E020E030E016C0803020E008
:102EE000920720E0A20721E0B20750F400E110E0D1
:102EF00020E030E009C008E010E020E030E004C04D
:102F000008E110E020E030E0AC01BD01002E04C07B
:102F100076956795579547950A94D2F7FA01E25747
:102F2000FD4F4081040F111D211D311D40E250E075
:102F300060E070E0401B510B620B730BA1F48C1529
:102F40009D05AE05BF0508F4F5C1EDA8FEA80FA9C3
:102F500018AD442455243201E814F9040A051B0570
:102F600008F0EBC1E3C1342E2C013D0104C0440C38
:102F7000551C661C771C4A95D2F7D501C401002E5A
:102F800004C0B695A795979587950A94D2F7482AD5
:102F9000592A6A2A7B2AA5019401032C04C0220F16
:102FA000331F441F551F0A94D2F729AF3AAF4BAFD6
:102FB0005CAFB701A601002E04C0769567955795C2
:102FC00047950A94D2F749AB5AAB6BAB7CABC701C0
:102FD000B601032C04C0660F771F881F991F0A943F
:102FE000D2F76DA77EA78FA798AB8DA99EA9AFA991
:102FF000B8AD04C0B695A795979587950A95D2F771
:103000004DA55EA56FA578A9482B592B6A2B7B2B64
:103010004DA75EA76FA778AB4301AA24BB249301F9
:1030200082012070307021960CAF1DAF2EAF3FAFE4
:10303000219769A97AA98BA99CA9A50194010F944C
:10304000B50029A73AA74BA75CA76B017C0169A92A
:103050007AA98BA99CA9A50194010F94B500CA0176
:10306000B90121962CAD3DAD4EAD5FAD21970F94CA
:103070006300DC01CB017601DD24CC240DA51EA567
:103080002FA538A9A90166277727C42AD52AE62AB9
:10309000F72A09A51AA52BA53CA5C816D906EA0644
:1030A000FB0638F5015010402040304009AB1AAB08
:1030B0002BAB3CABC40CD51CE61CF71CC414D504CC
:1030C000E604F704D0F0C816D906EA06FB06A8F411
:1030D00009A51AA52BA53CA5025010402040304060
:1030E00009AB1AAB2BAB3CABC40CD51CE61CF71CD4
:1030F00004C009AB1AAB2BAB3CABC81AD90AEA0A1D
:10310000FB0AC701B601A50194010F94B50029A7D8
:103110003AA74BA75CA729966CAF7DAF8EAF9FAF48
:103120002997C701B601A50194010F94B500CA0102
:10313000B90121962CAD3DAD4EAD5FAD21970F94F9
:1031400063004B015C0129964CAD5DAD6EAD7FAD6A
:1031500029979A01112700278DA59EA5AFA5B8A98B
:10316000A070B070082B192B2A2B3B2B89A59AA590
:10317000ABA5BCA5081519052A053B05E0F4019788
:10318000A109B109040D151D261D371D04151505CE
:103190002605370580F0081519052A053B0558F462
:1031A00089A59AA5ABA5BCA50297A109B109040DF3
:1031B000151D261D371DB901A801481959096A09AD
:1031C0007B094DA75EA76FA778AB09A91AA92BA900
:1031D0003CA97801DD24CC24C82AD92AEA2AFB2A72
:1031E000FFEF8F2EFFEF9F2EA12CB12C8C209D2066
:1031F000AE20BF2087012227332709A71AA72BA7B4
:103200003CA749AC5AAC6BAC7CAC2FEF3FEF40E035
:1032100050E0422253226422752229AD3AAD4BADD3
:103220005CAD8A012227332709AB1AAB2BAB3CAB31
:10323000C501B401A30192010F94630069AF7AAF95
:103240008BAF9CAFC501B40129A93AA94BA95CA9D0
:103250000F9463004B015C0169A57AA58BA59CA521
:10326000A30192010F9463002B013C0169A57AA58B
:103270008BA59CA529A93AA94BA95CA90F94630029
:10328000AB01BC01840C951CA61CB71C09AD1AAD82
:103290002BAD3CADC901AA27BB27880E991EAA1EDB
:1032A000BB1E84149504A604B70420F4405050407B
:1032B0006F4F7F4FC501AA27BB27840F951FA61FFD
:1032C000B71F0DA51EA52FA538A9081719072A078E
:1032D0003B0718F180179107A207B307A1F5540126
:1032E0009924882489AD9AADABADBCADA070B07007
:1032F000880E991EAA1EBB1E4DA95EA96FA978ADA6
:10330000032C04C0440F551F661F771F0A94D2F781
:10331000481559056A057B05B0F40894C108D10821
:10332000E108F10810C0442455243201CC24DD24E6
:1033300076010CC044245524320181E0C82ED12CE2
:10334000E12CF12C03C0442455243201FE013196B6
:1033500088E0DF011D928A95E9F7C982DA82EB8263
:10336000FC824D825E826F8278862C2D3A814B8161
:103370005C81642D7E818F8198852596ECACFDACB7
:103380000EAD1FAD2597E114F1040105110509F4F7
:1033900056C02195E1E0121608F0E0E03195F1E029
:1033A000131608F0F0E0032F0E1BE1E0301708F0D1
:1033B000E0E0FE2B4195E1E0141608F0E0E0142F68
:1033C0001F1B31E0411708F030E0E32B5195F1E08D
:1033D000151608F0F0E0B52FBE1B31E05B1708F0C2
:1033E00030E0F32B6195E1E0161608F0E0E0462EA0
:1033F0004F1A31E0641508F030E0E32B7195F1E0ED
:10340000171608F0F0E0A72FAE1B31E07A1708F08E
:1034100030E0F32B8195E1E0181608F0E0E0F82E9B
:10342000FF1AFF2D31E08F1508F030E0E32B919566
:10343000302F412F5B2F642D7A2F8F2F9E1BC85B5F
:10344000DF4FE1E10D940F01FA01DC0102C00590AC
:103450000D9221503040D8F708958091AC0988230F
:1034600061F48091AB098F5F8093AB09853028F0C0
:1034700081E08093AC0910925D07089581E00E947D
:103480009C4980E00E94464908950E943E1A8FEFB1
:1034900060E00E94A98A1092A4071092A3071092DC
:1034A000A6071092A5071092A9071092AA070E94DA
:1034B000A33F0895F8942091A3073091A407809129
:1034C000A1079091A207821B930B78940895FF9215
:1034D0000F931F93CF93DF93EC018B01F42E8CE6B7
:1034E0009AE00E9477E68CE69AE0BE010E9449E6E7
:1034F0008CE69AE0B8010E9449E6E091FE0AFF27B7
:10350000E7FDF095EE0FFF1FE051F54F80819181AF
:103510002AE08C36920739F084EE9AE06CE67AE085
:103520000E94DCC102C00E94BEE6F092CB0ADF918D
:10353000CF911F910F91FF9008951092CB0AE091C7
:10354000FE0AFF27E7FDF095EE0FFF1FE051F54F54
:10355000808191812AE08C36920721F484EE9AE0F2
:103560000E9498C2E091FE0AFF27E7FDF095EE0F5A
:10357000FF1FE051F54F80819181DC01ED91FC91BD
:103580000480F581E02D19950895809190030895A8
:10359000CF92DF92EF92FF920F931F93CF93DF931F
:1035A000CDB7DEB7A0970FB6F894DEBF0FBECDBF84
:1035B0008C018091AE09882309F47BC0CE010D9661
:1035C0000E94CB84C80160E070E00E94604EFC0164
:1035D000C080D180E280F380CE010D9660E070E083
:1035E0000E94604EFC0180819181A281B381C81A42
:1035F000D90AEA0AFB0AC982DA82EB82FC82C80194
:1036000061E070E00E94604EFC01C080D180E280E9
:10361000F380CE010D9661E070E00E94604EFC01E7
:1036200080819181A281B381C81AD90AEA0AFB0A72
:10363000CD82DE82EF82F886C80162E070E00E94EF
:10364000604EFC01C080D180E280F380CE010D96F7
:1036500062E070E00E94604EFC0180819181A28155
:10366000B381C81AD90AEA0AFB0AC986DA86EB8648
:10367000FC8689819A81AB81BC810097A105B10547
:1036800069F48D819E81AF81B8850097A105B10550
:1036900029F4C114D104E104F10459F08091AE0978
:1036A00083FF05C0CE0101960E94495202C01092CC
:1036B000AE09A0960FB6F894DEBF0FBECDBFDF9166
:1036C000CF911F910F91FF90EF90DF90CF900895D1
:1036D000109278070895882311F080E401C080E8F3
:1036E00080939F076093AF091092AD091092B009C3
:1036F000089581E080939E07089580919F07181692
:1037000034F48091AF09882321F082E0089580E0AD
:10371000089581E0089580919F07089581E0909138
:103720009F07923008F480E00895CF93DF93CDB7E0
:10373000DEB764970FB6F894DEBF0FBECDBFDC01D5
:10374000CB0180939A0790939B07A0939C07B0931B
:103750009D07CE0101960E94CB84CE01019662E0C6
:1037600070E00E94584E40919A0750919B076091DB
:103770009C0770919D07FC0180819181A281B3819A
:1037800084179507A607B7071CF01092990703C086
:1037900081E08093990764960FB6F894DEBF0FBE60
:1037A000CDBFDF91CF9108950F931F9300919A079A
:1037B00010919B0720919C0730919D07B801C9018A
:1037C0001F910F9108952091A3073091A40781E0E4
:1037D0002115310509F080E00895482F8091A30755
:1037E0009091A4076091A1077091A207861797078F
:1037F000E8F42091A3073091A4078091A507909148
:10380000A607820F931F0F948E00E091A707F091F7
:10381000A807E80FF91F40838091A3079091A407A0
:1038200001969093A4078093A307089581E0E1EAAD
:10383000F7E080870895CF9360E070E080E090E04B
:103840000E94951B1092990710926D0710926E07B7
:1038500010926F071092700710927107C1E0C09329
:103860008F031092B10910929F071092B309109222
:10387000B2091092AF09109291071092920710921C
:103880009307109294071092950710929607109242
:10389000970710929807E9E8F7E0109289071182DC
:1038A0001282138214821582168217821092810767
:1038B0001092820710928307109284071092850756
:1038C000109286071092870710928807E9E7F7E0C1
:1038D0001092790711821282138214821582168245
:1038E00017821092B8091092B9091092BA09109271
:1038F000BB091092B4091092B5091092B609109242
:10390000B70982E490E061E00E945BBA8230D9F5A9
:103910008FEF9FE060E00E945BBA8823A1F1C09323
:103920006207109268071092690710926A07109256
:103930006B0710926707109263071092640710924A
:103940006507109266071092AD091092AB091092AC
:10395000AC0910925D071092B00910925F071092A7
:103960005E07109261071092600710927307109221
:10397000720710927507109274071092AE090E9498
:10398000FF52CF91089510926207CBCF0E941B1C6B
:1039900085E6809390031092A4071092A3071092DB
:1039A000A6071092A5071092A9071092AA071092D5
:1039B0005C07089581E090915C07963009F080E003
:1039C00008958091AE0983FF16C090918E039923CC
:1039D00091F080915C07833071F08091AC0988236D
:1039E00051F080915D078F5F80935D07981718F401
:1039F00081E08093B00908952F923F924F925F9299
:103A00006F927F928F929F92AF92BF92CF92DF92EE
:103A1000EF92FF920F931F93CF93DF93CDB7DEB753
:103A2000AB970FB6F894DEBF0FBECDBF382E8823FC
:103A300021F081E08093780705C080917807882382
:103A400009F4FDC08E01095E1F4FC8010E94CB849E
:103A500081E089838A832E010894411C511C73E004
:103A6000672E712C85E69BE00BA7212E08C00894D9
:103A7000411C511C84EE9BE064E0662E712CFC011D
:103A8000E759FF4F2081FC01222319F026A137A11D
:103A900004C0EC5AFF4F2081318121153105B1F16D
:103AA00048960E9411BF882389F18BA5922DB301FE
:103AB0000E94604E8C01FC0180809180A280B380C6
:103AC000F2018081831531F451E0C52ED12CE12C17
:103AD000F12C04C0CC24CA94DC2C760160E070E0A8
:103AE00080E090E4462D0E949E829B01AC01C701BC
:103AF000B6010F946300DC01CB01880D991DAA1D4E
:103B0000BB1DF80180839183A283B383F4E06F1619
:103B1000710409F0ACCF8CEE91E060ED77E00E948B
:103B20006BBABC0180E090E00E94B1FE2091871644
:103B3000309188164091891650918A160E94B7FFDD
:103B40009B01AC0160E074E284E799E40E94DEFD31
:103B50000E9480FEC62EF72EE82ED92E8091620795
:103B6000882339F18091A007882361F4CE0147961C
:103B700064E070E00E94604E8C01CE01479663E0E5
:103B800070E00BC0CE01479663E070E00E94604E8B
:103B90008C01CE01479664E070E00E94604EFC010B
:103BA00080819181A281B381F80180839183A28376
:103BB000B383CE0147964C2D5F2D6E2D7D2D00E0F9
:103BC00010E020E030E0EE240E943B863320B9F57F
:103BD000CE0103960E94CB84CE01039663E070E091
:103BE0000E94604E8C018CEB99E063E070E00E94D3
:103BF000604EFC0180819181A281B381F8018083B4
:103C00009183A283B383CE01039664E070E00E94A7
:103C1000604E8C018CEB99E064E070E00E94604E95
:103C2000FC0180819181A281B381F801808391831D
:103C3000A283B383CE01039660E00E943984AB96E1
:103C40000FB6F894DEBF0FBECDBFDF91CF911F91AD
:103C50000F91FF90EF90DF90CF90BF90AF909F902B
:103C60008F907F906F905F904F903F902F9008952E
:103C70002F923F924F925F926F927F928F929F927C
:103C8000AF92BF92CF92DF92EF92FF920F931F936A
:103C9000CF93DF93CDB7DEB7C058D0400FB6F894BE
:103CA000DEBF0FBECDBF182FCE018F5A9F4F0E948F
:103CB000234ECE01CD960E94234E112309F4FAC063
:103CC000E9E0F6E183E09081992309F4CCC2DF01B9
:103CD00011979C91992309F4C6C28150BD968823FF
:103CE00091F7DE019996ECEBF9E084E101900D92F9
:103CF0008150E1F7CE0145960E94CB84CE01899692
:103D000060E070E00E94604E4C0140910E165091B0
:103D10000F1660911016709111168EE090E00E94BF
:103D200081BA6B017C0180E00E94538220E030E088
:103D300040EA50E40E94B7FF0E9480FEDC01CB0104
:103D4000C81AD90AEA0AFB0AF401C082D182E282C7
:103D5000F382CE01899661E070E00E94604E4C01D2
:103D600040913B1650913C1660913D1670913E1665
:103D700082E190E00E9481BA6B017C0181E00E94A7
:103D8000538220E030E040EA50E40E94B7FF0E94F6
:103D900080FEDC01CB01C81AD90AEA0AFB0AF40149
:103DA000C082D182E282F382CE01899662E070E025
:103DB0000E94604E409168165091691660916A1693
:103DC00070916B16FC014083518362837383CE0133
:103DD000459662E070E00E94604EFC01C080D18098
:103DE000E280F380CE01899662E070E00E94604E2E
:103DF000FC0180819181A281B3818C159D05AE0566
:103E0000BF05BCF4CE01899662E070E00E94604E6E
:103E10006C01CE01459662E070E00E94604EFC01AC
:103E200080819181A281B381F60180839183A283F5
:103E3000B383CE01899663E070E00E94604E6C010E
:103E4000CE01459663E070E00E94604EFC018081E7
:103E50009181A281B381F60180839183A283B38390
:103E6000CE01899664E070E00E94604E6C01CE0144
:103E7000459664E070E00E94604EFC018081918173
:103E8000A281B381F60180839183A283B383CE01A3
:103E90008B599F4FBE01675D7F4F0E94F683DE0105
:103EA000DD96FE01EB59FF4F84E101900D928150A8
:103EB000E1F76FC0DE01DD96ECEBF9E084E1019003
:103EC0000D928150E1F7CE0145960E94CB84CE0140
:103ED000459660E070E00E94604EFC014080518099
:103EE00062807380CE01459661E070E00E94604E72
:103EF000FC010081118122813381CE01459662E06F
:103F000070E0C158DF4F2883CF57D040C058DF4FF3
:103F10003883C058D0400E94604EFC01C080D180E0
:103F2000E280F380CE01CD9663E070E00E94604EA7
:103F3000FC0180809180A280B380CE01CD9664E0A8
:103F400070E00E94604E00D00F92FC018081918150
:103F5000A281B381EDB7FEB781839283A383B4833B
:103F6000CE010196B301A201C158DF4F2881CF577E
:103F7000D040C058DF4F3881C058D0400E94244EF6
:103F80000F900F900F900F90CE01019660E00E946D
:103F9000398460915E1670915F16809160169091E1
:103FA00061160E94B3FE20E030E040E857E30E9433
:103FB000B7FF20915A1630915B1640915C165091D4
:103FC0005D160E94B7FF0E9480FEEC966FAFEC97E3
:103FD000ED967FAFED97EE968FAFEE97EF969FAF92
:103FE000EF97CE018B599F4F0E94CB84DE01AF5AD1
:103FF000BF4FFE01EB59FF4F84E101900D928150BC
:10400000E1F7CE018F5A9F4F60E070E00E94604E52
:10401000FC01C080D180E280F380CE01CD9660E0CB
:1040200070E00E94604EFC0180819181A281B38189
:10403000A7019601281B390B4A0B5B0BCA01B9017A
:104040000E94B3FE20910016309101164091021695
:10405000509103160E94DEFD862E172F482EB92E92
:10406000CE018F5A9F4F61E070E00E94604EFC01CC
:10407000C080D180E280F380CE01CD9661E070E017
:104080000E94604EFC0180819181A281B381A701D1
:104090009601281B390B4A0B5B0BCA01B9010E9420
:1040A000B3FE20912D1630912E1640912F1650916F
:1040B00030160E94DEFD362E272EEA968FAFEA9745
:1040C000EB969FAFEB97CE018F5A9F4F62E070E067
:1040D0000E94604EFC01C080D180E280F380CE015E
:1040E000CD9662E070E00E94604EFC01808191817B
:1040F000A281B381A7019601281B390B4A0B5B0BE8
:10410000CA01B9010E94B3FE20915A1630915B1684
:1041100040915C1650915D160E94DEFD062FC72E61
:10412000F82EE92E882D912FA42DBB2DBC01CD0199
:10413000912EA42CA50194010E94B7FF2B013C01F4
:10414000A101EA963FADEA97EB962FADEB97852F4D
:10415000942FA32FB22FBC01CD01852E942EA32E18
:10416000B22EA50194010E94B7FF9B01AC01C301CF
:10417000B2010E9463FD4B015C019701802F9C2DD1
:10418000A32FB22FBC01CD01A7011C2D252F342F49
:10419000A90198010E94B7FF9B01AC01C501B401C0
:1041A0000E9463FD0F941E007B018C0180916207C9
:1041B000882339F18091A007882361F4CE01CD9640
:1041C00064E070E00E94604E6C01CE01CD9663E029
:1041D00070E00BC0CE01CD9663E070E00E94604EAF
:1041E0006C01CE01CD9664E070E00E94604EFC014F
:1041F00080819181A281B381F60180839183A28322
:10420000B383409002171092021760915E1670916E
:104210005F1680916016909161160E94B3FE20E0B7
:1042200030E040E857E30E94B7FF20E030E040E88C
:1042300052E40E94B7FF0E9480FE4B015C01CE0158
:10424000CD96EC964FADEC97ED965FADED97EE9673
:104250006FADEE97EF967FADEF9720E064010E947F
:10426000B28740920217C058DF4F0FB6F894DEBFF6
:104270000FBECDBFDF91CF911F910F91FF90EF90B7
:10428000DF90CF90BF90AF909F908F907F906F9076
:104290005F904F903F902F9008951F93CF93DF939F
:1042A000E82FF0E0A3E0EE0FFF1FAA95E1F7E75734
:1042B000F84F2081318142815381648175818681EB
:1042C000978197FF56C02195E1E0121608F0E0E0D3
:1042D0003195F1E0131608F0F0E0132F1E1BE1E01A
:1042E000311708F0E0E0FE2B4195E1E0141608F0EC
:1042F000E0E0D42FDF1B31E04D1708F030E0E32B76
:104300005195F1E0151608F0F0E0C52FCE1B31E015
:104310005C1708F030E0F32B6195E1E0161608F029
:10432000E0E0B62FBF1B31E06B1708F030E0E32B65
:104330007195F1E0171608F0F0E0A72FAE1B31E001
:104340007A1708F030E0F32B8195E1E0181608F0B9
:10435000E0E0382F3F1BF32F31E08F1708F030E0FB
:10436000E32B9195312F4D2F5C2F6B2F7A2F8F2FB1
:104370009E1BDF91CF911F9108957F928F929F9204
:10438000AF92BF92CF92DF92EF92FF920F931F9363
:10439000CF93DF93D82E0E944D21C22FC32EB42E6F
:1043A000A52E962E872E782ED92F191694F09923A4
:1043B00009F0A4C0882369F4772359F4662349F4EB
:1043C000552339F4442329F4332319F4222309F41F
:1043D00095C0ED2CFF2487E390E0E80EF91E13E072
:1043E000EE0CFF1C1A95E1F7C70100E010E020E099
:1043F00030E040E050E060E070E00E9432BB022F0D
:104400000C0F11E0021708F010E0C30E21E0C316F4
:1044100008F020E01C0D31E01C1508F030E0232BE3
:10442000B40E31E0B41608F030E02B0D41E02B154E
:1044300008F040E0342BA50E41E0A51608F040E05E
:104440003A0D51E03A1508F050E0452B960E51E038
:10445000961608F050E0490D61E0491508F060E05B
:10446000562B870E61E0871608F060E0580D71E06A
:10447000581508F070E0672B780E71E0781608F098
:1044800070E0670D81E0671508F080E0782BD90FA8
:104490007D0FC7010E948BBBED2DF0E0B3E0EE0F66
:1044A000FF1FBA95E1F7DF01A758B84FE757F84F5C
:1044B00080818C93818111968C93119782811296C1
:1044C0008C931297838113968C93139784811496FF
:1044D0008C931497858115968C93159786811696E3
:1044E0008C931697878117968C9317971082118259
:1044F000128213821482158216821782DF91CF9165
:104500001F910F91FF90EF90DF90CF90BF90AF90F1
:104510009F908F907F90089580E00E94BD2181E060
:104520000E94BD2108951F93CF93DF93E82FF0E001
:1045300083E0EE0FFF1F8A95E1F7E758F84F2081DF
:10454000318142815381648175818681978197FF92
:1045500056C02195E1E0121608F0E0E03195F1E057
:10456000131608F0F0E0132F1E1BE1E0311708F0DE
:10457000E0E0FE2B4195E1E0141608F0E0E0D42FD6
:10458000DF1B31E04D1708F030E0E32B5195F1E0EF
:10459000151608F0F0E0C52FCE1B31E05C1708F0CF
:1045A00030E0F32B6195E1E0161608F0E0E0B62F5D
:1045B000BF1B31E06B1708F030E0E32B7195F1E0A1
:1045C000171608F0F0E0A72FAE1B31E07A1708F0BD
:1045D00030E0F32B8195E1E0181608F0E0E0382F89
:1045E0003F1BF32F31E08F1708F030E0E32B91955C
:1045F000312F4D2F5C2F6B2F7A2F8F2F9E1BDF912A
:10460000CF911F910895CF92DF92EF92FF921F9367
:10461000CF93DF9380E00E949322B901CA0143E067
:104620000E9471826B017C0181E00E949322B9019A
:10463000CA0144E00E9471829B01AC01C701B6012E
:104640000E9463FDC62FC72ED82F192F80E00E942D
:104650004D21B901CA0143E00E9471829B01AC0166
:104660008C2F9C2DAD2FB12FBC01CD010E9463FD7D
:10467000D62FC72FC82E192F81E00E944D21B901D6
:10468000CA0144E00E9471829B01AC01FE018F2FA0
:104690009E2FAC2DB12FBC01CD010E9463FD462F92
:1046A000572F682F792FCB01BA01DF91CF911F913E
:1046B000FF90EF90DF90CF9008950F931F93CF93CB
:1046C000DF93082FCDE6D7E010E08881882369F4D6
:1046D000812F0E94DE8A8883812F002319F00E9497
:1046E000E58A03C064E10E94D98A1F5F21961530D4
:1046F00061F7DF91CF911F910F9108951F93CF9391
:10470000DF93CDE6D7E010E0812F68810E94D98A3F
:1047100019921F5F1530C1F7DF91CF911F91089556
:10472000FF920F931F93CF93DF93C82F4091A5075C
:104730005091A6072091A1073091A2070091A707E9
:104740001091A8074F5F5F4FCA01B9010F948E0007
:10475000FC01E00FF11FF080CF3F09F0FC2E8091AB
:10476000A5079091A6070296B9010F948E00800FBD
:10477000911FDC018C918D3009F490C08E3050F483
:104780008C3008F070C0843008F0E6C0833009F047
:10479000E1C00DC0873109F45CC0883120F480315C
:1047A00008F0D8C0D9C08F3109F0D4C087C080913B
:1047B000A5079091A607E091A507F091A60704969A
:1047C000B9010F948E00800F911FDC014C9135963A
:1047D000CF01B9010F948E00800F911FFC01108151
:1047E00000E0040F111D0115110519F40E948C221F
:1047F00023C0CF2DD0E0CC0FDD1FFE01E25AF84FD1
:1048000080819181009739F48DEF9FE060E00E94F4
:104810005BBA882389F0C25AD84F88819981009762
:1048200051F48F2D90E084559F4F880F991F66EEAD
:1048300070E00E946BBA8C01F1E0FF1619F484EE6F
:104840009BE002C085E69BE04896B8010E943DBE11
:104850007BC00E947D1B91E0811190E0892F60E078
:104860000E94C13F79C081E0F81619F4E4EEFBE044
:1048700002C0E5E6FBE08091A5079091A6070496AB
:10488000B9010F948E00800F911FDC016C9170E0D4
:1048900061707070CF010E947ABC5EC08091A507E4
:1048A0009091A6070496B9010F948E00800F911F76
:1048B000FC01808181700E9446494EC00E94713A7D
:1048C000882309F449C08091A5079091A607E0913B
:1048D000A107F091A207C091A707D091A807209146
:1048E000A5073091A6070496BF010F948E008C0F88
:1048F0009D1FDC014C912B5F3F4FC901BF010F94FD
:104900008E008C0F9D1FFC01F081DF2F20E0C22F55
:10491000C40FD11D209771F08DEF9FE060E00E94E1
:104920005BBA882339F08CE591E064E670E00E9480
:104930006BBAEC0180E19BE0BE010E943DBE80E4C9
:104940009AE061E00E94414980917B0C8E7F8093C8
:104950007B0C02C080E001C081E0DF91CF911F910C
:104960000F91FF9008950F931F93CF93DF93CDB7CF
:10497000DEB769970FB6F894DEBF0FBECDBF80914A
:104980009F07853409F4F8C08634A8F4813409F40B
:1049900041C0823448F4803209F4C5C1803421F129
:1049A000823009F0F4C1D6C1833409F44FC0843495
:1049B00008F056C039C0843809F47AC1853850F4FB
:1049C000813809F44DC1833809F45AC1803809F09F
:1049D000DEC1FDC0863809F486C1863808F479C185
:1049E000873809F0D4C184C10E94D33D853059F085
:1049F0000E94D33D843039F089EE93E16AEA73E195
:104A000041E00E94671A81E480939F0781E00E9441
:104A10005D23BDC180918D0D90918C0D891B8F7090
:104A200009F0B5C182E4B1C1CE0106960E94CB84E3
:104A3000ACEBB9E0FE01369684E101900D92815015
:104A4000E1F781E00E94FC1C83E49FC180918D0D01
:104A500090918C0D891B8F7009F099C184E495C1E8
:104A600081E00E94381E85E480939F070E94D33D19
:104A7000853031F00E94D33D843011F010E001C048
:104A800011E0CE0101966EE97AE145E00E94C0F6A0
:104A9000CE0101960E9415F780936C0780E00E947A
:104AA00046498091CE0B882329F080918B0B909101
:104AB0008C0B04C08091B90B9091BA0B9093730743
:104AC0008093720780914D0C882329F080910A0C05
:104AD00090910B0C04C08091380C9091390C9093FC
:104AE0007507809374078091610B882329F080916A
:104AF0001E0B90911F0B04C080914C0B90914D0B9D
:104B000090937707809376078091AF09882339F4D3
:104B10008EEF9FE060E00E945BBA882311F40E9450
:104B20003E1A8091AF09882351F080E060E040E0B8
:104B300021E00E940D9288EF60E00E94A98A6091B6
:104B4000B2097091B3096115710561F08091B109E5
:104B5000882311F4112319F084ED93E1B6C089EE96
:104B600093E1B3C0112319F084ED93E102C089EE03
:104B700093E165E973E1A9C080918D0D90918C0D51
:104B8000891B8F7009F003C10E947E238091B109B7
:104B9000882311F080E209C08091B2099091B30995
:104BA000009711F082E001C081E080939F070E948E
:104BB0009D1A0E94D33D853009F4E9C00E94D33D7F
:104BC000843009F4E4C087E00E94A64DE0C080E094
:104BD0000E945D2380917607909177071816190639
:104BE0006CF480E19BE060E00E9478BF6091760702
:104BF0007091770780E19BE00E943DBE00915E07C7
:104C000010915F070115110521F4009172071091B1
:104C100073071016110654F48DE79BE060E00E94C4
:104C200078BF8DE79BE0B8010E943DBE0091600710
:104C3000109161070115110521F40091740710917D
:104C400075071016110654F48CEF9BE060E00E948B
:104C500078BF8CEF9BE0B8010E943DBE81E895C013
:104C60008091760790917707181619060CF080C08E
:104C700080E19BE00E9411BF882309F488C078C0BE
:104C80008091720790917307181619060CF072C084
:104C90008DE79BE00E9411BF882309F478C06AC0A9
:104CA0008CEF9BE00E9411BF882309F470C06AC09A
:104CB00081E00E945D2380E00E94381E85E8809399
:104CC0009F078FEB93E160E873E141E00E94671A70
:104CD0005EC080918D0D90918C0D891B8F7009F0B5
:104CE00056C086E852C080E00E94FC1C87E84DC098
:104CF00080918D0D90918C0D891B8F7009F047C0AC
:104D000080916C070E9446490E947E230E949D1A52
:104D100010929F071092B3091092B2091092AD0938
:104D20001092B00934C00E949D1A6091B20970912E
:104D3000B30980E49AE040E021E00E949D470E9490
:104D4000AC4F1092B3091092B2091092B1091092AF
:104D50009F071DC00E949D1A6091B2097091B3090E
:104D600080E49AE040E021E00E949D4781E00DC090
:104D700083E80BC080917407909175071816190687
:104D80000CF48ECF0E947E2384E880939F0769965F
:104D90000FB6F894DEBF0FBECDBFDF91CF911F914C
:104DA0000F910895CF92DF92EF92FF920F931F938E
:104DB000CF93DF93C0919003C53609F464C0CC2330
:104DC00009F461C0D0916707CD1709F45CC0DD23F9
:104DD00009F459C060916307709164078091650779
:104DE00090916607611571058105910509F44BC025
:104DF0000E94B1FE6B017C016C2F70E06D1B71098C
:104E0000882777FD8095982F0E94B3FE9B01AC0107
:104E1000C701B6010E94DEFD6B017C016C2F70E0C2
:104E200080E090E00E94B1FE9B01AC0160E070E088
:104E300088EC92E40E9462FD9B01AC01C701B601BF
:104E40000E94B7FFD62FC72E082FC92F862F9C2D63
:104E5000A02FBC2FBC01CD0120E030E040E050E0AD
:104E60000E94DAFD87FF04C0D0E0CC2400E0C0E05F
:104E70008D2F9C2DA02FBC2FBC01CD010E9480FE48
:104E80008B019C0104C000E010E020E030E0B8019C
:104E9000C901DF91CF911F910F91FF90EF90DF90AB
:104EA000CF900895CF93DF93FC0182819381009787
:104EB00021F481E0818780E019C08481958120817F
:104EC0003181B9010F948E00C681D781C80FD91FD7
:104ED000848195810196B9010F948E009583848316
:104EE000828193810197938382838881DF91CF911F
:104EF0000895EF92FF921F93CF93DF930F920F923B
:104F0000CDB7DEB741EAE42E47E0F42EC7010E9498
:104F10005227682FC7016A830E945227782FC70142
:104F200079830E945227182FC7010E945227982F79
:104F30006A817981812F0F900F90DF91CF911F911E
:104F4000FF90EF9008951F93CF93DF93C1EAD7E0CE
:104F5000CE010E945227182FCE010E945227982F6F
:104F6000812FDF91CF911F91089581EA97E00E94F0
:104F7000522708952F923F924F925F926F927F92A5
:104F80008F929F92AF92BF92CF92DF92EF92FF9259
:104F90000F931F93CF93DF93CDB7DEB7C15FD040A0
:104FA0000FB6F894DEBF0FBECDBF0E94484F8823D6
:104FB00009F56CC02091A3073091A4078091A50743
:104FC0009091A607820F931F0F948E00E091A70780
:104FD000F091A807E80FF91F40838091A3079091F3
:104FE000A40701969093A4078093A30704C000939D
:104FF000A90701C001E08091A3079091A407209127
:10500000A1073091A2072817390711F40C94EA364A
:105010000E949A4F882311F40C94EA360E949D4F07
:10502000482F8091A3079091A4076091A1077091E8
:10503000A2078617970708F4BDCFD9CF80919103B7
:105040008823D1F090919F079923B1F491E0909338
:10505000B109813019F48AE99BE107C08B3019F45A
:1050600089E39BE102C087E89BE19093B3098093B9
:10507000B2090E94451A5BC08091B2099091B309B0
:10508000009709F054C00E94AC4F51C00E94D28FCB
:10509000882309F54CC02091A3073091A407809183
:1050A000A5079091A607820F931F0F948E00E091A1
:1050B000A707F091A807E80FF91F40838091A30785
:1050C0009091A40701969093A4078093A30704C02E
:1050D0000093A90701C001E08091A3079091A40764
:1050E0002091A1073091A2072817390711F40C94D9
:1050F000F2360E94E08F882311F40C94F2360E945D
:10510000EE8F482F8091A3079091A4076091A1078B
:105110007091A2078617970708F4BDCFD9CF809169
:10512000A3079091A407009711F40E942790809103
:105130009A0790919B07A0919C07B0919D070097BB
:10514000A105B10529F180919907882309F5CE01C0
:1051500089579F4F0E94CB84CE0189579F4F62E0B1
:1051600070E00E94584E40919A0750919B076091C1
:105170009C0770919D07FC0180819181A281B38180
:1051800084179507A607B7071CF481E08093990759
:1051900080919A0790919B07A0919C07B0919D07E1
:1051A0000097A105B10511F40C94FA368091990786
:1051B000882311F40C94FA360E947D1B882311F089
:1051C0000C94FA36CE018D589F4F0E94CB84CE01AD
:1051D0008D589F4F62E070E00E94584E40919A07B0
:1051E00050919B0760919C0770919D07FC01808105
:1051F0009181A281B38184179507A607B70714F49C
:105200000C94FA3660E070E080E090E00E94951B1C
:1052100081E060E00E94C13F0C942F370E94B324CC
:105220000C942F371130B1F48091AF09882311F01D
:105230000C942F3780919E07882311F00C942F3700
:105240008CEC9AE00E949BFA882311F40C942F377F
:105250000C94023780915C07833071F40E941883AC
:10526000882341F080E597E00E949BFA882321F093
:105270000E945E8C10925C078091AD09882321F416
:105280008091B009882329F18091AC09882309F124
:1052900080915C078330E9F080919F078823C9F4EF
:1052A0000E947D1B882389F48091B009882319F01E
:1052B00085E391E102C088EA98E19093B309809375
:1052C000B20981E061E00E94C13F1092AD091092E5
:1052D0005D0780915C07813031F40E941883882338
:1052E00011F410925C0780915C07823041F486E5EE
:1052F00097E00E949BFA882311F010925C0780913E
:105300005C07843009F052C08AE497E00E949BFA5F
:10531000882349F080E49AE062E77AE140E020E007
:105320000E949D4741C08091A007813019F484EE0E
:105330009BE002C085E69BE048960E9441BF88231F
:1053400099F480916207882379F18091A0078823DE
:1053500019F484EE9BE002C085E69BE048960E942B
:1053600041BF882319F520C08091A007813019F42E
:1053700084EE9BE002C085E69BE048960E9411BF48
:105380008823A1F080916207882371F08091A007A3
:10539000882319F484EE9BE002C085E69BE04896E2
:1053A0000E9411BF882311F010925C0780915C0766
:1053B0008530E9F48AE497E00E949BFA882349F05B
:1053C00080E49AE06DE37AE140E020E00E949D47AE
:1053D0000CC080E19BE00E9441BF882331F080E156
:1053E0009BE00E9411BF882311F010925C0780910E
:1053F0005C07863089F584E497E00E949BFA882355
:1054000091F08091420781FF06C080E49AE060E05D
:105410000E94554B21C010925C0780917B0C8F7EBF
:1054200080937B0C19C084EE9AE00E944FC48823BD
:1054300099F08091420782FF04C084EE9AE00E94B6
:1054400098C20E94294C80917B0C8F7E80937B0CAC
:105450000E94EF9210925C0780915C07882311F004
:105460000C942F378091A3079091A407009711F413
:105470000C942F3780E49AE00E9427478091A5077B
:105480009091A6076091A1077091A2070F948E00DA
:10549000E091A707F091A807E80FF91F00810B38EA
:1054A000A1F10E3811F40C9415370B3911F40C944A
:1054B0001E37093811F40C941137063811F40C9486
:1054C00027370C3811F40C9411370C3911F40C9463
:1054D0001137003911F40C941137033811F40C947E
:1054E0001137043811F40C941137083811F40C9466
:1054F0001137043911F40C9411370E94466A88233D
:1055000011F00C9411370C942F378091A3079091D0
:10551000A4078931910510F40C942F370E94B52708
:1055200081E080935C070E947927CC53DF4F68832A
:1055300079838A839B83C45CD0400E947927C853B7
:10554000DF4F688379838A839B83C85CD0400E9445
:105550007927C453DF4F688379838A839B83CC5C2C
:10556000D0400E9479274B015C010E9479276B0192
:105570007C010E947927C053DF4F688379838A8337
:105580009B83C05DD04080916207882349F0809161
:10559000A007882319F47501640102C04601570170
:1055A0008091B4099091B509A091B609B091B7095D
:1055B000A5019401281B390B4A0B5B0BDA01C901C9
:1055C000192FFA2FEB2FBB0F880B982FDC01782FA8
:1055D000682F582F9091890730918A0740908B0748
:1055E00050908C0760908D0770908E0700918F0708
:1055F000B0919007920F41E0921708F040E0310F10
:1056000021E0311708F020E0430FA1E0431708F034
:10561000A0E02A2B4F0E31E04F1608F030E0240DA9
:10562000F1E0241508F0F0E03F2B5E0EF1E05E168D
:1056300008F0F0E0A32FA50D31E0A51508F030E04B
:10564000F32B670EE1E0671608F0E0E0F60D31E0BD
:10565000F61508F030E0E32B760E31E0761608F010
:1056600030E0E70D61E0E71508F060E0362B050F4C
:1056700061E0051708F060E0300F51E0301708F0E6
:1056800050E0562B8B0F580F9093890740938A0751
:1056900020938B07A0938C07F0938D07E0938E07E0
:1056A00030938F07509390078091B8099091B90972
:1056B000A091BA09B091BB09A7019601281B390B2B
:1056C0004A0B5B0BDA01C901192FFA2FEB2FBB0F25
:1056D000880B982FDC01782F682F582F9091910715
:1056E00030919207409093075090940760909507EF
:1056F0007090960700919707B0919807920F41E03C
:10570000921708F040E0310F21E0311708F020E057
:10571000430FA1E0431708F0A0E02A2B4F0E31E021
:105720004F1608F030E0240DF1E0241508F0F0E009
:105730003F2B5E0EF1E05E1608F0F0E0A32FA50D02
:1057400031E0A51508F030E0F32B670EE1E06716B5
:1057500008F0E0E0F60D31E0F61508F030E0E32B5C
:10576000760E31E0761608F030E0E70D61E0E715DF
:1057700008F060E0362B050F61E0051708F060E0E7
:10578000300F51E0301708F050E0562B8B0F580FB8
:10579000909391074093920720939307A0939407C7
:1057A000F0939507E09396073093970750939807E7
:1057B0008092B4099092B509A092B609B092B70947
:1057C000C092B809D092B909E092BA09F092BB0927
:1057D0000E942D1A00D00F92ADB7BEB71196CD9290
:1057E000DD92ED92FC921497CE01855B9F4FCC53D6
:1057F000DF4F488159816A817B81C45CD040C853A6
:10580000DF4F088119812A813B81C85CD040C45395
:10581000DF4FC880D980EA80FB80CC5CD0400E94FA
:10582000244E0F900F900F900F90CE01855B9F4FED
:10583000C053DF4F488159816A817B81C05DD04070
:1058400000E010E020E030E0EE2459C20E94B527CD
:1058500081E080935C070E947927C053DF4F688303
:1058600079838A839B83C05DD0400E947927CA5286
:10587000DF4F688379838A839B83C65DD0400E9413
:105880007927C652DF4F688379838A839B83CA5DF9
:10589000D0400E9479274B015C010E947927062F96
:1058A000C72EE82E192F0E947927C252DF4F688336
:1058B00079838A839B83CE5DD0400E94B527782E62
:1058C000809162078823E1F08091A007882339F452
:1058D000BFEE7B2273FE0BC0E0E17E2A08C0F7EF2B
:1058E0007F2274FE09C088E0F82E7F2805C0082DAD
:1058F000C92CEA2C1B2D04C0802E9C2CAE2CB12E62
:105900008F8A988EA98EBA8E0B8FCC8EED8E1E8FBD
:10591000E9E8F7E09E01295E3F4FC453DF4F39832A
:105920002883CC5CD04044EB59E0CC53DF4F598303
:105930004883C45CD04083E090E0C853DF4F998334
:105940008883C85CD040A72DB0E0CC52DF4FB9832C
:10595000A883C45DD040C851DF4F7882C85ED04074
:10596000C751DF4F8882C95ED040C651DF4F988251
:10597000CA5ED040C451DF4FA882CC5ED0402B2CF1
:10598000302E4C2CBE2CC351DF4F1883CD5ED0403F
:10599000CC52DF4F88819981C45DD040C853DF4F1E
:1059A0000880C85CD04002C0959587950A94E2F7BC
:1059B000C453DF4FA881B981CC5CD04080FF7DC04B
:1059C0004D915D916D917C91152FC62EA72EDB0117
:1059D000CA01BB0F880B982FDC01982E882E782ED9
:1059E000582E8081D1800281B381A48135812681A6
:1059F0006780982F940FEE24E394981708F0EE2414
:105A00001D0D81E01D1508F080E0E10EDD24D3942A
:105A1000E11608F0DD248D29C00E11E0C01608F053
:105A200010E08C0D01E08C1508F000E0102BAB0E9F
:105A300001E0AB1608F000E01A0DB1E01A1508F00D
:105A4000B0E00B2B9A0EB1E09A1608F0B0E0090D09
:105A5000A1E0091508F0A0E0BA2B830EA1E083169F
:105A600008F0A0E0B80D31E0B81508F030E0A32B45
:105A7000720E31E0721608F030E0A70D21E0A71594
:105A800008F020E0322B650C360D9083E182828392
:105A900013830483B583A6833783CC53DF4FA88158
:105AA000B981C45CD0400D911D912D913C9113970B
:105AB000040F151F261F371F97C00D911D912D91A3
:105AC0003C91CC53DF4FA881B981C45CD0404D914B
:105AD0005D916D917C91D901C801841B950BA60B3A
