:100000000C9478220C94A7220C94A7220C94A7227B
:100010000C94A7220C94A7220C94A7220C94A7223C
:100020000C94A7220C94A7220C94A7220C94A7222C
:100030000C94A7220C940B480C94A7220C94A72292
:100040000C94A7220C94A7220C94A7220C94A7220C
:100050000C94A7220C94A7220C94A7220C94A722FC
:100060000C94A7220C9465D80C94A7220C9492D8D7
:100070000C94A7220C9420A30C94A7220C94A722E2
:100080000C94A7220C94A7220C94A7220C94A722CC
:100090000C94A7220C94A7220C94A7220C94A722BC
:1000A0000C94A7220C94A7220C94A7220C94A722AC
:1000B0000C94A7220C94A7220C94A7220C9484449D
:1000C0000C94A7220C94A7220C94A7220C94A7228C
:1000D0000C94A7220C94A7220C94A7220C94A7227C
:1000E0000C94A722143D3C3D413D1E3D463D933DB1
:1000F000933D1E3D643D933D693D713D763D7B3DA5
:10010000503D553D5A3D1E3D5F3D933D193D4B3D94
:10011000803D853D893D933D933D8D3D5072657099
:100120006172696E6720666F7220736C6565703AE4
:1001300049276D20636F6D706C6574696E6720610F
:100140006E792020717565756564206D6F766573B5
:100150002E004368616E67696E672046696C616D49
:10016000656E743A202049276D20636F6D706C6551
:1001700074696E6720616E7920207175657565649C
:10018000206D6F7665732E00494E56414C494420D0
:10019000544F4F4C3A2020202020202049207265C7
:1001A0006365697665642061204C65667420202053
:1001B000546F6F6C20636F6D616E642C2062757478
:1001C000204920206F6E6C792068617665206F6E03
:1001D0006520546F6F6C2E00494E56414C494420A7
:1001E000434F4D4D414E443A202020204920726516
:1001F000636569766564206120636F6D6D616E640F
:10020000666F7220612068656174656420706C613E
:1002100074652C20627574204920646F6E277420E9
:1002200068617665206F6E65004920736177206193
:1002300020676C6974636820696E206D795344206F
:10024000636172642E204966207468697320697343
:1002500020746865206669727374206572726F72AB
:100260002C2074727974686973206D6F64656C20DA
:10027000616761696E2E20202000492074696D65D8
:1002800064206F7574207768696C65202020617424
:1002900074656D7074696E6720746F206865617431
:1002A00020206D792065787472756465722E00491E
:1002B0002074696D6564206F7574207768696C655A
:1002C000202020617474656D7074696E6720746F8E
:1002D000206865617420206D7920706C6174666F90
:1002E000726D2E00507265706172696E6720666F64
:1002F0007220736C6565703A49276D20636F6F6C6F
:10030000696E67206D792020202020206865617447
:1003100065727320616E6420676F696E6720746F09
:100320006D79207761697420706F736974696F6E7D
:100330002E004368616E67696E672046696C616D67
:10034000656E743A202049276D20676F696E6720BB
:10035000746F206D792077616974706F7369746947
:100360006F6E2E0052657374617274696E672074CB
:100370006865204275696C6400546869732069730C
:10038000206E6F74207468652078336720766572FC
:1003900073696F6E204920776F726B20626573748A
:1003A00020776974682E20466F722068656C702013
:1003B0007365653A2066663364702E636F6D2F68CF
:1003C000656C70202020004920616D2061205265FD
:1003D000706C696361746F722E2020546869732099
:1003E0006275696C6420697320666F7220202061D9
:1003F0006E6F7468657220626F742E205365653A63
:1004000020202066663364702E636F6D2F68656CE4
:100410007020202000546865205265706C6963610B
:100420007430720049276D2043616E63656C6C699E
:100430006E672E2020202020506C65617365205748
:100440006169742E002000486561746572732073C1
:10045000687574646F776E20202020647565207441
:100460006F20696E61637469766974792020200059
:100470004578747275646572204F7665726865613F
:1004800074212020536F6674776172652054656D06
:1004900070204C696D6974205265616368656421E0
:1004A00020506C656173652020202020536875748E
:1004B000646F776E206F722052657374617274007E
:1004C00048656174696E67204661696C7572652163
:1004D000202020204D7920657874727564657273D0
:1004E00020617265206E6F7468656174696E672043
:1004F00070726F7065726C792E202020436865637E
:100500006B206D7920636F6E6E656374696F6E73B7
:100510000048656174696E67204661696C75726533
:1005200021202020204D79206578747275646572D1
:100530007320617265202020206C6F73696E6720C4
:1005400074656D70657261747572652E204368659F
:10055000636B206D7920636F6E6E656374696F6E77
:100560007300486561746572204572726F72212054
:1005700020202020202049276D2072656164696E4B
:1005800067206F7574206F66202072616E6765202A
:1005900074656D7065726174757265732E20436841
:1005A00065636B206D7920636F6E6E656374696F30
:1005B0006E7300486561746572204572726F7221B6
:1005C000202020202020204D792074656D706572D8
:1005D000617475726520726561647361726520660D
:1005E00061696C696E672120506C65617365204399
:1005F0006865636B206D7920636F6E6E65637469E7
:100600006F6E73009302690000006900EE016900DB
:10061000000069002601B801000000002006550016
:10062000000055002D085500000055004D0A5500EA
:1006300000005500400CAB000000AB002D09550038
:10064000000055002D085500000055004D0AAB0074
:100650000000550000000001C00D550000005500CD
:100660002D08560100000000C00D20015311BC00F0
:100670005B12B10100000000C00DC80000001400B2
:10068000C00DC80000001400910E9001000014007D
:100690005A10900100001400C00D2003000000005B
:1006A000C805C80000001400C805C80000001400F8
:1006B000C805C80000001400DD04B00400001400E8
:1006C0007505C800000014007505C800000014007E
:1006D0007505C800000014009704B0040000000075
:1006E000B807550000005500B909AB000000AB0089
:1006F0007D06550000005500C80555000000550056
:10070000B807AB000000AB00C8055500000055005D
:10071000DD04550000005500C805550000005500D7
:10072000B8075500000055007D0656010000000086
:100730003F03550000005500FA0C5500000055001D
:100740003F03550000005500B90955000000550051
:100750003F035500000055002D09550000005500CD
:100760003F03550000005500EA0A550000005500FF
:100770003F03550000005500B909AB000000000020
:10078000534420436172642052656D6F7665640046
:1007900024F404D9201BC40C5C0E9804C4095F0225
:1007A00065077101F405F900FB04B30048048700F4
:1007B000C10369005803550003034500BE023A0017
:1007C0008402310053022A0029022500040220007D
:1007D000E4011C00C8011900AF01170098011400C2
:1007E00084011300710110006101100051010E001D
:1007F00043010D0036010B002B010B0020010B0003
:10080000150109000C01090003010800FB000800A4
:10081000F3000800EB000700E4000600DE0006001D
:10082000D8000600D2000600CC000500C700050075
:10083000C2000500BD000400B9000400B5000400BA
:10084000B1000400AD000400A9000400A5000300ED
:10085000A20003009F0004009B0003009800030017
:100860009500020093000300900003008D00020039
:100870008B00030088000200860002008400030051
:10088000810002007F0002007D0002007B00020068
:100890007900020077000100760002007400020077
:1008A00072000100710002006F0002006D00010083
:1008B0006C0002006A00010069000200670001008C
:1008C0006600010065000100640002006200010092
:1008D00061000100600001005F0002005D00010096
:1008E0005C0001005B0001005A000100590001009A
:1008F000580001005700010056000100550001009A
:100900005400010053000000530001005200010098
:1009100051000100500001004F0001004E00000096
:100920004E0001004D0001004C0001004B00000092
:100930004B0001004A00010049000100480000008E
:100940004800010047000100460000004600010089
:100950004500000045000100440001004300000084
:10096000430001004200000042000100410000007D
:1009700041000100400001003F0000003F00010075
:100980003E0000003E0001003D0000003D0001006F
:100990003C0000003C0000003C0001003B00000067
:1009A0003B0001003A0000003A000100390000005D
:1009B0003900010038000000380000003800010054
:1009C000370000003700010036000000360000004C
:1009D0003600010035000000350000003500010040
:1009E0003400000034000000340001003300000037
:1009F000330000003300010032000000320000002C
:100A0000320001003100000031000000310001001F
:100A10003000000030000000300001002F00000016
:100A20002F0000002F0000002F0001002E0000000A
:100A30002E0000002E0001002D0000002D000000FF
:100A40002D0000002D0001002C0000002C000000F3
:100A50002C0000002C0001002B0000002B000000E7
:100A60002B0000002B0001002A0000002A000000DB
:100A70002A0000002A0001002900000029000000CF
:100A800029000000290000002900010028000000C2
:100A900028000000280000002800000028000100B5
:100AA00027000000270000002700000027000000AA
:100AB000270001002600000026000000260000009C
:100AC000260000002600010025000000250000008F
:100AD0002500000025000000250000002500010081
:100AE0002400000024000000240000002400000076
:100AF0002400010023000000230000002300000068
:100B00002300000023000000230000002300010058
:100B1000220000002200000022000000220000004D
:100B2000220000002200010021000000210000003E
:100B30002100000021000000210000002100000031
:100B40002100010020000000200000002000000023
:100B50002000000020000000200000002000000015
:100B6000200001001F0000001F0000001F00000007
:100B70001F0000001F0000001F0000001F000100F8
:100B80001E0000001E0000001E0000001E000000ED
:100B900024F4D43050C38E20C2A24017828B70112F
:100BA000127A910D816CD90AA861E108C7586607CD
:100BB000615143061E4B5D05C145A7041A4111044E
:100BC000093D9803713931034036DB0265339102E8
:100BD000D4305402802E1D02632CEE01752AC5010B
:100BE000B028A001102781018F2564012B244B011F
:100BF000E0223401AC211F018D200D01801FFC007B
:100C0000841EED00971DDF00B81CD200E61BC60055
:100C1000201BBC00641AB200B219A8000A19A00077
:100C20006A189900D117910040178B00B5168400FF
:100C300031167E00B31579003A157300C7146F00A2
:100C400058146A00EE1366008813630025135E00D3
:100C5000C7125B006C12570015125400C1115100ED
:100C600070114F0021114B00D61049008D10470024
:100C70004610440002104200C00F4000800F3E00AA
:100C8000420F3C00060F3B00CB0E3800930E37009E
:100C90005C0E3500270E3400F30D3200C10D31001B
:100CA000900D3000600D2E00320D2D00050D2C0032
:100CB000D90C2B00AE0C2900850C29005C0C2700F8
:100CC000350C27000E0C2600E80B2400C40B240072
:100CD000A00B23007D0B23005A0B2100390B2100B0
:100CE000180B2000F80A1F00D90A1E00BB0A1E00BC
:100CF0009D0A1D00800A1D00630A1C00470A1B0094
:100D00002C0A1B00110A1A00F7091A00DD09190044
:100D1000C4091900AB091900920917007B091800D2
:100D2000630917004C091600360916002009160041
:100D30000A091500F5081500E0081400CC08140095
:100D4000B8081400A4081400900813007D081200CD
:100D50006B081300580812004608120034081100EE
:100D6000230811001208110001081100F0071000FB
:100D7000E0071000D0071000C0071000B0070F00F8
:100D8000A107100091070E0083070F0074070F00E2
:100D900065070E0057070E0049070E003B070D00C0
:100DA0002E070E0020070D0013070D0006070D008B
:100DB000F9060C00ED060D00E0060C00D4060C0050
:100DC000C8060C00BC060C00B0060C00A4060B0004
:100DD00099060C008D060B0082060B0077060B00AF
:100DE0006C060B0061060A0057060B004C060A0051
:100DF00042060A0038060A002E060A0024060A00E7
:100E00001A060A001006090007060A00FD05090077
:100E1000F4050900EB050900E2050900D905090000
:100E2000D0050900C7050900BE050900B505080081
:100E3000AD050800A50509009C05080094050800FB
:100E40008C050800840508007C050800740508006E
:100E50006C050700650508005D05070056050800DC
:100E60004E05070047050700400508003805070044
:100E7000310507002A050700230507001C050600A9
:100E8000160507000F050700080506000205070004
:100E9000FB040600F5040700EE040600E804060063
:100EA000E2040700DB040600D5040600CF040600B8
:100EB000C9040600C3040600BD040600B70406000A
:100EC000B1040500AC040600A6040600A004050059
:100ED0009B04060095040500900406008A040500A2
:100EE00085040500800406007A04050075040500E9
:100EF000700405006B04050066040500610405002C
:100F00005C04050057040500520405004D0405006B
:100F100048040500430405003E0404003A040500AB
:100F200035040500300404002C04050027040400E7
:100F3000230405001E0404001A040400160405001E
:100F4000110404000D040400090405000404040055
:100F500000040400FC030400F8030400F40304008C
:100F6000F0030400EC030400E8030400E4030400BD
:100F7000E0030400DC030400D8030400D4030400ED
:100F8000D0030400CC030400C8030300C50303001E
:100F90009502000000506C6561736520776169748B
:100FA0002E2E2E00840369010000140083048800A3
:100FB000000014008C000000000000000030F8FF6A
:100FC000FF00000000000000008E00000000000094
:100FD0000000000000000000000000000000572991
:100FE0000400188304DC0500001400901F891F957D
:100FF00002000000506C65617365207761697400C0
:1010000084036901000014008304880000001400B8
:101010008C000000000000000030F8FFFF0000001E
:1010200000000000008E0000000000000000000032
:101030000000000000000000000057290400188391
:1010400004DC05000014008CE5370000941B000050
:1010500000000000000000000000000095000000FB
:101060000046696E64207468652034206B6E6F6280
:1010700073206F6E20009501000000746865206287
:101080006F74746F6E206F66207468652020200076
:101090009501000000706C6174666F726D20616E66
:1010A00064207469676874656E00950700000066C7
:1010B0006F7572206F722066697665207475726E26
:1010C000732E00950000000049276D20676F696E40
:1010D0006720746F206D6F766520202000950100D9
:1010E0000000746865206578747275646572207498
:1010F0006F20202020200095010000007661726999
:101100006F757320706F736974696F6E7320202020
:10111000009507000000666F722061646A75737441
:101120006D656E742E009500000000496E206561AB
:10113000636820706F736974696F6E2C20202000C3
:10114000950100000077652077696C6C206E6565FD
:101150006420746F20202020200095010000006191
:10116000646A7573742032206B6E6F6273206174D1
:101170002020200095070000007468652073616DD1
:10118000652074696D652E0095000000004E6F7A31
:101190007A6C6573206172652061742074686520C3
:1011A0002000950100000072696768742068656915
:1011B000676874207768656E202020009501000024
:1011C00000796F752063616E206A75737420736C8B
:1011D00069646520610095070000007368656574A7
:1011E000206F6620706170657200950000000062DB
:1011F00065747765656E20746865206E6F7A7A6CA9
:10120000652020009501000000616E64207468650F
:1012100020706C6174652E20202020202000950114
:101220000000004772616220612073686565742068
:101230006F6620202020200095070000007061705C
:10124000657220746F206173736973742075732ED7
:10125000009502000000506C65617365207761693C
:1012600074009502000000506C6561736520776121
:101270006974008EE6370000951B0000D00700005F
:1012800000000000000000009AE90300188E000032
:101290000000CAE4FFFFD0070000000000000000CB
:1012A00000002A0D3B00188E00000000C9E4FFFF7B
:1012B0000000000000000000000000009AE90300A8
:1012C00018950000000041646A75737420746865A5
:1012D0002066726F6E742074776F009501000000B5
:1012E0006B6E6F627320756E74696C2070617065CF
:1012F000722020200095010000006A75737420732D
:101300006C69646573206265747765656E2000950D
:10131000070000006E6F7A7A6C6520616E64207041
:101320006C617465009502000000506C6561736526
:101330002077616974008E00000000CAE4FFFFD0CE
:1013400007000000000000000000009AE9030018F8
:101350008E000000007A1A0000D007000000000094
:10136000000000000051812800188E000000007A63
:101370001A00000000000000000000000000009AB9
:10138000E9030018950000000041646A7573742039
:10139000746865206261636B2074776F200095012B
:1013A0000000006B6E6F627320756E74696C207044
:1013B000617065722020200095010000006A75733D
:1013C0007420736C69646573206265747765656EFB
:1013D000200095070000006E6F7A7A6C6520616EC0
:1013E0006420706C617465009502000000506C65AB
:1013F0006173652077616974008E000000007A1ABD
:101400000000D007000000000000000000009AE982
:101410000300188EC624000000000000D007000062
:101420000000000000000000A82F2200188EC62433
:1014300000000000000000000000000000000000AC
:1014400000009AE9030018950000000041646A75E5
:101450007374207468652072696768742074776F8C
:101460000095010000006B6E6F627320756E7469E9
:101470006C207061706572202020009501000000D2
:101480006A75737420736C69646573206265747720
:1014900065656E200095070000006E6F7A7A6C65B6
:1014A00020616E6420706C6174650095020000001C
:1014B000506C656173652077616974008EC6240085
:1014C0000000000000D00700000000000000000045
:1014D000009AE90300188E3ADBFFFF00000000D0FD
:1014E00007000000000000000000008B7C3700189F
:1014F0008E3ADBFFFF00000000000000000000004B
:1015000000000000009AE903001895000000004167
:10151000646A75737420746865206C6566742074E1
:10152000776F200095010000006B6E6F627320756D
:101530006E74696C207061706572202020009501C6
:101540000000006A75737420736C696465732062AF
:1015500065747765656E200095070000006E6F7AF0
:101560007A6C6520616E6420706C61746500950210
:10157000000000506C656173652077616974008EAE
:101580003ADBFFFF00000000D00700000000000071
:10159000000000009AE90300188E0000000000001F
:1015A0000000D0070000000000000000000045BE61
:1015B0001B00188E0000000000000000000000006A
:1015C00000000000000000009AE9030018950000E8
:1015D0000000436865636B207468617420706170FB
:1015E0006572202020200095010000006A75737448
:1015F00020736C69646573206265747765656E201D
:101600000095070000006E6F7A7A6C6520616E6449
:1016100020706C61746500891F9502000000506C99
:101620006561736520776169740084036901000056
:10163000140083048800000014008C0000000000E7
:1016400000000030F8FFFF00000000000000008EE6
:10165000000000000000000000000000000000008A
:101660000000000057290400188304DC0500001462
:10167000008CE5370000941B000000000000000013
:10168000000000000000950000000046696E642024
:101690007468652034206B6E6F6273206F6E20005B
:1016A000950100000074686520626F74746F6E208D
:1016B0006F6620746865202020009501000000708E
:1016C0006C6174666F726D20616E64207469676806
:1016D00074656E009507000000666F7572206F726A
:1016E0002066697665207475726E732E0095000011
:1016F000000049276D20676F696E6720746F206D49
:101700006F76652020200095010000007468652038
:10171000657874727564657220746F2020202020B3
:10172000009501000000766172696F757320706F1B
:10173000736974696F6E73202020009507000000A4
:10174000666F722061646A7573746D656E742E00C5
:101750009500000000496E206561636820706F731A
:101760006974696F6E2C20202000950100000077BD
:10177000652077696C6C206E65656420746F20202D
:1017800020202000950100000061646A75737420B8
:1017900032206B6E6F6273206174202020009507E9
:1017A0000000007468652073616D652074696D6563
:1017B0002E0095000000004E6F7A7A6C65732061F0
:1017C0007265206174207468652020009501000016
:1017D0000072696768742068656967687420776853
:1017E000656E202020009501000000796F75206350
:1017F000616E206A75737420736C69646520610082
:1018000095070000007368656574206F662070613D
:101810007065720095000000006265747765656E02
:1018200020746865206E6F7A7A6C652020009501BF
:10183000000000616E642074686520706C617465DE
:101840002E202020202020009501000000477261FA
:10185000622061207368656574206F6620202020F7
:1018600020009507000000706170657220746F2081
:101870006173736973742075732E00950200000004
:10188000506C656173652077616974009502000092
:1018900000506C656173652077616974008EE5376F
:1018A0000000941B0000D0070000000000000000B2
:1018B00000009AE90300188E11060000CAE4FFFF39
:1018C000D00700000000000000000000DADF370051
:1018D000188E12060000CAE4FFFF0000000000009E
:1018E0000000000000009AE90300189500000000C5
:1018F00041646A757374207468652066726F6E74D3
:101900002074776F0095010000006B6E6F6273208A
:10191000756E74696C20706170657220202000956E
:10192000010000006A75737420736C69646573202C
:101930006265747765656E200095070000006E6F24
:101940007A7A6C6520616E6420706C6174650095B4
:1019500002000000506C6561736520776169740056
:101960008E11060000C9E4FFFFD007000000000050
:1019700000000000009AE90300188E110600007BA9
:101980001A0000D007000000000000000000005115
:10199000812800188E110600007A1A00000000004D
:1019A0000000000000000000009AE9030018950004
:1019B00000000041646A7573742074686520626178
:1019C000636B2074776F200095010000006B6E6FD1
:1019D000627320756E74696C20706170657220206E
:1019E000200095010000006A75737420736C6964AF
:1019F0006573206265747765656E20009507000049
:101A0000006E6F7A7A6C6520616E6420706C617410
:101A100065009502000000506C6561736520776178
:101A20006974008E120600007A1A0000D0070000C8
:101A300000000000000000009AE90300188E2A2729
:101A4000000000000000D0070000000000000000BF
:101A50000000CFF91F00188E2A27000000000000A8
:101A60000000000000000000000000009AE90300F0
:101A700018950000000041646A75737420746865ED
:101A80002072696768742074776F00950100000008
:101A90006B6E6F627320756E74696C207061706517
:101AA000722020200095010000006A757374207375
:101AB0006C69646573206265747765656E20009556
:101AC000070000006E6F7A7A6C6520616E6420708A
:101AD0006C617465009502000000506C656173656F
:101AE0002077616974008E2927000000000000D073
:101AF00007000000000000000000009AE903001841
:101B00008EF9E4FFFF00000000D007000000000095
:101B1000000000000017F03100188EF9E4FFFF000C
:101B20000000000000000000000000000000009A1B
:101B3000E9030018950000000041646A7573742081
:101B4000746865206C6566742074776F2000950159
:101B50000000006B6E6F627320756E74696C20708C
:101B6000617065722020200095010000006A757385
:101B70007420736C69646573206265747765656E43
:101B8000200095070000006E6F7A7A6C6520616E08
:101B90006420706C617465009502000000506C65F3
:101BA0006173652077616974008EF9E4FFFF0000BE
:101BB0000000D007000000000000000000009AE9CB
:101BC0000300188E1106000000000000D00700007E
:101BD00000000000000000000BF81800188E11062D
:101BE00000000000000000000000000000000000F5
:101BF00000009AE90300189500000000436865633F
:101C00006B207468617420706170657220202020E0
:101C10000095010000006A75737420736C69646537
:101C200073206265747765656E200095070000007B
:101C30006E6F7A7A6C6520616E6420706C61746579
:101C400000891F99000000006E6F7A7A6C6543610D
:101C50006C6962726174696F6E0096000086008420
:101C6000033E01000014008304A600000014008C51
:101C7000000000000000000030F8FFFF000000003E
:101C8000000000008B0000000000000000000000C9
:101C9000000000000000000000A60000008304DC3B
:101CA0000500001400901F8CE5370000941B000015
:101CB0000000000000000000000000008BD1D6FFF3
:101CC000FF28E5FFFF60EA000000000000000000C0
:101CD00000800000009101149100149104149103FC
:101CE0001488001F026E008D0064005802880003F3
:101CF00002E60088010302E60087006400580287BC
:101D0000016400580291017F91007F91047F91034B
:101D10007F8B43E6FFFFB8E9FFFF6801000000008A
:101D2000000000000000800000008B43E6FFFFB8C9
:101D3000E9FFFF68010000E4FFFFFF000000000C66
:101D40000300008B43E6FFFFB8E9FFFFF00000004F
:101D5000D0FFFFFF000000003E0000008B43E6FFC5
:101D6000FFB8E9FFFFF0000000B3FFFFFF00000035
:101D700000850100008B8DD7FFFFB8E9FFFFF00061
:101D800000004FFEFFFF000000004A0300008B43ED
:101D9000E6FFFF6EEDFFFFF00000007FFEFFFF009B
:101DA000000000C70000008B43E6FFFF6EEDFFFF61
:101DB000F000000063FEFFFF00000000850100004E
:101DC0008B3BDBFFFF6EEDFFFFF0000000FEFCFF32
:101DD000FF000000004C0300008B43E6FFFF25F1ED
:101DE000FFFFF00000002EFDFFFF00000000CB0011
:101DF00000008B43E6FFFF25F1FFFFF0000000121B
:101E0000FDFFFF00000000850100008B3BDBFFFFB2
:101E100025F1FFFFF0000000ADFBFFFF0000000018
:101E20004C0300008B43E6FFFFDCF4FFFFF00000F3
:101E300000DDFBFFFF00000000CB0000008B43E64D
:101E4000FFFFDCF4FFFFF0000000C1FBFFFF00001C
:101E50000000850100008B3BDBFFFFDCF4FFFFF09F
:101E60000000005CFAFFFF000000004C0300008B44
:101E700043E6FFFF93F8FFFFF00000008DFAFFFF3D
:101E800000000000CB0000008B43E6FFFF93F8FF4B
:101E9000FFF000000070FAFFFF0000000085010065
:101EA000008B3BDBFFFF93F8FFFFF00000000BF916
:101EB000FFFF000000004C0300008B43E6FFFF4AD9
:101EC000FCFFFFF00000003CF9FFFF00000000CB2A
:101ED0000000008B43E6FFFF4AFCFFFFF00000001C
:101EE0001FF9FFFF00000000850100008B3BDBFFB6
:101EF000FF4AFCFFFFF0000000BAF7FFFF00000000
:101F0000004C0300008B43E6FFFF00000000F000E0
:101F10000000EBF7FFFF00000000CB0000008B4348
:101F2000E6FFFF00000000F0000000CEF7FFFF001A
:101F3000000000850100008B3BDBFFFF000000007C
:101F4000F000000069F6FFFF000000004C030000F5
:101F50008B43E6FFFFB6030000F00000009AF6FF97
:101F6000FF00000000CB0000008B43E6FFFFB6033C
:101F70000000F00000007DF6FFFF0000000085017A
:101F800000008B3BDBFFFFB6030000F000000019F0
:101F9000F5FFFF000000004C0300008B43E6FFFF4D
:101FA0006D070000F000000049F5FFFF0000000091
:101FB000CB0000008B43E6FFFF6D070000F0000040
:101FC000002CF5FFFF00000000850100008B3BDBCB
:101FD000FFFF6D070000F0000000C8F3FFFF0000E6
:101FE00000004C0300008B43E6FFFF240B0000F0D1
:101FF000000000F8F3FFFF00000000CB0000008BA2
:1020000043E6FFFF240B0000F0000000DBF3FFFFBE
:1020100000000000850100008B3BDBFFFF240B006C
:1020200000F000000077F2FFFF000000004C03000A
:10203000008B43E6FFFFDB0E0000F0000000A7F27C
:10204000FFFF00000000CB0000008B43E6FFFFDB3A
:102050000E0000F00000008AF2FFFF000000008583
:102060000100008B3BDBFFFFDB0E0000F0000000F7
:1020700026F1FFFF000000004C0300008B43E6FF49
:10208000FF92120000F000000056F1FFFF00000078
:1020900000CB0000008B43E6FFFF92120000F0002F
:1020A000000039F1FFFF00000000850100008B3BBC
:1020B000DBFFFF92120000F0000000D5EFFFFF00F1
:1020C0000000004C0300008B43E6FFFF48160000B1
:1020D000F000000005F0FFFF00000000CB00000052
:1020E0008B43E6FFFF48160000F0000000E8EFFF1A
:1020F000FF00000000850100008B3BDBFFFF48165E
:102100000000F000000084EEFFFF000000004C0320
:1021100000008BC0F4FFFFA6F8FFFF68010000B4C9
:10212000EEFFFF00000000FE0000008BC0F4FFFF88
:10213000A6F8FFFFF000000084EEFFFF00000000A3
:102140009C0000008BC0F4FFFFA6F8FFFFF000002A
:102150000067EEFFFF00000000850100008BC0F467
:10216000FFFF5A070000F000000003EDFFFF000032
:1021700000004A0300008B77F8FFFFA6F8FFFFF08E
:1021800000000033EDFFFF00000000C70000008BDF
:1021900077F8FFFFA6F8FFFFF000000016EDFFFF45
:1021A00000000000850100008B77F8FFFFAD030001
:1021B00000F0000000B2EBFFFF000000004C030045
:1021C000008B2DFCFFFFA6F8FFFFF0000000E2EB04
:1021D000FFFF00000000CB0000008B2DFCFFFFA6DE
:1021E000F8FFFFF0000000C5EBFFFF0000000085D6
:1021F0000100008B2DFCFFFFAD030000F00000008C
:1022000061EAFFFF000000004C0300008BE4FFFFC9
:10221000FFA6F8FFFFF000000091EAFFFF000000BA
:1022200000CB0000008BE4FFFFFFA6F8FFFFF000EB
:10223000000074EAFFFF00000000850100008BE44D
:10224000FFFFFFAD030000F000000010E9FFFF00FA
:102250000000004C0300008B9A030000A6F8FFFF6B
:10226000F000000040E9FFFF00000000CB0000008C
:102270008B9A030000A6F8FFFFF000000023E9FF9F
:10228000FF00000000850100008B9A030000AD03F1
:102290000000F0000000BFE7FFFF000000004C035B
:1022A00000008B51070000A6F8FFFFF0000000EFD0
:1022B000E7FFFF00000000CB0000008B510700008B
:1022C000A6F8FFFFF0000000D2E7FFFF00000000CB
:1022D000850100008B51070000AD030000F00000F5
:1022E000006EE6FFFF000000004C0300008B080BAF
:1022F0000000A6F8FFFFF00000009EE6FFFF0000D0
:102300000000CB0000008B080B0000A6F8FFFFF0D8
:1023100000000081E6FFFF00000000850100008B47
:10232000080B0000AD030000F00000001DE5FFFFFA
:10233000000000004C0300008BBF0E0000A6F8FF59
:10234000FFF00000004DE5FFFF00000000CB0000A3
:10235000008BBF0E0000A6F8FFFFF000000030E584
:10236000FFFF00000000850100008BBF0E0000ADE4
:10237000030000F0000000CCE3FFFF000000004C71
:102380000300008B75120000A6F8FFFFF0000000AC
:10239000FCE3FFFF00000000CB0000008B75120083
:1023A00000A6F8FFFFF0000000DFE3FFFF000000E1
:1023B00000850100008B75120000AD030000F000E5
:1023C00000007BE2FFFF000000004C0300008B2CAC
:1023D000160000A6F8FFFFF0000000ABE2FFFF00D0
:1023E000000000CB0000008B2C160000A6F8FFFFB9
:1023F000F00000008EE2FFFF0000000085010000F9
:102400008B2C160000AD030000F00000002AE1FF55
:10241000FF000000004C0300008BE3190000A6F849
:10242000FFFFF00000005AE1FFFF00000000CB00BA
:1024300000008BE3190000A6F8FFFFF00000003D4C
:10244000E1FFFF00000000850100008BE3190000A0
:10245000AD030000F0000000D9DFFFFF0000000026
:102460004C0300008B9A1D0000A6F8FFFFF000004F
:102470000009E0FFFF00000000CB0000008B9A1D68
:102480000000A6F8FFFFF0000000ECDFFFFF0000F7
:102490000000850100008B9A1D0000AD030000F0D4
:1024A00000000088DEFFFF000000004C0300008BEE
:1024B00051210000A6F8FFFFF0000000B8DEFFFF8A
:1024C00000000000CB0000008B51210000A6F8FFA7
:1024D000FFF00000009BDEFFFF0000000085010010
:1024E000008B51210000AD030000F000000037DD3B
:1024F000FFFF000000004C0300008B51210000ADE5
:10250000030000F000000067DDFFFF000000000C8A
:102510000300008C51210000AD030000F00000001A
:102520000000000000000000860189188B43E6FFD0
:10253000FFF0E9FFFF68010000000000000000005C
:1025400000D20000008B43E6FFFFF0E9FFFF6801C7
:10255000000000000000E4FFFFFF0C0300008B43BD
:10256000E6FFFFF0E9FFFFF000000000000000D0F0
:10257000FFFFFF3E0000008B43E6FFFFF0E9FFFF97
:10258000F000000000000000B3FFFFFF8501000025
:102590008B4BF1FFFFF0E9FFFFF0000000000000AF
:1025A000004FFEFFFF4C0300008B43E6FFFF9EED54
:1025B000FFFFF0000000000000007FFEFFFFCB00E7
:1025C00000008B43E6FFFF9EEDFFFFF000000000E0
:1025D00000000063FEFFFF850100008B4BF1FFFF51
:1025E0009EEDFFFFF000000000000000FEFCFFFF7A
:1025F0004C0300008B43E6FFFF4BF1FFFFF00000B0
:1026000000000000002EFDFFFFCB0000008B43E622
:10261000FFFF4BF1FFFFF00000000000000012FD83
:10262000FFFF850100008B4BF1FFFF4BF1FFFFF037
:1026300000000000000000ADFBFFFF4C0300008B1A
:1026400043E6FFFFF8F4FFFFF00000000000000089
:10265000DDFBFFFFCB0000008B43E6FFFFF8F4FF3C
:10266000FFF000000000000000C1FBFFFF8501003B
:10267000008B4BF1FFFFF8F4FFFFF00000000000BB
:1026800000005CFAFFFF4C0300008B43E6FFFFA64F
:10269000F8FFFFF0000000000000008DFAFFFFCB04
:1026A0000000008B43E6FFFFA6F8FFFFF0000000EC
:1026B0000000000070FAFFFF850100008B4BF1FF66
:1026C000FFA6F8FFFFF0000000000000000BF9FF7C
:1026D000FF4C0300008B43E6FFFF53FCFFFFF000BD
:1026E0000000000000003CF9FFFFCB0000008B431E
:1026F000E6FFFF53FCFFFFF0000000000000001F9A
:10270000F9FFFF850100008B4BF1FFFF53FCFFFF3A
:10271000F000000000000000BAF7FFFF4C030000CB
:102720008B43E6FFFF00000000F000000000000007
:1027300000EBF7FFFFCB0000008B43E6FFFF00003C
:102740000000F000000000000000CEF7FFFF850150
:1027500000008B4BF1FFFF00000000F000000000C4
:1027600000000069F6FFFF4C0300008B43E6FFFF0B
:10277000AD030000F0000000000000009AF6FFFF2B
:10278000CB0000008B43E6FFFFAD030000F000002C
:1027900000000000007DF6FFFF850100008B4BF17B
:1027A000FFFFAD030000F00000000000000019F57D
:1027B000FFFF4C0300008B43E6FFFF5A070000F0C9
:1027C0000000000000000049F5FFFFCB0000008B77
:1027D00043E6FFFF5A070000F00000000000000081
:1027E0002CF5FFFF850100008B4BF1FFFF5A07001E
:1027F00000F000000000000000C8F3FFFF4C0300E1
:10280000008B43E6FFFF080B0000F0000000000013
:102810000000F8F3FFFFCB0000008B43E6FFFF084A
:102820000B0000F000000000000000DBF3FFFF855C
:102830000100008B4BF1FFFF080B0000F0000000CF
:102840000000000077F2FFFF4C0300008B43E6FF1F
:10285000FFB50E0000F000000000000000A7F2FF2E
:10286000FFCB0000008B43E6FFFFB50E0000F00039
:102870000000000000008AF2FFFF850100008B4B82
:10288000F1FFFFB50E0000F0000000000000002680
:10289000F1FFFF4C0300008B43E6FFFF62120000D4
:1028A000F00000000000000056F1FFFFCB00000028
:1028B0008B43E6FFFF62120000F000000000000002
:1028C0000039F1FFFF850100008B4BF1FFFF621221
:1028D0000000F000000000000000D5EFFFFF4C03F7
:1028E00000008B43E6FFFF10160000F00000000020
:1028F00000000005F0FFFFCB0000008B43E6FFFF68
:1029000010160000F000000000000000E8EFFFFFDC
:10291000850100008B4BF1FFFF10160000F0000056
:10292000000000000084EEFFFF4C0300008BF8F471
:10293000FFFF9EEDFFFF6801000000000000B4EE05
:10294000FFFFC10000008BF8F4FFFF9EEDFFFFF0DA
:102950000000000000000084EEFFFF9C0000008BE0
:10296000F8F4FFFF9EEDFFFFF00000000000000004
:1029700067EEFFFF850100008BF8F4FFFFA6F8FF6C
:10298000FFF00000000000000003EDFFFF4C03001B
:10299000008BA6F8FFFF9EEDFFFFF0000000000097
:1029A000000033EDFFFFCB0000008BA6F8FFFF9E79
:1029B000EDFFFFF00000000000000016EDFFFF85B6
:1029C0000100008BA6F8FFFFA6F8FFFFF000000053
:1029D00000000000B2EBFFFF4C0300008B53FCFF34
:1029E000FF9EEDFFFFF000000000000000E2EBFFA3
:1029F000FFCB0000008B53FCFFFF9EEDFFFFF000BC
:102A0000000000000000C5EBFFFF850100008B53B4
:102A1000FCFFFFA6F8FFFFF00000000000000061CF
:102A2000EAFFFF4C0300008B000000009EEDFFFF5B
:102A3000F00000000000000091EAFFFFCB00000062
:102A40008B000000009EEDFFFFF000000000000082
:102A50000074EAFFFF850100008B00000000A6F86B
:102A6000FFFFF00000000000000010E9FFFF4C0332
:102A700000008BAD0300009EEDFFFFF000000000A2
:102A800000000040E9FFFFCB0000008BAD03000019
:102A90009EEDFFFFF00000000000000023E9FFFFB3
:102AA000850100008BAD030000A6F8FFFFF00000D9
:102AB0000000000000BFE7FFFF4C0300008B5A0737
:102AC00000009EEDFFFFF000000000000000EFE7B7
:102AD000FFFFCB0000008B5A0700009EEDFFFFF0C8
:102AE00000000000000000D2E7FFFF850100008B1E
:102AF0005A070000A6F8FFFFF000000000000000E9
:102B00006EE6FFFF4C0300008B080B00009EEDFFFC
:102B1000FFF0000000000000009EE6FFFFCB000079
:102B2000008B080B00009EEDFFFFF000000000008E
:102B3000000081E6FFFF850100008B080B0000A666
:102B4000F8FFFFF0000000000000001DE5FFFF4C53
:102B50000300008BB50E00009EEDFFFFF0000000AB
:102B6000000000004DE5FFFFCB0000008BB50E001C
:102B7000009EEDFFFFF00000000000000030E5FFC8
:102B8000FF850100008BB50E0000A6F8FFFFF000E6
:102B9000000000000000CCE3FFFF4C0300008B624C
:102BA0001200009EEDFFFFF000000000000000FC9E
:102BB000E3FFFFCB0000008B621200009EEDFFFFE1
:102BC000F000000000000000DFE3FFFF85010000CF
:102BD0008B62120000A6F8FFFFF00000000000006A
:102BE000007BE2FFFF4C0300008B101600009EEDFF
:102BF000FFFFF000000000000000ABE2FFFFCB0091
:102C000000008B101600009EEDFFFFF0000000009A
:102C10000000008EE2FFFF850100008B101600000F
:102C2000A6F8FFFFF0000000000000002AE1FFFF0F
:102C30004C0300008BBD1900009EEDFFFFF000006B
:102C400000000000005AE1FFFFCB0000008BBD191F
:102C500000009EEDFFFFF0000000000000003DE1DD
:102C6000FFFF850100008BBD190000A6F8FFFFF0F3
:102C700000000000000000D9DFFFFF4C0300008BC4
:102C80006B1D00009EEDFFFFF00000000000000043
:102C900009E0FFFFCB0000008B6B1D00009EEDFFE5
:102CA000FFF000000000000000ECDFFFFF850100E6
:102CB000008B6B1D0000A6F8FFFFF0000000000075
:102CC000000088DEFFFF4C0300008B182100009EEF
:102CD000EDFFFFF000000000000000B8DEFFFFCBBA
:102CE0000000008B182100009EEDFFFFF0000000A7
:102CF000000000009BDEFFFF850100008B18210013
:102D000000A6F8FFFFF00000000000000037DDFF24
:102D1000FF4C0300008B18210000A6F8FFFF30F2E3
:102D200000000000000037DDFFFFC5000000890043
:102D300088000302000088010302000088001F02CF
:102D400000005F002A06FF100000202020205468A9
:102D5000652043726561746F72202020202000205E
:102D60002020205468652043726561746F722020B2
:102D700020202000202020202D2D2D2D2D2D2D2D0B
:102D80002D2D202020202020002020202020202049
:102D900020202020202020202020202020004669E4
:102DA000726D776172652056657273696F6E20353A
:102DB0002E2000436F6F6C21005374617274205099
:102DC0007265686561742100526967687420546F88
:102DD0006F6C004E4120004F4E20004F464600458C
:102DE00078747275646572004C65667420546F6FF8
:102DF0006C00506C6174666F726D0057656C636F28
:102E00006D65212020202020202020202020204906
:102E1000276D205468652043726561746F722E209F
:102E20002020205072657373207468652072656479
:102E3000204D20746F202067657420737461727454
:102E400065642120202020202020200057656C630D
:102E50006F6D652120202020202020202020202090
:102E600049276D205468652043726561746F722E26
:102E7000202020205072657373207468652072656D
:102E800064204D20746F2020676574207374617214
:102E90007465642120202020202020200041206211
:102EA0006C696E6B696E6720274D27206D65616EBA
:102EB0007349276D2077616974696E6720616E645C
:102EC0002077696C6C636F6E74696E7565207768C6
:102ED000656E20796F752020207072657373207481
:102EE000686520627574746F6E2E2E2E200041204E
:102EF000736F6C696420274D27206D65616E7320A8
:102F0000202049276D20776F726B696E6720616E94
:102F1000642077696C6C757064617465206D7920CC
:102F2000737461747573202020207768656E204962
:102F3000276D2066696E69736865642E2E2E004FBA
:102F40007572206E6578742073746570732077696C
:102F50006C6C20676574206D6520736574207570D6
:102F60002120202020202046697273742C20776550
:102F7000276C6C20726573746F72656D7920627551
:102F8000696C6420706C6174666F726D2E2E2E00F9
:102F9000736F2069742773206E69636520616E64A6
:102FA000202020206C6576656C2E204974277320C4
:102FB00070726F6261626C796120626974206F6601
:102FC000662066726F6D2020202020207368697053
:102FD00070696E672E2E2E20202020202020202099
:102FE00000416161682C2074686174206665656CBD
:102FF00073202020206D756368206265747465728B
:103000002E20202020202020204C6574277320674C
:103010006F206F6E20616E64206C6F6164736F6DE2
:10302000652066696C616D656E742120202020200A
:1030300020005765276C6C20747279206167616984
:103040006E21202020202020202020202020202031
:103050002020202020202020202020202020202070
:103060002020202020202020202020202020202060
:103070002020202020202020202020202020202050
:103080002020005765276C6C206B65657020676F8A
:10309000696E6720202020616E64206C6F6164205F
:1030A000736F6D652020202020202066696C616D83
:1030B000656E742C466F722068656C7020676F7443
:1030C0006F2066663364702E636F6D2F68656C7059
:1030D000202020005765276C6C20676F20746F20BC
:1030E000746865206D61696E6D656E752E20496628
:1030F00020796F75206E65656420202068656C708E
:1031000020676F20746F3A2020202020202020206C
:1031100066663364702E636F6D2F68656C70202057
:103120002020202000417765736F6D6521202020CD
:103130002020202020202020205765276C6C20672D
:103140006F20746F2074686520534420206361727F
:1031500064206D656E7520616E6420796F75202026
:103160002063616E2073656C6563742061206D6FF0
:1031700064656C21200049276D20676F696E6720A8
:10318000746F206D616B652020206120736572690A
:103190006573206F66206C696E657320736F776549
:1031A0002063616E2066696E64206D792020202086
:1031B00020206E6F7A7A6C6520616C69676E6D6530
:1031C0006E742E202020004C6F6F6B20666F722073
:1031D00074686520626573742020206D6174636873
:1031E0006564206C696E6520696E20656163686145
:1031F000786973207365742E204C696E6573206145
:103200007265206E756D626572656420312D313393
:1032100020616E642E2E2E006C696E65206F6E65C7
:103220002069732065787472612020206C6F6E674E
:103230002E20546865205920617869732073657465
:103240006973206C656674206F6E207468652070E9
:103250006C617465616E64205820617869732069BF
:10326000732072696768742E00477265617421204B
:10327000204927766520736176656420207468652F
:1032800073652073657474696E677320616E642062
:103290002049276C6C20757365207468656D2074F7
:1032A0006F202020206D616B65206E696365206D45
:1032B0006F64656C73212020200053656C65637416
:1032C0002062657374206C696E65732E005820410E
:1032D000786973204C696E65002D2D3E00202020FA
:1032E00000592041786973204C696E6500446F6E07
:1032F0006521004D792074656D7065726174757219
:10330000652077617320206368616E67656420655E
:10331000787465726E616C6C792E20526573656C81
:103320006563742066696C616D656E742020206D24
:10333000656E7520746F2074727920616761696EA3
:103340002E004D7920657874727564657273206102
:103350007265202020206E6F742068656174696E2C
:10336000672075702E2020202020436865636B2025
:103370006D79202020202020202020202020636F15
:103380006E6E656374696F6E73212020202020208B
:10339000202000507265737320646F776E206F6E0B
:1033A00020746865202020677265792072696E67D5
:1033B0007320617420746F70206F66746865206577
:1033C000787472756465727320616E642020207059
:1033D000756C6C2074686520626C61636B2E2E2E98
:1033E00020202000507265737320646F776E206F09
:1033F0006E20746865202020677265792072696E7E
:103400006720617420746F70206F66207468652077
:10341000657874727564657220616E642020202066
:1034200070756C6C2074686520626C61636B2E2E05
:103430002E20202000506C656173652077616974CF
:10344000207768696C6520492068656174206D7912
:1034500020657874727564657221202020202020F8
:10346000202020202020202020202020202020205C
:10347000202020202020202020202020202020204C
:1034800020202020200067756964652074756265BE
:1034900073206F75742E204E6F77666565642066A5
:1034A000696C616D656E742066726F6D2020746842
:1034B00065206261636B207468726F756768207441
:1034C0006865747562657320756E74696C206974C3
:1034D0002E2E2E2020200067756964652074756289
:1034E00065206F75742E20204E6F776665656420A9
:1034F00066696C616D656E742066726F6D202074F4
:103500006865206261636B207468726F75676820FC
:103510007468657475626520756E74696C20697471
:103520002E2E2E2020202000706F7073206F757457
:1035300020696E2066726F6E742E202049276D20E0
:1035400068656174696E67207570206D7920202030
:10355000657874727564657220736F207765206377
:10356000616E20206C6F6164207468652066696CF0
:10357000616D656E742E2E2E0054686973206D691E
:103580006768742074616B65206120202066657710
:10359000206D696E757465732E20202020202020F8
:1035A00020416E64207761746368206F75742C20ED
:1035B00074686520206E6F7A7A6C652077696C6C10
:1035C0002067657420484F54210048656174696E16
:1035D000672050726F67726573733A202020202035
:1035E00020202020202020202020202020202020DB
:1035F00020202020202020202020202020202020CB
:1036000020202020202020202020202020202020BA
:1036100020202020202020202020004F4B20492740
:103620006D207265616479212020202020202046B1
:1036300069727374207765276C6C206C6F616420ED
:1036400074686572696768742065787472756465FA
:10365000722E2020202020507573682066696C61CE
:103660006D656E7420696E2E2E2E20004772656186
:103670007421204E6F77207765276C6C20202020E6
:103680006C6F616420746865206C6566742020200E
:103690002020202065787472756465722E20507524
:1036A000736820202020202066696C616D656E742F
:1036B000207468726F7567682E2E2E20004F4B2085
:1036C00049276D2072656164792120202020202007
:1036D0002050757368207468652066696C616D653B
:1036E0006E742020207468726F7567682E2E2E20ED
:1036F00020202020202020202020202020202020CA
:1037000020202020202020202020202020004927A9
:103710006D207265616479212050756C6C2074682D
:10372000652067756964652074756265206F6666DB
:1037300020616E642020707573682074686520664F
:10374000696C616D656E742020207468726F756796
:10375000682E2E2E202020202020202020200049EE
:10376000276D207265616479212050756C6C20741E
:1037700068652067756964652074756265206F6689
:103780006620616E64202070756C6C207468652002
:1037900066696C616D656E7420202067656E746C5F
:1037A000792E2E2E202020202020202020202000B6
:1037B00049276D20726561647921204465746163D5
:1037C00068202020746865206775696465207475B9
:1037D00062652C206F70656E746865206C65766517
:1037E000722061726D20616E6420202070756C6C97
:1037F0002066696C616D656E7420667265652E2049
:103800000049276D207265616479212044657461E7
:10381000636820202074686520677569646520747A
:103820007562652C206F70656E746865206C6576B6
:1038300065722061726D20616E6420202070756C4D
:103840006C2066696C616D656E7420667265652EAC
:103850002000756E74696C20796F75206665656CE3
:103860002074686520206D6F746F722074756720F6
:10387000697420696E2E20202020507573682066A0
:103880006F72206120666577206D6F7265207365A9
:10389000636F6E64732C207468656E207761697441
:1038A0002E20005768656E2066696C616D656E74C8
:1038B000206973202020206265696E672065787416
:1038C00072756465642066726F6D20746865206E21
:1038D0006F7A7A6C652C205072657373204D20745A
:1038E0006F2073746F7020657874727564696E6789
:1038F0002E2020005768656E2066696C616D656ECC
:1039000074206973202020206265696E67206578C5
:103910007472756465642066726F6D2074686520CA
:103920006E6F7A7A6C652C202020202020202020A9
:10393000507265737320274D2720746F2065786956
:10394000742E2020005768656E206D792066696CA2
:10395000616D656E742069732072656C6561736555
:10396000642C202020202020202020202050726540
:10397000737320274D2720746F20657869742E207B
:103980002020202020202020202020202020202037
:103990002020202020005768656E206D7920666900
:1039A0006C616D656E742069732072656C656173FE
:1039B00065642C20202020202020202020205072F0
:1039C00065737320274D2720746F20657869742EE6
:1039D00020202020202020202020202020202020E7
:1039E000202020202020004772656174212020497A
:1039F000276C6C2073746F7020202072756E6E6956
:103A00006E67206D792065787472756465722E50CA
:103A100072657373204D20746F20636F6E74696ECE
:103A200075652E20202020202020202020202020EE
:103A300020202020202020004F4B212049276C6C83
:103A4000206B656570206D79202020206D6F746F6C
:103A5000722072756E6E696E672E20596F75202008
:103A60006D6179206E65656420746F207075736870
:103A7000202020206861726465722E2E2E20202066
:103A80002020202020202020005765276C6C206BF0
:103A900065657020676F696E672E2020204C657405
:103AA000732074727920746865206C6566742020B8
:103AB0002065787472756465722E20507573682065
:103AC000202020202066696C616D656E7420646F13
:103AD000776E2E2E2E20202020005765276C6C201C
:103AE0006B65657020676F696E672E2020204966C0
:103AF00020796F7527726520686176696E6720206E
:103B0000202074726F75626C652C20636865636B2E
:103B1000206F7574202066663364702E636F6D2F7E
:103B200068656C70202020202020004D79206D6F6A
:103B3000746F722074696D6564206F7574202061E4
:103B4000667465722035206D696E757465732E20FC
:103B50002020205072657373204D20746F2065788B
:103B600069742E20202020202020202020202020AA
:103B7000202020202020202020202000486F772790
:103B80006420697420676F3F20526561647920204A
:103B900000746F206D616B6520736F6D657468696B
:103BA0006E673F202000596573202020004E6F2053
:103BB00020202000446F6573206D79206E6F7A7A23
:103BC0006C650068656967687420636865636B206D
:103BD0006F75743F004D7920686569676874206966
:103BE0007320676F6F6421004C65742773207472B3
:103BF0007920616761696E2E0044696420706C6190
:103C00007374696320657874727564650066726F99
:103C10006D20746865206E6F7A7A6C653F004C6F1A
:103C20006164207269676874004C6F616400556E4E
:103C30006C6F616420726967687400556E6C6F61A7
:103C400064004C6F6164206C65667400556E6C6F27
:103C50006164206C6566740020202020204A6F6714
:103C6000206D6F646520202020202020002020204F
:103C70002020202020582B20202020202020202001
:103C80002000202020202020284261636B29202052
:103C900020592D3E202000202020202020202058A8
:103CA0002D20202020202020202020002020202027
:103CB00020202020592B20202020202020202020C0
:103CC0000020203C2D5820284261636B2920205A77
:103CD0002D3E202020002020202020202020592D93
:103CE00020202020202020202020002020202020F4
:103CF0002020205A2D20202020202020202020009D
:103D000020203C2D5920284261636B29202020204F
:103D1000202020200020202020202020205A2B207E
:103D20002020202020202020200047414D45204FEA
:103D3000564552210048656174696E673A2020201B
:103D40002020202020202020200048656174696EFA
:103D5000673A00202D2D25006572726F72210020B8
:103D60002020202020202020202020202020202053
:103D70002020200045787472756465723A202020F6
:103D80002D2D2D2F2D2D2D43005220457874727529
:103D90006465723A202D2D2D2F2D2D2D43004C20A2
:103DA00045787472756465723A202D2D2D2F2D2D56
:103DB0002D4300506C6174666F726D3A2020202D87
:103DC0002D2D2F2D2D2D430020204E412020202051
:103DD0000077616974696E6720002F2020204300FE
:103DE00043202020200020507265686561742053B4
:103DF000657474696E677320202000526967687467
:103E000020546F6F6C2020202020202020202000B4
:103E10004C65667420546F6F6C2020202020202079
:103E20002020202000506C6174666F726D2020206D
:103E30002020202020002052657365742053657473
:103E400074696E677320746F20200020446566617A
:103E5000756C742076616C7565733F00556E5061AA
:103E60007573652020202020202020202020200085
:103E700050617573652020202020202020202020E4
:103E80002020200043616E63656C204275696C647C
:103E9000202020202020200057616974696E67204F
:103EA000666F7220486F6D696E6720004368616EAF
:103EB00067652046696C616D656E74202020200066
:103EC000536C6565702028436F6C64205061757376
:103ED00065292000526573756D65204275696C64B3
:103EE00020202020202020004C454420436F6C6F70
:103EF0007220202020202020202020005245442015
:103F00002020004F52414E4745200050494E4B2043
:103F10002000475245454E2000424C554520200088
:103F2000505552504C450057484954452000435580
:103F300053544F4D004F46462020200046696C6187
:103F40006D656E742046616E202020202020202088
:103F5000004275696C642053746174697374696399
:103F600073202020004261636B20746F204D6F6EC0
:103F700069746F7220202020004275696C642046AD
:103F8000696E69736865642120202020202020202C
:103F90002020202020202020202020202020202021
:103FA000204275696C642054696D652020202020B2
:103FB000206820206D004275696C642054696D652D
:103FC0003A20202020206820206D004C696E653A40
:103FD0002020202020202020202020202020200001
:103FE000457374696D61746564204275696C642001
:103FF00054696D654C69666574696D6520546F74AC
:10400000616C3A2020202068004C61737420427556
:10401000696C643A20202020206820206D004361D4
:104020006E63656C2074686973206275696C643FA7
:10403000005175697420746869732070726F6365CC
:1040400073733F004275696C642066726F6D205314
:104050004420202020202000507265686561742073
:104060002020202020202020202020005574696C52
:1040700069746965732020202020202020202000E2
:10408000496E666F20616E642053657474696E6753
:10409000732020004D6F6E69746F72204D6F6465E0
:1040A00020202020202020004368616E6765204684
:1040B000696C616D656E7420202020004C6576650A
:1040C0006C204275696C6420506C6174652020001E
:1040D0004A6F67204D6F646520202020202020201B
:1040E00020202000486F6D652041786573202020D6
:1040F000202020202020200052756E2053746172F1
:10410000747570205363726970742000456E61622B
:104110006C652053746570706572732020202000D8
:1041200044697361626C6520537465707065727365
:104130002020200053746F7020426C696E6B696E92
:104140006721202020202000426C696E6B204C45A6
:1041500044732020202020202020200043616C690F
:104160006272617465204E6F7A7A6C6573202000EC
:1041700065786974206D656E7520202020202020D0
:1041800020202000426F7420537461746973746935
:10419000637320202020200047656E6572616C20CB
:1041A00053657474696E67732020200050726568CF
:1041B0006561742053657474696E677320202000F4
:1041C00056657273696F6E204E756D626572202040
:1041D00020202000526573746F726520446566610B
:1041E000756C747320202000536F756E642020203E
:1041F00020202020202020202020200048656174DD
:10420000656420506C61746500546F6F6C20436F5F
:10421000756E742020202020202020200053494E3D
:10422000474C45004455414C2020004865617420AE
:104230004C454473202020202020202020200048AE
:1042400065617420486F6C642020202020206D2040
:1042500020200048656C7020546578742020202050
:1042600020202020202000416363656C657261740A
:1042700065202020202020202020004E6F20534445
:10428000206361726420666F756E6400534420631E
:104290006172642072656164206572726F72004998
:1042A0002063616E2774207265616420746869738D
:1042B0002020205344206361726420666F726D6118
:1042C00074212020202020547279207265666F723C
:1042D0006D617474696E67202020207468652063A6
:1042E00061726420746F2046415431362E2000499B
:1042F0002063616E27742072656164205344200935
:10430000202020636172647320776974682073745D
:104310006F7261676520206C6172676572207468D6
:10432000616E203247422E20202020202020202095
:10433000202020202020202020202020200020536A
:104340004420636172642072656164206572726FDB
:1043500072002049276D20616C726561647920626A
:1043600075696C64696E67005761726E696E673A51
:104370004275696C642073706565647366617374FB
:104380006572207468616E2035306D6D2F7320204A
:10439000726571756972652078336720666F726D1A
:1043A00061742020666F7220626573742072657379
:1043B000756C74732E20202000010049033600FF25
:1043C000006B00D100A000B800D500A6000A01993A
:1043D000003F018E0074018400A9017C00DE01749D
:1043E0000013026C00480265007D025D00B20256B7
:1043F00000E7024E001C03460051033D00860332D5
:1044000000BB032200F0030300D0FEC0FF18FFD062
:10441000FF63FFE0FFB1FFF0FF000000005100105C
:1044200000A4002000F800300040014000A201502C
:1044300000F70160004B0270009F028000F20290C2
:10444000004503A0009703B000E803C0003A04D081
:10445000008C04E000DF04F0003205000186051046
:1044600001DB0520012F063001DA0650013007601C
:104470000186077001DC078001680890012039C9B6
:10448000FFE03CE7FFF83F000000000000080000EC
:1044900000200319004006320060094B00000A505A
:1044A00000800C6400001080000075319C3155358F
:1044B000D63E3A3F5549F54A544EA94F4F63D07402
:1044C000EC7703832B84BB84A485D0862F895D9CE5
:1044D0001C9DBBA24EA337A4F4A41EA65FABABAB3E
:1044E00059AF39B3FDD1C3D34AD534D7EDD7CBD8E3
:1044F00011241FBECFEFD1E2DEBFCDBF15E0A0E09B
:10450000B2E0E6EFFEEB01E00BBF02C007900D92B8
:10451000A039B107D9F71CE1A0E9B5E001C01D92AF
:10452000AC3DB107E1F714E4C0EFD4E400E006C00D
:1045300022970109FE010BBF0E94E7DECA3AD107AC
:1045400080E00807A9F70E94263F0C9479DF0C94BD
:104550000000FA01DC0102C005900D9221503040AC
:10456000D8F70895F8948091D4059091D5052091BD
:10457000D2053091D305281B390B7894C9010895D1
:104580008093CB05089581E08093C90508958091BB
:10459000CB0508958091CA0508952091D4053091E6
:1045A000D50581E0232B09F080E008951092D50510
:1045B0001092D4051092D7051092D6051092DA0504
:1045C0001092DB051092CD051092CE051092CF050A
:1045D0001092D0051092CC051092CB051092CA050E
:1045E0001092C4051092C5051092C6051092C70519
:1045F0001092AF051092C3051092C2051092C1052A
:10460000089581E02091C1053091C2052630310521
:1046100009F080E008956091CD057091CE058091FC
:10462000CF059091D00508951092CD051092CE053A
:104630001092CF051092D00508954F925F926F921D
:104640007F928F929F92AF92BF92CF92DF92EF9222
:10465000FF920F931F93CF93DF93CDB7DEB7C25670
:10466000D1090FB6F894DEBF0FBECDBF8E010D5B32
:104670001F4FC8010E941A7A84E1A3E9B5E0F8014E
:1046800001900D928A95E1F745E061EE79E1CE0166
:10469000CD960E94E8D4CE01CD960E942AD5809373
:1046A000920564E070E083E995E00E94554BDC01DF
:1046B0006D917D918D919C910E944CDB6B966CAFBE
:1046C0007DAF8EAF9FAF6B9784E00E9468779B01B0
:1046D000AC0163E070E083E995E0A0962FAFA0976E
:1046E000A1963FAFA197A2964FAFA297A3965FAFB7
:1046F000A3970E94554BFC0180809180A280B380DB
:1047000083E00E9468772B013C0162E070E083E95E
:1047100095E00E94554BDC01CD90DD90ED90FC9032
:1047200061E070E083E995E00E94554BDC018D91DA
:104730009D910D90BC91A02D6F968CAF9DAFAEAFAB
:10474000BFAF6F9760E070E083E995E00E94554B42
:104750008C01C301B2010E941EDB860E971EA81EAB
:10476000B91EF8014080518062807380A0962FAD01
:10477000A097A1963FADA197A2964FADA297A39601
:104780005FADA3976B966CAD7DAD8EAD9FAD6B9716
:104790000E94FCD90E9419DB9F938F937F936F93A4
:1047A0006F960CAD1DAD2EAD3FAD6F97B301A2015D
:1047B000CE0189960E94194B48E052E060E070E01B
:1047C000CE0189960E94B27A8AEE98E00E943DA9B5
:1047D0009093AA058093A9058AE999E00E943DA9D2
:1047E0009093AC058093AB058BE49BE00E943DA9C0
:1047F0009093A8058093A7050F900F900F900F90AE
:104800008091C805882391F060E070E08AEE98E01E
:104810000E9463A860E070E08AE999E00E9463A8C2
:1048200060E070E08BE49BE00E9463A884E1FE01FD
:10483000B996DE01559601900D928A95E1F77E01B9
:10484000F5E1EF0EF11C62E070E0C7010E94554BEC
:104850008C0182E00E9468770E9419DB9B01AC0109
:10486000A6E9B0E00E94C6DCD8016D937D938D93DC
:104870009C93139784E18E010F5F1F4FD801F701BE
:1048800001900D928A95E1F760E070E0C8010E9406
:10489000554B6C0180E00E94687720E030E04DEDE0
:1048A00052EC0E9450DC0E9419DBF6016083718398
:1048B0008283938361E070E0C8010E94554B6C01D4
:1048C00081E00E94687720E030E044E952EC0E94E9
:1048D00050DC0E9419DBD6016D937D938D939C93E0
:1048E00013974CE850E060E070E0C7010E94B27A94
:1048F00042E850E060E070E0C8010E94B27A60E0F7
:104900008AEA98E00E942549CE59DF4F0FB6F89405
:10491000DEBF0FBECDBFDF91CF911F910F91FF90F2
:10492000EF90DF90CF90BF90AF909F908F907F904F
:104930006F905F904F9008950F931F93CF93DF93E5
:10494000CDB7DEB764970FB6F894DEBF0FBECDBF0C
:10495000CE0101960E941A7A63E070E0CE010196C2
:104960000E94554B8C0163E070E083E995E00E9462
:10497000554BFC014081518162817381F801408374
:1049800051836283738364E070E0CE0101960E94DC
:10499000554B8C0164E070E083E995E00E94554B33
:1049A000FC014081518162817381F8014083518310
:1049B00062837383CE0101960E94967862E070E074
:1049C000CE0101960E94554B8C0162E070E083E9B4
:1049D00095E00E94554BFC014081518162817381B9
:1049E000F80140835183628373834CE850E060E0B8
:1049F00070E0CE0101960E94B27A42E850E060E099
:104A000070E083E995E00E94B27A609192058AEAAB
:104A100098E00E94254964960FB6F894DEBF0FBE59
:104A2000CDBFDF91CF911F910F9108956091A9059E
:104A30007091AA058AEE98E00E9463A86091AB0588
:104A40007091AC058AE999E00E9463A86091A7057E
:104A50007091A8058BE49BE00E9463A88BE49BE027
:104A60000E9451A9882329F18BE49BE00E946BA945
:104A700081111FC017C061E08AEE98E00E949DA9D5
:104A800081E08093CC058AE999E00E946BA98111AD
:104A900010C061E08AE999E00E949DA981E08093BD
:104AA000CC0508958AEE98E00E946BA98111EBCFA6
:104AB000E2CF0895CF93DF93EB01709301026093EF
:104AC00000029091CA05981709F44BC0882329F178
:104AD000209781F481E08093C8056CE171E080E863
:104AE0009AE00E94A9AC81E090E09093AE0580939B
:104AF000AD050FC06130710561F41092C80562E523
:104B000071E080E89AE00E94A9ACD093AE05C09312
:104B1000AD0581E08093CA0524C08091AD059091D8
:104B2000AE058130910529F41092AE051092AD05C5
:104B300016C08230910529F40E94162584E090E089
:104B400006C0039749F40E94162585E090E09093F3
:104B5000AE058093AD0505C06230710511F4109269
:104B6000CA05DF91CF910895CF93FC01C62F8281B2
:104B70009381608171818617970798F442815381F0
:104B800084819581840F951F0E94EDDCA681B781F9
:104B9000A80FB91FCC93828193810196938382835E
:104BA00002C081E08087CF910895682F82ED95E063
:104BB0000C94B425CF93DF93FC0182819381892BE0
:104BC00021F481E0818780E019C084819581208172
:104BD0003181B9010E94EDDCC681D781C80FD91F90
:104BE000848195810196B9010E94EDDC95838483CF
:104BF000828193810197938382838881DF91CF9112
:104C000008951F93CF93DF9300D0CDB7DEB782ED29
:104C100095E00E94DA25682F82ED95E06A830E9474
:104C2000DA25782F82ED95E079830E94DA25182F16
:104C300082ED95E00E94DA25982F6A817981812F93
:104C40000F900F90DF91CF911F910895CF9382ED38
:104C500095E00E94DA25C82F82ED95E00E94DA25C2
:104C6000982F8C2FCF91089582ED95E00C94DA2542
:104C7000CF93DF930E943426D82F0E943426C82F6A
:104C80000E943426CA3009F4E8C098F4C63009F40A
:104C9000E1C048F4C43009F4E0C008F0DEC0C3301D
:104CA00009F0DEC01AC0C83009F4D7C008F0D5C07A
:104CB000D1C0CE3009F4D1C030F4CC3009F46CC08E
:104CC00008F078C0CAC0C73109F45FC0CF3109F419
:104CD0007AC0CF3009F0C4C0C0C08091910588234C
:104CE000A1F08AEE98E00E9466A78AE999E00E9406
:104CF00066A780919005811104C08BE49BE00E941F
:104D000066A710929005109291050E942626BC017C
:104D1000D13019F481E899E002C081ED98E049961C
:104D20000E9463A88BE49BE00E9451A9882309F4A8
:104D3000A2C08BE49BE00E946BA981119CC0D13082
:104D400019F481E899E002C081ED98E049960E944B
:104D50006BA9811190C086C081E899E061E003C031
:104D600081E899E060E049960E949DA940E061E0F9
:104D700070E08AEA98E00E941642D13009F08EC0B5
:104D80000E94053381117DC089C09091CB0581E0DF
:104D900089270E942E3982C00E943426682F6170B4
:104DA000D13019F481E899E002C081ED98E00E94C9
:104DB0005C8674C00E943426682F61708AEA98E08D
:104DC0000E9425496BC061E08AEA98E00E94204970
:104DD00080919105882319F081E0809390050E94CD
:104DE0002626BC018BE49BE00E9463A88BE49BE039
:104DF0000E946BA9C1E0C827C093CC056C2F8AEE36
:104E000098E00E949DA96C2F8AE999E00E949DA9D3
:104E100040E061E070E08AEA98E00E9416420E9459
:104E2000EE3381113BC00E94BC38059739F040E059
:104E300068ED71E08AEA98E00E94F84160E070E075
:104E40008BE49BE00E9463A860E08AEA98E00E94FD
:104E5000204924C00E94012621C00E9434261EC081
:104E600080E01DC081E08093CC05D13009F474CF7F
:104E700081ED98E073CFD13009F472CF81ED98E0E5
:104E800071CF40E068E871E08AEA98E00E94F8415A
:104E900060E070E08AE999E00E9463A881E0DF9118
:104EA000CF9108952F923F924F925F926F927F928F
:104EB0008F929F92AF92BF92CF92DF92EF92FF922A
:104EC0000F931F93CF93DF93CDB7DEB7E6970FB65F
:104ED000F894DEBF0FBECDBF0E94C44C882309F4F6
:104EE00092C08091D4059091D5052091D205309142
:104EF000D3052817390711F40C9482300E94314DE4
:104F000081110C9488300C948230C090C405D090EC
:104F1000C505E090C605F090C7050E94734CC61603
:104F2000D706E806F90610F00C94AF308091AF0573
:104F300081110C94AF300C94A43080E89AE00E9468
:104F4000F0AB40E069E272E08AEA98E00E94F84142
:104F500081E08093AF050E94FD7F1092D5051092ED
:104F6000D4051092D7051092D6051092DA0510924A
:104F7000DB0560E070E08AEE98E00E9463A860E0E4
:104F800070E08AE999E00E9463A860E070E08BE439
:104F90009BE00E9463A8CE0101960E947F7962E0A7
:104FA00070E0CE0101960E94554B8C0182E00E9478
:104FB000687720E030E046E153E40E9450DC0E9434
:104FC00019DBF80160837183828393831092CB0590
:104FD00046E950E060E070E0CE0101960E94B27AAE
:104FE0000E94434D1092C3050EC08091D40590914C
:104FF000D505892B41F48091C1059091C205892B7B
:1050000011F40C94B6300E94B683882311F180917C
:10501000D4059091D5052091D2053091D30528175C
:10502000390711F40C94BA300E94BF8381110C949B
:10503000C1300C94BA308091D4059091D505892B5C
:1050400041F48091C1059091C205892B11F40C9413
:10505000CA308091CC05882391F08BE49BE00E94BC
:1050600019A9882361F060E08AEE98E00E949DA96A
:1050700060E08AE999E00E949DA91092CC05809198
:10508000CB0581110C945C318091C90581110C9480
:105090005C318091C1059091C205039789F40E940B
:1050A0000B78811101C008C082EB95E00E9463D7A4
:1050B000882331F00E94FD7F1092C2051092C10535
:1050C0008091C1059091C205019741F40E940B782F
:1050D000811104C01092C2051092C1058091C105D2
:1050E0009091C205029751F482EB95E00E9463D73C
:1050F000882321F01092C2051092C1058091C1054C
:105100009091C205049709F049C082EB95E00E9496
:1051100063D7882349F040E06AE772E08AEA98E0C2
:105120000E94F8410C94DB308091D105813019F454
:1051300081E899E002C081ED98E049960E9419A9A2
:10514000882311F40C94CE308091D105813019F46C
:1051500081E899E002C081ED98E0FC01E157FF4F42
:10516000808181110C94CE300C94D83081ED98E080
:1051700049960E9451A9811111C08091D1058130B9
:1051800019F481E899E002C081ED98E0FC01E15753
:10519000FF4F8081882311F40C94DB308091C1058E
:1051A0009091C2050597F9F482EB95E00E9463D7D0
:1051B000882341F040E06FEA72E08AEA98E00E94BA
:1051C000F8410DC08BE49BE00E9451A9811101C000
:1051D00006C08BE49BE00E9419A9882321F010925D
:1051E000C2051092C1058091C1059091C205069734
:1051F00009F03FC082EB95E00E9463D78823B1F0AD
:105200008091B00581FF06C060E08AEA98E00E94C4
:10521000E9462FC01092C2051092C10540E060E13E
:1052200070E08AEA98E00E94164223C080E89AE083
:105230000E9451AF8823E9F08091B00582FF04C03D
:1052400080E89AE00E943BAD40E050E060E070E012
:105250008AEA98E00E94E64440E060E170E08AEA71
:1052600098E00E9416420E9489881092C20510920E
:10527000C1058091C1059091C205892B09F027C70E
:105280008091CA05882309F4A5C08091AD0590914D
:10529000AE05019709F095C70E941F62811198C75A
:1052A00090C764EE72E004C0019731F462E373E0EA
:1052B00080E89AE00E94A9AC0E941D2382E090E061
:1052C00059C00E941F62811193C78AC764E183E0BD
:1052D0000E94147F64E184E00E94147FEDC70E9465
:1052E0001F628111A2C78091AD059091AE058530F6
:1052F000910509F095C799C76FE783E00E94147F75
:105300006FE784E00E94147F64E673E080E89AE02F
:105310000E94A9AC1092D10585E090E09093C2055F
:105320008093C10540E052ED69E47BE682EB95E0B5
:105330000E943FD786E090E09093AE058093AD0544
:1053400024E140E063E08AEA98E00E943F42B4C76B
:105350001092D10584E090E09093C2058093C1053E
:1053600040E052ED69E47BE682EB95E00E943FD796
:1053700087E090E09093AE058093AD059DC78730A0
:105380009105A1F481E08093D10584E090E09093B1
:10539000C2058093C10540E052ED69E47BE682EBF3
:1053A00095E00E943FD788E090E0E4CF88309105F7
:1053B00049F48AEA98E00E9455420E949C2489E0C0
:1053C00090E0D8CF099709F077C70E941F6281113A
:1053D0003CC772C78091D4059091D505892B09F4FB
:1053E00076C68AEA98E00E947D448091D605909125
:1053F000D7056091D2057091D3050E94EDDCE09154
:10540000D805F091D905E80FF91F10811B3809F470
:105410002FC71E3809F434C71B3909F421C71938BE
:1054200009F442C7163909F433C3163809F434C7EE
:105430001C3841F48091D4059091D505459708F426
:1054400046C6CFC11C3909F423C3103909F420C35F
:10545000133809F41DC3143809F41AC3183809F4B1
:1054600017C30E941F62811113C726C78AEA98E0FA
:105470000E947D440E94342681E090E09093C20512
:105480008093C1050E94012668A779A78AA79BA7D8
:105490000E9401268B019C012DAB3EAB0E94012690
:1054A0006B017C010E9401264B015C010E940126D8
:1054B000AB01382E292E6CAB5BAB0E9401262B0171
:1054C0003C018091CD059091CE05A091CF05B09182
:1054D000D0050196A11DB11D8093CD059093CE05F9
:1054E000A093CF05B093D0052F923F925BA95F9315
:1054F0004CA94F932DA93EA948A559A56AA57BA5FE
:10550000CE0101960E94194BB301A201CE01019672
:105510000E94B27A58C08AEA98E00E947D440E94B4
:10552000342681E090E09093C2058093C1050E94EB
:10553000012668A779A78AA79BA70E9401268B014D
:105540009C012DAB3EAB0E9401266B017C010E94A9
:1055500001264B015C010E940126AB01382E292E49
:105560006CAB5BAB0E9401262B013C010E943426F0
:105570008CA78091CD059091CE05A091CF05B091DB
:10558000D0050196A11DB11D8093CD059093CE0548
:10559000A093CF05B093D0052F923F925BA95F9364
:1055A0004CA94F932DA93EA948A559A56AA57BA54D
:1055B000CE0101960E94194B2CA5B301A201CE0188
:1055C00001960E94A67B0F900F900F900F907FC5C1
:1055D0008AEA98E00E947D440E94342681E090E0AF
:1055E0009093C2058093C1050E94012668A779A700
:1055F0008AA79BA70E9401268B019C012DAB3EAB85
:105600000E9401266B017C010E9401264B015C0176
:105610000E940126AB01382E292E6CAB5BAB0E9499
:1056200001262B013C010E9434268CA70E940126F2
:105630006DA77EA78FA798AB0E9426269AAB89AB51
:105640008091CD059091CE05A091CF05B091D00568
:105650000196A11DB11D8093CD059093CE05A09319
:10566000CF05B093D0052F923F925BA95F934CA9D1
:105670004F932DA93EA948A559A56AA57BA5CE01A2
:1056800001960E94194BC9A8DAA8EDA4FEA40FA5A3
:1056900018A92CA5B301A201CE0101960E94CC7CD1
:1056A00092CF0E9434260E9434268093D1054091E7
:1056B000CD055091CE056091CF057091D0054F5F1B
:1056C0005F4F6F4F7F4F4093CD055093CE05609352
:1056D000CF057093D0050E94227FF9C40E94342622
:1056E0000E943426E82E4091CD055091CE05609160
:1056F000CF057091D0054F5F5F4F6F4F7F4F409345
:10570000CD055093CE056093CF057093D0050E94D0
:105710001F62882309F4DBC4DE2CDD1CDD24DD1CC4
:1057200000E010E0F12CC701002E02C0959587958E
:105730000A94E2F780FF04C06D2D802F0E94FB7E4B
:105740000F5F1F4F0530110571F7C1C48091D4055B
:105750009091D5050B9708F4BAC40E9434260E9494
:105760003426182F0E943426282F30E0F4E61F9F9D
:10577000200D311D11242436310539F040E069E750
:1057800073E08AEA98E00E94F8410E9434260E9461
:1057900001260E9426268431934D39F040E067ECC3
:1057A00073E08AEA98E00E94F8410E9426260E944F
:1057B00001260E9401260E9434268091CD059091F9
:1057C000CE05A091CF05B091D0050196A11DB11DC8
:1057D0008093CD059093CE05A093CF05B093D005CF
:1057E00076C40E9434260E9401262B013C010E94AF
:1057F00001268B019C012DAB3EAB0E9401266B0163
:105800007C010E9401264B015C010E940126FB01E4
:105810004091CD055091CE056091CF057091D00596
:105820004F5F5F4F6F4F7F4F4093CD055093CE0535
:105830006093CF057093D0059F938F93FF93EF9361
:105840002DA93EA9B301A201CE0101960E94194BD8
:10585000CE0101960E949678B6CE153849F5809112
:10586000D4059091D505059708F431C482E090E005
:105870009093C2058093C1050E9434260E940126A0
:105880009B01AC018091CD059091CE05A091CF05F3
:10589000B091D0050196A11DB11D8093CD059093C7
:1058A000CE05A093CF05B093D005A8EEB3E076C1A6
:1058B000143909F048C08091D4059091D505059719
:1058C00008F405C40E9434260E9434268093B10552
:1058D0000E9426268C010E9434268093B0054091B8
:1058E000CD055091CE056091CF057091D0054F5FE9
:1058F0005F4F6F4F7F4F4093CD055093CE05609320
:10590000CF057093D0050115110571F0D80120E481
:1059100032E44FE050E00E94C6DCAB01BC0182EBF8
:1059200095E00E943FD798C08E010B5E1F4FC801C3
:105930000E943BD78FE0A2EBB5E0F80101900D92F9
:105940008A95E1F789C0153909F0A2C080E89AE08C
:105950000E9412AC8C018091D4059091D5050697D8
:1059600008F4B5C30E9434260E943426E82E0E9413
:105970003426C82E0E943426D82E0E943426F82EB3
:105980004091CD055091CE056091CF057091D00525
:105990004F5F5F4F6F4F7F4F4093CD055093CE05C4
:1059A0006093CF057093D005E0FC03C0C8010E944E
:1059B0004ECEF801C282D38262ED75E0C8010E942A
:1059C000AFCDE1FE84C3E091300BEE0FFF0BEE5D37
:1059D000F44F208131812017310731F0B80180E880
:1059E0009AE00E9425AC03C0C8010E9497CE8E2D7C
:1059F0008470FF2039F0811105C06F2DC8010E940D
:105A000087CE65C3882309F462C3FF2079F0AF2DE8
:105A1000B0E020E432E44FE050E00E94C6DCAB018D
:105A2000BC0182EB95E00E943FD70EC08E010B5E59
:105A30001F4FC8010E943BD78FE0A2EBB5E0F801F1
:105A400001900D928A95E1F781E08093B1058091F4
:105A5000B00584708093B0054FE050E069E170E0DC
:105A60008AEA98E00E94E6446091B10580E89AE0F5
:105A70000E944CAF41E060E170E08AEA98E00E9449
:105A8000164286E090E09093C2058093C1051FC343
:105A9000812F8358823008F043C08091D4059091C3
:105AA000D505089708F413C30E9434260E943426B3
:105AB000082F0E9401266B017C010E94262640913E
:105AC000CD055091CE056091CF057091D0054F5F07
:105AD0005F4F6F4F7F4F4093CD055093CE0560933E
