:100000000C946D100C94A8100C94A8100C94A810CB
:100010000C94A8100C94A8100C94A8100C94A81080
:100020000C94A8100C94A8100C94A8100C94A81070
:100030000C94A8100C94D6350C94A8100C94A8100D
:100040000C94A8100C94A8100C94A8100C94A81050
:100050000C94A8100C94A8100C94A8100C94A81040
:100060000C94A8100C9442D00C94A8100C946ED050
:100070000C94A8100C94C9910C94A8100C94A8107E
:100080000C94AC350C94A8100C94A8100C94A810E7
:100090000C94A2D00C94A8100C94CED00C94A81060
:1000A0000C94A8100C94A8100C94A8100C94A810F0
:1000B0000C94A8100C94A8100C94A8100C94FE3565
:1000C0000C94A8100C94A8100C94A8100C94A810D0
:1000D0000C94A8100C94A8100C94A8100C94A810C0
:1000E0000C94A810D32E132F152FFB2E1F2FCE2FBD
:1000F000CE2FFB2E3E2FCE2F4C2F512F652F6A2F48
:10010000CE2FCE2F272FFB2E392FCE2FE12E232FB0
:100110006F2F822F892FCE2FCE2FAE2F97769C76E2
:10012000A8769976D676AA76C976AD7604BF21BF31
:100130002EBF59BF78BF8BBF99BFCEBF0C94FEA80E
:100140000C9426B10C9402D10C94DAA10C94DAC868
:100150000C94E12E0C94DFA00C9422A50C94822F19
:100160000C9495920C9430650C9474A60C947AA21D
:100170000C9406B60C94A1A10C9415C70C945DA622
:100180000C9444AC0C94B7A00C9474AA0C9489C140
:100190000C944FAD0C94D32E0C94BDA40C941F2F33
:1001A0000C949C760C949AA70C9464C20C944BAB60
:1001B0000C94A8760C941F320C941EB50C9469C54F
:1001C0000C94132F0C94BAB30C94FBA10C94C97625
:1001D0000C94A6770C9455A50C941EB80C9400A210
:1001E0000C94512F0C94BAC70C944A8C0C94EEA02A
:1001F0000C9421BF0C94E67B0C947AB10C94C9A1A9
:100200000C94BB990C94458A0C94CBAC0C9499A09B
:100210000C9403770C9442CC0C948AA00C94FEA20C
:100220000C9422B70C945C910C94F8A00C946EC5BD
:100230000C9491A50C94E4A00C9499760C94CE297E
:100240000C94CBB00C94B6A10C94892F0C940FD1C4
:100250000C948C400C94ACB10C94E7B30C945CB24D
:100260000C94A8A00C94A0A50C941C770C94B6B286
:100270000C9497B90C94C88E0C942B770C945DB0A9
:100280000C948AC40C94D5A00C94DB530C94392F95
:100290000C94E9A00C9446BD0C9430A90C944FBB6F
:1002A0000C94E3BB0C94A5A60C94EEAA0C94018BC1
:1002B0000C94C7C60C9433B20C94ADA00C94ACAEA5
:1002C0000C94C6A00C9442CF0C94D2380C9462A625
:1002D0000C9400A60C94E5B40C9497760C9475AD30
:1002E0000C94BCA00C94F8A10C9427320C94CEBFB3
:1002F0000C94279D0C943E2F0C9420320C948FA0CC
:100300000C94D6A10C94A6CE0C9459BF0C9432CE6A
:100310000C94AD900C948BA60C94CCBB0C9493A82D
:100320000C9406A20C949B7B0C94E4A20C94DBB678
:100330000C94AE2F0C947DCE0C9464CC0C9479A3C9
:100340000C9494A00C94152F0C941AA20C944C2F7E
:100350000C94A0A70C94232F0C9456A60C941AC5A9
:100360000C94F3910C94FB2E0C942BBE0C94272F21
:100370000C9413C50C9450C60C948CC30C946F2F22
:100380000C9479C80C9483A00C9405A20C94B3A18E
:100390000C946FB00C9469680C945FB60C94D3A263
:1003A0000C946FCC0C94A3A00C94618F0C94573BCD
:1003B0000C94B2A00C9440B60C94A7A20C94B49CDC
:1003C0000C9478BF0C9455910C949EA50C946ED609
:1003D0000C94E7A10C94CBA00C944CAF0C9463A7A5
:1003E0000C942EBF0C9499BF0C94DEA10C946A2F30
:1003F0000C9434AE0C9406C10C94C1A00C94D0A003
:100400000C94C1AF0C9466C40C94BDA20C94F0B4CF
:100410000C94FC760C948BC20C94F6AB0C9427775E
:100420000C945FCD0C942CB40C94F3A00C94F42594
:100430000C94DAA00C94652F0C942DCC0C94E373DF
:100440000C94B5CF0C946D940C94AA760C947D9575
:100450000C94039A0C94CE2F0C948BBF0C94AD7615
:100460000C943B310C9442770C941FC40C94EF74A1
:100470000C9429950C94D6760C9434A80C94D1A1A4
:100480000C9492B10C9439770C942ACE0C9492CCA3
:100490000C94A0A10C9428730C9404BF0C94DEA9B6
:1004A0000C94EC3E0C949EA00C94DDA80C947CA0C3
:1004B0005265706C6963617430722031001704C832
:1004C000000000DC0027056400000078007505C806
:1004D000000000DC002006640000007800E006C890
:1004E000000000DC002006C8000000DC002006C878
:1004F000000000DC002D08C80000000000C00DC88E
:100500000000001400C00DC800000014005A10C8FC
:100510000000001400C00D90010000000070039066
:1005200001000014005504C800000014002705C88D
:1005300000000014007003900100000000C805C80E
:100540000000001400C805C80000001400C805C859
:100550000000001400DD04B004000014007505C89C
:1005600000000014007505C800000014007505C8DF
:1005700000000014009704B00400000000C00DC883
:100580000000001400C00DC80000001400910E907F
:1005900001000014005A10900100001400C00D204A
:1005A00003000000007003BC000000BC00E006BCBB
:1005B000000000BC00B807BC000000BC002D08BC57
:1005C00000A908BC000000BC00C00D4D01000000E7
:1005D00000C00D20010000BC005311BC000000BC95
:1005E000005B12B101000000009302690000006985
:1005F00000EE016900000069002601B8010000005A
:100600000024F4D43050C38E20C2A24017828B70D5
:1006100011127A910D816CD90AA861E108C7586658
:1006200007615143061E4B5D05C145A7041A4111E0
:1006300004093D9803713931034036DB026533917B
:1006400002D4305402802E1D02632CEE01752AC59F
:1006500001B028A001102781018F2564012B244BB4
:1006600001E0223401AC211F018D200D01801FFC0F
:1006700000841EED00971DDF00B81CD200E61BC6EB
:1006800000201BBC00641AB200B219A8000A19A00D
:10069000006A189900D117910040178B00B5168495
:1006A0000031167E00B31579003A157300C7146F38
:1006B0000058146A00EE1366008813630025135E69
:1006C00000C7125B006C12570015125400C1115183
:1006D0000070114F0021114B00D61049008D1047BA
:1006E000004610440002104200C00F4000800F3E40
:1006F00000420F3C00060F3B00CB0E3800930E3734
:10070000005C0E3500270E3400F30D3200C10D31B0
:1007100000900D3000600D2E00320D2D00050D2CC7
:1007200000D90C2B00AE0C2900850C29005C0C278D
:1007300000350C27000E0C2600E80B2400C40B2407
:1007400000A00B23007D0B23005A0B2100390B2145
:1007500000180B2000F80A1F00D90A1E00BB0A1E51
:10076000009D0A1D00800A1D00630A1C00470A1B29
:10077000002C0A1B00110A1A00F7091A00DD0919DA
:1007800000C4091900AB091900920917007B091868
:1007900000630917004C09160036091600200916D7
:1007A000000A091500F5081500E0081400CC08142B
:1007B00000B8081400A4081400900813007D081263
:1007C000006B081300580812004608120034081184
:1007D00000230811001208110001081100F0071091
:1007E00000E0071000D0071000C0071000B0070F8E
:1007F00000A107100091070E0083070F0074070F78
:100800000065070E0057070E0049070E003B070D55
:10081000002E070E0020070D0013070D0006070D20
:1008200000F9060C00ED060D00E0060C00D4060CE5
:1008300000C8060C00BC060C00B0060C00A4060B99
:100840000099060C008D060B0082060B0077060B44
:10085000006C060B0061060A0057060B004C060AE6
:100860000042060A0038060A002E060A0024060A7C
:10087000001A060A001006090007060A00FD05090D
:1008800000F4050900EB050900E2050900D9050996
:1008900000D0050900C7050900BE050900B5050817
:1008A00000AD050800A50509009C05080094050891
:1008B000008C050800840508007C05080074050804
:1008C000006C050700650508005D05070056050872
:1008D000004E0507004705070040050800380507DA
:1008E00000310507002A050700230507001C05063F
:1008F00000160507000F050700080506000205079A
:1009000000FB040600F5040700EE040600E80406F8
:1009100000E2040700DB040600D5040600CF04064D
:1009200000C9040600C3040600BD040600B704069F
:1009300000B1040500AC040600A6040600A00405EE
:10094000009B04060095040500900406008A040537
:100950000085040500800406007A0405007504057E
:1009600000700405006B04050066040500610405C1
:10097000005C04050057040500520405004D040501
:100980000048040500430405003E0404003A040541
:100990000035040500300404002C0405002704047D
:1009A00000230405001E0404001A040400160405B4
:1009B00000110404000D04040009040500040404EB
:1009C0000000040400FC030400F8030400F4030422
:1009D00000F0030400EC030400E8030400E4030453
:1009E00000E0030400DC030400D8030400D4030483
:1009F00000D0030400CC030400C8030300C50303B4
:100A00000024F404D9201BC40C5C0E9804C4095FB4
:100A10000265077101F405F900FB04B3004804877F
:100A200000C10369005803550003034500BE023AA4
:100A3000008402310053022A00290225000402200A
:100A400000E4011C00C8011900AF0117009801144F
:100A50000084011300710110006101100051010EAA
:100A60000043010D0036010B002B010B0020010B90
:100A700000150109000C01090003010800FB000832
:100A800000F3000800EB000700E4000600DE0006AB
:100A900000D8000600D2000600CC000500C7000503
:100AA00000C2000500BD000400B9000400B5000448
:100AB00000B1000400AD000400A9000400A500037B
:100AC00000A20003009F0004009B000300980003A5
:100AD000009500020093000300900003008D0002C7
:100AE000008B0003008800020086000200840003DF
:100AF00000810002007F0002007D0002007B0002F6
:100B00000079000200770001007600020074000204
:100B10000072000100710002006F0002006D000110
:100B2000006C0002006A0001006900020067000119
:100B3000006600010065000100640002006200011F
:100B40000061000100600001005F0002005D000123
:100B5000005C0001005B0001005A00010059000127
:100B60000058000100570001005600010055000127
:100B70000054000100530000005300010052000126
:100B80000051000100500001004F0001004E000024
:100B9000004E0001004D0001004C0001004B000020
:100BA000004B0001004A000100490001004800001C
:100BB0000048000100470001004600000046000117
:100BC0000045000000450001004400010043000012
:100BD000004300010042000000420001004100000B
:100BE0000041000100400001003F0000003F000103
:100BF000003E0000003E0001003D0000003D0001FD
:100C0000003C0000003C0000003C0001003B0000F4
:100C1000003B0001003A0000003A000100390000EA
:100C200000390001003800000038000000380001E1
:100C300000370000003700010036000000360000D9
:100C400000360001003500000035000000350001CD
:100C500000340000003400000034000100330000C4
:100C600000330000003300010032000000320000B9
:100C700000320001003100000031000000310001AD
:100C8000003000000030000000300001002F0000A4
:100C9000002F0000002F0000002F0001002E000098
:100CA000002E0000002E0001002D0000002D00008D
:100CB000002D0000002D0001002C0000002C000081
:100CC000002C0000002C0001002B0000002B000075
:100CD000002B0000002B0001002A0000002A000069
:100CE000002A0000002A000100290000002900005D
:100CF0000029000000290000002900010028000050
:100D00000028000000280000002800000028000142
:100D10000027000000270000002700000027000037
:100D20000027000100260000002600000026000029
:100D3000002600000026000100250000002500001C
:100D4000002500000025000000250000002500010E
:100D50000024000000240000002400000024000003
:100D600000240001002300000023000000230000F5
:100D700000230000002300000023000000230001E6
:100D800000220000002200000022000000220000DB
:100D900000220000002200010021000000210000CC
:100DA00000210000002100000021000000210000BF
:100DB00000210001002000000020000000200000B1
:100DC00000200000002000000020000000200000A3
:100DD00000200001001F0000001F0000001F000095
:100DE000001F0000001F0000001F0000001F000186
:100DF000001E0000001E0000001E0000001E00007B
:100E0000008908990000000052657047204275690A
:100E10006C64009600FF84036901000014008304E1
:100E20008800000014008C0000000000000000306A
:100E3000F8FFFF00000000000000009B0000000021
:100E400000000000000000000000000000000000A2
:100E5000A51C0000180000A04095048304DC0500D8
:100E6000001400901F8B0000000000000000A00F85
:100E700000000000000000000000800000009B0057
:100E800000000000000000A40F00000000000000AF
:100E9000000000A51C0000180AD7233C95049B0005
:100EA0000000000000000000000000000000000042
:100EB000000000A00F000018F62820418002891BC6
:100EC000950000000042792068616E64206D6F76A5
:100ED00065207468652065782D0095010000007418
:100EE000727564657220746F2064696666657265E8
:100EF0006E7420009501000000706F736974696F53
:100F00006E73206F766572207468652020009507E7
:100F10000000006275696C6420706C6174666F72A9
:100F20006D2E2E2E2E00950000000041646A757310
:100F300074207468652073706163696E6720200097
:100F400095010000006265747765656E20746865C0
:100F50002065787472756465720095010000006EFA
:100F60006F7A7A6C6520616E6420706C6174666F54
:100F7000726D20009507000000776974682074681E
:100F800065206B6E6F62732E2E2E009500000000A0
:100F9000756E6465722074686520706C6174666F2C
:100FA000726D2020009501000000616E64206120B8
:100FB0007368656574206F66207061706572009556
:100FC00001000000706C6163656420626574776580
:100FD000656E207468652020009507000000706C25
:100FE0006174666F726D20616E64207468652E2E68
:100FF0002E0095000000006E6F7A7A6C652E2057E7
:1010000068656E20796F752061726500950100003A
:1010100000646F6E652C2070726573732074686550
:10102000202020202000950700000063656E746575
:101030007220627574746F6E2E00891F62003B020D
:10104000000000002110422063308440A550C6609B
:10105000E770088129914AA16BB18CC1ADD1CEE175
:10106000EFF13112100273325222B5529442F772EC
:10107000D662399318837BB35AA3BDD39CC3FFF3C5
:10108000DEE36224433420040114E664C774A444FC
:1010900085546AA54BB528850995EEE5CFF5ACC515
:1010A0008DD55336722611163006D776F6669556CC
:1010B000B4465BB77AA719973887DFF7FEE79DD765
:1010C000BCC7C448E5588668A7784008611802285C
:1010D0002338CCC9EDD98EE9AFF9488969990AA9B5
:1010E0002BB9F55AD44AB77A966A711A500A333A2C
:1010F000122AFDDBDCCBBFFB9EEB799B588B3BBB05
:101100001AABA66C877CE44CC55C222C033C600CBB
:10111000411CAEED8FFDECCDCDDD2AAD0BBD688D54
:10112000499D977EB66ED55EF44E133E322E511E0B
:10113000700E9FFFBEEFDDDFFCCF1BBF3AAF599FA4
:10114000788F8891A981CAB1EBA10CD12DC14EF144
:101150006FE18010A100C230E320045025404670AA
:101160006760B9839893FBA3DAB33DC31CD37FE3D5
:101170005EF3B1029012F322D232354214527762FA
:101180005672EAB5CBA5A89589856EF54FE52CD5A5
:101190000DC5E234C324A01481046674476424544A
:1011A0000544DBA7FAB79987B8975FE77EF71DC7B5
:1011B0003CD7D326F2369106B0165766767615469A
:1011C00034564CD96DC90EF92FE9C899E9898AB905
:1011D000ABA94458654806782768C018E1088238EA
:1011E000A3287DCB5CDB3FEB1EFBF98BD89BBBAB15
:1011F0009ABB754A545A376A167AF10AD01AB32A3A
:10120000923A2EFD0FED6CDD4DCDAABD8BADE89D64
:10121000C98D267C076C645C454CA23C832CE01C89
:10122000C10C1FEF3EFF5DCF7CDF9BAFBABFD98FF4
:10123000F89F176E367E554E745E932EB23ED10ED9
:10124000F01E78206D6F726521002A205072657340
:1012500073200045726173696E672E2E2E006565DE
:1012600070726F6D5F64756D702E62696E20666955
:101270006C656E6F7420666F756E64005265616494
:10128000206661696C65643B20454550524F4D2096
:101290006D617920626520636F727275707400529F
:1012A0006573746F72696E672E2E2E00656570729D
:1012B0006F6D5F64756D702E62696E2066696C6516
:1012C000616C726561647920657869737473005329
:1012D0004420636172642077726974652066616975
:1012E0006C656400536176696E672E2E2E00507215
:1012F00065737320555020746F2070726F6365653D
:10130000642E00796F757220626F7420696E6F7041
:10131000657261626C652E0054686973206D656E3C
:10132000752063616E206D616B65005361696C6649
:101330006973682076372E38207230376163630016
:1013400041546D65676120323536302031362F309B
:10135000352F3130002D2D20486561746572205382
:1013600070656369616C202D2D005361696C66693D
:1013700073682046462043726561746F72200020B6
:10138000202020202020202020202020202020205D
:10139000202020002020202000200043202020208A
:1013A000002F2020204300010049033600FF006B7E
:1013B00000D100A000B800D500A6000A0199003FA6
:1013C000018E0074018400A9017C00DE0174001309
:1013D000026C00480265007D025D00B2025600E723
:1013E000024E001C03460051033D0086033200BB41
:1013F000032200F0030300FF030000456C617073DB
:1014000065643A20202020203030306830306D0074
:1014100020736563730054696D65204C6566743A8A
:101420002020203030306830306D005A506F733AD1
:1014300020202020202020202020202020202000CC
:101440005541525431002020555342005365726972
:10145000616C20492F4F00457261736520456570AE
:10146000726F6D005344202D3E20456570726F6D84
:1014700000456570726F6D202D3E20534400456518
:1014800070726F6D005072696E742054696D653AA8
:10149000202020682030306D004C61737420507221
:1014A000696E743A20202020682030306D004C692D
:1014B000666574696D653A20202020202068203000
:1014C000306D00526573756D696E6720706F73695A
:1014D00074696F6E2E2E2E00436C656172696E67A3
:1014E000206275696C642E2E2E20202000447261CB
:1014F000696E696E6720706970656C696E652E2E05
:101500002E004C656176696E672070617573652E7B
:101510002E2E202020200043616E63656C6C696E66
:1015200067207072696E742E2E2E2000456E7465D1
:1015300072696E672070617573652E2E2E202020D3
:10154000005061757365206174205A506F733A20A2
:1015500000506C6174666F726D2054656D703A2036
:101560002020004C6566742054656D703A2000524E
:10157000696768742054656D703A2000546F6F6C11
:1015800068656164204F6666736574730020546FEC
:101590006F6C68656164204F66667365743A0020FD
:1015A0004F66667365743A0055702F446E2F4C6514
:1015B00066742F4D20746F207365740055702F442E
:1015C0006E2F522F4C2F4D20746F20736574005076
:1015D000726F66696C65204E616D653A0053617685
:1015E0006520546F2050726F66696C6500436861B6
:1015F0006E6765204E616D6500446973706C61793A
:1016000020436F6E66696700526573746F72650080
:1016100052657365743A2070726573732043454E4A
:101620005445520046696C2E20547269703A004647
:10163000696C616D656E743A00547269703A004C61
:101640006966653A0046696C616D656E74204F6429
:101650006F6D657465720048656174657273204FC3
:1016600066660043616E63656C205072696E74003B
:101670005072696E74205374617469737469637312
:10168000004261636B20746F204D6F6E69746F72DE
:10169000006D006D6D00486F6D65204F6666736567
:1016A00074730050726F66696C65730046696C6193
:1016B0006D656E743A202020202020302E306D6D14
:1016C0000046696C616D656E743A005A506F7369BB
:1016D00074696F6E3A005072696E742054696D655A
:1016E0003A20202020206820206D0054656D706510
:1016F0007261747572652072656164732020206F59
:101700007574206F662072616E67652E2020202020
:10171000202020436865636B20776972696E672EAD
:101720000054656D706572617475726520726561D3
:101730006473202020617265206661696C696E6740
:101740002E2020202020202020436865636B2077F6
:101750006972696E672E0054656D7065726174758B
:1017600072652064726F7070696E67436865636B41
:1017700020776972696E672E004E6F74206865610C
:1017800074696E672070726F7065726C79436865FA
:10179000636B20776972696E672E0054656D7020E7
:1017A0006C696D697420726561636865642E20538D
:1017B000687574646F776E206F72207265737461E0
:1017C00072742E00506C6174666F726D2046616990
:1017D0006C7572652120202000546F6F6C203120C1
:1017E0004661696C75726521202020202000546FAD
:1017F0006F6C2030204661696C7572652120202055
:101800002020004578747275646572204661696CA9
:10181000757265212020200048656174657273200F
:1018200073687574646F776E20647565746F206972
:101830006E61637469766974790046696C616D657F
:101840006E74206C6F61642F756E6C6F6164636180
:101850006E63656C65642064756520746F207468C0
:1018600065207072696F72206865617465722065A9
:1018700072726F72004D792074656D70657261745B
:101880007572652077617320206368616E67656497
:101890002065787465726E616C6C792E2052657368
:1018A000656C6563742066696C616D656E7420207B
:1018B000206D656E7520746F207472792061676188
:1018C000696E2E0077616974696E67200020204E72
:1018D0004120202020006572726F7221004F464621
:1018E00020202000435553544F4D0057484954453C
:1018F0002000505552504C4500424C554520200088
:10190000475245454E200050494E4B2020004F5233
:10191000414E474500524544202020004C4544207C
:10192000436F6C6F757200536574204C69676874FF
:1019300073204F4E2000536574204C6967687473A0
:10194000204F4646002843616E6E6F7420507269C6
:101950006E7420436F707929005072696E74204153
:101960006E6F7468657220436F7079004D61696EA7
:10197000204D656E750053657420436F6F6C696E02
:10198000672046616E204F46460053657420436FC2
:101990006F6C696E672046616E204F4E2000436871
:1019A000616E6765204842502054656D7000436841
:1019B000616E67652054656D7065726174757265DE
:1019C000004368616E67652053706565640050610F
:1019D000757365206174205A506F73004469747484
:1019E0006F205072696E74696E67004E2F4100500F
:1019F0002D53746F70207472696767657265640037
:101A0000502D53746F7020496E7665727465640052
:101A1000502D53746F7020436F6E74726F6C00435F
:101A20006865636B20534420526561647300457898
:101A300074727564657220486F6C640050617573D0
:101A40006520776974682048656174004F76657217
:101A50007269646520476354656D70004842502088
:101A6000696E7374616C6C656400416363656C6579
:101A7000726174696F6E0045786974204D656E758A
:101A800000536F756E6400457874727564657220DA
:101A9000436F756E7400426F742053746174697380
:101AA000746963730043616C696272617465204E8E
:101AB0006F7A7A6C657300526573746F7265205328
:101AC000657474696E67730047656E6572616C203A
:101AD00053657474696E67730050726568656174EC
:101AE0002053657474696E6773004C6576656C206D
:101AF0004275696C6420506C61746500456E61626A
:101B00006C652053746570706572732020004469A1
:101B10007361626C652053746570706572730056F2
:101B2000657273696F6E20496E666F726D6174695C
:101B30006F6E0046696C616D656E74204C6F6164F8
:101B4000696E6700486F6D652041786573004A6F64
:101B500067204D6F6465004D6F6E69746F72204D24
:101B60006F6465005574696C6974696573005072BF
:101B70006568656174005072696E742066726F6D7D
:101B800020534400492074696D6564206F7574208A
:101B90007768696C65202020617474656D70746964
:101BA0006E6720746F206865617420206D792070E5
:101BB0006C6174666F726D2E00492074696D656486
:101BC000206F7574207768696C65202020617474BB
:101BD000656D7074696E6720746F2068656174202C
:101BE000206D792065787472756465722E00556E6B
:101BF00061626C6520746F207265616420534420BB
:101C000020206361726420706172746974696F6E00
:101C100073206F76657232474220696E2073697A4D
:101C2000652E2020466F726D6174617320464154A9
:101C30002D3136206F72202D33322E00556E6162A9
:101C40006C6520746F20726561642074686973200C
:101C50005344206361726420666F726D61742E203C
:101C600020202020466F726D6174206173204641F0
:101C7000542D3136206F72204641542D33322E00C0
:101C800053442063617264207265616420657272DE
:101C90006F722E20546F6F206D616E792043524316
:101CA000206572726F72732E426164206361726488
:101CB00020636F6E7461637473206F72656C65630B
:101CC00074726963616C206E6F6973652E00534492
:101CD00020636172642072656164206572726F7244
:101CE0000053442063617264206E6F7420707265CB
:101CF00073656E74005344206361726420697320BD
:101D0000656D7074790043616E6E6F74206F7065DD
:101D10006E207468652066696C65005344206361B9
:101D20007264207265616473206172652020206E88
:101D30006F7420676F696E672077656C6C2E20204A
:101D40005472796120646966666572656E74206399
:101D50006172640049276D20616C7265616479204D
:101D60006275696C64696E6700436F6C64205061D2
:101D700075736500556E706175736500506175739C
:101D80006520200043616E63656C206C6F61642F79
:101D9000756E6C6F61643F0043616E63656C2074A7
:101DA000686973207072696E743F0073657474693A
:101DB0006E67733F00526573746F7265206661636E
:101DC000746F727900506C6174666F726D202020A0
:101DD0002020202020202020004C6566742045789B
:101DE000747275646572202020202020005269677B
:101DF00068742045787472756465722020202020F4
:101E0000004578747275646572202020202020209F
:101E100020202020005072657373206C656674204A
:101E2000746F2063616E63656C00457874727564CD
:101E300065723A2020202D2D2D2F2D2D2D43005061
:101E40006C6174666F726D3A2020202D2D2D2F2D20
:101E50002D2D43004C2045787472756465723A20CC
:101E60002D2D2D2F2D2D2D43005220457874727568
:101E70006465723A202D2D2D2F2D2D2D4300202D00
:101E80002D250048656174696E673A202020202066
:101E9000202020202020200048656174696E673A68
:101EA00000203C2D592020284D656E7529202020CA
:101EB000202020202000203C2D582020284D656E19
:101EC000752920205A2D3E2020200020202020206F
:101ED000202020582D2020202020202020202000DD
:101EE000202020202020284D656E75292020592D86
:101EF0003E202020002020202020202020582B20A1
:101F00002020202020202020200020202020204AC7
:101F10006F67206D6F6465202020202020200055F1
:101F20006E6C6F6164206C65667400556E6C6F61D9
:101F30006420726967687400556E6C6F6164004C50
:101F40006F6164004C6F6164206C656674004C6F57
:101F500061642072696768740035206D696E7574FC
:101F6000652074696D656F757420686173656C6157
:101F7000707365642E2020507265737320746865D9
:101F80002063656E74657220627574746F6E207460
:101F90006F2020202066696E6973682E0042656795
:101FA000696E206C6F6164696E67206F72202020FB
:101FB00020756E6C6F6164696E672E205072657358
:101FC000732074686563656E7465722062757474DD
:101FD0006F6E207768656E202066696E697368652C
:101FE000642E004578747275646572732061726541
:101FF000206E6F7420202068656174696E672E20E2
:1020000020436865636B2074686520776972696E28
:10201000672E00592041786973204C696E6500581D
:102020002041786973204C696E6500594553004E14
:102030004F2000446F6E650053656C6563742062C9
:10204000657374206C696E65733A004578747275B7
:1020500064657200506C6174666F726D00547572C5
:102060006E2048656174657273204F464600537454
:102070006172742050726568656174696E670046AC
:10208000726565205352414D20004F4646004F4E29
:102090002000F425CE293B312032D238573BEC3E8C
:1020A0008C40DB53306569682873E373EF74FC760A
:1020B000A677458A018B55915C91F39195926D9429
:1020C0007D95BB99039AB49C7CA083A0DAC82DCCE3
:1020D0005FCD42CFB5CF02D10FD1E8E6FBE185EC71
:1020E00091E201C08193EF3FF907E0F3D9F31124A6
:1020F0001FBECFEFD1E2DEBFCDBF00E00CBF16E0C8
:10210000A0E0B2E0E0E8F0EB01E00BBF02C0079016
:102110000D92AA31B107D9F72BE1AAE1B6E001C0CF
:102120001D92A836B207E1F710E2CAEDD0E200E056
:1021300006C022970109FE010BBF0E9437D7C239A2
:10214000D10780E00807A9F70E9496310C943ED889
:102150000C9400006BBFFA01DC0102C007900D92E5
:1021600021503040D8F708958091A40881110AC009
:102170008091A3088F5F8093A308853018F081E0D9
:102180008093A408089581E00E94ED3680E00C94CD
:10219000CF36F89420919B0630919C068091990649
:1021A00090919A06821B930B78940895FF920F9357
:1021B0001F93CF93DF938C01EB01F42E83E499E01E
:1021C0000E943FBCB80183E499E00E9418BCBE01A4
:1021D00083E499E00E9418BCE091D509EE0FFF0B53
:1021E000E953F64F808191818354994039F063E43B
:1021F00079E08BEB99E00E94579A04C083E499E060
:102200000E947EBCF092A209DF91CF911F910F91A5
:10221000FF9008951092A209E091D509EE0FFF0BEF
:10222000E953F64F808191818354994021F48BEBDF
:1022300099E00E94139BE091D509EE0FFF0BE95343
:10224000F64F80819181DC01ED91FC910480F58154
:10225000E02D19948091010208951092510608957D
:10226000882311F080E401C080E880939706609392
:1022700094061092A508089581E08093930608952E
:1022800080919706181634F480919406882321F0E3
:1022900082E0089580E0089581E008958091970696
:1022A000089581E090919706923008F480E00895B7
:1022B000CF93DF93CDB7DEB764970FB6F894DEBF48
:1022C0000FBECDBF60937B0670937C0680937D0626
:1022D00090937E06CE0101960E94106A62E070E043
:1022E000CE0101960E94AF3BFC0140815181628189
:1022F000738180917B0690917C06A0917D06B091C0
:102300007E06481759076A077B071CF010927A0669
:1023100003C081E080937A0664960FB6F894DEBF1E
:102320000FBECDBFDF91CF91089560917B06709174
:102330007C0680917D0690917E06089520919B06F3
:1023400030919C0681E0232B09F080E00895CF9323
:1023500060E070E0CB010E94581110927A06109252
:1023600040061092410610924206109243061092C7
:102370004406C1E0C09300021092A608109297068E
:1023800010929606109295061092940610926A0684
:1023900010926B0610926C0610926D0610926E06EB
:1023A00010926F06109270061092710610925A06E3
:1023B00010925B0610925C0610925D0610925E060B
:1023C00010925F06109260061092610610925206FB
:1023D00010925306109254061092550610927206EF
:1023E000109273061092740610927506109276067B
:1023F0001092770610927806109279061092620673
:10240000109263061092640610926506109266069A
:10241000109267061092680610926906109256068E
:1024200010925706109258061092590661E082E405
:1024300090E00E942F93823039F460E08FEF9FE0AC
:102440000E942F93811134C01092350610923B06E2
:1024500010923C0610923D0610923E0610923A06EB
:1024600010923606109237061092380610923906EE
:102470001092A5081092A3081092A408109250067A
:1024800010924F0610924C0610924B0610924E0678
:1024900010924D0610924A06109249061092460676
:1024A000109245061092480610924706CF91089563
:1024B000C0933506CBCF0E94A71185E68093010219
:1024C00010929C0610929B0610929E0610929D06FA
:1024D0001092A1061092A20610923406089581E08F
:1024E00090913406963009F080E008958F929F9283
:1024F000AF92BF92DF92EF92FF920F931F93CF9311
:10250000DF93CDB7DEB7AA970FB6F894DEBF0FBE44
:10251000CDBFD82E882321F081E08093510605C0DD
:1025200080915106882309F4E9C0CE0145960E94A6
:10253000106A81E089A78AA77E0189E2E80EF11C72
:1025400003E010E08CE39AE0FC01E759FF4F2081A3
:10255000FC01222319F026A137A104C0EC5AFF4F39
:1025600020813181232B61F148960E949A9788231C
:1025700039F1F70180818D11BCC0812C912C54015F
:102580008394402F60E070E080E090E40E94156842
:10259000A50194010E9437D54B015C01B801CE0121
:1025A00045960E94B63BFC01408151816281738156
:1025B000480D591D6A1D7B1D4083518362837383BF
:1025C0000430110541F0EFEFEE1AFE0A8BEB9AE0B2
:1025D00004E010E0B9CF60ED77E08CEE91E00E946E
:1025E0003F93BC0180E090E00E9485D3209132159A
:1025F0003091331540913415509135150E948BD48C
:102600009B01AC0160E074E284E799E40E94B2D2DD
:102610000E9454D34B015C0180913506882329F137
:102620008091980681110AC064E070E0CE01459661
:102630000E94B63B8C0163E070E009C063E070E08B
:10264000CE0145960E94B63B8C0164E070E0CE015D
:1026500045960E94B63BFC0180819181A281B381A5
:10266000F80180839183A283B383E12C00E010E022
:102670009801B501A401CE0145960E94396BD11095
:102680003DC0CE0101960E94106A63E070E0CE0169
:1026900001960E94B63B8C0163E070E08FE796E004
:1026A0000E94B63BFC014081518162817381F80137
:1026B000408351836283738364E070E0CE010196AE
:1026C0000E94B63B8C0164E070E08FE796E00E94C8
:1026D000B63BFC014081518162817381F8014083E6
:1026E00051836283738360E0CE0101960E94876903
:1026F00005C088248A94982C540143CFAA960FB61B
:10270000F894DEBF0FBECDBFDF91CF911F910F9127
:10271000FF90EF90DF90BF90AF909F908F900895C3
:102720002F923F924F925F926F927F928F929F92E1
:10273000AF92BF92CF92DF92EF92FF920F931F93CF
:10274000CF93DF93CDB7DEB7C856D1090FB6F89453
:10275000DEBF0FBECDBF182FCE01CD960E947A3BB3
:10276000CE0189960E947A3B112309F4F6C0E4EB6E
:10277000F4E18081882309F477C2DF0111978C91FD
:10278000882309F471C2BD9625E1EB33F20789F77E
:1027900084E1EFE7F6E0DE01559601900D928A950F
:1027A000E1F7CE0101960E94106A60E070E0CE0170
:1027B00045960E94B63B5C014091B9145091BA1401
:1027C0006091BB147091BC148EE090E00E94559310
:1027D0006B017C0180E00E94F16720E030E040EA7C
:1027E00050E40E948BD40E9454D3C61AD70AE80A38
:1027F000F90AF501C082D182E282F38261E070E0E1
:10280000CE0145960E94B63B5C014091E614509182
:10281000E7146091E8147091E91482E190E00E945D
:1028200055936B017C0181E00E94F16720E030E06C
:1028300040EA50E40E948BD40E9454D3C61AD70AAF
:10284000E80AF90AF501C082D182E282F38262E0ED
:1028500070E0CE0145960E94B63B40911315509111
:1028600014156091151570911615FC014083518364
:102870006283738362E070E0CE0101960E94B63BF2
:10288000FC01C080D180E280F38062E070E0CE0184
:1028900045960E94B63BFC0180819181A281B38163
:1028A0008C159D05AE05BF05BCF462E070E0CE015D
:1028B00045960E94B63B8C0162E070E0CE01019625
:1028C0000E94B63BFC014081518162817381F80115
:1028D000408351836283738363E070E0CE01459649
:1028E0000E94B63B8C0163E070E0CE0101960E942D
:1028F000B63BFC014081518162817381F8014083C4
:1029000051836283738364E070E0CE0145960E9438
:10291000B63B8C0164E070E0CE0101960E94B63BAC
:10292000FC014081518162817381F80140835183B0
:1029300062837383BE016B5E7F4FCE018F5A9F4FC0
:102940000E94496984E1FE01EF5AFF4FDE0199962A
:1029500001900D928A95E1F757C084E1EFE7F6E028
:10296000DE01999601900D928A95E1F7CE01459688
:102970000E94106A64E070E0CE0189960E94B63B26
:10298000FC01108101813280238063E070E0CE0180
:1029900089960E94B63BFC0180809180A280B38022
:1029A00062E070E0CE0145960E94B63BFC01C0801B
:1029B000D180E280F38061E070E0CE0145960E9414
:1029C000B63BFC01408051806280738060E070E023
:1029D000CE0145960E94B63BFC0140815181628147
:1029E00073812F923F920F931F9393018201CE0127
:1029F00001960E947B3B60E0CE0101960E948769B0
:102A00000F900F900F900F906091091570910A151B
:102A100080910B1590910C150E9487D320E030E037
:102A200040E857E30E948BD420910515309106159C
:102A300040910715509108150E948BD40E9454D3E1
:102A4000A9966CAF7DAF8EAF9FAFA997CE018F5A7D
:102A50009F4F0E94106A84E1FE01EF5AFF4FDE0192
:102A6000DD9601900D928A95E1F760E070E0CE016D
:102A7000CD960E94B63BFC01C080D180E280F380FD
:102A800060E070E0CE0189960E94B63BFC01808137
:102A90009181A281B381A7019601281B390B4A0BB2
:102AA0005B0BCA01B9010E9487D32091AB1430910E
:102AB000AC144091AD145091AE140E94B2D22B01CF
:102AC0003C0161E070E0CE01CD960E94B63BFC0176
:102AD000C080D180E280F38061E070E0CE01899611
:102AE0000E94B63BFC0180819181A281B381A70144
:102AF0009601281B390B4A0B5B0BCA01B9010E94D6
:102B000087D32091D8143091D9144091DA14509180
:102B1000DB140E94B2D24B015C0162E070E0CE0196
:102B2000CD960E94B63BFC01C080D180E280F3804C
:102B300062E070E0CE0189960E94B63BFC01808184
:102B40009181A281B381A7019601281B390B4A0B01
:102B50005B0BCA01B9010E9487D320910515309102
:102B6000061540910715509108150E94B2D26B01CD
:102B70007C01A3019201C301B2010E948BD42B01FD
:102B80003C01A5019401C501B4010E948BD49B01B5
:102B9000AC01C301B2010E9437D24B015C01A70115
:102BA0009601C701B6010E948BD49B01AC01C501FF
:102BB000B4010E9437D20E94F2D44B015C01809193
:102BC0003506882329F18091980681110AC064E0B6
:102BD00070E0CE0189960E94B63B7C0163E070E014
:102BE00009C063E070E0CE0189960E94B63B7C018B
:102BF00064E070E0CE0189960E94B63BFC018081C2
:102C00009181A281B381F70180839183A283B383F1
:102C10007090D5151092D5156091091570910A150F
:102C200080910B1590910C150E9487D320E030E025
:102C300040E857E30E948BD420E030E040E852E4C3
:102C40000E948BD40E9454D36B018501740120E053
:102C5000A9964CAD5DAD6EAD7FADA997CE018996BD
:102C60000E94846C7092D515C859DF4F0FB6F89446
:102C7000DEBF0FBECDBFDF91CF911F910F91FF90AF
:102C8000EF90DF90CF90BF90AF909F908F907F900C
:102C90006F905F904F903F902F900895EF92FF922A
:102CA0000F931F93CF93DF9398E0899FF001112436
:102CB000E659F94FE080F18002811381D481C5810A
:102CC000B681E7819701A8016D2F7C2F8B2F9E2F56
:102CD000A0E00E9480D744F40E94F0D679018A01D6
:102CE000D62FC72FB82FE92F9701A8016D2F7C2F62
:102CF0008B2F9E2FDF91CF911F910F91FF90EF901F
:102D000008956F927F928F929F92AF92BF92CF92CF
:102D1000DF92EF92FF920F931F93CF93DF93C82F11
:102D20000E944E1659016A017B013C01A0E00E94FD
:102D300080D709F00CF449C088E0C89FE001112455
:102D40004E0188E4881A8EEF980A00E010E020E037
:102D500030E040E050E060E070E0C4010E94F69393
:102D600083010E9459D789019A01AB01BC01C401BA
:102D70000E944794DE01A65AB94FFE01E659F94F69
:102D800080818C93818111968C9311978281129608
:102D90008C931297838113968C9313978481149646
:102DA0008C931497858115968C931597868116962A
:102DB0008C931697878117968C93108211821282BA
:102DC00013821482158216821782DF91CF911F9190
:102DD0000F91FF90EF90DF90CF90BF90AF909F90BA
:102DE0008F907F906F90089580E00E94811681E01F
:102DF0000C948116EF92FF920F931F93CF93DF9362
:102E000098E0899FF0011124E65AF94FE080F180A3
:102E100002811381D481C581B681E7819701A80120
:102E20006D2F7C2F8B2F9E2FA0E00E9480D744F423
:102E30000E94F0D679018A01D62FC72FB82FE92F2B
:102E40009701A8016D2F7C2F8B2F9E2FDF91CF91A3
:102E50001F910F91FF90EF900895CF92DF92EF9224
:102E6000FF9280E00E94FA16E42F43E0B9018E2F12
:102E7000952F0E94FC676B017C0181E00E94FA168D
:102E8000E42F44E0B9018E2F952F0E94FC679B012F
:102E9000AC01C701B6010E9437D26B017C0180E012
:102EA0000E944E16E42F43E0B9018E2F952F0E9409
:102EB000FC679B01AC01C701B6010E9437D26B01D0
:102EC0007C0181E00E944E16E42F44E0B9018E2F70
:102ED000952F0E94FC679B01AC01C701B6010E94BF
:102EE00037D2FF90EF90DF90CF9008950F931F930C
:102EF000CF93DF93082FC0E4D6E010E088818111E2
:102F00000EC0812F0E94706F8883002321F0812FD3
:102F10000E94766F04C064E1812F0E946B6F1F5F77
:102F20002196153059F7DF91CF911F910F91089598
:102F30001F93CF93DF93C0E4D6E010E06881812F28
:102F40000E946B6F19921F5F1530C1F7DF91CF910F
:102F50001F9108950F931F93CF93DF93CDB7DEB7E3
:102F600069970FB6F894DEBF0FBECDBF809197066C
:102F7000853409F400C190F5813409F456C0B8F4E1
:102F8000803209F4C5C1803409F43FC0823009F0B1
:102F9000F4C10E940A11609195067091960621E095
:102FA00040E087E199E00E949B3581E051C0833485
:102FB00009F445C008F04FC0CE0106960E94106A81
:102FC00084E1FE013696AFE7B6E001900D928A9556
:102FD000E1F781E00E94761283E43AC0843809F474
:102FE00060C150F4813809F43EC1833809F44AC104
:102FF000803809F0C2C1EAC0863809F46BC108F410
:103000005FC1873809F46BC1B8C10E94482C853074
:1030100029F00E94482C843009F091C181E480930A
:10302000970681E00E947617A8C18091380C909194
:10303000370C891B8F7009F0A0C182E409C0809110
:10304000380C9091370C891B8F7009F096C184E47D
:103050008093970692C181E00E94901385E480934B
:1030600097060E94482C853039F00E94482C11E0C8
:10307000843019F010E001C011E045E069E479E125
:10308000CE0101960E94D3CBCE0101960E9420CCA6
:1030900080933F0680E00E94CF368091A50A882366
:1030A00029F08091620A9091630A04C08091900A8D
:1030B0009091910A90934606809345068091240B47
:1030C000882329F08091E10A9091E20A04C080915E
:1030D0000F0B9091100B90934806809347068091B8
:1030E000380A882329F08091F5099091F60904C0E7
:1030F0008091230A9091240A90934A06809349066E
:1031000080919406811123C160E08EEF9FE00E94C0
:103110002F93882309F41BC180919406882351F0D2
:1031200021E040E060E080E00E94A57560E088EF6B
:103130000E94406F60919506709196066115710529
:1031400069F08091A608882319F087E195E104C011
:103150001111FBCF8CE295E141E00AC0112319F077
:1031600087E195E102C08CE295E141E068ED74E110
:103170000E94D61002C18091380C9091370C891BA7
:103180008F7009F0FAC00E9498178091A6088823D2
:1031900011F080E209C08091950690919606892BE6
:1031A00011F082E001C081E0809397060E940A112D
:1031B0000E94482C853009F4E0C00E94482C8430DD
:1031C00009F4DBC087E00E94FE3AD7C080E00E948D
:1031D000761700914F06109150060115110521F444
:1031E0000091490610914A061016110654F460E049
:1031F00087EE99E00E94FD97B80187EE99E00E9462
:10320000CA9600914B0610914C060115110521F448
:1032100000914506109146061016110654F460E020
:1032200084E59AE00E94FD97B80184E59AE00E9447
:10323000CA9600914D0610914E060115110521F414
:1032400000914706109148061016110654F460E0EC
:1032500083ED9AE00E94FD97B80183ED9AE00E9409
:10326000CA9681E8F5CE8091490690914A061816D3
:1032700019060CF06FC087EE99E00E949A978111B1
:1032800069C07BC0809145069091460618161906C4
:103290000CF062C084E59AE00E949A9781115CC0AC
:1032A0006CC081E00E94761780E00E94901385E850
:1032B0008093970641E063EC74E182E095E158CF9A
:1032C0008091380C9091370C891B8F7009F055C094
:1032D00086E8BECE80E00E94761287E8B9CE809163
:1032E000380C9091370C891B8F7009F046C0809183
:1032F0003F060E94CF360E9498170E940A11109232
:10330000970610929606109295061092A50835C061
:103310000E940A11609195067091960621E040E0A6
:1033200087E199E00E949B350E94043D1092960629
:10333000109295061092A608109297061EC041E0C2
:103340006DEE74E18CE295E10E94D61067CE0E948A
:10335000C310E2CE83E87CCE809147069091480668
:103360001816190634F483ED9AE00E949A97882380
:1033700021F00E94981784E86BCE69960FB6F894F6
:10338000DEBF0FBECDBFDF91CF911F910F9108958A
:10339000CF92DF92EF92FF92CF93DF93C091010221
:1033A000C53609F453C0CC2309F450C0D0913A0675
:1033B000CD1709F44BC0DD2309F448C060913606EF
:1033C0007091370680913806909139066115710524
:1033D00081059105D9F10E9485D36B017C016C2F89
:1033E00070E06D1B7109882777FD8095982F0E94EA
:1033F00087D39B01AC01C701B6010E94B2D26B0119
:103400007C016C2F70E080E090E00E9485D39B01EE
:10341000AC0160E070E088EC92E40E9436D29B013F
:10342000AC01C701B6010E948BD46B017C0120E086
:1034300030E0A9010E94AED287FF03C0C12CD12C7D
:103440007601C701B6010E9454D303C060E070E06A
:10345000CB01DF91CF91FF90EF90DF90CF90089557
:10346000FC01CB0124813581820F931F6081718122
:103470000E9453D526813781820F931F08951F9391
:10348000CF93DF93EC01162F2A813B8188819981AC
:103490002817390768F46A817B81CE010E94301AAF
:1034A000FC0110838A819B8101969B838A8302C0E1
:1034B00081E08887DF91CF911F910895682F89E976
:1034C00096E00C943F1ACF93DF93EC018A819B81A5
:1034D000892B21F481E0898780E016C060E070E0EC
:1034E000CE010E94301AFC018C819D810196688179
:1034F00079810E9453D59D838C832A813B81215001
:1035000031093B832A838081DF91CF91089589E936
:1035100096E00C94631ACF9389E996E00E94631AAF
:10352000C82F89E996E00E94631A982F8C2FCF91BB
:1035300008951F93CF93DF931F921F92CDB7DEB7ED
:1035400089E996E00E94631A682F89E996E06A8308
:103550000E94631A782F89E996E079830E94631AA2
:10356000182F89E996E00E94631A982F6A81798161
:10357000812F0F900F90DF91CF911F910895DF92CF
:10358000EF92FF920F931F93CF93DF93C82F61E0C9
:1035900070E089E996E00E94301AFC01D080CF3FAC
:1035A00009F0DC2E62E070E089E996E00E94301AB2
:1035B000FC0180818D3009F476C048F48C3008F02D
:1035C0005EC0843008F04FC0833069F0C0C08731DE
:1035D00009F44BC020F4803108F445C0B8C08F31E5
:1035E00009F46DC0B4C064E070E089E996E00E941F
:1035F000301AFC01C081D0E065E070E089E996E016
:103600000E94301AFC01808190E0982F8827C80F13
:10361000D91F209719F40E94F41614C00D2D10E044
:103620007801EE0CFF1CF701E55BF94F8081918179
:10363000892B09F08EC060E08DEF9FE00E942F93F0
:10364000811187C0F1E0DF1203C08BEB9AE002C06A
:103650008CE39AE0BE0148960E94CA9680914B0B7B
:103660008E7F80934B0B11E08BC00E94401191E044
:10367000811190E060E0892F0E94A82DF4CF64E0D2
:1036800070E089E996E00E94301AFC016081617067
:10369000F1E0DF1203C08BEB9AE002C08CE39AE00A
:1036A0000E940D95E0CF64E070E089E996E00E9409
:1036B000301AFC01808181700E94CF36D4CF0E94E5
:1036C000FD28182F882379F264E070E089E996E0FC
:1036D0000E94301AFC01C081D0E065E070E089E909
:1036E00096E00E94301AFC01208130E0322F222720
:1036F000C20FD31F2097D9F020914F06309150066A
:10370000232B39F460E08DEF9FE00E942F938823F4
:1037100071F020914F06309150062115310571F559
:1037200064E670E08CE591E00E943F93EC01BE01FD
:1037300087EE99E00E94CA9661E087E199E00E94D5
:10374000CA3680914B0B8E7F80934B0B19C010E0D3
:1037500017C0F701E55BF94F208131812115310553
:1037600051F4C801880F991F66EE70E0885A9E4F89
:103770000E943F9301C0C901EC0164CFC901D6CFBB
:10378000812FDF91CF911F910F91FF90EF90DF90EC
:1037900008952F923F924F925F926F927F928F92F5
:1037A0009F92AF92BF92CF92DF92EF92FF920F93D0
:1037B0001F93CF93DF93CDB7DEB7CC54D1090FB6AB
:1037C000F894DEBF0FBECDBF0E94A33C882381F0DA
:1037D00080919B0690919C062091990630919A06C3
:1037E0002817390719F10E94F23C811173C51EC0D8
:1037F0000E948973882309F446C080919B069091AA
:103800009C062091990630919A062817390709F4E9
:1038100069C50E949773882309F464C50E94A57343
:10382000682F89E996E00E943F1AE7CF0E94F23C98
:10383000811129C080910202882309F441C5909129
:10384000970691113DC591E09093A608813009F04B
:103850002FC581EE9CE190939606809395060E9479
:10386000C31060E08FEF0E94406F10929C06109290
:103870009B0610929E0610929D061092A106109231
:10388000A2060E948C2D80917B0690917C06A091CF
:103890007D06B0917E06892B8A2B8B2B19F18091A6
:1038A0007A0681111FC0CE0101960E94106A62E063
:1038B00070E0CE0101960E94AF3BDC014D915D911D
:1038C0006D917C9180917B0690917C06A0917D0604
:1038D000B0917E06481759076A077B071CF481E000
:1038E00080937A0680917B0690917C06A0917D065C
:1038F000B0917E06892B8A2B8B2B79F180917A06E9
:10390000882359F10E944011811127C0CE010196F0
:103910000E94106A62E070E0CE0101960E94AF3B07
:10392000FC01408151816281738180917B0690917D
:103930007C06A0917D06B0917E06481759076A075C
:103940007B075CF060E070E0CB010E94581160E002
:1039500081E00E94A82D0C94DA2510919706123070
:1039600020F00E94AA170C94DA251130F9F4809106
:10397000940681110C94DA258091930681110C94A0
:10398000DA2583EA99E00E947ECF882311F40C9413
:10399000DA25109394060E94C31021E040E060E015
:1039A00080E00E94A57560E088EFBDC48091340678
:1039B000833071F40E947C68882341F088E296E0AD
:1039C0000E947ECF882321F00E94F072109234066C
:1039D0008091A5088823E1F08091A4088823C1F094
:1039E000809134068330A1F080919706811110C038
:1039F0000E94401181110AC08FEE99E190939606C2
:103A00008093950661E081E00E94A82D1092A508A0
:103A100080913406813031F40E947C68811102C0AB
:103A20001092340680913406823039F48EE296E0AA
:103A30000E947ECF8111109234068091340684302A
:103A400009F051C082E296E00E947ECF882349F0BF
:103A500020E040E069EB7BE187E199E00E949B3543
:103A600040C080919806813019F48BEB9AE002C037
:103A70008CE39AE048960E94C697811113C080910A
:103A80003506882371F180919806882319F08CE31C
:103A90009AE002C08BEB9AE048960E94C69781118B
:103AA00022C01FC080919806813019F48BEB9AE0F8
:103AB00002C08CE39AE048960E949A97882399F076
:103AC00080913506882369F080919806811103C0A2
:103AD0008BEB9AE002C08CE39AE048960E949A979A
:103AE000811110923406809134068530E1F482E22F
:103AF00096E00E947ECF882349F020E040E064E811
:103B00007BE187E199E00E949B3510C487EE99E044
:103B10000E94C697882309F409C487EE99E00E94A1
:103B20009A97811103C480913406863091F58CE117
:103B300096E00E947ECF882391F080911A0681FF43
:103B400006C060E087E199E00E94DD3822C0109253
:103B5000340680914B0B8F7E80934B0B1AC08BEBFE
:103B600099E00E94A99C8823A1F080911A0682FF07
:103B700004C08BEB99E00E94139B0E94BE38809199
:103B80004B0B8F7E80934B0B8FEF0E9478761092B9
:103B900034068091340681110C94DA2580919B06BD
:103BA00090919C06892B11F40C94DA2587E199E019
:103BB0000E94A43560E070E089E996E00E94301A26
:103BC000DC011C911B3809F426C51E3809F4B5C365
:103BD0001B3909F4CBC5193809F492C3163809F416
:103BE000DBC71C3809F48AC70DE7010F1C3909F43B
:103BF000B6C0103909F4B3C0023008F4B0C01838A8
:103C000009F4ADC0143941F480919B0690919C0653
:103C1000059708F4CFC708C0163909F4A0C00E9460
:103C2000AA5281112DC0C6C70E94871A0E94871A06
:103C300080931B060E948B1A8C010E94871A809326
:103C40001A060115110571F0D80120E432E44FE0A5
:103C500050E00E94D1D5AB01BC018CE196E00E94FE
:103C60004CCF6CC0CE0101960E9449CF86E0FE0188
:103C70003196ACE1B6E001900D928A95E1F75EC015
:103C8000153809F4F3C6153909F069C080919B060F
:103C900090919C06069708F48DC70E94871A0E948F
:103CA000871A082F0E94871AE82E0E94871AF82E7A
:103CB0000E94871A182F00FD04C083E499E00E9437
:103CC0003FBCE0924609F092470969E976E083E457
:103CD00099E00E94A2C801FF6DC7E091D509EE0FDF
:103CE000FF0BE953F64F208131812354394009F409
:103CF000D6C663E479E08BEB99E00E94579A047092
:103D00001111D2C6002309F455C7112309F4D4C6F2
:103D1000A12FB0E020E432E44FE050E00E94D1D582
:103D2000AB01BC018CE196E00E944CCF81E0809316
:103D30001B0680911A06847080931A060E94B4387C
:103D400060911B068BEB99E00E94A69C80914B0B27
:103D5000806180934B0B86E0809334062BC7023042
:103D600060F580919B0690919C06089708F422C705
:103D70000E94871A0E94871A082F0E94991A6B01C5
:103D80007C010E948B1ADC0183E08093340620E4DE
:103D900032E44FE050E00E94D1D5AB01BC0188E293
:103DA00096E00E944CCF81E0143809F080E0A70132
:103DB0009601602F0E94946EFDC6173829F58091F8
:103DC0009B0690919C06069708F4F4C684E08093C5
:103DD000340681E08093A4080E94871A0E94871A03
:103DE000809398060E948B1A0E948B1ADC0120E4B3
:103DF00032E44FE050E00E94D1D5AB01BC0182E239
:103E000096E00E944CCFD6C61D3891F480919B0657
:103E100090919C06069708F4CDC685E08093340601
:103E200081E08093A4080E94871A0E94871ADACF43
:103E30001F3809F03FC080919B0690919C06029725
:103E400008F4B8C60E94871A0E94871AC82ECE01AD
:103E500001960E94106A0EE010E0E12CF12CD12CAA
:103E6000C6010E2C02C0959587950A94E2F780FF53
:103E700017C0B701CE0101960E94B63BDC014D91FF
:103E80005D916D917C914D8B5E8B6F8B788FF894EB
:103E900044E050E0B801CE0145960E9419D87894CC
:103EA000BFEFEB1AFB0A0C5F1F4FE5E0EE16F104C3
:103EB000B9F680C6103909F05FC080919B069091D9
:103EC0009C06029708F476C60E94871A0E94871AF9
:103ED000C82ECE0101960E94106A0EE010E0E12C7F
:103EE000F12CD12CC6010E2C02C0959587950A9411
:103EF000E2F780FF0CC0F894B701CE0101960E9452
:103F0000B63B44E050E0B8010E94F5D77894FFEF4B
:103F1000EF1AFF0A0C5F1F4F23E0E216F10411F7BE
:103F200063E070E0CE0101960E94B63BFC01808107
:103F30009181A281B3818093520690935306A093FE
:103F40005406B093550664E070E0CE0101960E94DD
:103F5000B63BFC0180819181A281B381809356069A
:103F600090935706A0935806B093590661E0CE018E
:103F700001960E9487691EC6113999F480919B06AB
:103F800090919C06039708F415C60E94871A0E9418
:103F9000871A182F0E94871A682F812F0E946B6F33
:103FA00009C6123921F580919B0690919C060697CF
:103FB00008F400C60E94871A0E94871A182F0E94D0
:103FC000871A2B968FAF2B970E94871A2A968FAF4E
:103FD0002A970E94871A0E94871A2A964FAD2A971D
:103FE0002B966FAD2B97812F0E94E876E3C513398E
:103FF000B1F480919B0690919C06069708F4DAC56F
:104000000E94871A0E948B1A8C010E948B1A7C01D5
:104010000E94871AB701C8010E949D3ACBC5183883
:1040200009F062C080919B0690919C06049708F469
:10403000C1C563E070E089E996E00E94301A2091E2
:104040009B0630919C06DC01EC90F12CB4E0EB0E69
:10405000F11C2E153F0508F4ADC580913506882367
:1040600039F080910002882319F01092000203C0F9
:1040700081E08093000262E070E089E996E00E94AE
:10408000301AFC018081833059F062E070E089E9E8
:1040900096E00E94301ADC018C918C3009F049C105
:1040A0008091000281110DC061E070E089E996E025
:1040B0000E94301AFC0181E09081992319F080E080
:1040C00001C08FEF0E94BF1A80910002882309F47B
:1040D00071C510E0812F90E08E159F0508F06AC52C
:1040E0000E94871A1F5FF6CF163909F041C08091F0
:1040F0009B0690919C06039708F45CC50E94871A62
:104100000E94871A809301020E94871A80910102FF
:104110008823F1F080913B0690913C06A0913D06EA
:10412000B0913E06892B8A2B8B2B91F480913A0615
:1041300081110EC00E94A02C60933B0670933C0638
:1041400080933D0690933E068091010280933A064B
:1041500080910102882309F42DC50E94A02C609350
:10416000360670933706809338069093390622C539
:104170001739B9F480919B0690919C060297B8F18B
:104180000E94871A0E94871A811102C084E006C02B
:10419000813019F40E94FE3A2AC082E00E94393B25
:1041A00026C0183999F480919B0690919C0602973D
:1041B00008F400C50E94871A0E94871A0E94FB27F4
:1041C00060E087E199E00E94DD38F4C4193991F488
:1041D00080919B0690919C06059708F4EBC40E9481
:1041E000871A0E94991A89E996E00E94003110927C
:1041F000A408E0C41A3971F480919B0690919C0642
:10420000029708F4D7C40E94871A0E94871A0E9456
:10421000022DEDCF1C3999F480919B0690919C065C
:10422000029708F4C7C40E94871A0E94871A91E077
:10423000813009F090E0892F0E947B6FBBC41D394B
:10424000A1F480919B0690919C06459708F4B2C416
:104250000E94991A0E94991A0E94991A0E94991A0A
:104260000E94991A0E94871AA5C41E3909F0A2C497
:1042700080919B0690919C06059708F49BC40E9430
:10428000871A0E94991A6B017C012FE632E143E8FC
:104290005AE30E94AED287FF03C0C12CD12C760115
:1042A00042E0C701B6010E9415680E94581182C4FD
:1042B0008B3019F480E89CE1CECA8EEC9CE1CBCA2D
:1042C0008091950690919606892B09F0DCCA0E9490
:1042D000043DD9CA0E94F53C682F89E996E00E9406
:1042E0003F1A76CA0E9497738111CDCA80919B06AE
:1042F00090919C06892B09F0C6CA0E94E073C3CA3C
:1043000080919B0690919C06029708F453C40E94EA
:10431000871A0E94871A909135069111DBC3682F86
:10432000661F6627661F0E94406F44C410923406C1
:10433000FACB81E080930002B3CE80919B069091EE
:104340009C064A9708F436C40E94871A81E080933D
:1043500034060E94991A69AB7AAB8BAB9CAB0E9476
:10436000991A6DAB7EAB8FAB98AF0E94991A69AF6B
:104370007AAF8BAF9CAF0E94991A4B0189A39DA382
:104380000E94991A69A7272E8DA79EA70E94991AA5
:1043900021966CAF7DAF8EAF9FAF21970E94871A99
:1043A000382E80913506882369F180919806811115
:1043B0000DC0832D8F7E33FE16C08061382E89A6F6
:1043C000292C39A13DA74DA14EA71CC0832D877F65
:1043D00034FE11C08860382E89A4922C5DA559A3A3
:1043E0008EA58DA30FC0382E89A6292C99A19DA733
:1043F000ADA1AEA707C0382E89A4922CBDA5B9A344
:10440000EEA5EDA38D8A9E8AF9A1FF8B2DA1288FA1
:1044100039A5398F2A8E4DA54B8F5EA55C8FAAE6F4
:10442000B6E02796BFAFAEAF27972E01B5E14B0E92
:10443000511C82E5682E86E0782EE3E0F0E0F8ABD0
:10444000EFA7A32DB0E02396BFAFAEAF239723967F
:104450008EAD9FAD23970FA402C0959587950A94C2
:10446000E2F7D2012D913D914D915C912D8F3E8FC0
:104470004F8F58A380FF38C069017A01FF0CCC0828
:10448000DC2C76012D8D3E8D4F8D58A16C2D7C2D11
:104490008C2D9C2D2796EEADFFAD2797A080B18087
:1044A000C280D380E480F580068117810E9459D7AD
:1044B0002083318342835383648375838683978308
:1044C000D3014D915D916D917C918D8D9E8DAF8DC0
:1044D000B8A1480F591F6A1F7B1FD3014D935D93ED
:1044E0006D937C93139750C0F301C080D180E2801C
:1044F000F380DA01C9018C199D09AE09BF096C016D
:104500007D01FF0CCC08DC2C76019C01AD016C2DEB
:104510007C2D8C2D9C2D2796AEADBFAD2797AC90F2
:104520001196BC9011971296CC9012971396DC902E
:1045300013971496EC9014971596FC901597169671
:104540000C91169717961C9117970E9459D72C9388
:1045500011963C93119712964C93129713965C9375
:10456000139714966C93149715967C93159716963B
:104570008C93169717969C932D8D3E8D4F8D58A139
:104580002083318342835383EFA5F8A93196F8AB9A
:10459000EFA72796AEADBFAD279718962796BFAF6A
:1045A000AEAF2797B4E04B0E511CE4E06E0E711CC9
:1045B000AFA5B8A9159709F04ACF0E94B410BEA5BF
:1045C000BF93EDA5EF932F92F9A5FF93A9A0BDA0EE
:1045D000C9ACDAACEBACFCAC0DA91EA92FA938AD67
:1045E00049A95AA96BA97CA9CE0101960E947B3BDF
:1045F000E32C21960CAD1DAD2EAD3FAD219740E0D3
:1046000050E0BA01CE0101960E94396B0F900F90D5
:104610000F900F90CFC280919B0690919C06499776
:1046200008F4C8C20E94871A81E0809334060E9471
:10463000991A6D8F7E8F8F8F98A30E94991A69A304
:104640007AA38BA39CA30E94991A6DA37EA38FA328
:1046500098A70E94991A4B01382E292E0E94991A68
:104660002B013C010E94991A69A77AA78BA79CA7E6
:1046700080913506882359F080919806811104C0F5
:104680002401632C722C03C04201362C272C80920B
:10469000520690925306309254062092550680910D
:1046A000560690915706A0915806B0915906A3015D
:1046B0009201281B390B4A0B5B0BDA01C901690116
:1046C0007A01FF0CCC08DC2C76019C01AD016C2D2D
:1046D0007C2D8C2D9C2DA0907206B0907306C090FE
:1046E0007406D0907506E0907606F09077060091FB
:1046F0007806109179060E9459D72093720630935C
:104700007306409374065093750660937606709313
:1047100077068093780690937906409256065092D9
:10472000570660925806709259060E94B4107F9204
:104730006F925F924F92A32CB22CCDA0DEA0EFA07F
:10474000F8A409A11AA12BA13CA14D8D5E8D6F8DFE
:1047500078A1CE0101960E947B3BE12C00E010E0A5
:10476000980149A55AA56BA57CA54CCF80919B06C5
:1047700090919C06809708F41DC20E94871A81E0E0
:10478000809334060E94991A69AB7AAB8BAB9CABD1
:104790000E94991A6DAB7EAB8FAB98AF0E94991AAD
:1047A00069AF7AAF8BAF9CAF0E94991A4B018DA372
:1047B000392E0E94991A69A7272E8DA79EA70E94BD
:1047C000991A21966CAF7DAF8EAF9FAF21970E9453
:1047D000871A182F0E94991A25966CAF7DAF8EAF5D
:1047E0009FAF25970E948B1A27969FAF8EAF279772
:1047F00080913506811103C01F771D8F27C08091DE
:10480000980681110CC0212F2F762D8F13FF13C016
:1048100020612D8F89A6292C3DA13DA710C0412FD5
:1048200047774D8F14FF0DC048604D8F89A4922C9F
:104830005DA55DA30AC089A6292C8DA18DA73EA6E2
:1048400005C089A4922C9DA59DA33EA48D8A9E8A15
:10485000ADA1AF8B388EB9A5B98F2A8EEDA5EB8FA0
:10486000FEA5FC8FAAE6B6E02D96BFAFAEAF2D97A2
:104870002E01B5E14B0E511CF2E56F2EF6E07F2EB6
:10488000E3E0F0E0F8ABEFA7BD8DAB2FB0E02996E9
:10489000BFAFAEAF299729968EAD9FAD29970FA4D4
:1048A00002C0959587950A94E2F7D2012D913D912A
:1048B0004D915C9129A33AA34BA35CA380FF38C020
:1048C00069017A01FF0CCC08DC2C760129A13AA100
:1048D0004BA15CA16C2D7C2D8C2D9C2D2D96EEADCD
:1048E000FFAD2D97A080B180C280D380E480F58099
:1048F000068117810E9459D72083318342835383D5
:104900006483758386839783D3014D915D916D9107
:104910007C9189A19AA1ABA1BCA1480F591F6A1F24
:104920007B1FD3014D935D936D937C93139750C080
:10493000F301C080D180E280F380DA01C9018C19D3
:104940009D09AE09BF096C017D01FF0CCC08DC2C70
:1049500076019C01AD016C2D7C2D8C2D9C2D2D960E
:10496000AEADBFAD2D97AC901196BC90119712963D
:10497000CC9012971396DC9013971496EC901497A2
:104980001596FC90159716960C91169717961C91F4
:1049900017970E9459D72C9311963C931197129612
:1049A0004C93129713965C93139714966C931497E9
:1049B00015967C93159716968C93169717969C933D
:1049C00029A13AA14BA15CA1208331834283538367
:1049D000EFA5F8A93196F8ABEFA72D96AEADBFAD18
:1049E0002D9718962D96BFAFAEAF2D97B4E04B0E16
:1049F000511CE4E06E0E711CAFA5B8A9159709F023
:104A00004ACF0E94B4107090D515BD8D7B2AEEA5BB
:104A1000EF93FDA5FF932F9229A52F93ADA0B32C63
:104A2000C9ACDAACEBACFCAC0DA91EA92FA938AD12
:104A300049A95AA96BA97CA9CE0101960E947B3B8A
:104A40002796CEACDFAC27972596ECACFDAC0EAD2F
:104A50001FAD2597272D21964CAD5DAD6EAD7FAD79
:104A60002197CE0101960E94846CD0CD80919B0647
:104A700090919C06059708F49DC082E080933406CF
:104A80000E94871A0E94991A9B01AC01A8EEB3E01C
:104A90000E94D1D5AB01BC018EE296E0B2C983E49D
:104AA00099E00E947EBC2BC901112CC9612F83E4BF
:104AB00099E00E946EBC7EC0CE0101960E9449CF53
:104AC00086E0FE013196ACE1B6E001900D928A9548
:104AD000E1F72CC990919806911107C0982F9F7EFD
:104AE00083FF0AC0892F80611ACC982F977F84FF9B
:104AF00003C0892F886013CC892F11CC80919B062D
:104B000090919C06459708F455C00E94871A0E9410
:104B1000991A2B013C010E94991A6D8F7E8F8F8FFD
:104B200098A30E94991A6B017C010E94991A4B016B
:104B30005C010E94991A20913506222349F02091A8
:104B40009806211103C0B401C50102C04B015C01EC
:104B50008092520690925306A0925406B092550647
:104B600060935606709357068093580690935906A3
:104B70009F938F937F936F930D8D1E8D2F8D38A1F3
:104B8000B301A201CE0101960E947B3B60E0CE0101
:104B900001960E9487693ACD80919B0690919C0670
:104BA000029740F00E94871A0E94871A8093980605
:104BB0000E947E6FC45BDF4F0FB6F894DEBF0FBE5E
:104BC000CDBFDF91CF911F910F91FF90EF90DF90BC
:104BD000CF90BF90AF909F908F907F906F905F909D
:104BE0004F903F902F90089540E067E479E187EA85
:104BF00098E00E94D3CB80E092E090939A06809355
:104C0000990610929C0610929B0610929E06109296
:104C10009D0683EA96E09093A00680939F061092EB
:104C2000A1061092A2068FE796E00E947A3B8EE2E0
:104C300096E00E9449CF88E296E00E9449CF82E246
:104C400096E00E9449CF8CE196E00C9449CFCF9337
:104C5000DF931F921F92CDB7DEB721E0298322E3B5
:104C60002A8342E050E0BC01CE0101960E9419D88F
:104C70000F900F90DF91CF910895CF93DF93EC01C8
:104C800040E050E060EE70E40E94BC9346E656E6D9
:104C900066EA7EE3CE0102960E94BC9340E050E0BB
:104CA00060E172E4CE010496DF91CF910C94BC9345
:104CB000CF93DF93EC010A960E943D26CE014096E9
:104CC0000E943D26CE014A96DF91CF910C94272673
:104CD0000F931F93CF93DF9300D0CDB7DEB78C0136
:104CE00067E00E9423D861E0C80102960E9423D8A1
:104CF0008FEF89838A838B83B8016C5F7F4F43E09A
:104D000050E0CE0101960E9419D80F900F900F909D
:104D1000DF91CF911F910F91089567E080E491E0BA
:104D20000C942F93682F80E491E00C9423D80F9378
:104D30001F93CF93DF9300D01F92CDB7DEB7082F1C
:104D4000162F68E080E491E04C830E9423D8098309
:104D50001A834C814B8343E050E064E471E0CE0160
:104D600001960E9419D80F900F900F900F90DF912D
:104D7000CF911F910F910895CF92DF92EF92FF9202
:104D8000CF93DF936B017C01EA01CA010E9439D8FD
:104D9000B701CE010496DF91CF91FF90EF90DF90A5
:104DA000CF900C9439D8AC016BE770E084EF91E0C0
:104DB0000E94BC260895CF93DF93EC0166EE70E06D
:104DC0000E9439D866EE70E0CE0102960E9439D872
:104DD00064E670E0CE0104960E9439D865E0CE0109
:104DE0000696DF91CF910C9423D861E08EE691E096
:104DF0000E9423D868EE73E082E791E00E9439D8E0
:104E000068EE73E084E791E00E9439D866E970E0CB
:104E100086E791E00E9439D860ED77E088E791E07D
:104E20000E9439D860ED77E08AE791E00E9439D896
:104E30006FE070E08CE791E00E9439D86FE070E09D
:104E40008EE791E00E9439D86AE070E080E891E056
:104E50000E9439D864E170E082E891E00E9439D87C
:104E600064E170E084E891E00E9439D844EF51E0B9
:104E700060E070E088ED91E00E9431D84CE755E1A8
:104E800060E070E08CED91E00E9431D860E170E06C
:104E900080EE91E00E9439D860E170E082EE91E00E
:104EA0000E9439D860E08BE092E00E9423D861E054
:104EB00084EE91E00E9423D860E888E891E00C94A9
:104EC00023D8CF93DF93CDB7DEB764970FB6F894AE
:104ED000DEBF0FBECDBF84E1EFEBF2E0DE01119645
:104EE00001900D928A95E1F744E150E06EE070E0A8
:104EF000CE0101960E9419D864960FB6F894DEBFD1
:104F00000FBECDBFDF91CF910895CF92DF92EF9288
:104F1000FF920F931F93CF93DF93CDB7DEB76497C4
:104F20000FB6F894DEBF0FBECDBF6C0128E0E3EDF5
:104F3000F2E0DE011D9601900D922A95E1F74CE01A
:104F400050E06EE070E0CE0101960E94F5D77E0140
:104F50008DE0E80EF11C8601D12C48E050E0B8014C
:104F6000F701819191917F010E9419D84CE050E0A6
:104F7000B801685F7F4FCE0101960E9419D866EE96
:104F800070E0C80144960E9439D866EE70E0C8010E
:104F900046960E9439D8F1E0DF1203C06DE270E05E
:104FA00002C064E670E0C80148960E9439D8D394E4
:104FB000065E1F4F84E0D812D0CF6CEA8CEF9FE0E2
:104FC0000E9423D864960FB6F894DEBF0FBECDBF03
:104FD000DF91CF911F910F91FF90EF90DF90CF90D5
:104FE0000895813009F082E0682F82E490E00E9409
:104FF00023D80C9461270F931F93CF93DF93CDB7E2
:10500000DEB76D970FB6F894DEBF0FBECDBF85E05B
:10501000EBEDF2E0DE01559601900D928A95E1F7F5
:105020004BE050E062E270E08BE393E00E9419D81D
:1050300045E050E066E070E0CE0145960E9419D848
:105040006FE984E090E00E9423D86BE18CE090E06F
:105050000E9423D80E94612784E99FE00E9485274F
:10506000A89544E150E06CE871E086E493E00E948A
:1050700019D844E150E064EA71E08EE693E00E94C2
:1050800019D844E150E064EF71E08AE593E00E94B2
:1050900019D80E94F52681EC93E29B8F8A8F84E1D8
:1050A00093ED9D8F8C8F44E050E064E470E0CE017E
:1050B0004A960E9419D880E091E00E9458268CE11F
:1050C00091E00E94582600E010E020E030E040E04F
:1050D00050E060E070E088EC91E00E94479420E0AE
:1050E00030E040E050E060E070E080ED91E00E9450
:1050F000479480E491E00E9468268AE491E00E944F
:10510000D32688E591E00E94DB2661E080E691E00D
:105110000E9423D860E08DEF9FE00E9423D860E0DA
:105120008EEF9FE00E9423D860E08FEF9FE00E9407
:1051300023D861E082E99FE00E9423D860E081E902
:105140009FE00E9423D880E00E94F12761E08CE478
:1051500090E00E9423D860E08FE89FE00E9423D86F
:1051600060E08EE89FE00E9423D888EC90E0A0E009
:10517000B0E089839A83AB83BC8344E050E066E669
:105180007FE08E010F5F1F4FC8010E9419D863E0B6
:1051900084E69FE00E9423D864E683E69FE00E94B5
:1051A00023D884E1F80111928A95E9F744E150E0AF
:1051B00069E47FE0C8010E9419D860E080E99FE0BF
:1051C0000E9423D860E088E49FE00E9423D86D9677
:1051D0000FB6F894DEBF0FBECDBFDF91CF911F9108
:1051E0000F91089561E082E490E00E942F9391E096
:1051F000823009F490E0892F089561E08CE490E01A
:105200000E942F9391E0813009F090E0892F08955A
:10521000CF93DF93CDB7DEB72C970FB6F894DEBFF0
:105220000FBECDBF81E89CE0A0E0B0E089839A8307
:10523000AB83BC831D821E821F82188619861A8644
:105240001B861C864CE050E062E671E0CE010196C0
:105250000E9419D82C960FB6F894DEBF0FBECDBFB2
:10526000DF91CF9108950F931F93CF93DF938C011C
:10527000EB0160E070E080EA91E00E943F93F8016A
:105280009183808360E082EA91E00E942F9388837B
:10529000DF91CF911F910F910895CF93C62FBC013D
:1052A00080EA91E00E9439D86C2F82EA91E0CF9198
:1052B0000C9423D8FF920F931F93CF93DF9300D0CA
:1052C000CDB7DEB78C01F62EBE016D5F7F4FCE01EC
:1052D00001960E9433292B812F0D822F6CE30E94AF
:1052E00047D5692F9B832D3330F029813A81280FD0
:1052F000311D3A83298389819A81800F911F0E94F1
:105300004D290F900F900F90DF91CF911F910F912A
:10531000FF9008950F931F9367E182E090E00E9451
:1053200023D880E00E94F1270E94082960E080E0F5
:1053300090E00E944D2961E088E092E00E9423D82D
:1053400000E010E020E030E040E050E060E070E09D
:1053500088EB91E00E94479420E030E040E050E08C
:1053600060E070E080EC91E00E9447941F910F9103
:105370000C94FB2767E080E491E00E942F93873034
:1053800059F061E082E491E00E942F9391E0873030
:1053900009F490E0892F089580E0089540E067E4E3
:1053A00079E18CEA98E00C94D3CBCF92DF92EF9224
:1053B000FF920F931F93CF93DF93EC017B018881C2
:1053C000811102C080E032C060E0CE010E9440CB7B
:1053D00087FFF8CF0E94A33C811104C00E9489730B
:1053E000882331F06AE8C7010E9489CB81E01EC0A2
:1053F000F894C8800E94C910D12C8C159D0530F4FA
:1054000062E8C7010E9489CB7894F0CF00E010E0F9
:105410000C151D054CF4602FCE010E9440CB0E945C
:105420005E1A0F5F1F4FF4CF61E8EBCFDF91CF9192
:105430001F910F91FF90EF90DF90CF90089586E03D
:105440008093C10881E08093B10808950F931F9362
:10545000CF93DF93CDB7DEB765970FB6F894DEBF75
:105460000FBECDBF8C01F894BE016B5E7F4FCE01A5
:1054700001960E94A86A61E8C8010E9489CB60E099
:1054800070E0CE0101960E94AF3BFC01408151814A
:1054900062817381C8010E94A0CB61E070E0CE01FF
:1054A00001960E94AF3BFC01408151816281738172
:1054B000C8010E94A0CB62E070E0CE0101960E947C
:1054C000AF3BFC014081518162817381C8010E9420
:1054D000A0CB0E948D6F682FC8010E9489CB789461
:1054E00065960FB6F894DEBF0FBECDBFDF91CF91AA
:1054F0001F910F9108950F931F93CF93DF93CDB713
:10550000DEB765970FB6F894DEBF0FBECDBF8C0136
:10551000F894BE016B5E7F4FCE0101960E94A86A8F
:1055200061E8C8010E9489CB60E070E0CE0101967D
:105530000E94AF3BFC014081518162817381C801AF
:105540000E94A0CB61E070E0CE0101960E94AF3BCB
:10555000FC014081518162817381C8010E94A0CB0E
:1055600062E070E0CE0101960E94AF3BFC014081F9
:10557000518162817381C8010E94A0CB63E070E019
:10558000CE0101960E94AF3BFC01408151816281B6
:105590007381C8010E94A0CB64E070E0CE01019647
:1055A0000E94AF3BFC014081518162817381C8013F
:1055B0000E94A0CB0E948D6F682F70E0C8010E94EE
:1055C0008BCB789465960FB6F894DEBF0FBECDBF37
:1055D000DF91CF911F910F910895CF92DF92EF92BB
:1055E000FF920F931F93CF93DF93CDB7DEB7A097B2
:1055F0000FB6F894DEBF0FBECDBF7C018B0161E812
:10560000C8010E9489CB61E0C7010E9440CB811193
:1056100005C06E0180E2C80ED11C0CC00E94BF3DC7
:105620008823B9F3682FC8010E9489CB27C088A1BD
:1056300081110CC0960140E050E06FE1CE0101966F
:105640000E94D03D89818E3291F306C08A818E32CC
:1056500089F78B818111EECF60E0C8010E9489CB70
:10566000FE0131967F01F70161917F01662331F0E0
:10567000C8010E9489CBEC14FD04A9F760E0C801C1
:105680000E9489CBA0960FB6F894DEBF0FBECDBFA7
:10569000DF91CF911F910F91FF90EF90DF90CF900E
:1056A00008958F929F92AF92BF92CF92DF92EF9226
:1056B000FF920F931F93CF93DF93CDB7DEB78C018B
:1056C0005B018DB69EB661E00E9445CB6C0163E044
:1056D000C8010E9440CB082F10E08DB79EB7801BF9
:1056E000910B0FB6F8949EBF0FBE8DBFEDB7FEB7FE
:1056F00031967F01A801B601CF010E94F5D761E87C
:10570000C5010E9489CB6701C6018E199F098017C8
:1057100091073CF4F60161916F01C5010E9489CBAC
:10572000F3CF0FB6F8949EBE0FBE8DBEDF91CF9122
:105730001F910F91FF90EF90DF90CF90BF90AF90AF
:105740009F908F9008952F923F924F925F926F9209
:105750007F928F929F92AF92BF92CF92DF92EF9201
:10576000FF920F931F93CF93DF931F92CDB7DEB7B6
:105770006C015B012DB63EB661E00E9445CB4C0149
:1057800063E0C6010E9440CB8983082F10E08DB7EB
:105790009EB7801B910B0FB6F8949EBF0FBE8DBFB6
:1057A000EDB7FEB731967F01A801B401CF010E9489
:1057B000F5D73701412C512C4016510664F464E0B2
:1057C000640DC6010E9440CBF30181933F01FFEFBE
:1057D0004F1A5F0AF1CFDFB6F894A801B401C701F0
:1057E0000E9419D8DFBE61E8C5010E9489CB69819A
:1057F000C5010E9489CB0FB6F8943EBE0FBE2DBEE8
:105800000F90DF91CF911F910F91FF90EF90DF905C
:10581000CF90BF90AF909F908F907F906F905F9050
:105820004F903F902F9008950F931F93CF93DF9346
:105830008091E108811111C001EE18E0C2E2D0E0D0
:1058400060E0CE010E942F93F80181938F01219691
:10585000C233D105A9F71092F1088091E1088111B6
:105860000DC0E0EBF4E0A1EEB8E084918D933196A9
:1058700084E0EC3BF807C9F71092ED0881EE98E060
:10588000DF91CF911F910F9108958091C1080895E4
:105890008091C008089587E199E00E94E733609302
:1058A000BB087093BC088093BD089093BE0881E04C
:1058B0008093BF0808951092B7081092B80810920C
:1058C000B9081092BA080C944B2C0F931F93809137
:1058D000BF08813089F487E199E00E94E7330091A5
:1058E000BB081091BC082091BD083091BE08601B18
:1058F000710B820B930B03C060E070E0CB011F9132
:105900000F9108950F931F930E94652C0091B70883
:105910001091B8082091B9083091BA08060F171FE6
:10592000281F391F0093B7081093B8082093B908AF
:105930003093BA0882E08093BF081F910F910895B9
:105940000F931F930E94652C0091B7081091B8081F
:105950002091B9083091BA08600F711F821F931F00
:105960001F910F910895BF92CF92DF92EF92FF9215
:105970000F931F93CF93DF93EC018B018091BF08AE
:1059800081110BC08091B5089091B60899838883E6
:105990008091B408FB0180831BC00E94A02C6B0186
:1059A0007C0120E13EE040E050E00E947BD5B22E39
:1059B00028833983C701B6012CE330E040E050E092
:1059C0000E947BD5FCE3BF9E20191124F80120839F
:1059D000DF91CF911F910F91FF90EF90DF90CF90CB
:1059E000BF90089564EB78E085EB98E00E94B32CBB
:1059F0001092BF086091B4088091B5089091B608E4
:105A00000C945A290E94F22C60E088EF0E94406FAB
:105A100081E00E94ED3680E00E94CF3682E08093E4
:105A2000C0081092C1080895CF93DF930097C1F08A
:105A300028E0823C9207B1F0603208F06EE1EC01A0
:105A400022EC38E0D9014A2F421B461718F449913D
:105A50004D93F9CFE62FF0E0EE53F74F108202C0DE
:105A600082EC98E00E949D3E8930A9F0811114C01B
:105A700081E00E94ED360E945B120E9452700E94EB
:105A8000F0721092F20882E08093C10880914B0B73
:105A9000806880934B0B80E0DF91CF910895109246
:105AA000F2080E94C173882319F085E08093C10831
:105AB00080914B0B846080934B0B0E945B120E9481
:105AC000F0728FEF8093BE020895CF93C091C1080A
:105AD000C13069F484E08093C10840E452E46FE08F
