:100000000C94990F0C94D40F0C94D40F0C94D40F1F
:100010000C94D40F0C94D40F0C94D40F0C94D40FD4
:100020000C94D40F0C94D40F0C94D40F0C94D40FC4
:100030000C94D40F0C94D9340C94D40F0C94D40F8A
:100040000C94D40F0C94D40F0C94D40F0C94D40FA4
:100050000C94D40F0C94D40F0C94D40F0C94D40F94
:100060000C94D40F0C943BD00C94D40F0C9467D008
:100070000C94D40F0C94BC910C94D40F0C94D40F0A
:100080000C94AF340C94D40F0C94D40F0C94D40F64
:100090000C949BD00C94D40F0C94C7D00C94D40F18
:1000A0000C94D40F0C94D40F0C94D40F0C94D40F44
:1000B0000C94D40F0C94D40F0C94D40F0C940135E1
:1000C0000C94D40F0C94D40F0C94D40F0C94D40F24
:1000D0000C94D40F0C94D40F0C94D40F0C94D40F14
:1000E0000C94D40FCE2D0E2E102EF62D1A2ED32EAC
:1000F000D32EF62D432ED32E512E562E6A2E6F2E32
:10010000D32ED32E222EF62D3E2ED32EDC2D1E2EB8
:10011000742E872E8E2ED32ED32EB32ED976A07684
:10012000AB769D769A76AD76CC76B076FCB719B87C
:1001300026B84FB86EB881B88FB8C3B80C94D7A1A1
:100140000C945DCC0C9466A60C94A2A50C9469A0AA
:100150000C942BB30C946BBC0C94C3B80C94AB767E
:100160000C94F6AB0C944D910C94B0760C94F0A1D9
:100170000C94BEA00C94EBA10C94DDAF0C9490A158
:100180000C942B8C0C942E770C949BBE0C9496A004
:100190000C942EA90C94E0B10C9477C10C9427CE4A
:1001A0000C94ADA20C946FC80C944BAB0C94F5A1BD
:1001B0000C9420B50C94D4A20C94DAB60C94299526
:1001C0000C94B9A00C9430B10C94B9A10C946AA20F
:1001D0000C941F770C94E1A80C94B2BE0C9463A706
:1001E0000C947DA00C94D32E0C945BA00C94CBACFF
:1001F0000C94C3A00C9482A00C9420B70C94BAC6A3
:100200000C943C770C9472CE0C94E6910C9446912D
:100210000C94222E0C9404A60C9405C50C94AD7677
:100220000C943FC60C9454B60C94C3A20C947D95C8
:100230000C94B32E0C946A2E0C948E2E0C94AFA0BA
:100240000C94EFAA0C947BC30C94CE2D0C9421310A
:100250000C94432E0C946EB80C94AA770C944CAE6C
:100260000C94CFC80C949D900C9408C70C94C8A013
:100270000C9451AD0C940E2E0C949BCE0C94A07645
:100280000C9406770C947CC40C94A0A50C94CC76AA
:100290000C94AECF0C94FBD00C9458C40C9461A673
:1002A0000C948ED60C941E2E0C949AA70C940EC40B
:1002B0000C948FA60C943E2E0C941BB20C94D2A0DE
:1002C0000C9439CF0C94FF760C946E940C94A9A6E0
:1002D0000C946F2E0C94C4AE0C9408D10C94F3BA09
:1002E0000C9445770C9457A50C948FB10C94E8A10D
:1002F0000C94A8B20C9469AF0C94562E0C94A6A141
:100300000C949AB00C9400250C944EB50C9409A250
:100310000C94DC2D0C94318A0C9484CC0C94F4C095
:100320000C9478A60C945A3A0C9489A30C9444AC7F
:100330000C9481B80C949D760C9450680C948FA109
:100340000C94102E0C9426B80C94D7A00C9432A8C0
:100350000C94889C0C94B9990C94EEA20C94E53DF5
:100360000C9478A00C9488920C94F62D0C9487B081
:100370000C94A3A10C94CAA10C948CA00C9473AA05
:100380000C94AAA00C94B4A00C948FB80C94FC9C70
:100390000C9491A00C94FCA80C9452CC0C94C1A188
:1003A0000C941A2E0C9417C00C942FB40C94293171
:1003B0000C9430CC0C941DBE0C9461C50C94AE8E84
:1003C0000C94D1B20C9453C20C9487A00C9493A5B6
:1003D0000C94A5A00C94DDA90C944FB80C94A37BAD
:1003E0000C942E650C949BA00C94CDA00C9477AD2E
:1003F0000C9473A00C94BFA40C94F6B00C946EA053
:100400000C94D5370C940CA30C9415B50C9424A51E
:100410000C94D9760C94512E0C94A0A00C942231FB
:100420000C9497A80C9435B60C9497A20C94517F19
:100430000C94D2280C94FCB70C94742E0C9451CDCF
:100440000C941D730C94843F0C94A0A70C949A7682
:100450000C94872E0C94EC8A0C941FCE0C947AC2C8
:100460000C940CC50C94E7740C945CB40C943B3065
:100470000C9403B20C94D8730C94F8B90C945CC52A
:100480000C941ACC0C9419B80C942A770C94019AF9
:100490000C94C6A10C945AA60C9462A00C94EC5235
:1004A0000C94AFC70C94F4A10C943C8F0C94CEA187
:1004B0005265706C6963617430722031001704C832
:1004C000000000DC0027056400000078007505C806
:1004D000000000DC002006640000007800E006C890
:1004E000000000DC002006C8000000DC002006C878
:1004F000000000DC002D08C80000000000C00DC88E
:100500000000001400C00DC800000014005A10C8FC
:100510000000001400C00D90010000000070039066
:1005200001000014005504C800000014002705C88D
:1005300000000014007003900100000000C805C80E
:100540000000001400C805C80000001400C805C859
:100550000000001400DD04B004000014007505C89C
:1005600000000014007505C800000014007505C8DF
:1005700000000014009704B00400000000C00DC883
:100580000000001400C00DC80000001400910E907F
:1005900001000014005A10900100001400C00D204A
:1005A00003000000007003BC000000BC00E006BCBB
:1005B000000000BC00B807BC000000BC002D08BC57
:1005C00000A908BC000000BC00C00D4D01000000E7
:1005D00000C00D20010000BC005311BC000000BC95
:1005E000005B12B101000000009302690000006985
:1005F00000EE016900000069002601B8010000005A
:100600000024F4D43050C38E20C2A24017828B70D5
:1006100011127A910D816CD90AA861E108C7586658
:1006200007615143061E4B5D05C145A7041A4111E0
:1006300004093D9803713931034036DB026533917B
:1006400002D4305402802E1D02632CEE01752AC59F
:1006500001B028A001102781018F2564012B244BB4
:1006600001E0223401AC211F018D200D01801FFC0F
:1006700000841EED00971DDF00B81CD200E61BC6EB
:1006800000201BBC00641AB200B219A8000A19A00D
:10069000006A189900D117910040178B00B5168495
:1006A0000031167E00B31579003A157300C7146F38
:1006B0000058146A00EE1366008813630025135E69
:1006C00000C7125B006C12570015125400C1115183
:1006D0000070114F0021114B00D61049008D1047BA
:1006E000004610440002104200C00F4000800F3E40
:1006F00000420F3C00060F3B00CB0E3800930E3734
:10070000005C0E3500270E3400F30D3200C10D31B0
:1007100000900D3000600D2E00320D2D00050D2CC7
:1007200000D90C2B00AE0C2900850C29005C0C278D
:1007300000350C27000E0C2600E80B2400C40B2407
:1007400000A00B23007D0B23005A0B2100390B2145
:1007500000180B2000F80A1F00D90A1E00BB0A1E51
:10076000009D0A1D00800A1D00630A1C00470A1B29
:10077000002C0A1B00110A1A00F7091A00DD0919DA
:1007800000C4091900AB091900920917007B091868
:1007900000630917004C09160036091600200916D7
:1007A000000A091500F5081500E0081400CC08142B
:1007B00000B8081400A4081400900813007D081263
:1007C000006B081300580812004608120034081184
:1007D00000230811001208110001081100F0071091
:1007E00000E0071000D0071000C0071000B0070F8E
:1007F00000A107100091070E0083070F0074070F78
:100800000065070E0057070E0049070E003B070D55
:10081000002E070E0020070D0013070D0006070D20
:1008200000F9060C00ED060D00E0060C00D4060CE5
:1008300000C8060C00BC060C00B0060C00A4060B99
:100840000099060C008D060B0082060B0077060B44
:10085000006C060B0061060A0057060B004C060AE6
:100860000042060A0038060A002E060A0024060A7C
:10087000001A060A001006090007060A00FD05090D
:1008800000F4050900EB050900E2050900D9050996
:1008900000D0050900C7050900BE050900B5050817
:1008A00000AD050800A50509009C05080094050891
:1008B000008C050800840508007C05080074050804
:1008C000006C050700650508005D05070056050872
:1008D000004E0507004705070040050800380507DA
:1008E00000310507002A050700230507001C05063F
:1008F00000160507000F050700080506000205079A
:1009000000FB040600F5040700EE040600E80406F8
:1009100000E2040700DB040600D5040600CF04064D
:1009200000C9040600C3040600BD040600B704069F
:1009300000B1040500AC040600A6040600A00405EE
:10094000009B04060095040500900406008A040537
:100950000085040500800406007A0405007504057E
:1009600000700405006B04050066040500610405C1
:10097000005C04050057040500520405004D040501
:100980000048040500430405003E0404003A040541
:100990000035040500300404002C0405002704047D
:1009A00000230405001E0404001A040400160405B4
:1009B00000110404000D04040009040500040404EB
:1009C0000000040400FC030400F8030400F4030422
:1009D00000F0030400EC030400E8030400E4030453
:1009E00000E0030400DC030400D8030400D4030483
:1009F00000D0030400CC030400C8030300C50303B4
:100A00000024F404D9201BC40C5C0E9804C4095FB4
:100A10000265077101F405F900FB04B3004804877F
:100A200000C10369005803550003034500BE023AA4
:100A3000008402310053022A00290225000402200A
:100A400000E4011C00C8011900AF0117009801144F
:100A50000084011300710110006101100051010EAA
:100A60000043010D0036010B002B010B0020010B90
:100A700000150109000C01090003010800FB000832
:100A800000F3000800EB000700E4000600DE0006AB
:100A900000D8000600D2000600CC000500C7000503
:100AA00000C2000500BD000400B9000400B5000448
:100AB00000B1000400AD000400A9000400A500037B
:100AC00000A20003009F0004009B000300980003A5
:100AD000009500020093000300900003008D0002C7
:100AE000008B0003008800020086000200840003DF
:100AF00000810002007F0002007D0002007B0002F6
:100B00000079000200770001007600020074000204
:100B10000072000100710002006F0002006D000110
:100B2000006C0002006A0001006900020067000119
:100B3000006600010065000100640002006200011F
:100B40000061000100600001005F0002005D000123
:100B5000005C0001005B0001005A00010059000127
:100B60000058000100570001005600010055000127
:100B70000054000100530000005300010052000126
:100B80000051000100500001004F0001004E000024
:100B9000004E0001004D0001004C0001004B000020
:100BA000004B0001004A000100490001004800001C
:100BB0000048000100470001004600000046000117
:100BC0000045000000450001004400010043000012
:100BD000004300010042000000420001004100000B
:100BE0000041000100400001003F0000003F000103
:100BF000003E0000003E0001003D0000003D0001FD
:100C0000003C0000003C0000003C0001003B0000F4
:100C1000003B0001003A0000003A000100390000EA
:100C200000390001003800000038000000380001E1
:100C300000370000003700010036000000360000D9
:100C400000360001003500000035000000350001CD
:100C500000340000003400000034000100330000C4
:100C600000330000003300010032000000320000B9
:100C700000320001003100000031000000310001AD
:100C8000003000000030000000300001002F0000A4
:100C9000002F0000002F0000002F0001002E000098
:100CA000002E0000002E0001002D0000002D00008D
:100CB000002D0000002D0001002C0000002C000081
:100CC000002C0000002C0001002B0000002B000075
:100CD000002B0000002B0001002A0000002A000069
:100CE000002A0000002A000100290000002900005D
:100CF0000029000000290000002900010028000050
:100D00000028000000280000002800000028000142
:100D10000027000000270000002700000027000037
:100D20000027000100260000002600000026000029
:100D3000002600000026000100250000002500001C
:100D4000002500000025000000250000002500010E
:100D50000024000000240000002400000024000003
:100D600000240001002300000023000000230000F5
:100D700000230000002300000023000000230001E6
:100D800000220000002200000022000000220000DB
:100D900000220000002200010021000000210000CC
:100DA00000210000002100000021000000210000BF
:100DB00000210001002000000020000000200000B1
:100DC00000200000002000000020000000200000A3
:100DD00000200001001F0000001F0000001F000095
:100DE000001F0000001F0000001F0000001F000186
:100DF000001E0000001E0000001E0000001E00007B
:100E0000008908990000000052657047204275690A
:100E10006C64009600FF84036901000014008304E1
:100E20008800000014008C0000000000000000306A
:100E3000F8FFFF00000000000000009B0000000021
:100E400000000000000000000000000000000000A2
:100E5000A51C0000180000A04095048304DC0500D8
:100E6000001400901F891B95000000004C4556455A
:100E70004C494E47202020202020202020202020C8
:100E8000009501000000202020202020202020208C
:100E9000202020202020202020200095010000007C
:100EA00050726573732063656E746572206B65792B
:100EB000202020200095030000007768656E2064E4
:100EC0006F6E65008500CA9A3B891F62003B020075
:100ED0000000002110422063308440A550C660E726
:100EE00070088129914AA16BB18CC1ADD1CEE1EFDF
:100EF000F13112100273325222B5529442F772D677
:100F000062399318837BB35AA3BDD39CC3FFF3DE2E
:100F1000E36224433420040114E664C774A44485C6
:100F2000546AA54BB528850995EEE5CFF5ACC58D7E
:100F3000D55336722611163006D776F6669556B416
:100F4000465BB77AA719973887DFF7FEE79DD7BCCE
:100F5000C7C448E5588668A7784008611802282366
:100F600038CCC9EDD98EE9AFF9488969990AA92B1E
:100F7000B9F55AD44AB77A966A711A500A333A12B6
:100F80002AFDDBDCCBBFFB9EEB799B588B3BBB1A6E
:100F9000ABA66C877CE44CC55C222C033C600C4106
:100FA0001CAEED8FFDECCDCDDD2AAD0BBD688D49BE
:100FB0009D977EB66ED55EF44E133E322E511E7056
:100FC0000E9FFFBEEFDDDFFCCF1BBF3AAF599F780E
:100FD0008F8891A981CAB1EBA10CD12DC14EF16FBF
:100FE000E18010A100C230E3200450254046706724
:100FF00060B9839893FBA3DAB33DC31CD37FE35E50
:10100000F3B1029012F322D2323542145277625673
:1010100072EAB5CBA5A89589856EF54FE52CD50D5F
:10102000C5E234C324A014810466744764245405C3
:1010300044DBA7FAB79987B8975FE77EF71DC73CEF
:10104000D7D326F2369106B0165766767615463413
:10105000564CD96DC90EF92FE9C899E9898AB9ABFF
:10106000A94458654806782768C018E1088238A363
:10107000287DCB5CDB3FEB1EFBF98BD89BBBAB9A8F
:10108000BB754A545A376A167AF10AD01AB32A92B3
:101090003A2EFD0FED6CDD4DCDAABD8BADE89DC99F
:1010A0008D267C076C645C454CA23C832CE01CC103
:1010B0000C1FEF3EFF5DCF7CDF9BAFBABFD98FF82F
:1010C0009F176E367E554E745E932EB23ED10EF053
:1010D0001E78206D6F726521002A2050726573732F
:1010E000200045726173696E672E2E2E0065657053
:1010F000726F6D5F64756D702E62696E2066696CCB
:10110000656E6F7420666F756E6400526561642051
:101110006661696C65643B20454550524F4D206DBA
:10112000617920626520636F727275707400526518
:1011300073746F72696E672E2E2E00656570726F04
:101140006D5F64756D702E62696E2066696C656195
:101150006C726561647920657869737473005344B7
:101160002063617264207772697465206661696CBE
:10117000656400536176696E672E2E2E005072658D
:10118000737320555020746F2070726F63656564AF
:101190002E00796F757220626F7420696E6F7065B2
:1011A0007261626C652E0054686973206D656E759E
:1011B0002063616E206D616B6500537065636961CA
:1011C0006C2045646974696F6E20202020200053D4
:1011D00061696C666973682020202020202020200F
:1011E000202020002020202020202020202020201F
:1011F00020202020202020200046462043726561C8
:10120000746F722050726F20202020202000202038
:1012100020202020202020202020202020202020CE
:10122000202000202020200020004320202020001B
:101230002F2020204300010049033600FF006B00EF
:10124000D100A000B800D500A6000A0199003F0116
:101250008E0074018400A9017C00DE017400130279
:101260006C00480265007D025D00B2025600E70294
:101270004E001C03460051033D0086033200BB03B1
:101280002200F0030300FF030000456C61707365EA
:10129000643A20202020202020202020306D0020B3
:1012A0007365637300546F20476F3A20202020201D
:1012B00020202020202020306D0055415254310044
:1012C00020205553420053657269616C20492F4FAD
:1012D00000457261736520456570726F6D005344FF
:1012E000202D3E20456570726F6D00456570726FF0
:1012F0006D202D3E20534400456570726F6D005087
:1013000072696E742054696D653A2020206820301F
:10131000306D004C617374205072696E743A2020F5
:101320002020682030306D004C69666574696D65F9
:101330003A202020202020682030306D0052657334
:10134000756D696E6720706F736974696F6E2E2E8C
:101350002E00436C656172696E67206275696C640A
:101360002E2E2E20202000447261696E696E672047
:10137000706970656C696E652E2E2E004C65617605
:10138000696E672070617573652E2E2E20202020D7
:101390000043616E63656C6C696E67207072696E84
:1013A000742E2E2E2000456E746572696E67207053
:1013B000617573652E2E2E20202000506175736597
:1013C000206174205A506F733A2000506C6174662B
:1013D0006F726D2054656D703A202020004C656658
:1013E000742054656D703A20005269676874205407
:1013F000656D703A2000546F6F6C68656164204FB2
:101400006666736574730020546F6F6C6865616401
:10141000204F66667365743A00204F666673657484
:101420003A0055702F446E2F4C6566742F4D207412
:101430006F207365740055702F446E2F522F4C2F00
:101440004D20746F207365740050726F66696C650F
:10145000204E616D653A005361766520546F2050CF
:10146000726F66696C65004368616E6765204E61E6
:101470006D6500446973706C617920436F6E6669B5
:101480006700526573746F72650052657365743AD4
:101490002070726573732043454E5445520046696F
:1014A0006C2E20547269703A0046696C616D656EED
:1014B000743A00547269703A004C6966653A0046A5
:1014C000696C616D656E74204F646F6D65746572D3
:1014D0000048656174657273204F66660043616EF3
:1014E00063656C205072696E74005072696E74206E
:1014F00053746174697374696373004261636B2030
:10150000746F204D6F6E69746F72006D006D6D00A9
:10151000486F6D65204F6666736574730050726F17
:1015200066696C65730046696C616D656E743A003E
:101530005A506F736974696F6E3A202020005072A0
:10154000696E742054696D653A202020202068203F
:10155000206D0054656D70657261747572652072DE
:10156000656164732020206F7574206F662072613E
:101570006E67652E20202020202020436865636B45
:1015800020776972696E672E0054656D70657261AF
:1015900074757265207265616473202020617265C4
:1015A000206661696C696E672E2020202020202033
:1015B00020436865636B20776972696E672E0054FB
:1015C000656D70657261747572652064726F70709C
:1015D000696E67436865636B20776972696E672E11
:1015E000004E6F742068656174696E672070726F59
:1015F0007065726C79436865636B20776972696E98
:10160000672E0054656D70206C696D697420726579
:1016100061636865642E2053687574646F776E200B
:101620006F7220726573746172742E00506C6174F5
:10163000666F726D204661696C757265212020208D
:1016400000546F6F6C2031204661696C75726521A2
:10165000202020202000546F6F6C203020466169CC
:101660006C757265212020202020004578747275E9
:10167000646572204661696C7572652120202000C6
:10168000486561746572732073687574646F776EF2
:1016900020647565746F20696E616374697669741E
:1016A000790046696C616D656E74206C6F61642FA2
:1016B000756E6C6F616463616E63656C65642064F4
:1016C000756520746F20746865207072696F722070
:1016D000686561746572206572726F72004D792061
:1016E00074656D70657261747572652077617320C1
:1016F000206368616E6765642065787465726E61E9
:101700006C6C792E20526573656C65637420666914
:101710006C616D656E742020206D656E7520746F30
:101720002074727920616761696E2E007761697437
:10173000696E67200020204E412020202000657225
:10174000726F7221004F46462020200043555354AB
:101750004F4D0057484954452000505552504C4574
:1017600000424C5545202000475245454E20005030
:10177000494E4B2020004F52414E474500524544B0
:10178000202020004C454420436F6C6F757200533D
:101790006574204C6967687473204F4E2000536550
:1017A00074204C6967687473204F46460028436173
:1017B0006E6E6F74205072696E7420436F70792959
:1017C000005072696E7420416E6F746865722043B8
:1017D0006F7079004D61696E204D656E75005365BF
:1017E0007420436F6F6C696E672046616E204F46B0
:1017F000460053657420436F6F6C696E67204661C5
:101800006E204F4E20004368616E6765204842504D
:101810002054656D70004368616E67652054656D86
:101820007065726174757265004368616E676520EA
:101830005370656564005061757365206174205A4A
:10184000506F7300446974746F205072696E7469CC
:101850006E67004E2F4100502D53746F70207472CC
:101860006967676572656400502D53746F70204915
:101870006E76657274656400502D53746F702043EA
:101880006F6E74726F6C00436865636B2053442005
:10189000526561647300457874727564657220489E
:1018A0006F6C6400506175736520776974682048B7
:1018B000656174004F766572726964652047635490
:1018C000656D700048425020696E7374616C6C6580
:1018D0006400416363656C65726174696F6E004595
:1018E000786974204D656E7500536F756E640045A0
:1018F0007874727564657220436F756E7400426F00
:101900007420537461746973746963730043616C08
:10191000696272617465204E6F7A7A6C65730052E9
:101920006573746F72652053657474696E677300B4
:1019300047656E6572616C2053657474696E677378
:1019400000507265686561742053657474696E67D0
:1019500073004C6576656C00456E61626C65205362
:101960007465707065727320200044697361626CE5
:101970006520537465707065727300566572736983
:101980006F6E20496E666F726D6174696F6E00468E
:10199000696C616D656E74204C6F6164696E67007F
:1019A000486F6D652041786573004A6F67204D6F01
:1019B0006465004D6F6E69746F72204D6F646500D1
:1019C0005574696C69746965730050726568656106
:1019D00074005072696E7400492074696D656420EA
:1019E0006F7574207768696C652020206174746558
:1019F0006D7074696E6720746F2068656174202053
:101A00006D7920706C6174666F726D2E0049207460
:101A1000696D6564206F7574207768696C65202036
:101A200020617474656D7074696E6720746F2068CE
:101A300065617420206D79206578747275646572B3
:101A40002E00556E61626C6520746F207265616452
:101A50002053442020206361726420706172746995
:101A600074696F6E73206F76657232474220696EBB
:101A70002073697A652E2020466F726D61746173E0
:101A8000204641542D3136206F72202D33322E00E6
:101A9000556E61626C6520746F207265616420749C
:101AA000686973205344206361726420666F726DAD
:101AB00061742E2020202020466F726D6174206199
:101AC00073204641542D3136206F72204641542DEB
:101AD00033322E0053442063617264207265616466
:101AE000206572726F722E20546F6F206D616E7957
:101AF00020435243206572726F72732E42616420DC
:101B00006361726420636F6E7461637473206F72BB
:101B1000656C656374726963616C206E6F6973656F
:101B20002E005344206361726420726561642065F5
:101B300072726F720053442063617264206E6F741E
:101B40002070726573656E74005344206361726423
:101B500020697320656D7074790043616E6E6F74D7
:101B6000206F70656E207468652066696C6500532F
:101B700044206361726420726561647320617265E0
:101B80002020206E6F7420676F696E672077656C08
:101B90006C2E2020547279612064696666657265D6
:101BA0006E7420636172640049276D20616C7265F8
:101BB000616479206275696C64696E6700436F6C5B
:101BC0006420506175736500556E706175736500B2
:101BD000506175736520200043616E63656C206CF5
:101BE0006F61642F756E6C6F61643F0043616E635B
:101BF000656C2074686973207072696E743F00733D
:101C0000657474696E67733F00526573746F7265B3
:101C100020666163746F727900506C6174666F72D4
:101C20006D2020202020202020202020004C6566D0
:101C300074204578747275646572202020202020FD
:101C40000052696768742045787472756465722003
:101C50002020202000457874727564657220202051
:101C60002020202020202020005072657373206CDB
:101C700065667420746F2063616E63656C004578DF
:101C80007472756465723A2020202D2D2D2F2D2D14
:101C90002D4300506C6174666F726D3A2020202DC8
:101CA0002D2D2F2D2D2D43004C20457874727564F9
:101CB00065723A202D2D2D2F2D2D2D4300522045BC
:101CC000787472756465723A202D2D2D2F2D2D2D6F
:101CD0004300202D2D250048656174696E673A2008
:101CE0002020202020202020202020004865617412
:101CF000696E673A00203C2D592020284D656E758D
:101D000029202020202020202000203C2D58202089
:101D1000284D656E752920205A2D3E202020002058
:101D200020202020202020582D202020202020206E
:101D300020202000202020202020284D656E75299D
:101D40002020592D3E20202000202020202020204F
:101D500020582B2020202020202020202000202060
:101D60002020204A6F67206D6F646520202020208E
:101D7000202000556E6C6F6164206C6566740055A0
:101D80006E6C6F616420726967687400556E6C6F69
:101D90006164004C6F6164004C6F6164004C6F6162
:101DA000642072696768740035206D696E757465AA
:101DB0002074696D656F757420686173656C6170FE
:101DC0007365642E202050726573732074686520DB
:101DD00063656E74657220627574746F6E20746FC3
:101DE0002020202066696E6973682E004C4F4144A4
:101DF000494E472E2E2E202020202020202020203B
:101E000020202020202020202020202020202020D2
:101E100020202020202020202020202020202020C2
:101E200020202020202020205072657373204F4BEB
:101E3000207768656E20646F6E65004578747275F2
:101E40006465727320617265206E6F742020206853
:101E5000656174696E672E2020436865636B20742A
:101E6000686520776972696E672E0059204178692C
:101E700073204C696E6500582041786973204C6965
:101E80006E6500594553004E4F2000446F6E65004B
:101E900053656C6563742062657374206C696E654C
:101EA000733A00457874727564657200506C6174A1
:101EB000666F726D005475726E204865617465724C
:101EC00073204F46460053746172742050726568E7
:101ED000656174696E670046726565205352414DB5
:101EE00020004F4646004F4E20000025D2283B30B0
:101EF0002231D5375A3AE53D843FEC522E65506881
:101F00001D73D873E774FF76AA77318AEC8A4691FD
:101F10004D91E69188926E947D95B999019A889C2D
:101F20005BA062A0CFC81ACC51CD39CFAECFFBD0C9
:101F300008D1E8E6FBE185EC91E201C08193EF3F37
:101F4000F907E0F3D9F311241FBECFEFD1E2DEBFD2
:101F5000CDBF00E00CBF16E0A0E0B2E0E8EBF0EB94
:101F600001E00BBF02C007900D92AA31B107D9F76B
:101F70002BE1AAE1B6E001C01D92A836B207E1F755
:101F80001FE0C9E9DFE000E006C021970109802FCA
:101F9000FE010E94DAD5C537D10780E00807A9F70E
:101FA0000E9498300C945AD80C9400006BBFFA0130
:101FB000DC0102C007900D9221503040D8F70895FF
:101FC0008091A40881110AC08091A3088F5F80933B
:101FD000A308853018F081E08093A408089581E07B
:101FE0000E94EF3580E00C94D135F894E9E9F6E0F1
:101FF0002281338180819181821B930B7894089593
:10200000EF92FF920F931F93CF937C018B01C42F0C
:1020100083E499E00E940FBFB70183E499E00E9436
:10202000E8BEB80183E499E00E94E8BEE091D509DA
:10203000EE0FFF0BE953F64F808191818354994055
:1020400039F063E479E08BEB99E00E94559A04C083
:1020500083E499E00E944EBFC093A209CF911F91E3
:102060000F91FF90EF9008951092A209E091D50989
:10207000EE0FFF0BE953F64F808191818354994015
:1020800021F48BEB99E00E94119BE091D509EE0FB2
:10209000FF0BE953F64F80819181DC01ED91FC91BA
:1020A0000480F581E02D1994809101020895109229
:1020B00051060895882311F080E401C080E88093E0
:1020C0009706609394061092A508089581E0809386
:1020D0009306089580919706181634F4809194061B
:1020E000811104C081E0089580E0089582E00895A0
:1020F00080919706089581E090919706923008F4B8
:1021000080E00895CF93DF93CDB7DEB764970FB625
:10211000F894DEBF0FBECDBF60937B0670937C0644
:1021200080937D0690937E06CE0101960E94F6690B
:1021300062E070E0CE0101960E94AA3AFC01408163
:1021400051816281738180917B0690917C06A09180
:102150007D06B0917E06481759076A077B071CF079
:1021600010927A0603C081E080937A0664960FB6D7
:10217000F894DEBF0FBECDBFDF91CF91089560917F
:102180007B0670917C0680917D0690917E06089575
:1021900020919B0630919C0681E0232B09F080E082
:1021A0000895CF9360E070E0CB010E9482101092FE
:1021B0007A06109240061092410610924206109242
:1021C000430610924406C1E0C09300021092A60894
:1021D0001092970610929606109295061092940609
:1021E00010926A0610926B0610926C0610926D06A1
:1021F00010926E0610926F06109270061092710681
:1022000010925A0610925B0610925C0610925D06C0
:1022100010925E0610925F061092600610926106A0
:1022200010925206109253061092540610925506C0
:102230001092720610927306109274061092750630
:102240001092760610927706109278061092790610
:102250001092620610926306109264061092650650
:102260001092660610926706109268061092690630
:102270001092560610925706109258061092590660
:1022800061E082E490E00E942293823039F460E0C1
:102290008FEF9FE00E942293811134C01092350687
:1022A00010923B0610923C0610923D0610923E069C
:1022B00010923A061092360610923706109238069F
:1022C000109239061092A5081092A3081092A40843
:1022D0001092500610924F0610924C0610924B0628
:1022E00010924E0610924D0610924A061092490620
:1022F0001092460610924506109248061092470624
:10230000CF910895C0933506CBCF0E94D11085E6BA
:1023100080930102E9E9F6E01382128215821482A9
:102320001086118610923406089581E0909134064B
:10233000963009F080E008958F929F92AF92BF92FD
:10234000CF92DF92EF92FF920F931F93CF93DF9381
:10235000CDB7DEB7AA970FB6F894DEBF0FBECDBFDC
:10236000882321F091E09093510605C09091510689
:10237000992309F4EAC0F82ECE0145960E94F66929
:1023800081E089A78AA76E0189E2C80ED11C03E00B
:1023900010E08CE39AE0FC01E759FF4F2081FC013B
:1023A000222319F026A137A104C0EC5AFF4F208147
:1023B0003181232B91F148960E949A97882369F1E5
:1023C000F60180818F1124C0812C912C54018394BB
:1023D000402F60E070E080E090E40E94FC67A5017F
:1023E00094010E9455D54B015C01B801CE01459680
:1023F0000E94B13AFC014081518162817381840E57
:10240000951EA61EB71E80829182A282B38205C04D
:1024100088248A94982C5401DBCF0430110541F0B4
:10242000EFEFCE1ADE0A8BEB9AE004E010E0B3CFB8
:1024300060ED77E08CEE91E00E943293BC0180E089
:1024400090E00E9493D32091321530913315409142
:102450003415509135150E949BD49B01AC0160E06E
:1024600074E284E799E40E94AFD20E945DD34B01ED
:102470005C0180913506882329F1809198068111AD
:102480000AC064E070E0CE0145960E94B13A8C012A
:1024900063E070E009C063E070E0CE0145960E9401
:1024A000B13A8C0164E070E0CE0145960E94B13AE9
:1024B000FC0180819181A281B381F80180839183A5
:1024C000A283B383E12C00E010E09801B501A401E0
:1024D000CE0145960E941D6BF11037C0CE010196CA
:1024E0000E94F66963E070E0CE0101960E94B13A65
:1024F0008C0163E070E08FE796E00E94B13AFC0146
:1025000080819181A281B381F80180839183A2832C
:10251000B38364E070E0CE0101960E94B13A8C0171
:1025200064E070E08FE796E00E94B13AFC018081A0
:102530009181A281B381F80180839183A283B383C7
:1025400060E0CE0101960E946D69AA960FB6F894DC
:10255000DEBF0FBECDBFDF91CF911F910F91FF90D6
:10256000EF90DF90CF90BF90AF909F908F900895A5
:102570002F923F924F925F926F927F928F929F9293
:10258000AF92BF92CF92DF92EF92FF920F931F9381
:10259000CF93DF93CDB7DEB7C856D1090FB6F89405
:1025A000DEBF0FBECDBF182FCE01CD960E94753A6B
:1025B000CE0189960E94753A112309F4F6C080E095
:1025C00090E0FC01E755FB4E2385222309F474C2F9
:1025D0002285222309F470C28D968738910589F7E8
:1025E00084E1EFE7F6E0DE01559601900D928A95C1
:1025F000E1F7CE0101960E94F66960E070E0CE013D
:1026000045960E94B13A8C014091B9145091BA1488
:102610006091BB147091BC148EE090E00E944893CE
:102620006B017C0180E00E94D76720E030E040EA47
:1026300050E40E949BD40E945DD3C61AD70AE80AD0
:10264000F90AF801C082D182E282F38261E070E08F
:10265000CE0145960E94B13A8C014091E61450910A
:10266000E7146091E8147091E91482E190E00E940F
:1026700048936B017C0181E00E94D76720E030E045
:1026800040EA50E40E949BD40E945DD3C61AD70A48
:10269000E80AF90AF801C082D182E282F38262E09C
:1026A00070E0CE0145960E94B13A409113155091C9
:1026B00014156091151570911615FC014083518316
:1026C0006283738362E070E0CE0101960E94B13AAA
:1026D000FC01C080D180E280F38062E070E0CE0136
:1026E00045960E94B13AFC0180819181A281B3811B
:1026F0008C159D05AE05BF05BCF462E070E0CE010F
:1027000045960E94B13A8C0162E070E0CE010196DC
:102710000E94B13AFC0180819181A281B381F801CC
:1027200080839183A283B38363E070E0CE014596FA
:102730000E94B13A8C0163E070E0CE0101960E94E4
:10274000B13AFC0180819181A281B381F80180833B
:102750009183A283B38364E070E0CE0145960E942A
:10276000B13A8C0164E070E0CE0101960E94B13A6A
:10277000FC0180819181A281B381F80180839183E2
:10278000A283B383BE016B5E7F4FCE018F5A9F4FF2
:102790000E94306984E1FE01EF5AFF4FDE019996F5
:1027A00001900D928A95E1F757C084E1EFE7F6E0DA
:1027B000DE01999601900D928A95E1F7CE0145963A
:1027C0000E94F66964E070E0CE0189960E94B13AF9
:1027D000FC01108101813280238063E070E0CE0132
:1027E00089960E94B13AFC0180809180A280B380DA
:1027F00062E070E0CE0145960E94B13AFC01C080D3
:10280000D180E280F38061E070E0CE0145960E94C5
:10281000B13AFC01408051806280738060E070E0DA
:10282000CE0145960E94B13AFC01408151816281FE
:1028300073812F923F920F931F9393018201CE01D8
:1028400001960E94763A60E0CE0101960E946D6981
:102850000F900F900F900F906091091570910A15CD
:1028600080910B1590910C150E9495D320E030E0DB
:1028700040E857E30E949BD420910515309106153E
:1028800040910715509108150E949BD40E945DD37A
:10289000A9966CAF7DAF8EAF9FAFA997CE018F5A2F
:1028A0009F4F0E94F66984E1FE01EF5AFF4FDE015F
:1028B000DD9601900D928A95E1F760E070E0CE011F
:1028C000CD960E94B13AFC01C080D180E280F380B5
:1028D00060E070E0CE0189960E94B13AFC018081EF
:1028E0009181A281B381A7019601281B390B4A0B64
:1028F0005B0BCA01B9010E9495D32091AB143091B2
:10290000AC144091AD145091AE140E94AFD22B0183
:102910003C0161E070E0CE01CD960E94B13AFC012D
:10292000C080D180E280F38061E070E0CE018996C2
:102930000E94B13AFC0180819181A281B381A701FB
:102940009601281B390B4A0B5B0BCA01B9010E9487
:1029500095D32091D8143091D9144091DA14509124
:10296000DB140E94AFD24B015C0162E070E0CE014B
:10297000CD960E94B13AFC01C080D180E280F38004
:1029800062E070E0CE0189960E94B13AFC0180813C
:102990009181A281B381A7019601281B390B4A0BB3
:1029A0005B0BCA01B9010E9495D3209105153091A6
:1029B000061540910715509108150E94AFD26B0182
:1029C0007C01A3019201C301B2010E949BD42B019F
:1029D0003C01A5019401C501B4010E949BD49B0157
:1029E000AC01C301B2010E9427D24B015C01A701D7
:1029F0009601C701B6010E949BD49B01AC01C501A1
:102A0000B4010E9427D20E940ED52B013C01809177
:102A10003506882329F18091980681110AC064E067
:102A200070E0CE0189960E94B13A8C0163E070E0BB
:102A300009C063E070E0CE0189960E94B13A8C0132
:102A400064E070E0CE0189960E94B13AFC01808179
:102A50009181A281B381F80180839183A283B383A2
:102A6000B090D5151092D5156091091570910A1581
:102A700080910B1590910C150E9495D320E030E0C9
:102A800040E857E30E949BD420E030E040E852E465
:102A90000E949BD40E945DD36B018301720120E0F0
:102AA000A9964CAD5DAD6EAD7FADA997CE0189966F
:102AB0000E946A6CB092D515C859DF4F0FB6F894D2
:102AC000DEBF0FBECDBFDF91CF911F910F91FF9061
:102AD000EF90DF90CF90BF90AF909F908F907F90BE
:102AE0006F905F904F903F902F900895EF92FF92DC
:102AF0000F931F93CF93DF9328E0829FC00111248F
:102B0000FC01E659F94FF08001811281D381C48123
:102B1000B581E680E7812F2D302F412F5D2F6C2F5F
:102B20007B2F8E2D9E2FA0E00E949CD754F40E94F4
:102B300010D7F22E032F142FD52FC62FB72FE82E24
:102B4000E92F2F2D302F412F5D2F6C2F7B2F8E2DB6
:102B50009E2FDF91CF911F910F91FF90EF900895DD
:102B60006F927F928F929F92AF92BF92CF92DF929D
:102B7000EF92FF920F931F93CF93DF93C82F0E9482
:102B8000761559016A017B013C01A0E00E949CD7A7
:102B900009F00CF449C088E0C89FE00111244E01FF
:102BA00088E4881A8EEF980A00E010E020E030E018
:102BB00040E050E060E070E0C4010E94F6938301C1
:102BC0000E9475D789019A01AB01BC01C4010E9422
:102BD0004894DE01A65AB94FFE01E659F94F8081AB
:102BE0008C93818111968C931197828112968C938C
:102BF0001297838113968C931397848114968C93E8
:102C00001497858115968C931597868116968C93CB
:102C10001697878117968C931082118212821382E5
:102C20001482158216821782DF91CF911F910F9126
:102C3000FF90EF90DF90CF90BF90AF909F908F90DC
:102C40007F906F90089580E00E94B01581E00C9411
:102C5000B015EF92FF920F931F93CF93DF9328E06D
:102C6000829FC0011124FC01E65AF94FF0800181D6
:102C70001281D381C481B581E680E7812F2D302F69
:102C8000412F5D2F6C2F7B2F8E2D9E2FA0E00E9459
:102C90009CD754F40E9410D7F22E032F142FD52F57
:102CA000C62FB72FE82EE92F2F2D302F412F5D2F64
:102CB0006C2F7B2F8E2D9E2FDF91CF911F910F9127
:102CC000FF90EF900895CF92DF92EF92FF9280E015
:102CD0000E942916E42F43E0B9018E2F952F0E9400
:102CE000E3676B017C0181E00E942916642F44E0B8
:102CF000732F862F952F622F0E94E3679B01AC01F3
:102D0000C701B6010E9427D26B017C0180E00E94BE
:102D10007615642F43E0732F862F952F622F0E9424
:102D2000E3679B01AC01C701B6010E9427D26B018A
:102D30007C0181E00E947615642F44E0732F862F7A
:102D4000952F622F0E94E3679B01AC01C701B6017A
:102D50000E9427D2FF90EF90DF90CF9008950F93BD
:102D60001F93CF93DF93D82F00E416E0C0E0F80163
:102D7000808181110FC08C2F0E945B6FF8018083CE
:102D8000DD2321F08C2F0E94616F04C064E18C2F41
:102D90000E94566FCF5F0F5F1F4FC53041F7DF9125
:102DA000CF911F910F9108950F931F93CF9300E43C
:102DB00016E0C0E0F80160818C2F0E94566FF80188
:102DC00011928F01CF5FC530A9F7CF911F910F915D
:102DD00008950F931F93CF93DF93CDB7DEB7699715
:102DE0000FB6F894DEBF0FBECDBF80919706853435
:102DF00009F400C190F5813409F456C0B8F480326A
:102E000009F4C5C1803409F43FC0823009F0F4C12F
:102E10000E943410609195067091960621E040E082
:102E200087E199E00E949E3481E051C0833409F427
:102E300045C008F04FC0CE0106960E94F66984E1B5
:102E4000FE013696AFE7B6E001900D928A95E1F764
:102E500081E00E949C1183E43AC0843809F460C187
:102E600050F4813809F43EC1833809F44AC18038EE
:102E700009F0C2C1EAC0863809F46BC108F45FC129
:102E8000873809F46BC1B8C10E94492B853029F0FD
:102E90000E94492B843009F091C181E48093970608
:102EA00081E00E94AF16A8C18091380C9091370C38
:102EB000891B8F7009F0A0C182E409C08091380C91
:102EC0009091370C891B8F7009F096C184E4809330
:102ED000970692C181E00E94B81285E4809397061C
:102EE0000E94492B853039F00E94492B11E0843033
:102EF00019F010E001C011E045E069E479E1CE018C
:102F000001960E94BFCBCE0101960E940DCC80930A
:102F10003F0680E00E94D1358091A50A882329F0E0
:102F20008091620A9091630A04C08091900A909106
:102F3000910A90934606809345068091240B88233E
:102F400029F08091E10A9091E20A04C080910F0B70
:102F50009091100B90934806809347068091380A11
:102F6000882329F08091F5099091F60904C0809199
:102F7000230A9091240A90934A06809349068091EF
:102F80009406811123C160E08EEF9FE00E9422939E
:102F9000882309F41BC180919406882351F021E015
:102FA00040E060E080E00E94A17560E088EF0E9450
:102FB000266F60919506709196066115710569F00E
:102FC0008091A608811105C0111103C086EA93E122
:102FD00002C081E993E141E00AC0111103C086EA11
:102FE00093E102C081E993E141E062E573E10E946F
:102FF000001002C18091380C9091370C891B8F70A2
:1030000009F0FAC00E94D4168091A608882311F016
:1030100080E209C08091950690919606892B11F463
:1030200081E001C082E0809397060E9434100E94E4
:10303000492B853009F4E0C00E94492B843009F403
:10304000DBC087E00E94003AD7C080E00E94AF1644
:1030500000914F06109150060115110521F40091C1
:10306000490610914A061016110654F460E087EEE6
:1030700099E00E94FD97B80187EE99E00E94CA96F8
:1030800000914B0610914C060115110521F4009199
:103090004506109146061016110654F460E084E5CA
:1030A0009AE00E94FD97B80184E59AE00E94CA96D2
:1030B00000914D0610914E060115110521F4009165
:1030C0004706109148061016110654F460E083ED8F
:1030D0009AE00E94FD97B80183ED9AE00E94CA969B
:1030E00081E8F5CE8091490690914A061816190696
:1030F0000CF06FC087EE99E00E949A97811169C029
:103100007BC08091450690914606181619060CF072
:1031100062C084E59AE00E949A9781115CC06CC0FD
:1031200081E00E94AF1680E00E94B81285E880938B
:10313000970641E06DE373E18CE793E158CF80910E
:10314000380C9091370C891B8F7009F055C086E8B8
:10315000BECE80E00E949C1187E8B9CE8091380CE9
:103160009091370C891B8F7009F046C080913F0603
:103170000E94D1350E94D4160E94341010929706F6
:1031800010929606109295061092A50835C00E94DE
:103190003410609195067091960621E040E087E139
:1031A00099E00E949E340E94FF3B10929606109276
:1031B00095061092A608109297061EC041E067E699
:1031C00073E186EA93E10E94001067CE0E94EF0F40
:1031D000E2CE83E87CCE809147069091480618168F
:1031E000190634F483ED9AE00E949A97882321F01F
:1031F0000E94D41684E86BCE69960FB6F894DEBFB1
:103200000FBECDBFDF91CF911F910F9108958F9287
:103210009F92AF92BF92CF92DF92EF92FF92CF93A5
:10322000C0910102C53609F453C0CC2309F450C043
:10323000F0903A06CF1509F44BC0FF2009F448C0BE
:103240006091360670913706809138069091390664
:103250006115710581059105D9F10E9493D34B0148
:103260005C018C2F90E08F199109BC01990F880B9C
:10327000990B0E9495D39B01AC01C501B4010E943A
:10328000AFD26B017C016C2F70E080E090E00E9477
:1032900093D39B01AC0160E070E088EC92E40E9463
:1032A00026D29B01AC01C701B6010E949BD46B01E1
:1032B0007C0120E030E0A9010E94AAD287FF03C070
:1032C000C12CD12C7601C701B6010E945DD303C089
:1032D00060E070E0CB01CF91FF90EF90DF90CF9056
:1032E000BF90AF909F908F900895FC01848195814D
:1032F000860F971F608171810E9471D52681378169
:10330000820F931F08951F93CF93DF93EC012A81BF
:103310003B81888199812817390770F4162F6A81BB
:103320007B81CE010E947519FC0110838A819B81EB
:1033300001969B838A8302C081E08887DF91CF91C9
:103340001F910895682F89E996E00C948319CF9313
:10335000DF93EC018A819B81892B21F481E08987AD
:1033600080E017C060E070E0CE010E947519FC019A
:103370002C813D81C9010196688179810E9471D5B6
:103380009D838C832A813B81215031093B832A8391
:103390008081DF91CF91089589E996E00C94A71977
:1033A000CF9389E996E00E94A719C82F89E996E092
:1033B0000E94A719982F8C2FCF9108951F93CF9318
:1033C000DF931F921F92CDB7DEB789E996E00E9486
:1033D000A719682F89E996E06A830E94A719782FB8
:1033E00089E996E079830E94A719182F89E996E068
:1033F0000E94A719982F6A817981812F0F900F90D1
:10340000DF91CF911F910895CF92DF92EF92FF92BB
:103410001F93CF93DF93C82F61E070E089E996E0B6
:103420000E947519FC011081CF3F09F01C2F62E04A
:1034300070E089E996E00E947519FC0180818D3069
:1034400009F476C048F48C3008F05FC0843008F08E
:10345000C5C0833071F00BC0873109F44CC020F433
:10346000803108F4BBC003C08F3109F46DC010E097
:10347000C9C064E070E089E996E00E947519FC011A
:10348000C081EC2EF12C65E070E089E996E00E94A5
:103490007519FC019081C92FD0E0DC2FCC27CE0D0F
:1034A000DF1D209719F40E94231614C0E12EF12C81
:1034B0006701CC0CDD1CF601E55BF94F8081918141
:1034C000892B09F08DC060E08DEF9FE00E94229370
:1034D000811186C0113019F08CE39AE002C08BEBA9
:1034E0009AE0BE0148960E94CA9680914B0B8E7F4F
:1034F00080934B0B73C00E946A1091E0811190E0A1
:1035000060E0892F0E94A82C69C064E070E089E91E
:1035100096E00E947519FC0160816170113019F00C
:103520008CE39AE002C08BEB9AE00E940D9556C0A6
:1035300064E070E089E996E00E947519FC018081E1
:1035400081700E94D1354AC00E940128182F88231B
:1035500009F444C064E070E089E996E00E947519BE
:10356000FC01C081EC2EF12C65E070E089E996E069
:103570000E947519FC019081C92FD0E0DC2FCC2767
:10358000CE0DDF1D2097D1F080914F06909150060F
:10359000892B39F460E08DEF9FE00E94229388230D
:1035A00069F080914F0690915006009731F464E6DF
:1035B00070E08CE591E00E943293EC01BE0187EE51
:1035C00099E00E94CA9661E087E199E00E94CC35BB
:1035D00080914B0B8E7F80934B0B14C011E012C077
:1035E000F601E55BF94F80819181009749F4C701AD
:1035F000880F991F66EE70E0885A9E4F0E943293A2
:10360000EC0168CF812FDF91CF911F91FF90EF9058
:10361000DF90CF9008952F923F924F925F926F92DA
:103620007F928F929F92AF92BF92CF92DF92EF9252
:10363000FF920F931F93CF93DF93CDB7DEB7C7559C
:10364000D1090FB6F894DEBF0FBECDBF0E949E3BDE
:103650008823B9F080919B0690919C062091990651
:1036600030919A062817390751F10E94ED3B8823C3
:1036700031F10E94F03B682F89E996E00E9483199E
:10368000E9CF0E947E73882309F446C080919B068F
:1036900090919C062091990630919A062817390737
:1036A00009F460C50E948C73882309F45BC50E94ED
:1036B0009A73682F89E996E00E948319E7CF0E94E8
:1036C000ED3B811129C080910202882309F440C595
:1036D0009091970691113CC591E09093A608813096
:1036E00009F02EC585E39BE190939606809395069D
:1036F0000E94EF0F60E08FEF0E94266F10929C06F1
:1037000010929B0610929E0610929D061092A106A2
:103710001092A2060E948C2C80917B0690917C06D0
:10372000A0917D06B0917E06892B8A2B8B2B19F1F7
:1037300080917A0681111FC0CE0101960E94F66920
:1037400062E070E0CE0101960E94AA3ADC014D9140
:103750005D916D917C9180917B0690917C06A0910A
:103760007D06B0917E06481759076A077B071CF44F
:1037700081E080937A0680917B0690917C06A091EF
:103780007D06B0917E06892B8A2B8B2B79F1809157
:103790007A06882359F10E946A10811127C0CE0150
:1037A00001960E94F66962E070E0CE0101960E94E7
:1037B000AA3AFC01408151816281738180917B062C
:1037C00090917C06A0917D06B0917E06481759071E
:1037D0006A077B075CF060E070E0CB010E9482101A
:1037E00060E081E00E94A82C0C94E62410919706DA
:1037F000123020F00E94E9160C94E6241130F9F4FE
:103800008091940681110C94E62480919306811195
:103810000C94E62483EA99E00E9477CF882311F480
:103820000C94E624109394060E94EF0F21E040E0F0
:1038300060E080E00E94A17560E088EFB4C48091F0
:103840003406833071F40E946368882341F088E273
:1038500096E00E9477CF882321F00E94E5721092B3
:1038600034068091A5088823E1F08091A40888237C
:10387000C1F0809134068330A1F0809197068111C8
:1038800010C00E946A1081110AC087E598E19093E8
:1038900096068093950661E081E00E94A82C109224
:1038A000A50880913406813031F40E94636881114B
:1038B00002C01092340680913406823039F48EE2D0
:1038C00096E00E9477CF81111092340680913406E1
:1038D000843009F052C082E296E00E9477CF8823BC
:1038E00049F020E040E06DE07AE187E199E00E9454
:1038F0009E3420C080919806813019F08CE39AE0C4
:1039000002C08BEB9AE048960E94C697811115C0C1
:1039100080913506882371F080919806882319F0EC
:103920008CE39AE002C08BEB9AE048960E94C6971F
:10393000811123C01092340620C0809198068130F6
:1039400019F08CE39AE002C08BEB9AE048960E9453
:103950009A97882391F080913506882359F38091B6
:103960009806882319F08CE39AE002C08BEB9AE06A
:1039700048960E949A978111DDCF80913406853058
:10398000E1F482E296E00E9477CF882349F020E0BC
:1039900040E068ED79E187E199E00E949E3406C439
:1039A00087EE99E00E94C697882309F4FFC387EE4B
:1039B00099E00E949A978111F9C38091340686306C
:1039C00091F58CE196E00E9477CF882391F0809169
:1039D0001A0681FF06C060E087E199E00E94E037A7
:1039E00022C01092340680914B0B8F7E80934B0B3C
:1039F0001AC08BEB99E00E947D9C8823A1F08091F6
:103A00001A0682FF04C08BEB99E00E94119B0E9472
:103A1000C13780914B0B8F7E80934B0B8FEF0E94B1
:103A2000797610923406809134068111CFC7809147
:103A30009B0690919C06892B09F4C8C787E199E001
:103A40000E94A73460E070E089E996E00E94751951
:103A5000DC011C911B3809F4ACC31E3809F43FC6C5
:103A60001B3909F4CDC4193809F48AC3163809F48E
:103A70009FC71C3809F44EC70DE7010F1C3909F424
:103A8000B6C0103909F4B3C0023008F4B0C0183819
:103A900009F4ADC0143941F480919B0690919C06C5
:103AA000059708F493C708C0163909F4A0C00E940E
:103AB000DD5181112DC08AC70E94CC190E94CC19FA
:103AC00080931B060E94D0198C010E94CC19809310
:103AD0001A060115110571F0D80120E432E44FE017
:103AE00050E00E94F1D5AB01BC018CE196E00E9450
:103AF00043CF6CC0CE0101960E9440CF86E0FE010C
:103B00003196ACE1B6E001900D928A95E1F75EC086
:103B1000153809F42DC4153909F069C080919B0648
:103B200090919C06069708F451C70E94CC190E94F8
:103B3000CC19182F0E94CC19E82E0E94CC19082FFE
:103B40000E94CC19F82E10FD04C083E499E00E9475
:103B50000FBFE09246090093470969E976E083E4E4
:103B600099E00E9498C811FF31C7E091D509EE0F86
:103B7000FF0BE953F64F808191818354994009F4FA
:103B800010C463E479E08BEB99E00E94559A1470BD
:103B9000F1100CC4112309F419C7FF2009F40EC455
:103BA000AF2DB0E020E432E44FE050E00E94F1D5C8
:103BB000AB01BC018CE196E00E9443CF81E0809391
:103BC0001B0680911A06847080931A060E94B737EC
:103BD00060911B068BEB99E00E947A9C80914B0BC5
:103BE000806180934B0B86E080933406EFC60230F1
:103BF00060F580919B0690919C06089708F4E6C6B4
:103C00000E94CC190E94CC19082F0E94DE196B016A
:103C10007C010E94D01923E020933406DC0120E4CB
:103C200032E44FE050E00E94F1D5AB01BC0188E2E4
:103C300096E00E9443CF81E0143809F080E0A701AC
:103C40009601602F0E946F6EC1C6173829F58091CA
:103C50009B0690919C06069708F4B8C684E0809372
:103C6000340681E08093A4080E94CC190E94CC19EC
:103C7000809398060E94D0190E94D019DC0120E49C
:103C800032E44FE050E00E94F1D5AB01BC0182E28A
:103C900096E00E9443CF9AC61D3891F480919B060E
:103CA00090919C06069708F491C685E080933406AF
:103CB00081E08093A4080E94CC190E94CC19DACF2D
:103CC0001F3809F03FC080919B0690919C06029797
:103CD00008F47CC60E94CC190E94CC19C82ECE01D3
:103CE00001960E94F6690EE010E0E12CF12CD12C37
:103CF000C6010E2C02C0959587950A94E2F780FFC5
:103D000017C0B701CE0101960E94B13AFC01808133
:103D10009181A281B3818D8B9E8BAF8BB88FF894EC
:103D200044E050E0B801CE0145960E9435D8789421
:103D3000FFEFEF1AFF0A0C5F1F4F25E0E216F104B8
:103D4000B9F644C6103909F05FC080919B06909186
:103D50009C06029708F43AC60E94CC190E94CC191E
:103D6000C82ECE0101960E94F6690EE010E0E12C0B
:103D7000F12CD12CC6010E2C02C0959587950A9482
:103D8000E2F780FF0CC0F894B701CE0101960E94C3
:103D9000B13A44E050E0B8010E9411D878943FEF66
:103DA000E31AF30A0C5F1F4F43E0E416F10411F726
:103DB00063E070E0CE0101960E94B13AFC0180817F
:103DC0009181A281B3818093520690935306A09370
:103DD0005406B093550664E070E0CE0101960E944F
:103DE000B13AFC0180819181A281B3818093560612
:103DF00090935706A0935806B093590661E0CE0100
:103E000001960E946D69E2C5113999F480919B0673
:103E100090919C06039708F4D9C50E94CC190E9482
:103E2000CC19182F0E94CC19682F812F0E94566F31
:103E3000CDC5123921F580919B0690919C0606977D
:103E400008F4C4C50E94CC190E94CC19182F0E94F6
:103E5000CC1966968FAF66970E94CC1965968FAF86
:103E600065970E94CC190E94CC1965964FAD659755
:103E700066966FAD6697812F0E94EB76A7C51339C2
:103E8000B1F480919B0690919C06069708F49EC51C
:103E90000E94CC190E94D0198C010E94D0197C017B
:103EA0000E94CC19B701C8010E949F398FC51838EC
:103EB00009F062C080919B0690919C06049708F4DB
:103EC00085C563E070E089E996E00E94751920914C
:103ED0009B0630919C06DC01EC90F12CB4E0EB0EDB
:103EE000F11C2E153F0508F471C580913506882315
:103EF00039F080910002882319F01092000203C06B
:103F000081E08093000262E070E089E996E00E941F
:103F10007519FC018081833059F062E070E089E915
:103F200096E00E947519DC018C918C3009F01CC25E
:103F30008091000281110DC061E070E089E996E096
:103F40000E947519FC0181E09081992319F080E0AD
:103F500001C08FEF0E94041A80910002882309F4A7
:103F600035C510E0812F90E08E159F0508F02EC515
:103F70000E94CC191F5FF6CF163909F041C080911D
:103F80009B0690919C06039708F420C50E94CC19CB
:103F90000E94CC19809301020E94CC1980910102E9
:103FA0008823F1F080913B0690913C06A0913D065C
:103FB000B0913E06892B8A2B8B2B91F480913A0687
:103FC00081110EC00E94A32B60933B0670933C06A8
:103FD00080933D0690933E068091010280933A06BD
:103FE00080910102882309F4F1C40E94A32B6093FD
:103FF0003606709337068093380690933906E6C4E8
:104000001739B9F480919B0690919C060297B8F1FC
:104010000E94CC190E94CC19811102C084E006C014
:10402000813019F40E94003A2AC082E00E943B3A93
:1040300026C0183999F480919B0690919C060297AE
:1040400008F4C4C40E94CC190E94CC190E94FF2617
:1040500060E087E199E00E94E037B8C4193991F433
:1040600080919B0690919C06059708F4AFC40E942E
:10407000CC190E94DE1989E996E00E94FD2F10926A
:10408000A408A4C41A3971F480919B0690919C06EF
:10409000029708F49BC40E94CC190E94CC190E947C
:1040A000062CEDCF1C3999F480919B0690919C06CB
:1040B000029708F48BC40E94CC190E94CC1991E09D
:1040C000813009F090E0892F0E94666F7FC41D390E
:1040D000A1F480919B0690919C06459708F476C4C4
:1040E0000E94DE190E94DE190E94DE190E94DE196C
:1040F0000E94DE190E94CC1969C41E3909F066C4F9
:1041000080919B0690919C06059708F45FC40E94DD
:10411000CC190E94DE196B017C012FE632E143E8E5
:104120005AE30E94AAD287FF03C0C12CD12C76018A
:1041300042E0C701B6010E94FC670E94821046C49B
:104140008B3019F484ED9AE1CFCA82E29BE1CCCAAC
:104150008091950690919606892B09F0DDCA0E9400
:10416000FF3BDACA0E948C738111D6CA80919B06EC
:1041700090919C06892B09F0CFCA0E94D573CCCAB6
:1041800080919B0690919C06029708F41FC40E94A0
:10419000CC190E94CC199091350691111DC1682F40
:1041A000661F6627661F0E94266F10C41092340691
:1041B00004CC80919B0690919C06499708F406C414
:1041C0000E94CC1981E0809334060E94DE196D8F25
:1041D0007E8F8F8F98A30E94DE1969A37AA38BA389
:1041E0009CA30E94DE196DA37EA38FA398A70E94B3
:1041F000DE194B01382E292E0E94DE192B013C01BD
:104200000E94DE1969A77AA78BA79CA78091350623
:10421000882359F080919806882321F04201362C9A
:10422000272C03C02401632C722C8092520690929A
:10423000530630925406209255068091560690916E
:104240005706A0915806B091590693018201081BA8
:10425000190B2A0B3B0BD901C80168017901FF0C2E
:10426000CC08DC2C76019801AD016C2D7C2D8C2DB9
:104270009C2DA0907206B0907306C0907406D090EA
:104280007506E0907606F09077060091780610911A
:1042900079060E9475D72093720630937306409377
:1042A0007406509375066093760670937706809334
:1042B000780690937906409256065092570660927F
:1042C0005806709259060E94E00F7F926F925F929B
:1042D0004F92A32CB22CCDA0DEA0EFA0F8A409A190
:1042E0001AA12BA13CA14D8D5E8D6F8D78A1CE01C1
:1042F00001960E94763AE12C00E010E0980149A571
:104300005AA56BA57CA527C00E94E00FBDA5BF9351
:10431000E9A5EF936F92FDA1FF93AD8CB9A0229612
:10432000CCACDDACEEACFFAC22970AAD1BAD2CAD36
:104330003DAD4EA95FA968AD79ADCE0101960E9451
:10434000763AE72C26960CAD1DAD2EAD3FAD2697E7
:1043500040E050E0BA01CE0101960E941D6B0F9023
:104360000F900F900F9032C381E080930002E0CD58
:1043700080919B0690919C06059708F427C382E0E4
:10438000809334060E94CC190E94DE199B01AC0177
:10439000A8EEB3E00E94F1D5AB01BC018EE296E03D
:1043A00078CC83E499E00E944EBFF1CB1111F2CB9F
:1043B0006F2D83E499E00E943EBF08C3CE010196B1
:1043C0000E9440CF86E0FE013196ACE1B6E001905C
:1043D0000D928A95E1F7F2CB90919806911107C062
:1043E000982F9F7E83FF0AC0892F8061D8CE982F97
:1043F000977F84FF03C0892F8860D1CE892FCFCECD
:1044000080919B0690919C06809708F4DFC20E94E1
:10441000CC1981E0809334060E94DE1922966CAF9D
:104420007DAF8EAF9FAF22970E94DE1926966CAFAC
:104430007DAF8EAF9FAF26970E94DE192A966CAF94
:104440007DAF8EAF9FAF2A970E94DE1969A37DA32F
:1044500089A79DA70E94DE196EA778AB8AAB9EAB99
:104460000E94DE192E966CAF7DAF8EAF9FAF2E9758
:104470000E94CC19182F0E94DE1962966CAF7DAF96
:104480008EAF9FAF62970E94D01964969FAF8EAF98
:10449000649780913506811103C01F771D8F35C049
:1044A00080919806811110C0012F0F760D8F13FF98
:1044B0001BC000610D8F19A11EA72DA128AB39A526
:1044C0003AAB4DA54EAB21C0512F57775D8F14FFEE
:1044D00014C058605D8F8EA589A398A99DA3AAA931
:1044E000A9A7BEA9BDA711C0E9A1EEA7FDA1F8AB80
:1044F00009A50AAB1DA51EAB08C02EA529A338A986
:104500003DA34AA949A75EA95DA789A18D8B9DA15D
:104510009E8BA9A5AF8BBDA5B88FEEA5E98FF8A995
:10452000FA8F0AA90B8F1EA91C8FEAE6F6E02E016E
:1045300025E1420E511CA2E5B6E06896BFAFAEAFD2
:1045400068971BAE1AAEBD8D2B2E312C8AAD9BAD5C
:104550000396810102C0159507958A95E2F7D2016D
:104560006D907D908D909C9000FF31C0740163012F
:10457000FF0CCC08DC2C76019301A4016C2D7C2D62
:104580008C2D9C2DA080B180C280D380E480F580EA
:10459000068117810E9475D720833183428353831C
:1045A00064837583868397836896AEADBFAD689745
:1045B0004D915D916D917C911397460D571D681D2E
:1045C000791D4D935D936D937C93139734C06896DA
:1045D000AEADBFAD68974D915D916D917C91139794
:1045E00094018301041B150B260B370BC901B8017D
:1045F00068017901FF0CCC08DC2C76019B01AC0131
:104600006C2D7C2D8C2D9C2DA080B180C280D38000
:10461000E480F580068117810E9475D7208331835D
:104620004283538364837583868397836D927D92DF
:104630008D929C9213973896B4E04B0E511C68965D
:10464000AEADBFAD689714966896BFAFAEAF689732
:10465000AAADBBAD119729F0A1E0B0E0BBAFAAAF06
:1046600075CF0E94E00F7090D515BD8D7B2AEEA905
:10467000EF93FAA9FF9308A90F931EA51F9389A092
:104680009DA0A9A4BDA42A96CCACDDACEEACFFAC39
:104690002A9726960CAD1DAD2EAD3FAD26972296DE
:1046A0004CAD5DAD6EAD7FAD2297CE0101960E94FF
:1046B000763A6496CEACDFAC64976296ECACFDAC17
:1046C0000EAD1FAD6297272D2E964CAD5DAD6EAD34
:1046D0007FAD2E97CE0101960E946A6C40CE8091EC
:1046E0009B0690919C064A9708F470C10E94CC19D1
:1046F00081E0809334060E94DE196EAB7FAB88AFF9
:1047000099AF0E94DE196AAF7BAF8CAF9DAF0E945C
:10471000DE1922966CAF7DAF8EAF9FAF22970E94BD
:10472000DE194B018D8F99A30E94DE196DA3672EB0
:1047300089A79DA70E94DE1926966CAF7DAF8EAF2C
:104740009FAF26970E94CC19782E8091350688233A
:1047500069F18091980681110DC0872D8F7E73FEBF
:1047600016C08061782E8DA2692C1D8D19A729A1F4
:104770002DA71CC0872D877F74FE11C08860782EFE
:104780008DA0962C39A53D8F4DA549A30FC0782E3D
:104790008DA2692C5D8D59A789A18DA707C0782EA0
:1047A0008DA0962C99A59D8FADA5A9A38D8A9E8AD3
:1047B000BD8DBF8BE9A1E88FFDA1F98F6A8E09A598
:1047C0000B8F1DA51C8FEAE6F6E0DE015596BFA70C
:1047D000AEA7A2E5B6E02C96BFAFAEAF2C9719AA54
:1047E00018AAA72DB0E02896BFAFAEAF289788A92A
:1047F00099A903962896AEADBFAD289702C0B5958E
:10480000A7958A95E2F7CD01AEA5BFA52D903D9065
:104810004D905C9080FF31C072016101FF0CCC08AB
:10482000DC2C76019101A2016C2D7C2D8C2D9C2D10
:10483000A080B180C280D380E480F580068117819A
:104840000E9475D7208331834283538364837583A9
:10485000868397832C96AEADBFAD2C974D915D911D
:104860006D917C911397420D531D641D751D4D93E1
:104870005D936D937C93139734C02C96AEADBFAD12
:104880002C974D915D916D917C91139792018101CF
:10489000041B150B260B370BC901B8016801790100
:1048A000FF0CCC08DC2C76019801AC016C2D7C2D22
:1048B0008C2D9C2DA080B180C280D380E480F580B7
:1048C000068117810E9475D72083318342835383E9
:1048D00064837583868397832D923D924D925C927B
:1048E00013973896AEA5BFA51496BFA7AEA72C9672
:1048F000AEADBFAD2C9714962C96BFAFAEAF2C9734
:10490000A8A9B9A9119709F4FFCCA1E0B0E0B9AB0F
:10491000A8AB6DCF80919B0690919C06459708F4BB
:1049200055C00E94CC190E94DE192B013C010E9447
:10493000DE196D8F7E8F8F8F98A30E94DE196B0119
:104940007C010E94DE194B015C010E94DE1920915E
:104950003506222349F020919806222319F04B01B5
:104960005C0102C0B401C5018092520690925306C8
:10497000A0925406B092550660935606709357065F
:1049800080935806909359069F938F937F936F93CC
:104990000D8D1E8D2F8D38A1B301A201CE01019680
:1049A0000E94763A60E0CE0101960E946D69D7CCF4
:1049B00080919B0690919C06029740F00E94CC1932
:1049C0000E94CC19809398060E94696FC95ADF4FE4
:1049D0000FB6F894DEBF0FBECDBFDF91CF911F9110
:1049E0000F91FF90EF90DF90CF90BF90AF909F908E
:1049F0008F907F906F905F904F903F902F90089591
:104A000040E067E479E187EA98E00E94BFCBE9E9FA
:104A1000F6E080E092E09183808313821282158217
:104A2000148283EA96E097838683108611868FE747
:104A300096E00E94753A8EE296E00E9440CF88E2AE
:104A400096E00E9440CF82E296E00E9440CF8CE147
:104A500096E00C9440CFCF93DF931F921F92CDB777
:104A6000DEB721E0298322E32A8342E050E0BC0143
:104A7000CE0101960E9435D80F900F90DF91CF9113
:104A80000895CF93DF93EC0140E050E060EE70E4D6
:104A90000E94BC9346E656E666EA7EE3CE010296A5
:104AA0000E94BC9340E050E060E172E4CE010496C5
:104AB000DF91CF910C94BC93CF93DF93EC010A96D6
:104AC0000E944125CE0140960E944125CE014A9682
:104AD000DF91CF910C942B250F931F93CF93DF93EE
:104AE00000D0CDB7DEB78C0167E00E943FD861E00F
:104AF000C80102960E943FD88FEF89838A838B83F7
:104B0000B8016C5F7F4F43E050E0CE0101960E94F8
:104B100035D80F900F900F90DF91CF911F910F918B
:104B2000089567E080E491E00C942293682F80E47C
:104B300091E00C943FD80F931F93CF93DF9300D055
:104B40001F92CDB7DEB7082F162F68E080E491E002
:104B50004C830E943FD809831A834C814B8343E0E6
:104B600050E064E471E0CE0101960E9435D80F90C8
:104B70000F900F900F90DF91CF911F910F9108959B
:104B8000CF92DF92EF92FF92CF93DF936B017C0184
:104B9000EA01CA010E9455D8B701CE010496DF91FF
:104BA000CF91FF90EF90DF90CF900C9455D8AC014F
:104BB0006BE770E084EF91E00E94C0250895CF93E9
:104BC000DF93EC0166EE70E00E9455D866EE70E06F
:104BD000CE0102960E9455D864E670E0CE0104969C
:104BE0000E9455D865E0CE010696DF91CF910C94D6
:104BF0003FD861E08EE691E00E943FD868EE73E016
:104C000082E791E00E9455D868EE73E084E791E076
:104C10000E9455D866E970E086E791E00E9455D879
:104C200060ED77E088E791E00E9455D860ED77E08D
:104C30008AE791E00E9455D86FE070E08CE791E040
:104C40000E9455D86FE070E08EE791E00E9455D841
:104C50006AE070E080E891E00E9455D864E170E07D
:104C600082E891E00E9455D864E170E084E891E028
:104C70000E9455D844EF51E060E070E088ED91E08B
:104C80000E944DD84CE755E160E070E08CED91E07A
:104C90000E944DD860E170E080EE91E00E9455D80E
:104CA00060E170E082EE91E00E9455D860E08BE018
:104CB00092E00E943FD861E084EE91E00E943FD8EC
:104CC00060E888E891E00C943FD8CF93DF93CDB7AC
:104CD000DEB764970FB6F894DEBF0FBECDBF84E198
:104CE000EFEBF2E0DE01119601900D928A95E1F76B
:104CF00044E150E06EE070E0CE0101960E9435D8AC
:104D000064960FB6F894DEBF0FBECDBFDF91CF9192
:104D10000895CF92DF92EF92FF920F931F93CF935C
:104D2000DF93CDB7DEB764970FB6F894DEBF0FBE42
:104D3000CDBF7C0128E0E3EDF2E0DE011D9601909D
:104D40000D922A95E1F74CE050E06EE070E0CE0164
:104D500001960E9411D86E018DE0C80ED11C87010A
:104D6000F12C48E050E0B801F601819191916F017A
:104D70000E9435D84CE050E0B801685F7F4FCE010B
:104D800001960E9435D866EE70E0C80144960E94F4
:104D900055D866EE70E0C80146960E9455D8F1E0FD
:104DA000FF1619F064E670E002C06DE270E0C80121
:104DB00048960E9455D8F394065E1F4F84E0F8127F
:104DC000D0CF6CEA8CEF9FE00E943FD864960FB67C
:104DD000F894DEBF0FBECDBFDF91CF911F910F9131
:104DE000FF90EF90DF90CF900895813009F082E03E
:104DF000682F82E490E00E943FD80C9465260F93C0
:104E00001F93CF93DF93CDB7DEB76D970FB6F894AE
:104E1000DEBF0FBECDBF85E0EBEDF2E0DE015596C3
:104E200001900D928A95E1F74BE050E062E270E06C
:104E30008BE393E00E9435D845E050E066E070E0F7
:104E4000CE0145960E9435D86FE984E090E00E943B
:104E50003FD86BE18CE090E00E943FD80E9465262D
:104E600084E99FE00E948926A89544E150E06CE81F
:104E700071E086E493E00E9435D844E150E064EAB2
:104E800071E08EE693E00E9435D844E150E064EF93
:104E900071E08AE593E00E9435D80E94F92581EC03
:104EA00093E29B8F8A8F84E193ED9D8F8C8F44E0FA
:104EB00050E064E470E0CE014A960E9435D880E06C
:104EC00091E00E945C258CE191E00E945C2500E06D
:104ED00010E020E030E040E050E060E070E088EC7E
:104EE00091E00E94489420E030E040E050E060E033
:104EF00070E080ED91E00E94489480E491E00E948F
:104F00006C258AE491E00E94D72588E591E00E9413
:104F1000DF2561E080E691E00E943FD860E08DEF00
:104F20009FE00E943FD860E08EEF9FE00E943FD854
:104F300060E08FEF9FE00E943FD861E082E99FE050
:104F40000E943FD860E081E99FE00E943FD880E066
:104F50000E94F52661E08CE490E00E943FD860E07A
:104F60008FE89FE00E943FD860E08EE89FE00E94BB
:104F70003FD888EC90E0A0E0B0E089839A83AB83CF
:104F8000BC8344E050E066E67FE08E010F5F1F4F78
:104F9000C8010E9435D863E084E69FE00E943FD8B4
:104FA00064E683E69FE00E943FD884E1F801119215
:104FB0008A95E9F744E150E069E47FE0C8010E9486
:104FC00035D860E080E99FE00E943FD860E088E447
:104FD0009FE00E943FD86D960FB6F894DEBF0FBEDB
:104FE000CDBFDF91CF911F910F91089561E082E4D1
:104FF00090E00E94229391E0823009F490E0892FA2
:10500000089561E08CE490E00E94229391E0813069
:1050100009F090E0892F0895CF93DF93CDB7DEB7E5
:105020002C970FB6F894DEBF0FBECDBF81E89CE091
:10503000A0E0B0E089839A83AB83BC831D821E828B
:105040001F82188619861A861B861C864CE050E043
:1050500062E671E0CE0101960E9435D82C960FB61B
:10506000F894DEBF0FBECDBFDF91CF9108950F93AF
:105070001F93CF93DF938C01EB0160E070E080EA37
:1050800091E00E943293F8019183808360E082EA8C
:1050900091E00E9422938883DF91CF911F910F911D
:1050A0000895CF93C62FBC0180EA91E00E9455D8A5
:1050B0006C2F82EA91E0CF910C943FD8FF920F932E
:1050C0001F93CF93DF9300D0CDB7DEB78C01F62EC0
:1050D000BE016D5F7F4FCE0101960E9437289B81F4
:1050E0002F2D290F822F6CE30E9465D59B832D33D2
:1050F00030F029813A81280F311D3A832983298193
:105100003A81692FC801820F931F0E9451280F9086
:105110000F900F90DF91CF911F910F91FF90089505
:105120000F931F9367E182E090E00E943FD880E0F8
:105130000E94F5260E940C2860E080E090E00E942A
:10514000512861E088E092E00E943FD800E010E042
:1051500020E030E040E050E060E070E088EB91E07B
:105160000E94489420E030E040E050E060E070E0D1
:1051700080EC91E00E9448941F910F910C94FF26BF
:1051800067E080E491E00E942293873041F061E083
:1051900082E491E00E94229391E0873009F490E04C
:1051A000892F089540E067E479E18CEA98E00C9457
:1051B000BFCBCF92DF92EF92FF920F931F93CF93CB
:1051C000DF93EC018881811102C080E034C08B0143
:1051D00060E0CE010E942BCB87FFF7CF0E949E3B61
:1051E000811104C00E947E73882331F06AE8C801EF
:1051F0000E9475CB81E01FC0F894E8800E94F50FF3
:10520000F12C8E159F0588F0C12CD12CCE14DF0413
:1052100054F46C2DCE010E942BCB0E94A2198FEF6B
:10522000C81AD80AF3CF61E801C062E8C8010E9439
:1052300075CB7894DFCFDF91CF911F910F91FF90C5
:10524000EF90DF90CF90089586E08093C10881E0D1
:105250008093B10808950F931F93CF93DF93CDB739
:10526000DEB765970FB6F894DEBF0FBECDBF8C01D9
:10527000F894BE016B5E7F4FCE0101960E948A6A50
:1052800061E8C8010E9475CB60E070E0CE01019634
:105290000E94AA3AFC014081518162817381C80158
:1052A0000E948CCB61E070E0CE0101960E94AA3A88
:1052B000FC014081518162817381C8010E948CCBC5
:1052C00062E070E0CE0101960E94AA3AFC014081A2
:1052D000518162817381C8010E948CCB0E94786FDA
:1052E000682FC8010E9475CB789465960FB6F89424
:1052F000DEBF0FBECDBFDF91CF911F910F910895FB
:105300000F931F93CF93DF93CDB7DEB765970FB69B
:10531000F894DEBF0FBECDBF8C01F894BE016B5E6A
:105320007F4FCE0101960E948A6A61E8C8010E94FF
:1053300075CB60E070E0CE0101960E94AA3AFC01B4
:105340004081518162817381C8010E948CCB61E0F0
:1053500070E0CE0101960E94AA3AFC014081518181
:1053600062817381C8010E948CCB62E070E0CE0143
:1053700001960E94AA3AFC014081518162817381A9
:10538000C8010E948CCB63E070E0CE0101960E94C0
:10539000AA3AFC014081518162817381C8010E9457
:1053A0008CCB64E070E0CE0101960E94AA3AFC0129
:1053B0004081518162817381C8010E948CCB0E941F
:1053C000786F682F70E0C8010E9477CB789465965B
:1053D0000FB6F894DEBF0FBECDBFDF91CF911F9106
:1053E0000F910895DF92EF92FF920F931F93CF9347
:1053F000DF93CDB7DEB7A0970FB6F894DEBF0FBE30
:10540000CDBF8C017B0161E8C7010E9475CB61E0D3
:10541000C8010E942BCB882321F00E94B83C811147
:105420002BC09E01205E3F4F40E050E06FE1CE0177
:1054300001960E94C93C89818E3249F488A1882353
:1054400081F38A818E3269F78B818111EACF60E026
:10545000C7010E9475CB8E010F5F1F4F8FE1D82EC1
:10546000D00EF80161918F01662351F0C7010E94AF
:1054700075CBD012F6CF04C0682FC7010E9475CB40
:1054800060E0C7010E9475CBA0960FB6F894DEBF0E
:105490000FBECDBFDF91CF911F910F91FF90EF9085
:1054A000DF9008958F929F92AF92BF92CF92DF923A
:1054B000EF92FF920F931F93CF93DF93CDB7DEB799
:1054C0008C015B018DB69EB661E00E9430CB6C0111
:1054D00063E0C8010E942BCB082F10E08DB79EB768
:1054E000801B910B0FB6F8949EBF0FBE8DBFEDB71A
:1054F000FEB731967F01A801B601CF010E9411D8F5
:1055000061E8C5010E9475CB6701C6018E199F092C
:10551000801791073CF4F60161916F01C5010E946B
:1055200075CBF3CF0FB6F8949EBE0FBE8DBEDF9144
:10553000CF911F910F91FF90EF90DF90CF90BF9090
:10554000AF909F908F9008952F923F924F925F92CD
:105550006F927F928F929F92AF92BF92CF92DF9283
:10556000EF92FF920F931F93CF93DF931F92CDB7CC
:10557000DEB76C015B012DB63EB661E00E9430CB18
:105580004C0163E0C6010E942BCB8983082F10E0F9
:105590008DB79EB7801B910B0FB6F8949EBF0FBEC0
:1055A0008DBFEDB7FEB731967F01A801B401CF01E1
:1055B0000E9411D83701412C512C4016510664F439
:1055C00064E0640DC6010E942BCBF30181933F017F
:1055D000FFEF4F1A5F0AF1CFDFB6F894A801B401CC
:1055E000C7010E9435D8DFBE61E8C5010E9475CBB6
:1055F0006981C5010E9475CB0FB6F8943EBE0FBEFF
:105600002DBE0F90DF91CF911F910F91FF90EF90E2
:10561000DF90CF90BF90AF909F908F907F906F90D2
:105620005F904F903F902F9008950F931F93CF93CB
:10563000DF938091E108811111C001EE18E0C2E210
:10564000D0E060E0CE010E942293F80181938F01A7
:105650002196C233D105A9F71092F1088091E10893
:1056600081110DC0E0EBF4E0A1EEB8E08CE08A0F10
:1056700094919D9331968A13FBCF1092ED0881EEA1
:1056800098E0DF91CF911F910F9108958091C1080B
:1056900008958091C008089587E199E00E94E93259
:1056A0006093BB087093BC088093BD089093BE08BC
:1056B00081E08093BF0808951092B7081092B8084F
:1056C0001092B9081092BA080C944C2B0F931F93A8
:1056D0008091BF08813089F487E199E00E94E93226
:1056E0000091BB081091BC082091BD083091BE0804
:1056F000601B710B820B930B03C060E070E0CB0169
:105700001F910F9108950F931F930E94662B009194
:10571000B7081091B8082091B9083091BA08DC0197
:10572000CB01800F911FA21FB31F8093B7089093E6
:10573000B808A093B908B093BA0882E08093BF0874
:105740001F910F9108950F931F930E94662B009154
:10575000B7081091B8082091B9083091BA08600FC5
:10576000711F821F931F1F910F9108958F929F9217
:10577000AF92BF92FF920F931F93CF93DF9320912D
:10578000BF0821110CC02091B5083091B608FC016A
:10579000318320838091B408FB0180831DC08B017D
:1057A000EC010E94A32B4B015C0120E13EE040E0B4
:1057B00050E00E9499D5F22E28833983C501B401A7
:1057C0002CE330E040E050E00E9499D5FCE3FF9EDE
:1057D00020191124F8012083DF91CF911F910F919F
:1057E000FF90BF90AF909F908F90089564EB78E00A
:1057F00085EB98E00E94B62B1092BF086091B40828
:105800008091B5089091B6080C945E280E94F62B02
:1058100060E088EF0E94266F81E00E94EF3580E013
:105820000E94D13582E08093C0081092C10808958B
:105830000097C1F028E0823C9207B1F0603208F096
:105840006EE1DC0142EC58E0FA012E2F241B2617F2
:1058500018F42D912193F9CFE62FF0E0EE53F74F96
:10586000108202C082EC98E00E94963D8930A9F037
:10587000811114C081E00E94EF350E9485110E94C1
:1058800045700E94E5721092F20882E08093C10890
:1058900080914B0B806880934B0B80E008951092B1
:1058A000F2080E94B673882319F085E08093C1083E
:1058B00080914B0B846080934B0B0E9485110E945A
:1058C000E5728FEF8093BE020895CF93C091C10817
:1058D000C13069F484E08093C10840E452E46FE091
:1058E00070E089EF98E00E9443CFC093B1080E9416
:1058F000F62B81E08093B30840E45DE063E070E064
:1059000083EF98E00E9443CF8FEF0E94797684E086
:105910008093C008CF91089585E08093C00881E00E
:105920008093F2080E94E57280914B0B8B77806226
:1059300080934B0B0E946A10811108C00E947B105B
:10594000811104C060E081E00C945A100C94652C25
:105950001F93CF93DF931F92CDB7DEB7182F6983C4
:105960000E946A1091E06981811101C090E01917CD
:10597000E9F069830E947B106981811117C0812F32
:105980000E945A10112349F083E08093C0080F90C1
:10599000DF91CF911F910C94832B81E08093C008FD
:1059A0000F90DF91CF911F910C944C2B0F90DF91B2
:1059B000CF911F910895EF92FF920F931F93CF9372
:1059C000DF93FC012081222309F4BAC0EB017C01A2
:1059D00061E00E942BCB082F62E0C7010E942BCB15
:1059E000182F61E8CE010E9475CB103209F447C030
:1059F00090F4123089F128F41111A2C064EC72E025
:105A00004AC0163199F11E3109F09AC06091F1092E
:105A10007091F20940C0133209F457C020F41132DA
:105A200009F445C08DC0143209F455C0153209F08F
:105A300087C040E050E0BA01CE010E948CCB40E02C
:105A400050E0BA01CE010E948CCB40E050E0BA0198
:105A5000CE010E948CCB72C0013019F0ECE3FAE069
:105A600002C0EBEBFAE062A173A115C0013019F09E
:105A70008CE39AE002C08BEB9AE0489628C0013094
:105A800071F0ECE3FAE0DF01A759BF4F8C91882356
:105A900049F066A177A1CE010E9477CB4FC0EBEB16
:105AA000FAE0F1CFEC5AFF4F60817181F4CF809121
:105AB000380A882329F06091F5097091F609EBCF37
:105AC0006091230A7091240AE6CF87EE99E00E9444
:105AD0009A97682F30C0013019F08CE39AE002C029
