:100000000C94D10F0C940C100C940C100C940C103C
:100010000C940C100C940C100C940C100C940C10F0
:100020000C940C100C940C100C940C100C940C10E0
:100030000C940C100C9411350C940C100C940C10A6
:100040000C940C100C940C100C940C100C940C10C0
:100050000C940C100C940C100C940C100C940C10B0
:100060000C940C100C94C6D10C940C100C94F2D17E
:100070000C940C100C94FD900C940C100C940C101F
:100080000C94E7340C940C100C940C100C940C1081
:100090000C9426D20C940C100C9452D20C940C108C
:1000A0000C940C100C940C100C940C100C940C1060
:1000B0000C940C100C940C100C940C100C943935FE
:1000C0000C940C100C940C100C940C100C940C1040
:1000D0000C940C100C940C100C940C100C940C1030
:1000E0000C940C10062E462E482E2E2E522E0B2F20
:1000F0000B2F2E2E7B2E0B2F892E8E2EA22EA72E6F
:100100000B2F0B2F5A2E2E2E762E0B2F142E562EF3
:10011000AC2EBF2EC62E0B2F0B2FEB2E2076F97593
:100120000476F675F37506761A7609761DB83AB830
:1001300047B870B88FB8A2B8B0B8E3B80C949C9F19
:100140000C9407A10C94E8A40C94C99B0C94FA9805
:100150000C9441B70C946AA40C94BBCD0C9426D09B
:100160000C941EB10C94FDCF0C9409760C944FCADC
:100170000C9492BE0C94F6750C9414A10C94F09F00
:100180000C9410A10C941A760C947FBD0C941DA0B5
:100190000C94B9AC0C946B760C94D8C50C94C89F95
:1001A0000C9478A70C941BAF0C9427750C9413A097
:1001B0000C943BA10C949AB30C94DCC60C942EA125
:1001C0000C94E6B10C945EB40C94B0A10C94DDCD0B
:1001D0000C94EB9F0C94927E0C9442990C9402AE7A
:1001E0000C94D6A00C9436A10C9469B20C9447766A
:1001F0000C94E0A60C94ACA50C94AF9F0C94DCCEB0
:100200000C940B2F0C9421D80C94DBA90C94F59F23
:100210000C94B49F0C948CB40C94AACF0C9485C607
:100220000C946F760C945A2E0C94EB760C949DA43F
:100230000C946A940C94BFC70C943AC80C9453B4B1
:100240000C944FA10C94EB2E0C94A22E0C941DB880
:100250000C94B0B80C94C62E0C94C4D00C94A1A8E5
:100260000C94E19F0C94A2B80C94B2CF0C94062E7F
:100270000C9459310C947B2E0C9404760C94867655
:100280000C945EAB0C9439D10C947D8E0C948CC67E
:100290000C94FA9F0C9457AA0C94462E0C943AB8DE
:1002A0000C9405A40C9447B80C9472890C94E6A4A1
:1002B0000C94A39F0C94562E0C94BEA50C94AF9353
:1002C0000C948EC50C94A0A50C94762E0C94D8AFEB
:1002D0000C9404A00C94A7A50C9497C10C94A72E81
:1002E0000C94ACAB0C94A5CD0C945EB60C947D76BE
:1002F0000C9452A20C9418B60C94A7AE0C940CA1BA
:100300000C946EB00C9433AC0C948E2E0C946DAD9A
:100310000C9438250C9431A10C940FB20C94142E2B
:100320000C944AA50C94923A0C9409A20C9450A9EE
:100330000C9488C80C9488680C9418A00C94482ECF
:100340000C9406760C9409A00C94EFA50C94DDA1F6
:100350000C941D3E0C94AA9F0C94EFC90C94CDBB39
:100360000C9486D20C942E2E0C94E47A0C94DFAC70
:100370000C94BE9F0C943D9C0C94DC9F0C9474A830
:100380000C94E69F0C94E6A60C94C39F0C94F9750C
:100390000C94E9A00C94522E0C942D8A0C942FC925
:1003A0000C940EA00C9455BA0C9441B10C9461318C
:1003B0000C94E8CD0C94FBC40C94CDB00C94D3C336
:1003C0000C94E4BF0C94B99F0C94CFA20C94D79FCB
:1003D0000C9442A80C94F7C20C9466650C940FCE52
:1003E0000C94CD9F0C94DDA70C94FF9F0C94B3AAA2
:1003F0000C9418740C941AA20C94DE8F0C94E5AD36
:100400000C94D5A00C94C9910C940D380C94F3A1C4
:100410000C9434A20C9492B50C9434B00C94892EA4
:100420000C94D29F0C9427A80C945A310C94BE942F
:100430000C9427910C94A9A60C943AA10C946DB33A
:100440000C940A290C94AC2E0C94FAC30C94FDBDA8
:100450000C9440760C94BC3F0C94D5A50C94BF2E04
:100460000C945D730C94F3750C9459B10C94733027
:100470000C946C8B0C94C5AF0C9474C20C9493D2F6
:100480000C948FB80C9473B50C9487900C94607690
:100490000C948E900C9420760C94ECA00C94D9A41F
:1004A0000C9424530C94FCC50C94E1C60C94E3B852
:1004B0000C9470B80C941DA10C94EF8D0C94FFA0BB
:1004C0005265706C6963617430722031001704C822
:1004D000000000DC0027056400000078007505C8F6
:1004E000000000DC002006640000007800E006C880
:1004F000000000DC002006C8000000DC002006C868
:10050000000000DC002D08C80000000000C00DC87D
:100510000000001400C00DC800000014005A10C8EC
:100520000000001400C00D90010000000070039056
:1005300001000014005504C800000014002705C87D
:1005400000000014007003900100000000C805C8FE
:100550000000001400C805C80000001400C805C849
:100560000000001400DD04B004000014007505C88C
:1005700000000014007505C800000014007505C8CF
:1005800000000014009704B00400000000C00DC873
:100590000000001400C00DC80000001400910E906F
:1005A00001000014005A10900100001400C00D203A
:1005B00003000000007003BC000000BC00E006BCAB
:1005C000000000BC00B807BC000000BC002D08BC47
:1005D00000A908BC000000BC00C00D4D01000000D7
:1005E00000C00D20010000BC005311BC000000BC85
:1005F000005B12B101000000009302690000006975
:1006000000EE016900000069002601B80100000049
:100610000024F4D43050C38E20C2A24017828B70C5
:1006200011127A910D816CD90AA861E108C7586648
:1006300007615143061E4B5D05C145A7041A4111D0
:1006400004093D9803713931034036DB026533916B
:1006500002D4305402802E1D02632CEE01752AC58F
:1006600001B028A001102781018F2564012B244BA4
:1006700001E0223401AC211F018D200D01801FFCFF
:1006800000841EED00971DDF00B81CD200E61BC6DB
:1006900000201BBC00641AB200B219A8000A19A0FD
:1006A000006A189900D117910040178B00B5168485
:1006B0000031167E00B31579003A157300C7146F28
:1006C0000058146A00EE1366008813630025135E59
:1006D00000C7125B006C12570015125400C1115173
:1006E0000070114F0021114B00D61049008D1047AA
:1006F000004610440002104200C00F4000800F3E30
:1007000000420F3C00060F3B00CB0E3800930E3723
:10071000005C0E3500270E3400F30D3200C10D31A0
:1007200000900D3000600D2E00320D2D00050D2CB7
:1007300000D90C2B00AE0C2900850C29005C0C277D
:1007400000350C27000E0C2600E80B2400C40B24F7
:1007500000A00B23007D0B23005A0B2100390B2135
:1007600000180B2000F80A1F00D90A1E00BB0A1E41
:10077000009D0A1D00800A1D00630A1C00470A1B19
:10078000002C0A1B00110A1A00F7091A00DD0919CA
:1007900000C4091900AB091900920917007B091858
:1007A00000630917004C09160036091600200916C7
:1007B000000A091500F5081500E0081400CC08141B
:1007C00000B8081400A4081400900813007D081253
:1007D000006B081300580812004608120034081174
:1007E00000230811001208110001081100F0071081
:1007F00000E0071000D0071000C0071000B0070F7E
:1008000000A107100091070E0083070F0074070F67
:100810000065070E0057070E0049070E003B070D45
:10082000002E070E0020070D0013070D0006070D10
:1008300000F9060C00ED060D00E0060C00D4060CD5
:1008400000C8060C00BC060C00B0060C00A4060B89
:100850000099060C008D060B0082060B0077060B34
:10086000006C060B0061060A0057060B004C060AD6
:100870000042060A0038060A002E060A0024060A6C
:10088000001A060A001006090007060A00FD0509FD
:1008900000F4050900EB050900E2050900D9050986
:1008A00000D0050900C7050900BE050900B5050807
:1008B00000AD050800A50509009C05080094050881
:1008C000008C050800840508007C050800740508F4
:1008D000006C050700650508005D05070056050862
:1008E000004E0507004705070040050800380507CA
:1008F00000310507002A050700230507001C05062F
:1009000000160507000F0507000805060002050789
:1009100000FB040600F5040700EE040600E80406E8
:1009200000E2040700DB040600D5040600CF04063D
:1009300000C9040600C3040600BD040600B704068F
:1009400000B1040500AC040600A6040600A00405DE
:10095000009B04060095040500900406008A040527
:100960000085040500800406007A0405007504056E
:1009700000700405006B04050066040500610405B1
:10098000005C04050057040500520405004D0405F1
:100990000048040500430405003E0404003A040531
:1009A0000035040500300404002C0405002704046D
:1009B00000230405001E0404001A040400160405A4
:1009C00000110404000D04040009040500040404DB
:1009D0000000040400FC030400F8030400F4030412
:1009E00000F0030400EC030400E8030400E4030443
:1009F00000E0030400DC030400D8030400D4030473
:100A000000D0030400CC030400C8030300C50303A3
:100A10000024F404D9201BC40C5C0E9804C4095FA4
:100A20000265077101F405F900FB04B3004804876F
:100A300000C10369005803550003034500BE023A94
:100A4000008402310053022A0029022500040220FA
:100A500000E4011C00C8011900AF0117009801143F
:100A60000084011300710110006101100051010E9A
:100A70000043010D0036010B002B010B0020010B80
:100A800000150109000C01090003010800FB000822
:100A900000F3000800EB000700E4000600DE00069B
:100AA00000D8000600D2000600CC000500C70005F3
:100AB00000C2000500BD000400B9000400B5000438
:100AC00000B1000400AD000400A9000400A500036B
:100AD00000A20003009F0004009B00030098000395
:100AE000009500020093000300900003008D0002B7
:100AF000008B0003008800020086000200840003CF
:100B000000810002007F0002007D0002007B0002E5
:100B100000790002007700010076000200740002F4
:100B20000072000100710002006F0002006D000100
:100B3000006C0002006A0001006900020067000109
:100B4000006600010065000100640002006200010F
:100B50000061000100600001005F0002005D000113
:100B6000005C0001005B0001005A00010059000117
:100B70000058000100570001005600010055000117
:100B80000054000100530000005300010052000116
:100B90000051000100500001004F0001004E000014
:100BA000004E0001004D0001004C0001004B000010
:100BB000004B0001004A000100490001004800000C
:100BC0000048000100470001004600000046000107
:100BD0000045000000450001004400010043000002
:100BE00000430001004200000042000100410000FB
:100BF0000041000100400001003F0000003F0001F3
:100C0000003E0000003E0001003D0000003D0001EC
:100C1000003C0000003C0000003C0001003B0000E4
:100C2000003B0001003A0000003A000100390000DA
:100C300000390001003800000038000000380001D1
:100C400000370000003700010036000000360000C9
:100C500000360001003500000035000000350001BD
:100C600000340000003400000034000100330000B4
:100C700000330000003300010032000000320000A9
:100C8000003200010031000000310000003100019D
:100C9000003000000030000000300001002F000094
:100CA000002F0000002F0000002F0001002E000088
:100CB000002E0000002E0001002D0000002D00007D
:100CC000002D0000002D0001002C0000002C000071
:100CD000002C0000002C0001002B0000002B000065
:100CE000002B0000002B0001002A0000002A000059
:100CF000002A0000002A000100290000002900004D
:100D0000002900000029000000290001002800003F
:100D10000028000000280000002800000028000132
:100D20000027000000270000002700000027000027
:100D30000027000100260000002600000026000019
:100D4000002600000026000100250000002500000C
:100D500000250000002500000025000000250001FE
:100D600000240000002400000024000000240000F3
:100D700000240001002300000023000000230000E5
:100D800000230000002300000023000000230001D6
:100D900000220000002200000022000000220000CB
:100DA00000220000002200010021000000210000BC
:100DB00000210000002100000021000000210000AF
:100DC00000210001002000000020000000200000A1
:100DD0000020000000200000002000000020000093
:100DE00000200001001F0000001F0000001F000085
:100DF000001F0000001F0000001F0000001F000176
:100E0000001E0000001E0000001E0000001E00006A
:100E100000890899000000005265704720427569FA
:100E20006C64009600FF84036901000014008304D1
:100E30008800000014008C0000000000000000305A
:100E4000F8FFFF00000000000000009B0000000011
:100E50000000000000000000000000000000000092
:100E6000A51C0000180000A04095048304DC0500C8
:100E7000001400901F891B95000000004C4556454A
:100E80004C494E47202020202020202020202020B8
:100E9000009501000000202020202020202020207C
:100EA000202020202020202020200095010000006C
:100EB00050726573732063656E746572206B65791B
:100EC000202020200095030000007768656E2064D4
:100ED0006F6E65008500CA9A3B891F62003B020065
:100EE0000000002110422063308440A550C660E716
:100EF00070088129914AA16BB18CC1ADD1CEE1EFCF
:100F0000F13112100273325222B5529442F772D666
:100F100062399318837BB35AA3BDD39CC3FFF3DE1E
:100F2000E36224433420040114E664C774A44485B6
:100F3000546AA54BB528850995EEE5CFF5ACC58D6E
:100F4000D55336722611163006D776F6669556B406
:100F5000465BB77AA719973887DFF7FEE79DD7BCBE
:100F6000C7C448E5588668A7784008611802282356
:100F700038CCC9EDD98EE9AFF9488969990AA92B0E
:100F8000B9F55AD44AB77A966A711A500A333A12A6
:100F90002AFDDBDCCBBFFB9EEB799B588B3BBB1A5E
:100FA000ABA66C877CE44CC55C222C033C600C41F6
:100FB0001CAEED8FFDECCDCDDD2AAD0BBD688D49AE
:100FC0009D977EB66ED55EF44E133E322E511E7046
:100FD0000E9FFFBEEFDDDFFCCF1BBF3AAF599F78FE
:100FE0008F8891A981CAB1EBA10CD12DC14EF16FAF
:100FF000E18010A100C230E3200450254046706714
:1010000060B9839893FBA3DAB33DC31CD37FE35E3F
:10101000F3B1029012F322D2323542145277625663
:1010200072EAB5CBA5A89589856EF54FE52CD50D4F
:10103000C5E234C324A014810466744764245405B3
:1010400044DBA7FAB79987B8975FE77EF71DC73CDF
:10105000D7D326F2369106B0165766767615463403
:10106000564CD96DC90EF92FE9C899E9898AB9ABEF
:10107000A94458654806782768C018E1088238A353
:10108000287DCB5CDB3FEB1EFBF98BD89BBBAB9A7F
:10109000BB754A545A376A167AF10AD01AB32A92A3
:1010A0003A2EFD0FED6CDD4DCDAABD8BADE89DC98F
:1010B0008D267C076C645C454CA23C832CE01CC1F3
:1010C0000C1FEF3EFF5DCF7CDF9BAFBABFD98FF81F
:1010D0009F176E367E554E745E932EB23ED10EF043
:1010E0001E78206D6F726521002A2050726573731F
:1010F000200045726173696E672E2E2E0065657043
:10110000726F6D5F64756D702E62696E2066696CBA
:10111000656E6F7420666F756E6400526561642041
:101120006661696C65643B20454550524F4D206DAA
:10113000617920626520636F727275707400526508
:1011400073746F72696E672E2E2E00656570726FF4
:101150006D5F64756D702E62696E2066696C656185
:101160006C726561647920657869737473005344A7
:101170002063617264207772697465206661696CAE
:10118000656400536176696E672E2E2E005072657D
:10119000737320555020746F2070726F636565649F
:1011A0002E00796F757220626F7420696E6F7065A2
:1011B0007261626C652E0054686973206D656E758E
:1011C0002063616E206D616B6500537065636961BA
:1011D0006C2045646974696F6E20202020200053C4
:1011E00061696C66697368202020202020202020FF
:1011F000202020002020202020202020202020200F
:1012000020202020202020200046462043726561B7
:10121000746F722050726F20202020202000202028
:1012200020202020202020202020202020202020BE
:10123000202000202020200020004320202020000B
:101240002F2020204300010049033600FF006B00DF
:10125000D100A000B800D500A6000A0199003F0106
:101260008E0074018400A9017C00DE017400130269
:101270006C00480265007D025D00B2025600E70284
:101280004E001C03460051033D0086033200BB03A1
:101290002200F0030300FF030000456C61707365DA
:1012A000643A20202020202020202020306D0020A3
:1012B0007365637300546F20476F3A20202020200D
:1012C0002020202020202D2D2D005541525431006A
:1012D00020205553420053657269616C20492F4F9D
:1012E00000457261736520456570726F6D005344EF
:1012F000202D3E20456570726F6D00456570726FE0
:101300006D202D3E20534400456570726F6D005076
:1013100072696E742054696D653A2020206820300F
:10132000306D004C617374205072696E743A2020E5
:101330002020682030306D004C69666574696D65E9
:101340003A202020202020682030306D0052657324
:10135000756D696E6720706F736974696F6E2E2E7C
:101360002E00436C656172696E67206275696C64FA
:101370002E2E2E20202000447261696E696E672037
:10138000706970656C696E652E2E2E004C656176F5
:10139000696E672070617573652E2E2E20202020C7
:1013A0000043616E63656C6C696E67207072696E74
:1013B000742E2E2E2000456E746572696E67207043
:1013C000617573652E2E2E20202000506175736587
:1013D000206174205A506F733A2000506C6174661B
:1013E0006F726D2054656D703A202020004C656648
:1013F000742054656D703A200052696768742054F7
:10140000656D703A2000546F6F6C68656164204FA1
:101410006666736574730020546F6F6C68656164F1
:10142000204F66667365743A00204F666673657474
:101430003A0055702F446E2F4C6566742F4D207402
:101440006F207365740055702F446E2F522F4C2FF0
:101450004D20746F207365740050726F66696C65FF
:10146000204E616D653A005361766520546F2050BF
:10147000726F66696C65004368616E6765204E61D6
:101480006D6500446973706C617920436F6E6669A5
:101490006700526573746F72650052657365743AC4
:1014A0002070726573732043454E5445520046695F
:1014B0006C2E20547269703A0046696C616D656EDD
:1014C000743A00547269703A004C6966653A004695
:1014D000696C616D656E74204F646F6D65746572C3
:1014E0000048656174657273204F66660043616EE3
:1014F00063656C205072696E74005072696E74205E
:1015000053746174697374696373004261636B201F
:10151000746F204D6F6E69746F72006D006D6D0099
:10152000486F6D65204F6666736574730050726F07
:1015300066696C65730046696C616D656E743A002E
:101540004865696768743A202020202020200050D8
:1015500072696E742054696D653A202020202068DD
:1015600020206D0054656D70657261747572652020
:1015700072656164732020206F7574206F6620721D
:10158000616E67652E20202020202020436865633F
:101590006B20776972696E672E0054656D70657295
:1015A00061747572652072656164732020206172B8
:1015B00065206661696C696E672E202020202020DE
:1015C0002020436865636B20776972696E672E001F
:1015D00054656D70657261747572652064726F70A8
:1015E00070696E67436865636B20776972696E67BF
:1015F0002E004E6F742068656174696E672070728A
:101600006F7065726C79436865636B207769726986
:101610006E672E0054656D70206C696D6974207260
:101620006561636865642E2053687574646F776EB6
:10163000206F7220726573746172742E00506C6139
:1016400074666F726D204661696C75726521202029
:101650002000546F6F6C2031204661696C75726593
:1016600021202020202000546F6F6C203020466104
:10167000696C7572652120202020200045787472E5
:1016800075646572204661696C7572652120202041
:1016900000486561746572732073687574646F7750
:1016A0006E20647565746F20696E61637469766914
:1016B00074790046696C616D656E74206C6F61644D
:1016C0002F756E6C6F616463616E63656C65642019
:1016D00064756520746F20746865207072696F721C
:1016E00020686561746572206572726F72004D7951
:1016F0002074656D706572617475726520776173B1
:1017000020206368616E6765642065787465726E19
:10171000616C6C792E20526573656C65637420660C
:10172000696C616D656E742020206D656E75207426
:101730006F2074727920616761696E2E007761692C
:1017400074696E67200020204E4120202020006513
:1017500072726F7221004F4646202020004355537D
:10176000544F4D0057484954452000505552504C55
:101770004500424C5545202000475245454E20002B
:1017800050494E4B2020004F52414E474500524594
:1017900044202020004C454420436F6C6F7572003C
:1017A000536574204C6967687473204F4E20005352
:1017B0006574204C6967687473204F46460028435F
:1017C000616E6E6F74205072696E7420436F707911
:1017D00029005072696E7420416E6F7468657220C2
:1017E000436F7079004D61696E204D656E750053D1
:1017F000657420436F6F6C696E672046616E204F81
:1018000046460053657420436F6F6C696E672046CF
:10181000616E204F4E20004368616E67652048422C
:10182000502054656D70004368616E676520546593
:101830006D7065726174757265004368616E67658D
:101840002053706565640050617573652061742074
:101850005A506F7300446974746F205072696E74CB
:10186000696E67004E2F4100502D53746F702074C5
:10187000726967676572656400502D53746F7020DC
:10188000496E76657274656400502D53746F7020D4
:10189000436F6E74726F6C00436865636B205344D2
:1018A00020526561647300457874727564657220B6
:1018B000486F6C64005061757365207769746820A7
:1018C00048656174004F766572726964652047638C
:1018D00054656D700048425020696E7374616C6C81
:1018E000656400416363656C65726174696F6E0065
:1018F00045786974204D656E7500536F756E640090
:10190000457874727564657220436F756E74004219
:101910006F742053746174697374696373004361F5
:101920006C696272617465204E6F7A7A6C657300BF
:10193000526573746F72652053657474696E677352
:101940000047656E6572616C2053657474696E67DB
:101950007300507265686561742053657474696EB4
:101960006773004C6576656C00456E61626C65203E
:1019700053746570706572732020004469736162EE
:101980006C65205374657070657273005665727370
:10199000696F6E20496E666F726D6174696F6E005B
:1019A00046696C616D656E74204C6F6164696E6729
:1019B00000486F6D652041786573004A6F67204D60
:1019C0006F6465004D6F6E69746F72204D6F646552
:1019D000005574696C697469657300507265686557
:1019E0006174005072696E7400492074696D656499
:1019F000206F7574207768696C652020206174748D
:101A0000656D7074696E6720746F206865617420FD
:101A1000206D7920706C6174666F726D2E004920A4
:101A200074696D6564206F7574207768696C6520D2
:101A30002020617474656D7074696E6720746F2006
:101A40006865617420206D792065787472756465AD
:101A5000722E00556E61626C6520746F2072656134
:101A6000642053442020206361726420706172748A
:101A70006974696F6E73206F7665723247422069B0
:101A80006E2073697A652E2020466F726D617461D5
:101A900073204641542D3136206F72202D33322E63
:101AA00000556E61626C6520746F20726561642000
:101AB00074686973205344206361726420666F7296
:101AC0006D61742E2020202020466F726D6174207D
:101AD0006173204641542D3136206F7220464154A7
:101AE0002D33322E0053442063617264207265618D
:101AF00064206572726F722E20546F6F206D616E5C
:101B00007920435243206572726F72732E42616472
:101B1000206361726420636F6E7461637473206FFD
:101B200072656C656374726963616C206E6F697352
:101B3000652E0053442063617264207265616420E5
:101B40006572726F720053442063617264206E6F1D
:101B5000742070726573656E740053442063617203
:101B60006420697320656D7074790043616E6E6FD7
:101B700074206F70656E207468652066696C6500FE
:101B800053442063617264207265616473206172E2
:101B9000652020206E6F7420676F696E67207765FF
:101BA0006C6C2E20205472796120646966666572BF
:101BB000656E7420636172640049276D20616C72E8
:101BC00065616479206275696C64696E6700436F52
:101BD0006C6420506175736500526573756D652086
:101BE00000506175736520200043616E63656C2051
:101BF0006C6F61642F756E6C6F61643F0043616E42
:101C000063656C2074686973207072696E743F003C
:101C100073657474696E67733F00526573746F7295
:101C20006520666163746F727900506C6174666FD1
:101C3000726D2020202020202020202020004C65B4
:101C400066742045787472756465722020202020A7
:101C500020005269676874204578747275646572F3
:101C60002020202020004578747275646572202041
:101C70002020202020202020200050726573732017
:101C80006C65667420746F2063616E63656C0045DB
:101C9000787472756465723A2020202D2D2D2F2DB9
:101CA0002D2D4300506C6174666F726D3A202020B8
:101CB0002D2D2D2F2D2D2D43004C20457874727520
:101CC0006465723A202D2D2D2F2D2D2D430052208D
:101CD00045787472756465723A202D2D2D2F2D2D47
:101CE0002D4300202D2D250048656174696E673AEB
:101CF0002020202020202020202020200048656156
:101D000074696E673A00203C2D592020284D656E7D
:101D10007529202020202020202000203C2D582024
:101D200020284D656E752920205A2D3E2020200048
:101D30002020202020202020582D2020202020205E
:101D40002020202000202020202020284D656E7596
:101D5000292020592D3E2020200020202020202036
:101D60002020582B20202020202020202020002050
:101D7000202020204A6F67206D6F6465202020207E
:101D800020202000556E6C6F6164206C65667400C5
:101D9000556E6C6F616420726967687400556E6C73
:101DA0006F6164004C6F6164004C6F6164004C6F44
:101DB00061642072696768740035206D696E75749E
:101DC000652074696D656F757420686173656C61F9
:101DD000707365642E20205072657373207468657B
:101DE0002063656E74657220627574746F6E207402
:101DF0006F2020202066696E6973682E004C4F4169
:101E000044494E472E2E2E20202020202020202006
:101E100020202020202020202020202020202020C2
:101E200020202020202020202020202020202020B2
:101E30002020202020202020205072657373204F06
:101E40004B207768656E20646F6E65004C4F41448F
:101E5000494E472E2E2E20202020202020202020DA
:101E60002020202020202020202020202020202072
:101E70002020202020202020202020202020202062
:101E800020202020202020205072657373204F4B8B
:101E900020746F20636F6E74696E756500554E4CCB
:101EA0004F4144494E472E2E2E004578747275647A
:101EB00065727320617265206E6F742020206865E2
:101EC0006174696E672E2020436865636B207468B7
:101ED0006520776972696E672E00592041786973B1
:101EE000204C696E6500582041786973204C696EFA
:101EF0006500594553004E4F2000446F6E650053F6
:101F0000656C6563742062657374206C696E6573BB
:101F10003A00457874727564657200506C6174663D
:101F20006F726D005475726E2048656174657273CE
:101F3000204F464600537461727420507265686584
:101F40006174696E670046726565205352414D2089
:101F5000004F4646004F4E20000038250A297330B6
:101F60005A310D38923A1D3EBC3F2453666588684D
:101F70005D73187427754076EB7672892D8A879089
:101F80008E902791C991AF93BE94FA984299C99BBC
:101F90009C9FA39F4FCAA5CDDCCEC4D039D186D299
:101FA00093D2E2E8FBE185EC91E201C08193EF3F3F
:101FB000F907E0F3D9F311241FBECFEFD1E2DEBF62
:101FC000CDBF00E00CBF16E0A0E0B2E0EEEDF3EB19
:101FD00001E00BBF02C007900D92A632B107D9F7FE
:101FE0002BE1A6E2B6E001C01D92A238B207E1F7EC
:101FF0001FE0C1EDDFE000E006C021970109802F5E
:10200000FE010E9465D7CD3AD10780E00807A9F705
:102010000E94D0300C94EDD90C9400006BBFFA01F3
:10202000DC0102C007900D9221503040D8F708958E
:102030008091B00881110AC08091AF088F5F8093B2
:10204000AF08853018F081E08093B008089581E0F2
:102050000E94273680E00C940936F894E5EAF6E011
:102060002281338180819181821B930B7894089522
:10207000EF92FF920F931F93CF937C018B01C42F9C
:102080008FE499E00E948FC0B7018FE499E00E942D
:1020900068C0B8018FE499E00E9468C0E091E1094E
:1020A000EE0FFF0BED52F64F808191818F549940D6
:1020B00039F06FE479E087EC99E00E94969904C0CA
:1020C0008FE499E00E94CEC0C093AE09CF911F91DA
:1020D0000F91FF90EF9008951092AE09E091E10901
:1020E000EE0FFF0BED52F64F808191818F54994096
:1020F00021F487EC99E00E94529AE091E109EE0FF9
:10210000FF0BED52F64F80819181DC01ED91FC9146
:102110000480F581E02D19948091010208951092B8
:102120005D060895882311F080E401C080E8809363
:10213000A3066093A0061092B108089581E08093F1
:102140009F0608958091A306181634F48091A00686
:10215000811104C081E0089580E0089582E008952F
:102160008091A306089581E09091A306923008F42F
:1021700080E00895CF93DF93CDB7DEB764970FB6B5
:10218000F894DEBF0FBECDBF6093870670938806BC
:102190008093890690938A06CE0101960E94366A42
:1021A00062E070E0CE0101960E94E23AFC014081BB
:1021B0005181628173818091870690918806A091F8
:1021C0008906B0918A06481759076A077B071CF0F1
:1021D0001092860603C081E08093860664960FB64F
:1021E000F894DEBF0FBECDBFDF91CF91089560910F
:1021F0008706709188068091890690918A060895D5
:102200002091A7063091A80681E0232B09F080E0F9
:102210000895CF9360E070E0CB010E94BA10109255
:10222000860610924C0610924D0610924E061092A1
:102230004F0610925006C1E0C09300021092B208FF
:102240001092A3061092A2061092A1061092A00668
:102250001092760610927706109278061092790600
:1022600010927A0610927B0610927C0610927D06E0
:102270001092660610926706109268061092690620
:1022800010926A0610926B0610926C0610926D0600
:1022900010925E0610925F06109260061092610620
:1022A00010927E0610927F06109280061092810690
:1022B0001092820610928306109284061092850670
:1022C00010926E0610926F061092700610927106B0
:1022D0001092720610927306109274061092750690
:1022E00010926206109263061092640610926506C0
:1022F00061E082E490E00E946392823039F460E011
:102300008FEF9FE00E946392811134C010924106CA
:1023100010924706109248061092490610924A06FB
:1023200010924606109242061092430610924406FE
:10233000109245061092B1081092AF081092B008A2
:1023400010925C0610925B06109258061092570687
:1023500010925A061092590610925606109255067F
:102360001092520610925106109254061092530683
:10237000CF910895C0934106CBCF0E94091185E605
:1023800080930102E5EAF6E013821282158214823C
:102390001086118610924006089581E090914006C3
:1023A000963009F080E008958F929F92AF92BF928D
:1023B000CF92DF92EF92FF920F931F93CF93DF9311
:1023C000CDB7DEB7AA970FB6F894DEBF0FBECDBF6C
:1023D000882321F091E090935D0605C090915D0601
:1023E000992309F4EAC0F82ECE0145960E94366A78
:1023F00081E089A78AA76E0189E2C80ED11C03E09B
:1024000010E088E49AE0FC01E759FF4F2081FC01CD
:10241000222319F026A137A104C0EC5AFF4F2081D6
:102420003181232B91F148960E94DB96882369F134
:10243000F60180818F1124C0812C912C540183944A
:10244000402F60E070E080E090E40E943468A501D5
:1024500094010E94E0D64B015C01B801CE01459683
:102460000E94E93AFC014081518162817381840EAE
:10247000951EA61EB71E80829182A282B38205C0DD
:1024800088248A94982C5401DBCF0430110541F044
:10249000EFEFCE1ADE0A87EC9AE004E010E0B3CF4B
:1024A00060ED77E08CEE91E00E947392BC0180E0D9
:1024B00090E00E941ED520913E1530913F1540912D
:1024C0004015509141150E9426D69B01AC0160E059
:1024D00074E284E799E40E943AD40E94E8D44B0164
:1024E0005C0180914106882329F18091A406811125
:1024F0000AC064E070E0CE0145960E94E93A8C0182
:1025000063E070E009C063E070E0CE0145960E9490
:10251000E93A8C0164E070E0CE0145960E94E93A08
:10252000FC0180819181A281B381F8018083918334
:10253000A283B383E12C00E010E09801B501A4016F
:10254000CE0145960E945D6BF11037C0CE01019619
:102550000E94366A63E070E0CE0101960E94E93A7B
:102560008C0163E070E08BE896E00E94E93AFC01A0
:1025700080819181A281B381F80180839183A283BC
:10258000B38364E070E0CE0101960E94E93A8C01C9
:1025900064E070E08BE896E00E94E93AFC018081FB
:1025A0009181A281B381F80180839183A283B38357
:1025B00060E0CE0101960E94AD69AA960FB6F8942C
:1025C000DEBF0FBECDBFDF91CF911F910F91FF9066
:1025D000EF90DF90CF90BF90AF909F908F90089535
:1025E0002F923F924F925F926F927F928F929F9223
:1025F000AF92BF92CF92DF92EF92FF920F931F9311
:10260000CF93DF93CDB7DEB7C856D1090FB6F89494
:10261000DEBF0FBECDBF182FCE01CD960E94AD3AC2
:10262000CE0189960E94AD3A112309F4F6C080E0EC
:1026300090E0FC01EB54FB4E2385222309F474C285
:102640002285222309F470C28D968738910589F777
:1026500084E1EBE8F6E0DE01559601900D928A9553
:10266000E1F7CE0101960E94366A60E070E0CE018B
:1026700045960E94E93A8C014091C5145091C614C8
:102680006091C7147091C8148EE090E00E94899206
:102690006B017C0180E00E940F6820E030E040EA9E
:1026A00050E40E9426D60E94E8D4C61AD70AE80A47
:1026B000F90AF801C082D182E282F38261E070E01F
:1026C000CE0145960E94E93A8C014091F214509156
:1026D000F3146091F4147091F51482E190E00E947B
:1026E00089926B017C0181E00E940F6820E030E05C
:1026F00040EA50E40E9426D60E94E8D4C61AD70ABF
:10270000E80AF90AF801C082D182E282F38262E02B
:1027100070E0CE0145960E94E93A40911F15509114
:1027200020156091211570912215FC014083518381
:102730006283738362E070E0CE0101960E94E93A01
:10274000FC01C080D180E280F38062E070E0CE01C5
:1027500045960E94E93AFC0180819181A281B38172
:102760008C159D05AE05BF05BCF462E070E0CE019E
:1027700045960E94E93A8C0162E070E0CE01019634
:102780000E94E93AFC0180819181A281B381F80124
:1027900080839183A283B38363E070E0CE0145968A
:1027A0000E94E93A8C0163E070E0CE0101960E943C
:1027B000E93AFC0180819181A281B381F801808393
:1027C0009183A283B38364E070E0CE0145960E94BA
:1027D000E93A8C0164E070E0CE0101960E94E93A8A
:1027E000FC0180819181A281B381F8018083918372
:1027F000A283B383BE016B5E7F4FCE018F5A9F4F82
:102800000E94706984E1FE01EF5AFF4FDE01999644
:1028100001900D928A95E1F757C084E1EBE8F6E06C
:10282000DE01999601900D928A95E1F7CE014596C9
:102830000E94366A64E070E0CE0189960E94E93A0F
:10284000FC01108101813280238063E070E0CE01C1
:1028500089960E94E93AFC0180809180A280B38031
:1028600062E070E0CE0145960E94E93AFC01C0802A
:10287000D180E280F38061E070E0CE0145960E9455
:10288000E93AFC01408051806280738060E070E032
:10289000CE0145960E94E93AFC0140815181628156
:1028A00073812F923F920F931F9393018201CE0168
:1028B00001960E94AE3A60E0CE0101960E94AD6999
:1028C0000F900F900F900F90609115157091161545
:1028D00080911715909118150E9420D520E030E0C6
:1028E00040E857E30E9426D6209111153091121529
:1028F00040911315509114150E9426D60E94E8D4D9
:10290000A9966CAF7DAF8EAF9FAFA997CE018F5ABE
:102910009F4F0E94366A84E1FE01EF5AFF4FDE01AD
:10292000DD9601900D928A95E1F760E070E0CE01AE
:10293000CD960E94E93AFC01C080D180E280F3800C
:1029400060E070E0CE0189960E94E93AFC01808146
:102950009181A281B381A7019601281B390B4A0BF3
:102960005B0BCA01B9010E9420D52091B7143091A8
:10297000B8144091B9145091BA140E943AD42B0162
:102980003C0161E070E0CE01CD960E94E93AFC0185
:10299000C080D180E280F38061E070E0CE01899652
:1029A0000E94E93AFC0180819181A281B381A70153
:1029B0009601281B390B4A0B5B0BCA01B9010E9417
:1029C00020D52091E4143091E5144091E614509103
:1029D000E7140E943AD44B015C0162E070E0CE0142
:1029E000CD960E94E93AFC01C080D180E280F3805C
:1029F00062E070E0CE0189960E94E93AFC01808194
:102A00009181A281B381A7019601281B390B4A0B42
:102A10005B0BCA01B9010E9420D52091111530919C
:102A2000121540911315509114150E943AD46B0160
:102A30007C01A3019201C301B2010E9426D62B01A1
:102A40003C01A5019401C501B4010E9426D69B0159
:102A5000AC01C301B2010E94B2D34B015C01A701DA
:102A60009601C701B6010E9426D69B01AC01C501A3
:102A7000B4010E94B2D30E9499D62B013C018091EF
:102A80004106882329F18091A40681110AC064E0DF
:102A900070E0CE0189960E94E93A8C0163E070E013
:102AA00009C063E070E0CE0189960E94E93A8C018A
:102AB00064E070E0CE0189960E94E93AFC018081D1
:102AC0009181A281B381F80180839183A283B38332
:102AD000B090E1151092E1156091151570911615E1
:102AE00080911715909118150E9420D520E030E0B4
:102AF00040E857E30E9426D620E030E040E852E468
:102B00000E9426D60E94E8D46B018301720120E066
:102B1000A9964CAD5DAD6EAD7FADA997CE018996FE
:102B20000E94AA6CB092E115C859DF4F0FB6F89415
:102B3000DEBF0FBECDBFDF91CF911F910F91FF90F0
:102B4000EF90DF90CF90BF90AF909F908F907F904D
:102B50006F905F904F903F902F900895EF92FF926B
:102B60000F931F93CF93DF9328E0829FC00111241E
:102B7000FC01EA58F94FF08001811281D381C481B0
:102B8000B581E680E7812F2D302F412F5D2F6C2FEF
:102B90007B2F8E2D9E2FA0E00E942FD954F40E94EF
:102BA000A3D8F22E032F142FD52FC62FB72FE82E20
:102BB000E92F2F2D302F412F5D2F6C2F7B2F8E2D46
:102BC0009E2FDF91CF911F910F91FF90EF9008956D
:102BD0006F927F928F929F92AF92BF92CF92DF922D
:102BE000EF92FF920F931F93CF93DF93C82F0E9412
:102BF000AE1559016A017B013C01A0E00E942FD96A
:102C000009F00CF449C088E0C89FE00111244E018E
:102C100088E4881A8EEF980A00E010E020E030E0A7
:102C200040E050E060E070E0C4010E94379383010F
:102C30000E9408D989019A01AB01BC01C4010E941C
:102C40008993DE01AA59B94FFE01EA58F94F8081F4
:102C50008C93818111968C931197828112968C931B
:102C60001297838113968C931397848114968C9377
:102C70001497858115968C931597868116968C935B
:102C80001697878117968C93108211821282138275
:102C90001482158216821782DF91CF911F910F91B6
:102CA000FF90EF90DF90CF90BF90AF909F908F906C
:102CB0007F906F90089580E00E94E81581E00C9469
:102CC000E815EF92FF920F931F93CF93DF9328E0C5
:102CD000829FC0011124FC01EA59F94FF080018163
:102CE0001281D381C481B581E680E7812F2D302FF9
:102CF000412F5D2F6C2F7B2F8E2D9E2FA0E00E94E9
:102D00002FD954F40E94A3D8F22E032F142FD52FBD
:102D1000C62FB72FE82EE92F2F2D302F412F5D2FF3
:102D20006C2F7B2F8E2D9E2FDF91CF911F910F91B6
:102D3000FF90EF900895CF92DF92EF92FF9280E0A4
:102D40000E946116E42F43E0B9018E2F952F0E9457
:102D50001B686B017C0181E00E946116642F44E0D6
:102D6000732F862F952F622F0E941B689B01AC0149
:102D7000C701B6010E94B2D36B017C0180E00E94C2
:102D8000AE15642F43E0732F862F952F622F0E947C
:102D90001B689B01AC01C701B6010E94B2D36B0155
:102DA0007C0181E00E94AE15642F44E0732F862FD2
:102DB000952F622F0E941B689B01AC01C701B601D1
:102DC0000E94B2D3FF90EF90DF90CF9008950F93C1
:102DD0001F93CF93DF93D82F0CE416E0C0E0F801E7
:102DE000808181110FC08C2F0E949B6FF80180831E
:102DF000DD2321F08C2F0E94A16F04C064E18C2F91
:102E00000E94966FCF5F0F5F1F4FC53041F7DF9174
:102E1000CF911F910F9108950F931F93CF930CE4BF
:102E200016E0C0E0F80160818C2F0E94966FF801D7
:102E300011928F01CF5FC530A9F7CF911F910F91EC
:102E400008950F931F93CF93DF93CDB7DEB76997A4
:102E50000FB6F894DEBF0FBECDBF8091A3068534B8
:102E600009F400C190F5813409F456C0B8F48032F9
:102E700009F4C5C1803409F43FC0823009F0F4C1BF
:102E80000E946C106091A1067091A20621E040E0C2
:102E900083E299E00E94D63481E051C0833409F482
:102EA00045C008F04FC0CE0106960E94366A84E104
:102EB000FE013696ABE8B6E001900D928A95E1F7F7
:102EC00081E00E94D41183E43AC0843809F460C1DF
:102ED00050F4813809F43EC1833809F44AC180387E
:102EE00009F0C2C1EAC0863809F46BC108F45FC1B9
:102EF000873809F46BC1B8C10E94812B853029F055
:102F00000E94812B843009F091C181E48093A30653
:102F100081E00E94E716A8C18091440C9091430C77
:102F2000891B8F7009F0A0C182E409C08091440C14
:102F30009091430C891B8F7009F096C184E48093B3
:102F4000A30692C181E00E94F01285E48093A3065B
:102F50000E94812B853039F00E94812B11E0843052
:102F600019F010E001C011E045E065E579E1CE011E
:102F700001960E944ACDCE0101960E9498CD809381
:102F80004B0680E00E9409368091B10A882329F01F
:102F900080916E0A90916F0A04C080919C0A909172
:102FA0009D0A90935206809351068091300B88239E
:102FB00029F08091ED0A9091EE0A04C080911B0BDC
:102FC00090911C0B90935406809353068091440A71
:102FD000882329F08091010A9091020A04C080910F
:102FE0002F0A9091300A909356068093550680914F
:102FF000A006811123C160E08EEF9FE00E946392E2
:10300000882309F41BC18091A006882351F021E098
:1030100040E060E080E00E94397660E088EF0E9446
:10302000666F6091A1067091A2066115710569F045
:103030008091B208811105C0111103C086EB93E1A4
:1030400002C081EA93E141E00AC0111103C086EB9E
:1030500093E102C081EA93E141E062E673E10E94FC
:10306000381002C18091440C9091430C891B8F70E1
:1030700009F0FAC00E940C178091B208882311F061
:1030800080E209C08091A1069091A206892B11F4DB
:1030900081E001C082E08093A3060E946C100E9430
:1030A000812B853009F4E0C00E94812B843009F423
:1030B000DBC087E00E94383AD7C080E00E94E71664
:1030C00000915B0610915C060115110521F4009139
:1030D0005506109156061016110654F460E083EF61
:1030E00099E00E943E97B80183EF99E00E940B9609
:1030F00000915706109158060115110521F4009111
:103100005106109152061016110654F460E080E644
:103110009AE00E943E97B80180E69AE00E940B96E2
:103120000091590610915A060115110521F40091DC
:103130005306109154061016110654F460E08FEDFA
:103140009AE00E943E97B8018FED9AE00E940B969C
:1031500081E8F5CE8091550690915606181619060D
:103160000CF06FC083EF99E00E94DB96811169C07B
:103170007BC08091510690915206181619060CF0EA
:1031800062C080E69AE00E94DB9681115CC06CC050
:1031900081E00E94E71680E00E94F01285E88093AB
:1031A000A30641E06DE473E18CE893E158CF809190
:1031B000440C9091430C891B8F7009F055C086E830
:1031C000BECE80E00E94D41187E8B9CE8091440C35
:1031D0009091430C891B8F7009F046C080914B067B
:1031E0000E9409360E940C170E946C101092A306D0
:1031F0001092A2061092A1061092B10835C00E944A
:103200006C106091A1067091A20621E040E083E27B
:1032100099E00E94D6340E94373C1092A206109288
:10322000A1061092B2081092A3061EC041E067E703
:1032300073E186EB93E10E94381067CE0E9427105D
:10324000E2CE83E87CCE8091530690915406181606
:10325000190634F48FED9AE00E94DB96882321F062
:103260000E940C1784E86BCE69960FB6F894DEBF07
:103270000FBECDBFDF91CF911F910F9108958F9217
:103280009F92AF92BF92CF92DF92EF92FF92CF9335
:10329000C0910102C53609F453C0CC2309F450C0D3
:1032A000F0904606CF1509F44BC0FF2009F448C042
:1032B00060914206709143068091440690914506C4
:1032C0006115710581059105D9F10E941ED54B014B
:1032D0005C018C2F90E08F199109BC01990F880B2C
:1032E000990B0E9420D59B01AC01C501B4010E943D
:1032F0003AD46B017C016C2F70E080E090E00E947A
:103300001ED59B01AC0160E070E088EC92E40E9465
:10331000B1D39B01AC01C701B6010E9426D66B0157
:103320007C0120E030E0A9010E9435D487FF03C072
:10333000C12CD12C7601C701B6010E94E8D403C08C
:1033400060E070E0CB01CF91FF90EF90DF90CF90E5
:10335000BF90AF909F908F900895FC0184819581DC
:10336000860F971F608171810E94FCD6268137816C
:10337000820F931F08951F93CF93DF93EC012A814F
:103380003B81888199812817390770F4162F6A814B
:103390007B81CE010E94AD19FC0110838A819B8143
:1033A00001969B838A8302C081E08887DF91CF9159
:1033B0001F910895682F85EA96E00C94BB19CF936E
:1033C000DF93EC018A819B81892B21F481E089873D
:1033D00080E017C060E070E0CE010E94AD19FC01F2
:1033E0002C813D81C9010196688179810E94FCD6BA
:1033F0009D838C832A813B81215031093B832A8321
:103400008081DF91CF91089585EA96E00C94DF19D1
:10341000CF9385EA96E00E94DF19C82F85EA96E0EF
:103420000E94DF19982F8C2FCF9108951F93CF936F
:10343000DF931F921F92CDB7DEB785EA96E00E9418
:10344000DF19682F85EA96E06A830E94DF19782FDA
:1034500085EA96E079830E94DF19182F85EA96E0C5
:103460000E94DF19982F6A817981812F0F900F9028
:10347000DF91CF911F910895CF92DF92EF92FF924B
:103480001F93CF93DF93C82F61E070E085EA96E049
:103490000E94AD19FC011081CF3F09F01C2F62E0A2
:1034A00070E085EA96E00E94AD19FC0180818D30C4
:1034B00009F476C048F48C3008F05FC0843008F01E
:1034C000C5C0833071F00BC0873109F44CC020F4C3
:1034D000803108F4BBC003C08F3109F46DC010E027
:1034E000C9C064E070E085EA96E00E94AD19FC0175
:1034F000C081EC2EF12C65E070E085EA96E00E9438
:10350000AD19FC019081C92FD0E0DC2FCC27CE0D66
:10351000DF1D209719F40E945B1614C0E12EF12CD8
:103520006701CC0CDD1CF601E95AF94F80819181CD
:10353000892B09F08DC060E08DEF9FE00E946392BF
:10354000811186C0113019F088E49AE002C087EC3E
:103550009AE0BE0148960E940B968091570B8E7F91
:103560008093570B73C00E94A21091E0811190E0EC
:1035700060E0892F0E94E02C69C064E070E085EA79
:1035800096E00E94AD19FC0160816170113019F064
:1035900088E49AE002C087EC9AE00E944E9456C0FC
:1035A00064E070E085EA96E00E94AD19FC0180813C
:1035B00081700E9409364AC00E943928182F88233A
:1035C00009F444C064E070E085EA96E00E94AD1919
:1035D000FC01C081EC2EF12C65E070E085EA96E0FC
:1035E0000E94AD19FC019081C92FD0E0DC2FCC27BF
:1035F000CE0DDF1D2097D1F080915B0690915C0687
:10360000892B39F460E08DEF9FE00E94639288235C
:1036100069F080915B0690915C06009731F464E656
:1036200070E08CE591E00E947392EC01BE0183EFA3
:1036300099E00E940B9661E083E299E00E940436D3
:103640008091570B8E7F8093570B14C011E012C0EE
:10365000F601E95AF94F80819181009749F4C70139
:10366000880F991F66EE70E0885A9E4F0E947392F1
:10367000EC0168CF812FDF91CF911F91FF90EF90E8
:10368000DF90CF9008952F923F924F925F926F926A
:103690007F928F929F92AF92BF92CF92DF92EF92E2
:1036A000FF920F931F93CF93DF93CDB7DEB7C7552C
:1036B000D1090FB6F894DEBF0FBECDBF0E94D63B36
:1036C0008823B9F08091A7069091A8062091A506BD
:1036D0003091A6062817390751F10E94253C88230E
:1036E00031F10E94283C682F85EA96E00E94BB19C0
:1036F000E9CF0E94BE73882309F446C08091A706D3
:103700009091A8062091A5063091A60628173907A2
:1037100009F460C50E94CC73882309F45BC50E943C
:10372000DA73682F85EA96E00E94BB19E7CF0E9402
:10373000253C811129C080910202882309F440C5EB
:103740009091A30691113CC591E09093B20881300D
:1037500009F02EC586E49BE19093A2068093A10612
:103760000E94271060E08FEF0E94666F1092A806FB
:103770001092A7061092AA061092A9061092AD0602
:103780001092AE060E94C42C809187069091880604
:10379000A0918906B0918A06892B8A2B8B2B19F16F
:1037A0008091860681111FC0CE0101960E94366A63
:1037B00062E070E0CE0101960E94E23ADC014D9198
:1037C0005D916D917C918091870690918806A09182
:1037D0008906B0918A06481759076A077B071CF4C7
:1037E00081E0809386068091870690918806A0915B
:1037F0008906B0918A06892B8A2B8B2B79F18091CF
:103800008606882359F10E94A210811127C0CE019B
:1038100001960E94366A62E070E0CE0101960E9435
:10382000E23AFC0140815181628173818091870677
:1038300090918806A0918906B0918A064817590789
:103840006A077B075CF060E070E0CB010E94BA1071
:1038500060E081E00E94E02C0C941E251091A306EC
:10386000123020F00E9421170C941E251130F9F41B
:103870008091A00681110C941E2580919F068111D4
:103880000C941E258FEA99E00E9402D1882311F43E
:103890000C941E251093A0060E94271021E040E002
:1038A00060E080E00E94397660E088EFB4C48091E7
:1038B0004006833071F40E949B68882341F084E3C2
:1038C00096E00E9402D1882321F00E942573109275
:1038D00040068091B1088823E1F08091B0088823E8
:1038E000C1F0809140068330A1F08091A306811140
:1038F00010C00E94A21081110AC088E698E190933E
:10390000A2068093A10661E081E00E94E02C109263
:10391000B10880914006813031F40E949B6881118A
:1039200002C01092400680914006823039F48AE34A
:1039300096E00E9402D181111092400680914006CB
:10394000843009F052C08EE296E00E9402D18823B2
:1039500049F020E040E06EE17AE183E299E00E94E4
:10396000D63420C08091A406813019F088E49AE012
:1039700002C087EC9AE048960E940797811115C013
:1039800080914106882371F08091A406882319F064
:1039900088E49AE002C087EC9AE048960E94079774
:1039A000811123C01092400620C08091A40681306E
:1039B00019F088E49AE002C087EC9AE048960E94E9
:1039C000DB96882391F080914106882359F38091FA
:1039D000A406882319F088E49AE002C087EC9AE0F4
:1039E00048960E94DB968111DDCF8091400685309C
:1039F000E1F48EE296E00E9402D1882349F020E0B3
:103A000040E069EE79E183E299E00E94D63406C491
:103A100083EF99E00E940797882309F4FFC383EF9F
:103A200099E00E94DB968111F9C3809140068630AF
:103A300091F588E296E00E9402D1882391F080916E
:103A4000260681FF06C060E083E299E00E941838F4
:103A500022C0109240068091570B8F7E8093570BA7
:103A60001AC087EC99E00E94BE9B8823A1F0809148
:103A7000260682FF04C087EC99E00E94529A0E94B9
:103A8000F9378091570B8F7E8093570B8FEF0E94F1
:103A9000D77510924006809140068111CFC7809162
:103AA000A7069091A806892B09F4C8C783E299E07C
:103AB0000E94DF3460E070E085EA96E00E94AD1974
:103AC000DC011C911B3809F4ACC31E3809F43FC655
:103AD0001B3909F4CDC4193809F48AC3163809F41E
:103AE0009FC71C3809F44EC70DE7010F1C3909F4B4
:103AF000B6C0103909F4B3C0023008F4B0C01838A9
:103B000009F4ADC0143941F48091A7069091A8063C
:103B1000059708F493C708C0163909F4A0C00E949D
:103B2000155281112DC08AC70E94041A0E94041ADE
:103B3000809327060E94081A8C010E94041A809321
:103B400026060115110571F0D80120E432E44FE09A
:103B500050E00E947CD7AB01BC0188E296E00E9455
:103B6000CED06CC0CE0101960E94CBD086E0FE0183
:103B70003196A8E2B6E001900D928A95E1F75EC019
:103B8000153809F42DC4153909F069C08091A706CC
:103B90009091A806069708F451C70E94041A0E9443
:103BA000041A182F0E94041AE82E0E94041A082FE3
:103BB0000E94041AF82E10FD04C08FE499E00E94C0
:103BC0008FC0E09252090093530965EA76E08FE4D2
:103BD00099E00E9418CA11FF31C7E091E109EE0F88
:103BE000FF0BED52F64F808191818F54994009F47B
:103BF00010C46FE479E087EC99E00E949699147004
:103C0000F1100CC4112309F419C7FF2009F40EC4E4
:103C1000AF2DB0E020E432E44FE050E00E947CD7CA
:103C2000AB01BC0188E296E00E94CED081E0809397
:103C30002706809126068470809326060E94EF371F
:103C40006091270687EC99E00E94BB9B8091570BFF
:103C500080618093570B86E080934006EFC6023068
:103C600060F58091A7069091A806089708F4E6C62B
:103C70000E94041A0E94041A082F0E94161A6B014F
:103C80007C010E94081A23E020934006DC0120E416
:103C900032E44FE050E00E947CD7AB01BC0184E3EA
:103CA00096E00E94CED081E0143809F080E0A701B0
:103CB0009601602F0E94AF6EC1C6173829F580911A
:103CC000A7069091A806069708F4B8C684E08093EA
:103CD000400681E08093B0080E94041A0E94041AF2
:103CE0008093A4060E94081A0E94081ADC0120E4AE
:103CF00032E44FE050E00E947CD7AB01BC018EE281
:103D000096E00E94CED09AC61D3891F48091A70605
:103D10009091A806069708F491C685E08093400626
:103D200081E08093B0080E94041A0E94041ADACF3E
:103D30001F3809F03FC08091A7069091A80602970E
:103D400008F47CC60E94041A0E94041AC82ECE01F0
:103D500001960E94366A0EE010E0E12CF12CD12C85
:103D6000C6010E2C02C0959587950A94E2F780FF54
:103D700017C0B701CE0101960E94E93AFC0180818B
:103D80009181A281B3818D8B9E8BAF8BB88FF8947C
:103D900044E050E0B801CE0145960E94C8D978941D
:103DA000FFEFEF1AFF0A0C5F1F4F25E0E216F10448
:103DB000B9F644C6103909F05FC08091A70690910A
:103DC000A806029708F43AC60E94041A0E94041A30
:103DD000C82ECE0101960E94366A0EE010E0E12C5A
:103DE000F12CD12CC6010E2C02C0959587950A9412
:103DF000E2F780FF0CC0F894B701CE0101960E9453
:103E0000E93A44E050E0B8010E94A4D978943FEF29
:103E1000E31AF30A0C5F1F4F43E0E416F10411F7B5
:103E200063E070E0CE0101960E94E93AFC018081D6
:103E30009181A281B38180935E0690935F06A093E7
:103E40006006B093610664E070E0CE0101960E94C6
:103E5000E93AFC0180819181A281B381809362065D
:103E600090936306A0936406B093650661E0CE016B
:103E700001960E94AD69E2C5113999F48091A706B7
:103E80009091A806039708F4D9C50E94041A0E94CD
:103E9000041A182F0E94041A682F812F0E94966F0F
:103EA000CDC5123921F58091A7069091A8060697F5
:103EB00008F4C4C50E94041A0E94041A182F0E9414
:103EC000041A66968FAF66970E94041A65968FAFA4
:103ED00065970E94041A0E94041A65964FAD659773
:103EE00066966FAD6697812F0E943276A7C513390B
:103EF000B1F48091A7069091A806069708F49EC594
:103F00000E94041A0E94081A8C010E94081A7C015F
:103F10000E94041AB701C8010E94D7398FC518380A
:103F200009F062C08091A7069091A806049708F452
:103F300085C563E070E085EA96E00E94AD192091A6
:103F4000A7063091A806DC01EC90F12CB4E0EB0E52
:103F5000F11C2E153F0508F471C580914106882398
:103F600039F080910002882319F01092000203C0FA
:103F700081E08093000262E070E085EA96E00E94B2
:103F8000AD19FC018081833059F062E070E085EA70
:103F900096E00E94AD19DC018C918C3009F01CC2B6
:103FA0008091000281110DC061E070E085EA96E029
:103FB0000E94AD19FC0181E09081992319F080E005
:103FC00001C08FEF0E943C1A80910002882309F4FF
:103FD00035C510E0812F90E08E159F0508F02EC5A5
:103FE0000E94041A1F5FF6CF163909F041C0809174
:103FF000A7069091A806039708F420C50E94041A0A
:104000000E94041A809301020E94041A8091010206
:104010008823F1F08091470690914806A0914906C7
:10402000B0914A06892B8A2B8B2B91F480914606FE
:1040300081110EC00E94DB2B6093470670934806E7
:104040008093490690934A06809101028093460628
:1040500080910102882309F4F1C40E94DB2B609354
:104060004206709343068093440690934506E6C447
:104070001739B9F48091A7069091A8060297B8F174
:104080000E94041A0E94041A811102C084E006C032
:10409000813019F40E94383A2AC082E00E94733AB3
:1040A00026C0183999F48091A7069091A806029726
:1040B00008F4C4C40E94041A0E94041A0E943727FC
:1040C00060E083E299E00E941838B8C4193991F48D
:1040D0008091A7069091A806059708F4AFC40E94A6
:1040E000041A0E94161A85EA96E00E943530109252
:1040F000B008A4C41A3971F48091A7069091A8065B
:10410000029708F49BC40E94041A0E94041A0E9499
:104110003E2CEDCF1C3999F48091A7069091A8060A
:10412000029708F48BC40E94041A0E94041A91E0BA
:10413000813009F090E0892F0E94A66F7FC41D395D
:10414000A1F48091A7069091A806459708F476C43B
:104150000E94161A0E94161A0E94161A0E94161A17
:104160000E94161A0E94041A69C41E3909F066C416
:104170008091A7069091A806059708F45FC40E9455
:10418000041A0E94161A6B017C012FE632E143E803
:104190005AE30E9435D487FF03C0C12CD12C76018D
:1041A00042E0C701B6010E9434680E94BA1046C4BA
:1041B0008B3019F485EE9AE1CFCA83E39BE1CCCA38
:1041C0008091A1069091A206892B09F0DDCA0E9478
:1041D000373CDACA0E94CC738111D6CA8091A706F7
:1041E0009091A806892B09F0CFCA0E941574CCCAF9
:1041F0008091A7069091A806029708F41FC40E9418
:10420000041A0E94041A9091410691111DC1682F51
:10421000661F6627661F0E94666F10C410924006D4
:1042200004CC8091A7069091A806499708F406C48B
:104230000E94041A81E0809340060E94161A6D8F36
:104240007E8F8F8F98A30E94161A69A37AA38BA3DF
:104250009CA30E94161A6DA37EA38FA398A70E9409
:10426000161A4B01382E292E0E94161A2B013C01DA
:104270000E94161A69A77AA78BA79CA7809141066E
:10428000882359F08091A406882321F04201362C1E
:10429000272C03C02401632C722C80925E0690921E
:1042A0005F063092600620926106809162069091CE
:1042B0006306A0916406B091650693018201081B14
:1042C000190B2A0B3B0BD901C80168017901FF0CBE
:1042D000CC08DC2C76019801AD016C2D7C2D8C2D49
:1042E0009C2DA0907E06B0907F06C0908006D09056
:1042F0008106E0908206F09083060091840610917A
:1043000085060E9408D920937E0630937F0640934D
:104310008006509381066093820670938306809393
:1043200084069093850640926206509263066092DE
:104330006406709265060E9418107F926F925F92D9
:104340004F92A32CB22CCDA0DEA0EFA0F8A409A11F
:104350001AA12BA13CA14D8D5E8D6F8D78A1CE0150
:1043600001960E94AE3AE12C00E010E0980149A5C8
:104370005AA56BA57CA527C00E941810BDA5BF93A8
:10438000E9A5EF936F92FDA1FF93AD8CB9A02296A2
:10439000CCACDDACEEACFFAC22970AAD1BAD2CADC6
:1043A0003DAD4EA95FA968AD79ADCE0101960E94E1
:1043B000AE3AE72C26960CAD1DAD2EAD3FAD26973F
:1043C00040E050E0BA01CE0101960E945D6B0F9073
:1043D0000F900F900F9032C381E080930002E0CDE8
:1043E0008091A7069091A806059708F427C382E05C
:1043F000809340060E94041A0E94161A9B01AC0189
:10440000A8EEB3E00E947CD7AB01BC018AE396E042
:1044100078CC8FE499E00E94CEC0F1CB1111F2CBA1
:104420006F2D8FE499E00E94BEC008C3CE010196B3
:104430000E94CBD086E0FE013196A8E2B6E0019062
:104440000D928A95E1F7F2CB9091A406911107C0E5
:10445000982F9F7E83FF0AC0892F8061D8CE982F26
:10446000977F84FF03C0892F8860D1CE892FCFCE5C
:104470008091A7069091A806809708F4DFC20E9459
:10448000041A81E0809340060E94161A22966CAFAF
:104490007DAF8EAF9FAF22970E94161A26966CAF03
:1044A0007DAF8EAF9FAF26970E94161A2A966CAFEB
:1044B0007DAF8EAF9FAF2A970E94161A69A37DA386
:1044C00089A79DA70E94161A6EA778AB8AAB9EABF0
:1044D0000E94161A2E966CAF7DAF8EAF9FAF2E97AF
:1044E0000E94041A182F0E94161A62966CAF7DAFB4
:1044F0008EAF9FAF62970E94081A64969FAF8EAFEF
:10450000649780914106811103C01F771D8F35C0CC
:104510008091A406811110C0012F0F760D8F13FF1B
:104520001BC000610D8F19A11EA72DA128AB39A5B5
:104530003AAB4DA54EAB21C0512F57775D8F14FF7D
:1045400014C058605D8F8EA589A398A99DA3AAA9C0
:10455000A9A7BEA9BDA711C0E9A1EEA7FDA1F8AB0F
:1045600009A50AAB1DA51EAB08C02EA529A338A915
:104570003DA34AA949A75EA95DA789A18D8B9DA1ED
:104580009E8BA9A5AF8BBDA5B88FEEA5E98FF8A925
:10459000FA8F0AA90B8F1EA91C8FE6E7F6E02E0101
:1045A00025E1420E511CAEE5B6E06896BFAFAEAF56
:1045B00068971BAE1AAEBD8D2B2E312C8AAD9BADEC
:1045C0000396810102C0159507958A95E2F7D201FD
:1045D0006D907D908D909C9000FF31C074016301BF
:1045E000FF0CCC08DC2C76019301A4016C2D7C2DF2
:1045F0008C2D9C2DA080B180C280D380E480F5807A
:10460000068117810E9408D9208331834283538316
:1046100064837583868397836896AEADBFAD6897D4
:104620004D915D916D917C911397460D571D681DBD
:10463000791D4D935D936D937C93139734C0689669
:10464000AEADBFAD68974D915D916D917C91139723
:1046500094018301041B150B260B370BC901B8010C
:1046600068017901FF0CCC08DC2C76019B01AC01C0
:104670006C2D7C2D8C2D9C2DA080B180C280D38090
:10468000E480F580068117810E9408D92083318358
:104690004283538364837583868397836D927D926F
:1046A0008D929C9213973896B4E04B0E511C6896ED
:1046B000AEADBFAD689714966896BFAFAEAF6897C2
:1046C000AAADBBAD119729F0A1E0B0E0BBAFAAAF96
:1046D00075CF0E9418107090E115BD8D7B2AEEA950
:1046E000EF93FAA9FF9308A90F931EA51F9389A022
:1046F0009DA0A9A4BDA42A96CCACDDACEEACFFACC9
:104700002A9726960CAD1DAD2EAD3FAD269722966D
:104710004CAD5DAD6EAD7FAD2297CE0101960E948E
:10472000AE3A6496CEACDFAC64976296ECACFDAC6E
:104730000EAD1FAD6297272D2E964CAD5DAD6EADC3
:104740007FAD2E97CE0101960E94AA6C40CE80913B
:10475000A7069091A8064A9708F470C10E94041A0F
:1047600081E0809340060E94161A6EAB7FAB88AF43
:1047700099AF0E94161A6AAF7BAF8CAF9DAF0E94B3
:10478000161A22966CAF7DAF8EAF9FAF22970E9414
:10479000161A4B018D8F99A30E94161A6DA3672ECE
:1047A00089A79DA70E94161A26966CAF7DAF8EAF83
:1047B0009FAF26970E94041A782E80914106882385
:1047C00069F18091A40681110DC0872D8F7E73FE43
:1047D00016C08061782E8DA2692C1D8D19A729A184
:1047E0002DA71CC0872D877F74FE11C08860782E8E
:1047F0008DA0962C39A53D8F4DA549A30FC0782ECD
:104800008DA2692C5D8D59A789A18DA707C0782E2F
:104810008DA0962C99A59D8FADA5A9A38D8A9E8A62
:10482000BD8DBF8BE9A1E88FFDA1F98F6A8E09A527
:104830000B8F1DA51C8FE6E7F6E0DE015596BFA79E
:10484000AEA7AEE5B6E02C96BFAFAEAF2C9719AAD7
:1048500018AAA72DB0E02896BFAFAEAF289788A9B9
:1048600099A903962896AEADBFAD289702C0B5951D
:10487000A7958A95E2F7CD01AEA5BFA52D903D90F5
:104880004D905C9080FF31C072016101FF0CCC083B
:10489000DC2C76019101A2016C2D7C2D8C2D9C2DA0
:1048A000A080B180C280D380E480F580068117812A
:1048B0000E9408D9208331834283538364837583A4
:1048C000868397832C96AEADBFAD2C974D915D91AD
:1048D0006D917C911397420D531D641D751D4D9371
:1048E0005D936D937C93139734C02C96AEADBFADA2
:1048F0002C974D915D916D917C911397920181015F
:10490000041B150B260B370BC901B801680179018F
:10491000FF0CCC08DC2C76019801AC016C2D7C2DB1
:104920008C2D9C2DA080B180C280D380E480F58046
:10493000068117810E9408D92083318342835383E3
:1049400064837583868397832D923D924D925C920A
:1049500013973896AEA5BFA51496BFA7AEA72C9601
:10496000AEADBFAD2C9714962C96BFAFAEAF2C97C3
:10497000A8A9B9A9119709F4FFCCA1E0B0E0B9AB9F
:10498000A8AB6DCF8091A7069091A806459708F433
:1049900055C00E94041A0E94161A2B013C010E9465
:1049A000161A6D8F7E8F8F8F98A30E94161A6B0137
:1049B0007C010E94161A4B015C010E94161A20917C
:1049C0004106222349F02091A406222319F04B012D
:1049D0005C0102C0B401C50180925E0690925F0640
:1049E000A0926006B09261066093620670936306BF
:1049F00080936406909365069F938F937F936F9344
:104A00000D8D1E8D2F8D38A1B301A201CE0101960F
:104A10000E94AE3A60E0CE0101960E94AD69D7CC0B
:104A20008091A7069091A806029740F00E94041A70
:104A30000E94041A8093A4060E94A96FC95ADF4FEE
:104A40000FB6F894DEBF0FBECDBFDF91CF911F919F
:104A50000F91FF90EF90DF90CF90BF90AF909F901D
:104A60008F907F906F905F904F903F902F90089520
:104A700040E063E579E183EB98E00E944ACDE5EA06
:104A8000F6E080E092E091838083138212821582A7
:104A900014828FEA96E097838683108611868BE8CE
:104AA00096E00E94AD3A8AE396E00E94CBD084E380
:104AB00096E00E94CBD08EE296E00E94CBD088E2B6
:104AC00096E00C94CBD0CF93DF931F921F92CDB77B
:104AD000DEB721E0298322E32A8342E050E0BC01D3
:104AE000CE0101960E94C8D90F900F90DF91CF910F
:104AF0000895CF93DF93EC0140E050E060EE70E466
:104B00000E94FD9246E656E666EA7EE3CE010296F4
:104B10000E94FD9240E050E060E172E4CE01049614
:104B2000DF91CF910C94FD92CF93DF93EC010A9625
:104B30000E947925CE0140960E947925CE014A96A1
:104B4000DF91CF910C9463250F931F93CF93DF9345
:104B500000D0CDB7DEB78C0167E00E94D2D961E00A
:104B6000C80102960E94D2D98FEF89838A838B83F2
:104B7000B8016C5F7F4F43E050E0CE0101960E9488
:104B8000C8D90F900F900F90DF91CF911F910F9187
:104B9000089567E080E491E00C946392682F80E4CC
:104BA00091E00C94D2D90F931F93CF93DF9300D051
:104BB0001F92CDB7DEB7082F162F68E080E491E092
:104BC0004C830E94D2D909831A834C814B8343E0E2
:104BD00050E064E471E0CE0101960E94C8D90F90C4
:104BE0000F900F900F90DF91CF911F910F9108952B
:104BF000CF92DF92EF92FF92CF93DF936B017C0114
:104C0000EA01CA010E94E8D9B701CE010496DF91FA
:104C1000CF91FF90EF90DF90CF900C94E8D9AC014A
:104C20006BE770E084EF91E00E94F8250895CF9340
:104C3000DF93EC0166EE70E00E94E8D966EE70E06A
:104C4000CE0102960E94E8D964E670E0CE01049697
:104C50000E94E8D965E0CE010696DF91CF910C94D1
:104C6000D2D961E08EE691E00E94D2D968EE73E07D
:104C700082E791E00E94E8D968EE73E084E791E072
:104C80000E94E8D966E970E086E791E00E94E8D9E1
:104C900060ED77E088E791E00E94E8D960ED77E089
:104CA0008AE791E00E94E8D96FE070E08CE791E03C
:104CB0000E94E8D96FE070E08EE791E00E94E8D9A9
:104CC0006AE070E080E891E00E94E8D964E170E079
:104CD00082E891E00E94E8D964E170E084E891E024
:104CE0000E94E8D944EF51E060E070E088ED91E087
:104CF0000E94E0D94CE755E160E070E08CED91E076
:104D00000E94E0D960E170E080EE91E00E94E8D975
:104D100060E170E082EE91E00E94E8D960E08BE013
:104D200092E00E94D2D961E084EE91E00E94D2D953
:104D300060E888E891E00C94D2D9CF93DF93CDB7A7
:104D4000DEB764970FB6F894DEBF0FBECDBF84E127
:104D5000EFEBF2E0DE01119601900D928A95E1F7FA
:104D600044E150E06EE070E0CE0101960E94C8D9A7
:104D700064960FB6F894DEBF0FBECDBFDF91CF9122
:104D80000895CF92DF92EF92FF920F931F93CF93EC
:104D9000DF93CDB7DEB764970FB6F894DEBF0FBED2
:104DA000CDBF7C0128E0E3EDF2E0DE011D9601902D
:104DB0000D922A95E1F74CE050E06EE070E0CE01F4
:104DC00001960E94A4D96E018DE0C80ED11C870106
:104DD000F12C48E050E0B801F601819191916F010A
:104DE0000E94C8D94CE050E0B801685F7F4FCE0107
:104DF00001960E94C8D966EE70E0C80144960E94F0
:104E0000E8D966EE70E0C80146960E94E8D9F1E064
:104E1000FF1619F064E670E002C06DE270E0C801B0
:104E200048960E94E8D9F394065E1F4F84E0F8127A
:104E3000D0CF6CEA8CEF9FE00E94D2D964960FB677
:104E4000F894DEBF0FBECDBFDF91CF911F910F91C0
:104E5000FF90EF90DF90CF900895813009F082E0CD
:104E6000682F82E490E00E94D2D90C949D260F9383
:104E70001F93CF93DF93CDB7DEB76D970FB6F8943E
:104E8000DEBF0FBECDBF85E0EBEDF2E0DE01559653
:104E900001900D928A95E1F74BE050E062E270E0FC
:104EA0008BE393E00E94C8D945E050E066E070E0F3
:104EB000CE0145960E94C8D96FE984E090E00E9437
:104EC000D2D96BE18CE090E00E94D2D90E949D265D
:104ED00084E99FE00E94C126A89544E150E06CE877
:104EE00071E086E493E00E94C8D944E150E064EAAE
:104EF00071E08EE693E00E94C8D944E150E064EF8F
:104F000071E08AE593E00E94C8D90E94312681ECC5
:104F100093E29B8F8A8F84E193ED9D8F8C8F44E089
:104F200050E064E470E0CE014A960E94C8D980E067
:104F300091E00E9494258CE191E00E94942500E08C
:104F400010E020E030E040E050E060E070E088EC0D
:104F500091E00E94899320E030E040E050E060E082
:104F600070E080ED91E00E94899380E491E00E94DE
:104F7000A4258AE491E00E940F2688E591E00E9432
:104F8000172661E080E691E00E94D2D960E08DEFC3
:104F90009FE00E94D2D960E08EEF9FE00E94D2D9BC
:104FA00060E08FEF9FE00E94D2D961E082E99FE04C
:104FB0000E94D2D960E081E99FE00E94D2D980E0CE
:104FC0000E942D2761E08CE490E00E94D2D960E03D
:104FD0008FE89FE00E94D2D960E08EE89FE00E94B7
:104FE000D2D988EC90E0A0E0B0E089839A83AB83CB
:104FF000BC8344E050E066E67FE08E010F5F1F4F08
:10500000C8010E94C8D963E084E69FE00E94D2D91B
:1050100064E683E69FE00E94D2D984E1F801119210
:105020008A95E9F744E150E069E47FE0C8010E9415
:10503000C8D960E080E99FE00E94D2D960E088E4AE
:105040009FE00E94D2D96D960FB6F894DEBF0FBED6
:10505000CDBFDF91CF911F910F91089561E082E460
:1050600090E00E94639291E0823009F490E0892FF1
:10507000089561E08CE490E00E94639291E08130B9
:1050800009F090E0892F0895CF93DF93CDB7DEB775
:105090002C970FB6F894DEBF0FBECDBF81E89CE021
:1050A000A0E0B0E089839A83AB83BC831D821E821B
:1050B0001F82188619861A861B861C864CE050E0D3
:1050C00062E671E0CE0101960E94C8D92C960FB617
:1050D000F894DEBF0FBECDBFDF91CF9108950F933F
:1050E0001F93CF93DF938C01EB0160E070E080EAC7
:1050F00091E00E947392F8019183808360E082EADC
:1051000091E00E9463928883DF91CF911F910F916C
:105110000895CF93C62FBC0180EA91E00E94E8D9A0
:105120006C2F82EA91E0CF910C94D2D9FF920F9329
:105130001F93CF93DF9300D0CDB7DEB78C01F62E4F
:10514000BE016D5F7F4FCE0101960E946F289B814B
:105150002F2D290F822F6CE30E94F0D69B832D33D5
:1051600030F029813A81280F311D3A832983298122
:105170003A81692FC801820F931F0E9489280F90DE
:105180000F900F90DF91CF911F910F91FF90089595
:105190000F931F9367E182E090E00E94D2D980E0F4
:1051A0000E942D270E94442860E080E090E00E9449
:1051B000892861E088E092E00E94D2D900E010E006
:1051C00020E030E040E050E060E070E088EB91E00B
:1051D0000E94899320E030E040E050E060E070E021
:1051E00080EC91E00E9489931F910F910C943727D6
:1051F00067E080E491E00E946392873041F061E0D3
:1052000082E491E00E94639291E0873009F490E09B
:10521000892F089540E063E579E188EB98E00C94EC
:105220004ACDCF92DF92EF92FF920F931F93CF93CD
:10523000DF93EC018881811102C080E034C08B01D2
:1052400060E0CE010E94B6CC87FFF7CF0E94D63B2C
:10525000811104C00E94BE73882331F06AE8C8013E
:105260000E9400CD81E01FC0F894E8800E942D10BC
:10527000F12C8E159F0588F0C12CD12CCE14DF04A3
:1052800054F46C2DCE010E94B6CC0E94DA198FEF37
:10529000C81AD80AF3CF61E801C062E8C8010E94C9
:1052A00000CD7894DFCFDF91CF911F910F91FF90C8
:1052B000EF90DF90CF90089586E08093CD0881E055
:1052C0008093BD0808950F931F93CF93DF93CDB7BD
:1052D000DEB765970FB6F894DEBF0FBECDBF8C0169
:1052E000F894BE016B5E7F4FCE0101960E94CA6AA0
:1052F00061E8C8010E9400CD60E070E0CE01019637
:105300000E94E23AFC014081518162817381C801AF
:105310000E9417CD61E070E0CE0101960E94E23A52
:10532000FC014081518162817381C8010E9417CDC7
:1053300062E070E0CE0101960E94E23AFC014081F9
:10534000518162817381C8010E9417CD0E94B86F9C
:10535000682FC8010E9400CD789465960FB6F89426
:10536000DEBF0FBECDBFDF91CF911F910F9108958A
:105370000F931F93CF93DF93CDB7DEB765970FB62B
:10538000F894DEBF0FBECDBF8C01F894BE016B5EFA
:105390007F4FCE0101960E94CA6A61E8C8010E944F
:1053A00000CD60E070E0CE0101960E94E23AFC017F
:1053B0004081518162817381C8010E9417CD61E0F3
:1053C00070E0CE0101960E94E23AFC0140815181D9
:1053D00062817381C8010E9417CD62E070E0CE0146
:1053E00001960E94E23AFC01408151816281738101
:1053F000C8010E9417CD63E070E0CE0101960E94C3
:10540000E23AFC014081518162817381C8010E94AE
:1054100017CD64E070E0CE0101960E94E23AFC01F3
:105420004081518162817381C8010E9417CD0E9421
:10543000B86F682F70E0C8010E9402CD789465961D
:105440000FB6F894DEBF0FBECDBFDF91CF911F9195
:105450000F910895DF92EF92FF920F931F93CF93D6
:10546000DF93CDB7DEB7A0970FB6F894DEBF0FBEBF
:10547000CDBF8C017B0161E8C7010E9400CD61E0D6
:10548000C8010E94B6CC882321F00E94F03C811113
:105490002BC09E01205E3F4F40E050E06FE1CE0107
:1054A00001960E94013D89818E3249F488A18823AA
:1054B00081F38A818E3269F78B818111EACF60E0B6
:1054C000C7010E9400CD8E010F5F1F4F8FE1D82EC4
:1054D000D00EF80161918F01662351F0C7010E943F
:1054E00000CDD012F6CF04C0682FC7010E9400CDB6
:1054F00060E0C7010E9400CDA0960FB6F894DEBF11
:105500000FBECDBFDF91CF911F910F91FF90EF9014
:10551000DF9008958F929F92AF92BF92CF92DF92C9
:10552000EF92FF920F931F93CF93DF93CDB7DEB728
:105530008C015B018DB69EB661E00E94BBCC6C0114
:1055400063E0C8010E94B6CC082F10E08DB79EB76B
:10555000801B910B0FB6F8949EBF0FBE8DBFEDB7A9
:10556000FEB731967F01A801B601CF010E94A4D9F0
:1055700061E8C5010E9400CD6701C6018E199F092F
:10558000801791073CF4F60161916F01C5010E94FB
:1055900000CDF3CF0FB6F8949EBE0FBE8DBEDF9147
:1055A000CF911F910F91FF90EF90DF90CF90BF9020
:1055B000AF909F908F9008952F923F924F925F925D
:1055C0006F927F928F929F92AF92BF92CF92DF9213
:1055D000EF92FF920F931F93CF93DF931F92CDB75C
:1055E000DEB76C015B012DB63EB661E00E94BBCC1C
:1055F0004C0163E0C6010E94B6CC8983082F10E0FD
:105600008DB79EB7801B910B0FB6F8949EBF0FBE4F
:105610008DBFEDB7FEB731967F01A801B401CF0170
:105620000E94A4D93701412C512C4016510664F434
:1056300064E0640DC6010E94B6CCF30181933F0182
:10564000FFEF4F1A5F0AF1CFDFB6F894A801B4015B
:10565000C7010E94C8D9DFBE61E8C5010E9400CD24
:105660006981C5010E9400CD0FB6F8943EBE0FBE01
:105670002DBE0F90DF91CF911F910F91FF90EF9072
:10568000DF90CF90BF90AF909F908F907F906F9062
:105690005F904F903F902F9008950F931F93CF935B
:1056A000DF938091ED08811111C00DEE18E0C2E288
:1056B000D0E060E0CE010E946392F80181938F01F7
:1056C0002196C233D105A9F71092FD088091ED080B
:1056D00081110DC0E0ECF4E0ADEEB8E08CE08A0F93
:1056E00094919D9331968A13FBCF1092F9088DEE19
:1056F00098E0DF91CF911F910F9108958091CD088F
:1057000008958091CC08089583E299E00E942133A6
:105710006093C7087093C8088093C9089093CA081B
:1057200081E08093CB0808951092C3081092C408BA
:105730001092C5081092C6080C94842B0F931F93E7
:105740008091CB08813089F483E299E00E94213373
:105750000091C7081091C8082091C9083091CA0863
:10576000601B710B820B930B03C060E070E0CB01F8
:105770001F910F9108950F931F930E949E2B0091EC
:10578000C3081091C4082091C5083091C608DC01F7
:10579000CB01800F911FA21FB31F8093C30890936A
:1057A000C408A093C508B093C60882E08093CB08D4
:1057B0001F910F9108950F931F930E949E2B0091AC
:1057C000C3081091C4082091C5083091C608600F25
:1057D000711F821F931F1F910F9108958F929F92A7
:1057E000AF92BF92FF920F931F93CF93DF932091BD
:1057F000CB0821110CC02091C1083091C208FC01D6
:10580000318320838091C008FB0180831DC08B0100
:10581000EC010E94DB2B4B015C0120E13EE040E00B
:1058200050E00E9424D7F22E28833983C501B401A9
:105830002CE330E040E050E00E9424D7FCE3FF9EE0
:1058400020191124F8012083DF91CF911F910F912E
:10585000FF90BF90AF909F908F90089560EC78E09C
:1058600081EC98E00E94EE2B1092CB086091C0086A
:105870008091C1089091C2080C9496280E942E2C09
:1058800060E088EF0E94666F81E00E94273680E02A
:105890000E94093682E08093CC081092CD080895CA
:1058A0000097C1F028E08E3C9207B1F0603208F01A
:1058B0006EE1DC014EEC58E0FA012E2F241B261776
:1058C00018F42D912193F9CFE62FF0E0E253F74F32
:1058D000108202C08EEC98E00E94CE3D8930A9F083
:1058E000811114C081E00E9427360E94BD110E94E0
:1058F00085700E9425731092FE0882E08093CD0887
:105900008091570B80688093570B80E00895109228
:10591000FE080E94F673882319F085E08093CD0875
:105920008091570B84608093570B0E94BD110E9499
:1059300025738FEF8093BE020895CF93C091CD0859
:10594000C13069F484E08093CD0840E452E46FE014
:1059500070E085E099E00E94CED0C093BD080E941F
:105960002E2C81E08093BF0840E45DE063E070E0AE
:105970008FEF98E00E94CED08FEF0E94D77584E021
:105980008093CC08CF91089585E08093CC0881E086
:105990008093FE080E9425738091570B8B7780625D
:1059A0008093570B0E94A210811108C00E94B3106F
:1059B000811104C060E081E00C9492100C949D2C45
:1059C0001F93CF93DF931F92CDB7DEB7182F698354
:1059D0000E94A21091E06981811101C090E0191725
:1059E000E9F069830E94B3106981811117C0812F8A
:1059F0000E949210112349F083E08093CC080F900D
:105A0000DF91CF911F910C94BB2B81E08093CC0848
:105A10000F90DF91CF911F910C94842B0F90DF9109
:105A2000CF911F910895EF92FF920F931F93CF9301
:105A3000DF93FC012081222309F4BAC0EB017C0131
:105A400061E00E94B6CC082F62E0C7010E94B6CC8C
:105A5000182F61E8CE010E9400CD103209F447C032
:105A600090F4123089F128F41111A2C064EC72E0B4
:105A70004AC0163199F11E3109F09AC06091FD09B2
:105A80007091FE0940C0133209F457C020F411325E
:105A900009F445C08DC0143209F455C0153209F01F
:105AA00087C040E050E0BA01CE010E9417CD40E02F
:105AB00050E0BA01CE010E9417CD40E050E0BA019B
:105AC000CE010E9417CD72C0013019F0E8E4FAE06F
:105AD00002C0E7ECFAE062A173A115C0013019F031
