:100000000C949E0F0C94D90F0C94D90F0C94D90F0B
:100010000C94D90F0C94D90F0C94D90F0C94D90FC0
:100020000C94D90F0C94D90F0C94D90F0C94D90FB0
:100030000C94D90F0C94DE340C94D90F0C94D90F76
:100040000C94D90F0C94D90F0C94D90F0C94D90F90
:100050000C94D90F0C94D90F0C94D90F0C94D90F80
:100060000C94D90F0C943FD00C94D90F0C946BD0F6
:100070000C94D90F0C94C1910C94D90F0C94D90FF6
:100080000C94B4340C94D90F0C94D90F0C94D90F50
:100090000C949FD00C94D90F0C94CBD00C94D90F06
:1000A0000C94D90F0C94D90F0C94D90F0C94D90F30
:1000B0000C94D90F0C94D90F0C94D90F0C940635CD
:1000C0000C94D90F0C94D90F0C94D90F0C94D90F10
:1000D0000C94D90F0C94D90F0C94D90F0C94D90F00
:1000E0000C94D90FD32D132E152EFB2D1F2ED82E89
:1000F000D82EFB2D482ED82E562E5B2E6F2E742E0A
:10010000D82ED82E272EFB2D432ED82EE12D232E90
:10011000792E8C2E932ED82ED82EB82EDE76A5765C
:10012000B076A2769F76B276D176B576F3BE10BF62
:100130001DBF46BF65BF78BF86BFBBBF0C94D2A1B1
:100140000C94F3BE0C9461CC0C9461A60C948EB903
:100150000C949DA50C946EA00C9426B30C94B076D0
:100160000C94F1AB0C9452910C94B5760C94EBA1D9
:100170000C94C3A00C94E6A10C94D8AF0C948BA162
:100180000C94308C0C9433770C949BA00C9429A97C
:100190000C94DBB10C947BC10C942BCE0C94A8A2D4
:1001A0000C9473C80C9446AB0C94F0A10C941BB542
:1001B0000C94CFA20C94D5B60C942E950C94BEA0A2
:1001C0000C942BB10C94B4A10C9465A20C942477DC
:1001D0000C94DCA80C945EA70C9482A00C94D82EEE
:1001E0000C9460A00C94C6AC0C94C8A00C9487A08E
:1001F0000C941BB70C94BEC60C9441770C9476CE2D
:100200000C9410BF0C94EB910C944B910C94272EF2
:100210000C94FFA50C9409C50C94B2760C9443C6BB
:100220000C944FB60C94BEA20C9482950C94B82EEC
:100230000C946F2E0C94932E0C94B4A00C94EAAAF8
:100240000C947FC30C94D32D0C9426310C94482E1F
:100250000C94AF770C9447AE0C94D3C80C94A29036
:100260000C940CC70C94CDA00C944CAD0C94132E94
:100270000C949FCE0C94A5760C943ABD0C940B77FD
:100280000C9480C40C949BA50C94D1760C94B2CFA2
:100290000C94FFD00C945CC40C945CA60C9492D685
:1002A0000C94232E0C9495A70C9412C40C948AA63B
:1002B0000C94432E0C94BBBF0C9416B20C94D7A094
:1002C0000C943DCF0C9404770C9473940C94A4A6D6
:1002D0000C94742E0C94BFAE0C940CD10C944A77F1
:1002E0000C9452A50C948AB10C94E3A10C94A3B283
:1002F0000C9464AF0C945B2E0C9440BB0C94A1A1A5
:100300000C9495B00C9405250C9449B50C9404A25A
:100310000C94E12D0C94368A0C9488CC0C94F8C083
:100320000C9473A60C945F3A0C9484A30C943FAC89
:100330000C94A2760C9455680C948AA10C94152EFA
:100340000C94DCA00C942DA80C948D9C0C94BE995C
:100350000C94E9A20C94EA3D0C947DA00C948D922F
:100360000C94FB2D0C9482B00C949EA10C94C5A10E
:100370000C9491A00C946EAA0C94AFA00C94B9A00C
:100380000C94019D0C9496A00C94F7A80C9456CC58
:100390000C94BCA10C941F2E0C94D5BB0C942AB4C5
:1003A0000C942E310C9434CC0C94BEBB0C9465C5CB
:1003B0000C9417BE0C94B38E0C94CCB20C9457C210
:1003C0000C948CA00C948EA50C94AAA00C94D8A983
:1003D0000C94A87B0C9433650C94A0A00C9486BF5D
:1003E0000C94D2A00C9472AD0C9478A00C94BAA486
:1003F0000C94F1B00C9473A00C94DA370C9407A30E
:100400000C9410B50C941FA50C9416B80C94DE76C1
:100410000C94562E0C94A5A00C9427310C9492A801
:100420000C9430B60C9492A20C94567F0C94D7285E
:100430000C94792E0C9455CD0C9422730C94893F16
:100440000C9465BF0C949BA70C949F760C948C2EF7
:100450000C94F18A0C9423CE0C947EC20C9410C59B
:100460000C94EC740C9457B40C9440300C94FEB182
:100470000C94DD730C9460C50C941ECC0C9478BF66
:100480000C942F770C94069A0C94C1A10C9455A649
:100490000C9467A00C94F1520C94B3C70C941DBF3C
:1004A0000C94EFA10C94418F0C94C9A10C9446BFFD
:1004B0005265706C6963617430722031001704C832
:1004C000000000DC0027056400000078007505C806
:1004D000000000DC002006640000007800E006C890
:1004E000000000DC002006C8000000DC002006C878
:1004F000000000DC002D08C80000000000C00DC88E
:100500000000001400C00DC800000014005A10C8FC
:100510000000001400C00D90010000000070039066
:1005200001000014005504C800000014002705C88D
:1005300000000014007003900100000000C805C80E
:100540000000001400C805C80000001400C805C859
:100550000000001400DD04B004000014007505C89C
:1005600000000014007505C800000014007505C8DF
:1005700000000014009704B00400000000C00DC883
:100580000000001400C00DC80000001400910E907F
:1005900001000014005A10900100001400C00D204A
:1005A00003000000007003BC000000BC00E006BCBB
:1005B000000000BC00B807BC000000BC002D08BC57
:1005C00000A908BC000000BC00C00D4D01000000E7
:1005D00000C00D20010000BC005311BC000000BC95
:1005E000005B12B101000000009302690000006985
:1005F00000EE016900000069002601B8010000005A
:100600000024F4D43050C38E20C2A24017828B70D5
:1006100011127A910D816CD90AA861E108C7586658
:1006200007615143061E4B5D05C145A7041A4111E0
:1006300004093D9803713931034036DB026533917B
:1006400002D4305402802E1D02632CEE01752AC59F
:1006500001B028A001102781018F2564012B244BB4
:1006600001E0223401AC211F018D200D01801FFC0F
:1006700000841EED00971DDF00B81CD200E61BC6EB
:1006800000201BBC00641AB200B219A8000A19A00D
:10069000006A189900D117910040178B00B5168495
:1006A0000031167E00B31579003A157300C7146F38
:1006B0000058146A00EE1366008813630025135E69
:1006C00000C7125B006C12570015125400C1115183
:1006D0000070114F0021114B00D61049008D1047BA
:1006E000004610440002104200C00F4000800F3E40
:1006F00000420F3C00060F3B00CB0E3800930E3734
:10070000005C0E3500270E3400F30D3200C10D31B0
:1007100000900D3000600D2E00320D2D00050D2CC7
:1007200000D90C2B00AE0C2900850C29005C0C278D
:1007300000350C27000E0C2600E80B2400C40B2407
:1007400000A00B23007D0B23005A0B2100390B2145
:1007500000180B2000F80A1F00D90A1E00BB0A1E51
:10076000009D0A1D00800A1D00630A1C00470A1B29
:10077000002C0A1B00110A1A00F7091A00DD0919DA
:1007800000C4091900AB091900920917007B091868
:1007900000630917004C09160036091600200916D7
:1007A000000A091500F5081500E0081400CC08142B
:1007B00000B8081400A4081400900813007D081263
:1007C000006B081300580812004608120034081184
:1007D00000230811001208110001081100F0071091
:1007E00000E0071000D0071000C0071000B0070F8E
:1007F00000A107100091070E0083070F0074070F78
:100800000065070E0057070E0049070E003B070D55
:10081000002E070E0020070D0013070D0006070D20
:1008200000F9060C00ED060D00E0060C00D4060CE5
:1008300000C8060C00BC060C00B0060C00A4060B99
:100840000099060C008D060B0082060B0077060B44
:10085000006C060B0061060A0057060B004C060AE6
:100860000042060A0038060A002E060A0024060A7C
:10087000001A060A001006090007060A00FD05090D
:1008800000F4050900EB050900E2050900D9050996
:1008900000D0050900C7050900BE050900B5050817
:1008A00000AD050800A50509009C05080094050891
:1008B000008C050800840508007C05080074050804
:1008C000006C050700650508005D05070056050872
:1008D000004E0507004705070040050800380507DA
:1008E00000310507002A050700230507001C05063F
:1008F00000160507000F050700080506000205079A
:1009000000FB040600F5040700EE040600E80406F8
:1009100000E2040700DB040600D5040600CF04064D
:1009200000C9040600C3040600BD040600B704069F
:1009300000B1040500AC040600A6040600A00405EE
:10094000009B04060095040500900406008A040537
:100950000085040500800406007A0405007504057E
:1009600000700405006B04050066040500610405C1
:10097000005C04050057040500520405004D040501
:100980000048040500430405003E0404003A040541
:100990000035040500300404002C0405002704047D
:1009A00000230405001E0404001A040400160405B4
:1009B00000110404000D04040009040500040404EB
:1009C0000000040400FC030400F8030400F4030422
:1009D00000F0030400EC030400E8030400E4030453
:1009E00000E0030400DC030400D8030400D4030483
:1009F00000D0030400CC030400C8030300C50303B4
:100A00000024F404D9201BC40C5C0E9804C4095FB4
:100A10000265077101F405F900FB04B3004804877F
:100A200000C10369005803550003034500BE023AA4
:100A3000008402310053022A00290225000402200A
:100A400000E4011C00C8011900AF0117009801144F
:100A50000084011300710110006101100051010EAA
:100A60000043010D0036010B002B010B0020010B90
:100A700000150109000C01090003010800FB000832
:100A800000F3000800EB000700E4000600DE0006AB
:100A900000D8000600D2000600CC000500C7000503
:100AA00000C2000500BD000400B9000400B5000448
:100AB00000B1000400AD000400A9000400A500037B
:100AC00000A20003009F0004009B000300980003A5
:100AD000009500020093000300900003008D0002C7
:100AE000008B0003008800020086000200840003DF
:100AF00000810002007F0002007D0002007B0002F6
:100B00000079000200770001007600020074000204
:100B10000072000100710002006F0002006D000110
:100B2000006C0002006A0001006900020067000119
:100B3000006600010065000100640002006200011F
:100B40000061000100600001005F0002005D000123
:100B5000005C0001005B0001005A00010059000127
:100B60000058000100570001005600010055000127
:100B70000054000100530000005300010052000126
:100B80000051000100500001004F0001004E000024
:100B9000004E0001004D0001004C0001004B000020
:100BA000004B0001004A000100490001004800001C
:100BB0000048000100470001004600000046000117
:100BC0000045000000450001004400010043000012
:100BD000004300010042000000420001004100000B
:100BE0000041000100400001003F0000003F000103
:100BF000003E0000003E0001003D0000003D0001FD
:100C0000003C0000003C0000003C0001003B0000F4
:100C1000003B0001003A0000003A000100390000EA
:100C200000390001003800000038000000380001E1
:100C300000370000003700010036000000360000D9
:100C400000360001003500000035000000350001CD
:100C500000340000003400000034000100330000C4
:100C600000330000003300010032000000320000B9
:100C700000320001003100000031000000310001AD
:100C8000003000000030000000300001002F0000A4
:100C9000002F0000002F0000002F0001002E000098
:100CA000002E0000002E0001002D0000002D00008D
:100CB000002D0000002D0001002C0000002C000081
:100CC000002C0000002C0001002B0000002B000075
:100CD000002B0000002B0001002A0000002A000069
:100CE000002A0000002A000100290000002900005D
:100CF0000029000000290000002900010028000050
:100D00000028000000280000002800000028000142
:100D10000027000000270000002700000027000037
:100D20000027000100260000002600000026000029
:100D3000002600000026000100250000002500001C
:100D4000002500000025000000250000002500010E
:100D50000024000000240000002400000024000003
:100D600000240001002300000023000000230000F5
:100D700000230000002300000023000000230001E6
:100D800000220000002200000022000000220000DB
:100D900000220000002200010021000000210000CC
:100DA00000210000002100000021000000210000BF
:100DB00000210001002000000020000000200000B1
:100DC00000200000002000000020000000200000A3
:100DD00000200001001F0000001F0000001F000095
:100DE000001F0000001F0000001F0000001F000186
:100DF000001E0000001E0000001E0000001E00007B
:100E0000008908990000000052657047204275690A
:100E10006C64009600FF84036901000014008304E1
:100E20008800000014008C0000000000000000306A
:100E3000F8FFFF00000000000000009B0000000021
:100E400000000000000000000000000000000000A2
:100E5000A51C0000180000A04095048304DC0500D8
:100E6000001400901F891B95000000004C4556455A
:100E70004C494E47202020202020202020202020C8
:100E8000009501000000202020202020202020208C
:100E9000202020202020202020200095010000007C
:100EA00050726573732063656E746572206B65792B
:100EB000202020200095030000007768656E2064E4
:100EC0006F6E6500891F891F62003B0200000000F1
:100ED0002110422063308440A550C660E77008812D
:100EE00029914AA16BB18CC1ADD1CEE1EFF13112A4
:100EF000100273325222B5529442F772D66239937D
:100F000018837BB35AA3BDD39CC3FFF3DEE36224F3
:100F1000433420040114E664C774A44485546AA5CC
:100F20004BB528850995EEE5CFF5ACC58DD5533683
:100F3000722611163006D776F6669556B4465BB71C
:100F40007AA719973887DFF7FEE79DD7BCC7C44853
:100F5000E5588668A7784008611802282338CCC96C
:100F6000EDD98EE9AFF9488969990AA92BB9F55AE3
:100F7000D44AB77A966A711A500A333A122AFDDBBC
:100F8000DCCBBFFB9EEB799B588B3BBB1AABA66CB3
:100F9000877CE44CC55C222C033C600C411CAEED0C
:100FA0008FFDECCDCDDD2AAD0BBD688D499D977EC3
:100FB000B66ED55EF44E133E322E511E700E9FFF5C
:100FC000BEEFDDDFFCCF1BBF3AAF599F788F889112
:100FD000A981CAB1EBA10CD12DC14EF16FE18010F6
:100FE000A100C230E3200450254046706760B983F9
:100FF0009893FBA3DAB33DC31CD37FE35EF3B10246
:101000009012F322D2323542145277625672EAB508
:10101000CBA5A89589856EF54FE52CD50DC5E23495
:10102000C324A01481046674476424540544DBA7D8
:10103000FAB79987B8975FE77EF71DC73CD7D326E5
:10104000F2369106B01657667676154634564CD968
:101050006DC90EF92FE9C899E9898AB9ABA9445835
:10106000654806782768C018E1088238A3287DCB38
:101070005CDB3FEB1EFBF98BD89BBBAB9ABB754A85
:10108000545A376A167AF10AD01AB32A923A2EFDC8
:101090000FED6CDD4DCDAABD8BADE89DC98D267CD5
:1010A000076C645C454CA23C832CE01CC10C1FEF18
:1010B0003EFF5DCF7CDF9BAFBABFD98FF89F176E25
:1010C000367E554E745E932EB23ED10EF01E7820C1
:1010D0006D6F726521002A20507265737320004580
:1010E000726173696E672E2E2E00656570726F6D6A
:1010F0005F64756D702E62696E2066696C656E6FD7
:101100007420666F756E6400526561642066616963
:101110006C65643B20454550524F4D206D617920F0
:10112000626520636F727275707400526573746FBC
:1011300072696E672E2E2E00656570726F6D5F642A
:10114000756D702E62696E2066696C65616C726582
:101150006164792065786973747300534420636116
:101160007264207772697465206661696C656400D9
:10117000536176696E672E2E2E0050726573732050
:10118000555020746F2070726F636565642E00790E
:101190006F757220626F7420696E6F706572616224
:1011A0006C652E0054686973206D656E75206361EF
:1011B0006E206D616B65005361696C6669736820B0
:1011C00076372E38207230366333390041546D65DE
:1011D000676120323536302031372F30362F3136A7
:1011E000002D2D2048656174657220537065636918
:1011F000616C202D2D005361696C6669736820460F
:10120000462043726561746F7220002020202020E8
:1012100020202020202020202020202020202000EE
:10122000202020200020004320202020002F2020EC
:10123000204300010049033600FF006B00D100A0ED
:1012400000B800D500A6000A0199003F018E007485
:10125000018400A9017C00DE01740013026C0048C7
:101260000265007D025D00B2025600E7024E001CDE
:1012700003460051033D0086033200BB032200F009
:10128000030300FF030000456C61707365643A203E
:10129000202020203030306830306D0020736563AE
:1012A000730054696D65204C6566743A20202030C7
:1012B00030306830306D0055415254310020205597
:1012C00053420053657269616C20492F4F0045728B
:1012D00061736520456570726F6D005344202D3E2B
:1012E00020456570726F6D00456570726F6D202DC1
:1012F0003E20534400456570726F6D005072696EF8
:10130000742054696D653A202020682030306D00CB
:101310004C617374205072696E743A2020202068EA
:101320002030306D004C69666574696D653A202027
:1013300020202020682030306D00526573756D6963
:101340006E6720706F736974696F6E2E2E2E004366
:101350006C656172696E67206275696C642E2E2EF1
:1013600020202000447261696E696E672070697088
:10137000656C696E652E2E2E004C656176696E6710
:101380002070617573652E2E2E2020202000436171
:101390006E63656C6C696E67207072696E742E2E58
:1013A0002E2000456E746572696E672070617573DA
:1013B000652E2E2E202020005061757365206174EB
:1013C000205A506F733A2000506C6174666F726DD2
:1013D0002054656D703A202020004C6566742054BE
:1013E000656D703A200052696768742054656D70AD
:1013F0003A2000546F6F6C68656164204F666673B5
:101400006574730020546F6F6C68656164204F666B
:10141000667365743A00204F66667365743A0055CA
:10142000702F446E2F4C6566742F4D20746F20739F
:1014300065740055702F446E2F522F4C2F4D207421
:101440006F207365740050726F66696C65204E6121
:101450006D653A005361766520546F2050726F6657
:10146000696C65004368616E6765204E616D65005B
:10147000446973706C617920436F6E6669670052CE
:101480006573746F72650052657365743A2070728B
:101490006573732043454E5445520046696C2E20B7
:1014A000547269703A0046696C616D656E743A00F9
:1014B000547269703A004C6966653A0046696C611D
:1014C0006D656E74204F646F6D657465720048655C
:1014D0006174657273204F66660043616E63656C6C
:1014E000205072696E74005072696E74205374617A
:1014F00074697374696373004261636B20746F2055
:101500004D6F6E69746F72006D006D6D00486F6D88
:1015100065204F6666736574730050726F66696C00
:1015200065730046696C616D656E743A20202020F9
:101530002020302E306D6D0046696C616D656E74D3
:101540003A005A506F736974696F6E3A2020200018
:101550005072696E742054696D653A2020202020F5
:101560006820206D0054656D7065726174757265D8
:101570002072656164732020206F7574206F66206F
:1015800072616E67652E2020202020202043686530
:10159000636B20776972696E672E0054656D7065A4
:1015A00072617475726520726561647320202061B8
:1015B0007265206661696C696E672E20202020208C
:1015C000202020436865636B20776972696E672EFF
:1015D0000054656D70657261747572652064726F18
:1015E0007070696E67436865636B20776972696EB6
:1015F000672E004E6F742068656174696E67207095
:10160000726F7065726C79436865636B207769727D
:10161000696E672E0054656D70206C696D69742069
:10162000726561636865642E2053687574646F77B2
:101630006E206F7220726573746172742E00506C2C
:101640006174666F726D204661696C7572652120E8
:10165000202000546F6F6C2031204661696C7572D8
:101660006521202020202000546F6F6C2030204600
:1016700061696C75726521202020202000457874F6
:101680007275646572204661696C757265212020EF
:101690002000486561746572732073687574646FA7
:1016A000776E20647565746F20696E616374697606
:1016B0006974790046696C616D656E74206C6F6148
:1016C000642F756E6C6F616463616E63656C6564D5
:1016D0002064756520746F20746865207072696F6E
:1016E0007220686561746572206572726F72004D58
:1016F000792074656D7065726174757265207761AB
:101700007320206368616E67656420657874657214
:101710006E616C6C792E20526573656C6563742004
:1017200066696C616D656E742020206D656E752034
:10173000746F2074727920616761696E2E00776121
:101740006974696E67200020204E4120202020000F
:101750006572726F7221004F46462020200043556B
:1017600053544F4D0057484954452000505552504E
:101770004C4500424C5545202000475245454E20DF
:101780000050494E4B2020004F52414E47450052D9
:101790004544202020004C454420436F6C6F7572F7
:1017A00000536574204C6967687473204F4E2000A5
:1017B000536574204C6967687473204F464600284F
:1017C00043616E6E6F74205072696E7420436F7047
:1017D0007929005072696E7420416E6F7468657269
:1017E00020436F7079004D61696E204D656E750004
:1017F00053657420436F6F6C696E672046616E207D
:101800004F46460053657420436F6F6C696E6720C6
:1018100046616E204F4E20004368616E6765204828
:1018200042502054656D70004368616E67652054B6
:10183000656D7065726174757265004368616E678D
:10184000652053706565640050617573652061742F
:10185000205A506F7300446974746F205072696E1F
:1018600074696E67004E2F4100502D53746F7020C5
:1018700074726967676572656400502D53746F7088
:1018800020496E76657274656400502D53746F70D4
:1018900020436F6E74726F6C00436865636B2053F6
:1018A0004420526561647300457874727564657292
:1018B00020486F6C640050617573652077697468A7
:1018C0002048656174004F766572726964652047CF
:1018D0006354656D700048425020696E7374616C8A
:1018E0006C656400416363656C65726174696F6EF9
:1018F0000045786974204D656E7500536F756E6490
:1019000000457874727564657220436F756E74005B
:10191000426F742053746174697374696373004314
:10192000616C696272617465204E6F7A7A6C65735E
:1019300000526573746F72652053657474696E67C5
:10194000730047656E6572616C2053657474696ECF
:1019500067730050726568656174205365747469BB
:101960006E6773004C6576656C00456E61626C65F0
:101970002053746570706572732020004469736130
:10198000626C652053746570706572730056657281
:1019900073696F6E20496E666F726D6174696F6EE8
:1019A0000046696C616D656E74204C6F6164696E90
:1019B0006700486F6D652041786573004A6F672046
:1019C0004D6F6465004D6F6E69746F72204D6F646A
:1019D00065005574696C6974696573005072656857
:1019E000656174005072696E7400492074696D6598
:1019F00064206F7574207768696C6520202061749D
:101A000074656D7074696E6720746F2068656174A9
:101A100020206D7920706C6174666F726D2E0049A4
:101A20002074696D6564206F7574207768696C65D2
:101A3000202020617474656D7074696E6720746F06
:101A4000206865617420206D7920657874727564F2
:101A500065722E00556E61626C6520746F20726530
:101A6000616420534420202063617264207061729D
:101A7000746974696F6E73206F76657232474220A5
:101A8000696E2073697A652E2020466F726D6174CD
:101A90006173204641542D3136206F72202D333230
:101AA0002E00556E61626C6520746F2072656164F2
:101AB0002074686973205344206361726420666FE8
:101AC000726D61742E2020202020466F726D61742B
:101AD000206173204641542D3136206F72204641DB
:101AE000542D33322E00534420636172642072659A
:101AF0006164206572726F722E20546F6F206D6169
:101B00006E7920435243206572726F72732E426168
:101B100064206361726420636F6E74616374732008
:101B20006F72656C656374726963616C206E6F6956
:101B300073652E0053442063617264207265616492
:101B4000206572726F720053442063617264206E6C
:101B50006F742070726573656E7400534420636106
:101B6000726420697320656D7074790043616E6ED4
:101B70006F74206F70656E207468652066696C658F
:101B80000053442063617264207265616473206154
:101B900072652020206E6F7420676F696E672077F2
:101BA000656C6C2E202054727961206469666665CC
:101BB00072656E7420636172640049276D20616CE8
:101BC0007265616479206275696C64696E6700434F
:101BD0006F6C6420506175736500556E706175732C
:101BE0006500506175736520200043616E63656C0C
:101BF000206C6F61642F756E6C6F61643F00436190
:101C00006E63656C2074686973207072696E743FCE
:101C10000073657474696E67733F00526573746F07
:101C2000726520666163746F727900506C617466CE
:101C30006F726D2020202020202020202020004CAA
:101C40006566742045787472756465722020202062
:101C50002020005269676874204578747275646545
:101C600072202020202000457874727564657220EF
:101C70002020202020202020202000507265737317
:101C8000206C65667420746F2063616E63656C0000
:101C900045787472756465723A2020202D2D2D2FA1
:101CA0002D2D2D4300506C6174666F726D3A2020AB
:101CB000202D2D2D2F2D2D2D43004C204578747275
:101CC000756465723A202D2D2D2F2D2D2D43005238
:101CD0002045787472756465723A202D2D2D2F2D54
:101CE0002D2D4300202D2D250048656174696E67F8
:101CF0003A2020202020202020202020200048657D
:101D00006174696E673A00203C2D592020284D658A
:101D10006E7529202020202020202000203C2D58D6
:101D20002020284D656E752920205A2D3E20202028
:101D3000002020202020202020582D20202020207E
:101D4000202020202000202020202020284D656EEB
:101D500075292020592D3E202020002020202020E1
:101D6000202020582B202020202020202020200050
:101D700020202020204A6F67206D6F64652020207E
:101D80002020202000556E6C6F6164206C656674A5
:101D900000556E6C6F616420726967687400556EDF
:101DA0006C6F6164004C6F6164004C6F6164004C47
:101DB0006F61642072696768740035206D696E75A3
:101DC00074652074696D656F757420686173656CE6
:101DD00061707365642E202050726573732074687F
:101DE000652063656E74657220627574746F6E2011
:101DF000746F2020202066696E6973682E0042652A
:101E000067696E206C6F6164696E67206F72202055
:101E10002020756E6C6F6164696E672E205072654C
:101E200073732074686563656E746572206275747F
:101E3000746F6E207768656E202066696E697368BE
:101E400065642E00457874727564657273206172E2
:101E500065206E6F7420202068656174696E672E3E
:101E60002020436865636B20746865207769726918
:101E70006E672E00592041786973204C696E6500A9
:101E8000582041786973204C696E650059455300AC
:101E90004E4F2000446F6E650053656C656374207F
:101EA00062657374206C696E65733A00457874726C
:101EB0007564657200506C6174666F726D00547564
:101EC000726E2048656174657273204F46460053F8
:101ED000746172742050726568656174696E670020
:101EE00046726565205352414D20004F4646004FD3
:101EF0004E2000000525D72840302731DA375F3AD9
:101F0000EA3D893FF152336555682273DD73EC7405
:101F10000477AF77368AF18A4B915291EB918D928B
:101F200073948295BE99069A8D9C60A067A0D3C8D1
:101F30001ECC55CD3DCFB2CFFFD00CD1E8E6FBE1B2
:101F400085EC91E201C08193EF3FF907E0F3D9F30B
:101F500011241FBECFEFD1E2DEBFCDBF00E00CBF2A
:101F600016E0A0E0B2E0E0ECF0EB01E00BBF02C055
:101F700007900D92AA31B107D9F72BE1AAE1B6E09B
:101F800001C01D92A836B207E1F71FE0CEE9DFE0FD
:101F900000E006C021970109802FFE010E94DED5D6
:101FA000CA37D10780E00807A9F70E949D300C943A
:101FB0005ED80C9400006BBFFA01DC0102C00790F0
:101FC0000D9221503040D8F708958091A4088111D6
:101FD0000AC08091A3088F5F8093A308853018F012
:101FE00081E08093A408089581E00E94F43580E0A8
:101FF0000C94D635F894E9E9F6E0228133818081AA
:102000009181821B930B78940895EF92FF920F9326
:102010001F93CF937C018B01C42F83E499E00E942E
:1020200032BCB70183E499E00E940BBCB80183E4A1
:1020300099E00E940BBCE091D509EE0FFF0BE9532C
:10204000F64F808191818354994039F063E479E0BF
:102050008BEB99E00E945A9A04C083E499E00E94B5
:1020600071BCC093A209CF911F910F91FF90EF9087
:1020700008951092A209E091D509EE0FFF0BE953E4
:10208000F64F808191818354994021F48BEB99E044
:102090000E94169BE091D509EE0FFF0BE953F64F16
:1020A00080819181DC01ED91FC910480F581E02D2E
:1020B0001994809101020895109251060895882381
:1020C00011F080E401C080E8809397066093940645
:1020D0001092A508089581E0809393060895809159
:1020E0009706181634F480919406811104C081E09B
:1020F000089580E0089582E00895809197060895FC
:1021000081E090919706923008F480E00895CF9393
:10211000DF93CDB7DEB764970FB6F894DEBF0FBE7E
:10212000CDBF60937B0670937C0680937D06909371
:102130007E06CE0101960E94FB6962E070E0CE014E
:1021400001960E94AF3AFC01408151816281738106
:1021500080917B0690917C06A0917D06B0917E06D1
:10216000481759076A077B071CF010927A0603C0CC
:1021700081E080937A0664960FB6F894DEBF0FBEB6
:10218000CDBFDF91CF91089560917B0670917C0661
:1021900080917D0690917E06089520919B06309156
:1021A0009C0681E0232B09F080E00895CF9360E046
:1021B00070E0CB010E94871010927A0610924006C0
:1021C0001092410610924206109243061092440665
:1021D000C1E0C09300021092A608109297061092D8
:1021E0009606109295061092940610926A06109226
:1021F0006B0610926C0610926D0610926E0610928D
:102200006F06109270061092710610925A06109284
:102210005B0610925C0610925D0610925E061092AC
:102220005F0610926006109261061092520610929C
:102230005306109254061092550610927206109290
:10224000730610927406109275061092760610921C
:102250007706109278061092790610926206109214
:10226000630610926406109265061092660610923C
:102270006706109268061092690610925606109230
:102280005706109258061092590661E082E490E0D9
:102290000E942793823039F460E08FEF9FE00E9424
:1022A0002793811134C01092350610923B0610928C
:1022B0003C0610923D0610923E0610923A0610928D
:1022C0003606109237061092380610923906109290
:1022D000A5081092A3081092A4081092500610921C
:1022E0004F0610924C0610924B0610924E0610921A
:1022F0004D0610924A061092490610924606109218
:1023000045061092480610924706CF910895C09353
:102310003506CBCF0E94D61085E680930102E9E90D
:10232000F6E01382128215821482108611861092B2
:102330003406089581E090913406963009F080E0EB
:1023400008958F929F92AF92BF92CF92DF92EF92B9
:10235000FF920F931F93CF93DF93CDB7DEB7AA976A
:102360000FB6F894DEBF0FBECDBF882321F091E0F9
:102370009093510605C090915106992309F4EAC043
:10238000F82ECE0145960E94FB6981E089A78AA7B5
:102390006E0189E2C80ED11C03E010E08CE39AE0E4
:1023A000FC01E759FF4F2081FC01222319F026A1EF
:1023B00037A104C0EC5AFF4F20813181232B91F1CA
:1023C00048960E949F97882369F1F60180818F11BA
:1023D00024C0812C912C54018394402F60E070E044
:1023E00080E090E40E940168A50194010E9459D503
:1023F0004B015C01B801CE0145960E94B63AFC0142
:102400004081518162817381840E951EA61EB71E84
:1024100080829182A282B38205C088248A94982CFB
:102420005401DBCF0430110541F0EFEFCE1ADE0A84
:102430008BEB9AE004E010E0B3CF60ED77E08CEE38
:1024400091E00E943793BC0180E090E00E9497D316
:102450002091321530913315409134155091351536
:102460000E949FD49B01AC0160E074E284E799E490
:102470000E94B3D20E9461D34B015C01809135066A
:10248000882329F18091980681110AC064E070E0E8
:10249000CE0145960E94B63A8C0163E070E009C017
:1024A00063E070E0CE0145960E94B63A8C0164E08C
:1024B00070E0CE0145960E94B63AFC018081918180
:1024C000A281B381F80180839183A283B383E12C3D
:1024D00000E010E09801B501A401CE0145960E94EC
:1024E000226BF11037C0CE0101960E94FB6963E0B8
:1024F00070E0CE0101960E94B63A8C0163E070E074
:102500008FE796E00E94B63AFC0180819181A2811A
:10251000B381F80180839183A283B38364E070E088
:10252000CE0101960E94B63A8C0164E070E08FE71C
:1025300096E00E94B63AFC0180819181A281B3812C
:10254000F80180839183A283B38360E0CE0101967A
:102550000E947269AA960FB6F894DEBF0FBECDBF77
:10256000DF91CF911F910F91FF90EF90DF90CF906F
:10257000BF90AF909F908F9008952F923F924F926F
:102580005F926F927F928F929F92AF92BF92CF9203
:10259000DF92EF92FF920F931F93CF93DF93CDB70C
:1025A000DEB7C856D1090FB6F894DEBF0FBECDBF57
:1025B000182FCE01CD960E947A3ACE0189960E94BC
:1025C0007A3A112309F4F6C080E090E0FC01E75567
:1025D000FB4E2385222309F474C22285222309F4A9
:1025E00070C28D968738910589F784E1EFE7F6E0B0
:1025F000DE01559601900D928A95E1F7CE01019684
:102600000E94FB6960E070E0CE0145960E94B63AF8
:102610008C014091B9145091BA146091BB1470911F
:10262000BC148EE090E00E944D936B017C0180E031
:102630000E94DC6720E030E040EA50E40E949FD432
:102640000E9461D3C61AD70AE80AF90AF801C082C3
:10265000D182E282F38261E070E0CE0145960E9471
:10266000B63A8C014091E6145091E7146091E81459
:102670007091E91482E190E00E944D936B017C011E
:1026800081E00E94DC6720E030E040EA50E40E94F4
:102690009FD40E9461D3C61AD70AE80AF90AF80142
:1026A000C082D182E282F38262E070E0CE01459680
:1026B0000E94B63A4091131550911415609115156A
:1026C00070911615FC01408351836283738362E02D
:1026D00070E0CE0101960E94B63AFC01C080D18024
:1026E000E280F38062E070E0CE0145960E94B63A47
:1026F000FC0180819181A281B3818C159D05AE057D
:10270000BF05BCF462E070E0CE0145960E94B63A87
:102710008C0162E070E0CE0101960E94B63AFC01A5
:1027200080819181A281B381F80180839183A2830A
:10273000B38363E070E0CE0145960E94B63A8C0107
:1027400063E070E0CE0101960E94B63AFC01808100
:102750009181A281B381F80180839183A283B383A5
:1027600064E070E0CE0145960E94B63A8C0164E0C8
:1027700070E0CE0101960E94B63AFC018081918101
:10278000A281B381F80180839183A283B383BE01C8
:102790006B5E7F4FCE018F5A9F4F0E94356984E157
:1027A000FE01EF5AFF4FDE01999601900D928A9536
:1027B000E1F757C084E1EFE7F6E0DE01999601907A
:1027C0000D928A95E1F7CE0145960E94FB6964E07F
:1027D00070E0CE0189960E94B63AFC011081018119
:1027E0003280238063E070E0CE0189960E94B63A81
:1027F000FC0180809180A280B38062E070E0CE0115
:1028000045960E94B63AFC01C080D180E280F380F8
:1028100061E070E0CE0145960E94B63AFC0140802E
:1028200051806280738060E070E0CE0145960E9426
:10283000B63AFC0140815181628173812F923F92AF
:102840000F931F9393018201CE0101960E947B3A60
:1028500060E0CE0101960E9472690F900F900F9078
:102860000F906091091570910A1580910B15909148
:102870000C150E9499D320E030E040E857E30E9415
:102880009FD4209105153091061540910715509160
:1028900008150E949FD40E9461D3A9966CAF7DAFAA
:1028A0008EAF9FAFA997CE018F5A9F4F0E94FB69B1
:1028B00084E1FE01EF5AFF4FDE01DD9601900D929B
:1028C0008A95E1F760E070E0CE01CD960E94B63ABD
:1028D000FC01C080D180E280F38060E070E0CE0136
:1028E00089960E94B63AFC0180819181A281B381D0
:1028F000A7019601281B390B4A0B5B0BCA01B901D2
:102900000E9499D32091AB143091AC144091AD1436
:102910005091AE140E94B3D22B013C0161E070E0F3
:10292000CE01CD960E94B63AFC01C080D180E280F3
:10293000F38061E070E0CE0189960E94B63AFC0116
:1029400080819181A281B381A7019601281B390B57
:102950004A0B5B0BCA01B9010E9499D32091D8148C
:102960003091D9144091DA145091DB140E94B3D203
:102970004B015C0162E070E0CE01CD960E94B63A58
:10298000FC01C080D180E280F38062E070E0CE0183
:1029900089960E94B63AFC0180819181A281B3811F
:1029A000A7019601281B390B4A0B5B0BCA01B90121
:1029B0000E9499D320910515309106154091071575
:1029C000509108150E94B3D26B017C01A3019201C2
:1029D000C301B2010E949FD42B013C01A5019401C7
:1029E000C501B4010E949FD49B01AC01C301B20197
:1029F0000E942BD24B015C01A7019601C701B601D1
:102A00000E949FD49B01AC01C501B4010E942BD24E
:102A10000E9412D52B013C0180913506882329F1B3
:102A20008091980681110AC064E070E0CE01899619
:102A30000E94B63A8C0163E070E009C063E070E088
:102A4000CE0189960E94B63A8C0164E070E0CE0116
:102A500089960E94B63AFC0180819181A281B3815E
:102A6000F80180839183A283B383B090D51510922F
:102A7000D5156091091570910A1580910B159091EB
:102A80000C150E9499D320E030E040E857E30E9403
:102A90009FD420E030E040E852E40E949FD40E949E
:102AA00061D36B018301720120E0A9964CAD5DAD4D
:102AB0006EAD7FADA997CE0189960E946F6CB092E2
:102AC000D515C859DF4F0FB6F894DEBF0FBECDBF86
:102AD000DF91CF911F910F91FF90EF90DF90CF90FA
:102AE000BF90AF909F908F907F906F905F904F902E
:102AF0003F902F900895EF92FF920F931F93CF93E3
:102B0000DF9328E0829FC0011124FC01E659F94FB0
:102B1000F08001811281D381C481B581E680E78193
:102B20002F2D302F412F5D2F6C2F7B2F8E2D9E2F21
:102B3000A0E00E94A0D754F40E9414D7F22E032FD5
:102B4000142FD52FC62FB72FE82EE92F2F2D302F7A
:102B5000412F5D2F6C2F7B2F8E2D9E2FDF91CF91DC
:102B60001F910F91FF90EF9008956F927F928F9237
:102B70009F92AF92BF92CF92DF92EF92FF920F930C
:102B80001F93CF93DF93C82F0E947B1559016A01D1
:102B90007B013C01A0E00E94A0D709F00CF449C0E1
:102BA00088E0C89FE00111244E0188E4881A8EEF66
:102BB000980A00E010E020E030E040E050E060E003
:102BC00070E0C4010E94FB9383010E9479D78901C0
:102BD0009A01AB01BC01C4010E944D94DE01A65ACA
:102BE000B94FFE01E659F94F80818C93818111968E
:102BF0008C931197828112968C93129783811396EE
:102C00008C931397848114968C93149785811596D1
:102C10008C931597868116968C93169787811796B5
:102C20008C93108211821282138214821582168272
:102C30001782DF91CF911F910F91FF90EF90DF905E
:102C4000CF90BF90AF909F908F907F906F9008959E
:102C500080E00E94B51581E00C94B515EF92FF92CB
:102C60000F931F93CF93DF9328E0829FC00111241D
:102C7000FC01E65AF94FF08001811281D381C481B1
:102C8000B581E680E7812F2D302F412F5D2F6C2FEE
:102C90007B2F8E2D9E2FA0E00E94A0D754F40E947F
:102CA00014D7F22E032F142FD52FC62FB72FE82EAF
:102CB000E92F2F2D302F412F5D2F6C2F7B2F8E2D45
:102CC0009E2FDF91CF911F910F91FF90EF9008956C
:102CD000CF92DF92EF92FF9280E00E942E16E42FB7
:102CE00043E0B9018E2F952F0E94E8676B017C01AC
:102CF00081E00E942E16642F44E0732F862F952FBB
:102D0000622F0E94E8679B01AC01C701B6010E94D7
:102D10002BD26B017C0180E00E947B15642F43E085
:102D2000732F862F952F622F0E94E8679B01AC01BD
:102D3000C701B6010E942BD26B017C0181E00E9489
:102D40007B15642F44E0732F862F952F622F0E94EE
:102D5000E8679B01AC01C701B6010E942BD2FF902E
:102D6000EF90DF90CF9008950F931F93CF93DF9351
:102D7000D82F00E416E0C0E0F801808181110FC077
:102D80008C2F0E94606FF8018083DD2321F08C2F4F
:102D90000E94666F04C064E18C2F0E945B6FCF5F5E
:102DA0000F5F1F4FC53041F7DF91CF911F910F91FA
:102DB00008950F931F93CF9300E416E0C0E0F8014D
:102DC00060818C2F0E945B6FF80111928F01CF5FA1
:102DD000C530A9F7CF911F910F9108950F931F93BD
:102DE000CF93DF93CDB7DEB769970FB6F894DEBF08
:102DF0000FBECDBF80919706853409F400C190F5D0
:102E0000813409F456C0B8F4803209F4C5C1803465
:102E100009F43FC0823009F0F4C10E94391060917A
:102E200095067091960621E040E087E199E00E94C6
:102E3000A33481E051C0833409F445C008F04FC089
:102E4000CE0106960E94FB6984E1FE013696AFE74B
:102E5000B6E001900D928A95E1F781E00E94A11100
:102E600083E43AC0843809F460C150F4813809F42D
:102E70003EC1833809F44AC1803809F0C2C1EAC0B2
:102E8000863809F46BC108F45FC1873809F46BC157
:102E9000B8C10E944E2B853029F00E944E2B843001
:102EA00009F091C181E48093970681E00E94B416F5
:102EB000A8C18091380C9091370C891B8F7009F054
:102EC000A0C182E409C08091380C9091370C891B15
:102ED0008F7009F096C184E48093970692C181E0D7
:102EE0000E94BD1285E4809397060E944E2B853088
:102EF00039F00E944E2B11E0843019F010E001C02F
:102F000011E045E069E479E1CE0101960E94C3CB6E
:102F1000CE0101960E9411CC80933F0680E00E9472
:102F2000D6358091A50A882329F08091620A909174
:102F3000630A04C08091900A9091910A909346068A
:102F4000809345068091240B882329F08091E10A23
:102F50009091E20A04C080910F0B9091100B909316
:102F60004806809347068091380A882329F080918B
:102F7000F5099091F60904C08091230A9091240AE2
:102F800090934A068093490680919406811123C14B
:102F900060E08EEF9FE00E942793882309F41BC115
:102FA00080919406882351F021E040E060E080E0C9
:102FB0000E94A67560E088EF0E942B6F60919506D5
:102FC000709196066115710569F08091A6088111CE
:102FD00005C0111103C083EA93E102C08EE893E1BA
:102FE00041E00AC0111103C083EA93E102C08EE8F8
:102FF00093E141E06FE473E10E94051002C180910A
:10300000380C9091370C891B8F7009F0FAC00E9420
:10301000D9168091A608882311F080E209C080911A
:10302000950690919606892B11F481E001C082E00B
:10303000809397060E9439100E944E2B853009F428
:10304000E0C00E944E2B843009F4DBC087E00E9470
:10305000053AD7C080E00E94B41600914F06109147
:1030600050060115110521F40091490610914A06F8
:103070001016110654F460E087EE99E00E94029861
:10308000B80187EE99E00E94CF9600914B0610910F
:103090004C060115110521F40091450610914606D4
:1030A0001016110654F460E084E59AE00E9402983C
:1030B000B80184E59AE00E94CF9600914D061091E8
:1030C0004E060115110521F400914706109148069E
:1030D0001016110654F460E083ED9AE00E94029805
:1030E000B80183ED9AE00E94CF9681E8F5CE8091F9
:1030F000490690914A06181619060CF06FC087EE23
:1031000099E00E949F97811169C07BC0809145061C
:1031100090914606181619060CF062C084E59AE0F4
:103120000E949F9781115CC06CC081E00E94B41620
:1031300080E00E94BD1285E88093970641E06AE333
:1031400073E189E793E158CF8091380C9091370C67
:10315000891B8F7009F055C086E8BECE80E00E94C2
:10316000A11187E8B9CE8091380C9091370C891B5A
:103170008F7009F046C080913F060E94D6350E94AC
:10318000D9160E9439101092970610929606109246
:1031900095061092A50835C00E94391060919506D9
:1031A0007091960621E040E087E199E00E94A33407
:1031B0000E94043C10929606109295061092A60862
:1031C000109297061EC041E064E673E183EA93E142
:1031D0000E94051067CE0E94F40FE2CE83E87CCEF9
:1031E00080914706909148061816190634F483ED2D
:1031F0009AE00E949F97882321F00E94D91684E8C4
:103200006BCE69960FB6F894DEBF0FBECDBFDF91CF
:10321000CF911F910F9108958F929F92AF92BF927D
:10322000CF92DF92EF92FF92CF93C0910102C53609
:1032300009F453C0CC2309F450C0F0903A06CF15DE
:1032400009F44BC0FF2009F448C060913606709124
:103250003706809138069091390661157105810510
:103260009105D9F10E9497D34B015C018C2F90E01E
:103270008F199109BC01990F880B990B0E9499D362
:103280009B01AC01C501B4010E94B3D26B017C016A
:103290006C2F70E080E090E00E9497D39B01AC011E
:1032A00060E070E088EC92E40E942AD29B01AC01BD
:1032B000C701B6010E949FD46B017C0120E030E081
:1032C000A9010E94AED287FF03C0C12CD12C760188
:1032D000C701B6010E9461D303C060E070E0CB017A
:1032E000CF91FF90EF90DF90CF90BF90AF909F90E5
:1032F0008F900895FC0184819581860F971F6081CE
:1033000071810E9475D526813781820F931F0895A0
:103310001F93CF93DF93EC012A813B8188819981B0
:103320002817390770F4162F6A817B81CE010E941D
:103330007A19FC0110838A819B8101969B838A8381
:1033400002C081E08887DF91CF911F910895682F97
:1033500089E996E00C948819CF93DF93EC018A8178
:103360009B81892B21F481E0898780E017C060E090
:1033700070E0CE010E947A19FC012C813D81C901C7
:103380000196688179810E9475D59D838C832A81FD
:103390003B81215031093B832A838081DF91CF918A
:1033A000089589E996E00C94AC19CF9389E996E0E9
:1033B0000E94AC19C82F89E996E00E94AC19982F99
:1033C0008C2FCF9108951F93CF93DF931F921F925D
:1033D000CDB7DEB789E996E00E94AC19682F89E97C
:1033E00096E06A830E94AC19782F89E996E0798388
:1033F0000E94AC19182F89E996E00E94AC19982F09
:103400006A817981812F0F900F90DF91CF911F9169
:103410000895CF92DF92EF92FF921F93CF93DF93A5
:10342000C82F61E070E089E996E00E947A19FC01FA
:103430001081CF3F09F01C2F62E070E089E996E02F
:103440000E947A19FC0180818D3009F476C048F41D
:103450008C3008F05FC0843008F0C5C0833071F054
:103460000BC0873109F44CC020F4803108F4BBC094
:1034700003C08F3109F46DC010E0C9C064E070E092
:1034800089E996E00E947A19FC01C081EC2EF12CAA
:1034900065E070E089E996E00E947A19FC0190816C
:1034A000C92FD0E0DC2FCC27CE0DDF1D209719F4DB
:1034B0000E94281614C0E12EF12C6701CC0CDD1CF3
:1034C000F601E55BF94F80819181892B09F08DC070
:1034D00060E08DEF9FE00E942793811186C011303C
:1034E00019F08CE39AE002C08BEB9AE0BE0148969B
:1034F0000E94CF9680914B0B8E7F80934B0B73C0B5
:103500000E946F1091E0811190E060E0892F0E948D
:10351000AD2C69C064E070E089E996E00E947A19F8
:10352000FC0160816170113019F08CE39AE002C0F7
:103530008BEB9AE00E94129556C064E070E089E936
:1035400096E00E947A19FC01808181700E94D63534
:103550004AC00E940628182F882309F444C064E05A
:1035600070E089E996E00E947A19FC01C081EC2E96
:10357000F12C65E070E089E996E00E947A19FC017F
:103580009081C92FD0E0DC2FCC27CE0DDF1D2097F6
:10359000D1F080914F0690915006892B39F460E06C
:1035A0008DEF9FE00E942793882369F080914F065A
:1035B00090915006009731F464E670E08CE591E05C
:1035C0000E943793EC01BE0187EE99E00E94CF96EE
:1035D00061E087E199E00E94D13580914B0B8E7FAD
:1035E00080934B0B14C011E012C0F601E55BF94F5C
:1035F00080819181009749F4C701880F991F66EE79
:1036000070E0885A9E4F0E943793EC0168CF812F5B
:10361000DF91CF911F91FF90EF90DF90CF900895B1
:103620002F923F924F925F926F927F928F929F92D2
:10363000AF92BF92CF92DF92EF92FF920F931F93C0
:10364000CF93DF93CDB7DEB7C755D1090FB6F89446
:10365000DEBF0FBECDBF0E94A33B8823B9F080918F
:103660009B0690919C062091990630919A06281706
:10367000390751F10E94F23B882331F10E94F53B5A
:10368000682F89E996E00E948819E9CF0E94837328
:10369000882309F446C080919B0690919C06209156
:1036A000990630919A062817390709F460C50E94D7
:1036B0009173882309F45BC50E949F73682F89E981
:1036C00096E00E948819E7CF0E94F23B811129C041
:1036D00080910202882309F440C5909197069111C8
:1036E0003CC591E09093A608813009F02EC587E48F
:1036F0009BE190939606809395060E94F40F60E0FC
:103700008FEF0E942B6F10929C0610929B061092D6
:103710009E0610929D061092A1061092A2060E948B
:10372000912C80917B0690917C06A0917D06B091B2
:103730007E06892B8A2B8B2B19F180917A068111B9
:103740001FC0CE0101960E94FB6962E070E0CE01CD
:1037500001960E94AF3ADC014D915D916D917C9193
:1037600080917B0690917C06A0917D06B0917E06AB
:10377000481759076A077B071CF481E080937A0693
:1037800080917B0690917C06A0917D06B0917E068B
:10379000892B8A2B8B2B79F180917A06882359F11A
:1037A0000E946F10811127C0CE0101960E94FB6913
:1037B00062E070E0CE0101960E94AF3AFC014081C8
:1037C00051816281738180917B0690917C06A091EA
:1037D0007D06B0917E06481759076A077B075CF0A3
:1037E00060E070E0CB010E94871060E081E00E9401
:1037F000AD2C0C94EB2410919706123020F00E940F
:10380000EE160C94EB241130F9F48091940681119A
:103810000C94EB248091930681110C94EB2483EAA1
:1038200099E00E947BCF882311F40C94EB24109331
:1038300094060E94F40F21E040E060E080E00E94E6
:10384000A67560E088EFB4C480913406833071F4CB
:103850000E946868882341F088E296E00E947BCF4E
:10386000882321F00E94EA72109234068091A50804
:103870008823E1F08091A4088823C1F08091340668
:103880008330A1F080919706811110C00E946F10C3
:1038900081110AC089E698E1909396068093950677
:1038A00061E081E00E94AD2C1092A5088091340661
:1038B000813031F40E946868811102C01092340690
:1038C00080913406823039F48EE296E00E947BCFFC
:1038D00081111092340680913406843009F052C070
:1038E00082E296E00E947BCF882349F020E040E00E
:1038F0006FE17AE187E199E00E94A33420C08091D2
:103900009806813019F08CE39AE002C08BEB9AE0C4
:1039100048960E94CB97811115C080913506882367
:1039200071F080919806882319F08CE39AE002C028
:103930008BEB9AE048960E94CB97811123C010929E
:10394000340620C080919806813019F08CE39AE00B
:1039500002C08BEB9AE048960E949F97882391F0D3
:1039600080913506882359F380919806882319F0B1
:103970008CE39AE002C08BEB9AE048960E949F97F6
:103980008111DDCF809134068530E1F482E296E04A
:103990000E947BCF882349F020E040E06AEE79E185
:1039A00087E199E00E94A33406C487EE99E00E9463
:1039B000CB97882309F4FFC387EE99E00E949F9775
:1039C0008111F9C380913406863091F58CE196E03F
:1039D0000E947BCF882391F080911A0681FF06C058
:1039E00060E087E199E00E94E53722C0109234063A
:1039F00080914B0B8F7E80934B0B1AC08BEB99E021
:103A00000E94829C8823A1F080911A0682FF04C044
:103A10008BEB99E00E94169B0E94C63780914B0B5E
:103A20008F7E80934B0B8FEF0E947E761092340630
:103A3000809134068111CFC780919B0690919C069E
:103A4000892B09F4C8C787E199E00E94AC3460E093
:103A500070E089E996E00E947A19DC011C911B381C
:103A600009F4ACC31E3809F43FC61B3909F4CDC4B0
:103A7000193809F48AC3163809F49FC71C3809F4A9
:103A80004EC70DE7010F1C3909F4B6C0103909F40F
:103A9000B3C0023008F4B0C0183809F4ADC014390E
:103AA00041F480919B0690919C06059708F493C77A
:103AB00008C0163909F4A0C00E94E25181112DC03E
:103AC0008AC70E94D1190E94D11980931B060E94B7
:103AD000D5198C010E94D11980931A060115110580
:103AE00071F0D80120E432E44FE050E00E94F5D5B7
:103AF000AB01BC018CE196E00E9447CF6CC0CE01C7
:103B000001960E9444CF86E0FE013196ACE1B6E01A
:103B100001900D928A95E1F75EC0153809F42DC425
:103B2000153909F069C080919B0690919C06069713
:103B300008F451C70E94D1190E94D119182F0E9470
:103B4000D119E82E0E94D119082F0E94D119F82E00
:103B500010FD04C083E499E00E9432BCE092460963
:103B60000093470969E976E083E499E00E949CC8E4
:103B700011FF31C7E091D509EE0FFF0BE953F64F66
:103B8000808191818354994009F410C463E479E001
:103B90008BEB99E00E945A9A1470F1100CC4112317
:103BA00009F419C7FF2009F40EC4AF2DB0E020E4DA
:103BB00032E44FE050E00E94F5D5AB01BC018CE14E
:103BC00096E00E9447CF81E080931B0680911A0601
:103BD000847080931A060E94BC3760911B068BEBA1
:103BE00099E00E947F9C80914B0B806180934B0BEE
:103BF00086E080933406EFC6023060F580919B0624
:103C000090919C06089708F4E6C60E94D1190E947C
:103C1000D119082F0E94E3196B017C010E94D5196C
:103C200023E020933406DC0120E432E44FE050E04E
:103C30000E94F5D5AB01BC0188E296E00E9447CF17
:103C400081E0143809F080E0A7019601602F0E94FE
:103C5000746EC1C6173829F580919B0690919C0619
:103C6000069708F4B8C684E08093340681E0809318
:103C7000A4080E94D1190E94D119809398060E942D
:103C8000D5190E94D519DC0120E432E44FE050E060
:103C90000E94F5D5AB01BC0182E296E00E9447CFBD
:103CA0009AC61D3891F480919B0690919C060697C8
:103CB00008F491C685E08093340681E08093A408DF
:103CC0000E94D1190E94D119DACF1F3809F03FC0E4
:103CD00080919B0690919C06029708F47CC60E94F6
:103CE000D1190E94D119C82ECE0101960E94FB69FC
:103CF0000EE010E0E12CF12CD12CC6010E2C02C0FC
:103D0000959587950A94E2F780FF17C0B701CE0119
:103D100001960E94B63AFC0180819181A281B38113
:103D20008D8B9E8BAF8BB88FF89444E050E0B80138
:103D3000CE0145960E9439D87894FFEFEF1AFF0A1A
:103D40000C5F1F4F25E0E216F104B9F644C61039A6
:103D500009F05FC080919B0690919C06029708F441
:103D60003AC60E94D1190E94D119C82ECE010196DF
:103D70000E94FB690EE010E0E12CF12CD12CC60171
:103D80000E2C02C0959587950A94E2F780FF0CC02F
:103D9000F894B701CE0101960E94B63A44E050E093
:103DA000B8010E9415D878943FEFE31AF30A0C5F2C
:103DB0001F4F43E0E416F10411F763E070E0CE0119
:103DC00001960E94B63AFC0180819181A281B38163
:103DD0008093520690935306A0935406B0935506D1
:103DE00064E070E0CE0101960E94B63AFC01808149
:103DF0009181A281B3818093560690935706A09338
:103E00005806B093590661E0CE0101960E9472698E
:103E1000E2C5113999F480919B0690919C06039715
:103E200008F4D9C50E94D1190E94D119182F0E94F7
:103E3000D119682F812F0E945B6FCDC5123921F5F2
:103E400080919B0690919C06069708F4C4C50E9439
:103E5000D1190E94D119182F0E94D11966968FAFDF
:103E600066970E94D11965968FAF65970E94D11908
:103E70000E94D11965964FAD659766966FAD6697AE
:103E8000812F0E94F076A7C51339B1F480919B066B
:103E900090919C06069708F49EC50E94D1190E9435
:103EA000D5198C010E94D5197C010E94D119B70146
:103EB000C8010E94A4398FC5183809F062C08091EA
:103EC0009B0690919C06049708F485C563E070E01A
:103ED00089E996E00E947A1920919B0630919C0610
:103EE000DC01EC90F12CB4E0EB0EF11C2E153F053B
:103EF00008F471C580913506882339F0809100025D
:103F0000882319F01092000203C081E08093000220
:103F100062E070E089E996E00E947A19FC018081F4
:103F2000833059F062E070E089E996E00E947A19E6
:103F3000DC018C918C3009F01CC28091000281114F
:103F40000DC061E070E089E996E00E947A19FC01F9
:103F500081E09081992319F080E001C08FEF0E94E9
:103F6000091A80910002882309F435C510E0812FD9
:103F700090E08E159F0508F02EC50E94D1191F5F95
:103F8000F6CF163909F041C080919B0690919C06AE
:103F9000039708F420C50E94D1190E94D11980937B
:103FA00001020E94D119809101028823F1F08091D1
:103FB0003B0690913C06A0913D06B0913E06892BB0
:103FC0008A2B8B2B91F480913A0681110EC00E94AE
:103FD000A82B60933B0670933C0680933D0690931C
:103FE0003E068091010280933A0680910102882367
:103FF00009F4F1C40E94A82B60933606709337062B
:104000008093380690933906E6C41739B9F4809145
:104010009B0690919C060297B8F10E94D1190E94CC
:10402000D119811102C084E006C0813019F40E94C8
:10403000053A2AC082E00E94403A26C0183999F415
:1040400080919B0690919C06029708F4C4C40E943C
:10405000D1190E94D1190E94042760E087E199E0FC
:104060000E94E537B8C4193991F480919B0690916C
:104070009C06059708F4AFC40E94D1190E94E31969
:1040800089E996E00E9402301092A408A4C41A396B
:1040900071F480919B0690919C06029708F49BC452
:1040A0000E94D1190E94D1190E940B2CEDCF1C390E
:1040B00099F480919B0690919C06029708F48BC41A
:1040C0000E94D1190E94D11991E0813009F090E04D
:1040D000892F0E946B6F7FC41D39A1F480919B06CC
:1040E00090919C06459708F476C40E94E3190E94BB
:1040F000E3190E94E3190E94E3190E94E3190E9448
:10410000D11969C41E3909F066C480919B0690914B
:104110009C06059708F45FC40E94D1190E94E31918
:104120006B017C012FE632E143E85AE30E94AED2F4
:1041300087FF03C0C12CD12C760142E0C701B60134
:104140000E9401680E94871046C48B3019F486EEE5
:104150009AE1CFCA84E39BE1CCCA80919506909105
:104160009606892B09F0DDCA0E94043CDACA0E9437
:1041700091738111D6CA80919B0690919C06892BE0
:1041800009F0CFCA0E94DA73CCCA80919B06909145
:104190009C06029708F41FC40E94D1190E94D119ED
:1041A0009091350691111DC1682F661F6627661F05
:1041B0000E942B6F10C41092340604CC80919B0691
:1041C00090919C06499708F406C40E94D11981E099
:1041D000809334060E94E3196D8F7E8F8F8F98A392
:1041E0000E94E31969A37AA38BA39CA30E94E319FD
:1041F0006DA37EA38FA398A70E94E3194B01382ECD
:10420000292E0E94E3192B013C010E94E31969A7A2
:104210007AA78BA79CA780913506882359F08091B7
:104220009806882321F04201362C272C03C0240154
:10423000632C722C80925206909253063092540650
:10424000209255068091560690915706A0915806E7
:10425000B091590693018201081B190B2A0B3B0BE5
:10426000D901C80168017901FF0CCC08DC2C76016A
:104270009801AD016C2D7C2D8C2D9C2DA09072068B
:10428000B0907306C0907406D0907506E0907606E4
:10429000F090770600917806109179060E9479D700
:1042A00020937206309373064093740650937506FC
:1042B00060937606709377068093780690937906DC
:1042C00040925606509257066092580670925906D0
:1042D0000E94E50F7F926F925F924F92A32CB22CB7
:1042E000CDA0DEA0EFA0F8A409A11AA12BA13CA1AA
:1042F0004D8D5E8D6F8D78A1CE0101960E947B3A27
:10430000E12C00E010E0980149A55AA56BA57CA519
:1043100027C00E94E50FBDA5BF93E9A5EF936F925B
:10432000FDA1FF93AD8CB9A02296CCACDDACEEAC78
:10433000FFAC22970AAD1BAD2CAD3DAD4EA95FA9D8
:1043400068AD79ADCE0101960E947B3AE72C2696A6
:104350000CAD1DAD2EAD3FAD269740E050E0BA014B
:10436000CE0101960E94226B0F900F900F900F903C
:1043700032C381E080930002E0CD80919B06909152
:104380009C06059708F427C382E0809334060E94B8
:10439000D1190E94E3199B01AC01A8EEB3E00E9481
:1043A000F5D5AB01BC018EE296E078CC83E499E0D0
:1043B0000E9471BCF1CB1111F2CB6F2D83E499E017
:1043C0000E9461BC08C3CE0101960E9444CF86E0E2
:1043D000FE013196ACE1B6E001900D928A95E1F7CD
:1043E000F2CB90919806911107C0982F9F7E83FF82
:1043F0000AC0892F8061D8CE982F977F84FF03C091
:10440000892F8860D1CE892FCFCE80919B06909145
:104410009C06809708F4DFC20E94D11981E0809346
:1044200034060E94E31922966CAF7DAF8EAF9FAF2A
:1044300022970E94E31926966CAF7DAF8EAF9FAF97
:1044400026970E94E3192A966CAF7DAF8EAF9FAF7F
:104450002A970E94E31969A37DA389A79DA70E94BB
:10446000E3196EA778AB8AAB9EAB0E94E3192E9638
:104470006CAF7DAF8EAF9FAF2E970E94D119182FD2
:104480000E94E31962966CAF7DAF8EAF9FAF6297CB
:104490000E94D51964969FAF8EAF649780913506C0
:1044A000811103C01F771D8F35C08091980681113F
:1044B00010C0012F0F760D8F13FF1BC000610D8FF1
:1044C00019A11EA72DA128AB39A53AAB4DA54EAB1E
:1044D00021C0512F57775D8F14FF14C058605D8F36
:1044E0008EA589A398A99DA3AAA9A9A7BEA9BDA77E
:1044F00011C0E9A1EEA7FDA1F8AB09A50AAB1DA566
:104500001EAB08C02EA529A338A93DA34AA949A7D7
:104510005EA95DA789A18D8B9DA19E8BA9A5AF8B5F
:10452000BDA5B88FEEA5E98FF8A9FA8F0AA90B8F60
:104530001EA91C8FEAE6F6E02E0125E1420E511C71
:10454000A2E5B6E06896BFAFAEAF68971BAE1AAEF5
:10455000BD8D2B2E312C8AAD9BAD0396810102C0FF
:10456000159507958A95E2F7D2016D907D908D9013
:104570009C9000FF31C074016301FF0CCC08DC2C5F
:1045800076019301A4016C2D7C2D8C2D9C2DA08097
:10459000B180C280D380E480F580068117810E94BB
:1045A00079D72083318342835383648375838683E1
:1045B00097836896AEADBFAD68974D915D916D9153
:1045C0007C911397460D571D681D791D4D935D9382
:1045D0006D937C93139734C06896AEADBFAD68976A
:1045E0004D915D916D917C91139794018301041B12
:1045F000150B260B370BC901B80168017901FF0CB7
:10460000CC08DC2C76019B01AC016C2D7C2D8C2D13
:104610009C2DA080B180C280D380E480F58006818B
:1046200017810E9479D72083318342835383648327
:104630007583868397836D927D928D929C9213975A
:104640003896B4E04B0E511C6896AEADBFAD68977E
:1046500014966896BFAFAEAF6897AAADBBAD119781
:1046600029F0A1E0B0E0BBAFAAAF75CF0E94E50F83
:104670007090D515BD8D7B2AEEA9EF93FAA9FF9313
:1046800008A90F931EA51F9389A09DA0A9A4BDA44E
:104690002A96CCACDDACEEACFFAC2A9726960CADDE
:1046A0001DAD2EAD3FAD269722964CAD5DAD6EADE6
:1046B0007FAD2297CE0101960E947B3A6496CEACE4
:1046C000DFAC64976296ECACFDAC0EAD1FAD6297AB
:1046D000272D2E964CAD5DAD6EAD7FAD2E97CE01E4
:1046E00001960E946F6C40CE80919B0690919C0633
:1046F0004A9708F470C10E94D11981E08093340672
:104700000E94E3196EAB7FAB88AF99AF0E94E319AB
:104710006AAF7BAF8CAF9DAF0E94E31922966CAF5E
:104720007DAF8EAF9FAF22970E94E3194B018D8F13
:1047300099A30E94E3196DA3672E89A79DA70E94E4
:10474000E31926966CAF7DAF8EAF9FAF26970E9480
:10475000D119782E80913506882369F180919806C9
:1047600081110DC0872D8F7E73FE16C08061782E5B
:104770008DA2692C1D8D19A729A12DA71CC0872DDD
:10478000877F74FE11C08860782E8DA0962C39A585
:104790003D8F4DA549A30FC0782E8DA2692C5D8D4C
:1047A00059A789A18DA707C0782E8DA0962C99A511
:1047B0009D8FADA5A9A38D8A9E8ABD8DBF8BE9A1D2
:1047C000E88FFDA1F98F6A8E09A50B8F1DA51C8F9F
:1047D000EAE6F6E0DE015596BFA7AEA7A2E5B6E091
:1047E0002C96BFAFAEAF2C9719AA18AAA72DB0E090
:1047F0002896BFAFAEAF289788A999A903962896A7
:10480000AEADBFAD289702C0B595A7958A95E2F7E2
:10481000CD01AEA5BFA52D903D904D905C9080FF41
:1048200031C072016101FF0CCC08DC2C76019101D2
:10483000A2016C2D7C2D8C2D9C2DA080B180C2807E
:10484000D380E480F580068117810E9479D7208388
:1048500031834283538364837583868397832C9645
:10486000AEADBFAD2C974D915D916D917C9113973D
:10487000420D531D641D751D4D935D936D937C9387
:10488000139734C02C96AEADBFAD2C974D915D9172
:104890006D917C91139792018101041B150B260BDE
:1048A000370BC901B80168017901FF0CCC08DC2C79
:1048B00076019801AC016C2D7C2D8C2D9C2DA08057
:1048C000B180C280D380E480F580068117810E9488
:1048D00079D72083318342835383648375838683AE
:1048E00097832D923D924D925C9213973896AEA588
:1048F000BFA51496BFA7AEA72C96AEADBFAD2C97A3
:1049000014962C96BFAFAEAF2C97A8A9B9A9119752
:1049100009F4FFCCA1E0B0E0B9ABA8AB6DCF8091BA
:104920009B0690919C06459708F455C00E94D119AA
:104930000E94E3192B013C010E94E3196D8F7E8FC9
:104940008F8F98A30E94E3196B017C010E94E319E9
:104950004B015C010E94E31920913506222349F0A6
:1049600020919806222319F04B015C0102C0B4018A
:10497000C5018092520690925306A0925406B092BE
:104980005506609356067093570680935806909389
:1049900059069F938F937F936F930D8D1E8D2F8D4F
:1049A00038A1B301A201CE0101960E947B3A60E0DA
:1049B000CE0101960E947269D7CC80919B0690919E
:1049C0009C06029740F00E94D1190E94D119809351
:1049D00098060E946E6FC95ADF4F0FB6F894DEBF7B
:1049E0000FBECDBFDF91CF911F910F91FF90EF9040
:1049F000DF90CF90BF90AF909F908F907F906F90FF
:104A00005F904F903F902F90089540E067E479E1E8
:104A100087EA98E00E94C3CBE9E9F6E080E092E003
:104A200091838083138212821582148283EA96E036
:104A300097838683108611868FE796E00E947A3AE4
:104A40008EE296E00E9444CF88E296E00E9444CF36
:104A500082E296E00E9444CF8CE196E00C9444CF31
:104A6000CF93DF931F921F92CDB7DEB721E029834A
:104A700022E32A8342E050E0BC01CE0101960E946D
:104A800039D80F900F90DF91CF910895CF93DF9396
:104A9000EC0140E050E060EE70E40E94C19346E615
:104AA00056E666EA7EE3CE0102960E94C19340E09C
:104AB00050E060E172E4CE010496DF91CF910C9456
:104AC000C193CF93DF93EC010A960E944625CE0155
:104AD00040960E944625CE014A96DF91CF910C94D4
:104AE00030250F931F93CF93DF9300D0CDB7DEB760
:104AF0008C0167E00E9443D861E0C80102960E94E1
:104B000043D88FEF89838A838B83B8016C5F7F4F93
:104B100043E050E0CE0101960E9439D80F900F90EB
:104B20000F90DF91CF911F910F91089567E080E47E
:104B300091E00C942793682F80E491E00C9443D883
:104B40000F931F93CF93DF9300D01F92CDB7DEB7A3
:104B5000082F162F68E080E491E04C830E9443D830
:104B600009831A834C814B8343E050E064E471E095
:104B7000CE0101960E9439D80F900F900F900F90A0
:104B8000DF91CF911F910F910895CF92DF92EF9215
:104B9000FF92CF93DF936B017C01EA01CA010E946F
:104BA00059D8B701CE010496DF91CF91FF90EF90D5
:104BB000DF90CF900C9459D8AC016BE770E084EF94
:104BC00091E00E94C5250895CF93DF93EC0166EE36
:104BD00070E00E9459D866EE70E0CE0102960E9405
:104BE00059D864E670E0CE0104960E9459D865E079
:104BF000CE010696DF91CF910C9443D861E08EE60A
:104C000091E00E9443D868EE73E082E791E00E9451
:104C100059D868EE73E084E791E00E9459D866E9BC
:104C200070E086E791E00E9459D860ED77E088E770
:104C300091E00E9459D860ED77E08AE791E00E9408
:104C400059D86FE070E08CE791E00E9459D86FE08E
:104C500070E08EE791E00E9459D86AE070E080E849
:104C600091E00E9459D864E170E082E891E00E94EE
:104C700059D864E170E084E891E00E9459D844EF8B
:104C800051E060E070E088ED91E00E9451D84CE77F
:104C900055E160E070E08CED91E00E9451D860E158
:104CA00070E080EE91E00E9459D860E170E082EE01
:104CB00091E00E9459D860E08BE092E00E9443D8D6
:104CC00061E084EE91E00E9443D860E888E891E0DA
:104CD0000C9443D8CF93DF93CDB7DEB764970FB66C
:104CE000F894DEBF0FBECDBF84E1EFEBF2E0DE0152
:104CF000119601900D928A95E1F744E150E06EE043
:104D000070E0CE0101960E9439D864960FB6F894EF
:104D1000DEBF0FBECDBFDF91CF910895CF92DF925E
:104D2000EF92FF920F931F93CF93DF93CDB7DEB730
:104D300064970FB6F894DEBF0FBECDBF7C0128E0AC
:104D4000E3EDF2E0DE011D9601900D922A95E1F768
:104D50004CE050E06EE070E0CE0101960E9415D864
:104D60006E018DE0C80ED11C8701F12C48E050E0A7
:104D7000B801F601819191916F010E9439D84CE000
:104D800050E0B801685F7F4FCE0101960E9439D88C
:104D900066EE70E0C80144960E9459D866EE70E055
:104DA000C80146960E9459D8F1E0FF1619F064E652
:104DB00070E002C06DE270E0C80148960E9459D8C8
:104DC000F394065E1F4F84E0F812D0CF6CEA8CEFAC
:104DD0009FE00E9443D864960FB6F894DEBF0FBEE2
:104DE000CDBFDF91CF911F910F91FF90EF90DF909A
:104DF000CF900895813009F082E0682F82E490E03E
:104E00000E9443D80C946A260F931F93CF93DF938D
:104E1000CDB7DEB76D970FB6F894DEBF0FBECDBF2E
:104E200085E0EBEDF2E0DE01559601900D928A955A
:104E3000E1F74BE050E062E270E08BE393E00E9428
:104E400039D845E050E066E070E0CE0145960E941A
:104E500039D86FE984E090E00E9443D86BE18CE0A0
:104E600090E00E9443D80E946A2684E99FE00E9455
:104E70008E26A89544E150E06CE871E086E493E06A
:104E80000E9439D844E150E064EA71E08EE693E094
:104E90000E9439D844E150E064EF71E08AE593E084
:104EA0000E9439D80E94FE2581EC93E29B8F8A8F65
:104EB00084E193ED9D8F8C8F44E050E064E470E0DA
:104EC000CE014A960E9439D880E091E00E94612587
:104ED0008CE191E00E94612500E010E020E030E0EC
:104EE00040E050E060E070E088EC91E00E944D947A
:104EF00020E030E040E050E060E070E080ED91E0E4
:104F00000E944D9480E491E00E9471258AE491E032
:104F10000E94DC2588E591E00E94E42561E080E6BE
:104F200091E00E9443D860E08DEF9FE00E9443D85B
:104F300060E08EEF9FE00E9443D860E08FEF9FE03B
:104F40000E9443D861E082E99FE00E9443D860E07C
:104F500081E99FE00E9443D880E00E94FA2661E048
:104F60008CE490E00E9443D860E08FE89FE00E94CC
:104F700043D860E08EE89FE00E9443D888EC90E040
:104F8000A0E0B0E089839A83AB83BC8344E050E027
:104F900066E67FE08E010F5F1F4FC8010E9439D87F
:104FA00063E084E69FE00E9443D864E683E69FE0E6
:104FB0000E9443D884E1F80111928A95E9F744E10F
:104FC00050E069E47FE0C8010E9439D860E080E9E0
:104FD0009FE00E9443D860E088E49FE00E9443D8AD
:104FE0006D960FB6F894DEBF0FBECDBFDF91CF91A7
:104FF0001F910F91089561E082E490E00E94279351
:1050000091E0823009F490E0892F089561E08CE40A
:1050100090E00E94279391E0813009F090E0892F81
:105020000895CF93DF93CDB7DEB72C970FB6F894E2
:10503000DEBF0FBECDBF81E89CE0A0E0B0E0898379
:105040009A83AB83BC831D821E821F8218861986B9
:105050001A861B861C864CE050E062E671E0CE01A9
:1050600001960E9439D82C960FB6F894DEBF0FBE79
:10507000CDBFDF91CF9108950F931F93CF93DF930F
:105080008C01EB0160E070E080EA91E00E943793D0
:10509000F8019183808360E082EA91E00E94279387
:1050A0008883DF91CF911F910F910895CF93C62FE1
:1050B000BC0180EA91E00E9459D86C2F82EA91E00D
:1050C000CF910C9443D8FF920F931F93CF93DF930C
:1050D00000D0CDB7DEB78C01F62EBE016D5F7F4FDD
:1050E000CE0101960E943C289B812F2D290F822FF3
:1050F0006CE30E9469D59B832D3330F029813A817E
:10510000280F311D3A83298329813A81692FC801EB
:10511000820F931F0E9456280F900F900F90DF91DF
:10512000CF911F910F91FF9008950F931F9367E107
:1051300082E090E00E9443D880E00E94FA260E941C
:10514000112860E080E090E00E94562861E088E04D
:1051500092E00E9443D800E010E020E030E040E020
:1051600050E060E070E088EB91E00E944D9420E018
:1051700030E040E050E060E070E080EC91E00E94C0
:105180004D941F910F910C94042767E080E491E007
:105190000E942793873041F061E082E491E00E9411
:1051A000279391E0873009F490E0892F089540E03B
:1051B00067E479E18CEA98E00C94C3CBCF92DF925C
:1051C000EF92FF920F931F93CF93DF93EC018881AF
:1051D000811102C080E034C08B0160E0CE010E94EA
:1051E0002FCB87FFF7CF0E94A33B811104C00E9401
:1051F0008373882331F06AE8C8010E9479CB81E08B
:105200001FC0F894E8800E94FA0FF12C8E159F05BC
:1052100088F0C12CD12CCE14DF0454F46C2DCE01B7
:105220000E942FCB0E94A7198FEFC81AD80AF3CF7C
:1052300061E801C062E8C8010E9479CB7894DFCFB1
:10524000DF91CF911F910F91FF90EF90DF90CF9062
:10525000089586E08093C10881E08093B1080895A5
:105260000F931F93CF93DF93CDB7DEB765970FB63C
:10527000F894DEBF0FBECDBF8C01F894BE016B5E0B
:105280007F4FCE0101960E948F6A61E8C8010E949B
:1052900079CB60E070E0CE0101960E94AF3AFC014C
:1052A0004081518162817381C8010E9490CB61E08D
:1052B00070E0CE0101960E94AF3AFC01408151811D
:1052C00062817381C8010E9490CB62E070E0CE01E0
:1052D00001960E94AF3AFC01408151816281738145
:1052E000C8010E9490CB0E947D6F682FC8010E9468
:1052F00079CB789465960FB6F894DEBF0FBECDBF1C
:10530000DF91CF911F910F9108950F931F93CF932A
:10531000DF93CDB7DEB765970FB6F894DEBF0FBE4B
:10532000CDBF8C01F894BE016B5E7F4FCE0101961C
:105330000E948F6A61E8C8010E9479CB60E070E04A
:10534000CE0101960E94AF3AFC01408151816281F9
:105350007381C8010E9490CB61E070E0CE0101969C
:105360000E94AF3AFC014081518162817381C80182
:105370000E9490CB62E070E0CE0101960E94AF3AAD
:10538000FC014081518162817381C8010E9490CBF0
:1053900063E070E0CE0101960E94AF3AFC014081CB
:1053A000518162817381C8010E9490CB64E070E0FA
:1053B000CE0101960E94AF3AFC0140815181628189
:1053C0007381C8010E9490CB0E947D6F682F70E0AE
:1053D000C8010E947BCB789465960FB6F894DEBF27
:1053E0000FBECDBFDF91CF911F910F910895DF9236
:1053F000EF92FF920F931F93CF93DF93CDB7DEB75A
:10540000A0970FB6F894DEBF0FBECDBF8C017B0115
:1054100061E8C7010E9479CB61E0C8010E942FCBEF
:10542000882321F00E94BD3C81112BC09E01205E8B
:105430003F4F40E050E06FE1CE0101960E94CE3C2C
:1054400089818E3249F488A1882381F38A818E3242
:1054500069F78B818111EACF60E0C7010E9479CBA7
:105460008E010F5F1F4F8FE1D82ED00EF801619192
:105470008F01662351F0C7010E9479CBD012F6CF7D
:1054800004C0682FC7010E9479CB60E0C7010E9469
:1054900079CBA0960FB6F894DEBF0FBECDBFDF91DB
:1054A000CF911F910F91FF90EF90DF9008958F9211
:1054B0009F92AF92BF92CF92DF92EF92FF920F93A3
:1054C0001F93CF93DF93CDB7DEB78C015B018DB611
:1054D0009EB661E00E9434CB6C0163E0C8010E947B
:1054E0002FCB082F10E08DB79EB7801B910B0FB606
:1054F000F8949EBF0FBE8DBFEDB7FEB731967F010A
:10550000A801B601CF010E9415D861E8C5010E942B
:1055100079CB6701C6018E199F09801791073CF46A
:10552000F60161916F01C5010E9479CBF3CF0FB6EF
:10553000F8949EBE0FBE8DBEDF91CF911F910F914B
:10554000FF90EF90DF90CF90BF90AF909F908F90A3
:1055500008952F923F924F925F926F927F928F9217
:105560009F92AF92BF92CF92DF92EF92FF920F93F2
:105570001F93CF93DF931F92CDB7DEB76C015B0112
:105580002DB63EB661E00E9434CB4C0163E0C6010B
:105590000E942FCB8983082F10E08DB79EB7801B08
:1055A000910B0FB6F8949EBF0FBE8DBFEDB7FEB73F
:1055B00031967F01A801B401CF010E9415D83701AF
:1055C000412C512C4016510664F464E0640DC60170
:1055D0000E942FCBF30181933F01FFEF4F1A5F0A27
:1055E000F1CFDFB6F894A801B401C7010E9439D801
:1055F000DFBE61E8C5010E9479CB6981C5010E94C7
:1056000079CB0FB6F8943EBE0FBE2DBE0F90DF9142
:10561000CF911F910F91FF90EF90DF90CF90BF90AF
:10562000AF909F908F907F906F905F904F903F9042
:105630002F9008950F931F93CF93DF938091E108EC
:10564000811111C001EE18E0C2E2D0E060E0CE01AD
:105650000E942793F80181938F012196C233D105CF
:10566000A9F71092F1088091E10881110DC0E0EBDB
:10567000F4E0A1EEB8E08CE08A0F94919D9331960E
:105680008A13FBCF1092ED0881EE98E0DF91CF9165
:105690001F910F9108958091C10808958091C008CD
:1056A000089587E199E00E94EE326093BB08709301
:1056B000BC088093BD089093BE0881E08093BF082A
:1056C00008951092B7081092B8081092B908109275
:1056D000BA080C94512B0F931F938091BF0881300F
:1056E00089F487E199E00E94EE320091BB081091A5
:1056F000BC082091BD083091BE08601B710B820B65
:10570000930B03C060E070E0CB011F910F910895EF
:105710000F931F930E946B2B0091B7081091B8084C
:105720002091B9083091BA08DC01CB01800F911F9C
:10573000A21FB31F8093B7089093B808A093B9082D
:10574000B093BA0882E08093BF081F910F9108952B
:105750000F931F930E946B2B0091B7081091B8080C
:105760002091B9083091BA08600F711F821F931FF2
:105770001F910F9108958F929F92AF92BF92FF92C7
:105780000F931F93CF93DF932091BF0821110CC07B
:105790002091B5083091B608FC01318320838091B7
:1057A000B408FB0180831DC08B01EC010E94A82B73
:1057B0004B015C0120E13EE040E050E00E949DD5BD
:1057C000F22E28833983C501B4012CE330E040E098
:1057D00050E00E949DD5FCE3FF9E20191124F801A2
:1057E0002083DF91CF911F910F91FF90BF90AF90D9
:1057F0009F908F90089564EB78E085EB98E00E948D
:10580000BB2B1092BF086091B4088091B5089091AD
:10581000B6080C9463280E94FB2B60E088EF0E947E
:105820002B6F81E00E94F43580E00E94D63582E043
:105830008093C0081092C10808950097C1F028E035
:10584000823C9207B1F0603208F06EE1DC0142EC7C
:1058500058E0FA012E2F241B261718F42D912193BE
:10586000F9CFE62FF0E0EE53F74F108202C082EC42
:1058700098E00E949B3D8930A9F0811114C081E01D
:105880000E94F4350E948A110E944A700E94EA72B6
:105890001092F20882E08093C10880914B0B8068DF
:1058A00080934B0B80E008951092F2080E94BB7326
:1058B000882319F085E08093C10880914B0B8460A8
:1058C00080934B0B0E948A110E94EA728FEF8093A3
:1058D000BE020895CF93C091C108C13069F484E03D
:1058E0008093C10840E452E46FE070E089EF98E0F3
:1058F0000E9447CFC093B1080E94FB2B81E08093A8
:10590000B30840E45DE063E070E083EF98E00E945C
:1059100047CF8FEF0E947E7684E08093C008CF91BE
:10592000089585E08093C00881E08093F2080E948A
:10593000EA7280914B0B8B77806280934B0B0E94B5
:105940006F10811108C00E948010811104C060E0B6
:1059500081E00C945F100C946A2C1F93CF93DF931B
:105960001F92CDB7DEB7182F69830E946F1091E0A8
:105970006981811101C090E01917E9F069830E94E3
:1059800080106981811117C0812F0E945F1011233F
:1059900049F083E08093C0080F90DF91CF911F9171
:1059A0000C94882B81E08093C0080F90DF91CF91F9
:1059B0001F910C94512B0F90DF91CF911F9108955F
:1059C000EF92FF920F931F93CF93DF93FC012081FF
:1059D000222309F4BAC0EB017C0161E00E942FCBC5
:1059E000082F62E0C7010E942FCB182F61E8CE017B
:1059F0000E9479CB103209F447C090F4123089F13B
:105A000028F41111A2C064EC72E04AC0163199F179
:105A10001E3109F09AC06091F1097091F20940C0FD
:105A2000133209F457C020F4113209F445C08DC077
:105A3000143209F455C0153209F087C040E050E037
:105A4000BA01CE010E9490CB40E050E0BA01CE01F5
:105A50000E9490CB40E050E0BA01CE010E9490CB72
:105A600072C0013019F0ECE3FAE002C0EBEBFAE0AF
:105A700062A173A115C0013019F08CE39AE002C055
:105A80008BEB9AE0489628C0013071F0ECE3FAE025
:105A9000DF01A759BF4F8C91882349F066A177A1F8
:105AA000CE010E947BCB4FC0EBEBFAE0F1CFEC5A7A
:105AB000FF4F60817181F4CF8091380A882329F0EB
:105AC0006091F5097091F609EBCF6091230A70910E
:105AD000240AE6CF87EE99E00E949F97682F30C096
