:100000000C949A0F0C94D50F0C94D50F0C94D50F1B
:100010000C94D50F0C94D50F0C94D50F0C94D50FD0
:100020000C94D50F0C94D50F0C94D50F0C94D50FC0
:100030000C94D50F0C94DA340C94D50F0C94D50F86
:100040000C94D50F0C94D50F0C94D50F0C94D50FA0
:100050000C94D50F0C94D50F0C94D50F0C94D50F90
:100060000C94D50F0C941ACF0C94D50F0C9446CF4A
:100070000C94D50F0C94BE900C94D50F0C94D50F06
:100080000C94B0340C94D50F0C94D50F0C94D50F60
:100090000C947ACF0C94D50F0C94A6CF0C94D50F5A
:1000A0000C94D50F0C94D50F0C94D50F0C94D50F40
:1000B0000C94D50F0C94D50F0C94D50F0C940235DD
:1000C0000C94D50F0C94D50F0C94D50F0C94D50F20
:1000D0000C94D50F0C94D50F0C94D50F0C94D50F10
:1000E0000C94D50FCF2D0F2E112EF72D1B2ED42EA5
:1000F000D42EF72D442ED42E522E572E6B2E702E2A
:10010000D42ED42E232EF72D3F2ED42EDD2D1F2EB0
:10011000752E882E8F2ED42ED42EB42EE175BA755E
:10012000C575B775B475C775DB75CA759AB7B7B7B6
:10013000C4B7EDB70CB81FB82DB860B80C94D9A0EF
:100140000C943CCB0C9468A50C94A4A40C946B9FC9
:100150000C9460B80C94E6B10C944ABB0C94EDB7C7
:100160000C94F8AA0C944F900C94F2A00C94C09F9D
:100170000C94EDA00C9498AE0C9492A00C942D8B42
:100180000C9430760C947ABD0C94989F0C9430A803
:100190000C949BB00C9456C00C9406CD0C94AFA15B
:1001A0000C944EC70C944DAA0C94F7A00C94DBB39E
:1001B0000C94D6A10C9495B50C942B940C94BB9FE5
:1001C0000C94EBAF0C94BBA00C946CA10C94217616
:1001D0000C94E3A70C9491BD0C941FB80C9465A6E5
:1001E0000C947F9F0C94D42E0C942DB80C945D9F8E
:1001F0000C94CDAB0C94C59F0C94849F0C94DBB5F0
:100200000C9499C50C943E760C9451CD0C94E890C6
:100210000C9448900C94232E0C9406A50C94B7755E
:100220000C94DB750C94E4C30C941EC50C940FB5B0
:100230000C94C5A10C947F940C94B42E0C946B2E4A
:100240000C948F2E0C94B19F0C94F1A90C945AC26B
:100250000C94CF2D0C9422310C94442E0C94AC763B
:100260000C9407AD0C94AEC70C949F8F0C94E7C50B
:100270000C94CA9F0C9453AC0C940F2E0C947ACD12
:100280000C9408760C945BC30C94A2A40C948DCEB1
:100290000C940CB80C94DACF0C9437C30C9463A56F
:1002A0000C946DD50C941F2E0C949CA60C94EDC24E
:1002B0000C9491A50C943F2E0C94D6B00C94D49F22
:1002C0000C9418CE0C9401760C9470930C94ABA5FE
:1002D0000C94702E0C947FAD0C94E7CF0C94D2B993
:1002E0000C9447760C9459A40C944AB00C94EAA050
:1002F0000C9463B10C9424AE0C94572E0C94A8A0CB
:100300000C9455AF0C9401250C9409B40C940BA1DA
:100310000C94DD2D0C9433890C9463CB0C94D3BFD7
:100320000C947AA50C945B3A0C949AB70C948BA21B
:100330000C9446AB0C9451680C9491A00C94112E23
:100340000C94D99F0C9434A70C94C5750C94E1754A
:100350000C948A9B0C94BB980C94F0A10C94E63DF1
:100360000C947A9F0C948A910C94F72D0C9442AFC4
:100370000C94A5A00C94CCA00C948E9F0C9475A901
:100380000C94AC9F0C94BA750C94B69F0C94FE9B85
:100390000C94939F0C94FEA70C9431CB0C94C3A0A7
:1003A0000C941B2E0C94F6BE0C94EAB20C942A31D9
:1003B0000C940FCB0C94FCBC0C9440C40C94B08DEA
:1003C0000C948CB10C9432C10C94899F0C9495A41C
:1003D0000C94A79F0C94DFA80C94A57A0C942F651D
:1003E0000C949D9F0C94CF9F0C9479AC0C94759FAA
:1003F0000C94C1A30C94B1AF0C94709F0C94D6379D
:100400000C940EA20C94D0B30C9426A40C94522EEF
:100410000C94A29F0C9423310C9499A70C94F0B4E3
:100420000C9499A10C94537E0C94D3280C94752EA3
:100430000C9430CC0C941E730C94C4B70C94853F70
:100440000C94A2A60C94882E0C94EE890C94FECCED
:100450000C9459C10C94EBC30C94E8740C9417B32E
:100460000C943C300C94BEB00C94B4750C94D973BD
:100470000C94BEB60C943BC40C94F9CA0C942C7624
:100480000C9403990C94CA750C94C8A00C94B7B73B
:100490000C945CA50C94649F0C94ED520C948EC645
:1004A0000C94F6A00C943E8E0C94D0A00C94C775BE
:1004B0005265706C6963617430722031001704C832
:1004C000000000DC0027056400000078007505C806
:1004D000000000DC002006640000007800E006C890
:1004E000000000DC002006C8000000DC002006C878
:1004F000000000DC002D08C80000000000C00DC88E
:100500000000001400C00DC800000014005A10C8FC
:100510000000001400C00D90010000000070039066
:1005200001000014005504C800000014002705C88D
:1005300000000014007003900100000000C805C80E
:100540000000001400C805C80000001400C805C859
:100550000000001400DD04B004000014007505C89C
:1005600000000014007505C800000014007505C8DF
:1005700000000014009704B00400000000C00DC883
:100580000000001400C00DC80000001400910E907F
:1005900001000014005A10900100001400C00D204A
:1005A00003000000007003BC000000BC00E006BCBB
:1005B000000000BC00B807BC000000BC002D08BC57
:1005C00000A908BC000000BC00C00D4D01000000E7
:1005D00000C00D20010000BC005311BC000000BC95
:1005E000005B12B101000000009302690000006985
:1005F00000EE016900000069002601B8010000005A
:100600000024F4D43050C38E20C2A24017828B70D5
:1006100011127A910D816CD90AA861E108C7586658
:1006200007615143061E4B5D05C145A7041A4111E0
:1006300004093D9803713931034036DB026533917B
:1006400002D4305402802E1D02632CEE01752AC59F
:1006500001B028A001102781018F2564012B244BB4
:1006600001E0223401AC211F018D200D01801FFC0F
:1006700000841EED00971DDF00B81CD200E61BC6EB
:1006800000201BBC00641AB200B219A8000A19A00D
:10069000006A189900D117910040178B00B5168495
:1006A0000031167E00B31579003A157300C7146F38
:1006B0000058146A00EE1366008813630025135E69
:1006C00000C7125B006C12570015125400C1115183
:1006D0000070114F0021114B00D61049008D1047BA
:1006E000004610440002104200C00F4000800F3E40
:1006F00000420F3C00060F3B00CB0E3800930E3734
:10070000005C0E3500270E3400F30D3200C10D31B0
:1007100000900D3000600D2E00320D2D00050D2CC7
:1007200000D90C2B00AE0C2900850C29005C0C278D
:1007300000350C27000E0C2600E80B2400C40B2407
:1007400000A00B23007D0B23005A0B2100390B2145
:1007500000180B2000F80A1F00D90A1E00BB0A1E51
:10076000009D0A1D00800A1D00630A1C00470A1B29
:10077000002C0A1B00110A1A00F7091A00DD0919DA
:1007800000C4091900AB091900920917007B091868
:1007900000630917004C09160036091600200916D7
:1007A000000A091500F5081500E0081400CC08142B
:1007B00000B8081400A4081400900813007D081263
:1007C000006B081300580812004608120034081184
:1007D00000230811001208110001081100F0071091
:1007E00000E0071000D0071000C0071000B0070F8E
:1007F00000A107100091070E0083070F0074070F78
:100800000065070E0057070E0049070E003B070D55
:10081000002E070E0020070D0013070D0006070D20
:1008200000F9060C00ED060D00E0060C00D4060CE5
:1008300000C8060C00BC060C00B0060C00A4060B99
:100840000099060C008D060B0082060B0077060B44
:10085000006C060B0061060A0057060B004C060AE6
:100860000042060A0038060A002E060A0024060A7C
:10087000001A060A001006090007060A00FD05090D
:1008800000F4050900EB050900E2050900D9050996
:1008900000D0050900C7050900BE050900B5050817
:1008A00000AD050800A50509009C05080094050891
:1008B000008C050800840508007C05080074050804
:1008C000006C050700650508005D05070056050872
:1008D000004E0507004705070040050800380507DA
:1008E00000310507002A050700230507001C05063F
:1008F00000160507000F050700080506000205079A
:1009000000FB040600F5040700EE040600E80406F8
:1009100000E2040700DB040600D5040600CF04064D
:1009200000C9040600C3040600BD040600B704069F
:1009300000B1040500AC040600A6040600A00405EE
:10094000009B04060095040500900406008A040537
:100950000085040500800406007A0405007504057E
:1009600000700405006B04050066040500610405C1
:10097000005C04050057040500520405004D040501
:100980000048040500430405003E0404003A040541
:100990000035040500300404002C0405002704047D
:1009A00000230405001E0404001A040400160405B4
:1009B00000110404000D04040009040500040404EB
:1009C0000000040400FC030400F8030400F4030422
:1009D00000F0030400EC030400E8030400E4030453
:1009E00000E0030400DC030400D8030400D4030483
:1009F00000D0030400CC030400C8030300C50303B4
:100A00000024F404D9201BC40C5C0E9804C4095FB4
:100A10000265077101F405F900FB04B3004804877F
:100A200000C10369005803550003034500BE023AA4
:100A3000008402310053022A00290225000402200A
:100A400000E4011C00C8011900AF0117009801144F
:100A50000084011300710110006101100051010EAA
:100A60000043010D0036010B002B010B0020010B90
:100A700000150109000C01090003010800FB000832
:100A800000F3000800EB000700E4000600DE0006AB
:100A900000D8000600D2000600CC000500C7000503
:100AA00000C2000500BD000400B9000400B5000448
:100AB00000B1000400AD000400A9000400A500037B
:100AC00000A20003009F0004009B000300980003A5
:100AD000009500020093000300900003008D0002C7
:100AE000008B0003008800020086000200840003DF
:100AF00000810002007F0002007D0002007B0002F6
:100B00000079000200770001007600020074000204
:100B10000072000100710002006F0002006D000110
:100B2000006C0002006A0001006900020067000119
:100B3000006600010065000100640002006200011F
:100B40000061000100600001005F0002005D000123
:100B5000005C0001005B0001005A00010059000127
:100B60000058000100570001005600010055000127
:100B70000054000100530000005300010052000126
:100B80000051000100500001004F0001004E000024
:100B9000004E0001004D0001004C0001004B000020
:100BA000004B0001004A000100490001004800001C
:100BB0000048000100470001004600000046000117
:100BC0000045000000450001004400010043000012
:100BD000004300010042000000420001004100000B
:100BE0000041000100400001003F0000003F000103
:100BF000003E0000003E0001003D0000003D0001FD
:100C0000003C0000003C0000003C0001003B0000F4
:100C1000003B0001003A0000003A000100390000EA
:100C200000390001003800000038000000380001E1
:100C300000370000003700010036000000360000D9
:100C400000360001003500000035000000350001CD
:100C500000340000003400000034000100330000C4
:100C600000330000003300010032000000320000B9
:100C700000320001003100000031000000310001AD
:100C8000003000000030000000300001002F0000A4
:100C9000002F0000002F0000002F0001002E000098
:100CA000002E0000002E0001002D0000002D00008D
:100CB000002D0000002D0001002C0000002C000081
:100CC000002C0000002C0001002B0000002B000075
:100CD000002B0000002B0001002A0000002A000069
:100CE000002A0000002A000100290000002900005D
:100CF0000029000000290000002900010028000050
:100D00000028000000280000002800000028000142
:100D10000027000000270000002700000027000037
:100D20000027000100260000002600000026000029
:100D3000002600000026000100250000002500001C
:100D4000002500000025000000250000002500010E
:100D50000024000000240000002400000024000003
:100D600000240001002300000023000000230000F5
:100D700000230000002300000023000000230001E6
:100D800000220000002200000022000000220000DB
:100D900000220000002200010021000000210000CC
:100DA00000210000002100000021000000210000BF
:100DB00000210001002000000020000000200000B1
:100DC00000200000002000000020000000200000A3
:100DD00000200001001F0000001F0000001F000095
:100DE000001F0000001F0000001F0000001F000186
:100DF000001E0000001E0000001E0000001E00007B
:100E0000008908990000000052657047204275690A
:100E10006C64009600FF84036901000014008304E1
:100E20008800000014008C0000000000000000306A
:100E3000F8FFFF00000000000000009B0000000021
:100E400000000000000000000000000000000000A2
:100E5000A51C0000180000A04095048304DC0500D8
:100E6000001400901F891B95000000004C4556455A
:100E70004C494E47202020202020202020202020C8
:100E8000009501000000202020202020202020208C
:100E9000202020202020202020200095010000007C
:100EA00050726573732063656E746572206B65792B
:100EB000202020200095030000007768656E2064E4
:100EC0006F6E65008500CA9A3B891F62003B020075
:100ED0000000002110422063308440A550C660E726
:100EE00070088129914AA16BB18CC1ADD1CEE1EFDF
:100EF000F13112100273325222B5529442F772D677
:100F000062399318837BB35AA3BDD39CC3FFF3DE2E
:100F1000E36224433420040114E664C774A44485C6
:100F2000546AA54BB528850995EEE5CFF5ACC58D7E
:100F3000D55336722611163006D776F6669556B416
:100F4000465BB77AA719973887DFF7FEE79DD7BCCE
:100F5000C7C448E5588668A7784008611802282366
:100F600038CCC9EDD98EE9AFF9488969990AA92B1E
:100F7000B9F55AD44AB77A966A711A500A333A12B6
:100F80002AFDDBDCCBBFFB9EEB799B588B3BBB1A6E
:100F9000ABA66C877CE44CC55C222C033C600C4106
:100FA0001CAEED8FFDECCDCDDD2AAD0BBD688D49BE
:100FB0009D977EB66ED55EF44E133E322E511E7056
:100FC0000E9FFFBEEFDDDFFCCF1BBF3AAF599F780E
:100FD0008F8891A981CAB1EBA10CD12DC14EF16FBF
:100FE000E18010A100C230E3200450254046706724
:100FF00060B9839893FBA3DAB33DC31CD37FE35E50
:10100000F3B1029012F322D2323542145277625673
:1010100072EAB5CBA5A89589856EF54FE52CD50D5F
:10102000C5E234C324A014810466744764245405C3
:1010300044DBA7FAB79987B8975FE77EF71DC73CEF
:10104000D7D326F2369106B0165766767615463413
:10105000564CD96DC90EF92FE9C899E9898AB9ABFF
:10106000A94458654806782768C018E1088238A363
:10107000287DCB5CDB3FEB1EFBF98BD89BBBAB9A8F
:10108000BB754A545A376A167AF10AD01AB32A92B3
:101090003A2EFD0FED6CDD4DCDAABD8BADE89DC99F
:1010A0008D267C076C645C454CA23C832CE01CC103
:1010B0000C1FEF3EFF5DCF7CDF9BAFBABFD98FF82F
:1010C0009F176E367E554E745E932EB23ED10EF053
:1010D0001E78206D6F726521002A2050726573732F
:1010E000200045726173696E672E2E2E0065657053
:1010F000726F6D5F64756D702E62696E2066696CCB
:10110000656E6F7420666F756E6400526561642051
:101110006661696C65643B20454550524F4D206DBA
:10112000617920626520636F727275707400526518
:1011300073746F72696E672E2E2E00656570726F04
:101140006D5F64756D702E62696E2066696C656195
:101150006C726561647920657869737473005344B7
:101160002063617264207772697465206661696CBE
:10117000656400536176696E672E2E2E005072658D
:10118000737320555020746F2070726F63656564AF
:101190002E00796F757220626F7420696E6F7065B2
:1011A0007261626C652E0054686973206D656E759E
:1011B0002063616E206D616B6500537065636961CA
:1011C0006C2045646974696F6E20202020200053D4
:1011D00061696C666973682020202020202020200F
:1011E000202020002020202020202020202020201F
:1011F00020202020202020200046462043726561C8
:10120000746F722050726F20202020202000202038
:1012100020202020202020202020202020202020CE
:10122000202000202020200020004320202020001B
:101230002F2020204300010049033600FF006B00EF
:10124000D100A000B800D500A6000A0199003F0116
:101250008E0074018400A9017C00DE017400130279
:101260006C00480265007D025D00B2025600E70294
:101270004E001C03460051033D0086033200BB03B1
:101280002200F0030300FF030000456C61707365EA
:10129000643A20202020202020202020306D0020B3
:1012A0007365637300546F20476F3A20202020201D
:1012B0002020202020202D2D2D005541525431007A
:1012C00020205553420053657269616C20492F4FAD
:1012D00000457261736520456570726F6D005344FF
:1012E000202D3E20456570726F6D00456570726FF0
:1012F0006D202D3E20534400456570726F6D005087
:1013000072696E742054696D653A2020206820301F
:10131000306D004C617374205072696E743A2020F5
:101320002020682030306D004C69666574696D65F9
:101330003A202020202020682030306D0052657334
:10134000756D696E6720706F736974696F6E2E2E8C
:101350002E00436C656172696E67206275696C640A
:101360002E2E2E20202000447261696E696E672047
:10137000706970656C696E652E2E2E004C65617605
:10138000696E672070617573652E2E2E20202020D7
:101390000043616E63656C6C696E67207072696E84
:1013A000742E2E2E2000456E746572696E67207053
:1013B000617573652E2E2E20202000506175736597
:1013C000206174205A506F733A2000506C6174662B
:1013D0006F726D2054656D703A202020004C656658
:1013E000742054656D703A20005269676874205407
:1013F000656D703A2000546F6F6C68656164204FB2
:101400006666736574730020546F6F6C6865616401
:10141000204F66667365743A00204F666673657484
:101420003A0055702F446E2F4C6566742F4D207412
:101430006F207365740055702F446E2F522F4C2F00
:101440004D20746F207365740050726F66696C650F
:10145000204E616D653A005361766520546F2050CF
:10146000726F66696C65004368616E6765204E61E6
:101470006D6500446973706C617920436F6E6669B5
:101480006700526573746F72650052657365743AD4
:101490002070726573732043454E5445520046696F
:1014A0006C2E20547269703A0046696C616D656EED
:1014B000743A00547269703A004C6966653A0046A5
:1014C000696C616D656E74204F646F6D65746572D3
:1014D0000048656174657273204F66660043616EF3
:1014E00063656C205072696E74005072696E74206E
:1014F00053746174697374696373004261636B2030
:10150000746F204D6F6E69746F72006D006D6D00A9
:10151000486F6D65204F6666736574730050726F17
:1015200066696C65730046696C616D656E743A003E
:101530004865696768743A202020202020200050E8
:1015400072696E742054696D653A202020202068ED
:1015500020206D0054656D70657261747572652030
:1015600072656164732020206F7574206F6620722D
:10157000616E67652E20202020202020436865634F
:101580006B20776972696E672E0054656D706572A5
:1015900061747572652072656164732020206172C8
:1015A00065206661696C696E672E202020202020EE
:1015B0002020436865636B20776972696E672E002F
:1015C00054656D70657261747572652064726F70B8
:1015D00070696E67436865636B20776972696E67CF
:1015E0002E004E6F742068656174696E672070729A
:1015F0006F7065726C79436865636B207769726997
:101600006E672E0054656D70206C696D6974207270
:101610006561636865642E2053687574646F776EC6
:10162000206F7220726573746172742E00506C6149
:1016300074666F726D204661696C75726521202039
:101640002000546F6F6C2031204661696C757265A3
:1016500021202020202000546F6F6C203020466114
:10166000696C7572652120202020200045787472F5
:1016700075646572204661696C7572652120202051
:1016800000486561746572732073687574646F7760
:101690006E20647565746F20696E61637469766924
:1016A00074790046696C616D656E74206C6F61645D
:1016B0002F756E6C6F616463616E63656C65642029
:1016C00064756520746F20746865207072696F722C
:1016D00020686561746572206572726F72004D7961
:1016E0002074656D706572617475726520776173C1
:1016F00020206368616E6765642065787465726E2A
:10170000616C6C792E20526573656C65637420661C
:10171000696C616D656E742020206D656E75207436
:101720006F2074727920616761696E2E007761693C
:1017300074696E67200020204E4120202020006523
:1017400072726F7221004F4646202020004355538D
:10175000544F4D0057484954452000505552504C65
:101760004500424C5545202000475245454E20003B
:1017700050494E4B2020004F52414E4745005245A4
:1017800044202020004C454420436F6C6F7572004C
:10179000536574204C6967687473204F4E20005362
:1017A0006574204C6967687473204F46460028436F
:1017B000616E6E6F74205072696E7420436F707921
:1017C00029005072696E7420416E6F7468657220D2
:1017D000436F7079004D61696E204D656E750053E1
:1017E000657420436F6F6C696E672046616E204F91
:1017F00046460053657420436F6F6C696E672046E0
:10180000616E204F4E20004368616E67652048423C
:10181000502054656D70004368616E6765205465A3
:101820006D7065726174757265004368616E67659D
:101830002053706565640050617573652061742084
:101840005A506F7300446974746F205072696E74DB
:10185000696E67004E2F4100502D53746F702074D5
:10186000726967676572656400502D53746F7020EC
:10187000496E76657274656400502D53746F7020E4
:10188000436F6E74726F6C00436865636B205344E2
:1018900020526561647300457874727564657220C6
:1018A000486F6C64005061757365207769746820B7
:1018B00048656174004F766572726964652047639C
:1018C00054656D700048425020696E7374616C6C91
:1018D000656400416363656C65726174696F6E0075
:1018E00045786974204D656E7500536F756E6400A0
:1018F000457874727564657220436F756E7400422A
:101900006F74205374617469737469637300436105
:101910006C696272617465204E6F7A7A6C657300CF
:10192000526573746F72652053657474696E677362
:101930000047656E6572616C2053657474696E67EB
:101940007300507265686561742053657474696EC4
:101950006773004C6576656C00456E61626C65204E
:1019600053746570706572732020004469736162FE
:101970006C65205374657070657273005665727380
:10198000696F6E20496E666F726D6174696F6E006B
:1019900046696C616D656E74204C6F6164696E6739
:1019A00000486F6D652041786573004A6F67204D70
:1019B0006F6465004D6F6E69746F72204D6F646562
:1019C000005574696C697469657300507265686567
:1019D0006174005072696E7400492074696D6564A9
:1019E000206F7574207768696C652020206174749D
:1019F000656D7074696E6720746F2068656174200E
:101A0000206D7920706C6174666F726D2E004920B4
:101A100074696D6564206F7574207768696C6520E2
:101A20002020617474656D7074696E6720746F2016
:101A30006865617420206D792065787472756465BD
:101A4000722E00556E61626C6520746F2072656144
:101A5000642053442020206361726420706172749A
:101A60006974696F6E73206F7665723247422069C0
:101A70006E2073697A652E2020466F726D617461E5
:101A800073204641542D3136206F72202D33322E73
:101A900000556E61626C6520746F20726561642010
:101AA00074686973205344206361726420666F72A6
:101AB0006D61742E2020202020466F726D6174208D
:101AC0006173204641542D3136206F7220464154B7
:101AD0002D33322E0053442063617264207265619D
:101AE00064206572726F722E20546F6F206D616E6C
:101AF0007920435243206572726F72732E42616483
:101B0000206361726420636F6E7461637473206F0D
:101B100072656C656374726963616C206E6F697362
:101B2000652E0053442063617264207265616420F5
:101B30006572726F720053442063617264206E6F2D
:101B4000742070726573656E740053442063617213
:101B50006420697320656D7074790043616E6E6FE7
:101B600074206F70656E207468652066696C65000E
:101B700053442063617264207265616473206172F2
:101B8000652020206E6F7420676F696E672077650F
:101B90006C6C2E20205472796120646966666572CF
:101BA000656E7420636172640049276D20616C72F8
:101BB00065616479206275696C64696E6700436F62
:101BC0006C6420506175736500526573756D652096
:101BD00000506175736520200043616E63656C2061
:101BE0006C6F61642F756E6C6F61643F0043616E52
:101BF00063656C2074686973207072696E743F004D
:101C000073657474696E67733F00526573746F72A5
:101C10006520666163746F727900506C6174666FE1
:101C2000726D2020202020202020202020004C65C4
:101C300066742045787472756465722020202020B7
:101C40002000526967687420457874727564657203
:101C50002020202020004578747275646572202051
:101C60002020202020202020200050726573732027
:101C70006C65667420746F2063616E63656C0045EB
:101C8000787472756465723A2020202D2D2D2F2DC9
:101C90002D2D4300506C6174666F726D3A202020C8
:101CA0002D2D2D2F2D2D2D43004C20457874727530
:101CB0006465723A202D2D2D2F2D2D2D430052209D
:101CC00045787472756465723A202D2D2D2F2D2D57
:101CD0002D4300202D2D250048656174696E673AFB
:101CE0002020202020202020202020200048656166
:101CF00074696E673A00203C2D592020284D656E8E
:101D00007529202020202020202000203C2D582034
:101D100020284D656E752920205A2D3E2020200058
:101D20002020202020202020582D2020202020206E
:101D30002020202000202020202020284D656E75A6
:101D4000292020592D3E2020200020202020202046
:101D50002020582B20202020202020202020002060
:101D6000202020204A6F67206D6F6465202020208E
:101D700020202000556E6C6F6164206C65667400D5
:101D8000556E6C6F616420726967687400556E6C83
:101D90006F6164004C6F6164004C6F6164004C6F54
:101DA00061642072696768740035206D696E7574AE
:101DB000652074696D656F757420686173656C6109
:101DC000707365642E20205072657373207468658B
:101DD0002063656E74657220627574746F6E207412
:101DE0006F2020202066696E6973682E004C4F4179
:101DF00044494E472E2E2E20202020202020202017
:101E000020202020202020202020202020202020D2
:101E100020202020202020202020202020202020C2
:101E20002020202020202020205072657373204F16
:101E30004B207768656E20646F6E6500457874721C
:101E4000756465727320617265206E6F7420202046
:101E500068656174696E672E2020436865636B2036
:101E600074686520776972696E672E005920417821
:101E70006973204C696E6500582041786973204C65
:101E8000696E6500594553004E4F2000446F6E65E2
:101E90000053656C6563742062657374206C696EB1
:101EA00065733A00457874727564657200506C61B0
:101EB00074666F726D005475726E2048656174654A
:101EC0007273204F464600537461727420507265DD
:101ED00068656174696E670046726565205352419A
:101EE0004D20004F4646004F4E2000000125D328CC
:101EF0003C302331D6375B3AE63D853FED522F65C6
:101F000051681E73D973E8740176AC763389EE8913
:101F100048904F90E8908A9170937F94BB98039972
:101F20008A9B5D9F649FAEC7F9CA30CC18CE8DCE18
:101F3000DACFE7CFE8E6FBE185EC91E201C08193DF
:101F4000EF3FF907E0F3D9F311241FBECFEFD1E241
:101F5000DEBFCDBF00E00CBF16E0A0E0B2E0E6E7D8
:101F6000FEEA01E00BBF02C007900D92AA31B10753
:101F7000D9F72BE1AAE1B6E001C01D92A836B2075D
:101F8000E1F71FE0CAE9DFE000E006C021970109A0
:101F9000802FFE010E94B9D4C637D10780E0080720
:101FA000A9F70E9499300C9439D70C9400006BBFAC
:101FB000FA01DC0102C007900D9221503040D8F7A1
:101FC00008958091A40881110AC08091A3088F5FB1
:101FD0008093A308853018F081E08093A4080895C9
:101FE00081E00E94F03580E00C94D235F894E9E964
:101FF000F6E02281338180819181821B930B78945A
:102000000895EF92FF920F931F93CF937C018B0162
:10201000C42F83E499E00E94EEBDB70183E499E008
:102020000E94C7BDB80183E499E00E94C7BDE0915A
:10203000D509EE0FFF0BE953F64F80819181835450
:10204000994039F063E479E08BEB99E00E9457996D
:1020500004C083E499E00E942DBEC093A209CF91F1
:102060001F910F91FF90EF9008951092A209E091B7
:10207000D509EE0FFF0BE953F64F80819181835410
:10208000994021F48BEB99E00E94139AE091D509D5
:10209000EE0FFF0BE953F64F80819181DC01ED914A
:1020A000FC910480F581E02D19948091010208953E
:1020B000109251060895882311F080E401C080E851
:1020C00080939706609394061092A508089581E086
:1020D00080939306089580919706181634F48091A2
:1020E0009406811104C081E0089580E0089582E0A3
:1020F000089580919706089581E090919706923017
:1021000008F480E00895CF93DF93CDB7DEB76497EE
:102110000FB6F894DEBF0FBECDBF60937B06709301
:102120007C0680937D0690937E06CE0101960E94E8
:10213000F76962E070E0CE0101960E94AB3AFC01C3
:10214000408151816281738180917B0690917C06F0
:10215000A0917D06B0917E06481759076A077B0754
:102160001CF010927A0603C081E080937A06649690
:102170000FB6F894DEBF0FBECDBFDF91CF910895AB
:1021800060917B0670917C0680917D0690917E0621
:10219000089520919B0630919C0681E0232B09F045
:1021A00080E00895CF9360E070E0CB010E9483103F
:1021B00010927A0610924006109241061092420642
:1021C0001092430610924406C1E0C09300021092A0
:1021D000A6081092970610929606109295061092F5
:1021E000940610926A0610926B0610926C0610927A
:1021F0006D0610926E0610926F0610927006109285
:10220000710610925A0610925B0610925C061092AC
:102210005D0610925E0610925F06109260061092A4
:1022200061061092520610925306109254061092B4
:102230005506109272061092730610927406109250
:102240007506109276061092770610927806109214
:10225000790610926206109263061092640610923C
:102260006506109266061092670610926806109234
:102270006906109256061092570610925806109250
:10228000590661E082E490E00E942492823039F4A1
:1022900060E08FEF9FE00E942492811134C0109281
:1022A000350610923B0610923C0610923D061092A5
:1022B0003E0610923A061092360610923706109299
:1022C0003806109239061092A5081092A3081092B1
:1022D000A4081092500610924F0610924C061092CD
:1022E0004B0610924E0610924D0610924A0610921E
:1022F0004906109246061092450610924806109222
:102300004706CF910895C0933506CBCF0E94D210D7
:1023100085E680930102E9E9F6E0138212821582D4
:1023200014821086118610923406089581E09091EF
:102330003406963009F080E008958F929F92AF9214
:10234000BF92CF92DF92EF92FF920F931F93CF93A2
:10235000DF93CDB7DEB7AA970FB6F894DEBF0FBEF6
:10236000CDBF882321F091E09093510605C0909154
:102370005106992309F4EAC0F82ECE0145960E9431
:10238000F76981E089A78AA76E0189E2C80ED11C8E
:1023900003E010E08CE39AE0FC01E759FF4F208155
:1023A000FC01222319F026A137A104C0EC5AFF4FEB
:1023B00020813181232B91F148960E949C9688239D
:1023C00069F1F60180818F1124C0812C912C540178
:1023D0008394402F60E070E080E090E40E94FD670D
:1023E000A50194010E9434D44B015C01B801CE01D7
:1023F00045960E94B23AFC0140815181628173810D
:10240000840E951EA61EB71E80829182A282B38280
:1024100005C088248A94982C5401DBCF0430110520
:1024200041F0EFEFCE1ADE0A8BEB9AE004E010E009
:10243000B3CF60ED77E08CEE91E00E943492BC0166
:1024400080E090E00E9472D22091321530913315D5
:1024500040913415509135150E947AD39B01AC01FF
:1024600060E074E284E799E40E948ED10E943CD23D
:102470004B015C0180913506882329F180919806F3
:1024800081110AC064E070E0CE0145960E94B23A24
:102490008C0163E070E009C063E070E0CE01459616
:1024A0000E94B23A8C0164E070E0CE0145960E9431
:1024B000B23AFC0180819181A281B381F8018083CD
:1024C0009183A283B383E12C00E010E09801B50171
:1024D000A401CE0145960E941E6BF11037C0CE01BB
:1024E00001960E94F76963E070E0CE0101960E94B8
:1024F000B23A8C0163E070E08FE796E00E94B23A56
:10250000FC0180819181A281B381F8018083918354
:10251000A283B38364E070E0CE0101960E94B23AD8
:102520008C0164E070E08FE796E00E94B23AFC0113
:1025300080819181A281B381F80180839183A283FC
:10254000B38360E0CE0101960E946E69AA960FB631
:10255000F894DEBF0FBECDBFDF91CF911F910F91D9
:10256000FF90EF90DF90CF90BF90AF909F908F90B3
:1025700008952F923F924F925F926F927F928F9227
:102580009F92AF92BF92CF92DF92EF92FF920F9302
:102590001F93CF93DF93CDB7DEB7C856D1090FB6DF
:1025A000F894DEBF0FBECDBF182FCE01CD960E948E
:1025B000763ACE0189960E94763A112309F4F6C044
:1025C00080E090E0FC01E755FB4E2385222309F4CF
:1025D00074C22285222309F470C28D968738910532
:1025E00089F784E1EFE7F6E0DE01559601900D9260
:1025F0008A95E1F7CE0101960E94F76960E070E0EC
:10260000CE0145960E94B23A8C014091B914509186
:10261000BA146091BB147091BC148EE090E00E94DB
:102620004A926B017C0180E00E94D86720E030E094
:1026300040EA50E40E947AD30E943CD2C61AD70ADC
:10264000E80AF90AF801C082D182E282F38261E0ED
:1026500070E0CE0145960E94B23A8C014091E6149A
:102660005091E7146091E8147091E91482E190E0D0
:102670000E944A926B017C0181E00E94D86720E0B1
:1026800030E040EA50E40E947AD30E943CD2C61A5D
:10269000D70AE80AF90AF801C082D182E282F382FD
:1026A00062E070E0CE0145960E94B23A4091131567
:1026B000509114156091151570911615FC01408309
:1026C00051836283738362E070E0CE0101960E94C1
:1026D000B23AFC01C080D180E280F38062E070E019
:1026E000CE0145960E94B23AFC0180819181A2817F
:1026F000B3818C159D05AE05BF05BCF462E070E0AA
:10270000CE0145960E94B23A8C0162E070E0CE01A3
:1027100001960E94B23AFC0180819181A281B3812D
:10272000F80180839183A283B38363E070E0CE01DC
:1027300045960E94B23A8C0163E070E0CE010196AA
:102740000E94B23AFC0180819181A281B381F8019B
:1027500080839183A283B38364E070E0CE014596C9
:102760000E94B23A8C0164E070E0CE0101960E94B2
:10277000B23AFC0180819181A281B381F80180830A
:102780009183A283B383BE016B5E7F4FCE018F5ACC
:102790009F4F0E94316984E1FE01EF5AFF4FDE0135
:1027A000999601900D928A95E1F757C084E1EFE781
:1027B000F6E0DE01999601900D928A95E1F7CE013F
:1027C00045960E94F76964E070E0CE0189960E9408
:1027D000B23AFC01108101813280238063E070E015
:1027E000CE0189960E94B23AFC0180809180A2803D
:1027F000B38062E070E0CE0145960E94B23AFC01DF
:10280000C080D180E280F38061E070E0CE01459627
:102810000E94B23AFC01408051806280738060E087
:1028200070E0CE0145960E94B23AFC014081518190
:10283000628173812F923F920F931F9393018201C4
:10284000CE0101960E94773A60E0CE0101960E9487
:102850006E690F900F900F900F9060910915709115
:102860000A1580910B1590910C150E9474D220E0EE
:1028700030E040E857E30E947AD32091051530916B
:10288000061540910715509108150E947AD30E94B1
:102890003CD2A9966CAF7DAF8EAF9FAFA997CE010A
:1028A0008F5A9F4F0E94F76984E1FE01EF5AFF4F54
:1028B000DE01DD9601900D928A95E1F760E070E00F
:1028C000CE01CD960E94B23AFC01C080D180E28058
:1028D000F38060E070E0CE0189960E94B23AFC017C
:1028E00080819181A281B381A7019601281B390BB8
:1028F0004A0B5B0BCA01B9010E9474D22091AB1440
:102900003091AC144091AD145091AE140E948ED110
:102910002B013C0161E070E0CE01CD960E94B23AFD
:10292000FC01C080D180E280F38061E070E0CE01E4
:1029300089960E94B23AFC0180819181A281B38183
:10294000A7019601281B390B4A0B5B0BCA01B90181
:102950000E9474D22091D8143091D9144091DA1485
:102960005091DB140E948ED14B015C0162E070E05B
:10297000CE01CD960E94B23AFC01C080D180E280A7
:10298000F38062E070E0CE0189960E94B23AFC01C9
:1029900080819181A281B381A7019601281B390B07
:1029A0004A0B5B0BCA01B9010E9474D22091051534
:1029B0003091061540910715509108150E948ED14F
:1029C0006B017C01A3019201C301B2010E947AD381
:1029D0002B013C01A5019401C501B4010E947AD3E9
:1029E0009B01AC01C301B2010E9406D14B015C0105
:1029F000A7019601C701B6010E947AD39B01AC01E1
:102A0000C501B4010E9406D10E94EDD32B013C0107
:102A100080913506882329F18091980681110AC09A
:102A200064E070E0CE0189960E94B23A8C0163E0C6
:102A300070E009C063E070E0CE0189960E94B23A6E
:102A40008C0164E070E0CE0189960E94B23AFC01EC
:102A500080819181A281B381F80180839183A283D7
:102A6000B383B090D5151092D5156091091570916A
:102A70000A1580910B1590910C150E9474D220E0DC
:102A800030E040E857E30E947AD320E030E040E8AD
:102A900052E40E947AD30E943CD26B0183017201FE
:102AA00020E0A9964CAD5DAD6EAD7FADA997CE018E
:102AB00089960E946B6CB092D515C859DF4F0FB63E
:102AC000F894DEBF0FBECDBFDF91CF911F910F9164
:102AD000FF90EF90DF90CF90BF90AF909F908F903E
:102AE0007F906F905F904F903F902F900895EF925E
:102AF000FF920F931F93CF93DF9328E0829FC00133
:102B00001124FC01E659F94FF08001811281D38133
:102B1000C481B581E680E7812F2D302F412F5D2FB5
:102B20006C2F7B2F8E2D9E2FA0E00E947BD654F41D
:102B30000E94EFD5F22E032F142FD52FC62FB72FBB
:102B4000E82EE92F2F2D302F412F5D2F6C2F7B2F5B
:102B50008E2D9E2FDF91CF911F910F91FF90EF90BF
:102B600008956F927F928F929F92AF92BF92CF9271
:102B7000DF92EF92FF920F931F93CF93DF93C82FB3
:102B80000E94771559016A017B013C01A0E00E9477
:102B90007BD609F00CF449C088E0C89FE0011124FD
:102BA0004E0188E4881A8EEF980A00E010E020E0D9
:102BB00030E040E050E060E070E0C4010E94F89234
:102BC00083010E9454D689019A01AB01BC01C40162
:102BD0000E944A93DE01A65AB94FFE01E659F94F09
:102BE00080818C93818111968C93119782811296AA
:102BF0008C931297838113968C93139784811496E8
:102C00008C931497858115968C93159786811696CB
:102C10008C931697878117968C931082118212825B
:102C200013821482158216821782DF91CF911F9131
:102C30000F91FF90EF90DF90CF90BF90AF909F905B
:102C40008F907F906F90089580E00E94B11581E091
:102C50000C94B115EF92FF920F931F93CF93DF93D4
:102C600028E0829FC0011124FC01E65AF94FF08050
:102C700001811281D381C481B581E680E7812F2D46
:102C8000302F412F5D2F6C2F7B2F8E2D9E2FA0E09C
:102C90000E947BD654F40E94EFD5F22E032F142FFE
:102CA000D52FC62FB72FE82EE92F2F2D302F412FEC
:102CB0005D2F6C2F7B2F8E2D9E2FDF91CF911F913B
:102CC0000F91FF90EF900895CF92DF92EF92FF92D5
:102CD00080E00E942A16E42F43E0B9018E2F952F41
:102CE0000E94E4676B017C0181E00E942A16642F38
:102CF00044E0732F862F952F622F0E94E4679B017B
:102D0000AC01C701B6010E9406D16B017C0180E0D5
:102D10000E947715642F43E0732F862F952F622F23
:102D20000E94E4679B01AC01C701B6010E9406D175
:102D30006B017C0181E00E947715642F44E0732FC2
:102D4000862F952F622F0E94E4679B01AC01C7017B
:102D5000B6010E9406D1FF90EF90DF90CF900895CA
:102D60000F931F93CF93DF93D82F00E416E0C0E0BA
:102D7000F801808181110FC08C2F0E945C6FF801D7
:102D80008083DD2321F08C2F0E94626F04C064E1F8
:102D90008C2F0E94576FCF5F0F5F1F4FC53041F7D9
:102DA000DF91CF911F910F9108950F931F93CF93B0
:102DB00000E416E0C0E0F80160818C2F0E94576F9C
:102DC000F80111928F01CF5FC530A9F7CF911F9104
:102DD0000F9108950F931F93CF93DF93CDB7DEB775
:102DE00069970FB6F894DEBF0FBECDBF80919706EE
:102DF000853409F400C190F5813409F456C0B8F463
:102E0000803209F4C5C1803409F43FC0823009F032
:102E1000F4C10E943510609195067091960621E0EC
:102E200040E087E199E00E949F3481E051C0833403
:102E300009F445C008F04FC0CE0106960E94F7691C
:102E400084E1FE013696AFE7B6E001900D928A95D7
:102E5000E1F781E00E949D1183E43AC0843809F4CF
:102E600060C150F4813809F43EC1833809F44AC185
:102E7000803809F0C2C1EAC0863809F46BC108F491
:102E80005FC1873809F46BC1B8C10E944A2B8530F5
:102E900029F00E944A2B843009F091C181E480938B
:102EA000970681E00E94B016A8C18091380C9091DD
:102EB000370C891B8F7009F0A0C182E409C0809192
:102EC000380C9091370C891B8F7009F096C184E4FF
:102ED0008093970692C181E00E94B91285E48093A5
:102EE00097060E944A2B853039F00E944A2B11E048
:102EF000843019F010E001C011E045E069E479E1A7
:102F0000CE0101960E949ECACE0101960E94ECCA93
:102F100080933F0680E00E94D2358091A50A8823E5
:102F200029F08091620A9091630A04C08091900A0E
:102F30009091910A90934606809345068091240BC8
:102F4000882329F08091E10A9091E20A04C08091DF
:102F50000F0B9091100B9093480680934706809139
:102F6000380A882329F08091F5099091F60904C068
:102F70008091230A9091240A90934A0680934906EF
:102F800080919406811123C160E08EEF9FE00E9442
:102F90002492882309F41BC180919406882351F060
:102FA00021E040E060E080E00E94FA7560E088EF98
:102FB0000E94276F609195067091960661157105C4
:102FC00069F08091A608811105C0111103C086EA3D
:102FD00093E102C081E993E141E00AC0111103C00D
:102FE00086EA93E102C081E993E141E062E573E1A1
:102FF0000E94011002C18091380C9091370C891BFE
:103000008F7009F0FAC00E94D5168091A608882317
:1030100011F080E209C08091950690919606892B67
:1030200011F481E001C082E0809397060E94351080
:103030000E944A2B853009F4E0C00E944A2B84305C
:1030400009F4DBC087E00E94013AD7C080E00E940B
:10305000B01600914F06109150060115110521F48C
:103060000091490610914A061016110654F460E0CA
:1030700087EE99E00E94FF96B80187EE99E00E94E2
:10308000CC9500914B0610914C060115110521F4C9
:1030900000914506109146061016110654F460E0A2
:1030A00084E59AE00E94FF96B80184E59AE00E94C8
:1030B000CC9500914D0610914E060115110521F495
:1030C00000914706109148061016110654F460E06E
:1030D00083ED9AE00E94FF96B80183ED9AE00E948A
:1030E000CC9581E8F5CE8091490690914A06181654
:1030F00019060CF06FC087EE99E00E949C96811132
:1031000069C07BC080914506909146061816190645
:103110000CF062C084E59AE00E949C9681115CC02C
:103120006CC081E00E94B01680E00E94B91285E870
:103130008093970641E06DE373E18CE793E158CF0C
:103140008091380C9091370C891B8F7009F055C015
:1031500086E8BECE80E00E949D1187E8B9CE8091BE
:10316000380C9091370C891B8F7009F046C0809104
:103170003F060E94D2350E94D5160E94351010924B
:10318000970610929606109295061092A50835C0E3
:103190000E943510609195067091960621E040E0FE
:1031A00087E199E00E949F340E94003C10929606AD
:1031B000109295061092A608109297061EC041E044
:1031C00067E673E186EA93E10E94011067CE0E94F0
:1031D000F00FE2CE83E87CCE8091470690914806BE
:1031E0001816190634F483ED9AE00E949C96882301
:1031F00021F00E94D51684E86BCE69960FB6F8943C
:10320000DEBF0FBECDBFDF91CF911F910F9108950B
:103210008F929F92AF92BF92CF92DF92EF92FF92E6
:10322000CF93C0910102C53609F453C0CC2309F4F1
:1032300050C0F0903A06CF1509F44BC0FF2009F4B6
:1032400048C060913606709137068091380690919B
:1032500039066115710581059105D9F10E9472D277
:103260004B015C018C2F90E08F199109BC01990FE3
:10327000880B990B0E9474D29B01AC01C501B4016B
:103280000E948ED16B017C016C2F70E080E090E099
:103290000E9472D29B01AC0160E070E088EC92E485
:1032A0000E9405D19B01AC01C701B6010E947AD3EF
:1032B0006B017C0120E030E0A9010E9489D187FFE9
:1032C00003C0C12CD12C7601C701B6010E943CD2AB
:1032D00003C060E070E0CB01CF91FF90EF90DF90F2
:1032E000CF90BF90AF909F908F900895FC01848104
:1032F0009581860F971F608171810E9450D426812D
:103300003781820F931F08951F93CF93DF93EC01B2
:103310002A813B81888199812817390770F4162FFB
:103320006A817B81CE010E947619FC0110838A811B
:103330009B8101969B838A8302C081E08887DF910D
:10334000CF911F910895682F89E996E00C94841914
:10335000CF93DF93EC018A819B81892B21F481E05B
:10336000898780E017C060E070E0CE010E94761986
:10337000FC012C813D81C9010196688179810E94FF
:1033800050D49D838C832A813B81215031093B831A
:103390002A838081DF91CF91089589E996E00C948A
:1033A000A819CF9389E996E00E94A819C82F89E946
:1033B00096E00E94A819982F8C2FCF9108951F9303
:1033C000CF93DF931F921F92CDB7DEB789E996E0C6
:1033D0000E94A819682F89E996E06A830E94A819BB
:1033E000782F89E996E079830E94A819182F89E936
:1033F00096E00E94A819982F6A817981812F0F90F9
:103400000F90DF91CF911F910895CF92DF92EF92AD
:10341000FF921F93CF93DF93C82F61E070E089E99B
:1034200096E00E947619FC011081CF3F09F01C2F15
:1034300062E070E089E996E00E947619FC018081E3
:103440008D3009F476C048F48C3008F05FC08430C9
:1034500008F0C5C0833071F00BC0873109F44CC04F
:1034600020F4803108F4BBC003C08F3109F46DC073
:1034700010E0C9C064E070E089E996E00E94761926
:10348000FC01C081EC2EF12C65E070E089E996E04A
:103490000E947619FC019081C92FD0E0DC2FCC2747
:1034A000CE0DDF1D209719F40E94241614C0E12EC2
:1034B000F12C6701CC0CDD1CF601E55BF94F808136
:1034C0009181892B09F08DC060E08DEF9FE00E9413
:1034D0002492811186C0113019F08CE39AE002C069
:1034E0008BEB9AE0BE0148960E94CC9580914B0BE5
:1034F0008E7F80934B0B73C00E946B1091E0811103
:1035000090E060E0892F0E94A92C69C064E070E01F
:1035100089E996E00E947619FC01608161701130A2
:1035200019F08CE39AE002C08BEB9AE00E940F94B2
:1035300056C064E070E089E996E00E947619FC01CB
:10354000808181700E94D2354AC00E940228182FC3
:10355000882309F444C064E070E089E996E00E94A1
:103560007619FC01C081EC2EF12C65E070E089E950
:1035700096E00E947619FC019081C92FD0E0DC2FE3
:10358000CC27CE0DDF1D2097D1F080914F06909172
:103590005006892B39F460E08DEF9FE00E94249261
:1035A000882369F080914F0690915006009731F47E
:1035B00064E670E08CE591E00E943492EC01BE017B
:1035C00087EE99E00E94CC9561E087E199E00E9446
:1035D000CD3580914B0B8E7F80934B0B14C011E047
:1035E00012C0F601E55BF94F80819181009749F4A3
:1035F000C701880F991F66EE70E0885A9E4F0E949F
:103600003492EC0168CF812FDF91CF911F91FF9011
:10361000EF90DF90CF9008952F923F924F925F925C
:103620006F927F928F929F92AF92BF92CF92DF92D2
:10363000EF92FF920F931F93CF93DF93CDB7DEB737
:10364000C755D1090FB6F894DEBF0FBECDBF0E949B
:103650009F3B8823B9F080919B0690919C06209116
:10366000990630919A062817390751F10E94EE3BCE
:10367000882331F10E94F13B682F89E996E00E948E
:103680008419E9CF0E947F73882309F446C0809192
:103690009B0690919C062091990630919A062817D6
:1036A000390709F460C50E948D73882309F45BC54E
:1036B0000E949B73682F89E996E00E948419E7CFE6
:1036C0000E94EE3B811129C080910202882309F4F7
:1036D00040C59091970691113CC591E09093A60842
:1036E000813009F02EC586E39BE190939606809386
:1036F00095060E94F00F60E08FEF0E94276F1092F6
:103700009C0610929B0610929E0610929D061092A7
:10371000A1061092A2060E948D2C80917B069091AA
:103720007C06A0917D06B0917E06892B8A2B8B2B7F
:1037300019F180917A0681111FC0CE0101960E9475
:10374000F76962E070E0CE0101960E94AB3ADC01BD
:103750004D915D916D917C9180917B0690917C065D
:10376000A0917D06B0917E06481759076A077B072E
:103770001CF481E080937A0680917B0690917C0610
:10378000A0917D06B0917E06892B8A2B8B2B79F137
:1037900080917A06882359F10E946B10811127C00D
:1037A000CE0101960E94F76962E070E0CE010196B9
:1037B0000E94AB3AFC01408151816281738180910A
:1037C0007B0690917C06A0917D06B0917E064817FD
:1037D00059076A077B075CF060E070E0CB010E944C
:1037E000831060E081E00E94A92C0C94E7241091E2
:1037F0009706123020F00E94EA160C94E72411304C
:10380000F9F48091940681110C94E7248091930639
:1038100081110C94E72483EA99E00E9456CE882314
:1038200011F40C94E724109394060E94F00F21E009
:1038300040E060E080E00E94FA7560E088EFB4C488
:1038400080913406833071F40E946468882341F0CB
:1038500088E296E00E9456CE882321F00E94E6720C
:10386000109234068091A5088823E1F08091A40885
:103870008823C1F0809134068330A1F080919706AF
:10388000811110C00E946B1081110AC088E598E177
:10389000909396068093950661E081E00E94A92CA2
:1038A0001092A50880913406813031F40E9464683A
:1038B000811102C01092340680913406823039F4AE
:1038C0008EE296E00E9456CE8111109234068091CD
:1038D0003406843009F052C082E296E00E9456CE4F
:1038E000882349F020E040E06EE07AE187E199E04A
:1038F0000E949F3420C080919806813019F08CE39B
:103900009AE002C08BEB9AE048960E94C89681111B
:1039100015C080913506882371F080919806882320
:1039200019F08CE39AE002C08BEB9AE048960E9473
:10393000C896811123C01092340620C08091980649
:10394000813019F08CE39AE002C08BEB9AE0489644
:103950000E949C96882391F080913506882359F324
:1039600080919806882319F08CE39AE002C08BEBD3
:103970009AE048960E949C968111DDCF8091340692
:103980008530E1F482E296E00E9456CE882349F029
:1039900020E040E069ED79E187E199E00E949F3401
:1039A00006C487EE99E00E94C896882309F4FFC3F5
:1039B00087EE99E00E949C968111F9C380913406AC
:1039C000863091F58CE196E00E9456CE882391F0E6
:1039D00080911A0681FF06C060E087E199E00E94AD
:1039E000E13722C01092340680914B0B8F7E80937A
:1039F0004B0B1AC08BEB99E00E947F9B8823A1F0B0
:103A000080911A0682FF04C08BEB99E00E94139A02
:103A10000E94C23780914B0B8F7E80934B0B8FEFB0
:103A20000E94987510923406809134068111CFC798
:103A300080919B0690919C06892B09F4C8C787E169
:103A400099E00E94A83460E070E089E996E00E9465
:103A50007619DC011C911B3809F4ACC31E3809F43B
:103A60003FC61B3909F4CDC4193809F48AC3163886
:103A700009F49FC71C3809F44EC70DE7010F1C3924
:103A800009F4B6C0103909F4B3C0023008F4B0C06C
:103A9000183809F4ADC0143941F480919B06909117
:103AA0009C06059708F493C708C0163909F4A0C00E
:103AB0000E94DE5181112DC08AC70E94CD190E943B
:103AC000CD1980931B060E94D1198C010E94CD193B
:103AD00080931A060115110571F0D80120E432E433
:103AE0004FE050E00E94D0D4AB01BC018CE196E0E5
:103AF0000E9422CE6CC0CE0101960E941FCE86E0AD
:103B0000FE013196ACE1B6E001900D928A95E1F7A5
:103B10005EC0153809F42DC4153909F069C08091CB
:103B20009B0690919C06069708F451C70E94CD19F8
:103B30000E94CD19182F0E94CD19E82E0E94CD1990
:103B4000082F0E94CD19F82E10FD04C083E499E0DF
:103B50000E94EEBDE09246090093470969E976E0CC
:103B600083E499E00E9477C711FF31C7E091D5093E
:103B7000EE0FFF0BE953F64F8081918183549940FA
:103B800009F410C463E479E08BEB99E00E94579943
:103B90001470F1100CC4112309F419C7FF2009F4A3
:103BA0000EC4AF2DB0E020E432E44FE050E00E94BC
:103BB000D0D4AB01BC018CE196E00E9422CE81E022
:103BC00080931B0680911A06847080931A060E94C7
:103BD000B83760911B068BEB99E00E947C9B80912B
:103BE0004B0B806180934B0B86E080933406EFC6CD
:103BF000023060F580919B0690919C06089708F42E
:103C0000E6C60E94CD190E94CD19082F0E94DF1927
:103C10006B017C010E94D11923E020933406DC0162
:103C200020E432E44FE050E00E94D0D4AB01BC016C
:103C300088E296E00E9422CE81E0143809F080E00C
:103C4000A7019601602F0E94706EC1C6173829F532
:103C500080919B0690919C06069708F4B8C684E074
:103C60008093340681E08093A4080E94CD190E94BD
:103C7000CD19809398060E94D1190E94D119DC01B8
:103C800020E432E44FE050E00E94D0D4AB01BC010C
:103C900082E296E00E9422CE9AC61D3891F480916D
:103CA0009B0690919C06069708F491C685E0809348
:103CB000340681E08093A4080E94CD190E94CD199A
:103CC000DACF1F3809F03FC080919B0690919C0687
:103CD000029708F47CC60E94CD190E94CD19C82E07
:103CE000CE0101960E94F7690EE010E0E12CF12C64
:103CF000D12CC6010E2C02C0959587950A94E2F747
:103D000080FF17C0B701CE0101960E94B23AFC01B4
:103D100080819181A281B3818D8B9E8BAF8BB88F77
:103D2000F89444E050E0B801CE0145960E9414D7C3
:103D30007894FFEFEF1AFF0A0C5F1F4F25E0E216A1
:103D4000F104B9F644C6103909F05FC080919B06B2
:103D500090919C06029708F43AC60E94CD190E94E1
:103D6000CD19C82ECE0101960E94F7690EE010E031
:103D7000E12CF12CD12CC6010E2C02C09595879513
:103D80000A94E2F780FF0CC0F894B701CE010196C7
:103D90000E94B23A44E050E0B8010E94F0D6789414
:103DA0003FEFE31AF30A0C5F1F4F43E0E416F10400
:103DB00011F763E070E0CE0101960E94B23AFC0177
:103DC00080819181A281B3818093520690935306A2
:103DD000A0935406B093550664E070E0CE010196BE
:103DE0000E94B23AFC0180819181A281B3818093CB
:103DF000560690935706A0935806B093590661E073
:103E0000CE0101960E946E69E2C5113999F4809144
:103E10009B0690919C06039708F4D9C50E94CD1982
:103E20000E94CD19182F0E94CD19682F812F0E9452
:103E3000576FCDC5123921F580919B0690919C0654
:103E4000069708F4C4C50E94CD190E94CD19182FF9
:103E50000E94CD1966968FAF66970E94CD19659620
:103E60008FAF65970E94CD190E94CD1965964FAD11
:103E7000659766966FAD6697812F0E94F375A7C50B
:103E80001339B1F480919B0690919C06069708F433
:103E90009EC50E94CD190E94D1198C010E94D11992
:103EA0007C010E94CD19B701C8010E94A0398FC5BD
:103EB000183809F062C080919B0690919C06049787
:103EC00008F485C563E070E089E996E00E94761900
:103ED00020919B0630919C06DC01EC90F12CB4E023
:103EE000EB0EF11C2E153F0508F471C580913506C7
:103EF000882339F080910002882319F01092000283
:103F000003C081E08093000262E070E089E996E0FE
:103F10000E947619FC018081833059F062E070E0E4
:103F200089E996E00E947619DC018C918C3009F0C9
:103F30001CC28091000281110DC061E070E089E92E
:103F400096E00E947619FC0181E09081992319F096
:103F500080E001C08FEF0E94051A80910002882343
:103F600009F435C510E0812F90E08E159F0508F00B
:103F70002EC50E94CD191F5FF6CF163909F041C03A
:103F800080919B0690919C06039708F420C50E949F
:103F9000CD190E94CD19809301020E94CD19809104
:103FA00001028823F1F080913B0690913C06A0919C
:103FB0003D06B0913E06892B8A2B8B2B91F4809184
:103FC0003A0681110EC00E94A42B60933B067093A9
:103FD0003C0680933D0690933E06809101028093BB
:103FE0003A0680910102882309F4F1C40E94A42BAF
:103FF000609336067093370680933806909339069F
:10400000E6C41739B9F480919B0690919C060297FB
:10401000B8F10E94CD190E94CD19811102C084E02F
:1040200006C0813019F40E94013A2AC082E00E9441
:104030003C3A26C0183999F480919B0690919C06D1
:10404000029708F4C4C40E94CD190E94CD190E94A1
:10405000002760E087E199E00E94E137B8C4193990
:1040600091F480919B0690919C06059708F4AFC44B
:104070000E94CD190E94DF1989E996E00E94FE2F67
:104080001092A408A4C41A3971F480919B069091EF
:104090009C06029708F49BC40E94CD190E94CD197A
:1040A0000E94072CEDCF1C3999F480919B069091CA
:1040B0009C06029708F48BC40E94CD190E94CD196A
:1040C00091E0813009F090E0892F0E94676F7FC4F2
:1040D0001D39A1F480919B0690919C06459708F4A8
:1040E00076C40E94DF190E94DF190E94DF190E9426
:1040F000DF190E94DF190E94CD1969C41E3909F029
:1041000066C480919B0690919C06059708F45FC455
:104110000E94CD190E94DF196B017C012FE632E16C
:1041200043E85AE30E9489D187FF03C0C12CD12CF8
:10413000760142E0C701B6010E94FD670E9483102C
:1041400046C48B3019F485ED9AE1CFCA83E29BE136
:10415000CCCA8091950690919606892B09F0DDCA0C
:104160000E94003CDACA0E948D738111D6CA8091E8
:104170009B0690919C06892B09F0CFCA0E94D673AA
:10418000CCCA80919B0690919C06029708F41FC4AC
:104190000E94CD190E94CD199091350691111DC133
:1041A000682F661F6627661F0E94276F10C4109233
:1041B000340604CC80919B0690919C06499708F4A4
:1041C00006C40E94CD1981E0809334060E94DF1955
:1041D0006D8F7E8F8F8F98A30E94DF1969A37AA3BA
:1041E0008BA39CA30E94DF196DA37EA38FA398A726
:1041F0000E94DF194B01382E292E0E94DF192B0156
:104200003C010E94DF1969A77AA78BA79CA7809120
:104210003506882359F080919806882321F04201C1
:10422000362C272C03C02401632C722C809252065A
:10423000909253063092540620925506809156066D
:1042400090915706A0915806B091590693018201AA
:10425000081B190B2A0B3B0BD901C8016801790116
:10426000FF0CCC08DC2C76019801AD016C2D7C2D67
:104270008C2D9C2DA0907206B0907306C090740691
:10428000D0907506E0907606F0907706009178065B
:10429000109179060E9454D62093720630937306CB
:1042A0004093740650937506609376067093770674
:1042B000809378069093790640925606509257065E
:1042C00060925806709259060E94E10F7F926F9299
:1042D0005F924F92A32CB22CCDA0DEA0EFA0F8A449
:1042E00009A11AA12BA13CA14D8D5E8D6F8D78A1E6
:1042F000CE0101960E94773AE12C00E010E098018F
:1043000049A55AA56BA57CA527C00E94E10FBDA5B4
:10431000BF93E9A5EF936F92FDA1FF93AD8CB9A078
:104320002296CCACDDACEEACFFAC22970AAD1BAD57
:104330002CAD3DAD4EA95FA968AD79ADCE0101961A
:104340000E94773AE72C26960CAD1DAD2EAD3FAD01
:10435000269740E050E0BA01CE0101960E941E6B04
:104360000F900F900F900F9032C381E08093000266
:10437000E0CD80919B0690919C06059708F427C399
:1043800082E0809334060E94CD190E94DF199B01C0
:10439000AC01A8EEB3E00E94D0D4AB01BC018EE228
:1043A00096E078CC83E499E00E942DBEF1CB111108
:1043B000F2CB6F2D83E499E00E941DBE08C3CE01AD
:1043C00001960E941FCE86E0FE013196ACE1B6E078
:1043D00001900D928A95E1F7F2CB90919806911198
:1043E00007C0982F9F7E83FF0AC0892F8061D8CE97
:1043F000982F977F84FF03C0892F8860D1CE892FA3
:10440000CFCE80919B0690919C06809708F4DFC2E6
:104410000E94CD1981E0809334060E94DF19229614
:104420006CAF7DAF8EAF9FAF22970E94DF192696AB
:104430006CAF7DAF8EAF9FAF26970E94DF192A9693
:104440006CAF7DAF8EAF9FAF2A970E94DF1969A333
:104450007DA389A79DA70E94DF196EA778AB8AABC1
:104460009EAB0E94DF192E966CAF7DAF8EAF9FAFD3
:104470002E970E94CD19182F0E94DF1962966CAFFB
:104480007DAF8EAF9FAF62970E94D11964969FAFA8
:104490008EAF649780913506811103C01F771D8F01
:1044A00035C080919806811110C0012F0F760D8FB5
:1044B00013FF1BC000610D8F19A11EA72DA128ABF2
:1044C00039A53AAB4DA54EAB21C0512F57775D8F23
:1044D00014FF14C058605D8F8EA589A398A99DA371
:1044E000AAA9A9A7BEA9BDA711C0E9A1EEA7FDA1D0
:1044F000F8AB09A50AAB1DA51EAB08C02EA529A3C4
:1045000038A93DA34AA949A75EA95DA789A18D8BBA
:104510009DA19E8BA9A5AF8BBDA5B88FEEA5E98FF8
:10452000F8A9FA8F0AA90B8F1EA91C8FEAE6F6E0FC
:104530002E0125E1420E511CA2E5B6E06896BFAF00
:10454000AEAF68971BAE1AAEBD8D2B2E312C8AAD47
:104550009BAD0396810102C0159507958A95E2F7F8
:10456000D2016D907D908D909C9000FF31C07401C0
:104570006301FF0CCC08DC2C76019301A4016C2DA7
:104580007C2D8C2D9C2DA080B180C280D380E480B6
:10459000F580068117810E9454D62083318342839F
:1045A000538364837583868397836896AEADBFAD6E
:1045B00068974D915D916D917C911397460D571DB4
:1045C000681D791D4D935D936D937C93139734C053
:1045D0006896AEADBFAD68974D915D916D917C9140
:1045E000139794018301041B150B260B370BC9018C
:1045F000B80168017901FF0CCC08DC2C76019B0125
:10460000AC016C2D7C2D8C2D9C2DA080B180C280A6
:10461000D380E480F580068117810E9454D62083E0
:1046200031834283538364837583868397836D923A
:104630007D928D929C9213973896B4E04B0E511C4C
:104640006896AEADBFAD689714966896BFAFAEAF33
:104650006897AAADBBAD119729F0A1E0B0E0BBAF60
:10466000AAAF75CF0E94E10F7090D515BD8D7B2A42
:10467000EEA9EF93FAA9FF9308A90F931EA51F9324
:1046800089A09DA0A9A4BDA42A96CCACDDACEEACBB
:10469000FFAC2A9726960CAD1DAD2EAD3FAD2697EB
:1046A00022964CAD5DAD6EAD7FAD2297CE010196E9
:1046B0000E94773A6496CEACDFAC64976296ECAC1D
:1046C000FDAC0EAD1FAD6297272D2E964CAD5DADA6
:1046D0006EAD7FAD2E97CE0101960E946B6C40CEE1
:1046E00080919B0690919C064A9708F470C10E94A5
:1046F000CD1981E0809334060E94DF196EAB7FAB49
:1047000088AF99AF0E94DF196AAF7BAF8CAF9DAFC6
:104710000E94DF1922966CAF7DAF8EAF9FAF2297BC
:104720000E94DF194B018D8F99A30E94DF196DA3A1
:10473000672E89A79DA70E94DF1926966CAF7DAFD3
:104740008EAF9FAF26970E94CD19782E80913506A7
:10475000882369F18091980681110DC0872D8F7E85
:1047600073FE16C08061782E8DA2692C1D8D19A74D
:1047700029A12DA71CC0872D877F74FE11C08860DA
:10478000782E8DA0962C39A53D8F4DA549A30FC03D
:10479000782E8DA2692C5D8D59A789A18DA707C0A0
:1047A000782E8DA0962C99A59D8FADA5A9A38D8A55
:1047B0009E8ABD8DBF8BE9A1E88FFDA1F98F6A8E1E
:1047C00009A50B8F1DA51C8FEAE6F6E0DE015596C4
:1047D000BFA7AEA7A2E5B6E02C96BFAFAEAF2C97B1
:1047E00019AA18AAA72DB0E02896BFAFAEAF289798
:1047F00088A999A903962896AEADBFAD289702C0A7
:10480000B595A7958A95E2F7CD01AEA5BFA52D90E8
:104810003D904D905C9080FF31C072016101FF0CB2
:10482000CC08DC2C76019101A2016C2D7C2D8C2D05
:104830009C2DA080B180C280D380E480F580068169
:1048400017810E9454D6208331834283538364832B
:104850007583868397832C96AEADBFAD2C974D9113
:104860005D916D917C911397420D531D641D751DD3
:104870004D935D936D937C93139734C02C96AEAD9E
:10488000BFAD2C974D915D916D917C9113979201E5
:104890008101041B150B260B370BC901B8016801F8
:1048A0007901FF0CCC08DC2C76019801AC016C2D51
:1048B0007C2D8C2D9C2DA080B180C280D380E48083
:1048C000F580068117810E9454D62083318342836C
:1048D000538364837583868397832D923D924D9293
:1048E0005C9213973896AEA5BFA51496BFA7AEA746
:1048F0002C96AEADBFAD2C9714962C96BFAFAEAF35
:104900002C97A8A9B9A9119709F4FFCCA1E0B0E0B0
:10491000B9ABA8AB6DCF80919B0690919C06459753
:1049200008F455C00E94CD190E94DF192B013C01EB
:104930000E94DF196D8F7E8F8F8F98A30E94DF19E1
:104940006B017C010E94DF194B015C010E94DF19A1
:1049500020913506222349F020919806222319F050
:104960004B015C0102C0B401C501809252069092D5
:104970005306A0925406B092550660935606709363
:10498000570680935806909359069F938F937F9371
:104990006F930D8D1E8D2F8D38A1B301A201CE0115
:1049A00001960E94773A60E0CE0101960E946E69FE
:1049B000D7CC80919B0690919C06029740F00E9474
:1049C000CD190E94CD19809398060E946A6FC95A2A
:1049D000DF4F0FB6F894DEBF0FBECDBFDF91CF9192
:1049E0001F910F91FF90EF90DF90CF90BF90AF900D
:1049F0009F908F907F906F905F904F903F902F90FF
:104A0000089540E067E479E187EA98E00E949ECA51
:104A1000E9E9F6E080E092E09183808313821282DC
:104A20001582148283EA96E0978386831086118626
:104A30008FE796E00E94763A8EE296E00E941FCEC3
:104A400088E296E00E941FCE82E296E00E941FCE8E
:104A50008CE196E00C941FCECF93DF931F921F92B0
:104A6000CDB7DEB721E0298322E32A8342E050E07C
:104A7000BC01CE0101960E9414D70F900F90DF91D8
:104A8000CF910895CF93DF93EC0140E050E060EECA
:104A900070E40E94BE9246E656E666EA7EE3CE01E8
:104AA00002960E94BE9240E050E060E172E4CE01C6
:104AB0000496DF91CF910C94BE92CF93DF93EC01DB
:104AC0000A960E944225CE0140960E944225CE01C0
:104AD0004A96DF91CF910C942C250F931F93CF937F
:104AE000DF9300D0CDB7DEB78C0167E00E941ED700
:104AF00061E0C80102960E941ED78FEF89838A83E6
:104B00008B83B8016C5F7F4F43E050E0CE0101968C
:104B10000E9414D70F900F900F90DF91CF911F91AB
:104B20000F91089567E080E491E00C942492682F3F
:104B300080E491E00C941ED70F931F93CF93DF93E3
:104B400000D01F92CDB7DEB7082F162F68E080E4A3
:104B500091E04C830E941ED709831A834C814B83BA
:104B600043E050E064E471E0CE0101960E9414D766
:104B70000F900F900F900F90DF91CF911F910F9199
:104B80000895CF92DF92EF92FF92CF93DF936B0164
:104B90007C01EA01CA010E9434D7B701CE01049614
:104BA000DF91CF91FF90EF90DF90CF900C9434D7AE
:104BB000AC016BE770E084EF91E00E94C12508959D
:104BC000CF93DF93EC0166EE70E00E9434D766EE7F
:104BD00070E0CE0102960E9434D764E670E0CE0108
:104BE00004960E9434D765E0CE010696DF91CF91FE
:104BF0000C941ED761E08EE691E00E941ED768EE0D
:104C000073E082E791E00E9434D768EE73E084E7B6
:104C100091E00E9434D766E970E086E791E00E9457
:104C200034D760ED77E088E791E00E9434D760EDFB
:104C300077E08AE791E00E9434D76FE070E08CE77C
:104C400091E00E9434D76FE070E08EE791E00E941F
:104C500034D76AE070E080E891E00E9434D764E1E4
:104C600070E082E891E00E9434D764E170E084E86B
:104C700091E00E9434D744EF51E060E070E088EDAD
:104C800091E00E942CD74CE755E160E070E08CED9C
:104C900091E00E942CD760E170E080EE91E00E94EC
:104CA00034D760E170E082EE91E00E9434D760E09A
:104CB0008BE092E00E941ED761E084EE91E00E94BA
:104CC0001ED760E888E891E00C941ED7CF93DF935D
:104CD000CDB7DEB764970FB6F894DEBF0FBECDBF79
:104CE00084E1EFEBF2E0DE01119601900D928A95DE
:104CF000E1F744E150E06EE070E0CE0101960E94E1
:104D000014D764960FB6F894DEBF0FBECDBFDF9107
:104D1000CF910895CF92DF92EF92FF920F931F935E
:104D2000CF93DF93CDB7DEB764970FB6F894DEBFAD
:104D30000FBECDBF7C0128E0E3EDF2E0DE011D9661
:104D400001900D922A95E1F74CE050E06EE070E0A2
:104D5000CE0101960E94F0D66E018DE0C80ED11CE6
:104D60008701F12C48E050E0B801F6018191919162
:104D70006F010E9414D74CE050E0B801685F7F4F8C
:104D8000CE0101960E9414D766EE70E0C8014496E9
:104D90000E9434D766EE70E0C80146960E9434D770
:104DA000F1E0FF1619F064E670E002C06DE270E019
:104DB000C80148960E9434D7F394065E1F4F84E0E2
:104DC000F812D0CF6CEA8CEF9FE00E941ED7649659
:104DD0000FB6F894DEBF0FBECDBFDF91CF911F910C
:104DE0000F91FF90EF90DF90CF900895813009F000
:104DF00082E0682F82E490E00E941ED70C94662621
:104E00000F931F93CF93DF93CDB7DEB76D970FB698
:104E1000F894DEBF0FBECDBF85E0EBEDF2E0DE0122
:104E2000559601900D928A95E1F74BE050E062E2D1
:104E300070E08BE393E00E9414D745E050E066E019
:104E400070E0CE0145960E9414D76FE984E090E0AF
:104E50000E941ED76BE18CE090E00E941ED70E945A
:104E6000662684E99FE00E948A26A89544E150E0E6
:104E70006CE871E086E493E00E9414D744E150E0CE
:104E800064EA71E08EE693E00E9414D744E150E0BA
:104E900064EF71E08AE593E00E9414D70E94FA253E
:104EA00081EC93E29B8F8A8F84E193ED9D8F8C8FB1
:104EB00044E050E064E470E0CE014A960E9414D7CA
:104EC00080E091E00E945D258CE191E00E945D25EB
:104ED00000E010E020E030E040E050E060E070E012
:104EE00088EC91E00E944A9320E030E040E050E0FE
:104EF00060E070E080ED91E00E944A9380E491E0F0
:104F00000E946D258AE491E00E94D82588E591E011
:104F10000E94E02561E080E691E00E941ED760E0FB
:104F20008DEF9FE00E941ED760E08EEF9FE00E9411
:104F30001ED760E08FEF9FE00E941ED761E082E9FC
:104F40009FE00E941ED760E081E99FE00E941ED78B
:104F500080E00E94F62661E08CE490E00E941ED77B
:104F600060E08FE89FE00E941ED760E08EE89FE03F
:104F70000E941ED788EC90E0A0E0B0E089839A837D
:104F8000AB83BC8344E050E066E67FE08E010F5FB8
:104F90001F4FC8010E9414D763E084E69FE00E947F
:104FA0001ED764E683E69FE00E941ED784E1F801E5
:104FB00011928A95E9F744E150E069E47FE0C80185
:104FC0000E9414D760E080E99FE00E941ED760E055
:104FD00088E49FE00E941ED76D960FB6F894DEBF5E
:104FE0000FBECDBFDF91CF911F910F91089561E06A
:104FF00082E490E00E94249291E0823009F490E0F3
:10500000892F089561E08CE490E00E94249291E061
:10501000813009F090E0892F0895CF93DF93CDB7C9
:10502000DEB72C970FB6F894DEBF0FBECDBF81E878
:105030009CE0A0E0B0E089839A83AB83BC831D82AF
:105040001E821F82188619861A861B861C864CE0D3
:1050500050E062E671E0CE0101960E9414D72C96D2
:105060000FB6F894DEBF0FBECDBFDF91CF9108958C
:105070000F931F93CF93DF938C01EB0160E070E0FF
:1050800080EA91E00E943492F8019183808360E08D
:1050900082EA91E00E9424928883DF91CF911F9150
:1050A0000F910895CF93C62FBC0180EA91E00E9432
:1050B00034D76C2F82EA91E0CF910C941ED7FF92E7
:1050C0000F931F93CF93DF9300D0CDB7DEB78C0142
:1050D000F62EBE016D5F7F4FCE0101960E943828EB
:1050E0009B812F2D290F822F6CE30E9444D49B8338
:1050F0002D3330F029813A81280F311D3A832983DD
:1051000029813A81692FC801820F931F0E9452287A
:105110000F900F900F90DF91CF911F910F91FF9003
:1051200008950F931F9367E182E090E00E941ED7DD
:1051300080E00E94F6260E940D2860E080E090E06A
:105140000E94522861E088E092E00E941ED700E0B1
:1051500010E020E030E040E050E060E070E088EBFC
:1051600091E00E944A9320E030E040E050E060E0AF
:1051700070E080EC91E00E944A931F910F910C9493
:10518000002767E080E491E00E942492873041F09C
:1051900061E082E491E00E94249291E0873009F47A
:1051A00090E0892F089540E067E479E18CEA98E087
:1051B0000C949ECACF92DF92EF92FF920F931F93AF
:1051C000CF93DF93EC018881811102C080E034C06D
:1051D0008B0160E0CE010E940ACA87FFF7CF0E94D0
:1051E0009F3B811104C00E947F73882331F06AE8DD
:1051F000C8010E9454CA81E01FC0F894E8800E9450
:10520000F60FF12C8E159F0588F0C12CD12CCE14F1
:10521000DF0454F46C2DCE010E940ACA0E94A31927
:105220008FEFC81AD80AF3CF61E801C062E8C8015D
:105230000E9454CA7894DFCFDF91CF911F910F91D4
:10524000FF90EF90DF90CF90089586E08093C108A3
:1052500081E08093B10808950F931F93CF93DF935C
:10526000CDB7DEB765970FB6F894DEBF0FBECDBFE2
:105270008C01F894BE016B5E7F4FCE0101960E94B7
:105280008B6A61E8C8010E9454CA60E070E0CE01F8
:1052900001960E94AB3AFC01408151816281738189
:1052A000C8010E946BCA61E070E0CE0101960E94C5
:1052B000AB3AFC014081518162817381C8010E9437
:1052C0006BCA62E070E0CE0101960E94AB3AFC012D
:1052D0004081518162817381C8010E946BCA0E9422
:1052E000796F682FC8010E9454CA789465960FB6EA
:1052F000F894DEBF0FBECDBFDF91CF911F910F910C
:1053000008950F931F93CF93DF93CDB7DEB76597C3
:105310000FB6F894DEBF0FBECDBF8C01F894BE016E
:105320006B5E7F4FCE0101960E948B6A61E8C801D7
:105330000E9454CA60E070E0CE0101960E94AB3A30
:10534000FC014081518162817381C8010E946BCA56
:1053500061E070E0CE0101960E94AB3AFC01408111
:10536000518162817381C8010E946BCA62E070E062
:10537000CE0101960E94AB3AFC01408151816281CD
:105380007381C8010E946BCA63E070E0CE01019690
:105390000E94AB3AFC014081518162817381C80156
:1053A0000E946BCA64E070E0CE0101960E94AB3AA5
:1053B000FC014081518162817381C8010E946BCAE6
:1053C0000E94796F682F70E0C8010E9456CA7894D5
:1053D00065960FB6F894DEBF0FBECDBFDF91CF91BB
:1053E0001F910F910895DF92EF92FF920F931F93F9
:1053F000CF93DF93CDB7DEB7A0970FB6F894DEBF9B
:105400000FBECDBF8C017B0161E8C7010E9454CA69
:1054100061E0C8010E940ACA882321F00E94B93CB9
:1054200081112BC09E01205E3F4F40E050E06FE1B4
:10543000CE0101960E94CA3C89818E3249F488A12E
:10544000882381F38A818E3269F78B818111EACFBB
:1054500060E0C7010E9454CA8E010F5F1F4F8FE1A9
:10546000D82ED00EF80161918F01662351F0C7014B
:105470000E9454CAD012F6CF04C0682FC7010E9400
:1054800054CA60E0C7010E9454CAA0960FB6F894AF
:10549000DEBF0FBECDBFDF91CF911F910F91FF9067
:1054A000EF90DF9008958F929F92AF92BF92CF922C
:1054B000DF92EF92FF920F931F93CF93DF93CDB7BD
:1054C000DEB78C015B018DB69EB661E00E940FCA0B
:1054D0006C0163E0C8010E940ACA082F10E08DB772
:1054E0009EB7801B910B0FB6F8949EBF0FBE8DBF69
:1054F000EDB7FEB731967F01A801B601CF010E943A
:10550000F0D661E8C5010E9454CA6701C6018E1930
:105510009F09801791073CF4F60161916F01C50165
:105520000E9454CAF3CF0FB6F8949EBE0FBE8DBE34
:10553000DF91CF911F910F91FF90EF90DF90CF906F
:10554000BF90AF909F908F9008952F923F924F926F
:105550005F926F927F928F929F92AF92BF92CF9203
:10556000DF92EF92FF920F931F93CF93DF931F92DF
:10557000CDB7DEB76C015B012DB63EB661E00E948F
:105580000FCA4C0163E0C6010E940ACA8983082F32
:1055900010E08DB79EB7801B910B0FB6F8949EBF9D
:1055A0000FBE8DBFEDB7FEB731967F01A801B401E4
:1055B000CF010E94F0D63701412C512C40165106E4
:1055C00064F464E0640DC6010E940ACAF301819389
:1055D0003F01FFEF4F1A5F0AF1CFDFB6F894A80141
:1055E000B401C7010E9414D7DFBE61E8C5010E9463
:1055F00054CA6981C5010E9454CA0FB6F8943EBED0
:105600000FBE2DBE0F90DF91CF911F910F91FF9094
:10561000EF90DF90CF90BF90AF909F908F907F9052
:105620006F905F904F903F902F9008950F931F932E
:10563000CF93DF938091E108811111C001EE18E052
:10564000C2E2D0E060E0CE010E942492F801819392
:105650008F012196C233D105A9F71092F1088091EC
:10566000E10881110DC0E0EBF4E0A1EEB8E08CE0C0
:105670008A0F94919D9331968A13FBCF1092ED0877
:1056800081EE98E0DF91CF911F910F910895809165
:10569000C10808958091C008089587E199E00E94AB
:1056A000EA326093BB087093BC088093BD08909366
:1056B000BE0881E08093BF0808951092B708109249
:1056C000B8081092B9081092BA080C944D2B0F9399
:1056D0001F938091BF08813089F487E199E00E948F
:1056E000EA320091BB081091BC082091BD083091AE
:1056F000BE08601B710B820B930B03C060E070E06F
:10570000CB011F910F9108950F931F930E94672B58
:105710000091B7081091B8082091B9083091BA08E3
:10572000DC01CB01800F911FA21FB31F8093B7082C
:105730009093B808A093B908B093BA0882E0809318
:10574000BF081F910F9108950F931F930E94672B1D
:105750000091B7081091B8082091B9083091BA08A3
:10576000600F711F821F931F1F910F9108958F92D9
:105770009F92AF92BF92FF920F931F93CF93DF93AD
:105780002091BF0821110CC02091B5083091B608B6
:10579000FC01318320838091B408FB0180831DC00C
:1057A0008B01EC010E94A42B4B015C0120E13EE047
:1057B00040E050E00E9478D4F22E28833983C5015E
:1057C000B4012CE330E040E050E00E9478D4FCE3E8
:1057D000FF9E20191124F8012083DF91CF911F91A2
:1057E0000F91FF90BF90AF909F908F90089564EBC2
:1057F00078E085EB98E00E94B72B1092BF0860918B
:10580000B4088091B5089091B6080C945F280E9466
:10581000F72B60E088EF0E94276F81E00E94F0354F
:1058200080E00E94D23582E08093C0081092C108C7
:1058300008950097C1F028E0823C9207B1F06032F1
:1058400008F06EE1DC0142EC58E0FA012E2F241B37
:10585000261718F42D912193F9CFE62FF0E0EE539F
:10586000F74F108202C082EC98E00E94973D893089
:10587000A9F0811114C081E00E94F0350E948611C8
:105880000E9446700E94E6721092F20882E08093B5
:10589000C10880914B0B806880934B0B80E008958A
:1058A0001092F2080E94B773882319F085E0809364
:1058B000C10880914B0B846080934B0B0E94861132
:1058C0000E94E6728FEF8093BE020895CF93C0913D
:1058D000C108C13069F484E08093C10840E452E417
:1058E0006FE070E089EF98E00E9422CEC093B1088B
:1058F0000E94F72B81E08093B30840E45DE063E011
:1059000070E083EF98E00E9422CE8FEF0E9498759E
:1059100084E08093C008CF91089585E08093C0080B
:1059200081E08093F2080E94E67280914B0B8B77A6
:10593000806280934B0B0E946B10811108C00E9403
:105940007C10811104C060E081E00C945B100C9429
:10595000662C1F93CF93DF931F92CDB7DEB7182F1E
:1059600069830E946B1091E06981811101C090E010
:105970001917E9F069830E947C106981811117C0B1
:10598000812F0E945B10112349F083E08093C008AF
:105990000F90DF91CF911F910C94842B81E0809325
:1059A000C0080F90DF91CF911F910C944D2B0F9059
:1059B000DF91CF911F910895EF92FF920F931F9364
:1059C000CF93DF93FC012081222309F4BAC0EB01BD
:1059D0007C0161E00E940ACA082F62E0C7010E94B0
:1059E0000ACA182F61E8CE010E9454CA103209F485
:1059F00047C090F4123089F128F41111A2C064EC70
:105A000072E04AC0163199F11E3109F09AC06091D6
:105A1000F1097091F20940C0133209F457C020F423
:105A2000113209F445C08DC0143209F455C0153245
:105A300009F087C040E050E0BA01CE010E946BCA75
:105A400040E050E0BA01CE010E946BCA40E050E055
:105A5000BA01CE010E946BCA72C0013019F0ECE3AA
:105A6000FAE002C0EBEBFAE062A173A115C00130CD
:105A700019F08CE39AE002C08BEB9AE0489628C0BC
:105A8000013071F0ECE3FAE0DF01A759BF4F8C91D0
:105A9000882349F066A177A1CE010E9456CA4FC063
:105AA000EBEBFAE0F1CFEC5AFF4F60817181F4CF5C
:105AB0008091380A882329F06091F5097091F609E0
:105AC000EBCF6091230A7091240AE6CF87EE99E02C
:105AD0000E949C96682F30C0013019F08CE39AE048
