:100000000C94AA0F0C94E50F0C94E50F0C94E50FDB
:100010000C94E50F0C94E50F0C94E50F0C94E50F90
:100020000C94E50F0C94E50F0C94E50F0C94E50F80
:100030000C94E50F0C94EA340C94E50F0C94E50F46
:100040000C94E50F0C94E50F0C94E50F0C94E50F60
:100050000C94E50F0C94E50F0C94E50F0C94E50F50
:100060000C94E50F0C944BD00C94E50F0C9477D0C6
:100070000C94E50F0C94CD910C94E50F0C94E50FC6
:100080000C94C0340C94E50F0C94E50F0C94E50F20
:100090000C94ABD00C94E50F0C94D7D00C94E50FD6
:1000A0000C94E50F0C94E50F0C94E50F0C94E50F00
:1000B0000C94E50F0C94E50F0C94E50F0C9412359D
:1000C0000C94E50F0C94E50F0C94E50F0C94E50FE0
:1000D0000C94E50F0C94E50F0C94E50F0C94E50FD0
:1000E0000C94E50FDF2D1F2E212E072E2B2EE42E34
:1000F000E42E072E542EE42E622E672E7B2E802EA9
:10010000E42EE42E332E072E4F2EE42EED2D2F2E2F
:10011000852E982E9F2EE42EE42EC42EEA76B176FC
:10012000BC76AE76AB76BE76DD76C176FFBE1CBF02
:1001300029BF52BF71BF84BF92BFC7BF0C94DEA15D
:100140000C94FFBE0C946DCC0C946DA60C949AB9D3
:100150000C94A9A50C947AA00C9432B30C94BC76A0
:100160000C94FDAB0C945E910C94C1760C94F7A1A9
:100170000C94CFA00C94F2A10C94E4AF0C9497A132
:100180000C943C8C0C943F770C94A7A00C9435A94C
:100190000C94E7B10C9487C10C9437CE0C94B4A2A4
:1001A0000C947FC80C9452AB0C94FCA10C9427B512
:1001B0000C94DBA20C94E1B60C943A950C94CAA072
:1001C0000C9437B10C94C0A10C9471A20C943077AC
:1001D0000C94E8A80C946AA70C948EA00C94E42EBE
:1001E0000C946CA00C94D2AC0C94D4A00C9493A05E
:1001F0000C9427B70C94CAC60C944D770C9482CEFD
:100200000C941CBF0C94F7910C9457910C94332EC2
:100210000C940BA60C9415C50C94BE760C944FC68A
:100220000C945BB60C94CAA20C948E950C94C42EBC
:100230000C947B2E0C949F2E0C94C0A00C94F6AAC8
:100240000C948BC30C94DF2D0C9432310C94542EEF
:100250000C94BB770C9453AE0C94DFC80C94AE9006
:100260000C9418C70C94D9A00C9458AD0C941F2E64
:100270000C94ABCE0C94B1760C9446BD0C941777CD
:100280000C948CC40C94A7A50C94DD760C94BECF72
:100290000C940BD10C9468C40C9468A60C949ED654
:1002A0000C942F2E0C94A1A70C941EC40C9496A60B
:1002B0000C944F2E0C94C7BF0C9422B20C94E3A064
:1002C0000C9449CF0C9410770C947F940C94B0A6A6
:1002D0000C94802E0C94CBAE0C9418D10C945677C1
:1002E0000C945EA50C9496B10C94EFA10C94AFB253
:1002F0000C9470AF0C94672E0C944CBB0C94ADA175
:100300000C94A1B00C9411250C9455B50C9410A22A
:100310000C94ED2D0C94428A0C9494CC0C9404C152
:100320000C947FA60C946B3A0C9490A30C944BAC59
:100330000C94AE760C9461680C9496A10C94212ECA
:100340000C94E8A00C9439A80C94999C0C94CA992C
:100350000C94F5A20C94F63D0C9489A00C949992FF
:100360000C94072E0C948EB00C94AAA10C94D1A1DD
:100370000C949DA00C947AAA0C94BBA00C94C5A0DC
:100380000C940D9D0C94A2A00C9403A90C9462CC27
:100390000C94C8A10C942B2E0C94E1BB0C9436B495
:1003A0000C943A310C9440CC0C94CABB0C9471C59B
:1003B0000C9423BE0C94BF8E0C94D8B20C9463C2E0
:1003C0000C9498A00C949AA50C94B6A00C94E4A953
:1003D0000C94B47B0C943F650C94ACA00C9492BF2D
:1003E0000C94DEA00C947EAD0C9484A00C94C6A456
:1003F0000C94FDB00C947FA00C94E6370C9413A3DE
:100400000C941CB50C942BA50C9422B80C94EA7691
:100410000C94622E0C94B1A00C9433310C949EA8D1
:100420000C943CB60C949EA20C94627F0C94E3282E
:100430000C94852E0C9461CD0C942E730C94953FE6
:100440000C9471BF0C94A7A70C94AB760C94982EC7
:100450000C94FD8A0C942FCE0C948AC20C941CC56B
:100460000C94F8740C9463B40C944C300C940AB251
:100470000C94E9730C946CC50C942ACC0C9484BF36
:100480000C943B770C94129A0C94CDA10C9461A619
:100490000C9473A00C94FD520C94BFC70C9429BF0C
:1004A0000C94FBA10C944D8F0C94D5A10C9452BFCD
:1004B0005265706C6963617430722031001704C832
:1004C000000000DC0027056400000078007505C806
:1004D000000000DC002006640000007800E006C890
:1004E000000000DC002006C8000000DC002006C878
:1004F000000000DC002D08C80000000000C00DC88E
:100500000000001400C00DC800000014005A10C8FC
:100510000000001400C00D90010000000070039066
:1005200001000014005504C800000014002705C88D
:1005300000000014007003900100000000C805C80E
:100540000000001400C805C80000001400C805C859
:100550000000001400DD04B004000014007505C89C
:1005600000000014007505C800000014007505C8DF
:1005700000000014009704B00400000000C00DC883
:100580000000001400C00DC80000001400910E907F
:1005900001000014005A10900100001400C00D204A
:1005A00003000000007003BC000000BC00E006BCBB
:1005B000000000BC00B807BC000000BC002D08BC57
:1005C00000A908BC000000BC00C00D4D01000000E7
:1005D00000C00D20010000BC005311BC000000BC95
:1005E000005B12B101000000009302690000006985
:1005F00000EE016900000069002601B8010000005A
:100600000024F4D43050C38E20C2A24017828B70D5
:1006100011127A910D816CD90AA861E108C7586658
:1006200007615143061E4B5D05C145A7041A4111E0
:1006300004093D9803713931034036DB026533917B
:1006400002D4305402802E1D02632CEE01752AC59F
:1006500001B028A001102781018F2564012B244BB4
:1006600001E0223401AC211F018D200D01801FFC0F
:1006700000841EED00971DDF00B81CD200E61BC6EB
:1006800000201BBC00641AB200B219A8000A19A00D
:10069000006A189900D117910040178B00B5168495
:1006A0000031167E00B31579003A157300C7146F38
:1006B0000058146A00EE1366008813630025135E69
:1006C00000C7125B006C12570015125400C1115183
:1006D0000070114F0021114B00D61049008D1047BA
:1006E000004610440002104200C00F4000800F3E40
:1006F00000420F3C00060F3B00CB0E3800930E3734
:10070000005C0E3500270E3400F30D3200C10D31B0
:1007100000900D3000600D2E00320D2D00050D2CC7
:1007200000D90C2B00AE0C2900850C29005C0C278D
:1007300000350C27000E0C2600E80B2400C40B2407
:1007400000A00B23007D0B23005A0B2100390B2145
:1007500000180B2000F80A1F00D90A1E00BB0A1E51
:10076000009D0A1D00800A1D00630A1C00470A1B29
:10077000002C0A1B00110A1A00F7091A00DD0919DA
:1007800000C4091900AB091900920917007B091868
:1007900000630917004C09160036091600200916D7
:1007A000000A091500F5081500E0081400CC08142B
:1007B00000B8081400A4081400900813007D081263
:1007C000006B081300580812004608120034081184
:1007D00000230811001208110001081100F0071091
:1007E00000E0071000D0071000C0071000B0070F8E
:1007F00000A107100091070E0083070F0074070F78
:100800000065070E0057070E0049070E003B070D55
:10081000002E070E0020070D0013070D0006070D20
:1008200000F9060C00ED060D00E0060C00D4060CE5
:1008300000C8060C00BC060C00B0060C00A4060B99
:100840000099060C008D060B0082060B0077060B44
:10085000006C060B0061060A0057060B004C060AE6
:100860000042060A0038060A002E060A0024060A7C
:10087000001A060A001006090007060A00FD05090D
:1008800000F4050900EB050900E2050900D9050996
:1008900000D0050900C7050900BE050900B5050817
:1008A00000AD050800A50509009C05080094050891
:1008B000008C050800840508007C05080074050804
:1008C000006C050700650508005D05070056050872
:1008D000004E0507004705070040050800380507DA
:1008E00000310507002A050700230507001C05063F
:1008F00000160507000F050700080506000205079A
:1009000000FB040600F5040700EE040600E80406F8
:1009100000E2040700DB040600D5040600CF04064D
:1009200000C9040600C3040600BD040600B704069F
:1009300000B1040500AC040600A6040600A00405EE
:10094000009B04060095040500900406008A040537
:100950000085040500800406007A0405007504057E
:1009600000700405006B04050066040500610405C1
:10097000005C04050057040500520405004D040501
:100980000048040500430405003E0404003A040541
:100990000035040500300404002C0405002704047D
:1009A00000230405001E0404001A040400160405B4
:1009B00000110404000D04040009040500040404EB
:1009C0000000040400FC030400F8030400F4030422
:1009D00000F0030400EC030400E8030400E4030453
:1009E00000E0030400DC030400D8030400D4030483
:1009F00000D0030400CC030400C8030300C50303B4
:100A00000024F404D9201BC40C5C0E9804C4095FB4
:100A10000265077101F405F900FB04B3004804877F
:100A200000C10369005803550003034500BE023AA4
:100A3000008402310053022A00290225000402200A
:100A400000E4011C00C8011900AF0117009801144F
:100A50000084011300710110006101100051010EAA
:100A60000043010D0036010B002B010B0020010B90
:100A700000150109000C01090003010800FB000832
:100A800000F3000800EB000700E4000600DE0006AB
:100A900000D8000600D2000600CC000500C7000503
:100AA00000C2000500BD000400B9000400B5000448
:100AB00000B1000400AD000400A9000400A500037B
:100AC00000A20003009F0004009B000300980003A5
:100AD000009500020093000300900003008D0002C7
:100AE000008B0003008800020086000200840003DF
:100AF00000810002007F0002007D0002007B0002F6
:100B00000079000200770001007600020074000204
:100B10000072000100710002006F0002006D000110
:100B2000006C0002006A0001006900020067000119
:100B3000006600010065000100640002006200011F
:100B40000061000100600001005F0002005D000123
:100B5000005C0001005B0001005A00010059000127
:100B60000058000100570001005600010055000127
:100B70000054000100530000005300010052000126
:100B80000051000100500001004F0001004E000024
:100B9000004E0001004D0001004C0001004B000020
:100BA000004B0001004A000100490001004800001C
:100BB0000048000100470001004600000046000117
:100BC0000045000000450001004400010043000012
:100BD000004300010042000000420001004100000B
:100BE0000041000100400001003F0000003F000103
:100BF000003E0000003E0001003D0000003D0001FD
:100C0000003C0000003C0000003C0001003B0000F4
:100C1000003B0001003A0000003A000100390000EA
:100C200000390001003800000038000000380001E1
:100C300000370000003700010036000000360000D9
:100C400000360001003500000035000000350001CD
:100C500000340000003400000034000100330000C4
:100C600000330000003300010032000000320000B9
:100C700000320001003100000031000000310001AD
:100C8000003000000030000000300001002F0000A4
:100C9000002F0000002F0000002F0001002E000098
:100CA000002E0000002E0001002D0000002D00008D
:100CB000002D0000002D0001002C0000002C000081
:100CC000002C0000002C0001002B0000002B000075
:100CD000002B0000002B0001002A0000002A000069
:100CE000002A0000002A000100290000002900005D
:100CF0000029000000290000002900010028000050
:100D00000028000000280000002800000028000142
:100D10000027000000270000002700000027000037
:100D20000027000100260000002600000026000029
:100D3000002600000026000100250000002500001C
:100D4000002500000025000000250000002500010E
:100D50000024000000240000002400000024000003
:100D600000240001002300000023000000230000F5
:100D700000230000002300000023000000230001E6
:100D800000220000002200000022000000220000DB
:100D900000220000002200010021000000210000CC
:100DA00000210000002100000021000000210000BF
:100DB00000210001002000000020000000200000B1
:100DC00000200000002000000020000000200000A3
:100DD00000200001001F0000001F0000001F000095
:100DE000001F0000001F0000001F0000001F000186
:100DF000001E0000001E0000001E0000001E00007B
:100E0000008908990000000052657047204275690A
:100E10006C64009600FF84036901000014008304E1
:100E20008800000014008C0000000000000000306A
:100E3000F8FFFF00000000000000009B0000000021
:100E400000000000000000000000000000000000A2
:100E5000A51C0000180000A04095048304DC0500D8
:100E6000001400901F891B95000000004C4556455A
:100E70004C494E47202020202020202020202020C8
:100E8000009501000000202020202020202020208C
:100E9000202020202020202020200095010000007C
:100EA00050726573732063656E746572206B65792B
:100EB000202020200095030000007768656E2064E4
:100EC0006F6E6500891F891F62003B0200000000F1
:100ED0002110422063308440A550C660E77008812D
:100EE00029914AA16BB18CC1ADD1CEE1EFF13112A4
:100EF000100273325222B5529442F772D66239937D
:100F000018837BB35AA3BDD39CC3FFF3DEE36224F3
:100F1000433420040114E664C774A44485546AA5CC
:100F20004BB528850995EEE5CFF5ACC58DD5533683
:100F3000722611163006D776F6669556B4465BB71C
:100F40007AA719973887DFF7FEE79DD7BCC7C44853
:100F5000E5588668A7784008611802282338CCC96C
:100F6000EDD98EE9AFF9488969990AA92BB9F55AE3
:100F7000D44AB77A966A711A500A333A122AFDDBBC
:100F8000DCCBBFFB9EEB799B588B3BBB1AABA66CB3
:100F9000877CE44CC55C222C033C600C411CAEED0C
:100FA0008FFDECCDCDDD2AAD0BBD688D499D977EC3
:100FB000B66ED55EF44E133E322E511E700E9FFF5C
:100FC000BEEFDDDFFCCF1BBF3AAF599F788F889112
:100FD000A981CAB1EBA10CD12DC14EF16FE18010F6
:100FE000A100C230E3200450254046706760B983F9
:100FF0009893FBA3DAB33DC31CD37FE35EF3B10246
:101000009012F322D2323542145277625672EAB508
:10101000CBA5A89589856EF54FE52CD50DC5E23495
:10102000C324A01481046674476424540544DBA7D8
:10103000FAB79987B8975FE77EF71DC73CD7D326E5
:10104000F2369106B01657667676154634564CD968
:101050006DC90EF92FE9C899E9898AB9ABA9445835
:10106000654806782768C018E1088238A3287DCB38
:101070005CDB3FEB1EFBF98BD89BBBAB9ABB754A85
:10108000545A376A167AF10AD01AB32A923A2EFDC8
:101090000FED6CDD4DCDAABD8BADE89DC98D267CD5
:1010A000076C645C454CA23C832CE01CC10C1FEF18
:1010B0003EFF5DCF7CDF9BAFBABFD98FF89F176E25
:1010C000367E554E745E932EB23ED10EF01E7820C1
:1010D0006D6F726521002A20507265737320004580
:1010E000726173696E672E2E2E00656570726F6D6A
:1010F0005F64756D702E62696E2066696C656E6FD7
:101100007420666F756E6400526561642066616963
:101110006C65643B20454550524F4D206D617920F0
:10112000626520636F727275707400526573746FBC
:1011300072696E672E2E2E00656570726F6D5F642A
:10114000756D702E62696E2066696C65616C726582
:101150006164792065786973747300534420636116
:101160007264207772697465206661696C656400D9
:10117000536176696E672E2E2E0050726573732050
:10118000555020746F2070726F636565642E00790E
:101190006F757220626F7420696E6F706572616224
:1011A0006C652E0054686973206D656E75206361EF
:1011B0006E206D616B65005361696C6669736820B0
:1011C00076372E38207230616232350041546D65B9
:1011D000676120323536302031372F30352F3039A6
:1011E000002D2D2048656174657220537065636918
:1011F000616C202D2D005361696C6669736820460F
:10120000462043726561746F7220002020202020E8
:1012100020202020202020202020202020202000EE
:10122000202020200020004320202020002F2020EC
:10123000204300010049033600FF006B00D100A0ED
:1012400000B800D500A6000A0199003F018E007485
:10125000018400A9017C00DE01740013026C0048C7
:101260000265007D025D00B2025600E7024E001CDE
:1012700003460051033D0086033200BB032200F009
:10128000030300FF030000456C61707365643A203E
:10129000202020203030306830306D0020736563AE
:1012A000730054696D65204C6566743A20202030C7
:1012B00030306830306D0055415254310020205597
:1012C00053420053657269616C20492F4F0045728B
:1012D00061736520456570726F6D005344202D3E2B
:1012E00020456570726F6D00456570726F6D202DC1
:1012F0003E20534400456570726F6D005072696EF8
:10130000742054696D653A202020682030306D00CB
:101310004C617374205072696E743A2020202068EA
:101320002030306D004C69666574696D653A202027
:1013300020202020682030306D00526573756D6963
:101340006E6720706F736974696F6E2E2E2E004366
:101350006C656172696E67206275696C642E2E2EF1
:1013600020202000447261696E696E672070697088
:10137000656C696E652E2E2E004C656176696E6710
:101380002070617573652E2E2E2020202000436171
:101390006E63656C6C696E67207072696E742E2E58
:1013A0002E2000456E746572696E672070617573DA
:1013B000652E2E2E202020005061757365206174EB
:1013C000205A506F733A2000506C6174666F726DD2
:1013D0002054656D703A202020004C6566742054BE
:1013E000656D703A200052696768742054656D70AD
:1013F0003A2000546F6F6C68656164204F666673B5
:101400006574730020546F6F6C68656164204F666B
:10141000667365743A00204F66667365743A0055CA
:10142000702F446E2F4C6566742F4D20746F20739F
:1014300065740055702F446E2F522F4C2F4D207421
:101440006F207365740050726F66696C65204E6121
:101450006D653A005361766520546F2050726F6657
:10146000696C65004368616E6765204E616D65005B
:10147000446973706C617920436F6E6669670052CE
:101480006573746F72650052657365743A2070728B
:101490006573732043454E5445520046696C2E20B7
:1014A000547269703A0046696C616D656E743A00F9
:1014B000547269703A004C6966653A0046696C611D
:1014C0006D656E74204F646F6D657465720048655C
:1014D0006174657273204F66660043616E63656C6C
:1014E000205072696E74005072696E74205374617A
:1014F00074697374696373004261636B20746F2055
:101500004D6F6E69746F72006D006D6D00486F6D88
:1015100065204F6666736574730050726F66696C00
:1015200065730046696C616D656E743A20202020F9
:101530002020302E306D6D0046696C616D656E74D3
:101540003A005A506F736974696F6E3A2020200018
:101550005072696E742054696D653A2020202020F5
:101560006820206D0054656D7065726174757265D8
:101570002072656164732020206F7574206F66206F
:1015800072616E67652E2020202020202043686530
:10159000636B20776972696E672E0054656D7065A4
:1015A00072617475726520726561647320202061B8
:1015B0007265206661696C696E672E20202020208C
:1015C000202020436865636B20776972696E672EFF
:1015D0000054656D70657261747572652064726F18
:1015E0007070696E67436865636B20776972696EB6
:1015F000672E004E6F742068656174696E67207095
:10160000726F7065726C79436865636B207769727D
:10161000696E672E0054656D70206C696D69742069
:10162000726561636865642E2053687574646F77B2
:101630006E206F7220726573746172742E00506C2C
:101640006174666F726D204661696C7572652120E8
:10165000202000546F6F6C2031204661696C7572D8
:101660006521202020202000546F6F6C2030204600
:1016700061696C75726521202020202000457874F6
:101680007275646572204661696C757265212020EF
:101690002000486561746572732073687574646FA7
:1016A000776E20647565746F20696E616374697606
:1016B0006974790046696C616D656E74206C6F6148
:1016C000642F756E6C6F616463616E63656C6564D5
:1016D0002064756520746F20746865207072696F6E
:1016E0007220686561746572206572726F72004D58
:1016F000792074656D7065726174757265207761AB
:101700007320206368616E67656420657874657214
:101710006E616C6C792E20526573656C6563742004
:1017200066696C616D656E742020206D656E752034
:10173000746F2074727920616761696E2E00776121
:101740006974696E67200020204E4120202020000F
:101750006572726F7221004F46462020200043556B
:1017600053544F4D0057484954452000505552504E
:101770004C4500424C5545202000475245454E20DF
:101780000050494E4B2020004F52414E47450052D9
:101790004544202020004C454420436F6C6F7572F7
:1017A00000536574204C6967687473204F4E2000A5
:1017B000536574204C6967687473204F464600284F
:1017C00043616E6E6F74205072696E7420436F7047
:1017D0007929005072696E7420416E6F7468657269
:1017E00020436F7079004D61696E204D656E750004
:1017F00053657420436F6F6C696E672046616E207D
:101800004F46460053657420436F6F6C696E6720C6
:1018100046616E204F4E20004368616E6765204828
:1018200042502054656D70004368616E67652054B6
:10183000656D7065726174757265004368616E678D
:10184000652053706565640050617573652061742F
:10185000205A506F7300446974746F205072696E1F
:1018600074696E67004E2F4100502D53746F7020C5
:1018700074726967676572656400502D53746F7088
:1018800020496E76657274656400502D53746F70D4
:1018900020436F6E74726F6C00436865636B2053F6
:1018A0004420526561647300457874727564657292
:1018B00020486F6C640050617573652077697468A7
:1018C0002048656174004F766572726964652047CF
:1018D0006354656D700048425020696E7374616C8A
:1018E0006C656400416363656C65726174696F6EF9
:1018F0000045786974204D656E7500536F756E6490
:1019000000457874727564657220436F756E74005B
:10191000426F742053746174697374696373004314
:10192000616C696272617465204E6F7A7A6C65735E
:1019300000526573746F72652053657474696E67C5
:10194000730047656E6572616C2053657474696ECF
:1019500067730050726568656174205365747469BB
:101960006E6773004C6576656C204275696C642007
:10197000506C61746500456E61626C6520537465DE
:10198000707065727320200044697361626C652019
:1019900053746570706572730056657273696F6E0B
:1019A00020496E666F726D6174696F6E0046696C76
:1019B000616D656E74204C6F6164696E6700486F7D
:1019C0006D652041786573004A6F67204D6F6465CF
:1019D000004D6F6E69746F72204D6F6465005574B1
:1019E000696C69746965730050726568656174003B
:1019F0005072696E742066726F6D205344004920E6
:101A000074696D6564206F7574207768696C6520F2
:101A10002020617474656D7074696E6720746F2026
:101A20006865617420206D7920706C6174666F72D6
:101A30006D2E00492074696D6564206F7574207780
:101A400068696C65202020617474656D7074696EBE
:101A50006720746F206865617420206D7920657837
:101A60007472756465722E00556E61626C652074C7
:101A70006F2072656164205344202020636172648A
:101A800020706172746974696F6E73206F7665720D
:101A900032474220696E2073697A652E2020466F96
:101AA000726D61746173204641542D3136206F721E
:101AB000202D33322E00556E61626C6520746F20CC
:101AC0007265616420746869732053442063617295
:101AD0006420666F726D61742E2020202020466F76
:101AE000726D6174206173204641542D3136206F30
:101AF00072204641542D33322E00534420636172CC
:101B0000642072656164206572726F722E20546F5A
:101B10006F206D616E7920435243206572726F723F
:101B2000732E426164206361726420636F6E74611E
:101B3000637473206F72656C656374726963616C42
:101B4000206E6F6973652E005344206361726420B8
:101B500072656164206572726F7200534420636124
:101B60007264206E6F742070726573656E740053BA
:101B700044206361726420697320656D707479001C
:101B800043616E6E6F74206F70656E20746865209F
:101B900066696C65005344206361726420726561FC
:101BA0006473206172652020206E6F7420676F69F6
:101BB0006E672077656C6C2E2020547279612064EA
:101BC0006966666572656E74206361726400492798
:101BD0006D20616C7265616479206275696C6469FD
:101BE0006E6700436F6C6420506175736500556EBD
:101BF00070617573650050617573652020004361E5
:101C00006E63656C206C6F61642F756E6C6F6164C0
:101C10003F0043616E63656C207468697320707265
:101C2000696E743F0073657474696E67733F005228
:101C30006573746F726520666163746F72790050AA
:101C40006C6174666F726D2020202020202020207F
:101C50002020004C65667420457874727564657246
:101C60002020202020200052696768742045787465
:101C7000727564657220202020200045787472758A
:101C80006465722020202020202020202020005069
:101C900072657373206C65667420746F2063616E67
:101CA00063656C0045787472756465723A20202013
:101CB0002D2D2D2F2D2D2D4300506C6174666F72CC
:101CC0006D3A2020202D2D2D2F2D2D2D43004C2021
:101CD00045787472756465723A202D2D2D2F2D2D47
:101CE0002D4300522045787472756465723A202D38
:101CF0002D2D2F2D2D2D4300202D2D2500486561E4
:101D000074696E673A202020202020202020202087
:101D1000200048656174696E673A00203C2D5920A7
:101D200020284D656E7529202020202020202000AD
:101D3000203C2D582020284D656E752920205A2DD5
:101D40003E202020002020202020202020582D2050
:101D500020202020202020202000202020202020A3
:101D6000284D656E75292020592D3E202020002009
:101D700020202020202020582B2020202020202020
:101D80002020200020202020204A6F67206D6F64D3
:101D9000652020202020202000556E6C6F6164207B
:101DA0006C65667400556E6C6F616420726967685B
:101DB0007400556E6C6F6164004C6F6164004C6F11
:101DC0006164206C656674004C6F616420726967A1
:101DD00068740035206D696E7574652074696D6571
:101DE0006F757420686173656C61707365642E2013
:101DF000205072657373207468652063656E746526
:101E00007220627574746F6E20746F2020202066BB
:101E1000696E6973682E00426567696E206C6F6138
:101E200064696E67206F7220202020756E6C6F6170
:101E300064696E672E2050726573732074686563E1
:101E4000656E74657220627574746F6E2077686554
:101E50006E202066696E69736865642E004578742B
:101E600072756465727320617265206E6F742020D4
:101E70002068656174696E672E2020436865636B16
:101E80002074686520776972696E672E0059204159
:101E9000786973204C696E65005820417869732019
:101EA0004C696E6500594553004E4F2000446F6EDB
:101EB000650053656C6563742062657374206C699A
:101EC0006E65733A00457874727564657200506C83
:101ED0006174666F726D005475726E20486561742E
:101EE000657273204F4646005374617274205072BD
:101EF0006568656174696E67004672656520535256
:101F0000414D20004F4646004F4E20001125E3284A
:101F10004C303331E6376B3AF63D953FFD523F6525
:101F200061682E73E973F8741077BB77428AFD8A73
:101F300057915E91F79199927F948E95CA99129AD2
:101F4000999C6CA073A0DFC82ACC61CD49CFBECFCD
:101F50000BD118D1E8E6FBE185EC91E201C0819359
:101F6000EF3FF907E0F3D9F311241FBECFEFD1E221
:101F7000DEBFCDBF00E00CBF16E0A0E0B2E0E8EDB0
:101F8000F0EB01E00BBF02C007900D92AA31B10740
:101F9000D9F72BE1AAE1B6E001C01D92A836B2073D
:101FA000E1F71FE0CAEADFE000E006C0219701097F
:101FB000802FFE010E94EAD5C638D10780E00807CD
:101FC000A9F70E94A9300C946AD80C9400006BBF4A
:101FD000FA01DC0102C007900D9221503040D8F781
:101FE00008958091A40881110AC08091A3088F5F91
:101FF0008093A308853018F081E08093A4080895A9
:1020000081E00E94003680E00C94E235F894E9E922
:10201000F6E02281338180819181821B930B789439
:102020000895EF92FF920F931F93CF937C018B0142
:10203000C42F83E499E00E943EBCB70183E499E099
:102040000E9417BCB80183E499E00E9417BCE0919C
:10205000D509EE0FFF0BE953F64F80819181835430
:10206000994039F063E479E08BEB99E00E94669A3D
:1020700004C083E499E00E947DBCC093A209CF9183
:102080001F910F91FF90EF9008951092A209E09197
:10209000D509EE0FFF0BE953F64F808191818354F0
:1020A000994021F48BEB99E00E94229BE091D509A5
:1020B000EE0FFF0BE953F64F80819181DC01ED912A
:1020C000FC910480F581E02D19948091010208951E
:1020D000109251060895882311F080E401C080E831
:1020E00080939706609394061092A508089581E066
:1020F00080939306089580919706181634F4809182
:102100009406811104C081E0089580E0089582E082
:10211000089580919706089581E0909197069230F6
:1021200008F480E00895CF93DF93CDB7DEB76497CE
:102130000FB6F894DEBF0FBECDBF60937B067093E1
:102140007C0680937D0690937E06CE0101960E94C8
:10215000076A62E070E0CE0101960E94BB3AFC0182
:10216000408151816281738180917B0690917C06D0
:10217000A0917D06B0917E06481759076A077B0734
:102180001CF010927A0603C081E080937A06649670
:102190000FB6F894DEBF0FBECDBFDF91CF9108958B
:1021A00060917B0670917C0680917D0690917E0601
:1021B000089520919B0630919C0681E0232B09F025
:1021C00080E00895CF9360E070E0CB010E9493100F
:1021D00010927A0610924006109241061092420622
:1021E0001092430610924406C1E0C0930002109280
:1021F000A6081092970610929606109295061092D5
:10220000940610926A0610926B0610926C06109259
:102210006D0610926E0610926F0610927006109264
:10222000710610925A0610925B0610925C0610928C
:102230005D0610925E0610925F0610926006109284
:102240006106109252061092530610925406109294
:102250005506109272061092730610927406109230
:1022600075061092760610927706109278061092F4
:10227000790610926206109263061092640610921C
:102280006506109266061092670610926806109214
:102290006906109256061092570610925806109230
:1022A000590661E082E490E00E943393823039F471
:1022B00060E08FEF9FE00E943393811134C0109251
:1022C000350610923B0610923C0610923D06109285
:1022D0003E0610923A061092360610923706109279
:1022E0003806109239061092A5081092A308109291
:1022F000A4081092500610924F0610924C061092AD
:102300004B0610924E0610924D0610924A061092FD
:102310004906109246061092450610924806109201
:102320004706CF910895C0933506CBCF0E94E210A7
:1023300085E680930102E9E9F6E0138212821582B4
:1023400014821086118610923406089581E09091CF
:102350003406963009F080E008958F929F92AF92F4
:10236000BF92CF92DF92EF92FF920F931F93CF9382
:10237000DF93CDB7DEB7AA970FB6F894DEBF0FBED6
:10238000CDBF882321F091E09093510605C0909134
:102390005106992309F4EAC0F82ECE0145960E9411
:1023A000076A81E089A78AA76E0189E2C80ED11C5D
:1023B00003E010E08CE39AE0FC01E759FF4F208135
:1023C000FC01222319F026A137A104C0EC5AFF4FCB
:1023D00020813181232B91F148960E94AB9788236D
:1023E00069F1F60180818F1124C0812C912C540158
:1023F0008394402F60E070E080E090E40E940D68DC
:10240000A50194010E9465D54B015C01B801CE0184
:1024100045960E94C23AFC014081518162817381DC
:10242000840E951EA61EB71E80829182A282B38260
:1024300005C088248A94982C5401DBCF0430110500
:1024400041F0EFEFCE1ADE0A8BEB9AE004E010E0E9
:10245000B3CF60ED77E08CEE91E00E944393BC0136
:1024600080E090E00E94A3D3209132153091331583
:1024700040913415509135150E94ABD49B01AC01AD
:1024800060E074E284E799E40E94BFD20E946DD3B9
:102490004B015C0180913506882329F180919806D3
:1024A00081110AC064E070E0CE0145960E94C23AF4
:1024B0008C0163E070E009C063E070E0CE014596F6
:1024C0000E94C23A8C0164E070E0CE0145960E9401
:1024D000C23AFC0180819181A281B381F80180839D
:1024E0009183A283B383E12C00E010E09801B50151
:1024F000A401CE0145960E942E6BF11037C0CE018B
:1025000001960E94076A63E070E0CE0101960E9486
:10251000C23A8C0163E070E08FE796E00E94C23A15
:10252000FC0180819181A281B381F8018083918334
:10253000A283B38364E070E0CE0101960E94C23AA8
:102540008C0164E070E08FE796E00E94C23AFC01E3
:1025500080819181A281B381F80180839183A283DC
:10256000B38360E0CE0101960E947E69AA960FB601
:10257000F894DEBF0FBECDBFDF91CF911F910F91B9
:10258000FF90EF90DF90CF90BF90AF909F908F9093
:1025900008952F923F924F925F926F927F928F9207
:1025A0009F92AF92BF92CF92DF92EF92FF920F93E2
:1025B0001F93CF93DF93CDB7DEB7C856D1090FB6BF
:1025C000F894DEBF0FBECDBF182FCE01CD960E946E
:1025D000863ACE0189960E94863A112309F4F6C004
:1025E00080E090E0FC01E755FB4E2385222309F4AF
:1025F00074C22285222309F470C28D968738910512
:1026000089F784E1EFE7F6E0DE01559601900D923F
:102610008A95E1F7CE0101960E94076A60E070E0BA
:10262000CE0145960E94C23A8C014091B914509156
:10263000BA146091BB147091BC148EE090E00E94BB
:1026400059936B017C0180E00E94E86720E030E054
:1026500040EA50E40E94ABD40E946DD3C61AD70A58
:10266000E80AF90AF801C082D182E282F38261E0CD
:1026700070E0CE0145960E94C23A8C014091E6146A
:102680005091E7146091E8147091E91482E190E0B0
:102690000E9459936B017C0181E00E94E86720E071
:1026A00030E040EA50E40E94ABD40E946DD3C61AD9
:1026B000D70AE80AF90AF801C082D182E282F382DD
:1026C00062E070E0CE0145960E94C23A4091131537
:1026D000509114156091151570911615FC014083E9
:1026E00051836283738362E070E0CE0101960E94A1
:1026F000C23AFC01C080D180E280F38062E070E0E9
:10270000CE0145960E94C23AFC0180819181A2814E
:10271000B3818C159D05AE05BF05BCF462E070E089
:10272000CE0145960E94C23A8C0162E070E0CE0173
:1027300001960E94C23AFC0180819181A281B381FD
:10274000F80180839183A283B38363E070E0CE01BC
:1027500045960E94C23A8C0163E070E0CE0101967A
:102760000E94C23AFC0180819181A281B381F8016B
:1027700080839183A283B38364E070E0CE014596A9
:102780000E94C23A8C0164E070E0CE0101960E9482
:10279000C23AFC0180819181A281B381F8018083DA
:1027A0009183A283B383BE016B5E7F4FCE018F5AAC
:1027B0009F4F0E94416984E1FE01EF5AFF4FDE0105
:1027C000999601900D928A95E1F757C084E1EFE761
:1027D000F6E0DE01999601900D928A95E1F7CE011F
:1027E00045960E94076A64E070E0CE0189960E94D7
:1027F000C23AFC01108101813280238063E070E0E5
:10280000CE0189960E94C23AFC0180809180A2800C
:10281000B38062E070E0CE0145960E94C23AFC01AE
:10282000C080D180E280F38061E070E0CE01459607
:102830000E94C23AFC01408051806280738060E057
:1028400070E0CE0145960E94C23AFC014081518160
:10285000628173812F923F920F931F9393018201A4
:10286000CE0101960E94873A60E0CE0101960E9457
:102870007E690F900F900F900F90609109157091E5
:102880000A1580910B1590910C150E94A5D320E09C
:1028900030E040E857E30E94ABD420910515309119
:1028A000061540910715509108150E94ABD40E945F
:1028B0006DD3A9966CAF7DAF8EAF9FAFA997CE01B8
:1028C0008F5A9F4F0E94076A84E1FE01EF5AFF4F23
:1028D000DE01DD9601900D928A95E1F760E070E0EF
:1028E000CE01CD960E94C23AFC01C080D180E28028
:1028F000F38060E070E0CE0189960E94C23AFC014C
:1029000080819181A281B381A7019601281B390B97
:102910004A0B5B0BCA01B9010E94A5D32091AB14ED
:102920003091AC144091AD145091AE140E94BFD2BE
:102930002B013C0161E070E0CE01CD960E94C23ACD
:10294000FC01C080D180E280F38061E070E0CE01C4
:1029500089960E94C23AFC0180819181A281B38153
:10296000A7019601281B390B4A0B5B0BCA01B90161
:102970000E94A5D32091D8143091D9144091DA1433
:102980005091DB140E94BFD24B015C0162E070E009
:10299000CE01CD960E94C23AFC01C080D180E28077
:1029A000F38062E070E0CE0189960E94C23AFC0199
:1029B00080819181A281B381A7019601281B390BE7
:1029C0004A0B5B0BCA01B9010E94A5D320910515E2
:1029D0003091061540910715509108150E94BFD2FD
:1029E0006B017C01A3019201C301B2010E94ABD42F
:1029F0002B013C01A5019401C501B4010E94ABD497
:102A00009B01AC01C301B2010E9437D24B015C01B2
:102A1000A7019601C701B6010E94ABD49B01AC018E
:102A2000C501B4010E9437D20E941ED52B013C0182
:102A300080913506882329F18091980681110AC07A
:102A400064E070E0CE0189960E94C23A8C0163E096
:102A500070E009C063E070E0CE0189960E94C23A3E
:102A60008C0164E070E0CE0189960E94C23AFC01BC
:102A700080819181A281B381F80180839183A283B7
:102A8000B383B090D5151092D5156091091570914A
:102A90000A1580910B1590910C150E94A5D320E08A
:102AA00030E040E857E30E94ABD420E030E040E85B
:102AB00052E40E94ABD40E946DD36B01830172017A
:102AC00020E0A9964CAD5DAD6EAD7FADA997CE016E
:102AD00089960E947B6CB092D515C859DF4F0FB60E
:102AE000F894DEBF0FBECDBFDF91CF911F910F9144
:102AF000FF90EF90DF90CF90BF90AF909F908F901E
:102B00007F906F905F904F903F902F900895EF923D
:102B1000FF920F931F93CF93DF9328E0829FC00112
:102B20001124FC01E659F94FF08001811281D38113
:102B3000C481B581E680E7812F2D302F412F5D2F95
:102B40006C2F7B2F8E2D9E2FA0E00E94ACD754F4CB
:102B50000E9420D7F22E032F142FD52FC62FB72F68
:102B6000E82EE92F2F2D302F412F5D2F6C2F7B2F3B
:102B70008E2D9E2FDF91CF911F910F91FF90EF909F
:102B800008956F927F928F929F92AF92BF92CF9251
:102B9000DF92EF92FF920F931F93CF93DF93C82F93
:102BA0000E94871559016A017B013C01A0E00E9447
:102BB000ACD709F00CF449C088E0C89FE0011124AB
:102BC0004E0188E4881A8EEF980A00E010E020E0B9
:102BD00030E040E050E060E070E0C4010E94079403
:102BE00083010E9485D789019A01AB01BC01C40110
:102BF0000E945994DE01A65AB94FFE01E659F94FD9
:102C000080818C93818111968C9311978281129689
:102C10008C931297838113968C93139784811496C7
:102C20008C931497858115968C93159786811696AB
:102C30008C931697878117968C931082118212823B
:102C400013821482158216821782DF91CF911F9111
:102C50000F91FF90EF90DF90CF90BF90AF909F903B
:102C60008F907F906F90089580E00E94C11581E061
:102C70000C94C115EF92FF920F931F93CF93DF93A4
:102C800028E0829FC0011124FC01E65AF94FF08030
:102C900001811281D381C481B581E680E7812F2D26
:102CA000302F412F5D2F6C2F7B2F8E2D9E2FA0E07C
:102CB0000E94ACD754F40E9420D7F22E032F142F79
:102CC000D52FC62FB72FE82EE92F2F2D302F412FCC
:102CD0005D2F6C2F7B2F8E2D9E2FDF91CF911F911B
:102CE0000F91FF90EF900895CF92DF92EF92FF92B5
:102CF00080E00E943A16E42F43E0B9018E2F952F11
:102D00000E94F4676B017C0181E00E943A16642FF7
:102D100044E0732F862F952F622F0E94F4679B014A
:102D2000AC01C701B6010E9437D26B017C0180E083
:102D30000E948715642F43E0732F862F952F622FF3
:102D40000E94F4679B01AC01C701B6010E9437D213
:102D50006B017C0181E00E948715642F44E0732F92
:102D6000862F952F622F0E94F4679B01AC01C7014B
:102D7000B6010E9437D2FF90EF90DF90CF90089578
:102D80000F931F93CF93DF93D82F00E416E0C0E09A
:102D9000F801808181110FC08C2F0E946C6FF801A7
:102DA0008083DD2321F08C2F0E94726F04C064E1C8
:102DB0008C2F0E94676FCF5F0F5F1F4FC53041F7A9
:102DC000DF91CF911F910F9108950F931F93CF9390
:102DD00000E416E0C0E0F80160818C2F0E94676F6C
:102DE000F80111928F01CF5FC530A9F7CF911F91E4
:102DF0000F9108950F931F93CF93DF93CDB7DEB755
:102E000069970FB6F894DEBF0FBECDBF80919706CD
:102E1000853409F400C190F5813409F456C0B8F442
:102E2000803209F4C5C1803409F43FC0823009F012
:102E3000F4C10E944510609195067091960621E0BC
:102E400040E087E199E00E94AF3481E051C08334D3
:102E500009F445C008F04FC0CE0106960E94076AEB
:102E600084E1FE013696AFE7B6E001900D928A95B7
:102E7000E1F781E00E94AD1183E43AC0843809F49F
:102E800060C150F4813809F43EC1833809F44AC165
:102E9000803809F0C2C1EAC0863809F46BC108F471
:102EA0005FC1873809F46BC1B8C10E945A2B8530C5
:102EB00029F00E945A2B843009F091C181E480935B
:102EC000970681E00E94C016A8C18091380C9091AD
:102ED000370C891B8F7009F0A0C182E409C0809172
:102EE000380C9091370C891B8F7009F096C184E4DF
:102EF0008093970692C181E00E94C91285E4809375
:102F000097060E945A2B853039F00E945A2B11E007
:102F1000843019F010E001C011E045E069E479E186
:102F2000CE0101960E94CFCBCE0101960E941DCC0E
:102F300080933F0680E00E94E2358091A50A8823B5
:102F400029F08091620A9091630A04C08091900AEE
:102F50009091910A90934606809345068091240BA8
:102F6000882329F08091E10A9091E20A04C08091BF
:102F70000F0B9091100B9093480680934706809119
:102F8000380A882329F08091F5099091F60904C048
:102F90008091230A9091240A90934A0680934906CF
:102FA00080919406811123C160E08EEF9FE00E9422
:102FB0003393882309F41BC180919406882351F030
:102FC00021E040E060E080E00E94B27560E088EFC0
:102FD0000E94376F60919506709196066115710594
:102FE00069F08091A608811105C0111103C083EA20
:102FF00093E102C08EE893E141E00AC0111103C0E1
:1030000083EA93E102C08EE893E141E06FE473E16B
:103010000E94111002C18091380C9091370C891BCD
:103020008F7009F0FAC00E94E5168091A6088823E7
:1030300011F080E209C08091950690919606892B47
:1030400011F481E001C082E0809397060E94451050
:103050000E945A2B853009F4E0C00E945A2B84301C
:1030600009F4DBC087E00E94113AD7C080E00E94DB
:10307000C01600914F06109150060115110521F45C
:103080000091490610914A061016110654F460E0AA
:1030900087EE99E00E940E98B80187EE99E00E94B1
:1030A000DB9600914B0610914C060115110521F499
:1030B00000914506109146061016110654F460E082
:1030C00084E59AE00E940E98B80184E59AE00E9497
:1030D000DB9600914D0610914E060115110521F465
:1030E00000914706109148061016110654F460E04E
:1030F00083ED9AE00E940E98B80183ED9AE00E9459
:10310000DB9681E8F5CE8091490690914A06181623
:1031100019060CF06FC087EE99E00E94AB97811101
:1031200069C07BC080914506909146061816190625
:103130000CF062C084E59AE00E94AB9781115CC0FC
:103140006CC081E00E94C01680E00E94C91285E830
:103150008093970641E06AE373E189E793E158CFF2
:103160008091380C9091370C891B8F7009F055C0F5
:1031700086E8BECE80E00E94AD1187E8B9CE80918E
:10318000380C9091370C891B8F7009F046C08091E4
:103190003F060E94E2350E94E5160E9445101092FB
:1031A000970610929606109295061092A50835C0C3
:1031B0000E944510609195067091960621E040E0CE
:1031C00087E199E00E94AF340E94103C109296066D
:1031D000109295061092A608109297061EC041E024
:1031E00064E673E183EA93E10E94111067CE0E94C6
:1031F0000010E2CE83E87CCE80914706909148068D
:103200001816190634F483ED9AE00E94AB978823D0
:1032100021F00E94E51684E86BCE69960FB6F8940B
:10322000DEBF0FBECDBFDF91CF911F910F910895EB
:103230008F929F92AF92BF92CF92DF92EF92FF92C6
:10324000CF93C0910102C53609F453C0CC2309F4D1
:1032500050C0F0903A06CF1509F44BC0FF2009F496
:1032600048C060913606709137068091380690917B
:1032700039066115710581059105D9F10E94A3D325
:103280004B015C018C2F90E08F199109BC01990FC3
:10329000880B990B0E94A5D39B01AC01C501B40119
:1032A0000E94BFD26B017C016C2F70E080E090E047
:1032B0000E94A3D39B01AC0160E070E088EC92E433
:1032C0000E9436D29B01AC01C701B6010E94ABD46B
:1032D0006B017C0120E030E0A9010E94BAD287FF97
:1032E00003C0C12CD12C7601C701B6010E946DD359
:1032F00003C060E070E0CB01CF91FF90EF90DF90D2
:10330000CF90BF90AF909F908F900895FC018481E3
:103310009581860F971F608171810E9481D52681DA
:103320003781820F931F08951F93CF93DF93EC0192
:103330002A813B81888199812817390770F4162FDB
:103340006A817B81CE010E948619FC0110838A81EB
:103350009B8101969B838A8302C081E08887DF91ED
:10336000CF911F910895682F89E996E00C949419E4
:10337000CF93DF93EC018A819B81892B21F481E03B
:10338000898780E017C060E070E0CE010E94861956
:10339000FC012C813D81C9010196688179810E94DF
:1033A00081D59D838C832A813B81215031093B83C8
:1033B0002A838081DF91CF91089589E996E00C946A
:1033C000B819CF9389E996E00E94B819C82F89E906
:1033D00096E00E94B819982F8C2FCF9108951F93D3
:1033E000CF93DF931F921F92CDB7DEB789E996E0A6
:1033F0000E94B819682F89E996E06A830E94B8197B
:10340000782F89E996E079830E94B819182F89E905
:1034100096E00E94B819982F6A817981812F0F90C8
:103420000F90DF91CF911F910895CF92DF92EF928D
:10343000FF921F93CF93DF93C82F61E070E089E97B
:1034400096E00E948619FC011081CF3F09F01C2FE5
:1034500062E070E089E996E00E948619FC018081B3
:103460008D3009F476C048F48C3008F05FC08430A9
:1034700008F0C5C0833071F00BC0873109F44CC02F
:1034800020F4803108F4BBC003C08F3109F46DC053
:1034900010E0C9C064E070E089E996E00E948619F6
:1034A000FC01C081EC2EF12C65E070E089E996E02A
:1034B0000E948619FC019081C92FD0E0DC2FCC2717
:1034C000CE0DDF1D209719F40E94341614C0E12E92
:1034D000F12C6701CC0CDD1CF601E55BF94F808116
:1034E0009181892B09F08DC060E08DEF9FE00E94F3
:1034F0003393811186C0113019F08CE39AE002C039
:103500008BEB9AE0BE0148960E94DB9680914B0BB4
:103510008E7F80934B0B73C00E947B1091E08111D2
:1035200090E060E0892F0E94B92C69C064E070E0EF
:1035300089E996E00E948619FC0160816170113072
:1035400019F08CE39AE002C08BEB9AE00E941E9582
:1035500056C064E070E089E996E00E948619FC019B
:10356000808181700E94E2354AC00E941228182F83
:10357000882309F444C064E070E089E996E00E9481
:103580008619FC01C081EC2EF12C65E070E089E920
:1035900096E00E948619FC019081C92FD0E0DC2FB3
:1035A000CC27CE0DDF1D2097D1F080914F06909152
:1035B0005006892B39F460E08DEF9FE00E94339331
:1035C000882369F080914F0690915006009731F45E
:1035D00064E670E08CE591E00E944393EC01BE014B
:1035E00087EE99E00E94DB9661E087E199E00E9416
:1035F000DD3580914B0B8E7F80934B0B14C011E017
:1036000012C0F601E55BF94F80819181009749F482
:10361000C701880F991F66EE70E0885A9E4F0E947E
:103620004393EC0168CF812FDF91CF911F91FF90E1
:10363000EF90DF90CF9008952F923F924F925F923C
:103640006F927F928F929F92AF92BF92CF92DF92B2
:10365000EF92FF920F931F93CF93DF93CDB7DEB717
:10366000C755D1090FB6F894DEBF0FBECDBF0E947B
:10367000AF3B8823B9F080919B0690919C062091E6
:10368000990630919A062817390751F10E94FE3B9E
:10369000882331F10E94013C682F89E996E00E945D
:1036A0009419E9CF0E948F73882309F446C0809152
:1036B0009B0690919C062091990630919A062817B6
:1036C000390709F460C50E949D73882309F45BC51E
:1036D0000E94AB73682F89E996E00E949419E7CFA6
:1036E0000E94FE3B811129C080910202882309F4C7
:1036F00040C59091970691113CC591E09093A60822
:10370000813009F02EC58BE59BE19093960680935E
:1037100095060E94001060E08FEF0E94376F1092B4
:103720009C0610929B0610929E0610929D06109287
:10373000A1061092A2060E949D2C80917B0690917A
:103740007C06A0917D06B0917E06892B8A2B8B2B5F
:1037500019F180917A0681111FC0CE0101960E9455
:10376000076A62E070E0CE0101960E94BB3ADC017C
:103770004D915D916D917C9180917B0690917C063D
:10378000A0917D06B0917E06481759076A077B070E
:103790001CF481E080937A0680917B0690917C06F0
:1037A000A0917D06B0917E06892B8A2B8B2B79F117
:1037B00080917A06882359F10E947B10811127C0DD
:1037C000CE0101960E94076A62E070E0CE01019688
:1037D0000E94BB3AFC0140815181628173818091DA
:1037E0007B0690917C06A0917D06B0917E064817DD
:1037F00059076A077B075CF060E070E0CB010E942C
:10380000931060E081E00E94B92C0C94F724109191
:103810009706123020F00E94FA160C94F72411300B
:10382000F9F48091940681110C94F7248091930609
:1038300081110C94F72483EA99E00E9487CF8823B2
:1038400011F40C94F724109394060E94001021E0C8
:1038500040E060E080E00E94B27560E088EFB4C4B0
:1038600080913406833071F40E947468882341F09B
:1038700088E296E00E9487CF882321F00E94F672AA
:10388000109234068091A5088823E1F08091A40865
:103890008823C1F0809134068330A1F0809197068F
:1038A000811110C00E947B1081110AC089E698E145
:1038B000909396068093950661E081E00E94B92C72
:1038C0001092A50880913406813031F40E9474680A
:1038D000811102C01092340680913406823039F48E
:1038E0008EE296E00E9487CF81111092340680917B
:1038F0003406843009F052C082E296E00E9487CFFD
:10390000882349F020E040E063E37AE187E199E031
:103910000E94AF3420C080919806813019F08CE36A
:103920009AE002C08BEB9AE048960E94D7978111EB
:1039300015C080913506882371F080919806882300
:1039400019F08CE39AE002C08BEB9AE048960E9453
:10395000D797811123C01092340620C08091980619
:10396000813019F08CE39AE002C08BEB9AE0489624
:103970000E94AB97882391F080913506882359F3F4
:1039800080919806882319F08CE39AE002C08BEBB3
:103990009AE048960E94AB978111DDCF8091340662
:1039A0008530E1F482E296E00E9487CF882349F0D7
:1039B00020E040E06EEF79E187E199E00E94AF34CA
:1039C00006C487EE99E00E94D797882309F4FFC3C5
:1039D00087EE99E00E94AB978111F9C3809134067C
:1039E000863091F58CE196E00E9487CF882391F094
:1039F00080911A0681FF06C060E087E199E00E948D
:103A0000F13722C01092340680914B0B8F7E809349
:103A10004B0B1AC08BEB99E00E948E9C8823A1F07F
:103A200080911A0682FF04C08BEB99E00E94229BD2
:103A30000E94D23780914B0B8F7E80934B0B8FEF80
:103A40000E948A7610923406809134068111CFC785
:103A500080919B0690919C06892B09F4C8C787E149
:103A600099E00E94B83460E070E089E996E00E9435
:103A70008619DC011C911B3809F4ACC31E3809F40B
:103A80003FC61B3909F4CDC4193809F48AC3163866
:103A900009F49FC71C3809F44EC70DE7010F1C3904
:103AA00009F4B6C0103909F4B3C0023008F4B0C04C
:103AB000183809F4ADC0143941F480919B069091F7
:103AC0009C06059708F493C708C0163909F4A0C0EE
:103AD0000E94EE5181112DC08AC70E94DD190E94FB
:103AE000DD1980931B060E94E1198C010E94DD19EB
:103AF00080931A060115110571F0D80120E432E413
:103B00004FE050E00E9401D6AB01BC018CE196E091
:103B10000E9453CF6CC0CE0101960E9450CF86E028
:103B2000FE013196ACE1B6E001900D928A95E1F785
:103B30005EC0153809F42DC4153909F069C08091AB
:103B40009B0690919C06069708F451C70E94DD19C8
:103B50000E94DD19182F0E94DD19E82E0E94DD1940
:103B6000082F0E94DD19F82E10FD04C083E499E0AF
:103B70000E943EBCE09246090093470969E976E05D
:103B800083E499E00E94A8C811FF31C7E091D509EC
:103B9000EE0FFF0BE953F64F8081918183549940DA
:103BA00009F410C463E479E08BEB99E00E94669A13
:103BB0001470F1100CC4112309F419C7FF2009F483
:103BC0000EC4AF2DB0E020E432E44FE050E00E949C
:103BD00001D6AB01BC018CE196E00E9453CF81E09D
:103BE00080931B0680911A06847080931A060E94A7
:103BF000C83760911B068BEB99E00E948B9C8091EB
:103C00004B0B806180934B0B86E080933406EFC6AC
:103C1000023060F580919B0690919C06089708F40D
:103C2000E6C60E94DD190E94DD19082F0E94EF19D7
:103C30006B017C010E94E11923E020933406DC0132
:103C400020E432E44FE050E00E9401D6AB01BC0119
:103C500088E296E00E9453CF81E0143809F080E0BA
:103C6000A7019601602F0E94806EC1C6173829F502
:103C700080919B0690919C06069708F4B8C684E054
:103C80008093340681E08093A4080E94DD190E948D
:103C9000DD19809398060E94E1190E94E119DC0168
:103CA00020E432E44FE050E00E9401D6AB01BC01B9
:103CB00082E296E00E9453CF9AC61D3891F480911B
:103CC0009B0690919C06069708F491C685E0809328
:103CD000340681E08093A4080E94DD190E94DD195A
:103CE000DACF1F3809F03FC080919B0690919C0667
:103CF000029708F47CC60E94DD190E94DD19C82EC7
:103D0000CE0101960E94076A0EE010E0E12CF12C32
:103D1000D12CC6010E2C02C0959587950A94E2F726
:103D200080FF17C0B701CE0101960E94C23AFC0184
:103D300080819181A281B3818D8B9E8BAF8BB88F57
:103D4000F89444E050E0B801CE0145960E9445D871
:103D50007894FFEFEF1AFF0A0C5F1F4F25E0E21681
:103D6000F104B9F644C6103909F05FC080919B0692
:103D700090919C06029708F43AC60E94DD190E94B1
:103D8000DD19C82ECE0101960E94076A0EE010E0F0
:103D9000E12CF12CD12CC6010E2C02C095958795F3
:103DA0000A94E2F780FF0CC0F894B701CE010196A7
:103DB0000E94C23A44E050E0B8010E9421D87894B1
:103DC0003FEFE31AF30A0C5F1F4F43E0E416F104E0
:103DD00011F763E070E0CE0101960E94C23AFC0147
:103DE00080819181A281B381809352069093530682
:103DF000A0935406B093550664E070E0CE0101969E
:103E00000E94C23AFC0180819181A281B38180939A
:103E1000560690935706A0935806B093590661E052
:103E2000CE0101960E947E69E2C5113999F4809114
:103E30009B0690919C06039708F4D9C50E94DD1952
:103E40000E94DD19182F0E94DD19682F812F0E9412
:103E5000676FCDC5123921F580919B0690919C0624
:103E6000069708F4C4C50E94DD190E94DD19182FB9
:103E70000E94DD1966968FAF66970E94DD196596E0
:103E80008FAF65970E94DD190E94DD1965964FADD1
:103E9000659766966FAD6697812F0E94FC76A7C5E1
:103EA0001339B1F480919B0690919C06069708F413
:103EB0009EC50E94DD190E94E1198C010E94E11942
:103EC0007C010E94DD19B701C8010E94B0398FC57D
:103ED000183809F062C080919B0690919C06049767
:103EE00008F485C563E070E089E996E00E948619D0
:103EF00020919B0630919C06DC01EC90F12CB4E003
:103F0000EB0EF11C2E153F0508F471C580913506A6
:103F1000882339F080910002882319F01092000262
:103F200003C081E08093000262E070E089E996E0DE
:103F30000E948619FC018081833059F062E070E0B4
:103F400089E996E00E948619DC018C918C3009F099
:103F50001CC28091000281110DC061E070E089E90E
:103F600096E00E948619FC0181E09081992319F066
:103F700080E001C08FEF0E94151A80910002882313
:103F800009F435C510E0812F90E08E159F0508F0EB
:103F90002EC50E94DD191F5FF6CF163909F041C00A
:103FA00080919B0690919C06039708F420C50E947F
:103FB000DD190E94DD19809301020E94DD198091B4
:103FC00001028823F1F080913B0690913C06A0917C
:103FD0003D06B0913E06892B8A2B8B2B91F4809164
:103FE0003A0681110EC00E94B42B60933B06709379
:103FF0003C0680933D0690933E068091010280939B
:104000003A0680910102882309F4F1C40E94B42B7E
:10401000609336067093370680933806909339067E
:10402000E6C41739B9F480919B0690919C060297DB
:10403000B8F10E94DD190E94DD19811102C084E0EF
:1040400006C0813019F40E94113A2AC082E00E9411
:104050004C3A26C0183999F480919B0690919C06A1
:10406000029708F4C4C40E94DD190E94DD190E9461
:10407000102760E087E199E00E94F137B8C4193950
:1040800091F480919B0690919C06059708F4AFC42B
:104090000E94DD190E94EF1989E996E00E940E3016
:1040A0001092A408A4C41A3971F480919B069091CF
:1040B0009C06029708F49BC40E94DD190E94DD193A
:1040C0000E94172CEDCF1C3999F480919B0690919A
:1040D0009C06029708F48BC40E94DD190E94DD192A
:1040E00091E0813009F090E0892F0E94776F7FC4C2
:1040F0001D39A1F480919B0690919C06459708F488
:1041000076C40E94EF190E94EF190E94EF190E94D5
:10411000EF190E94EF190E94DD1969C41E3909F0D8
:1041200066C480919B0690919C06059708F45FC435
:104130000E94DD190E94EF196B017C012FE632E12C
:1041400043E85AE30E94BAD287FF03C0C12CD12CA6
:10415000760142E0C701B6010E940D680E949310EB
:1041600046C48B3019F48AEF9AE1CFCA88E49BE108
:10417000CCCA8091950690919606892B09F0DDCAEC
:104180000E94103CDACA0E949D738111D6CA8091A8
:104190009B0690919C06892B09F0CFCA0E94E6737A
:1041A000CCCA80919B0690919C06029708F41FC48C
:1041B0000E94DD190E94DD199091350691111DC1F3
:1041C000682F661F6627661F0E94376F10C4109203
:1041D000340604CC80919B0690919C06499708F484
:1041E00006C40E94DD1981E0809334060E94EF1915
:1041F0006D8F7E8F8F8F98A30E94EF1969A37AA38A
:104200008BA39CA30E94EF196DA37EA38FA398A7F5
:104210000E94EF194B01382E292E0E94EF192B0115
:104220003C010E94EF1969A77AA78BA79CA78091F0
:104230003506882359F080919806882321F04201A1
:10424000362C272C03C02401632C722C809252063A
:10425000909253063092540620925506809156064D
:1042600090915706A0915806B0915906930182018A
:10427000081B190B2A0B3B0BD901C80168017901F6
:10428000FF0CCC08DC2C76019801AD016C2D7C2D47
:104290008C2D9C2DA0907206B0907306C090740671
:1042A000D0907506E0907606F0907706009178063B
:1042B000109179060E9485D7209372063093730679
:1042C0004093740650937506609376067093770654
:1042D000809378069093790640925606509257063E
:1042E00060925806709259060E94F10F7F926F9269
:1042F0005F924F92A32CB22CCDA0DEA0EFA0F8A429
:1043000009A11AA12BA13CA14D8D5E8D6F8D78A1C5
:10431000CE0101960E94873AE12C00E010E098015E
:1043200049A55AA56BA57CA527C00E94F10FBDA584
:10433000BF93E9A5EF936F92FDA1FF93AD8CB9A058
:104340002296CCACDDACEEACFFAC22970AAD1BAD37
:104350002CAD3DAD4EA95FA968AD79ADCE010196FA
:104360000E94873AE72C26960CAD1DAD2EAD3FADD1
:10437000269740E050E0BA01CE0101960E942E6BD4
:104380000F900F900F900F9032C381E08093000246
:10439000E0CD80919B0690919C06059708F427C379
:1043A00082E0809334060E94DD190E94EF199B0180
:1043B000AC01A8EEB3E00E9401D6AB01BC018EE2D5
:1043C00096E078CC83E499E00E947DBCF1CB11119A
:1043D000F2CB6F2D83E499E00E946DBC08C3CE013F
:1043E00001960E9450CF86E0FE013196ACE1B6E026
:1043F00001900D928A95E1F7F2CB90919806911178
:1044000007C0982F9F7E83FF0AC0892F8061D8CE76
:10441000982F977F84FF03C0892F8860D1CE892F82
:10442000CFCE80919B0690919C06809708F4DFC2C6
:104430000E94DD1981E0809334060E94EF192296D4
:104440006CAF7DAF8EAF9FAF22970E94EF1926967B
:104450006CAF7DAF8EAF9FAF26970E94EF192A9663
:104460006CAF7DAF8EAF9FAF2A970E94EF1969A303
:104470007DA389A79DA70E94EF196EA778AB8AAB91
:104480009EAB0E94EF192E966CAF7DAF8EAF9FAFA3
:104490002E970E94DD19182F0E94EF1962966CAFBB
:1044A0007DAF8EAF9FAF62970E94E11964969FAF78
:1044B0008EAF649780913506811103C01F771D8FE1
:1044C00035C080919806811110C0012F0F760D8F95
:1044D00013FF1BC000610D8F19A11EA72DA128ABD2
:1044E00039A53AAB4DA54EAB21C0512F57775D8F03
:1044F00014FF14C058605D8F8EA589A398A99DA351
:10450000AAA9A9A7BEA9BDA711C0E9A1EEA7FDA1AF
:10451000F8AB09A50AAB1DA51EAB08C02EA529A3A3
:1045200038A93DA34AA949A75EA95DA789A18D8B9A
:104530009DA19E8BA9A5AF8BBDA5B88FEEA5E98FD8
:10454000F8A9FA8F0AA90B8F1EA91C8FEAE6F6E0DC
:104550002E0125E1420E511CA2E5B6E06896BFAFE0
:10456000AEAF68971BAE1AAEBD8D2B2E312C8AAD27
:104570009BAD0396810102C0159507958A95E2F7D8
:10458000D2016D907D908D909C9000FF31C07401A0
:104590006301FF0CCC08DC2C76019301A4016C2D87
:1045A0007C2D8C2D9C2DA080B180C280D380E48096
:1045B000F580068117810E9485D72083318342834D
:1045C000538364837583868397836896AEADBFAD4E
:1045D00068974D915D916D917C911397460D571D94
:1045E000681D791D4D935D936D937C93139734C033
:1045F0006896AEADBFAD68974D915D916D917C9120
:10460000139794018301041B150B260B370BC9016B
:10461000B80168017901FF0CCC08DC2C76019B0104
:10462000AC016C2D7C2D8C2D9C2DA080B180C28086
:10463000D380E480F580068117810E9485D720838E
:1046400031834283538364837583868397836D921A
:104650007D928D929C9213973896B4E04B0E511C2C
:104660006896AEADBFAD689714966896BFAFAEAF13
:104670006897AAADBBAD119729F0A1E0B0E0BBAF40
:10468000AAAF75CF0E94F10F7090D515BD8D7B2A12
:10469000EEA9EF93FAA9FF9308A90F931EA51F9304
:1046A00089A09DA0A9A4BDA42A96CCACDDACEEAC9B
:1046B000FFAC2A9726960CAD1DAD2EAD3FAD2697CB
:1046C00022964CAD5DAD6EAD7FAD2297CE010196C9
:1046D0000E94873A6496CEACDFAC64976296ECACED
:1046E000FDAC0EAD1FAD6297272D2E964CAD5DAD86
:1046F0006EAD7FAD2E97CE0101960E947B6C40CEB1
:1047000080919B0690919C064A9708F470C10E9484
:10471000DD1981E0809334060E94EF196EAB7FAB08
:1047200088AF99AF0E94EF196AAF7BAF8CAF9DAF96
:104730000E94EF1922966CAF7DAF8EAF9FAF22978C
:104740000E94EF194B018D8F99A30E94EF196DA361
:10475000672E89A79DA70E94EF1926966CAF7DAFA3
:104760008EAF9FAF26970E94DD19782E8091350677
:10477000882369F18091980681110DC0872D8F7E65
:1047800073FE16C08061782E8DA2692C1D8D19A72D
:1047900029A12DA71CC0872D877F74FE11C08860BA
:1047A000782E8DA0962C39A53D8F4DA549A30FC01D
:1047B000782E8DA2692C5D8D59A789A18DA707C080
:1047C000782E8DA0962C99A59D8FADA5A9A38D8A35
:1047D0009E8ABD8DBF8BE9A1E88FFDA1F98F6A8EFE
:1047E00009A50B8F1DA51C8FEAE6F6E0DE015596A4
:1047F000BFA7AEA7A2E5B6E02C96BFAFAEAF2C9791
:1048000019AA18AAA72DB0E02896BFAFAEAF289777
:1048100088A999A903962896AEADBFAD289702C086
:10482000B595A7958A95E2F7CD01AEA5BFA52D90C8
:104830003D904D905C9080FF31C072016101FF0C92
:10484000CC08DC2C76019101A2016C2D7C2D8C2DE5
:104850009C2DA080B180C280D380E480F580068149
:1048600017810E9485D720833183428353836483D9
:104870007583868397832C96AEADBFAD2C974D91F3
:104880005D916D917C911397420D531D641D751DB3
:104890004D935D936D937C93139734C02C96AEAD7E
:1048A000BFAD2C974D915D916D917C9113979201C5
:1048B0008101041B150B260B370BC901B8016801D8
:1048C0007901FF0CCC08DC2C76019801AC016C2D31
:1048D0007C2D8C2D9C2DA080B180C280D380E48063
:1048E000F580068117810E9485D72083318342831A
:1048F000538364837583868397832D923D924D9273
:104900005C9213973896AEA5BFA51496BFA7AEA725
:104910002C96AEADBFAD2C9714962C96BFAFAEAF14
:104920002C97A8A9B9A9119709F4FFCCA1E0B0E090
:10493000B9ABA8AB6DCF80919B0690919C06459733
:1049400008F455C00E94DD190E94EF192B013C01AB
:104950000E94EF196D8F7E8F8F8F98A30E94EF19A1
:104960006B017C010E94EF194B015C010E94EF1961
:1049700020913506222349F020919806222319F030
:104980004B015C0102C0B401C501809252069092B5
:104990005306A0925406B092550660935606709343
:1049A000570680935806909359069F938F937F9351
:1049B0006F930D8D1E8D2F8D38A1B301A201CE01F5
:1049C00001960E94873A60E0CE0101960E947E69BE
:1049D000D7CC80919B0690919C06029740F00E9454
:1049E000DD190E94DD19809398060E947A6FC95ADA
:1049F000DF4F0FB6F894DEBF0FBECDBFDF91CF9172
:104A00001F910F91FF90EF90DF90CF90BF90AF90EC
:104A10009F908F907F906F905F904F903F902F90DE
:104A2000089540E067E479E187EA98E00E94CFCBFF
:104A3000E9E9F6E080E092E09183808313821282BC
:104A40001582148283EA96E0978386831086118606
:104A50008FE796E00E94863A8EE296E00E9450CF61
:104A600088E296E00E9450CF82E296E00E9450CF0A
:104A70008CE196E00C9450CFCF93DF931F921F925E
:104A8000CDB7DEB721E0298322E32A8342E050E05C
:104A9000BC01CE0101960E9445D80F900F90DF9186
:104AA000CF910895CF93DF93EC0140E050E060EEAA
:104AB00070E40E94CD9346E656E666EA7EE3CE01B8
:104AC00002960E94CD9340E050E060E172E4CE0196
:104AD0000496DF91CF910C94CD93CF93DF93EC01AB
:104AE0000A960E945225CE0140960E945225CE0180
:104AF0004A96DF91CF910C943C250F931F93CF934F
:104B0000DF9300D0CDB7DEB78C0167E00E944FD8AD
:104B100061E0C80102960E944FD88FEF89838A8393
:104B20008B83B8016C5F7F4F43E050E0CE0101966C
:104B30000E9445D80F900F900F90DF91CF911F9159
:104B40000F91089567E080E491E00C943393682F0F
:104B500080E491E00C944FD80F931F93CF93DF9391
:104B600000D01F92CDB7DEB7082F162F68E080E483
:104B700091E04C830E944FD809831A834C814B8368
:104B800043E050E064E471E0CE0101960E9445D814
:104B90000F900F900F900F90DF91CF911F910F9179
:104BA0000895CF92DF92EF92FF92CF93DF936B0144
:104BB0007C01EA01CA010E9465D8B701CE010496C2
:104BC000DF91CF91FF90EF90DF90CF900C9465D85C
:104BD000AC016BE770E084EF91E00E94D12508956D
:104BE000CF93DF93EC0166EE70E00E9465D866EE2D
:104BF00070E0CE0102960E9465D864E670E0CE01B6
:104C000004960E9465D865E0CE010696DF91CF91AB
:104C10000C944FD861E08EE691E00E944FD868EE88
:104C200073E082E791E00E9465D868EE73E084E764
:104C300091E00E9465D866E970E086E791E00E9405
:104C400065D860ED77E088E791E00E9465D860ED77
:104C500077E08AE791E00E9465D86FE070E08CE72A
:104C600091E00E9465D86FE070E08EE791E00E94CD
:104C700065D86AE070E080E891E00E9465D864E160
:104C800070E082E891E00E9465D864E170E084E819
:104C900091E00E9465D844EF51E060E070E088ED5B
:104CA00091E00E945DD84CE755E160E070E08CED4A
:104CB00091E00E945DD860E170E080EE91E00E949A
:104CC00065D860E170E082EE91E00E9465D860E016
:104CD0008BE092E00E944FD861E084EE91E00E9468
:104CE0004FD860E888E891E00C944FD8CF93DF93D9
:104CF000CDB7DEB764970FB6F894DEBF0FBECDBF59
:104D000084E1EFEBF2E0DE01119601900D928A95BD
:104D1000E1F744E150E06EE070E0CE0101960E94C0
:104D200045D864960FB6F894DEBF0FBECDBFDF91B5
:104D3000CF910895CF92DF92EF92FF920F931F933E
:104D4000CF93DF93CDB7DEB764970FB6F894DEBF8D
:104D50000FBECDBF7C0128E0E3EDF2E0DE011D9641
:104D600001900D922A95E1F74CE050E06EE070E082
:104D7000CE0101960E9421D86E018DE0C80ED11C93
:104D80008701F12C48E050E0B801F6018191919142
:104D90006F010E9445D84CE050E0B801685F7F4F3A
:104DA000CE0101960E9445D866EE70E0C801449697
:104DB0000E9465D866EE70E0C80146960E9465D8EC
:104DC000F1E0FF1619F064E670E002C06DE270E0F9
:104DD000C80148960E9465D8F394065E1F4F84E090
:104DE000F812D0CF6CEA8CEF9FE00E944FD8649607
:104DF0000FB6F894DEBF0FBECDBFDF91CF911F91EC
:104E00000F91FF90EF90DF90CF900895813009F0DF
:104E100082E0682F82E490E00E944FD80C947626BE
:104E20000F931F93CF93DF93CDB7DEB76D970FB678
:104E3000F894DEBF0FBECDBF85E0EBEDF2E0DE0102
:104E4000559601900D928A95E1F74BE050E062E2B1
:104E500070E08BE393E00E9445D845E050E066E0C7
:104E600070E0CE0145960E9445D86FE984E090E05D
:104E70000E944FD86BE18CE090E00E944FD80E94D6
:104E8000762684E99FE00E949A26A89544E150E0A6
:104E90006CE871E086E493E00E9445D844E150E07C
:104EA00064EA71E08EE693E00E9445D844E150E068
:104EB00064EF71E08AE593E00E9445D80E940A26DB
:104EC00081EC93E29B8F8A8F84E193ED9D8F8C8F91
:104ED00044E050E064E470E0CE014A960E9445D878
:104EE00080E091E00E946D258CE191E00E946D25AB
:104EF00000E010E020E030E040E050E060E070E0F2
:104F000088EC91E00E94599420E030E040E050E0CD
:104F100060E070E080ED91E00E94599480E491E0BF
:104F20000E947D258AE491E00E94E82588E591E0D1
:104F30000E94F02561E080E691E00E944FD860E099
:104F40008DEF9FE00E944FD860E08EEF9FE00E94BF
:104F50004FD860E08FEF9FE00E944FD861E082E978
:104F60009FE00E944FD860E081E99FE00E944FD807
:104F700080E00E94062761E08CE490E00E944FD818
:104F800060E08FE89FE00E944FD860E08EE89FE0ED
:104F90000E944FD888EC90E0A0E0B0E089839A832B
:104FA000AB83BC8344E050E066E67FE08E010F5F98
:104FB0001F4FC8010E9445D863E084E69FE00E942D
:104FC0004FD864E683E69FE00E944FD884E1F80161
:104FD00011928A95E9F744E150E069E47FE0C80165
:104FE0000E9445D860E080E99FE00E944FD860E0D1
:104FF00088E49FE00E944FD86D960FB6F894DEBF0C
:105000000FBECDBFDF91CF911F910F91089561E049
:1050100082E490E00E94339391E0823009F490E0C2
:10502000892F089561E08CE490E00E94339391E031
:10503000813009F090E0892F0895CF93DF93CDB7A9
:10504000DEB72C970FB6F894DEBF0FBECDBF81E858
:105050009CE0A0E0B0E089839A83AB83BC831D828F
:105060001E821F82188619861A861B861C864CE0B3
:1050700050E062E671E0CE0101960E9445D82C9680
:105080000FB6F894DEBF0FBECDBFDF91CF9108956C
:105090000F931F93CF93DF938C01EB0160E070E0DF
:1050A00080EA91E00E944393F8019183808360E05D
:1050B00082EA91E00E9433938883DF91CF911F9120
:1050C0000F910895CF93C62FBC0180EA91E00E9412
:1050D00065D86C2F82EA91E0CF910C944FD8FF9263
:1050E0000F931F93CF93DF9300D0CDB7DEB78C0122
:1050F000F62EBE016D5F7F4FCE0101960E944828BB
:105100009B812F2D290F822F6CE30E9475D59B83E5
:105110002D3330F029813A81280F311D3A832983BC
:1051200029813A81692FC801820F931F0E9462284A
:105130000F900F900F90DF91CF911F910F91FF90E3
:1051400008950F931F9367E182E090E00E944FD88B
:1051500080E00E9406270E941D2860E080E090E029
:105160000E94622861E088E092E00E944FD800E04F
:1051700010E020E030E040E050E060E070E088EBDC
:1051800091E00E94599420E030E040E050E060E07F
:1051900070E080EC91E00E9459941F910F910C9463
:1051A000102767E080E491E00E943393873041F05C
:1051B00061E082E491E00E94339391E0873009F44A
:1051C00090E0892F089540E067E479E18CEA98E067
:1051D0000C94CFCBCF92DF92EF92FF920F931F935D
:1051E000CF93DF93EC018881811102C080E034C04D
:1051F0008B0160E0CE010E943BCB87FFF7CF0E947E
:10520000AF3B811104C00E948F73882331F06AE89C
:10521000C8010E9485CB81E01FC0F894E8800E94FD
:105220000610F12C8E159F0588F0C12CD12CCE14C0
:10523000DF0454F46C2DCE010E943BCB0E94B319C5
:105240008FEFC81AD80AF3CF61E801C062E8C8013D
:105250000E9485CB7894DFCFDF91CF911F910F9182
:10526000FF90EF90DF90CF90089586E08093C10883
:1052700081E08093B10808950F931F93CF93DF933C
:10528000CDB7DEB765970FB6F894DEBF0FBECDBFC2
:105290008C01F894BE016B5E7F4FCE0101960E9497
:1052A0009B6A61E8C8010E9485CB60E070E0CE0196
:1052B00001960E94BB3AFC01408151816281738159
:1052C000C8010E949CCB61E070E0CE0101960E9473
:1052D000BB3AFC014081518162817381C8010E9407
:1052E0009CCB62E070E0CE0101960E94BB3AFC01CB
:1052F0004081518162817381C8010E949CCB0E94D0
:10530000896F682FC8010E9485CB789465960FB687
:10531000F894DEBF0FBECDBFDF91CF911F910F91EB
:1053200008950F931F93CF93DF93CDB7DEB76597A3
:105330000FB6F894DEBF0FBECDBF8C01F894BE014E
:105340006B5E7F4FCE0101960E949B6A61E8C801A7
:105350000E9485CB60E070E0CE0101960E94BB3ACE
:10536000FC014081518162817381C8010E949CCB04
:1053700061E070E0CE0101960E94BB3AFC014081E1
:10538000518162817381C8010E949CCB62E070E010
:10539000CE0101960E94BB3AFC014081518162819D
:1053A0007381C8010E949CCB63E070E0CE0101963E
:1053B0000E94BB3AFC014081518162817381C80126
:1053C0000E949CCB64E070E0CE0101960E94BB3A43
:1053D000FC014081518162817381C8010E949CCB94
:1053E0000E94896F682F70E0C8010E9487CB789473
:1053F00065960FB6F894DEBF0FBECDBFDF91CF919B
:105400001F910F910895DF92EF92FF920F931F93D8
:10541000CF93DF93CDB7DEB7A0970FB6F894DEBF7A
:105420000FBECDBF8C017B0161E8C7010E9485CB17
:1054300061E0C8010E943BCB882321F00E94C93C57
:1054400081112BC09E01205E3F4F40E050E06FE194
:10545000CE0101960E94DA3C89818E3249F488A1FE
:10546000882381F38A818E3269F78B818111EACF9B
:1054700060E0C7010E9485CB8E010F5F1F4F8FE157
:10548000D82ED00EF80161918F01662351F0C7012B
:105490000E9485CBD012F6CF04C0682FC7010E94AE
:1054A00085CB60E0C7010E9485CBA0960FB6F8942B
:1054B000DEBF0FBECDBFDF91CF911F910F91FF9047
:1054C000EF90DF9008958F929F92AF92BF92CF920C
:1054D000DF92EF92FF920F931F93CF93DF93CDB79D
:1054E000DEB78C015B018DB69EB661E00E9440CBB9
:1054F0006C0163E0C8010E943BCB082F10E08DB720
:105500009EB7801B910B0FB6F8949EBF0FBE8DBF48
:10551000EDB7FEB731967F01A801B601CF010E9419
:1055200021D861E8C5010E9485CB6701C6018E19AB
:105530009F09801791073CF4F60161916F01C50145
:105540000E9485CBF3CF0FB6F8949EBE0FBE8DBEE2
:10555000DF91CF911F910F91FF90EF90DF90CF904F
:10556000BF90AF909F908F9008952F923F924F924F
:105570005F926F927F928F929F92AF92BF92CF92E3
:10558000DF92EF92FF920F931F93CF93DF931F92BF
:10559000CDB7DEB76C015B012DB63EB661E00E946F
:1055A00040CB4C0163E0C6010E943BCB8983082FAE
:1055B00010E08DB79EB7801B910B0FB6F8949EBF7D
:1055C0000FBE8DBFEDB7FEB731967F01A801B401C4
:1055D000CF010E9421D83701412C512C4016510691
:1055E00064F464E0640DC6010E943BCBF301819337
:1055F0003F01FFEF4F1A5F0AF1CFDFB6F894A80121
:10560000B401C7010E9445D8DFBE61E8C5010E9410
:1056100085CB6981C5010E9485CB0FB6F8943EBE4B
:105620000FBE2DBE0F90DF91CF911F910F91FF9074
:10563000EF90DF90CF90BF90AF909F908F907F9032
:105640006F905F904F903F902F9008950F931F930E
:10565000CF93DF938091E108811111C001EE18E032
:10566000C2E2D0E060E0CE010E943393F801819362
:105670008F012196C233D105A9F71092F1088091CC
:10568000E10881110DC0E0EBF4E0A1EEB8E08CE0A0
:105690008A0F94919D9331968A13FBCF1092ED0857
:1056A00081EE98E0DF91CF911F910F910895809145
:1056B000C10808958091C008089587E199E00E948B
:1056C000FA326093BB087093BC088093BD08909336
:1056D000BE0881E08093BF0808951092B708109229
:1056E000B8081092B9081092BA080C945D2B0F9369
:1056F0001F938091BF08813089F487E199E00E946F
:10570000FA320091BB081091BC082091BD0830917D
:10571000BE08601B710B820B930B03C060E070E04E
:10572000CB011F910F9108950F931F930E94772B28
:105730000091B7081091B8082091B9083091BA08C3
:10574000DC01CB01800F911FA21FB31F8093B7080C
:105750009093B808A093B908B093BA0882E08093F8
:10576000BF081F910F9108950F931F930E94772BED
:105770000091B7081091B8082091B9083091BA0883
:10578000600F711F821F931F1F910F9108958F92B9
:105790009F92AF92BF92FF920F931F93CF93DF938D
:1057A0002091BF0821110CC02091B5083091B60896
:1057B000FC01318320838091B408FB0180831DC0EC
:1057C0008B01EC010E94B42B4B015C0120E13EE017
:1057D00040E050E00E94A9D5F22E28833983C5010C
:1057E000B4012CE330E040E050E00E94A9D5FCE396
:1057F000FF9E20191124F8012083DF91CF911F9182
:105800000F91FF90BF90AF909F908F90089564EBA1
:1058100078E085EB98E00E94C72B1092BF0860915A
:10582000B4088091B5089091B6080C946F280E9436
:10583000072C60E088EF0E94376F81E00E940036FD
:1058400080E00E94E23582E08093C0081092C10897
:1058500008950097C1F028E0823C9207B1F06032D1
:1058600008F06EE1DC0142EC58E0FA012E2F241B17
:10587000261718F42D912193F9CFE62FF0E0EE537F
:10588000F74F108202C082EC98E00E94A73D893059
:10589000A9F0811114C081E00E9400360E94961187
:1058A0000E9456700E94F6721092F20882E0809375
:1058B000C10880914B0B806880934B0B80E008956A
:1058C0001092F2080E94C773882319F085E0809334
:1058D000C10880914B0B846080934B0B0E94961102
:1058E0000E94F6728FEF8093BE020895CF93C0910D
:1058F000C108C13069F484E08093C10840E452E4F7
:105900006FE070E089EF98E00E9453CFC093B10838
:105910000E94072C81E08093B30840E45DE063E0DF
:1059200070E083EF98E00E9453CF8FEF0E948A7659
:1059300084E08093C008CF91089585E08093C008EB
:1059400081E08093F2080E94F67280914B0B8B7776
:10595000806280934B0B0E947B10811108C00E94D3
:105960008C10811104C060E081E00C946B100C94E9
:10597000762C1F93CF93DF931F92CDB7DEB7182FEE
:1059800069830E947B1091E06981811101C090E0E0
:105990001917E9F069830E948C106981811117C081
:1059A000812F0E946B10112349F083E08093C0087F
:1059B0000F90DF91CF911F910C94942B81E08093F5
:1059C000C0080F90DF91CF911F910C945D2B0F9029
:1059D000DF91CF911F910895EF92FF920F931F9344
:1059E000CF93DF93FC012081222309F4BAC0EB019D
:1059F0007C0161E00E943BCB082F62E0C7010E945E
:105A00003BCB182F61E8CE010E9485CB103209F400
:105A100047C090F4123089F128F41111A2C064EC4F
:105A200072E04AC0163199F11E3109F09AC06091B6
:105A3000F1097091F20940C0133209F457C020F403
:105A4000113209F445C08DC0143209F455C0153225
:105A500009F087C040E050E0BA01CE010E949CCB23
:105A600040E050E0BA01CE010E949CCB40E050E003
:105A7000BA01CE010E949CCB72C0013019F0ECE358
:105A8000FAE002C0EBEBFAE062A173A115C00130AD
:105A900019F08CE39AE002C08BEB9AE0489628C09C
:105AA000013071F0ECE3FAE0DF01A759BF4F8C91B0
:105AB000882349F066A177A1CE010E9487CB4FC011
:105AC000EBEBFAE0F1CFEC5AFF4F60817181F4CF3C
:105AD0008091380A882329F06091F5097091F609C0
