:100000000C9464100C949F100C949F100C949F10EF
:100010000C949F100C949F100C949F100C949F10A4
:100020000C949F100C949F100C949F100C949F1094
:100030000C949F100C94CD350C949F100C949F1031
:100040000C949F100C949F100C949F100C949F1074
:100050000C949F100C949F100C949F100C949F1064
:100060000C949F100C9419D00C949F100C9445D0B4
:100070000C949F100C94C0910C949F100C949F10A2
:100080000C94A3350C949F100C949F100C949F100B
:100090000C9479D00C949F100C94A5D00C949F10C4
:1000A0000C949F100C949F100C949F100C949F1014
:1000B0000C949F100C949F100C949F100C94F53589
:1000C0000C949F100C949F100C949F100C949F10F4
:1000D0000C949F100C949F100C949F100C949F10E4
:1000E0000C949F10CA2E0A2F0C2FF22E162FC52FFC
:1000F000C52FF22E352FC52F432F482F5C2F612F90
:10010000C52FC52F1E2FF22E302FC52FD82E1A2FF8
:10011000662F792F802FC52FC52FA52F8E7693762A
:100120009F769076CD76A176C076A476DBBEF8BEBB
:1001300005BF30BF4FBF62BF70BFA5BF0C94F5A80D
:100140000C94C4B10C94E3B00C94D9D00C94D1A10C
:100150000C94B1C80C94D82E0C94D6A00C94D5A4B1
:100160000C94792F0C9448A90C948C920C942765CC
:100170000C947AA60C9470A20C94D9B50C9498A106
:100180000C94ECC60C946EA60C940EAC0C94AEA021
:100190000C9460C10C94F6A90C94E3AC0C94CA2E98
:1001A0000C9491A30C94162F0C9493760C947BA72B
:1001B0000C943BC20C9406AB0C949F760C941632B4
:1001C0000C94F1B40C9440C50C940A2F0C94F2A139
:1001D0000C94CEB20C94C0760C949D770C943AA5F6
:1001E0000C94F1B70C94F7A10C94482F0C9491C780
:1001F0000C94418C0C94E5A00C94F8BE0C94DD7B1F
:100200000C943EB10C94C0A10C94B2990C943C8A0D
:100210000C945CAC0C9490A00C94FA760C9419CCD1
:100220000C9481A00C94F4A20C94F5B60C94539108
:100230000C94EFA00C9445C50C946DA50C94DBA018
:100240000C9490760C94C5290C9445D60C94ADA1D1
:100250000C9487B00C94802F0C94E6D00C948340BF
:100260000C94AAB10C94D2B30C944BB20C949FA0F2
:100270000C94B6A50C9413770C9474B20C946AB9D0
:100280000C94BF8E0C9422770C94D9AF0C9461C45B
:100290000C94CCA00C94D2530C94302F0C94E0A06E
:1002A0000C941DBD0C9416A90C9422BB0C94B6BBE7
:1002B0000C94A3A60C948CAA0C94F88A0C949EC659
:1002C0000C94A4A00C944CAE0C94BDA00C9419CF2B
:1002D0000C94C9380C9475A60C94B8A50C94B8B4B9
:1002E0000C948E760C9467AD0C94B3A00C94EFA193
:1002F0000C941E320C94A5BF0C941E9D0C94352FAB
:100300000C9417320C9486A00C94CDA10C947DCE45
:100310000C9430BF0C9409CE0C94A4900C948CA631
:100320000C949FBB0C944CA80C94FCA10C94927B55
:100330000C94DAA20C94AEB60C94A52F0C9454CE67
:100340000C943BCC0C9416A30C948BA00C940C2F07
:100350000C9410A20C94432F0C94B2A70C941A2F57
:100360000C9418A60C94F1C40C94EA910C94F22EFF
:100370000C9402BE0C941E2F0C94EAC40C9427C655
:100380000C9463C30C94662F0C9450C80C947AA000
:100390000C94FBA10C9475B00C94AAA10C94606809
:1003A0000C9432B60C94C9A20C9446CC0C949AA02E
:1003B0000C94588F0C944E3B0C94A9A00C9413B63B
:1003C0000C949DA20C94AB9C0C944FBF0C944C913C
:1003D0000C94A9A50C94DEA10C94C2A00C94C4AEFC
:1003E0000C94BDA60C9405BF0C9470BF0C94D5A1C1
:1003F0000C94612F0C94DDC00C948DAD0C94B8A0BE
:100400000C94C7A00C9464AF0C943DC40C94B3A29C
:100410000C94C3B40C94F3760C9462C20C9463AB4A
:100420000C941E770C9436CD0C94FFB30C94EAA078
:100430000C94EB250C94D1A00C945C2F0C9404CC60
:100440000C94DA730C948CCF0C9464940C94A17675
:100450000C9474950C94FA990C94C52F0C9462BF6B
:100460000C94A4760C9432310C9439770C94F6C326
:100470000C94E6740C9420950C94CD760C94B8A74B
:100480000C94C8A10C9492B10C9430770C9401CECA
:100490000C9469CC0C9497A10C941F730C94DBBE44
:1004A0000C94E33E0C9495A00C94ABA80C9473A010
:1004B0005265706C6963617430722031001704C832
:1004C000000000DC0027056400000078007505C806
:1004D000000000DC002006640000007800E006C890
:1004E000000000DC002006C8000000DC002006C878
:1004F000000000DC002D08C80000000000C00DC88E
:100500000000001400C00DC800000014005A10C8FC
:100510000000001400C00D90010000000070039066
:1005200001000014005504C800000014002705C88D
:1005300000000014007003900100000000C805C80E
:100540000000001400C805C80000001400C805C859
:100550000000001400DD04B004000014007505C89C
:1005600000000014007505C800000014007505C8DF
:1005700000000014009704B00400000000C00DC883
:100580000000001400C00DC80000001400910E907F
:1005900001000014005A10900100001400C00D204A
:1005A00003000000007003BC000000BC00E006BCBB
:1005B000000000BC00B807BC000000BC002D08BC57
:1005C00000A908BC000000BC00C00D4D01000000E7
:1005D00000C00D20010000BC005311BC000000BC95
:1005E000005B12B101000000009302690000006985
:1005F00000EE016900000069002601B8010000005A
:100600000024F4D43050C38E20C2A24017828B70D5
:1006100011127A910D816CD90AA861E108C7586658
:1006200007615143061E4B5D05C145A7041A4111E0
:1006300004093D9803713931034036DB026533917B
:1006400002D4305402802E1D02632CEE01752AC59F
:1006500001B028A001102781018F2564012B244BB4
:1006600001E0223401AC211F018D200D01801FFC0F
:1006700000841EED00971DDF00B81CD200E61BC6EB
:1006800000201BBC00641AB200B219A8000A19A00D
:10069000006A189900D117910040178B00B5168495
:1006A0000031167E00B31579003A157300C7146F38
:1006B0000058146A00EE1366008813630025135E69
:1006C00000C7125B006C12570015125400C1115183
:1006D0000070114F0021114B00D61049008D1047BA
:1006E000004610440002104200C00F4000800F3E40
:1006F00000420F3C00060F3B00CB0E3800930E3734
:10070000005C0E3500270E3400F30D3200C10D31B0
:1007100000900D3000600D2E00320D2D00050D2CC7
:1007200000D90C2B00AE0C2900850C29005C0C278D
:1007300000350C27000E0C2600E80B2400C40B2407
:1007400000A00B23007D0B23005A0B2100390B2145
:1007500000180B2000F80A1F00D90A1E00BB0A1E51
:10076000009D0A1D00800A1D00630A1C00470A1B29
:10077000002C0A1B00110A1A00F7091A00DD0919DA
:1007800000C4091900AB091900920917007B091868
:1007900000630917004C09160036091600200916D7
:1007A000000A091500F5081500E0081400CC08142B
:1007B00000B8081400A4081400900813007D081263
:1007C000006B081300580812004608120034081184
:1007D00000230811001208110001081100F0071091
:1007E00000E0071000D0071000C0071000B0070F8E
:1007F00000A107100091070E0083070F0074070F78
:100800000065070E0057070E0049070E003B070D55
:10081000002E070E0020070D0013070D0006070D20
:1008200000F9060C00ED060D00E0060C00D4060CE5
:1008300000C8060C00BC060C00B0060C00A4060B99
:100840000099060C008D060B0082060B0077060B44
:10085000006C060B0061060A0057060B004C060AE6
:100860000042060A0038060A002E060A0024060A7C
:10087000001A060A001006090007060A00FD05090D
:1008800000F4050900EB050900E2050900D9050996
:1008900000D0050900C7050900BE050900B5050817
:1008A00000AD050800A50509009C05080094050891
:1008B000008C050800840508007C05080074050804
:1008C000006C050700650508005D05070056050872
:1008D000004E0507004705070040050800380507DA
:1008E00000310507002A050700230507001C05063F
:1008F00000160507000F050700080506000205079A
:1009000000FB040600F5040700EE040600E80406F8
:1009100000E2040700DB040600D5040600CF04064D
:1009200000C9040600C3040600BD040600B704069F
:1009300000B1040500AC040600A6040600A00405EE
:10094000009B04060095040500900406008A040537
:100950000085040500800406007A0405007504057E
:1009600000700405006B04050066040500610405C1
:10097000005C04050057040500520405004D040501
:100980000048040500430405003E0404003A040541
:100990000035040500300404002C0405002704047D
:1009A00000230405001E0404001A040400160405B4
:1009B00000110404000D04040009040500040404EB
:1009C0000000040400FC030400F8030400F4030422
:1009D00000F0030400EC030400E8030400E4030453
:1009E00000E0030400DC030400D8030400D4030483
:1009F00000D0030400CC030400C8030300C50303B4
:100A00000024F404D9201BC40C5C0E9804C4095FB4
:100A10000265077101F405F900FB04B3004804877F
:100A200000C10369005803550003034500BE023AA4
:100A3000008402310053022A00290225000402200A
:100A400000E4011C00C8011900AF0117009801144F
:100A50000084011300710110006101100051010EAA
:100A60000043010D0036010B002B010B0020010B90
:100A700000150109000C01090003010800FB000832
:100A800000F3000800EB000700E4000600DE0006AB
:100A900000D8000600D2000600CC000500C7000503
:100AA00000C2000500BD000400B9000400B5000448
:100AB00000B1000400AD000400A9000400A500037B
:100AC00000A20003009F0004009B000300980003A5
:100AD000009500020093000300900003008D0002C7
:100AE000008B0003008800020086000200840003DF
:100AF00000810002007F0002007D0002007B0002F6
:100B00000079000200770001007600020074000204
:100B10000072000100710002006F0002006D000110
:100B2000006C0002006A0001006900020067000119
:100B3000006600010065000100640002006200011F
:100B40000061000100600001005F0002005D000123
:100B5000005C0001005B0001005A00010059000127
:100B60000058000100570001005600010055000127
:100B70000054000100530000005300010052000126
:100B80000051000100500001004F0001004E000024
:100B9000004E0001004D0001004C0001004B000020
:100BA000004B0001004A000100490001004800001C
:100BB0000048000100470001004600000046000117
:100BC0000045000000450001004400010043000012
:100BD000004300010042000000420001004100000B
:100BE0000041000100400001003F0000003F000103
:100BF000003E0000003E0001003D0000003D0001FD
:100C0000003C0000003C0000003C0001003B0000F4
:100C1000003B0001003A0000003A000100390000EA
:100C200000390001003800000038000000380001E1
:100C300000370000003700010036000000360000D9
:100C400000360001003500000035000000350001CD
:100C500000340000003400000034000100330000C4
:100C600000330000003300010032000000320000B9
:100C700000320001003100000031000000310001AD
:100C8000003000000030000000300001002F0000A4
:100C9000002F0000002F0000002F0001002E000098
:100CA000002E0000002E0001002D0000002D00008D
:100CB000002D0000002D0001002C0000002C000081
:100CC000002C0000002C0001002B0000002B000075
:100CD000002B0000002B0001002A0000002A000069
:100CE000002A0000002A000100290000002900005D
:100CF0000029000000290000002900010028000050
:100D00000028000000280000002800000028000142
:100D10000027000000270000002700000027000037
:100D20000027000100260000002600000026000029
:100D3000002600000026000100250000002500001C
:100D4000002500000025000000250000002500010E
:100D50000024000000240000002400000024000003
:100D600000240001002300000023000000230000F5
:100D700000230000002300000023000000230001E6
:100D800000220000002200000022000000220000DB
:100D900000220000002200010021000000210000CC
:100DA00000210000002100000021000000210000BF
:100DB00000210001002000000020000000200000B1
:100DC00000200000002000000020000000200000A3
:100DD00000200001001F0000001F0000001F000095
:100DE000001F0000001F0000001F0000001F000186
:100DF000001E0000001E0000001E0000001E00007B
:100E0000008908990000000052657047204275690A
:100E10006C64009600FF84036901000014008304E1
:100E20008800000014008C0000000000000000306A
:100E3000F8FFFF00000000000000009B0000000021
:100E400000000000000000000000000000000000A2
:100E5000A51C0000180000A04095048304DC0500D8
:100E6000001400901F8B0000000000000000A00F85
:100E700000000000000000000000800000009B0057
:100E800000000000000000A40F00000000000000AF
:100E9000000000A51C0000180AD7233C95049B0005
:100EA0000000000000000000000000000000000042
:100EB000000000A00F000018F62820418002891BC6
:100EC000950000000042792068616E64206D6F76A5
:100ED00065207468652065782D0095010000007418
:100EE000727564657220746F2064696666657265E8
:100EF0006E7420009501000000706F736974696F53
:100F00006E73206F766572207468652020009507E7
:100F10000000006275696C6420706C6174666F72A9
:100F20006D2E2E2E2E00950000000041646A757310
:100F300074207468652073706163696E6720200097
:100F400095010000006265747765656E20746865C0
:100F50002065787472756465720095010000006EFA
:100F60006F7A7A6C6520616E6420706C6174666F54
:100F7000726D20009507000000776974682074681E
:100F800065206B6E6F62732E2E2E009500000000A0
:100F9000756E6465722074686520706C6174666F2C
:100FA000726D2020009501000000616E64206120B8
:100FB0007368656574206F66207061706572009556
:100FC00001000000706C6163656420626574776580
:100FD000656E207468652020009507000000706C25
:100FE0006174666F726D20616E64207468652E2E68
:100FF0002E0095000000006E6F7A7A6C652E2057E7
:1010000068656E20796F752061726500950100003A
:1010100000646F6E652C2070726573732074686550
:10102000202020202000950700000063656E746575
:101030007220627574746F6E2E00891F62003B020D
:10104000000000002110422063308440A550C6609B
:10105000E770088129914AA16BB18CC1ADD1CEE175
:10106000EFF13112100273325222B5529442F772EC
:10107000D662399318837BB35AA3BDD39CC3FFF3C5
:10108000DEE36224433420040114E664C774A444FC
:1010900085546AA54BB528850995EEE5CFF5ACC515
:1010A0008DD55336722611163006D776F6669556CC
:1010B000B4465BB77AA719973887DFF7FEE79DD765
:1010C000BCC7C448E5588668A7784008611802285C
:1010D0002338CCC9EDD98EE9AFF9488969990AA9B5
:1010E0002BB9F55AD44AB77A966A711A500A333A2C
:1010F000122AFDDBDCCBBFFB9EEB799B588B3BBB05
:101100001AABA66C877CE44CC55C222C033C600CBB
:10111000411CAEED8FFDECCDCDDD2AAD0BBD688D54
:10112000499D977EB66ED55EF44E133E322E511E0B
:10113000700E9FFFBEEFDDDFFCCF1BBF3AAF599FA4
:10114000788F8891A981CAB1EBA10CD12DC14EF144
:101150006FE18010A100C230E320045025404670AA
:101160006760B9839893FBA3DAB33DC31CD37FE3D5
:101170005EF3B1029012F322D232354214527762FA
:101180005672EAB5CBA5A89589856EF54FE52CD5A5
:101190000DC5E234C324A01481046674476424544A
:1011A0000544DBA7FAB79987B8975FE77EF71DC7B5
:1011B0003CD7D326F2369106B0165766767615469A
:1011C00034564CD96DC90EF92FE9C899E9898AB905
:1011D000ABA94458654806782768C018E1088238EA
:1011E000A3287DCB5CDB3FEB1EFBF98BD89BBBAB15
:1011F0009ABB754A545A376A167AF10AD01AB32A3A
:10120000923A2EFD0FED6CDD4DCDAABD8BADE89D64
:10121000C98D267C076C645C454CA23C832CE01C89
:10122000C10C1FEF3EFF5DCF7CDF9BAFBABFD98FF4
:10123000F89F176E367E554E745E932EB23ED10ED9
:10124000F01E78206D6F726521002A205072657340
:1012500073200045726173696E672E2E2E006565DE
:1012600070726F6D5F64756D702E62696E20666955
:101270006C656E6F7420666F756E64005265616494
:10128000206661696C65643B20454550524F4D2096
:101290006D617920626520636F727275707400529F
:1012A0006573746F72696E672E2E2E00656570729D
:1012B0006F6D5F64756D702E62696E2066696C6516
:1012C000616C726561647920657869737473005329
:1012D0004420636172642077726974652066616975
:1012E0006C656400536176696E672E2E2E00507215
:1012F00065737320555020746F2070726F6365653D
:10130000642E00796F757220626F7420696E6F7041
:10131000657261626C652E0054686973206D656E3C
:10132000752063616E206D616B65005361696C6649
:101330006973682076372E3820723061623432004B
:1013400041546D65676120323536302031362F319A
:10135000302F3234002D2D20486561746572205382
:1013600070656369616C202D2D005361696C66693D
:1013700073682046462043726561746F72200020B6
:10138000202020202020202020202020202020205D
:10139000202020002020202000200043202020208A
:1013A000002F2020204300010049033600FF006B7E
:1013B00000D100A000B800D500A6000A0199003FA6
:1013C000018E0074018400A9017C00DE0174001309
:1013D000026C00480265007D025D00B2025600E723
:1013E000024E001C03460051033D0086033200BB41
:1013F000032200F0030300FF030000456C617073DB
:1014000065643A20202020203030306830306D0074
:1014100020736563730054696D65204C6566743A8A
:101420002020203030306830306D0055415254312A
:101430000020205553420053657269616C20492F8A
:101440004F00457261736520456570726F6D005382
:1014500044202D3E20456570726F6D0045657072A9
:101460006F6D202D3E20534400456570726F6D00F6
:101470005072696E742054696D653A20202068208E
:1014800030306D004C617374205072696E743A2074
:10149000202020682030306D004C69666574696DCD
:1014A000653A202020202020682030306D005265D1
:1014B00073756D696E6720706F736974696F6E2ED6
:1014C0002E2E00436C656172696E67206275696CCF
:1014D000642E2E2E20202000447261696E696E6792
:1014E00020706970656C696E652E2E2E004C6561EA
:1014F00076696E672070617573652E2E2E20202010
:10150000200043616E63656C6C696E672070726960
:101510006E742E2E2E2000456E746572696E6720E3
:1015200070617573652E2E2E20202000506175731A
:1015300065206174205A506F733A2000506C6174BA
:10154000666F726D2054656D703A202020004C65E6
:1015500066742054656D703A200052696768742083
:1015600054656D703A2000546F6F6C68656164203B
:101570004F6666736574730020546F6F6C686561A5
:1015800064204F66667365743A00204F6666736523
:10159000743A0055702F446E2F4C6566742F4D20A1
:1015A000746F207365740055702F446E2F522F4C4A
:1015B0002F4D20746F207365740050726F66696CD4
:1015C00065204E616D653A005361766520546F2049
:1015D00050726F66696C65004368616E6765204E86
:1015E000616D6500446973706C617920436F6E664C
:1015F000696700526573746F726500526573657434
:101600003A2070726573732043454E54455200462C
:10161000696C2E20547269703A0046696C616D6580
:101620006E743A00547269703A004C6966653A000B
:1016300046696C616D656E74204F646F6D6574658D
:10164000720048656174657273204F66660043617D
:101650006E63656C205072696E74005072696E74AE
:101660002053746174697374696373004261636BBE
:1016700020746F204D6F6E69746F72006D006D6D18
:1016800000486F6D65204F66667365747300507215
:101690006F66696C65730046696C616D656E743A5E
:1016A000202020202020302E306D6D0046696C6196
:1016B0006D656E743A005A506F736974696F6E3A53
:1016C000202020005072696E742054696D653A20A4
:1016D000202020206820206D0054656D70657261A7
:1016E000747572652072656164732020206F757453
:1016F000206F662072616E67652E202020202020DA
:1017000020436865636B20776972696E672E0054A9
:10171000656D706572617475726520726561647360
:10172000202020617265206661696C696E672E20D9
:1017300020202020202020436865636B2077697279
:10174000696E672E0054656D70657261747572659F
:101750002064726F7070696E67436865636B207791
:101760006972696E672E004E6F74206865617469D6
:101770006E672070726F7065726C79436865636B19
:1017800020776972696E672E0054656D70206C69F0
:101790006D697420726561636865642E2053687595
:1017A00074646F776E206F722072657374617274E7
:1017B0002E00506C6174666F726D204661696C75A5
:1017C00072652120202000546F6F6C20312046610B
:1017D000696C75726521202020202000546F6F6C89
:1017E0002030204661696C75726521202020202000
:1017F000004578747275646572204661696C757213
:10180000652120202000486561746572732073682B
:101810007574646F776E20647565746F20696E618E
:10182000637469766974790046696C616D656E747C
:10183000206C6F61642F756E6C6F616463616E63A1
:10184000656C65642064756520746F20746865201C
:101850007072696F7220686561746572206572725A
:101860006F72004D792074656D7065726174757268
:10187000652077617320206368616E676564206509
:10188000787465726E616C6C792E20526573656C2C
:101890006563742066696C616D656E742020206DCF
:1018A000656E7520746F2074727920616761696E4E
:1018B0002E0077616974696E67200020204E4120F8
:1018C000202020006572726F7221004F4646202052
:1018D0002000435553544F4D00574849544520006C
:1018E000505552504C4500424C554520200047521F
:1018F00045454E200050494E4B2020004F52414E4E
:10190000474500524544202020004C454420436F69
:101910006C6F757200536574204C6967687473202E
:101920004F4E2000536574204C6967687473204FD4
:101930004646002843616E6E6F74205072696E7463
:1019400020436F707929005072696E7420416E6F68
:101950007468657220436F7079004D61696E204D27
:10196000656E750053657420436F6F6C696E6720F8
:1019700046616E204F46460053657420436F6F6C7E
:10198000696E672046616E204F4E20004368616E8D
:101990006765204842502054656D70004368616E51
:1019A00067652054656D706572617475726500437A
:1019B00068616E676520537065656400506175737A
:1019C00065206174205A506F7300446974746F20ED
:1019D0005072696E74696E67004E2F4100502D532E
:1019E000746F702074726967676572656400502D4A
:1019F00053746F7020496E76657274656400502D63
:101A000053746F7020436F6E74726F6C004368651F
:101A1000636B20534420526561647300457874728F
:101A20007564657220486F6C640050617573652041
:101A3000776974682048656174004F7665727269D1
:101A4000646520476354656D700048425020696E9C
:101A50007374616C6C656400416363656C6572618D
:101A600074696F6E0045786974204D656E7500531A
:101A70006F756E6400457874727564657220436F8B
:101A8000756E7400426F7420537461746973746965
:101A900063730043616C696272617465204E6F7A92
:101AA0007A6C657300526573746F72652053657448
:101AB00074696E67730047656E6572616C2053656B
:101AC0007474696E67730050726568656174205341
:101AD000657474696E6773004C6576656C20427539
:101AE000696C6420506C61746500456E61626C6560
:101AF00020537465707065727320200044697361AF
:101B0000626C6520537465707065727300566572FF
:101B100073696F6E20496E666F726D6174696F6E66
:101B20000046696C616D656E74204C6F6164696E0E
:101B30006700486F6D652041786573004A6F6720C4
:101B40004D6F6465004D6F6E69746F72204D6F64E8
:101B500065005574696C69746965730050726568D5
:101B6000656174005072696E742066726F6D2053E7
:101B70004400492074696D6564206F75742077682E
:101B8000696C65202020617474656D7074696E677E
:101B900020746F206865617420206D7920706C61FD
:101BA00074666F726D2E00492074696D6564206FD4
:101BB0007574207768696C65202020617474656D88
:101BC0007074696E6720746F206865617420206D81
:101BD000792065787472756465722E00556E616245
:101BE0006C6520746F20726561642053442020204E
:101BF0006361726420706172746974696F6E7320BE
:101C00006F76657232474220696E2073697A652E5D
:101C10002020466F726D61746173204641542D31EE
:101C200036206F72202D33322E00556E61626C6546
:101C300020746F2072656164207468697320534456
:101C4000206361726420666F726D61742E202020A3
:101C50002020466F726D6174206173204641542DBF
:101C60003136206F72204641542D33322E005344BA
:101C700020636172642072656164206572726F72A4
:101C80002E20546F6F206D616E7920435243206582
:101C900072726F72732E426164206361726420639A
:101CA0006F6E7461637473206F72656C65637472B8
:101CB0006963616C206E6F6973652E005344206305
:101CC0006172642072656164206572726F72005384
:101CD000442063617264206E6F7420707265736556
:101CE0006E74005344206361726420697320656DD3
:101CF0007074790043616E6E6F74206F70656E2032
:101D00007468652066696C65005344206361726481
:101D1000207265616473206172652020206E6F748B
:101D200020676F696E672077656C6C2E2020547277
:101D3000796120646966666572656E74206361729C
:101D4000640049276D20616C726561647920627559
:101D5000696C64696E6700436F6C642050617573D1
:101D60006500556E7061757365005061757365200F
:101D7000200043616E63656C206C6F61642F756E2B
:101D80006C6F61643F0043616E63656C20746869C9
:101D900073207072696E743F0073657474696E6746
:101DA000733F00526573746F726520666163746F70
:101DB000727900506C6174666F726D202020202053
:101DC000202020202020004C656674204578747205
:101DD0007564657220202020202000526967687495
:101DE000204578747275646572202020202000459B
:101DF00078747275646572202020202020202020B5
:101E00002020005072657373206C65667420746FB7
:101E10002063616E63656C004578747275646572E9
:101E20003A2020202D2D2D2F2D2D2D4300506C617B
:101E300074666F726D3A2020202D2D2D2F2D2D2DA3
:101E400043004C2045787472756465723A202D2DDC
:101E50002D2F2D2D2D430052204578747275646509
:101E6000723A202D2D2D2F2D2D2D4300202D2D2587
:101E70000048656174696E673A2020202020202088
:101E800020202020200048656174696E673A002098
:101E90003C2D592020284D656E75292020202020BA
:101EA00020202000203C2D582020284D656E7529CB
:101EB00020205A2D3E2020200020202020202020DD
:101EC00020582D20202020202020202020002020ED
:101ED00020202020284D656E75292020592D3E2078
:101EE0002020002020202020202020582B202020CF
:101EF000202020202020200020202020204A6F6742
:101F0000206D6F64652020202020202000556E6CFD
:101F10006F6164206C65667400556E6C6F6164203F
:101F2000726967687400556E6C6F6164004C6F6114
:101F300064004C6F6164206C656674004C6F616472
:101F40002072696768740035206D696E757465204C
:101F500074696D656F757420686173656C61707309
:101F600065642E2020507265737320746865206349
:101F7000656E74657220627574746F6E20746F2064
:101F800020202066696E6973682E00426567696E5D
:101F9000206C6F6164696E67206F7220202020754D
:101FA0006E6C6F6164696E672E205072657373206A
:101FB00074686563656E74657220627574746F6EA3
:101FC000207768656E202066696E69736865642E87
:101FD0000045787472756465727320617265206E55
:101FE0006F7420202068656174696E672E2020431D
:101FF0006865636B2074686520776972696E672E07
:1020000000592041786973204C696E650058204161
:10201000786973204C696E6500594553004E4F2016
:1020200000446F6E650053656C6563742062657370
:1020300074206C696E65733A0045787472756465D6
:102040007200506C6174666F726D005475726E2010
:1020500048656174657273204F464600537461721F
:10206000742050726568656174696E6700467265B8
:1020700065205352414D20004F4646004F4E2000F0
:10208000EB25C52932311732C9384E3BE33E834038
:10209000D253276560681F73DA73E674F3769D7711
:1020A0003C8AF88A4C915391EA918C92649474958D
:1020B000B299FA99AB9C73A07AA0B1C804CC36CD82
:1020C00019CF8CCFD9D0E6D0E8E6FBE185EC91E2E0
:1020D00001C08193EF3FF907E0F3D9F311241FBE4C
:1020E000CFEFD1E2DEBFCDBF00E00CBF16E0A0E035
:1020F000B2E0EEE2F0EB01E00BBF02C007900D9200
:10210000AA31B107D9F72BE1AAE1B6E001C01D92CF
:10211000A836B207E1F710E2C8ECD0E200E006C052
:1021200022970109FE010BBF0E940ED7C038D107CC
:1021300080E00807A9F70E948D310C9415D80C9403
:1021400000006BBFFA01DC0102C007900D92215024
:102150003040D8F708958091A40881110AC0809179
:10216000A3088F5F8093A308853018F081E08093E7
:10217000A408089581E00E94E43680E00C94C636FD
:10218000F89420919B0630919C068091990690913D
:102190009A06821B930B78940895FF920F931F93D6
:1021A000CF93DF938C01EB01F42E83E499E00E943E
:1021B00016BCB80183E499E00E94EFBBBE0183E442
:1021C00099E00E94EFBBE091D509EE0FFF0BE953B8
:1021D000F64F808191818354994039F063E479E02E
:1021E0008BEB99E00E944E9A04C083E499E00E9430
:1021F00055BCF092A209DF91CF911F910F91FF90F2
:1022000008951092A209E091D509EE0FFF0BE95352
:10221000F64F808191818354994021F48BEB99E0B2
:102220000E940A9BE091D509EE0FFF0BE953F64F90
:1022300080819181DC01ED91FC910480F581E02D9C
:1022400019948091010208951092510608958823EF
:1022500011F080E401C080E88093970660939406B3
:102260001092A508089581E08093930608958091C7
:102270009706181634F480919406882321F082E0A2
:10228000089580E0089581E008958091970608956B
:1022900081E090919706923008F480E00895CF9302
:1022A000DF93CDB7DEB764970FB6F894DEBF0FBEED
:1022B000CDBF60937B0670937C0680937D069093E0
:1022C0007E06CE0101960E94076A62E070E0CE01B0
:1022D00001960E94A63BFC0140815181628173817D
:1022E00080917B0690917C06A0917D06B0917E0640
:1022F000481759076A077B071CF010927A0603C03B
:1023000081E080937A0664960FB6F894DEBF0FBE24
:10231000CDBFDF91CF91089560917B0670917C06CF
:1023200080917D0690917E06089520919B063091C4
:102330009C0681E0232B09F080E00895CF9360E0B4
:1023400070E0CB010E944F1110927A061092400665
:1023500010924106109242061092430610924406D3
:10236000C1E0C09300021092A60810929706109246
:102370009606109295061092940610926A06109294
:102380006B0610926C0610926D0610926E061092FB
:102390006F06109270061092710610925A061092F3
:1023A0005B0610925C0610925D0610925E0610921B
:1023B0005F0610926006109261061092520610920B
:1023C00053061092540610925506109272061092FF
:1023D000730610927406109275061092760610928B
:1023E0007706109278061092790610926206109283
:1023F00063061092640610926506109266061092AB
:10240000670610926806109269061092560610929E
:102410005706109258061092590661E082E490E047
:102420000E942693823039F460E08FEF9FE00E9493
:102430002693811134C01092350610923B061092FB
:102440003C0610923D0610923E0610923A061092FB
:1024500036061092370610923806109239061092FE
:10246000A5081092A3081092A4081092500610928A
:102470004F0610924C0610924B0610924E06109288
:102480004D0610924A061092490610924606109286
:1024900045061092480610924706CF910895C093C2
:1024A0003506CBCF0E949E1185E6809301021092E3
:1024B0009C0610929B0610929E0610929D0610920A
:1024C000A1061092A20610923406089581E0909120
:1024D0003406963009F080E008958F929F92AF9273
:1024E000BF92DF92EF92FF920F931F93CF93DF93F0
:1024F000CDB7DEB7AA970FB6F894DEBF0FBECDBF3B
:10250000D82E882321F081E08093510605C0809168
:102510005106882309F4E9C0CE0145960E94076A56
:1025200081E089A78AA77E0189E2E80EF11C03E019
:1025300010E08CE39AE0FC01E759FF4F2081FC0199
:10254000222319F026A137A104C0EC5AFF4F2081A5
:102550003181232B61F148960E949197882339F1AC
:10256000F70180818D11BCC0812C912C5401839482
:10257000402F60E070E080E090E40E940C68A501CC
:1025800094010E940ED54B015C01B801CE01459625
:102590000E94AD3BFC014081518162817381480DF5
:1025A000591D6A1D7B1D40835183628373830430F0
:1025B000110541F0EFEFEE1AFE0A8BEB9AE004E012
:1025C00010E0B9CF60ED77E08CEE91E00E94369399
:1025D000BC0180E090E00E945CD3209132153091E4
:1025E000331540913415509135150E9462D49B01EA
:1025F000AC0160E074E284E799E40E9489D20E9411
:102600002BD34B015C0180913506882329F1809101
:10261000980681110AC064E070E0CE0145960E94E0
:10262000AD3B8C0163E070E009C063E070E0CE0177
:1026300045960E94AD3B8C0164E070E0CE0145966A
:102640000E94AD3BFC0180819181A281B381F801A0
:1026500080839183A283B383E12C00E010E0980192
:10266000B501A401CE0145960E94306BD1103DC04A
:10267000CE0101960E94076A63E070E0CE010196E8
:102680000E94AD3B8C0163E070E08FE796E00E9412
:10269000AD3BFC014081518162817381F80140832F
:1026A00051836283738364E070E0CE0101960E94DF
:1026B000AD3B8C0164E070E08FE796E00E94AD3B9B
:1026C000FC014081518162817381F8014083518313
:1026D0006283738360E0CE0101960E947E6905C02B
:1026E00088248A94982C540143CFAA960FB6F89464
:1026F000DEBF0FBECDBFDF91CF911F910F91FF9035
:10270000EF90DF90BF90AF909F908F9008952F92A1
:102710003F924F925F926F927F928F929F92AF9271
:10272000BF92CF92DF92EF92FF920F931F93CF93BE
:10273000DF93CDB7DEB7C856D1090FB6F894DEBF28
:102740000FBECDBF182FCE01CD960E94713BCE019A
:1027500089960E94713B112309F4F6C0E4EBF4E181
:102760008081882309F477C2DF0111978C91882337
:1027700009F471C2BD9625E1EB33F20789F784E1D4
:10278000EFE7F6E0DE01559601900D928A95E1F7AC
:10279000CE0101960E94076A60E070E0CE01459686
:1027A0000E94AD3B5C014091B9145091BA14609104
:1027B000BB147091BC148EE090E00E944C936B01AE
:1027C0007C0180E00E94E86720E030E040EA50E4CD
:1027D0000E9462D40E942BD3C61AD70AE80AF90ACB
:1027E000F501C082D182E282F38261E070E0CE0125
:1027F00045960E94AD3B5C014091E6145091E71470
:102800006091E8147091E91482E190E00E944C9389
:102810006B017C0181E00E94E86720E030E040EA43
:1028200050E40E9462D40E942BD3C61AD70AE80A49
:10283000F90AF501C082D182E282F38262E070E09F
:10284000CE0145960E94AD3B409113155091141551
:102850006091151570911615FC01408351836283B8
:10286000738362E070E0CE0101960E94AD3BFC01F3
:10287000C080D180E280F38062E070E0CE014596B6
:102880000E94AD3BFC0180819181A281B3818C15B6
:102890009D05AE05BF05BCF462E070E0CE01459633
:1028A0000E94AD3B8C0162E070E0CE0101960E9477
:1028B000AD3BFC014081518162817381F80140830D
:1028C00051836283738363E070E0CE0145960E947A
:1028D000AD3B8C0163E070E0CE0101960E94AD3B00
:1028E000FC014081518162817381F80140835183F1
:1028F0006283738364E070E0CE0145960E94AD3B35
:102900008C0164E070E0CE0101960E94AD3BFC01B9
:102910004081518162817381F801408351836283D8
:102920007383BE016B5E7F4FCE018F5A9F4F0E9413
:10293000406984E1FE01EF5AFF4FDE019996019054
:102940000D928A95E1F757C084E1EFE7F6E0DE01EA
:10295000999601900D928A95E1F7CE0145960E94D5
:10296000076A64E070E0CE0189960E94AD3BFC01ED
:10297000108101813280238063E070E0CE0189966E
:102980000E94AD3BFC0180809180A280B38062E018
:1029900070E0CE0145960E94AD3BFC01C080D18025
:1029A000E280F38061E070E0CE0145960E94AD3B8D
:1029B000FC01408051806280738060E070E0CE0155
:1029C00045960E94AD3BFC0140815181628173813B
:1029D0002F923F920F931F9393018201CE01019694
:1029E0000E94723B60E0CE0101960E947E690F90CA
:1029F0000F900F900F906091091570910A158091BA
:102A00000B1590910C150E945ED320E030E040E859
:102A100057E30E9462D4209105153091061540912C
:102A20000715509108150E9462D40E942BD3A996D5
:102A30006CAF7DAF8EAF9FAFA997CE018F5A9F4FDE
:102A40000E94076A84E1FE01EF5AFF4FDE01DD9626
:102A500001900D928A95E1F760E070E0CE01CD968D
:102A60000E94AD3BFC01C080D180E280F38060E039
:102A700070E0CE0189960E94AD3BFC01808191817E
:102A8000A281B381A7019601281B390B4A0B5B0B6E
:102A9000CA01B9010E945ED32091AB143091AC14ED
:102AA0004091AD145091AE140E9489D22B013C018B
:102AB00061E070E0CE01CD960E94AD3BFC01C0808C
:102AC000D180E280F38061E070E0CE0189960E94BF
:102AD000AD3BFC0180819181A281B381A701960168
:102AE000281B390B4A0B5B0BCA01B9010E945ED34C
:102AF0002091D8143091D9144091DA145091DB14FC
:102B00000E9489D24B015C0162E070E0CE01CD965B
:102B10000E94AD3BFC01C080D180E280F38062E086
:102B200070E0CE0189960E94AD3BFC0180819181CD
:102B3000A281B381A7019601281B390B4A0B5B0BBD
:102B4000CA01B9010E945ED3209105153091061586
:102B500040910715509108150E9489D26B017C01A4
:102B6000A3019201C301B2010E9462D42B013C0176
:102B7000A5019401C501B4010E9462D49B01AC017E
:102B8000C301B2010E940ED24B015C01A701960164
:102B9000C701B6010E9462D49B01AC01C501B4011A
:102BA0000E940ED20E94C9D44B015C01809135066F
:102BB000882329F18091980681110AC064E070E0B1
:102BC000CE0189960E94AD3B7C0163E070E009C0B4
:102BD00063E070E0CE0189960E94AD3B7C0164E029
:102BE00070E0CE0189960E94AD3BFC01808191810D
:102BF000A281B381F70180839183A283B383709014
:102C0000D5151092D5156091091570910A1580910E
:102C10000B1590910C150E945ED320E030E040E847
:102C200057E30E9462D420E030E040E852E40E9482
:102C300062D40E942BD36B018501740120E0A99618
:102C40004CAD5DAD6EAD7FADA997CE0189960E946A
:102C50007B6C7092D515C859DF4F0FB6F894DEBF64
:102C60000FBECDBFDF91CF911F910F91FF90EF90DD
:102C7000DF90CF90BF90AF909F908F907F906F909C
:102C80005F904F903F902F900895EF92FF920F9397
:102C90001F93CF93DF9398E0899FF0011124E659A9
:102CA000F94FE080F18002811381D481C581B68122
:102CB000E7819701A8016D2F7C2F8B2F9E2FA0E01D
:102CC0000E9457D744F40E94C7D679018A01D62FB3
:102CD000C72FB82FE92F9701A8016D2F7C2F8B2FBD
:102CE0009E2FDF91CF911F910F91FF90EF9008954C
:102CF0006F927F928F929F92AF92BF92CF92DF920C
:102D0000EF92FF920F931F93CF93DF93C82F0E94F0
:102D1000451659016A017B013C01A0E00E9457D78A
:102D200009F00CF449C088E0C89FE00111244E016D
:102D300088E4881A8EEF980A00E010E020E030E086
:102D400040E050E060E070E0C4010E94ED93830138
:102D50000E9430D789019A01AB01BC01C4010E94D5
:102D60003E94DE01A65AB94FFE01E659F94F808123
:102D70008C93818111968C931197828112968C93FA
:102D80001297838113968C931397848114968C9356
:102D90001497858115968C931597868116968C933A
:102DA0001697878117968C93108211821282138254
:102DB0001482158216821782DF91CF911F910F9195
:102DC000FF90EF90DF90CF90BF90AF909F908F904B
:102DD0007F906F90089580E00E94781681E00C94B7
:102DE0007816EF92FF920F931F93CF93DF9398E0A3
:102DF000899FF0011124E65AF94FE080F1800281A9
:102E00001381D481C581B681E7819701A8016D2F17
:102E10007C2F8B2F9E2FA0E00E9457D744F40E9456
:102E2000C7D679018A01D62FC72FB82FE92F97016E
:102E3000A8016D2F7C2F8B2F9E2FDF91CF911F919B
:102E40000F91FF90EF900895CF92DF92EF92FF9253
:102E500080E00E94F116E42F43E0B9018E2F952FF8
:102E60000E94F3676B017C0181E00E94F116E42F60
:102E700044E0B9018E2F952F0E94F3679B01AC01AE
:102E8000C701B6010E940ED26B017C0180E00E9456
:102E90004516E42F43E0B9018E2F952F0E94F3676A
:102EA0009B01AC01C701B6010E940ED26B017C01EF
:102EB00081E00E944516E42F44E0B9018E2F952F42
:102EC0000E94F3679B01AC01C701B6010E940ED2BC
:102ED000FF90EF90DF90CF9008950F931F93CF93C3
:102EE000DF93082FC0E4D6E010E0888181110EC086
:102EF000812F0E94676F8883002321F0812F0E9419
:102F00006D6F04C064E1812F0E94626F1F5F219684
:102F1000153059F7DF91CF911F910F9108951F93AD
:102F2000CF93DF93C0E4D6E010E06881812F0E9448
:102F3000626F19921F5F1530C1F7DF91CF911F911A
:102F400008950F931F93CF93DF93CDB7DEB76997A3
:102F50000FB6F894DEBF0FBECDBF809197068534C3
:102F600009F400C190F5813409F456C0B8F48032F8
:102F700009F4C5C1803409F43FC0823009F0F4C1BE
:102F80000E940111609195067091960621E040E043
:102F900087E199E00E94923581E051C0833409F4C1
:102FA00045C008F04FC0CE0106960E94076A84E132
:102FB000FE013696AFE7B6E001900D928A95E1F7F3
:102FC00081E00E946D1283E43AC0843809F460C144
:102FD00050F4813809F43EC1833809F44AC180387D
:102FE00009F0C2C1EAC0863809F46BC108F45FC1B8
:102FF000873809F46BC1B8C10E943F2C853029F095
:103000000E943F2C843009F091C181E4809397069F
:1030100081E00E946D17A8C18091380C9091370C07
:10302000891B8F7009F0A0C182E409C08091380C1F
:103030009091370C891B8F7009F096C184E48093BE
:10304000970692C181E00E94871385E480939706DA
:103050000E943F2C853039F00E943F2C11E08430D3
:1030600019F010E001C011E045E069E479E1CE011A
:1030700001960E94AACBCE0101960E94F7CB8093C5
:103080003F0680E00E94C6368091A50A882329F079
:103090008091620A9091630A04C08091900A909195
:1030A000910A90934606809345068091240B8823CD
:1030B00029F08091E10A9091E20A04C080910F0BFF
:1030C0009091100B90934806809347068091380AA0
:1030D000882329F08091F5099091F60904C0809128
:1030E000230A9091240A90934A068093490680917E
:1030F0009406811123C160E08EEF9FE00E94269329
:10310000882309F41BC180919406882351F021E0A3
:1031100040E060E080E00E949C7560E088EF0E94E3
:10312000376F60919506709196066115710569F08B
:103130008091A608882319F082E095E104C011115E
:10314000FBCF87E195E141E00AC0112319F082E04D
:1031500095E102C087E195E141E063EC74E10E94F2
:10316000CD1002C18091380C9091370C891B8F7063
:1031700009F0FAC00E948F178091A608882311F0E9
:1031800080E209C08091950690919606892B11F0F6
:1031900082E001C081E0809397060E9401110E94A5
:1031A0003F2C853009F4E0C00E943F2C843009F4A4
:1031B000DBC087E00E94F53AD7C080E00E946D171F
:1031C00000914F06109150060115110521F4009150
:1031D000490610914A061016110654F460E087EE75
:1031E00099E00E94F497B80187EE99E00E94C19699
:1031F00000914B0610914C060115110521F4009128
:103200004506109146061016110654F460E084E558
:103210009AE00E94F497B80184E59AE00E94C19672
:1032200000914D0610914E060115110521F40091F3
:103230004706109148061016110654F460E083ED1D
:103240009AE00E94F497B80183ED9AE00E94C1963B
:1032500081E8F5CE8091490690914A061816190624
:103260000CF06FC087EE99E00E949197811169C0C0
:103270007BC08091450690914606181619060CF001
:1032800062C084E59AE00E94919781115CC06CC095
:1032900081E00E946D1780E00E94871385E880938B
:1032A000970641E06EEA74E18DEE94E158CF80918B
:1032B000380C9091370C891B8F7009F055C086E847
:1032C000BECE80E00E946D1287E8B9CE8091380CA6
:1032D0009091370C891B8F7009F046C080913F0692
:1032E0000E94C6360E948F170E9401111092970605
:1032F00010929606109295061092A50835C00E946D
:103300000111609195067091960621E040E087E1F9
:1033100099E00E9492350E94FB3C10929606109212
:1033200095061092A608109297061EC041E068ED1F
:1033300074E187E195E10E94CD1067CE0E94BA103A
:10334000E2CE83E87CCE809147069091480618161D
:10335000190634F483ED9AE00E949197882321F0B6
:103360000E948F1784E86BCE69960FB6F894DEBF83
:103370000FBECDBFDF91CF911F910F910895CF92D6
:10338000DF92EF92FF92CF93DF93C0910102C53697
:1033900009F453C0CC2309F450C0D0913A06CD179C
:1033A00009F44BC0DD2309F448C0609136067091E2
:1033B00037068091380690913906611571058105AF
:1033C0009105D9F10E945CD36B017C016C2F70E0F8
:1033D0006D1B7109882777FD8095982F0E945ED319
:1033E0009B01AC01C701B6010E9489D26B017C012F
:1033F0006C2F70E080E090E00E945CD39B01AC01F8
:1034000060E070E088EC92E40E940DD29B01AC0178
:10341000C701B6010E9462D46B017C0120E030E05C
:10342000A9010E9485D287FF03C0C12CD12C76014F
:10343000C701B6010E942BD303C060E070E0CB014E
:10344000DF91CF91FF90EF90DF90CF900895FC0136
:10345000CB0124813581820F931F608171810E948D
:103460002AD526813781820F931F08951F93CF930A
:10347000DF93EC01162F2A813B81888199812817DF
:10348000390768F46A817B81CE010E94271AFC010A
:1034900010838A819B8101969B838A8302C081E08D
:1034A0008887DF91CF911F910895682F89E996E071
:1034B0000C94361ACF93DF93EC018A819B81892B80
:1034C00021F481E0898780E016C060E070E0CE01E1
:1034D0000E94271AFC018C819D8101966881798167
:1034E0000E942AD59D838C832A813B8121503109FA
:1034F0003B832A838081DF91CF91089589E996E00B
:103500000C945A1ACF9389E996E00E945A1AC82F50
:1035100089E996E00E945A1A982F8C2FCF9108952E
:103520001F93CF93DF931F921F92CDB7DEB789E928
:1035300096E00E945A1A682F89E996E06A830E94F1
:103540005A1A782F89E996E079830E945A1A182F1F
:1035500089E996E00E945A1A982F6A817981812F11
:103560000F900F90DF91CF911F910895DF92EF920E
:10357000FF920F931F93CF93DF93C82F61E070E00A
:1035800089E996E00E94271AFC01D080CF3F09F01C
:10359000DC2E62E070E089E996E00E94271AFC01C7
:1035A00080818D3009F476C048F48C3008F05EC01C
:1035B000843008F04FC0833069F0C0C0873109F40F
:1035C0004BC020F4803108F445C0B8C08F3109F4F5
:1035D0006DC0B4C064E070E089E996E00E94271AEB
:1035E000FC01C081D0E065E070E089E996E00E94CE
:1035F000271AFC01808190E0982F8827C80FD91FD7
:10360000209719F40E94EB1614C00D2D10E07801DC
:10361000EE0CFF1CF701E55BF94F80819181892B4E
:1036200009F08EC060E08DEF9FE00E94269381112B
:1036300087C0F1E0DF1203C08BEB9AE002C08CE39D
:103640009AE0BE0148960E94C19680914B0B8E7FF6
:1036500080934B0B11E08BC00E94371191E08111D8
:1036600090E060E0892F0E949F2DF4CF64E070E02D
:1036700089E996E00E94271AFC0160816170F1E0FF
:10368000DF1203C08BEB9AE002C08CE39AE00E9449
:103690000495E0CF64E070E089E996E00E94271A83
:1036A000FC01808181700E94C636D4CF0E94F4282C
:1036B000182F882379F264E070E089E996E00E948F
:1036C000271AFC01C081D0E065E070E089E996E04E
:1036D0000E94271AFC01208130E0322F2227C20FDE
:1036E000D31F2097D9F020914F0630915006232BFD
:1036F00039F460E08DEF9FE00E942693882371F0FB
:1037000020914F06309150062115310571F564E680
:1037100070E08CE591E00E943693EC01BE0187EEEB
:1037200099E00E94C19661E087E199E00E94C1366C
:1037300080914B0B8E7F80934B0B19C010E017C00C
:10374000F701E55BF94F208131812115310551F4F5
:10375000C801880F991F66EE70E0885A9E4F0E943C
:10376000369301C0C901EC0164CFC901D6CF812FC6
:10377000DF91CF911F910F91FF90EF90DF9008950F
:103780002F923F924F925F926F927F928F929F9271
:10379000AF92BF92CF92DF92EF92FF920F931F935F
:1037A000CF93DF93CDB7DEB7CC54D1090FB6F894E1
:1037B000DEBF0FBECDBF0E949A3C882381F080916E
:1037C0009B0690919C062091990630919A062817A5
:1037D000390719F10E94E93C811173C51EC00E948E
:1037E0008073882309F446C080919B0690919C06C3
:1037F0002091990630919A062817390709F469C56E
:103800000E948E73882309F464C50E949C73682FFC
:1038100089E996E00E94361AE7CF0E94E93C8111BF
:1038200029C080910202882309F441C5909197062E
:1038300091113DC591E09093A608813009F02FC504
:103840008FEC9CE190939606809395060E94BA10A7
:1038500060E08FEF0E94376F10929C0610929B06DB
:1038600010929E0610929D061092A1061092A2063A
:103870000E94832D80917B0690917C06A0917D060D
:10388000B0917E06892B8A2B8B2B19F180917A06B9
:1038900081111FC0CE0101960E94076A62E070E0AC
:1038A000CE0101960E94A63BDC014D915D916D9188
:1038B0007C9180917B0690917C06A0917D06B091D1
:1038C0007E06481759076A077B071CF481E080933E
:1038D0007A0680917B0690917C06A0917D06B0913E
:1038E0007E06892B8A2B8B2B79F180917A0688238F
:1038F00059F10E943711811127C0CE0101960E9413
:10390000076A62E070E0CE0101960E94A63BFC01CE
:10391000408151816281738180917B0690917C0608
:10392000A0917D06B0917E06481759076A077B076C
:103930005CF060E070E0CB010E944F1160E081E03C
:103940000E949F2D0C94D12510919706123020F0E3
:103950000E94A1170C94D1251130F9F4809194069E
:1039600081110C94D1258091930681110C94D1255D
:1039700083EA99E00E9455CF882311F40C94D12555
:10398000109394060E94BA1021E040E060E080E0CD
:103990000E949C7560E088EFBDC48091340683303E
:1039A00071F40E947368882341F088E296E00E94D7
:1039B00055CF882321F00E94E7721092340680913F
:1039C000A5088823E1F08091A4088823C1F08091A4
:1039D00034068330A1F080919706811110C00E94B7
:1039E000371181110AC08DED99E19093960680936D
:1039F000950661E081E00E949F2D1092A5088091BC
:103A00003406813031F40E947368811102C0109233
:103A1000340680913406823039F48EE296E00E94BA
:103A200055CF81111092340680913406843009F00C
:103A300051C082E296E00E9455CF882349F020E0F1
:103A400040E067EA7BE187E199E00E94923540C05F
:103A500080919806813019F48BEB9AE002C08CE3D8
:103A60009AE048960E94BD97811113C08091350657
:103A7000882371F180919806882319F08CE39AE0ED
:103A800002C08BEB9AE048960E94BD97811122C03C
:103A90001FC080919806813019F48BEB9AE002C028
:103AA0008CE39AE048960E949197882399F0809140
:103AB0003506882369F080919806811103C08BEB4D
:103AC0009AE002C08CE39AE048960E949197811197
:103AD00010923406809134068530E1F482E296E05B
:103AE0000E9455CF882349F020E040E062E77BE167
:103AF00087E199E00E94923510C487EE99E00E9418
:103B0000BD97882309F409C487EE99E00E94919734
:103B1000811103C480913406863091F58CE196E0E2
:103B20000E9455CF882391F080911A0681FF06C02C
:103B300060E087E199E00E94D43822C010923406F8
:103B400080914B0B8F7E80934B0B1AC08BEB99E0CF
:103B50000E94A09C8823A1F080911A0682FF04C0D5
:103B60008BEB99E00E940A9B0E94B53880914B0B29
:103B70008F7E80934B0B8FEF0E946F7610923406EE
:103B80008091340681110C94D12580919B069091EF
:103B90009C06892B11F40C94D12587E199E00E94B1
:103BA0009B3560E070E089E996E00E94271ADC010D
:103BB0001C911B3809F426C51E3809F4B5C31B39FE
:103BC00009F4CBC5193809F492C3163809F4DBC7D8
:103BD0001C3809F48AC70DE7010F1C3909F4B6C077
:103BE000103909F4B3C0023008F4B0C0183809F431
:103BF000ADC0143941F480919B0690919C060597C5
:103C000008F4CFC708C0163909F4A0C00E94A15219
:103C100081112DC0C6C70E947E1A0E947E1A809311
:103C20001B060E94821A8C010E947E1A80931A063B
:103C30000115110571F0D80120E432E44FE050E0A5
:103C40000E94A8D5AB01BC018CE196E00E9423CF75
:103C50006CC0CE0101960E9420CF86E0FE01319615
:103C6000ACE1B6E001900D928A95E1F75EC015389F
:103C700009F4F3C6153909F069C080919B0690914B
:103C80009C06069708F48DC70E947E1A0E947E1A31
:103C9000082F0E947E1AE82E0E947E1AF82E0E949B
:103CA0007E1A182F00FD04C083E499E00E9416BC20
:103CB000E0924609F092470969E976E083E499E0E9
:103CC0000E9479C801FF6DC7E091D509EE0FFF0B87
:103CD000E953F64F208131812354394009F4D6C687
:103CE00063E479E08BEB99E00E944E9A0470111125
:103CF000D2C6002309F455C7112309F4D4C6A12F55
:103D0000B0E020E432E44FE050E00E94A8D5AB01DF
:103D1000BC018CE196E00E9423CF81E080931B06DA
:103D200080911A06847080931A060E94AB386091C5
:103D30001B068BEB99E00E949D9C80914B0B806150
:103D400080934B0B86E0809334062BC7023060F5DE
:103D500080919B0690919C06089708F422C70E94C8
:103D60007E1A0E947E1A082F0E94901A6B017C0115
:103D70000E94821ADC0183E08093340620E432E45E
:103D80004FE050E00E94A8D5AB01BC0188E296E06C
:103D90000E9423CF81E0143809F080E0A70196014A
:103DA000602F0E948B6EFDC6173829F580919B0607
:103DB00090919C06069708F4F4C684E0809334063C
:103DC00081E08093A4080E947E1A0E947E1A80934C
:103DD00098060E94821A0E94821ADC0120E432E4D2
:103DE0004FE050E00E94A8D5AB01BC0182E296E012
:103DF0000E9423CFD6C61D3891F480919B069091E6
:103E00009C06069708F4CDC685E08093340681E0D1
:103E10008093A4080E947E1A0E947E1ADACF1F386F
:103E200009F03FC080919B0690919C06029708F490
:103E3000B8C60E947E1A0E947E1AC82ECE01019634
:103E40000E94076A0EE010E0E12CF12CD12CC60193
:103E50000E2C02C0959587950A94E2F780FF17C053
:103E6000B701CE0101960E94AD3BDC014D915D9101
:103E70006D917C914D8B5E8B6F8B788FF89444E0C5
:103E800050E0B801CE0145960E94F0D77894BFEF7C
:103E9000EB1AFB0A0C5F1F4FE5E0EE16F104B9F6D2
:103EA00080C6103909F05FC080919B0690919C06F6
:103EB000029708F476C60E947E1A0E947E1AC82EC7
:103EC000CE0101960E94076A0EE010E0E12CF12C71
:103ED000D12CC6010E2C02C0959587950A94E2F765
:103EE00080FF0CC0F894B701CE0101960E94AD3B53
:103EF00044E050E0B8010E94CCD77894FFEFEF1A6D
:103F0000FF0A0C5F1F4F23E0E216F10411F763E094
:103F100070E0CE0101960E94AD3BFC018081918151
:103F2000A281B3818093520690935306A0935406C6
:103F3000B093550664E070E0CE0101960E94AD3B5F
:103F4000FC0180819181A281B38180935606909378
:103F50005706A0935806B093590661E0CE0101962A
:103F60000E947E691EC6113999F480919B0690913A
:103F70009C06039708F415C60E947E1A0E947E1ABA
:103F8000182F0E947E1A682F812F0E94626F09C627
:103F9000123921F580919B0690919C06069708F4B2
:103FA00000C60E947E1A0E947E1A182F0E947E1A56
:103FB0002B968FAF2B970E947E1A2A968FAF2A9747
:103FC0000E947E1A0E947E1A2A964FAD2A972B963F
:103FD0006FAD2B97812F0E94DF76E3C51339B1F4C3
:103FE00080919B0690919C06069708F4DAC50E9482
:103FF0007E1A0E94821A8C010E94821A7C010E9401
:104000007E1AB701C8010E94943ACBC5183809F04E
:1040100062C080919B0690919C06049708F4C1C5EC
:1040200063E070E089E996E00E94271A20919B06E0
:1040300030919C06DC01EC90F12CB4E0EB0EF11C0D
:104040002E153F0508F4ADC580913506882339F05B
:1040500080910002882319F01092000203C081E0D1
:104060008093000262E070E089E996E00E94271ADE
:10407000FC018081833059F062E070E089E996E0CC
:104080000E94271ADC018C918C3009F049C1809183
:10409000000281110DC061E070E089E996E00E94A4
:1040A000271AFC0181E09081992319F080E001C07A
:1040B0008FEF0E94B61A80910002882309F471C51F
:1040C00010E0812F90E08E159F0508F06AC50E94D0
:1040D0007E1A1F5FF6CF163909F041C080919B060A
:1040E00090919C06039708F45CC50E947E1A0E947A
:1040F0007E1A809301020E947E1A80910102882319
:10410000F1F080913B0690913C06A0913D06B09164
:104110003E06892B8A2B8B2B91F480913A068111D4
:104120000EC00E94972C60933B0670933C068093D0
:104130003D0690933E068091010280933A0680915D
:104140000102882309F42DC50E94972C609336063E
:1041500070933706809338069093390622C5173935
:10416000B9F480919B0690919C060297B8F10E9449
:104170007E1A0E947E1A811102C084E006C081303E
:1041800019F40E94F53A2AC082E00E94303B26C012
:10419000183999F480919B0690919C06029708F437
:1041A00000C50E947E1A0E947E1A0E94F22760E0DB
:1041B00087E199E00E94D438F4C4193991F48091D0
:1041C0009B0690919C06059708F4EBC40E947E1A0A
:1041D0000E94901A89E996E00E94F7301092A40894
:1041E000E0C41A3971F480919B0690919C06029765
:1041F00008F4D7C40E947E1A0E947E1A0E94F92CED
:10420000EDCF1C3999F480919B0690919C06029702
:1042100008F4C7C40E947E1A0E947E1A91E0813081
:1042200009F090E0892F0E94726FBBC41D39A1F480
:1042300080919B0690919C06459708F4B2C40E9419
:10424000901A0E94901A0E94901A0E94901A0E943E
:10425000901A0E947E1AA5C41E3909F0A2C480914A
:104260009B0690919C06059708F49BC40E947E1AB9
:104270000E94901A6B017C012FE632E143E85AE379
:104280000E9485D287FF03C0C12CD12C760142E069
:10429000C701B6010E940C680E944F1182C48B3086
:1042A00019F48EE69CE1CECA8CEB9CE1CBCA8091DE
:1042B000950690919606892B09F0DCCA0E94FB3C7A
:1042C000D9CA0E94EC3C682F89E996E00E94361A10
:1042D00076CA0E948E738111CDCA80919B069091FF
:1042E0009C06892B09F0C6CA0E94D773C3CA809165
:1042F0009B0690919C06029708F453C40E947E1A74
:104300000E947E1A909135069111DBC3682F661FBB
:104310006627661F0E94376F44C410923406FACB9A
:1043200081E080930002B3CE80919B0690919C0621
:104330004A9708F436C40E947E1A81E080933406BE
:104340000E94901A69AB7AAB8BAB9CAB0E94901A1F
:104350006DAB7EAB8FAB98AF0E94901A69AF7AAF0E
:104360008BAF9CAF0E94901A4B0189A39DA30E9422
:10437000901A69A7272E8DA79EA70E94901A2196B2
:104380006CAF7DAF8EAF9FAF21970E947E1A382E03
:1043900080913506882369F18091980681110DC0BE
:1043A000832D8F7E33FE16C08061382E89A6292C7E
:1043B00039A13DA74DA14EA71CC0832D877F34FE98
:1043C00011C08860382E89A4922C5DA559A38EA5B2
:1043D0008DA30FC0382E89A6292C99A19DA7ADA128
:1043E000AEA707C0382E89A4922CBDA5B9A3EEA50F
:1043F000EDA38D8A9E8AF9A1FF8B2DA1288F39A567
:10440000398F2A8E4DA54B8F5EA55C8FAAE6B6E04C
:104410002796BFAFAEAF27972E01B5E14B0E511CCB
:1044200082E5682E86E0782EE3E0F0E0F8ABEFA7B7
:10443000A32DB0E02396BFAFAEAF239723968EADEA
:104440009FAD23970FA402C0959587950A94E2F734
:10445000D2012D913D914D915C912D8F3E8F4F8FCB
:1044600058A380FF38C069017A01FF0CCC08DC2C0E
:1044700076012D8D3E8D4F8D58A16C2D7C2D8C2D70
:104480009C2D2796EEADFFAD2797A080B180C2800E
:10449000D380E480F580068117810E9430D7208385
:1044A0003183428353836483758386839783D301E7
:1044B0004D915D916D917C918D8D9E8DAF8DB8A14B
:1044C000480F591F6A1F7B1FD3014D935D936D9356
:1044D0007C93139750C0F301C080D180E280F380B9
:1044E000DA01C9018C199D09AE09BF096C017D0172
:1044F000FF0CCC08DC2C76019C01AD016C2D7C2DD1
:104500008C2D9C2D2796AEADBFAD2797AC90119604
:10451000BC9011971296CC9012971396DC9013973B
:104520001496EC9014971596FC90159716960C918E
:10453000169717961C9117970E9430D72C931196B7
:104540003C93119712964C93129713965C93139782
:1045500014966C93149715967C93159716968C93D6
:10456000169717969C932D8D3E8D4F8D58A12083C5
:10457000318342835383EFA5F8A93196F8ABEFA7B7
:104580002796AEADBFAD279718962796BFAFAEAFB3
:104590002797B4E04B0E511CE4E06E0E711CAFA5E2
:1045A000B8A9159709F04ACF0E94AB10BEA5BF93DA
:1045B000EDA5EF932F92F9A5FF93A9A0BDA0C9ACDB
:1045C000DAACEBACFCAC0DA91EA92FA938AD49A9FA
:1045D0005AA96BA97CA9CE0101960E94723BE32CDB
:1045E00021960CAD1DAD2EAD3FAD219740E050E0C2
:1045F000BA01CE0101960E94306B0F900F900F9080
:104600000F90CFC280919B0690919C06499708F429
:10461000C8C20E947E1A81E0809334060E94901ADC
:104620006D8F7E8F8F8F98A30E94901A69A37AA3B3
:104630008BA39CA30E94901A6DA37EA38FA398A71F
:104640000E94901A4B01382E292E0E94901A2B019D
:104650003C010E94901A69A77AA78BA79CA780911A
:104660003506882359F080919806811104C02401F1
:10467000632C722C03C04201362C272C80925206E8
:104680009092530630925406209255068091560619
:1046900090915706A0915806B0915906A301920136
:1046A000281B390B4A0B5B0BDA01C90169017A013E
:1046B000FF0CCC08DC2C76019C01AD016C2D7C2D0F
:1046C0008C2D9C2DA0907206B0907306C09074063D
:1046D000D0907506E0907606F09077060091780607
:1046E000109179060E9430D720937206309373069A
:1046F0004093740650937506609376067093770620
:104700008093780690937906409256065092570609
:1047100060925806709259060E94AB107F926F9279
:104720005F924F92A32CB22CCDA0DEA0EFA0F8A4F4
:1047300009A11AA12BA13CA14D8D5E8D6F8D78A191
:10474000CE0101960E94723BE12C00E010E098013E
:1047500049A55AA56BA57CA54CCF80919B0690914D
:104760009C06809708F41DC20E947E1A81E0809307
:1047700034060E94901A69AB7AAB8BAB9CAB0E945B
:10478000901A6DAB7EAB8FAB98AF0E94901A69AF59
:104790007AAF8BAF9CAF0E94901A4B018DA3392E3C
:1047A0000E94901A69A7272E8DA79EA70E94901A93
:1047B00021966CAF7DAF8EAF9FAF21970E947E1A7E
:1047C000182F0E94901A25966CAF7DAF8EAF9FAFC9
:1047D00025970E94821A27969FAF8EAF27978091C8
:1047E0003506811103C01F771D8F27C08091980661
:1047F00081110CC0212F2F762D8F13FF13C0206144
:104800002D8F89A6292C3DA13DA710C0412F4777A8
:104810004D8F14FF0DC048604D8F89A4922C5DA56B
:104820005DA30AC089A6292C8DA18DA73EA605C02F
:1048300089A4922C9DA59DA33EA48D8A9E8AADA19C
:10484000AF8B388EB9A5B98F2A8EEDA5EB8FFEA55B
:10485000FC8FAAE6B6E02D96BFAFAEAF2D972E0126
:10486000B5E14B0E511CF2E56F2EF6E07F2EE3E032
:10487000F0E0F8ABEFA7BD8DAB2FB0E02996BFAF4E
:10488000AEAF299729968EAD9FAD29970FA402C090
:10489000959587950A94E2F7D2012D913D914D911E
:1048A0005C9129A33AA34BA35CA380FF38C06901A4
:1048B0007A01FF0CCC08DC2C760129A13AA14BA18E
:1048C0005CA16C2D7C2D8C2D9C2D2D96EEADFFAD1D
:1048D0002D97A080B180C280D380E480F5800681CE
:1048E00017810E9430D720833183428353836483AE
:1048F000758386839783D3014D915D916D917C91F2
:1049000089A19AA1ABA1BCA1480F591F6A1F7B1FA7
:10491000D3014D935D936D937C93139750C0F30136
:10492000C080D180E280F380DA01C9018C199D0931
:10493000AE09BF096C017D01FF0CCC08DC2C7601AF
:104940009C01AD016C2D7C2D8C2D9C2D2D96AEAD3A
:10495000BFAD2D97AC901196BC9011971296CC904C
:1049600012971396DC9013971496EC901497159663
:10497000FC90159716960C91169717961C91179701
:104980000E9430D72C9311963C93119712964C931A
:10499000129713965C93139714966C93149715962D
:1049A0007C93159716968C93169717969C9329A12E
:1049B0003AA14BA15CA12083318342835383EFA5AD
:1049C000F8A93196F8ABEFA72D96AEADBFAD2D97F8
:1049D00018962D96BFAFAEAF2D97B4E04B0E511C7D
:1049E000E4E06E0E711CAFA5B8A9159709F04ACF87
:1049F0000E94AB107090D515BD8D7B2AEEA5EF936C
:104A0000FDA5FF932F9229A52F93ADA0B32CC9AC80
:104A1000DAACEBACFCAC0DA91EA92FA938AD49A9A5
:104A20005AA96BA97CA9CE0101960E94723B2796D8
:104A3000CEACDFAC27972596ECACFDAC0EAD1FAD30
:104A40002597272D21964CAD5DAD6EAD7FAD21979D
:104A5000CE0101960E947B6CD0CD80919B069091F7
:104A60009C06059708F49DC082E0809334060E945E
:104A70007E1A0E94901A9B01AC01A8EEB3E00E943E
:104A8000A8D5AB01BC018EE296E0B2C983E499E0FF
:104A90000E9455BC2BC901112CC9612F83E499E0F8
:104AA0000E9445BC7EC0CE0101960E9420CF86E0C8
:104AB000FE013196ACE1B6E001900D928A95E1F7E6
:104AC0002CC990919806911107C0982F9F7E83FF63
:104AD0000AC0892F80611ACC982F977F84FF03C06A
:104AE000892F886013CC892F11CC80919B069091DF
:104AF0009C06459708F455C00E947E1A0E94901AA1
:104B00002B013C010E94901A6D8F7E8F8F8F98A38E
:104B10000E94901A6B017C010E94901A4B015C016B
:104B20000E94901A20913506222349F02091980680
:104B3000211103C0B401C50102C04B015C01809288
:104B4000520690925306A0925406B0925506609376
:104B500056067093570680935806909359069F9374
:104B60008F937F936F930D8D1E8D2F8D38A1B30181
:104B7000A201CE0101960E94723B60E0CE01019637
:104B80000E947E693ACD80919B0690919C06029787
:104B900040F00E947E1A0E947E1A809398060E941E
:104BA000756FC45BDF4F0FB6F894DEBF0FBECDBF8D
:104BB000DF91CF911F910F91FF90EF90DF90CF90F9
:104BC000BF90AF909F908F907F906F905F904F902D
:104BD0003F902F90089540E067E479E187EA98E0FC
:104BE0000E94AACB80E092E090939A068093990667
:104BF00010929C0610929B0610929E0610929D06A3
:104C000083EA96E09093A00680939F061092A106F7
:104C10001092A2068FE796E00E94713B8EE296E02A
:104C20000E9420CF88E296E00E9420CF82E296E0A8
:104C30000E9420CF8CE196E00C9420CFCF93DF939D
:104C40001F921F92CDB7DEB721E0298322E32A838A
:104C500042E050E0BC01CE0101960E94F0D70F90D7
:104C60000F90DF91CF910895CF93DF93EC0140E057
:104C700050E060EE70E40E94B39346E656E666EAC2
:104C80007EE3CE0102960E94B39340E050E060E1E3
:104C900072E4CE010496DF91CF910C94B393CF933D
:104CA000DF93EC010A960E943426CE0140960E94C2
:104CB0003426CE014A96DF91CF910C941E260F9395
:104CC0001F93CF93DF9300D0CDB7DEB78C0167E0A1
:104CD0000E94FAD761E0C80102960E94FAD78FEFCE
:104CE00089838A838B83B8016C5F7F4F43E050E0F8
:104CF000CE0101960E94F0D70F900F900F90DF9198
:104D0000CF911F910F91089567E080E491E00C949A
:104D10002693682F80E491E00C94FAD70F931F93A9
:104D2000CF93DF9300D01F92CDB7DEB7082F162F99
:104D300068E080E491E04C830E94FAD709831A83EB
:104D40004C814B8343E050E064E471E0CE01019676
:104D50000E94F0D70F900F900F900F90DF91CF919E
:104D60001F910F910895CF92DF92EF92FF92CF9310
:104D7000DF936B017C01EA01CA010E9410D8B701E0
:104D8000CE010496DF91CF91FF90EF90DF90CF900E
:104D90000C9410D8AC016BE770E084EF91E00E94B6
:104DA000B3260895CF93DF93EC0166EE70E00E9486
:104DB00010D866EE70E0CE0102960E9410D864E62C
:104DC00070E0CE0104960E9410D865E0CE010696F0
:104DD000DF91CF910C94FAD761E08EE691E00E94CA
:104DE000FAD768EE73E082E791E00E9410D868EE8F
:104DF00073E084E791E00E9410D866E970E086E7EE
:104E000091E00E9410D860ED77E088E791E00E9481
:104E100010D860ED77E08AE791E00E9410D86FE04B
:104E200070E08CE791E00E9410D86FE070E08EE7B0
:104E300091E00E9410D86AE070E080E891E00E9462
:104E400010D864E170E082E891E00E9410D864E13B
:104E500070E084E891E00E9410D844EF51E060E0F7
:104E600070E088ED91E00E9408D84CE755E160E0E1
:104E700070E08CED91E00E9408D860E170E080EE77
:104E800091E00E9410D860E170E082EE91E00E9413
:104E900010D860E08BE092E00E94FAD761E084EEE7
:104EA00091E00E94FAD760E888E891E00C94FAD784
:104EB000CF93DF93CDB7DEB764970FB6F894DEBF1C
:104EC0000FBECDBF84E1EFEBF2E0DE011196019061
:104ED0000D928A95E1F744E150E06EE070E0CE017A
:104EE00001960E94F0D764960FB6F894DEBF0FBE0D
:104EF000CDBFDF91CF910895CF92DF92EF92FF92D5
:104F00000F931F93CF93DF93CDB7DEB764970FB6A0
:104F1000F894DEBF0FBECDBF6C0128E0E3EDF2E0F8
:104F2000DE011D9601900D922A95E1F74CE050E0CC
:104F30006EE070E0CE0101960E94CCD77E018DE03C
:104F4000E80EF11C8601D12C48E050E0B801F701D1
:104F5000819191917F010E94F0D74CE050E0B8011F
:104F6000685F7F4FCE0101960E94F0D766EE70E039
:104F7000C80144960E9410D866EE70E0C8014696BB
:104F80000E9410D8F1E0DF1203C06DE270E002C0B1
:104F900064E670E0C80148960E9410D8D394065E7B
:104FA0001F4F84E0D812D0CF6CEA8CEF9FE00E94B4
:104FB000FAD764960FB6F894DEBF0FBECDBFDF916F
:104FC000CF911F910F91FF90EF90DF90CF900895B8
:104FD000813009F082E0682F82E490E00E94FAD7E5
:104FE0000C9458270F931F93CF93DF93CDB7DEB761
:104FF0006D970FB6F894DEBF0FBECDBF85E0EBED29
:10500000F2E0DE01559601900D928A95E1F74BE0B2
:1050100050E062E270E08BE393E00E94F0D745E05D
:1050200050E066E070E0CE0145960E94F0D76FE94F
:1050300084E090E00E94FAD76BE18CE090E00E945F
:10504000FAD70E94582784E99FE00E947C27A89500
:1050500044E150E06CE871E086E493E00E94F0D710
:1050600044E150E064EA71E08EE693E00E94F0D7FC
:1050700044E150E064EF71E08AE593E00E94F0D7EC
:105080000E94EC2681EC93E29B8F8A8F84E193ED62
:105090009D8F8C8F44E050E064E470E0CE014A962E
:1050A0000E94F0D780E091E00E944F268CE191E0D1
:1050B0000E944F2600E010E020E030E040E050E0A9
:1050C00060E070E088EC91E00E943E9420E030E0E7
:1050D00040E050E060E070E080ED91E00E943E949E
:1050E00080E491E00E945F268AE491E00E94CA2653
:1050F00088E591E00E94D22661E080E691E00E947E
:10510000FAD760E08DEF9FE00E94FAD760E08EEF63
:105110009FE00E94FAD760E08FEF9FE00E94FAD7ED
:1051200061E082E99FE00E94FAD760E081E99FE0B8
:105130000E94FAD780E00E94E82761E08CE490E0CA
:105140000E94FAD760E08FE89FE00E94FAD760E003
:105150008EE89FE00E94FAD788EC90E0A0E0B0E0F3
:1051600089839A83AB83BC8344E050E066E67FE0AA
:105170008E010F5F1F4FC8010E94F0D763E084E6E5
:105180009FE00E94FAD764E683E69FE00E94FAD788
:1051900084E1F80111928A95E9F744E150E069E46D
:1051A0007FE0C8010E94F0D760E080E99FE00E94A4
:1051B000FAD760E088E49FE00E94FAD76D960FB6B8
:1051C000F894DEBF0FBECDBFDF91CF911F910F913D
:1051D000089561E082E490E00E94269391E082309D
:1051E00009F490E0892F089561E08CE490E00E943A
:1051F000269391E0813009F090E0892F0895CF93B4
:10520000DF93CDB7DEB72C970FB6F894DEBF0FBE95
:10521000CDBF81E89CE0A0E0B0E089839A83AB83B6
:10522000BC831D821E821F82188619861A861B86E1
:105230001C864CE050E062E671E0CE0101960E94CF
:10524000F0D72C960FB6F894DEBF0FBECDBFDF911E
:10525000CF9108950F931F93CF93DF938C01EB01B0
:1052600060E070E080EA91E00E943693F80191835B
:10527000808360E082EA91E00E9426938883DF9138
:10528000CF911F910F910895CF93C62FBC0180EA53
:1052900091E00E9410D86C2F82EA91E0CF910C949B
:1052A000FAD7FF920F931F93CF93DF9300D0CDB720
:1052B000DEB78C01F62EBE016D5F7F4FCE010196E9
:1052C0000E942A292B812F0D822F6CE30E941ED56C
:1052D000692F9B832D3330F029813A81280F311DAE
:1052E0003A83298389819A81800F911F0E944429E2
:1052F0000F900F900F90DF91CF911F910F91FF9022
:1053000008950F931F9367E182E090E00E94FAD71F
:1053100080E00E94E8270E94FF2860E080E090E0A3
:105320000E94442961E088E092E00E94FAD700E000
:1053300010E020E030E040E050E060E070E088EB1A
:1053400091E00E943E9420E030E040E050E060E0D8
:1053500070E080EC91E00E943E941F910F910C94BC
:10536000F22767E080E491E00E942693873059F0AD
:1053700061E082E491E00E94269391E0873009F495
:1053800090E0892F089580E0089540E067E479E196
:105390008CEA98E00C94AACBCF92DF92EF92FF9226
:1053A0000F931F93CF93DF93EC017B0188818111D1
:1053B00002C080E032C060E0CE010E9417CB87FFC0
:1053C000F8CF0E949A3C811104C00E948073882308
:1053D00031F06AE8C7010E9460CB81E01EC0F894FA
:1053E000C8800E94C010D12C8C159D0530F462E855
:1053F000C7010E9460CB7894F0CF00E010E00C155C
:105400001D054CF4602FCE010E9417CB0E94551A47
:105410000F5F1F4FF4CF61E8EBCFDF91CF911F916A
:105420000F91FF90EF90DF90CF90089586E08093EA
:10543000C10881E08093B10808950F931F93CF9323
:10544000DF93CDB7DEB765970FB6F894DEBF0FBE1A
:10545000CDBF8C01F894BE016B5E7F4FCE010196EB
:105460000E949F6A61E8C8010E9460CB60E070E022
:10547000CE0101960E94A63BFC01408151816281D0
:105480007381C8010E9477CB61E070E0CE01019684
:105490000E94A63BFC014081518162817381C80159
:1054A0000E9477CB62E070E0CE0101960E94A63B9D
:1054B000FC014081518162817381C8010E9477CBD8
:1054C0000E94846F682FC8010E9460CB7894659613
:1054D0000FB6F894DEBF0FBECDBFDF91CF911F9105
:1054E0000F9108950F931F93CF93DF93CDB7DEB73E
:1054F00065970FB6F894DEBF0FBECDBF8C01F89450
:10550000BE016B5E7F4FCE0101960E949F6A61E8EB
:10551000C8010E9460CB60E070E0CE0101960E945D
:10552000A63BFC014081518162817381C8010E94C8
:1055300077CB61E070E0CE0101960E94A63BFC01B2
:105540004081518162817381C8010E9477CB62E002
:1055500070E0CE0101960E94A63BFC014081518182
:1055600062817381C8010E9477CB63E070E0CE0155
:1055700001960E94A63BFC014081518162817381AA
:10558000C8010E9477CB64E070E0CE0101960E94D2
:10559000A63BFC014081518162817381C8010E9458
:1055A00077CB0E94846F682F70E0C8010E9462CBA5
:1055B000789465960FB6F894DEBF0FBECDBFDF912D
:1055C000CF911F910F910895CF92DF92EF92FF92AA
:1055D0000F931F93CF93DF93CDB7DEB7A0970FB68E
:1055E000F894DEBF0FBECDBF7C018B0161E8C8011E
:1055F0000E9460CB61E0C7010E9417CB811105C0FA
:105600006E0180E2C80ED11C0CC00E94B63D8823FA
:10561000B9F3682FC8010E9460CB27C088A181110F
:105620000CC0960140E050E06FE1CE0101960E946F
:10563000C73D89818E3291F306C08A818E3289F707
:105640008B818111EECF60E0C8010E9460CBFE012A
:1056500031967F01F70161917F01662331F0C80126
:105660000E9460CBEC14FD04A9F760E0C8010E9421
:1056700060CBA0960FB6F894DEBF0FBECDBFDF9112
:10568000CF911F910F91FF90EF90DF90CF900895F1
:105690008F929F92AF92BF92CF92DF92EF92FF9242
:1056A0000F931F93CF93DF93CDB7DEB78C015B01D0
:1056B0008DB69EB661E00E941CCB6C0163E0C80110
:1056C0000E9417CB082F10E08DB79EB7801B910B5F
:1056D0000FB6F8949EBF0FBE8DBFEDB7FEB73196E3
:1056E0007F01A801B601CF010E94CCD761E8C501B6
:1056F0000E9460CB6701C6018E199F098017910730
:105700003CF4F60161916F01C5010E9460CBF3CFBB
:105710000FB6F8949EBE0FBE8DBEDF91CF911F9144
:105720000F91FF90EF90DF90CF90BF90AF909F9040
:105730008F9008952F923F924F925F926F927F9237
:105740008F929F92AF92BF92CF92DF92EF92FF9291
:105750000F931F93CF93DF931F92CDB7DEB76C01EA
:105760005B012DB63EB661E00E941CCB4C0163E0AC
:10577000C6010E9417CB8983082F10E08DB79EB712
:10578000801B910B0FB6F8949EBF0FBE8DBFEDB777
:10579000FEB731967F01A801B401CF010E94CCD79A
:1057A0003701412C512C4016510664F464E0640D1D
:1057B000C6010E9417CBF30181933F01FFEF4F1AFF
:1057C0005F0AF1CFDFB6F894A801B401C7010E94C7
:1057D000F0D7DFBE61E8C5010E9460CB6981C501D9
:1057E0000E9460CB0FB6F8943EBE0FBE2DBE0F9048
:1057F000DF91CF911F910F91FF90EF90DF90CF90AD
:10580000BF90AF909F908F907F906F905F904F90E0
:105810003F902F9008950F931F93CF93DF93809124
:10582000E108811111C001EE18E0C2E2D0E060E0B1
:10583000CE010E942693F80181938F012196C233F5
:10584000D105A9F71092F1088091E10881110DC0EE
:10585000E0EBF4E0A1EEB8E084918D93319684E022
:10586000EC3BF807C9F71092ED0881EE98E0DF9164
:10587000CF911F910F9108958091C1080895809153
:10588000C008089587E199E00E94DE336093BB0869
:105890007093BC088093BD089093BE0881E080930C
:1058A000BF0808951092B7081092B8081092B9086E
:1058B0001092BA080C94422C0F931F938091BF084A
:1058C000813089F487E199E00E94DE330091BB08C2
:1058D0001091BC082091BD083091BE08601B710B6F
:1058E000820B930B03C060E070E0CB011F910F911E
:1058F00008950F931F930E945C2C0091B70810919C
:10590000B8082091B9083091BA08060F171F281F50
:10591000391F0093B7081093B8082093B908309343
:10592000BA0882E08093BF081F910F9108950F93EA
:105930001F930E945C2C0091B7081091B808209129
:10594000B9083091BA08600F711F821F931F1F9111
:105950000F910895BF92CF92DF92EF92FF920F9333
:105960001F93CF93DF93EC018B018091BF088111CE
:105970000BC08091B5089091B60899838883809177
:10598000B408FB0180831BC00E94972C6B017C0133
:1059900020E13EE040E050E00E9452D5B22E288344
:1059A0003983C701B6012CE330E040E050E00E94AB
:1059B00052D5FCE3BF9E20191124F8012083DF910A
:1059C000CF911F910F91FF90EF90DF90CF90BF90FC
:1059D000089564EB78E085EB98E00E94AA2C109281
:1059E000BF086091B4088091B5089091B6080C94F6
:1059F00051290E94E92C60E088EF0E94376F81E016
:105A00000E94E43680E00E94C63682E08093C0089F
:105A10001092C1080895CF93DF930097C1F028E05A
:105A2000823C9207B1F0603208F06EE1EC0122ECAA
:105A300038E0D9014A2F421B461718F449914D937B
:105A4000F9CFE62FF0E0EE53F74F108202C082EC60
:105A500098E00E94943E8930A9F0811114C081E041
:105A60000E94E4360E9452120E9449700E94E7721E
:105A70001092F20882E08093C10880914B0B8068FD
:105A800080934B0B80E0DF91CF9108951092F20844
:105A90000E94B873882319F085E08093C108809133
:105AA0004B0B846080934B0B0E9452120E94E77252
:105AB0008FEF8093BE020895CF93C091C108C1308B
:105AC00069F484E08093C10840E452E46FE070E040
:105AD00089EF98E00E9423CFC093B1080E94E92C7F
