:100000000C94930F0C94CE0F0C94CE0F0C94CE0F37
:100010000C94CE0F0C94CE0F0C94CE0F0C94CE0FEC
:100020000C94CE0F0C94CE0F0C94CE0F0C94CE0FDC
:100030000C94CE0F0C94D3340C94CE0F0C94CE0FA2
:100040000C94CE0F0C94CE0F0C94CE0F0C94CE0FBC
:100050000C94CE0F0C94CE0F0C94CE0F0C94CE0FAC
:100060000C94CE0F0C9426D00C94CE0F0C9452D03E
:100070000C94CE0F0C94B6910C94CE0F0C94CE0F22
:100080000C94A9340C94CE0F0C94CE0F0C94CE0F7C
:100090000C9486D00C94CE0F0C94B2D00C94CE0F4E
:1000A0000C94CE0F0C94CE0F0C94CE0F0C94CE0F5C
:1000B0000C94CE0F0C94CE0F0C94CE0F0C94FB34FA
:1000C0000C94CE0F0C94CE0F0C94CE0F0C94CE0F3C
:1000D0000C94CE0F0C94CE0F0C94CE0F0C94CE0F2C
:1000E0000C94CE0FC82D082E0A2EF02D142ECD2ED6
:1000F000CD2EF02D3D2ECD2E4B2E502E642E692E62
:10010000CD2ECD2E1C2EF02D382ECD2ED62D182EE8
:100110006E2E812E882ECD2ECD2EAD2ED3769A76B4
:10012000A57697769476A776C676AA76ECB709B8C0
:1001300016B83FB85EB871B87FB8B4B80C94C7A110
:100140000C9448CC0C9456A60C9492A50C9463A0E5
:100150000C941BB30C9456BC0C94A5760C94E6AB93
:100160000C9447910C94AA760C94E0A10C94B8A03E
:100170000C94DBA10C94CDAF0C9480A10C94258C35
:100180000C9428770C9486BE0C9490A00C941EA915
:100190000C94D0B10C9462C10C9412CE0C949DA21C
:1001A0000C945AC80C943BAB0C94E5A10C9410B57C
:1001B0000C94C4A20C94CAB60C9423950C94B3A0CE
:1001C0000C9420B10C94A9A10C945AA20C94197708
:1001D0000C94D1A80C949DBE0C9453A70C9477A0BA
:1001E0000C94CD2E0C9455A00C94BBAC0C94BDA0DB
:1001F0000C947CA00C9410B70C94A5C60C94367784
:100200000C945DCE0C94E0910C9440910C941C2EB7
:100210000C94F4A50C94F0C40C94A7760C942AC604
:100220000C9444B60C94B3A20C9477950C94AD2E18
:100230000C94642E0C94882E0C94A9A00C94DFAA24
:100240000C9466C30C94C82D0C941B310C943D2E59
:100250000C945EB80C94A4770C943CAE0C94BAC881
:100260000C9497900C94F3C60C94C2A00C9441ADDE
:100270000C94082E0C9486CE0C949A760C940077ED
:100280000C9467C40C9490A50C94C6760C9499CFEA
:100290000C94E6D00C9443C40C9451A60C9479D6DB
:1002A0000C94182E0C948AA70C94F9C30C947FA676
:1002B0000C94382E0C940BB20C94CCA00C9424CF3C
:1002C0000C94F9760C9468940C94B4B80C9499A698
:1002D0000C94692E0C94B4AE0C94F3D00C94DEBA4A
:1002E0000C943F770C9447A50C947FB10C94D8A143
:1002F0000C9498B20C9459AF0C94502E0C9496A177
:100300000C948AB00C94FA240C943EB50C94F9A188
:100310000C94D62D0C942B8A0C946FCC0C94DFC0CB
:100320000C9468A60C94543A0C9479A30C9434ACB5
:100330000C9471B80C9497760C944A680C947FA135
:100340000C940A2E0C9416B80C94D1A00C9422A8EC
:100350000C94829C0C94B3990C94DEA20C94DF3D17
:100360000C9472A00C9482920C94F02D0C9477B0A3
:100370000C9493A10C94BAA10C9486A00C9463AA3B
:100380000C94A4A00C94AEA00C947FB80C94F69C92
:100390000C948BA00C94ECA80C943DCC0C94B1A1C3
:1003A0000C94142E0C9402C00C941FB40C942331A2
:1003B0000C941BCC0C9408BE0C944CC50C94A88EC9
:1003C0000C94C1B20C943EC20C9481A00C9483A5F1
:1003D0000C949FA00C94CDA90C943FB80C949D7BD9
:1003E0000C9428650C9495A00C94C7A00C9467AD50
:1003F0000C946DA00C94AFA40C94E6B00C9468A07F
:100400000C94CF370C94FCA20C9405B50C9414A555
:100410000C94D3760C944B2E0C949AA00C941C3113
:100420000C9487A80C9425B60C9487A20C944B7F4F
:100430000C94CC280C94ECB70C946E2E0C943CCD00
:100440000C9417730C947E3F0C9490A70C949476A4
:100450000C94812E0C94E68A0C940ACE0C9465C2FE
:100460000C94F7C40C94E1740C944CB40C94353097
:100470000C94F3B10C94D2730C94E3B90C9447C56B
:100480000C9405CC0C9409B80C9424770C94FB992B
:100490000C94B6A10C944AA60C945CA00C94E65261
:1004A0000C949AC70C94E4A10C94368F0C94BEA1C2
:1004B0005265706C6963617430722031001704C832
:1004C000000000DC0027056400000078007505C806
:1004D000000000DC002006640000007800E006C890
:1004E000000000DC002006C8000000DC002006C878
:1004F000000000DC002D08C80000000000C00DC88E
:100500000000001400C00DC800000014005A10C8FC
:100510000000001400C00D90010000000070039066
:1005200001000014005504C800000014002705C88D
:1005300000000014007003900100000000C805C80E
:100540000000001400C805C80000001400C805C859
:100550000000001400DD04B004000014007505C89C
:1005600000000014007505C800000014007505C8DF
:1005700000000014009704B00400000000C00DC883
:100580000000001400C00DC80000001400910E907F
:1005900001000014005A10900100001400C00D204A
:1005A00003000000007003BC000000BC00E006BCBB
:1005B000000000BC00B807BC000000BC002D08BC57
:1005C00000A908BC000000BC00C00D4D01000000E7
:1005D00000C00D20010000BC005311BC000000BC95
:1005E000005B12B101000000009302690000006985
:1005F00000EE016900000069002601B8010000005A
:100600000024F4D43050C38E20C2A24017828B70D5
:1006100011127A910D816CD90AA861E108C7586658
:1006200007615143061E4B5D05C145A7041A4111E0
:1006300004093D9803713931034036DB026533917B
:1006400002D4305402802E1D02632CEE01752AC59F
:1006500001B028A001102781018F2564012B244BB4
:1006600001E0223401AC211F018D200D01801FFC0F
:1006700000841EED00971DDF00B81CD200E61BC6EB
:1006800000201BBC00641AB200B219A8000A19A00D
:10069000006A189900D117910040178B00B5168495
:1006A0000031167E00B31579003A157300C7146F38
:1006B0000058146A00EE1366008813630025135E69
:1006C00000C7125B006C12570015125400C1115183
:1006D0000070114F0021114B00D61049008D1047BA
:1006E000004610440002104200C00F4000800F3E40
:1006F00000420F3C00060F3B00CB0E3800930E3734
:10070000005C0E3500270E3400F30D3200C10D31B0
:1007100000900D3000600D2E00320D2D00050D2CC7
:1007200000D90C2B00AE0C2900850C29005C0C278D
:1007300000350C27000E0C2600E80B2400C40B2407
:1007400000A00B23007D0B23005A0B2100390B2145
:1007500000180B2000F80A1F00D90A1E00BB0A1E51
:10076000009D0A1D00800A1D00630A1C00470A1B29
:10077000002C0A1B00110A1A00F7091A00DD0919DA
:1007800000C4091900AB091900920917007B091868
:1007900000630917004C09160036091600200916D7
:1007A000000A091500F5081500E0081400CC08142B
:1007B00000B8081400A4081400900813007D081263
:1007C000006B081300580812004608120034081184
:1007D00000230811001208110001081100F0071091
:1007E00000E0071000D0071000C0071000B0070F8E
:1007F00000A107100091070E0083070F0074070F78
:100800000065070E0057070E0049070E003B070D55
:10081000002E070E0020070D0013070D0006070D20
:1008200000F9060C00ED060D00E0060C00D4060CE5
:1008300000C8060C00BC060C00B0060C00A4060B99
:100840000099060C008D060B0082060B0077060B44
:10085000006C060B0061060A0057060B004C060AE6
:100860000042060A0038060A002E060A0024060A7C
:10087000001A060A001006090007060A00FD05090D
:1008800000F4050900EB050900E2050900D9050996
:1008900000D0050900C7050900BE050900B5050817
:1008A00000AD050800A50509009C05080094050891
:1008B000008C050800840508007C05080074050804
:1008C000006C050700650508005D05070056050872
:1008D000004E0507004705070040050800380507DA
:1008E00000310507002A050700230507001C05063F
:1008F00000160507000F050700080506000205079A
:1009000000FB040600F5040700EE040600E80406F8
:1009100000E2040700DB040600D5040600CF04064D
:1009200000C9040600C3040600BD040600B704069F
:1009300000B1040500AC040600A6040600A00405EE
:10094000009B04060095040500900406008A040537
:100950000085040500800406007A0405007504057E
:1009600000700405006B04050066040500610405C1
:10097000005C04050057040500520405004D040501
:100980000048040500430405003E0404003A040541
:100990000035040500300404002C0405002704047D
:1009A00000230405001E0404001A040400160405B4
:1009B00000110404000D04040009040500040404EB
:1009C0000000040400FC030400F8030400F4030422
:1009D00000F0030400EC030400E8030400E4030453
:1009E00000E0030400DC030400D8030400D4030483
:1009F00000D0030400CC030400C8030300C50303B4
:100A00000024F404D9201BC40C5C0E9804C4095FB4
:100A10000265077101F405F900FB04B3004804877F
:100A200000C10369005803550003034500BE023AA4
:100A3000008402310053022A00290225000402200A
:100A400000E4011C00C8011900AF0117009801144F
:100A50000084011300710110006101100051010EAA
:100A60000043010D0036010B002B010B0020010B90
:100A700000150109000C01090003010800FB000832
:100A800000F3000800EB000700E4000600DE0006AB
:100A900000D8000600D2000600CC000500C7000503
:100AA00000C2000500BD000400B9000400B5000448
:100AB00000B1000400AD000400A9000400A500037B
:100AC00000A20003009F0004009B000300980003A5
:100AD000009500020093000300900003008D0002C7
:100AE000008B0003008800020086000200840003DF
:100AF00000810002007F0002007D0002007B0002F6
:100B00000079000200770001007600020074000204
:100B10000072000100710002006F0002006D000110
:100B2000006C0002006A0001006900020067000119
:100B3000006600010065000100640002006200011F
:100B40000061000100600001005F0002005D000123
:100B5000005C0001005B0001005A00010059000127
:100B60000058000100570001005600010055000127
:100B70000054000100530000005300010052000126
:100B80000051000100500001004F0001004E000024
:100B9000004E0001004D0001004C0001004B000020
:100BA000004B0001004A000100490001004800001C
:100BB0000048000100470001004600000046000117
:100BC0000045000000450001004400010043000012
:100BD000004300010042000000420001004100000B
:100BE0000041000100400001003F0000003F000103
:100BF000003E0000003E0001003D0000003D0001FD
:100C0000003C0000003C0000003C0001003B0000F4
:100C1000003B0001003A0000003A000100390000EA
:100C200000390001003800000038000000380001E1
:100C300000370000003700010036000000360000D9
:100C400000360001003500000035000000350001CD
:100C500000340000003400000034000100330000C4
:100C600000330000003300010032000000320000B9
:100C700000320001003100000031000000310001AD
:100C8000003000000030000000300001002F0000A4
:100C9000002F0000002F0000002F0001002E000098
:100CA000002E0000002E0001002D0000002D00008D
:100CB000002D0000002D0001002C0000002C000081
:100CC000002C0000002C0001002B0000002B000075
:100CD000002B0000002B0001002A0000002A000069
:100CE000002A0000002A000100290000002900005D
:100CF0000029000000290000002900010028000050
:100D00000028000000280000002800000028000142
:100D10000027000000270000002700000027000037
:100D20000027000100260000002600000026000029
:100D3000002600000026000100250000002500001C
:100D4000002500000025000000250000002500010E
:100D50000024000000240000002400000024000003
:100D600000240001002300000023000000230000F5
:100D700000230000002300000023000000230001E6
:100D800000220000002200000022000000220000DB
:100D900000220000002200010021000000210000CC
:100DA00000210000002100000021000000210000BF
:100DB00000210001002000000020000000200000B1
:100DC00000200000002000000020000000200000A3
:100DD00000200001001F0000001F0000001F000095
:100DE000001F0000001F0000001F0000001F000186
:100DF000001E0000001E0000001E0000001E00007B
:100E0000008908990000000052657047204275690A
:100E10006C64009600FF84036901000014008304E1
:100E20008800000014008C0000000000000000306A
:100E3000F8FFFF00000000000000009B0000000021
:100E400000000000000000000000000000000000A2
:100E5000A51C0000180000A04095048304DC0500D8
:100E6000001400901F891B95000000004C4556455A
:100E70004C494E47202020202020202020202020C8
:100E8000009501000000202020202020202020208C
:100E9000202020202020202020200095010000007C
:100EA00050726573732063656E746572206B65792B
:100EB000202020200095030000007768656E2064E4
:100EC0006F6E6500891F891F62003B0200000000F1
:100ED0002110422063308440A550C660E77008812D
:100EE00029914AA16BB18CC1ADD1CEE1EFF13112A4
:100EF000100273325222B5529442F772D66239937D
:100F000018837BB35AA3BDD39CC3FFF3DEE36224F3
:100F1000433420040114E664C774A44485546AA5CC
:100F20004BB528850995EEE5CFF5ACC58DD5533683
:100F3000722611163006D776F6669556B4465BB71C
:100F40007AA719973887DFF7FEE79DD7BCC7C44853
:100F5000E5588668A7784008611802282338CCC96C
:100F6000EDD98EE9AFF9488969990AA92BB9F55AE3
:100F7000D44AB77A966A711A500A333A122AFDDBBC
:100F8000DCCBBFFB9EEB799B588B3BBB1AABA66CB3
:100F9000877CE44CC55C222C033C600C411CAEED0C
:100FA0008FFDECCDCDDD2AAD0BBD688D499D977EC3
:100FB000B66ED55EF44E133E322E511E700E9FFF5C
:100FC000BEEFDDDFFCCF1BBF3AAF599F788F889112
:100FD000A981CAB1EBA10CD12DC14EF16FE18010F6
:100FE000A100C230E3200450254046706760B983F9
:100FF0009893FBA3DAB33DC31CD37FE35EF3B10246
:101000009012F322D2323542145277625672EAB508
:10101000CBA5A89589856EF54FE52CD50DC5E23495
:10102000C324A01481046674476424540544DBA7D8
:10103000FAB79987B8975FE77EF71DC73CD7D326E5
:10104000F2369106B01657667676154634564CD968
:101050006DC90EF92FE9C899E9898AB9ABA9445835
:10106000654806782768C018E1088238A3287DCB38
:101070005CDB3FEB1EFBF98BD89BBBAB9ABB754A85
:10108000545A376A167AF10AD01AB32A923A2EFDC8
:101090000FED6CDD4DCDAABD8BADE89DC98D267CD5
:1010A000076C645C454CA23C832CE01CC10C1FEF18
:1010B0003EFF5DCF7CDF9BAFBABFD98FF89F176E25
:1010C000367E554E745E932EB23ED10EF01E7820C1
:1010D0006D6F726521002A20507265737320004580
:1010E000726173696E672E2E2E00656570726F6D6A
:1010F0005F64756D702E62696E2066696C656E6FD7
:101100007420666F756E6400526561642066616963
:101110006C65643B20454550524F4D206D617920F0
:10112000626520636F727275707400526573746FBC
:1011300072696E672E2E2E00656570726F6D5F642A
:10114000756D702E62696E2066696C65616C726582
:101150006164792065786973747300534420636116
:101160007264207772697465206661696C656400D9
:10117000536176696E672E2E2E0050726573732050
:10118000555020746F2070726F636565642E00790E
:101190006F757220626F7420696E6F706572616224
:1011A0006C652E0054686973206D656E75206361EF
:1011B0006E206D616B65005361696C6669736820B0
:1011C00076372E38207230316633630041546D65B6
:1011D000676120323536302031372F30372F3031AC
:1011E000002D2D2048656174657220537065636918
:1011F000616C202D2D005361696C6669736820460F
:10120000462043726561746F7220002020202020E8
:1012100020202020202020202020202020202000EE
:10122000202020200020004320202020002F2020EC
:10123000204300010049033600FF006B00D100A0ED
:1012400000B800D500A6000A0199003F018E007485
:10125000018400A9017C00DE01740013026C0048C7
:101260000265007D025D00B2025600E7024E001CDE
:1012700003460051033D0086033200BB032200F009
:10128000030300FF030000456C61707365643A203E
:10129000202020203030306830306D0020736563AE
:1012A000730054696D65204C6566743A20202030C7
:1012B00030306830306D0055415254310020205597
:1012C00053420053657269616C20492F4F0045728B
:1012D00061736520456570726F6D005344202D3E2B
:1012E00020456570726F6D00456570726F6D202DC1
:1012F0003E20534400456570726F6D005072696EF8
:10130000742054696D653A202020682030306D00CB
:101310004C617374205072696E743A2020202068EA
:101320002030306D004C69666574696D653A202027
:1013300020202020682030306D00526573756D6963
:101340006E6720706F736974696F6E2E2E2E004366
:101350006C656172696E67206275696C642E2E2EF1
:1013600020202000447261696E696E672070697088
:10137000656C696E652E2E2E004C656176696E6710
:101380002070617573652E2E2E2020202000436171
:101390006E63656C6C696E67207072696E742E2E58
:1013A0002E2000456E746572696E672070617573DA
:1013B000652E2E2E202020005061757365206174EB
:1013C000205A506F733A2000506C6174666F726DD2
:1013D0002054656D703A202020004C6566742054BE
:1013E000656D703A200052696768742054656D70AD
:1013F0003A2000546F6F6C68656164204F666673B5
:101400006574730020546F6F6C68656164204F666B
:10141000667365743A00204F66667365743A0055CA
:10142000702F446E2F4C6566742F4D20746F20739F
:1014300065740055702F446E2F522F4C2F4D207421
:101440006F207365740050726F66696C65204E6121
:101450006D653A005361766520546F2050726F6657
:10146000696C65004368616E6765204E616D65005B
:10147000446973706C617920436F6E6669670052CE
:101480006573746F72650052657365743A2070728B
:101490006573732043454E5445520046696C2E20B7
:1014A000547269703A0046696C616D656E743A00F9
:1014B000547269703A004C6966653A0046696C611D
:1014C0006D656E74204F646F6D657465720048655C
:1014D0006174657273204F66660043616E63656C6C
:1014E000205072696E74005072696E74205374617A
:1014F00074697374696373004261636B20746F2055
:101500004D6F6E69746F72006D006D6D00486F6D88
:1015100065204F6666736574730050726F66696C00
:1015200065730046696C616D656E743A005A506F60
:10153000736974696F6E3A202020005072696E746E
:101540002054696D653A20202020206820206D00FD
:1015500054656D7065726174757265207265616441
:10156000732020206F7574206F662072616E67652E
:101570002E20202020202020436865636B2077697F
:1015800072696E672E0054656D7065726174757254
:101590006520726561647320202061726520666138
:1015A000696C696E672E202020202020202043684F
:1015B00065636B20776972696E672E0054656D7084
:1015C000657261747572652064726F7070696E67A0
:1015D000436865636B20776972696E672E004E6F92
:1015E000742068656174696E672070726F706572CF
:1015F0006C79436865636B20776972696E672E004A
:1016000054656D70206C696D6974207265616368E2
:1016100065642E2053687574646F776E206F722036
:10162000726573746172742E00506C6174666F72AF
:101630006D204661696C7572652120202000546F11
:101640006F6C2031204661696C7572652120202005
:10165000202000546F6F6C2030204661696C7572D9
:101660006521202020202000457874727564657201
:10167000204661696C7572652120202000486561F3
:10168000746572732073687574646F776E20647507
:1016900065746F20696E6163746976697479004658
:1016A000696C616D656E74206C6F61642F756E6C12
:1016B0006F616463616E63656C6564206475652049
:1016C000746F20746865207072696F72206865613C
:1016D000746572206572726F72004D792074656D49
:1016E000706572617475726520776173202063681C
:1016F000616E6765642065787465726E616C6C7983
:101700002E20526573656C6563742066696C616D2B
:10171000656E742020206D656E7520746F20747264
:101720007920616761696E2E0077616974696E67FF
:10173000200020204E4120202020006572726F7210
:1017400021004F464620202000435553544F4D0062
:1017500057484954452000505552504C4500424C82
:101760005545202000475245454E200050494E4BDC
:101770002020004F52414E47450052454420202032
:10178000004C454420436F6C6F75720053657420A4
:101790004C6967687473204F4E2000536574204C69
:1017A0006967687473204F4646002843616E6E6F08
:1017B00074205072696E7420436F707929005072E2
:1017C000696E7420416E6F7468657220436F707922
:1017D000004D61696E204D656E7500536574204340
:1017E0006F6F6C696E672046616E204F46460053EE
:1017F000657420436F6F6C696E672046616E204F81
:101800004E20004368616E67652048425020546551
:101810006D70004368616E67652054656D70657218
:101820006174757265004368616E67652053706509
:101830006564005061757365206174205A506F7340
:1018400000446974746F205072696E74696E670029
:101850004E2F4100502D53746F702074726967676A
:101860006572656400502D53746F7020496E766503
:101870007274656400502D53746F7020436F6E74E2
:10188000726F6C00436865636B205344205265613E
:10189000647300457874727564657220486F6C6477
:1018A00000506175736520776974682048656174BC
:1018B000004F7665727269646520476354656D7088
:1018C0000048425020696E7374616C6C656400411D
:1018D0006363656C65726174696F6E0045786974E5
:1018E000204D656E7500536F756E64004578747297
:1018F0007564657220436F756E7400426F74205377
:101900007461746973746963730043616C696272B2
:10191000617465204E6F7A7A6C65730052657374DA
:101920006F72652053657474696E67730047656EE6
:101930006572616C2053657474696E6773005072D0
:1019400065686561742053657474696E6773004CD3
:101950006576656C00456E61626C652053746570D8
:101960007065727320200044697361626C65205356
:10197000746570706572730056657273696F6E205E
:10198000496E666F726D6174696F6E0046696C6155
:101990006D656E74204C6F6164696E6700486F6D91
:1019A000652041786573004A6F67204D6F6465005C
:1019B0004D6F6E69746F72204D6F64650055746968
:1019C0006C69746965730050726568656174005074
:1019D00072696E7400492074696D6564206F757456
:1019E000207768696C65202020617474656D70745F
:1019F000696E6720746F206865617420206D79209E
:101A0000706C6174666F726D2E00492074696D652B
:101A100064206F7574207768696C6520202061747C
:101A200074656D7074696E6720746F206865617489
:101A300020206D792065787472756465722E00556A
:101A40006E61626C6520746F20726561642053441E
:101A50002020206361726420706172746974696F00
:101A60006E73206F76657232474220696E2073690B
:101A70007A652E2020466F726D6174617320464135
:101A8000542D3136206F72202D33322E00556E6169
:101A9000626C6520746F207265616420746869737C
:101AA000205344206361726420666F726D61742EEE
:101AB0002020202020466F726D61742061732046C3
:101AC00041542D3136206F72204641542D33322E31
:101AD0000053442063617264207265616420657202
:101AE000726F722E20546F6F206D616E7920435299
:101AF00043206572726F72732E426164206361725B
:101B00006420636F6E7461637473206F72656C65BB
:101B10006374726963616C206E6F6973652E005324
:101B20004420636172642072656164206572726F23
:101B3000720053442063617264206E6F742070726F
:101B40006573656E74005344206361726420697329
:101B500020656D7074790043616E6E6F74206F70D4
:101B6000656E207468652066696C65005344206367
:101B70006172642072656164732061726520202047
:101B80006E6F7420676F696E672077656C6C2E20AE
:101B9000205472796120646966666572656E74208E
:101BA000636172640049276D20616C7265616479BC
:101BB000206275696C64696E6700436F6C642050C5
:101BC0006175736500556E70617573650050617560
:101BD000736520200043616E63656C206C6F6164E7
:101BE0002F756E6C6F61643F0043616E63656C209E
:101BF00074686973207072696E743F0073657474E1
:101C0000696E67733F00526573746F726520666119
:101C100063746F727900506C6174666F726D20200E
:101C2000202020202020202020004C6566742045A4
:101C3000787472756465722020202020200052691B
:101C4000676874204578747275646572202020205E
:101C50002000457874727564657220202020202051
:101C60002020202020005072657373206C656674FC
:101C700020746F2063616E63656C004578747275C3
:101C80006465723A2020202D2D2D2F2D2D2D4300FF
:101C9000506C6174666F726D3A2020202D2D2D2FAF
:101CA0002D2D2D43004C2045787472756465723A71
:101CB000202D2D2D2F2D2D2D43005220457874726F
:101CC000756465723A202D2D2D2F2D2D2D4300206A
:101CD0002D2D250048656174696E673A202020200B
:101CE00020202020202020200048656174696E6734
:101CF0003A00203C2D592020284D656E7529202062
:101D000020202020202000203C2D582020284D6518
:101D10006E752920205A2D3E2020200020202020D2
:101D200020202020582D202020202020202020206E
:101D300000202020202020284D656E752920205964
:101D40002D3E202020002020202020202020582B45
:101D500020202020202020202020002020202020A3
:101D60004A6F67206D6F64652020202020202000AE
:101D7000556E6C6F6164206C65667400556E6C6F97
:101D8000616420726967687400556E6C6F616400ED
:101D90004C6F6164004C6F6164004C6F6164207231
:101DA000696768740035206D696E757465207469A3
:101DB0006D656F757420686173656C6170736564BF
:101DC0002E20205072657373207468652063656EE1
:101DD00074657220627574746F6E20746F20202099
:101DE0002066696E6973682E00426567696E206CB3
:101DF0006F6164696E67206F7220202020756E6CA1
:101E00006F6164696E672E20507265737320746809
:101E10006563656E74657220627574746F6E207789
:101E200068656E202066696E69736865642E00457A
:101E3000787472756465727320617265206E6F7458
:101E400020202068656174696E672E2020436865D4
:101E5000636B2074686520776972696E672E00591C
:101E60002041786973204C696E650058204178697B
:101E700073204C696E6500594553004E4F20004455
:101E80006F6E650053656C656374206265737420C2
:101E90006C696E65733A004578747275646572009A
:101EA000506C6174666F726D005475726E20486577
:101EB0006174657273204F464600537461727420DA
:101EC00050726568656174696E6700467265652069
:101ED0005352414D20004F4646004F4E2000FA24F9
:101EE000CC2835301C31CF37543ADF3D7E3FE652A7
:101EF00028654A681773D273E174F976A4772B8A40
:101F0000E68A40914791E091829268947795B399DF
:101F1000FB99829C55A05CA0BAC805CC3CCD24CFCF
:101F200099CFE6D0F3D0E8E6FBE185EC91E201C081
:101F30008193EF3FF907E0F3D9F311241FBECFEFF0
:101F4000D1E2DEBFCDBF00E00CBF16E0A0E0B2E002
:101F5000EEE8F0EB01E00BBF02C007900D92AA3152
:101F6000B107D9F72BE1AAE1B6E001C01D92A8366E
:101F7000B207E1F71FE0C3E9DFE000E006C0219708
:101F80000109802FFE010E94C5D5CF36D10780E020
:101F90000807A9F70E9492300C9445D80C940000D1
:101FA0006BBFFA01DC0102C007900D922150304056
:101FB000D8F708958091A40881110AC08091A308E0
:101FC0008F5F8093A308853018F081E08093A40888
:101FD000089581E00E94E93580E00C94CB35F894B7
:101FE000E9E9F6E02281338180819181821B930BA4
:101FF00078940895EF92FF920F931F93CF937C01F3
:102000008B01C42F83E499E00E94FABEB70183E4F8
:1020100099E00E94D3BEB80183E499E00E94D3BE48
:10202000E091D509EE0FFF0BE953F64F80819181C6
:102030008354994039F063E479E08BEB99E00E9496
:102040004F9A04C083E499E00E9439BFC093A2096B
:10205000CF911F910F91FF90EF9008951092A209D8
:10206000E091D509EE0FFF0BE953F64F8081918186
:102070008354994021F48BEB99E00E940B9BE091F3
:10208000D509EE0FFF0BE953F64F80819181DC01FA
:10209000ED91FC910480F581E02D1994809101026D
:1020A0000895109251060895882311F080E401C02C
:1020B00080E880939706609394061092A50808958F
:1020C00081E080939306089580919706181634F462
:1020D00080919406811104C081E0089580E0089504
:1020E00082E0089580919706089581E09091970687
:1020F000923008F480E00895CF93DF93CDB7DEB738
:1021000064970FB6F894DEBF0FBECDBF60937B0619
:1021100070937C0680937D0690937E06CE01019697
:102120000E94F06962E070E0CE0101960E94A43A3C
:10213000FC01408151816281738180917B06909185
:102140007C06A0917D06B0917E06481759076A0764
:102150007B071CF010927A0603C081E080937A0618
:1021600064960FB6F894DEBF0FBECDBFDF91CF915E
:10217000089560917B0670917C0680917D06909118
:102180007E06089520919B0630919C0681E0232BCA
:1021900009F080E00895CF9360E070E0CB010E94E9
:1021A0007C1010927A06109240061092410610920E
:1021B00042061092430610924406C1E0C09300020A
:1021C0001092A60810929706109296061092950605
:1021D0001092940610926A0610926B0610926C068A
:1021E00010926D0610926E0610926F061092700695
:1021F0001092710610925A0610925B0610925C06BD
:1022000010925D0610925E0610925F0610926006B4
:1022100010926106109252061092530610925406C4
:102220001092550610927206109273061092740660
:102230001092750610927606109277061092780624
:10224000109279061092620610926306109264064C
:102250001092650610926606109267061092680644
:102260001092690610925606109257061092580660
:102270001092590661E082E490E00E941C93823043
:1022800039F460E08FEF9FE00E941C93811134C00D
:102290001092350610923B0610923C0610923D06B5
:1022A00010923E0610923A061092360610923706A9
:1022B00010923806109239061092A5081092A308C1
:1022C0001092A4081092500610924F0610924C06DD
:1022D00010924B0610924E0610924D0610924A062E
:1022E0001092490610924606109245061092480632
:1022F00010924706CF910895C0933506CBCF0E9428
:10230000CB1085E680930102E9E9F6E013821282A0
:10231000158214821086118610923406089581E089
:1023200090913406963009F080E008958F929F9244
:10233000AF92BF92CF92DF92EF92FF920F931F93D3
:10234000CF93DF93CDB7DEB7AA970FB6F894DEBF71
:102350000FBECDBF882321F091E09093510605C0B8
:1023600090915106992309F4EAC0F82ECE014596C2
:102370000E94F06981E089A78AA76E0189E2C80EF0
:10238000D11C03E010E08CE39AE0FC01E759FF4F19
:102390002081FC01222319F026A137A104C0EC5AA8
:1023A000FF4F20813181232B91F148960E94949711
:1023B000882369F1F60180818F1124C0812C912C32
:1023C00054018394402F60E070E080E090E40E942C
:1023D000F667A50194010E9440D54B015C01B8014C
:1023E000CE0145960E94AB3AFC0140815181628149
:1023F0007381840E951EA61EB71E80829182A282D2
:10240000B38205C088248A94982C5401DBCF043011
:10241000110541F0EFEFCE1ADE0A8BEB9AE004E0F3
:1024200010E0B3CF60ED77E08CEE91E00E942C934A
:10243000BC0180E090E00E947ED320913215309163
:10244000331540913415509135150E9486D49B0167
:10245000AC0160E074E284E799E40E949AD20E94A1
:1024600048D34B015C0180913506882329F1809186
:10247000980681110AC064E070E0CE0145960E9482
:10248000AB3A8C0163E070E009C063E070E0CE011C
:1024900045960E94AB3A8C0164E070E0CE0145960F
:1024A0000E94AB3AFC0180819181A281B381F80145
:1024B00080839183A283B383E12C00E010E0980134
:1024C000B501A401CE0145960E94176BF11037C0EB
:1024D000CE0101960E94F06963E070E0CE010196A2
:1024E0000E94AB3A8C0163E070E08FE796E00E94B7
:1024F000AB3AFC0180819181A281B381F801808394
:102500009183A283B38364E070E0CE0101960E94C0
:10251000AB3A8C0164E070E08FE796E00E94AB3A42
:10252000FC0180819181A281B381F8018083918334
:10253000A283B38360E0CE0101960E946769AA96E8
:102540000FB6F894DEBF0FBECDBFDF91CF911F91C4
:102550000F91FF90EF90DF90CF90BF90AF909F9042
:102560008F9008952F923F924F925F926F927F9239
:102570008F929F92AF92BF92CF92DF92EF92FF9293
:102580000F931F93CF93DF93CDB7DEB7C856D10912
:102590000FB6F894DEBF0FBECDBF182FCE01CD967B
:1025A0000E946F3ACE0189960E946F3A112309F476
:1025B000F6C080E090E0FC01E755FB4E2385222326
:1025C00009F474C22285222309F470C28D968738DB
:1025D000910589F784E1EFE7F6E0DE015596019079
:1025E0000D928A95E1F7CE0101960E94F06960E0B4
:1025F00070E0CE0145960E94AB3A8C014091B9142F
:102600005091BA146091BB147091BC148EE090E0AC
:102610000E9442936B017C0180E00E94D16720E020
:1026200030E040EA50E40E9486D40E9448D3C61AA3
:10263000D70AE80AF90AF801C082D182E282F3825D
:1026400061E070E0CE0145960E94AB3A8C0140916A
:10265000E6145091E7146091E8147091E91482E156
:1026600090E00E9442936B017C0181E00E94D1675F
:1026700020E030E040EA50E40E9486D40E9448D333
:10268000C61AD70AE80AF90AF801C082D182E282A2
:10269000F38262E070E0CE0145960E94AB3A409131
:1026A0001315509114156091151570911615FC01B4
:1026B000408351836283738362E070E0CE010196B0
:1026C0000E94AB3AFC01C080D180E280F38062E0DE
:1026D00070E0CE0145960E94AB3AFC018081918169
:1026E000A281B3818C159D05AE05BF05BCF462E0E7
:1026F00070E0CE0145960E94AB3A8C0162E070E03A
:10270000CE0101960E94AB3AFC0180819181A281A9
:10271000B381F80180839183A283B38363E070E087
:10272000CE0145960E94AB3A8C0163E070E0CE0189
:1027300001960E94AB3AFC0180819181A281B38114
:10274000F80180839183A283B38364E070E0CE01BB
:1027500045960E94AB3A8C0164E070E0CE01019690
:102760000E94AB3AFC0180819181A281B381F80182
:1027700080839183A283B383BE016B5E7F4FCE01C2
:102780008F5A9F4F0E942A6984E1FE01EF5AFF4F42
:10279000DE01999601900D928A95E1F757C084E188
:1027A000EFE7F6E0DE01999601900D928A95E1F748
:1027B000CE0145960E94F06964E070E0CE018996F2
:1027C0000E94AB3AFC01108101813280238063E0DA
:1027D00070E0CE0189960E94AB3AFC018080918026
:1027E000A280B38062E070E0CE0145960E94AB3AD1
:1027F000FC01C080D180E280F38061E070E0CE0116
:1028000045960E94AB3AFC01408051806280738003
:1028100060E070E0CE0145960E94AB3AFC01408139
:102820005181628173812F923F920F931F93930185
:102830008201CE0101960E94703A60E0CE010196BD
:102840000E9467690F900F900F900F90609109158B
:1028500070910A1580910B1590910C150E9480D3F0
:1028600020E030E040E857E30E9486D4209105152F
:102870003091061540910715509108150E9486D495
:102880000E9448D3A9966CAF7DAF8EAF9FAFA9973A
:10289000CE018F5A9F4F0E94F06984E1FE01EF5AEA
:1028A000FF4FDE01DD9601900D928A95E1F760E021
:1028B00070E0CE01CD960E94AB3AFC01C080D18081
:1028C000E280F38060E070E0CE0189960E94AB3A2E
:1028D000FC0180819181A281B381A7019601281B0F
:1028E000390B4A0B5B0BCA01B9010E9480D32091BE
:1028F000AB143091AC144091AD145091AE140E94C1
:102900009AD22B013C0161E070E0CE01CD960E948D
:10291000AB3AFC01C080D180E280F38061E070E0DE
:10292000CE0189960E94AB3AFC0180819181A281FF
:10293000B381A7019601281B390B4A0B5B0BCA0117
:10294000B9010E9480D32091D8143091D9144091BC
:10295000DA145091DB140E949AD24B015C0162E0C0
:1029600070E0CE01CD960E94AB3AFC01C080D180D0
:10297000E280F38062E070E0CE0189960E94AB3A7B
:10298000FC0180819181A281B381A7019601281B5E
:10299000390B4A0B5B0BCA01B9010E9480D320910D
:1029A00005153091061540910715509108150E94A4
:1029B0009AD26B017C01A3019201C301B2010E9472
:1029C00086D42B013C01A5019401C501B4010E94EC
:1029D00086D49B01AC01C301B2010E9412D24B010B
:1029E0005C01A7019601C701B6010E9486D49B0134
:1029F000AC01C501B4010E9412D20E94F9D42B018E
:102A00003C0180913506882329F180919806811137
:102A10000AC064E070E0CE0189960E94AB3A8C0156
:102A200063E070E009C063E070E0CE0189960E9427
:102A3000AB3A8C0164E070E0CE0189960E94AB3A1B
:102A4000FC0180819181A281B381F801808391830F
:102A5000A283B383B090D5151092D5156091091556
:102A600070910A1580910B1590910C150E9480D3DE
:102A700020E030E040E857E30E9486D420E030E0D8
:102A800040E852E40E9486D40E9448D36B0183013F
:102A9000720120E0A9964CAD5DAD6EAD7FADA997FA
:102AA000CE0189960E94646CB092D515C859DF4F4B
:102AB0000FB6F894DEBF0FBECDBFDF91CF911F914F
:102AC0000F91FF90EF90DF90CF90BF90AF909F90CD
:102AD0008F907F906F905F904F903F902F900895D0
:102AE000EF92FF920F931F93CF93DF9328E0829F83
:102AF000C0011124FC01E659F94FF08001811281D7
:102B0000D381C481B581E680E7812F2D302F412FFD
:102B10005D2F6C2F7B2F8E2D9E2FA0E00E9487D7DC
:102B200054F40E94FBD6F22E032F142FD52FC62F5C
:102B3000B72FE82EE92F2F2D302F412F5D2F6C2F2F
:102B40007B2F8E2D9E2FDF91CF911F910F91FF90A4
:102B5000EF9008956F927F928F929F92AF92BF9263
:102B6000CF92DF92EF92FF920F931F93CF93DF9359
:102B7000C82F0E94701559016A017B013C01A0E039
:102B80000E9487D709F00CF449C088E0C89FE00193
:102B900011244E0188E4881A8EEF980A00E010E0B4
:102BA00020E030E040E050E060E070E0C4010E94CE
:102BB000F09383010E9460D789019A01AB01BC01A7
:102BC000C4010E944294DE01A65AB94FFE01E659A3
:102BD000F94F80818C93818111968C93119782811A
:102BE00012968C931297838113968C9313978481FA
:102BF00014968C931497858115968C9315978681DE
:102C000016968C931697878117968C931082118253
:102C1000128213821482158216821782DF91CF915D
:102C20001F910F91FF90EF90DF90CF90BF90AF90EA
:102C30009F908F907F906F90089580E00E94AA15DA
:102C400081E00C94AA15EF92FF920F931F93CF93FC
:102C5000DF9328E0829FC0011124FC01E65AF94F5E
:102C6000F08001811281D381C481B581E680E78142
:102C70002F2D302F412F5D2F6C2F7B2F8E2D9E2FD0
:102C8000A0E00E9487D754F40E94FBD6F22E032FB7
:102C9000142FD52FC62FB72FE82EE92F2F2D302F29
:102CA000412F5D2F6C2F7B2F8E2D9E2FDF91CF918B
:102CB0001F910F91FF90EF900895CF92DF92EF92C6
:102CC000FF9280E00E942316E42F43E0B9018E2F8B
:102CD000952F0E94DD676B017C0181E00E94231625
:102CE000642F44E0732F862F952F622F0E94DD679B
:102CF0009B01AC01C701B6010E9412D26B017C019D
:102D000080E00E947015642F43E0732F862F952F6B
:102D1000622F0E94DD679B01AC01C701B6010E94D2
:102D200012D26B017C0181E00E947015642F44E097
:102D3000732F862F952F622F0E94DD679B01AC01B8
:102D4000C701B6010E9412D2FF90EF90DF90CF90A2
:102D500008950F931F93CF93DF93D82F00E416E0CD
:102D6000C0E0F801808181110FC08C2F0E94556F47
:102D7000F8018083DD2321F08C2F0E945B6F04C05B
:102D800064E18C2F0E94506FCF5F0F5F1F4FC530E3
:102D900041F7DF91CF911F910F9108950F931F93EA
:102DA000CF9300E416E0C0E0F80160818C2F0E9410
:102DB000506FF80111928F01CF5FC530A9F7CF9105
:102DC0001F910F9108950F931F93CF93DF93CDB76A
:102DD000DEB769970FB6F894DEBF0FBECDBF809106
:102DE0009706853409F400C190F5813409F456C082
:102DF000B8F4803209F4C5C1803409F43FC0823090
:102E000009F0F4C10E942E1060919506709196060B
:102E100021E040E087E199E00E94983481E051C0D0
:102E2000833409F445C008F04FC0CE0106960E94D5
:102E3000F06984E1FE013696AFE7B6E001900D92AD
:102E40008A95E1F781E00E94961183E43AC08438C4
:102E500009F460C150F4813809F43EC1833809F4A3
:102E60004AC1803809F0C2C1EAC0863809F46BC192
:102E700008F45FC1873809F46BC1B8C10E94432BC5
:102E8000853029F00E94432B843009F091C181E400
:102E90008093970681E00E94A916A8C18091380C02
:102EA0009091370C891B8F7009F0A0C182E409C092
:102EB0008091380C9091370C891B8F7009F096C166
:102EC00084E48093970692C181E00E94B21285E467
:102ED000809397060E94432B853039F00E94432B44
:102EE00011E0843019F010E001C011E045E069E420
:102EF00079E1CE0101960E94AACBCE0101960E94F3
:102F0000F8CB80933F0680E00E94CB358091A50AE4
:102F1000882329F08091620A9091630A04C080910D
:102F2000900A9091910A909346068093450680916D
:102F3000240B882329F08091E10A9091E20A04C0D1
:102F400080910F0B9091100B909348068093470649
:102F50008091380A882329F08091F5099091F6092B
:102F600004C08091230A9091240A90934A0680938A
:102F7000490680919406811123C160E08EEF9FE0A5
:102F80000E941C93882309F41BC180919406882316
:102F900051F021E040E060E080E00E949B7560E03D
:102FA00088EF0E94206F60919506709196066115DA
:102FB000710569F08091A608811105C0111103C047
:102FC00083EA93E102C08EE893E141E00AC0111167
:102FD00003C083EA93E102C08EE893E141E06FE42D
:102FE00073E10E94FA0F02C18091380C9091370C66
:102FF000891B8F7009F0FAC00E94CE168091A60836
:10300000882311F080E209C0809195069091960680
:10301000892B11F481E001C082E0809397060E9421
:103020002E100E94432B853009F4E0C00E94432BF0
:10303000843009F4DBC087E00E94FA39D7C080E011
:103040000E94A91600914F06109150060115110516
:1030500021F40091490610914A061016110654F405
:1030600060E087EE99E00E94F797B80187EE99E05B
:103070000E94C49600914B0610914C060115110553
:1030800021F400914506109146061016110654F4DD
:1030900060E084E59AE00E94F797B80184E59AE041
:1030A0000E94C49600914D0610914E06011511051F
:1030B00021F400914706109148061016110654F4A9
:1030C00060E083ED9AE00E94F797B80183ED9AE003
:1030D0000E94C49681E8F5CE8091490690914A06F7
:1030E000181619060CF06FC087EE99E00E949497AD
:1030F000811169C07BC080914506909146061816E3
:1031000019060CF062C084E59AE00E949497811140
:103110005CC06CC081E00E94A91680E00E94B212DF
:1031200085E88093970641E06AE373E189E793E1DC
:1031300058CF8091380C9091370C891B8F7009F013
:1031400055C086E8BECE80E00E94961187E8B9CED1
:103150008091380C9091370C891B8F7009F046C014
:1031600080913F060E94CB350E94CE160E942E1001
:103170001092970610929606109295061092A50846
:1031800035C00E942E10609195067091960621E040
:1031900040E087E199E00E9498340E94F93B109248
:1031A0009606109295061092A608109297061EC0D9
:1031B00041E064E673E183EA93E10E94FA0F67CE8F
:1031C0000E94E90FE2CE83E87CCE80914706909181
:1031D00048061816190634F483ED9AE00E94949775
:1031E000882321F00E94CE1684E86BCE69960FB634
:1031F000F894DEBF0FBECDBFDF91CF911F910F912D
:1032000008958F929F92AF92BF92CF92DF92EF92EA
:10321000FF92CF93C0910102C53609F453C0CC236D
:1032200009F450C0F0903A06CF1509F44BC0FF20C6
:1032300009F448C0609136067091370680913806CF
:10324000909139066115710581059105D9F10E94AA
:103250007ED34B015C018C2F90E08F199109BC014A
:10326000990F880B990B0E9480D39B01AC01C5017B
:10327000B4010E949AD26B017C016C2F70E080E057
:1032800090E00E947ED39B01AC0160E070E088EC8E
:1032900092E40E9411D29B01AC01C701B6010E94C9
:1032A00086D46B017C0120E030E0A9010E9495D218
:1032B00087FF03C0C12CD12C7601C701B6010E9443
:1032C00048D303C060E070E0CB01CF91FF90EF9056
:1032D000DF90CF90BF90AF909F908F900895FC01AA
:1032E00084819581860F971F608171810E945CD5D2
:1032F00026813781820F931F08951F93CF93DF9309
:10330000EC012A813B81888199812817390770F463
:10331000162F6A817B81CE010E946F19FC011083F8
:103320008A819B8101969B838A8302C081E0888782
:10333000DF91CF911F910895682F89E996E00C9451
:103340007D19CF93DF93EC018A819B81892B21F436
:1033500081E0898780E017C060E070E0CE010E94C4
:103360006F19FC012C813D81C90101966881798129
:103370000E945CD59D838C832A813B812150310939
:103380003B832A838081DF91CF91089589E996E07C
:103390000C94A119CF9389E996E00E94A119C82F36
:1033A00089E996E00E94A119982F8C2FCF9108955A
:1033B0001F93CF93DF931F921F92CDB7DEB789E99A
:1033C00096E00E94A119682F89E996E06A830E941D
:1033D000A119782F89E996E079830E94A119182F05
:1033E00089E996E00E94A119982F6A817981812F3D
:1033F0000F900F90DF91CF911F910895CF92DF92A0
:10340000EF92FF921F93CF93DF93C82F61E070E09C
:1034100089E996E00E946F19FC011081CF3F09F005
:103420001C2F62E070E089E996E00E946F19FC01B0
:1034300080818D3009F476C048F48C3008F05FC08C
:10344000843008F0C5C0833071F00BC0873109F4B7
:103450004CC020F4803108F4BBC003C08F3109F4A4
:103460006DC010E0C9C064E070E089E996E00E9498
:103470006F19FC01C081EC2EF12C65E070E089E948
:1034800096E00E946F19FC019081C92FD0E0DC2FDB
:10349000CC27CE0DDF1D209719F40E941D1614C0F5
:1034A000E12EF12C6701CC0CDD1CF601E55BF94F38
:1034B00080819181892B09F08DC060E08DEF9FE0C4
:1034C0000E941C93811186C0113019F08CE39AE0A0
:1034D00002C08BEB9AE0BE0148960E94C496809190
:1034E0004B0B8E7F80934B0B73C00E94641091E056
:1034F000811190E060E0892F0E94A22C69C064E0F5
:1035000070E089E996E00E946F19FC0160816170AA
:10351000113019F08CE39AE002C08BEB9AE00E9424
:10352000079556C064E070E089E996E00E946F1943
:10353000FC01808181700E94CB354AC00E94FB272C
:10354000182F882309F444C064E070E089E996E00C
:103550000E946F19FC01C081EC2EF12C65E070E037
:1035600089E996E00E946F19FC019081C92FD0E093
:10357000DC2FCC27CE0DDF1D2097D1F080914F0698
:1035800090915006892B39F460E08DEF9FE00E9406
:103590001C93882369F080914F0690915006009704
:1035A00031F464E670E08CE591E00E942C93EC012C
:1035B000BE0187EE99E00E94C49661E087E199E040
:1035C0000E94C63580914B0B8E7F80934B0B14C0AD
:1035D00011E012C0F601E55BF94F808191810097FF
:1035E00049F4C701880F991F66EE70E0885A9E4F14
:1035F0000E942C93EC0168CF812FDF91CF911F9116
:10360000FF90EF90DF90CF9008952F923F924F92CE
:103610005F926F927F928F929F92AF92BF92CF9262
:10362000DF92EF92FF920F931F93CF93DF93CDB76B
:10363000DEB7C755D1090FB6F894DEBF0FBECDBFB8
:103640000E94983B8823B9F080919B0690919C063C
:103650002091990630919A062817390751F10E9456
:10366000E73B882331F10E94EA3B682F89E996E025
:103670000E947D19E9CF0E947873882309F446C01F
:1036800080919B0690919C062091990630919A0614
:103690002817390709F460C50E948673882309F446
:1036A0005BC50E949473682F89E996E00E947D199A
:1036B000E7CF0E94E73B811129C080910202882355
:1036C00009F440C59091970691113CC591E0909303
:1036D000A608813009F02EC582E39BE190939606FF
:1036E000809395060E94E90F60E08FEF0E94206FA3
:1036F00010929C0610929B0610929E0610929D06B8
:103700001092A1061092A2060E94862C80917B0640
:1037100090917C06A0917D06B0917E06892B8A2B24
:103720008B2B19F180917A0681111FC0CE01019671
:103730000E94F06962E070E0CE0101960E94A43A16
:10374000DC014D915D916D917C9180917B06909112
:103750007C06A0917D06B0917E06481759076A073E
:103760007B071CF481E080937A0680917B06909120
:103770007C06A0917D06B0917E06892B8A2B8B2B2F
:1037800079F180917A06882359F10E9464108111A1
:1037900027C0CE0101960E94F06962E070E0CE0180
:1037A00001960E94A43AFC0140815181628173819B
:1037B00080917B0690917C06A0917D06B0917E065B
:1037C000481759076A077B075CF060E070E0CB019F
:1037D0000E947C1060E081E00E94A22C0C94E02406
:1037E00010919706123020F00E94E3160C94E0240A
:1037F0001130F9F48091940681110C94E0248091A9
:10380000930681110C94E02483EA99E00E9462CF30
:10381000882311F40C94E024109394060E94E90F7D
:1038200021E040E060E080E00E949B7560E088EF6E
:10383000B4C480913406833071F40E945D6888239B
:1038400041F088E296E00E9462CF882321F00E9436
:10385000DF72109234068091A5088823E1F08091F0
:10386000A4088823C1F0809134068330A1F08091B0
:103870009706811110C00E94641081110AC084E56E
:1038800098E1909396068093950661E081E00E940E
:10389000A22C1092A50880913406813031F40E9448
:1038A0005D68811102C01092340680913406823026
:1038B00039F48EE296E00E9462CF811110923406B4
:1038C00080913406843009F052C082E296E00E9472
:1038D00062CF882349F020E040E06AE07AE187E1A6
:1038E00099E00E94983420C080919806813019F0A8
:1038F0008CE39AE002C08BEB9AE048960E94C09756
:10390000811115C080913506882371F08091980649
:10391000882319F08CE39AE002C08BEB9AE048967A
:103920000E94C097811123C01092340620C080915C
:103930009806813019F08CE39AE002C08BEB9AE094
:1039400048960E949497882391F0809135068823A9
:1039500059F380919806882319F08CE39AE002C00D
:103960008BEB9AE048960E9494978111DDCF80916D
:1039700034068530E1F482E296E00E9462CF88232B
:1039800049F020E040E065ED79E187E199E00E94AF
:10399000983406C487EE99E00E94C097882309F402
:1039A000FFC387EE99E00E9494978111F9C380913B
:1039B0003406863091F58CE196E00E9462CF882330
:1039C00091F080911A0681FF06C060E087E199E0DE
:1039D0000E94DA3722C01092340680914B0B8F7E02
:1039E00080934B0B1AC08BEB99E00E94779C882345
:1039F000A1F080911A0682FF04C08BEB99E00E942F
:103A00000B9B0E94BB3780914B0B8F7E80934B0B9F
:103A10008FEF0E94737610923406809134068111E4
:103A2000CFC780919B0690919C06892B09F4C8C74B
:103A300087E199E00E94A13460E070E089E996E0B6
:103A40000E946F19DC011C911B3809F4ACC31E38AD
:103A500009F43FC61B3909F4CDC4193809F48AC3E7
:103A6000163809F49FC71C3809F44EC70DE7010F3B
:103A70001C3909F4B6C0103909F4B3C0023008F497
:103A8000B0C0183809F4ADC0143941F480919B06D8
:103A900090919C06059708F493C708C0163909F45D
:103AA000A0C00E94D75181112DC08AC70E94C6199B
:103AB0000E94C61980931B060E94CA198C010E949D
:103AC000C61980931A060115110571F0D80120E47A
:103AD00032E44FE050E00E94DCD5AB01BC018CE148
:103AE00096E00E942ECF6CC0CE0101960E942BCF93
:103AF00086E0FE013196ACE1B6E001900D928A9528
:103B0000E1F75EC0153809F42DC4153909F069C014
:103B100080919B0690919C06069708F451C70E94DD
:103B2000C6190E94C619182F0E94C619E82E0E94B5
:103B3000C619082F0E94C619F82E10FD04C083E490
:103B400099E00E94FABEE09246090093470969E9AC
:103B500076E083E499E00E9483C811FF31C7E091C9
:103B6000D509EE0FFF0BE953F64F80819181835405
:103B7000994009F410C463E479E08BEB99E00E946A
:103B80004F9A1470F1100CC4112309F419C7FF20C7
:103B900009F40EC4AF2DB0E020E432E44FE050E071
:103BA0000E94DCD5AB01BC018CE196E00E942ECFD7
:103BB00081E080931B0680911A06847080931A0618
:103BC0000E94B13760911B068BEB99E00E94749CB8
:103BD00080914B0B806180934B0B86E08093340681
:103BE000EFC6023060F580919B0690919C06089785
:103BF00008F4E6C60E94C6190E94C619082F0E9442
:103C0000D8196B017C010E94CA1923E02093340665
:103C1000DC0120E432E44FE050E00E94DCD5AB014F
:103C2000BC0188E296E00E942ECF81E0143809F0B2
:103C300080E0A7019601602F0E94696EC1C6173807
:103C400029F580919B0690919C06069708F4B8C6CA
:103C500084E08093340681E08093A4080E94C61912
:103C60000E94C619809398060E94CA190E94CA1918
:103C7000DC0120E432E44FE050E00E94DCD5AB01EF
:103C8000BC0182E296E00E942ECF9AC61D3891F4C4
:103C900080919B0690919C06069708F491C685E05A
:103CA0008093340681E08093A4080E94C6190E9484
:103CB000C619DACF1F3809F03FC080919B0690915A
:103CC0009C06029708F47CC60E94C6190E94C61979
:103CD000C82ECE0101960E94F0690EE010E0E12CA2
:103CE000F12CD12CC6010E2C02C0959587950A9413
:103CF000E2F780FF17C0B701CE0101960E94AB3AF0
:103D0000FC0180819181A281B3818D8B9E8BAF8BD1
:103D1000B88FF89444E050E0B801CE0145960E9477
:103D200020D87894FFEFEF1AFF0A0C5F1F4F25E0B1
:103D3000E216F104B9F644C6103909F05FC080916B
:103D40009B0690919C06029708F43AC60E94C619F9
:103D50000E94C619C82ECE0101960E94F0690EE09D
:103D600010E0E12CF12CD12CC6010E2C02C095954F
:103D700087950A94E2F780FF0CC0F894B701CE0152
:103D800001960E94AB3A44E050E0B8010E94FCD793
:103D900078943FEFE31AF30A0C5F1F4F43E0E416F9
:103DA000F10411F763E070E0CE0101960E94AB3A96
:103DB000FC0180819181A281B3818093520690930E
:103DC0005306A0935406B093550664E070E0CE010C
:103DD00001960E94AB3AFC0180819181A281B3815E
:103DE0008093560690935706A0935806B0935906B1
:103DF00061E0CE0101960E946769E2C5113999F42C
:103E000080919B0690919C06039708F4D9C50E9467
:103E1000C6190E94C619182F0E94C619682F812F33
:103E20000E94506FCDC5123921F580919B0690916B
:103E30009C06069708F4C4C50E94C6190E94C619BC
:103E4000182F0E94C61966968FAF66970E94C619F2
:103E500065968FAF65970E94C6190E94C619659630
:103E60004FAD659766966FAD6697812F0E94E57698
:103E7000A7C51339B1F480919B0690919C060697D3
:103E800008F49EC50E94C6190E94CA198C010E949E
:103E9000CA197C010E94C619B701C8010E9499394C
:103EA0008FC5183809F062C080919B0690919C06DE
:103EB000049708F485C563E070E089E996E00E9404
:103EC0006F1920919B0630919C06DC01EC90F12C3F
:103ED000B4E0EB0EF11C2E153F0508F471C580917E
:103EE0003506882339F080910002882319F010925A
:103EF000000203C081E08093000262E070E089E983
:103F000096E00E946F19FC018081833059F062E0D5
:103F100070E089E996E00E946F19DC018C918C3089
:103F200009F01CC28091000281110DC061E070E0B7
:103F300089E996E00E946F19FC0181E09081992344
:103F400019F080E001C08FEF0E94FE1980910002FD
:103F5000882309F435C510E0812F90E08E159F0568
:103F600008F02EC50E94C6191F5FF6CF163909F05A
:103F700041C080919B0690919C06039708F420C550
:103F80000E94C6190E94C619809301020E94C61998
:103F9000809101028823F1F080913B0690913C06CC
:103FA000A0913D06B0913E06892B8A2B8B2B91F474
:103FB00080913A0681110EC00E949D2B60933B06B2
:103FC00070933C0680933D0690933E0680910102DB
:103FD00080933A0680910102882309F4F1C40E947B
:103FE0009D2B609336067093370680933806909326
:103FF0003906E6C41739B9F480919B0690919C0666
:104000000297B8F10E94C6190E94C619811102C018
:1040100084E006C0813019F40E94FA392AC082E097
:104020000E94353A26C0183999F480919B069091E8
:104030009C06029708F4C4C40E94C6190E94C619BF
:104040000E94F92660E087E199E00E94DA37B8C45F
:10405000193991F480919B0690919C06059708F47C
:10406000AFC40E94C6190E94D81989E996E00E943F
:10407000F72F1092A408A4C41A3971F480919B06FA
:1040800090919C06029708F49BC40E94C6190E9456
:10409000C6190E94002CEDCF1C3999F480919B0623
:1040A00090919C06029708F48BC40E94C6190E9446
:1040B000C61991E0813009F090E0892F0E94606F6D
:1040C0007FC41D39A1F480919B0690919C06459771
:1040D00008F476C40E94D8190E94D8190E94D819F1
:1040E0000E94D8190E94D8190E94C61969C41E39A5
:1040F00009F066C480919B0690919C06059708F490
:104100005FC40E94C6190E94D8196B017C012FE67A
:1041100032E143E85AE30E9495D287FF03C0C12CE5
:10412000D12C760142E0C701B6010E94F6670E94D9
:104130007C1046C48B3019F481ED9AE1CFCA8FE12F
:104140009BE1CCCA8091950690919606892B09F047
:10415000DDCA0E94F93BDACA0E9486738111D6CA71
:1041600080919B0690919C06892B09F0CFCA0E94F2
:10417000CF73CCCA80919B0690919C06029708F45D
:104180001FC40E94C6190E94C6199091350691114C
:104190001DC1682F661F6627661F0E94206F10C40E
:1041A0001092340604CC80919B0690919C0649970E
:1041B00008F406C40E94C61981E0809334060E9468
:1041C000D8196D8F7E8F8F8F98A30E94D81969A3FD
:1041D0007AA38BA39CA30E94D8196DA37EA38FA35F
:1041E00098A70E94D8194B01382E292E0E94D81961
:1041F0002B013C010E94D81969A77AA78BA79CA71D
:1042000080913506882359F080919806882321F003
:104210004201362C272C03C02401632C722C80927F
:104220005206909253063092540620925506809181
:10423000560690915706A0915806B09159069301E1
:104240008201081B190B2A0B3B0BD901C80168011D
:104250007901FF0CCC08DC2C76019801AD016C2DA6
:104260007C2D8C2D9C2DA0907206B0907306C09072
:104270007406D0907506E0907606F090770600916F
:104280007806109179060E9460D7209372063093C9
:104290007306409374065093750660937606709388
:1042A000770680937806909379064092560650924E
:1042B000570660925806709259060E94DA0F7F9254
:1042C0006F925F924F92A32CB22CCDA0DEA0EFA0F4
:1042D000F8A409A11AA12BA13CA14D8D5E8D6F8D73
:1042E00078A1CE0101960E94703AE12C00E010E026
:1042F000980149A55AA56BA57CA527C00E94DA0F95
:10430000BDA5BF93E9A5EF936F92FDA1FF93AD8C7F
:10431000B9A02296CCACDDACEEACFFAC22970AADD6
:104320001BAD2CAD3DAD4EA95FA968AD79ADCE01F9
:1043300001960E94703AE72C26960CAD1DAD2EAD6D
:104340003FAD269740E050E0BA01CE0101960E94B1
:10435000176B0F900F900F900F9032C381E08093F6
:104360000002E0CD80919B0690919C06059708F491
:1043700027C382E0809334060E94C6190E94D81990
:104380009B01AC01A8EEB3E00E94DCD5AB01BC01FF
:104390008EE296E078CC83E499E00E9439BFF1CBBD
:1043A0001111F2CB6F2D83E499E00E9429BF08C35D
:1043B000CE0101960E942BCF86E0FE013196ACE142
:1043C000B6E001900D928A95E1F7F2CB90919806B4
:1043D000911107C0982F9F7E83FF0AC0892F8061AB
:1043E000D8CE982F977F84FF03C0892F8860D1CEC5
:1043F000892FCFCE80919B0690919C06809708F4E0
:10440000DFC20E94C61981E0809334060E94D81949
:1044100022966CAF7DAF8EAF9FAF22970E94D819C6
:1044200026966CAF7DAF8EAF9FAF26970E94D819AE
:104430002A966CAF7DAF8EAF9FAF2A970E94D81996
:1044400069A37DA389A79DA70E94D8196EA778AB01
:104450008AAB9EAB0E94D8192E966CAF7DAF8EAF03
:104460009FAF2E970E94C619182F0E94D8196296E6
:104470006CAF7DAF8EAF9FAF62970E94CA196496F2
:104480009FAF8EAF649780913506811103C01F776F
:104490001D8F35C080919806811110C0012F0F76B5
:1044A0000D8F13FF1BC000610D8F19A11EA72DA139
:1044B00028AB39A53AAB4DA54EAB21C0512F57774C
:1044C0005D8F14FF14C058605D8F8EA589A398A9D5
:1044D0009DA3AAA9A9A7BEA9BDA711C0E9A1EEA73E
:1044E000FDA1F8AB09A50AAB1DA51EAB08C02EA502
:1044F00029A338A93DA34AA949A75EA95DA789A117
:104500008D8B9DA19E8BA9A5AF8BBDA5B88FEEA568
:10451000E98FF8A9FA8F0AA90B8F1EA91C8FEAE66A
:10452000F6E02E0125E1420E511CA2E5B6E06896A8
:10453000BFAFAEAF68971BAE1AAEBD8D2B2E312C20
:104540008AAD9BAD0396810102C0159507958A95AA
:10455000E2F7D2016D907D908D909C9000FF31C06C
:1045600074016301FF0CCC08DC2C76019301A401DB
:104570006C2D7C2D8C2D9C2DA080B180C280D38091
:10458000E480F580068117810E9460D72083318303
:104590004283538364837583868397836896AEAD25
:1045A000BFAD68974D915D916D917C911397460DCC
:1045B000571D681D791D4D935D936D937C931397E3
:1045C00034C06896AEADBFAD68974D915D916D9169
:1045D0007C91139794018301041B150B260B370B59
:1045E000C901B80168017901FF0CCC08DC2C760107
:1045F0009B01AC016C2D7C2D8C2D9C2DA080B1805D
:10460000C280D380E480F580068117810E9460D744
:1046100020833183428353836483758386839783A6
:104620006D927D928D929C9213973896B4E04B0ECA
:10463000511C6896AEADBFAD689714966896BFAF33
:10464000AEAF6897AAADBBAD119729F0A1E0B0E07D
:10465000BBAFAAAF75CF0E94DA0F7090D515BD8D94
:104660007B2AEEA9EF93FAA9FF9308A90F931EA541
:104670001F9389A09DA0A9A4BDA42A96CCACDDACB3
:10468000EEACFFAC2A9726960CAD1DAD2EAD3FAD1E
:10469000269722964CAD5DAD6EAD7FAD2297CE01D3
:1046A00001960E94703A6496CEACDFAC6497629635
:1046B000ECACFDAC0EAD1FAD6297272D2E964CAD28
:1046C0005DAD6EAD7FAD2E97CE0101960E94646CFC
:1046D00040CE80919B0690919C064A9708F470C149
:1046E0000E94C61981E0809334060E94D8196EABEF
:1046F0007FAB88AF99AF0E94D8196AAF7BAF8CAF00
:104700009DAF0E94D81922966CAF7DAF8EAF9FAF40
:1047100022970E94D8194B018D8F99A30E94D81916
:104720006DA3672E89A79DA70E94D81926966CAF06
:104730007DAF8EAF9FAF26970E94C619782E8091CD
:104740003506882369F18091980681110DC0872D67
:104750008F7E73FE16C08061782E8DA2692C1D8D10
:1047600019A729A12DA71CC0872D877F74FE11C012
:104770008860782E8DA0962C39A53D8F4DA549A334
:104780000FC0782E8DA2692C5D8D59A789A18DA7A8
:1047900007C0782E8DA0962C99A59D8FADA5A9A3B5
:1047A0008D8A9E8ABD8DBF8BE9A1E88FFDA1F98F0F
:1047B0006A8E09A50B8F1DA51C8FEAE6F6E0DE01C7
:1047C0005596BFA7AEA7A2E5B6E02C96BFAFAEAF99
:1047D0002C9719AA18AAA72DB0E02896BFAFAEAFA4
:1047E000289788A999A903962896AEADBFAD2897BA
:1047F00002C0B595A7958A95E2F7CD01AEA5BFA5F4
:104800002D903D904D905C9080FF31C07201610110
:10481000FF0CCC08DC2C76019101A2016C2D7C2DC3
:104820008C2D9C2DA080B180C280D380E480F58047
:10483000068117810E9460D720833183428353838E
:1048400064837583868397832C96AEADBFAD2C971A
:104850004D915D916D917C911397420D531D641D97
:10486000751D4D935D936D937C93139734C02C9677
:10487000AEADBFAD2C974D915D916D917C9113972D
:1048800092018101041B150B260B370BC901B801DE
:1048900068017901FF0CCC08DC2C76019801AC0191
:1048A0006C2D7C2D8C2D9C2DA080B180C280D3805E
:1048B000E480F580068117810E9460D720833183D0
:1048C0004283538364837583868397832D923D92BD
:1048D0004D925C9213973896AEA5BFA51496BFA7CC
:1048E000AEA72C96AEADBFAD2C9714962C96BFAF4D
:1048F000AEAF2C97A8A9B9A9119709F4FFCCA1E0F4
:10490000B0E0B9ABA8AB6DCF80919B0690919C06AF
:10491000459708F455C00E94C6190E94D8192B016A
:104920003C010E94D8196D8F7E8F8F8F98A30E94B3
:10493000D8196B017C010E94D8194B015C010E94BF
:10494000D81920913506222349F020919806222378
:1049500019F04B015C0102C0B401C50180925206FE
:1049600090925306A0925406B09255066093560654
:104970007093570680935806909359069F938F9390
:104980007F936F930D8D1E8D2F8D38A1B301A201E2
:10499000CE0101960E94703A60E0CE0101960E941D
:1049A0006769D7CC80919B0690919C06029740F056
:1049B0000E94C6190E94C619809398060E94636FD0
:1049C000C95ADF4F0FB6F894DEBF0FBECDBFDF91DF
:1049D000CF911F910F91FF90EF90DF90CF90BF90FC
:1049E000AF909F908F907F906F905F904F903F908F
:1049F0002F90089540E067E479E187EA98E00E940B
:104A0000AACBE9E9F6E080E092E09183808313820B
:104A100012821582148283EA96E097838683108639
:104A200011868FE796E00E946F3A8EE296E00E9430
:104A30002BCF88E296E00E942BCF82E296E00E9484
:104A40002BCF8CE196E00C942BCFCF93DF931F926A
:104A50001F92CDB7DEB721E0298322E32A8342E00B
:104A600050E0BC01CE0101960E9420D80F900F901B
:104A7000DF91CF910895CF93DF93EC0140E050E0B8
:104A800060EE70E40E94B69346E656E666EA7EE380
:104A9000CE0102960E94B69340E050E060E172E4DD
:104AA000CE010496DF91CF910C94B693CF93DF9310
:104AB000EC010A960E943B25CE0140960E943B25C0
:104AC000CE014A96DF91CF910C9425250F931F9329
:104AD000CF93DF9300D0CDB7DEB78C0167E00E94A3
:104AE0002AD861E0C80102960E942AD88FEF8983F4
:104AF0008A838B83B8016C5F7F4F43E050E0CE0127
:104B000001960E9420D80F900F900F90DF91CF91C7
:104B10001F910F91089567E080E491E00C941C933D
:104B2000682F80E491E00C942AD80F931F93CF93C1
:104B3000DF9300D01F92CDB7DEB7082F162F68E0A5
:104B400080E491E04C830E942AD809831A834C8127
:104B50004B8343E050E064E471E0CE0101960E9493
:104B600020D80F900F900F900F90DF91CF911F9151
:104B70000F910895CF92DF92EF92FF92CF93DF9340
:104B80006B017C01EA01CA010E9440D8B701CE0145
:104B90000496DF91CF91FF90EF90DF90CF900C942F
:104BA00040D8AC016BE770E084EF91E00E94BA2539
:104BB0000895CF93DF93EC0166EE70E00E9440D839
:104BC00066EE70E0CE0102960E9440D864E670E086
:104BD000CE0104960E9440D865E0CE010696DF9192
:104BE000CF910C942AD861E08EE691E00E942AD8F9
:104BF00068EE73E082E791E00E9440D868EE73E0CF
:104C000084E791E00E9440D866E970E086E791E091
:104C10000E9440D860ED77E088E791E00E9440D89C
:104C200060ED77E08AE791E00E9440D86FE070E0A5
:104C30008CE791E00E9440D86FE070E08EE791E051
:104C40000E9440D86AE070E080E891E00E9440D87D
:104C500064E170E082E891E00E9440D864E170E095
:104C600084E891E00E9440D844EF51E060E070E0B9
:104C700088ED91E00E9438D84CE755E160E070E0A3
:104C80008CED91E00E9438D860E170E080EE91E018
:104C90000E9440D860E170E082EE91E00E9440D82E
:104CA00060E08BE092E00E942AD861E084EE91E01F
:104CB0000E942AD860E888E891E00C942AD8CF9323
:104CC000DF93CDB7DEB764970FB6F894DEBF0FBEA3
:104CD000CDBF84E1EFEBF2E0DE01119601900D9281
:104CE0008A95E1F744E150E06EE070E0CE01019674
:104CF0000E9420D864960FB6F894DEBF0FBECDBFD9
:104D0000DF91CF910895CF92DF92EF92FF920F93B0
:104D10001F93CF93DF93CDB7DEB764970FB6F894A8
:104D2000DEBF0FBECDBF7C0128E0E3EDF2E0DE0187
:104D30001D9601900D922A95E1F74CE050E06EE04F
:104D400070E0CE0101960E94FCD76E018DE0C80E86
:104D5000D11C8701F12C48E050E0B801F6018191A7
:104D600091916F010E9420D84CE050E0B801685F3B
:104D70007F4FCE0101960E9420D866EE70E0C801F8
:104D800044960E9440D866EE70E0C80146960E94A4
:104D900040D8F1E0FF1619F064E670E002C06DE261
:104DA00070E0C80148960E9440D8F394065E1F4FF9
:104DB00084E0F812D0CF6CEA8CEF9FE00E942AD8F2
:104DC00064960FB6F894DEBF0FBECDBFDF91CF91D2
:104DD0001F910F91FF90EF90DF90CF900895813059
:104DE00009F082E0682F82E490E00E942AD80C94B7
:104DF0005F260F931F93CF93DF93CDB7DEB76D97E9
:104E00000FB6F894DEBF0FBECDBF85E0EBEDF2E04C
:104E1000DE01559601900D928A95E1F74BE050E046
:104E200062E270E08BE393E00E9420D845E050E01E
:104E300066E070E0CE0145960E9420D86FE984E0DC
:104E400090E00E942AD86BE18CE090E00E942AD882
:104E50000E945F2684E99FE00E948326A89544E192
:104E600050E06CE871E086E493E00E9420D844E1D1
:104E700050E064EA71E08EE693E00E9420D844E1BD
:104E800050E064EF71E08AE593E00E9420D80E9430
:104E9000F32581EC93E29B8F8A8F84E193ED9D8FC4
:104EA0008C8F44E050E064E470E0CE014A960E94AA
:104EB00020D880E091E00E9456258CE191E00E948C
:104EC000562500E010E020E030E040E050E060E0F7
:104ED00070E088EC91E00E94429420E030E040E0F5
:104EE00050E060E070E080ED91E00E94429480E448
:104EF00091E00E9466258AE491E00E94D12588E530
:104F000091E00E94D92561E080E691E00E942AD8D4
:104F100060E08DEF9FE00E942AD860E08EEF9FE076
:104F20000E942AD860E08FEF9FE00E942AD861E0BB
:104F300082E99FE00E942AD860E081E99FE00E9418
:104F40002AD880E00E94EF2661E08CE490E00E9485
:104F50002AD860E08FE89FE00E942AD860E08EE8BF
:104F60009FE00E942AD888EC90E0A0E0B0E089831E
:104F70009A83AB83BC8344E050E066E67FE08E0119
:104F80000F5F1F4FC8010E9420D863E084E69FE0B6
:104F90000E942AD864E683E69FE00E942AD884E132
:104FA000F80111928A95E9F744E150E069E47FE065
:104FB000C8010E9420D860E080E99FE00E942AD8C2
:104FC00060E088E49FE00E942AD86D960FB6F894BE
:104FD000DEBF0FBECDBFDF91CF911F910F9108951E
:104FE00061E082E490E00E941C9391E0823009F439
:104FF00090E0892F089561E08CE490E00E941C937A
:1050000091E0813009F090E0892F0895CF93DF93EC
:10501000CDB7DEB72C970FB6F894DEBF0FBECDBF6D
:1050200081E89CE0A0E0B0E089839A83AB83BC83F5
:105030001D821E821F82188619861A861B861C8670
:105040004CE050E062E671E0CE0101960E9420D86B
:105050002C960FB6F894DEBF0FBECDBFDF91CF9177
:1050600008950F931F93CF93DF938C01EB0160E0C2
:1050700070E080EA91E00E942C93F8019183808394
:1050800060E082EA91E00E941C938883DF91CF91D7
:105090001F910F910895CF93C62FBC0180EA91E034
:1050A0000E9440D86C2F82EA91E0CF910C942AD8CC
:1050B000FF920F931F93CF93DF9300D0CDB7DEB74E
:1050C0008C01F62EBE016D5F7F4FCE0101960E94CE
:1050D00031289B812F2D290F822F6CE30E9450D500
:1050E0009B832D3330F029813A81280F311D3A837B
:1050F000298329813A81692FC801820F931F0E9459
:105100004B280F900F900F90DF91CF911F910F912F
:10511000FF9008950F931F9367E182E090E00E9453
:105120002AD880E00E94EF260E94062860E080E0F6
:1051300090E00E944B2861E088E092E00E942AD82B
:1051400000E010E020E030E040E050E060E070E09F
:1051500088EB91E00E94429420E030E040E050E093
:1051600060E070E080EC91E00E9442941F910F910A
:105170000C94F92667E080E491E00E941C9387304C
:1051800041F061E082E491E00E941C9391E087305D
:1051900009F490E0892F089540E067E479E18CEA12
:1051A00098E00C94AACBCF92DF92EF92FF920F93EC
:1051B0001F93CF93DF93EC018881811102C080E0BF
:1051C00034C08B0160E0CE010E9416CB87FFF7CF81
:1051D0000E94983B811104C00E947873882331F0AB
:1051E0006AE8C8010E9460CB81E01FC0F894E880A3
:1051F0000E94EF0FF12C8E159F0588F0C12CD12C49
:10520000CE14DF0454F46C2DCE010E9416CB0E9404
:105210009C198FEFC81AD80AF3CF61E801C062E881
:10522000C8010E9460CB7894DFCFDF91CF911F91AE
:105230000F91FF90EF90DF90CF90089586E08093DC
:10524000C10881E08093B10808950F931F93CF9315
:10525000DF93CDB7DEB765970FB6F894DEBF0FBE0C
:10526000CDBF8C01F894BE016B5E7F4FCE010196DD
:105270000E94846A61E8C8010E9460CB60E070E02F
:10528000CE0101960E94A43AFC01408151816281C5
:105290007381C8010E9477CB61E070E0CE01019676
:1052A0000E94A43AFC014081518162817381C8014E
:1052B0000E9477CB62E070E0CE0101960E94A43A92
:1052C000FC014081518162817381C8010E9477CBCA
:1052D0000E94726F682FC8010E9460CB7894659617
:1052E0000FB6F894DEBF0FBECDBFDF91CF911F91F7
:1052F0000F9108950F931F93CF93DF93CDB7DEB730
:1053000065970FB6F894DEBF0FBECDBF8C01F89441
:10531000BE016B5E7F4FCE0101960E94846A61E8F8
:10532000C8010E9460CB60E070E0CE0101960E944F
:10533000A43AFC014081518162817381C8010E94BD
:1053400077CB61E070E0CE0101960E94A43AFC01A7
:105350004081518162817381C8010E9477CB62E0F4
:1053600070E0CE0101960E94A43AFC014081518177
:1053700062817381C8010E9477CB63E070E0CE0147
:1053800001960E94A43AFC0140815181628173819F
:10539000C8010E9477CB64E070E0CE0101960E94C4
:1053A000A43AFC014081518162817381C8010E944D
:1053B00077CB0E94726F682F70E0C8010E9462CBA9
:1053C000789465960FB6F894DEBF0FBECDBFDF911F
:1053D000CF911F910F910895DF92EF92FF920F935B
:1053E0001F93CF93DF93CDB7DEB7A0970FB6F89496
:1053F000DEBF0FBECDBF8C017B0161E8C7010E94FB
:1054000060CB61E0C8010E9416CB882321F00E9486
:10541000B23C81112BC09E01205E3F4F40E050E026
:105420006FE1CE0101960E94C33C89818E3249F41E
:1054300088A1882381F38A818E3269F78B8181115B
:10544000EACF60E0C7010E9460CB8E010F5F1F4F63
:105450008FE1D82ED00EF80161918F01662351F0B3
:10546000C7010E9460CBD012F6CF04C0682FC701DD
:105470000E9460CB60E0C7010E9460CBA0960FB68F
:10548000F894DEBF0FBECDBFDF91CF911F910F917A
:10549000FF90EF90DF9008958F929F92AF92BF920E
:1054A000CF92DF92EF92FF920F931F93CF93DF93F0
:1054B000CDB7DEB78C015B018DB69EB661E00E9470
:1054C0001BCB6C0163E0C8010E9416CB082F10E0D3
:1054D0008DB79EB7801B910B0FB6F8949EBF0FBE81
:1054E0008DBFEDB7FEB731967F01A801B601CF01A0
:1054F0000E94FCD761E8C5010E9460CB6701C6012C
:105500008E199F09801791073CF4F60161916F0194
:10551000C5010E9460CBF3CF0FB6F8949EBE0FBEBC
:105520008DBEDF91CF911F910F91FF90EF90DF9093
:10553000CF90BF90AF909F908F9008952F923F9201
:105540004F925F926F927F928F929F92AF92BF9293
:10555000CF92DF92EF92FF920F931F93CF93DF933F
:105560001F92CDB7DEB76C015B012DB63EB661E090
:105570000E941BCB4C0163E0C6010E9416CB8983BD
:10558000082F10E08DB79EB7801B910B0FB6F894D3
:105590009EBF0FBE8DBFEDB7FEB731967F01A8014C
:1055A000B401CF010E94FCD73701412C512C401689
:1055B000510664F464E0640DC6010E9416CBF30149
:1055C00081933F01FFEF4F1A5F0AF1CFDFB6F894E6
:1055D000A801B401C7010E9420D8DFBE61E8C5015F
:1055E0000E9460CB6981C5010E9460CB0FB6F89420
:1055F0003EBE0FBE2DBE0F90DF91CF911F910F9138
:10560000FF90EF90DF90CF90BF90AF909F908F90E2
:105610007F906F905F904F903F902F9008950F93E1
:105620001F93CF93DF938091E108811111C001EEA8
:1056300018E0C2E2D0E060E0CE010E941C93F801C5
:1056400081938F012196C233D105A9F71092F108F9
:105650008091E10881110DC0E0EBF4E0A1EEB8E02B
:105660008CE08A0F94919D9331968A13FBCF109210
:10567000ED0881EE98E0DF91CF911F910F91089591
:105680008091C10808958091C008089587E199E04C
:105690000E94E3326093BB087093BC088093BD08FE
:1056A0009093BE0881E08093BF0808951092B708D8
:1056B0001092B8081092B9081092BA080C94462BB0
:1056C0000F931F938091BF08813089F487E199E09F
:1056D0000E94E3320091BB081091BC082091BD08E4
:1056E0003091BE08601B710B820B930B03C060E00E
:1056F00070E0CB011F910F9108950F931F930E94AB
:10570000602B0091B7081091B8082091B90830912A
:10571000BA08DC01CB01800F911FA21FB31F809339
:10572000B7089093B808A093B908B093BA0882E07C
:105730008093BF081F910F9108950F931F930E94AC
:10574000602B0091B7081091B8082091B9083091EA
:10575000BA08600F711F821F931F1F910F91089548
:105760008F929F92AF92BF92FF920F931F93CF930E
:10577000DF932091BF0821110CC02091B508309112
:10578000B608FC01318320838091B408FB0180833B
:105790001DC08B01EC010E949D2B4B015C0120E19F
:1057A0003EE040E050E00E9484D5F22E2883398309
:1057B000C501B4012CE330E040E050E00E9484D504
:1057C000FCE3FF9E20191124F8012083DF91CF9183
:1057D0001F910F91FF90BF90AF909F908F90089571
:1057E00064EB78E085EB98E00E94B02B1092BF0844
:1057F0006091B4088091B5089091B6080C9458282F
:105800000E94F02B60E088EF0E94206F81E00E94F0
:10581000E93580E00E94CB3582E08093C008109289
:10582000C10808950097C1F028E0823C9207B1F0CA
:10583000603208F06EE1DC0142EC58E0FA012E2FF4
:10584000241B261718F42D912193F9CFE62FF0E0B1
:10585000EE53F74F108202C082EC98E00E94903D18
:105860008930A9F0811114C081E00E94E9350E94BD
:105870007F110E943F700E94DF721092F20882E056
:105880008093C10880914B0B806880934B0B80E024
:1058900008951092F2080E94B073882319F085E0F1
:1058A0008093C10880914B0B846080934B0B0E94C6
:1058B0007F110E94DF728FEF8093BE020895CF9315
:1058C000C091C108C13069F484E08093C10840E40C
:1058D00052E46FE070E089EF98E00E942ECFC09311
:1058E000B1080E94F02B81E08093B30840E45DE0B2
:1058F00063E070E083EF98E00E942ECF8FEF0E946C
:10590000737684E08093C008CF91089585E08093FA
:10591000C00881E08093F2080E94DF7280914B0BF7
:105920008B77806280934B0B0E946410811108C0BA
:105930000E947510811104C060E081E00C94541045
:105940000C945F2C1F93CF93DF931F92CDB7DEB7DC
:10595000182F69830E94641091E06981811101C050
:1059600090E01917E9F069830E947510698181112F
:1059700017C0812F0E945410112349F083E08093B7
:10598000C0080F90DF91CF911F910C947D2B81E087
:105990008093C0080F90DF91CF911F910C94462BFC
:1059A0000F90DF91CF911F910895EF92FF920F9387
:1059B0001F93CF93DF93FC012081222309F4BAC007
:1059C000EB017C0161E00E9416CB082F62E0C70169
:1059D0000E9416CB182F61E8CE010E9460CB1032D6
:1059E00009F447C090F4123089F128F41111A2C0D3
:1059F00064EC72E04AC0163199F11E3109F09AC088
:105A00006091F1097091F20940C0133209F457C056
:105A100020F4113209F445C08DC0143209F455C088
:105A2000153209F087C040E050E0BA01CE010E9473
:105A300077CB40E050E0BA01CE010E9477CB40E046
:105A400050E0BA01CE010E9477CB72C0013019F04C
:105A5000ECE3FAE002C0EBEBFAE062A173A115C03F
:105A6000013019F08CE39AE002C08BEB9AE0489683
:105A700028C0013071F0ECE3FAE0DF01A759BF4F15
:105A80008C91882349F066A177A1CE010E9462CB58
:105A90004FC0EBEBFAE0F1CFEC5AFF4F6081718120
:105AA000F4CF8091380A882329F06091F50970912C
:105AB000F609EBCF6091230A7091240AE6CF87EEB6
:105AC00099E00E949497682F30C0013019F08CE360
:105AD0009AE002C08BEB9AE0FC01E95AFF4F80810B
