:100000000C945E110C9499110C9499110C94991103
:100010000C9499110C9499110C9499110C949911B8
:100020000C9499110C9499110C9499110C949911A8
:100030000C9499110C94C7390C9499110C94991142
:100040000C9499110C9499110C9499110C94991188
:100050000C9499110C9499110C9499110C94991178
:100060000C9499110C94F9DA0C9499110C9425DBE9
:100070000C9499110C94509A0C9499110C94991118
:100080000C949D390C9499110C9499110C9499111C
:100090000C9459DB0C9499110C9485DB0C949911F8
:1000A0000C9499110C9499110C9499110C94991128
:1000B0000C9499110C9499110C9499110C94EF399A
:1000C0000C9499110C9499110C9499110C94991108
:1000D0000C9499110C9499110C9499110C949911F8
:1000E0000C949911C43204330633EC321033BF330D
:1000F000BF33EC322F33BF333D33423356335B33A0
:10010000BF33BF331833EC322A33BF33D232143308
:10011000603373337A33BF33BF339F331E7F237F04
:100120002F7F207F5D7F317F507F347F70C98DC9E5
:100130009AC9C5C9E4C9F7C905CA3ACA0C9478AACC
:100140000C945D7F0C9465AF0C94A3AE0C94837FEC
:100150000C941BA90C948AC20C9418360C94E89742
:100160000C9434B40C946D840C9414330C9492AAB3
:100170000C946CDA0C9470A90C9425E10C946A7CB4
:100180000C948DAA0C9438C60C949AC90C94ADB7F3
:100190000C9432AA0C949F330C94BFCF0C947A33F6
:1001A0000C94F65B0C9448A90C9423B20C94C2BA3C
:1001B0000C94B2C70C9456330C9443BF0C944FABC1
:1001C0000C94BAB30C9498AA0C940DBE0C9488931A
:1001D0000C9476AB0C9456430C94049E0C946BA92F
:1001E0000C9411360C9414BA0C945AAA0C947FBE39
:1001F0000C940CAB0C947AB10C9403C40C9472CB99
:100200000C942FA90C9466B00C94207F0C94E4C934
:100210000C944B6D0C945DD90C94C5C90C943CB5F1
:100220000C9475A90C9434A90C94F49C0C9459C0AA
:100230000C943ACA0C94DC990C9442330C94C07F11
:100240000C948DC90C947A9A0C9434990C948A7FEE
:100250000C9403AF0C94AEA50C942FCF0C947FD3C9
:100260000C9406330C9465AB0C9471BF0C9410364F
:100270000C94EC320C9404330C94A37F0C942A332A
:100280000C94C6DB0C9461A90C9424B30C9409CD96
:100290000C94347F0C9495B60C945FD20C94CC9251
:1002A0000C94BBC50C947AA90C948AB50C94E39970
:1002B0000C9403A90C94A1AE0C94E9D80C9470C9C9
:1002C0000C9460AF0C94E5290C949DB00C9430CD47
:1002D0000C948EAF0C941C9B0C941ED30C9479BB85
:1002E0000C9484A90C9422840C94A8AF0C94237FC2
:1002F0000C94BF330C9428B70C948EC10C9458AE58
:100300000C9447C10C9473330C94B0BA0C9489AA22
:100310000C94E5BB0C947EB70C94E4B80C9447AAFB
:100320000C941BD70C943ABE0C94ACAA0C9426D710
:100330000C942D800C9484700C9477AF0C94E4D6BC
:100340000C9461AD0C9491B40C945B330C9431AA71
:100350000C94A7480C9489A90C94BAB00C9416D8A4
:100360000C94AE7F0C9490AB0C942AA90C94BAD147
:100370000C9416A90C946CB80C9444AA0C946BAA17
:100380000C943EA90C945CA90C94B09D0C9466A9A5
:100390000C942ECC0C9443A90C94D9B10C9462AA61
:1003A0000C9486BC0C94F9D90C94D2320C9472C083
:1003B0000C94B27F0C94FFBB0C9439A90C9494AEAE
:1003C0000C9457A90C9431CE0C94AF7B0C94B8CFFD
:1003D0000C94C13F0C944DA90C9444B20C947FA989
:1003E0000C9411B60C9425A90C94767D0C94EBAD6D
:1003F0000C941E7F0C944F970C949FB90C9420A9D9
:100400000C943C3D0C941DAC0C9409BD0C94CBC0D9
:100410000C941EAE0C94CDBB0C9452A90C9476B2E5
:100420000C94507F0C9407470C948AA20C944EB104
:100430000C94E1D80C9438BF0C9439AB0C943BA5C8
:100440000C940ED00C94F7C90C943D330C94BF2D32
:100450000C940BCF0C942F330C94A3B00C946033FA
:100460000C9405CA0C94C97F0C9410330C94F9D6E3
:100470000C9497C80C94C4320C94AFBC0C941EBB63
:100480000C946CD10C94ACC00C9442A20C942C35FE
:100490000C94B9DB0C940AA90C942F7F0C9467AAD6
:1004A0000C9459AF0C9411A90C9434D90C94F5D038
:1004B0000C9413D00C94317F0C9449D70C944FC6F4
:1004C0000C94C4CE0C9497AA0C94D1940C94183329
:1004D0000C946FAA5265706C69636174307220313C
:1004E000001704C8000000DC002705640000007845
:1004F000007505C8000000DC0020066400000078DC
:1005000000E006C8000000DC002006C8000000DC97
:10051000002006C8000000DC002D08C80000000014
:1005200000C00DC80000001400C00DC80000001479
:10053000005A10C80000001400C00D900100000017
:100540000070039001000014005504C8000000145E
:10055000002705C80000001400700390010000008F
:1005600000C805C80000001400C805C80000001439
:1005700000C805C80000001400DD04B00400001429
:10058000007505C800000014007505C800000014BF
:10059000007505C800000014009704B004000000B6
:1005A00000C00DC80000001400C00DC800000014F9
:1005B00000910E9001000014005A109001000014E8
:1005C00000C00D2003000000007003BC000000BC50
:1005D00000E006BC000000BC00B807BC000000BC86
:1005E000002D08BC00A908BC000000BC00C00D4DD7
:1005F0000100000000C00D20010000BC005311BC30
:10060000000000BC005B12B1010000000093026911
:100610000000006900EE016900000069002601B8D1
:10062000010000000024F4D43050C38E20C2A24048
:1006300017828B7011127A910D816CD90AA861E131
:1006400008C7586607615143061E4B5D05C145A7A3
:10065000041A411104093D9803713931034036DB16
:100660000265339102D4305402802E1D02632CEEB9
:1006700001752AC501B028A001102781018F2564CA
:10068000012B244B01E0223401AC211F018D200DF0
:1006900001801FFC00841EED00971DDF00B81CD2F6
:1006A00000E61BC600201BBC00641AB200B219A8E9
:1006B000000A19A0006A189900D117910040178B01
:1006C00000B516840031167E00B31579003A157313
:1006D00000C7146F0058146A00EE13660088136395
:1006E0000025135E00C7125B006C125700151254F0
:1006F00000C111510070114F0021114B00D610495B
:10070000008D1047004610440002104200C00F4008
:1007100000800F3E00420F3C00060F3B00CB0E381E
:1007200000930E37005C0E3500270E3400F30D32B7
:1007300000C10D3100900D3000600D2E00320D2DE6
:1007400000050D2C00D90C2B00AE0C2900850C29BE
:10075000005C0C2700350C27000E0C2600E80B244B
:1007600000C40B2400A00B23007D0B23005A0B2197
:1007700000390B2100180B2000F80A1F00D90A1EAF
:1007800000BB0A1E009D0A1D00800A1D00630A1C92
:1007900000470A1B002C0A1B00110A1A00F7091A4D
:1007A00000DD091900C4091900AB091900920917E5
:1007B000007B091800630917004C0916003609165A
:1007C00000200916000A091500F5081500E00814B4
:1007D00000CC081400B8081400A4081400900813F2
:1007E000007D0812006B081300580812004608121A
:1007F000003408110023081100120811000108112B
:1008000000F0071000E0071000D0071000C007102C
:1008100000B0070F00A107100091070E0083070F1B
:100820000074070F0065070E0057070E0049070EFA
:10083000003B070D002E070E0020070D0013070DCB
:100840000006070D00F9060C00ED060D00E0060C91
:1008500000D4060C00C8060C00BC060C00B0060C48
:1008600000A4060B0099060C008D060B0082060BF7
:100870000077060B006C060B0061060A0057060B9A
:10088000004C060A0042060A0038060A002E060A34
:100890000024060A001A060A001006090007060AC4
:1008A00000FD050900F4050900EB050900E2050952
:1008B00000D9050900D0050900C7050900BE0509D2
:1008C00000B5050800AD050800A50509009C050850
:1008D00000940508008C050800840508007C0508C4
:1008E00000740508006C050700650508005D050734
:1008F00000560508004E050700470507004005089B
:100900000038050700310507002A05070023050701
:10091000001C050600160507000F05070008050660
:100920000002050700FB040600F5040700EE0406BC
:1009300000E8040600E2040700DB040600D5040614
:1009400000CF040600C9040600C3040600BD040667
:1009500000B7040600B1040500AC040600A60406B6
:1009600000A00405009B0406009504050090040601
:10097000008A04050085040500800406007A040549
:100980000075040500700405006B0405006604058D
:1009900000610405005C04050057040500520405CD
:1009A000004D04050048040500430405003E04040E
:1009B000003A04050035040500300404002C040549
:1009C0000027040400230405001E0404001A040484
:1009D0000016040500110404000D040400090405B8
:1009E000000404040000040400FC030400F80304F1
:1009F00000F4030400F0030400EC030400E8030423
:100A000000E4030400E0030400DC030400D8030452
:100A100000D4030400D0030400CC030400C8030383
:100A200000C503030024F404D9201BC40C5C0E98F9
:100A300004C4095F0265077101F405F900FB04B302
:100A40000048048700C103690058035500030345AB
:100A500000BE023A008402310053022A0029022516
:100A60000004022000E4011C00C8011900AF0117B6
:100A7000009801140084011300710110006101103D
:100A80000051010E0043010D0036010B002B010B3C
:100A90000020010B00150109000C010900030108E9
:100AA00000FB000800F3000800EB000700E400066C
:100AB00000DE000600D8000600D2000600CC0005CB
:100AC00000C7000500C2000500BD000400B9000415
:100AD00000B5000400B1000400AD000400A900044A
:100AE00000A5000300A20003009F0004009B000378
:100AF000009800030095000200930003009000039B
:100B0000008D0002008B00030088000200860002B6
:100B10000084000300810002007F0002007D0002CB
:100B2000007B0002007900020077000100760002DD
:100B3000007400020072000100710002006F0002E8
:100B4000006D0001006C0002006A000100690002F3
:100B500000670001006600010065000100640002FA
:100B6000006200010061000100600001005F0002FE
:100B7000005D0001005C0001005B0001005A000103
:100B80000059000100580001005700010056000103
:100B90000055000100540001005300000053000103
:100BA000005200010051000100500001004F0001FF
:100BB000004E0000004E0001004D0001004C0001FD
:100BC000004B0000004B0001004A000100490001F9
:100BD00000480000004800010047000100460000F6
:100BE00000460001004500000045000100440001EE
:100BF00000430000004300010042000000420001E9
:100C0000004100000041000100400001003F0000E1
:100C1000003F0001003E0000003E0001003D0000DA
:100C2000003D0001003C0000003C0000003C0001D1
:100C3000003B0000003B0001003A0000003A0001C8
:100C400000390000003900010038000000380000C1
:100C500000380001003700000037000100360000B6
:100C600000360000003600010035000000350000AD
:100C700000350001003400000034000000340001A1
:100C80000033000000330000003300010032000098
:100C9000003200000032000100310000003100008D
:100CA0000031000100300000003000000030000181
:100CB000002F0000002F0000002F0000002F000177
:100CC000002E0000002E0000002E0001002D00006C
:100CD000002D0000002D0000002D0001002C000060
:100CE000002C0000002C0000002C0001002B000054
:100CF000002B0000002B0000002B0001002A000048
:100D0000002A0000002A0000002A0001002900003B
:100D1000002900000029000000290000002900012E
:100D20000028000000280000002800000028000023
:100D30000028000100270000002700000027000015
:100D40000027000000270001002600000026000008
:100D500000260000002600000026000100250000FB
:100D600000250000002500000025000000250000EF
:100D700000250001002400000024000000240000E1
:100D800000240000002400010023000000230000D4
:100D900000230000002300000023000000230000C7
:100DA00000230001002200000022000000220000B9
:100DB00000220000002200000022000100210000AB
:100DC000002100000021000000210000002100009F
:100DD0000021000000210001002000000020000090
:100DE0000020000000200000002000000020000083
:100DF0000020000000200001001F0000001F000074
:100E0000001F0000001F0000001F0000001F000066
:100E1000001F0001001E0000001E0000001E000058
:100E2000001E00000089089900000000526570470C
:100E3000204275696C64009600FF8403690100001C
:100E4000140083048800000014008C0000000000DF
:100E500000000030F8FFFF00000000000000009BD1
:100E60000000000000000000000000000000000082
:100E700000000000A51C0000180000A0409504839D
:100E800004DC0500001400901F8B0000000000002F
:100E90000000A00F00000000000000000000800023
:100EA00000009B0000000000000000A40F000000F4
:100EB00000000000000000A51C0000180AD7233C19
:100EC00095049B00000000000000000000000000EE
:100ED00000000000000000A00F000018F6282041CC
:100EE0008002891B950000000042792068616E64D1
:100EF000206D6F7665207468652065782D009501FA
:100F000000000074727564657220746F20646966F5
:100F1000666572656E7420009501000000706F7345
:100F20006974696F6E73206F7665722074686520CE
:100F3000200095070000006275696C6420706C6188
:100F400074666F726D2E2E2E2E00950000000041EB
:100F5000646A757374207468652073706163696E68
:100F60006720200095010000006265747765656E5A
:100F700020746865206578747275646572009501E7
:100F80000000006E6F7A7A6C6520616E6420706C70
:100F90006174666F726D20009507000000776974B8
:100FA0006820746865206B6E6F62732E2E2E00951C
:100FB00000000000756E6465722074686520706CB6
:100FC0006174666F726D2020009501000000616EF3
:100FD000642061207368656574206F66207061709D
:100FE0006572009501000000706C616365642062A9
:100FF00065747765656E207468652020009507002C
:101000000000706C6174666F726D20616E64207494
:1010100068652E2E2E0095000000006E6F7A7A6CA7
:10102000652E205768656E20796F752061726500A6
:101030009501000000646F6E652C207072657373FB
:1010400020746865202020202000950700000063A0
:10105000656E74657220627574746F6E2E00891FE0
:1010600062003B02000000002110422063308440F7
:10107000A550C660E770088129914AA16BB18CC167
:10108000ADD1CEE1EFF13112100273325222B552DE
:101090009442F772D662399318837BB35AA3BDD3B7
:1010A0009CC3FFF3DEE36224433420040114E664AE
:1010B000C774A44485546AA54BB528850995EEE507
:1010C000CFF5ACC58DD55336722611163006D776BE
:1010D000F6669556B4465BB77AA719973887DFF757
:1010E000FEE79DD7BCC7C448E5588668A778400886
:1010F000611802282338CCC9EDD98EE9AFF94889A7
:1011000069990AA92BB9F55AD44AB77A966A711A1D
:10111000500A333A122AFDDBDCCBBFFB9EEB799BF6
:10112000588B3BBB1AABA66C877CE44CC55C222C6D
:10113000033C600C411CAEED8FFDECCDCDDD2AAD46
:101140000BBD688D499D977EB66ED55EF44E133EFD
:10115000322E511E700E9FFFBEEFDDDFFCCF1BBF96
:101160003AAF599F788F8891A981CAB1EBA10CD170
:101170002DC14EF16FE18010A100C230E320045078
:10118000254046706760B9839893FBA3DAB33DC3EB
:101190001CD37FE35EF3B1029012F322D2323542C8
:1011A000145277625672EAB5CBA5A89589856EF57B
:1011B0004FE52CD50DC5E234C324A0148104667418
:1011C000476424540544DBA7FAB79987B8975FE7CB
:1011D0007EF71DC73CD7D326F2369106B016576668
:1011E0007676154634564CD96DC90EF92FE9C89953
:1011F000E9898AB9ABA94458654806782768C018B8
:10120000E1088238A3287DCB5CDB3FEB1EFBF98B2A
:10121000D89BBBAB9ABB754A545A376A167AF10A07
:10122000D01AB32A923A2EFD0FED6CDD4DCDAABD3A
:101230008BADE89DC98D267C076C645C454CA23C57
:10124000832CE01CC10C1FEF3EFF5DCF7CDF9BAF0A
:10125000BABFD98FF89F176E367E554E745E932EA7
:10126000B23ED10EF01E78206D6F726521002A20EB
:101270005072657373200045726173696E672E2E1C
:101280002E00656570726F6D5F64756D702E62699A
:101290006E2066696C656E6F7420666F756E640093
:1012A00052656164206661696C65643B2045455008
:1012B000524F4D206D617920626520636F727275A7
:1012C000707400526573746F72696E672E2E2E00F3
:1012D000656570726F6D5F64756D702E62696E20EA
:1012E00066696C65616C72656164792065786973A3
:1012F000747300534420636172642077726974656B
:10130000206661696C656400536176696E672E2E94
:101310002E00507265737320555020746F207072C8
:101320006F636565642E00796F757220626F74203B
:10133000696E6F70657261626C652E0054686973C6
:10134000206D656E752063616E206D616B65005365
:1013500061696C666973682076372E382072303088
:101360003066320041546D65676120323536302079
:1013700031362F30352F3039002D2D2048656174DE
:101380006572205370656369616C202D2D00536177
:10139000696C666973682046462043726561746FA4
:1013A000722000202020202020202020202020200B
:1013B000202020202020200020202020002000436A
:1013C00020202020002F2020204300010049033648
:1013D00000FF006B00D100A000B800D500A6000AF5
:1013E0000199003F018E0074018400A9017C00DE98
:1013F00001740013026C00480265007D025D00B2BA
:10140000025600E7024E001C03460051033D0086D1
:10141000033200BB032200F0030300FF030000457A
:101420006C61707365643A20202020203030306871
:1014300030306D0020736563730054696D65204C16
:101440006566743A2020203030306830306D005AA4
:10145000506F733A202020202020202020202020A0
:1014600020202000557365203020666F7220756E35
:101470006C696D69746564004D6178205A20507202
:101480006F62652048697473005072696E74206FD2
:1014900062737472756374696F6E20202064657462
:1014A00065637465642E2020436865636B207468EF
:1014B000657072696E7420616E64206578747275EF
:1014C0006465722E205072657373204C454654201B
:1014D000666F72206D656E752E004175746F2D6C90
:1014E0006576656C206661696C65640A546F6F206F
:1014F000666172206F7574206F66206C6576656C0E
:101500000050726573732043454E544552206275F6
:1015100074746F6E20746F20636F6E74696E75657E
:101520002E00546865206275696C6420706C61746B
:101530006520697320206E6F74206C6576656C651C
:10154000642100546865206275696C6420706C6168
:10155000746520697320206C6576656C6564210074
:101560004175746F2D6C6576656C2020302E30309F
:1015700030206D6D004175746F2D6C6576656C2043
:10158000696E61637469766520004175746F2D6CB6
:101590006576656C206661696C65640A496E636F87
:1015A0006D706C6574652070726F62696E67004162
:1015B00075746F2D6C6576656C206661696C656409
:1015C0000A4261642070726F62696E6720706F6991
:1015D0006E7473006265747765656E2070726F62F9
:1015E00065207074732E004D6178206865696768A6
:1015F000742076617269616E6365004175746F2D48
:101600006C6576656C2056617269616E6365002059
:101610004465666C656374696F6E004175746F2D07
:101620006C6576656C2041646A0055415254310006
:1016300020205553420053657269616C20492F4F39
:1016400000457261736520456570726F6D0053448B
:10165000202D3E20456570726F6D00456570726F7C
:101660006D202D3E20534400456570726F6D005013
:1016700072696E742054696D653A202020682030AC
:10168000306D004C617374205072696E743A202082
:101690002020682030306D004C69666574696D6586
:1016A0003A202020202020682030306D00526573C1
:1016B000756D696E6720706F736974696F6E2E2E19
:1016C0002E00436C656172696E67206275696C6497
:1016D0002E2E2E20202000447261696E696E6720D4
:1016E000706970656C696E652E2E2E004C65617692
:1016F000696E672070617573652E2E2E2020202064
:101700000043616E63656C6C696E67207072696E10
:10171000742E2E2E2000456E746572696E672070DF
:10172000617573652E2E2E20202000506175736523
:10173000206174205A506F733A2000506C617466B7
:101740006F726D2054656D703A202020004C6566E4
:10175000742054656D703A20005269676874205493
:10176000656D703A2000546F6F6C68656164204F3E
:101770006666736574730020546F6F6C686561648E
:10178000204F66667365743A00204F666673657411
:101790003A0055702F446E2F4C6566742F4D20749F
:1017A0006F207365740055702F446E2F522F4C2F8D
:1017B0004D20746F207365740050726F66696C659C
:1017C000204E616D653A005361766520546F20505C
:1017D000726F66696C65004368616E6765204E6173
:1017E0006D6500446973706C617920436F6E666942
:1017F0006700526573746F72650052657365743A61
:101800002070726573732043454E544552004669FB
:101810006C2E20547269703A0046696C616D656E79
:10182000743A00547269703A004C6966653A004631
:10183000696C616D656E74204F646F6D657465725F
:101840000048656174657273204F66660043616E7F
:1018500063656C205072696E74005072696E7420FA
:1018600053746174697374696373004261636B20BC
:10187000746F204D6F6E69746F72006D006D6D0036
:10188000486F6D65204F6666736574730050726FA4
:1018900066696C65730046696C616D656E743A20AB
:1018A0002020202020302E306D6D0046696C616D47
:1018B000656E743A005072696E742054696D653AB1
:1018C00020202020206820206D0054656D706572F6
:1018D00061747572652072656164732020206F7574
:1018E00074206F662072616E67652E202020202094
:1018F0002020436865636B20776972696E672E00EC
:1019000054656D706572617475726520726561648D
:1019100073202020617265206661696C696E672E94
:101920002020202020202020436865636B207769D9
:1019300072696E672E0054656D70657261747572A0
:10194000652064726F7070696E67436865636B20B1
:10195000776972696E672E004E6F742068656174D6
:10196000696E672070726F7065726C794368656329
:101970006B20776972696E672E0054656D70206CFC
:10198000696D697420726561636865642E205368AF
:101990007574646F776E206F7220726573746172F4
:1019A000742E00506C6174666F726D204661696CB4
:1019B0007572652120202000546F6F6C2031204605
:1019C00061696C75726521202020202000546F6FA2
:1019D0006C2030204661696C7572652120202020C2
:1019E00020004578747275646572204661696C7573
:1019F0007265212020200048656174657273207330
:101A0000687574646F776E20647565746F20696E95
:101A100061637469766974790046696C616D656E9D
:101A200074206C6F61642F756E6C6F616463616E9E
:101A300063656C65642064756520746F20746865E7
:101A4000207072696F7220686561746572206572BA
:101A5000726F72004D792074656D70657261747576
:101A600072652077617320206368616E676564200A
:101A700065787465726E616C6C792E205265736541
:101A80006C6563742066696C616D656E74202020DE
:101A90006D656E7520746F2074727920616761695D
:101AA0006E2E0077616974696E67200020204E41B8
:101AB00020202020006572726F7221004F46462060
:101AC000202000435553544F4D005748495445205A
:101AD00000505552504C4500424C5545202000477F
:101AE0005245454E200050494E4B2020004F524158
:101AF0004E474500524544202020004C4544204399
:101B00006F6C6F757200536574204C6967687473ED
:101B1000204F4E2000536574204C69676874732011
:101B20004F4646002843616E6E6F74205072696E96
:101B30007420436F707929005072696E7420416E71
:101B40006F7468657220436F7079004D61696E2013
:101B50004D656E750053657420436F6F6C696E67D9
:101B60002046616E204F46460053657420436F6FD8
:101B70006C696E672046616E204F4E20004368619D
:101B80006E6765204842502054656D70004368615F
:101B90006E67652054656D7065726174757265005D
:101BA0004368616E676520537065656400506175B8
:101BB0007365206174205A506F7300446974746FA8
:101BC000205072696E74696E67004E2F4100502D6F
:101BD00053746F7020747269676765726564005032
:101BE0002D53746F7020496E766572746564005071
:101BF0002D53746F7020436F6E74726F6C00436866
:101C000065636B20534420526561647300457874AA
:101C1000727564657220486F6C64005061757365FD
:101C200020776974682048656174004F7665727228
:101C300069646520476354656D70004842502069AF
:101C40006E7374616C6C656400416363656C65728E
:101C50006174696F6E0045786974204D656E75001A
:101C6000536F756E640045787472756465722043B5
:101C70006F756E7400426F7420537461746973746D
:101C80006963730043616C696272617465204E6FB1
:101C90007A7A6C657300526573746F726520536550
:101CA0007474696E67730047656E6572616C20536A
:101CB000657474696E67730050726568656174203D
:101CC00053657474696E6773004C6576656C204269
:101CD00075696C6420506C61746500456E61626C5E
:101CE00065205374657070657273202000446973B9
:101CF00061626C652053746570706572730056651F
:101D00007273696F6E20496E666F726D6174696F70
:101D10006E0046696C616D656E74204C6F6164691C
:101D20006E6700486F6D652041786573004A6F6784
:101D3000204D6F6465004D6F6E69746F72204D6F3A
:101D40006465005574696C697469657300507265E7
:101D500068656174005072696E742066726F6D20E0
:101D6000534400492074696D6564206F7574207751
:101D700068696C65202020617474656D7074696E8B
:101D80006720746F206865617420206D7920706C05
:101D90006174666F726D2E00492074696D656420F0
:101DA0006F7574207768696C652020206174746594
:101DB0006D7074696E6720746F206865617420208F
:101DC0006D792065787472756465722E00556E6148
:101DD000626C6520746F207265616420534420201A
:101DE000206361726420706172746974696F6E73CC
:101DF000206F76657232474220696E2073697A657A
:101E00002E2020466F726D61746173204641542DFF
:101E10003136206F72202D33322E00556E61626C88
:101E20006520746F20726561642074686973205343
:101E300044206361726420666F726D61742E20208D
:101E4000202020466F726D617420617320464154DA
:101E50002D3136206F72204641542D33322E0053DF
:101E60004420636172642072656164206572726FE0
:101E7000722E20546F6F206D616E79204352432083
:101E80006572726F72732E426164206361726420A6
:101E9000636F6E7461637473206F72656C656374D5
:101EA000726963616C206E6F6973652E0053442004
:101EB000636172642072656164206572726F720082
:101EC00053442063617264206E6F74207072657376
:101ED000656E7400534420636172642069732065E9
:101EE0006D7074790043616E6E6F74206F70656EF3
:101EF000207468652066696C6500534420636172D4
:101F000064207265616473206172652020206E6FA9
:101F10007420676F696E672077656C6C2E20205483
:101F200072796120646966666572656E74206361AA
:101F300072640049276D20616C726561647920626A
:101F400075696C64696E6700436F6C6420506175DD
:101F5000736500556E7061757365005061757365CA
:101F600020200043616E63656C206C6F61642F7587
:101F70006E6C6F61643F0043616E63656C207468D2
:101F80006973207072696E743F0073657474696E52
:101F900067733F00526573746F7265206661637486
:101FA0006F727900506C6174666F726D2020202012
:101FB00020202020202020004C6566742045787465
:101FC00072756465722020202020200052696768A5
:101FD000742045787472756465722020202020007A
:101FE000457874727564657220202020202020209E
:101FF000202020005072657373206C656674207415
:102000006F2063616E63656C0045787472756465FA
:10201000723A2020202D2D2D2F2D2D2D4300506C78
:102020006174666F726D3A2020202D2D2D2F2D2D7D
:102030002D43004C2045787472756465723A202DEA
:102040002D2D2F2D2D2D430052204578747275644F
:1020500065723A202D2D2D2F2D2D2D4300202D2D55
:10206000250048656174696E673A20202020202091
:102070002020202020200048656174696E673A00A6
:10208000203C2D592020284D656E752920202020C8
:102090002020202000203C2D582020284D656E75E2
:1020A0002920205A2D3E20202000202020202020E2
:1020B0002020582D202020202020202020200020FB
:1020C0002020202020284D656E75292020592D3E86
:1020D000202020002020202020202020582B2020DD
:1020E00020202020202020200020202020204A6F97
:1020F00067206D6F64652020202020202000556E11
:102100006C6F6164206C65667400556E6C6F616401
:1021100020726967687400556E6C6F6164004C6F63
:102120006164004C6F6164206C656674004C6F6183
:10213000642072696768740035206D696E75746516
:102140002074696D656F757420686173656C61706A
:102150007365642E20205072657373207468652047
:1021600063656E74657220627574746F6E20746F2F
:102170002020202066696E6973682E0042656769B9
:102180006E206C6F6164696E67206F722020202062
:10219000756E6C6F6164696E672E20507265737323
:1021A0002074686563656E74657220627574746FFF
:1021B0006E207768656E202066696E697368656455
:1021C0002E004578747275646572732061726520A3
:1021D0006E6F7420202068656174696E672E202000
:1021E000436865636B2074686520776972696E6700
:1021F0002E00592041786973204C696E6500582083
:1022000041786973204C696E6500594553004E4F03
:102210002000446F6E650053656C656374206265D1
:102220007374206C696E65733A00457874727564D6
:10223000657200506C6174666F726D005475726ED9
:102240002048656174657273204F4646005374617F
:1022500072742050726568656174696E67004672B9
:102260006565205352414D20004F4646004F4E2099
:102270000000E529BF2D2C3511363C3DC13F5643AA
:102280000747A748F65B4B6D8470AF7B6A7C767D11
:10229000837F2D80CC928893DC99E3997A9A1C9B5A
:1022A000F49C049E42A28AA23BA503A90AA97FD35B
:1022B000E4D616D8F9D96CDAB9DBC6DBEFEBFBE173
:1022C00085EC91E201C08193EF3FF907E0F3D9F388
:1022D00011241FBECFEFD1E2DEBFCDBF00E00CBFA7
:1022E00016E0A0E0B2E0EEEEF5EC01E00BBF02C0BC
:1022F00007900D92A633B107D9F72BE1A6E3B6E01C
:1023000001C01D92AF3BB207E1F712E2CCEBD2E283
:1023100000E006C022970109FE010BBF0E94EEE11A
:10232000C237D10780E00807A9F70E9487350C94CF
:10233000F5E20C9400006BBFFA01DC0102C00790CB
:102340000D9221503040D8F708958091C208811134
:102350000CC08091C1088F5F8093C108853028F040
:1023600081E08093C20810925106089581E00E9496
:10237000573B80E00C94393B0E94B61160E08FEF30
:102380000E94C0771092BA061092B9061092BC064D
:102390001092BB061092BF061092C0060C947D31BD
:1023A000F8942091B9063091BA068091B7069091C1
:1023B000B806821B930B78940895FF920F931F9396
:1023C000CF93DF938C01EB01F42E82E699E00E941B
:1023D000ABC6B80182E699E00E9484C6BE0182E6DF
:1023E00099E00E9484C6E091F409EE0FFF0BEA51D8
:1023F000F64F808191818256994039F062E679E00A
:102400008AED99E00E94DEA204C082E699E00E9473
:10241000EAC6F092C109DF91CF911F910F91FF9011
:1024200008951092C109E091F409EE0FFF0BEA51F3
:10243000F64F808191818256994021F48AED99E08E
:102440000E949AA3E091F409EE0FFF0BEA51F64FB8
:1024500080819181DC01ED91FC910480F581E02D7A
:102460001994809102020895CF92DF92EF92FF9229
:102470000F931F93CF93DF93CDB7DEB7A0970FB61F
:10248000F894DEBF0FBECDBF8C0180915206882329
:1024900009F47EC0CE0101960E942B7260E070E0CC
:1024A000C8010E942040FC01C080D180E280F380FE
:1024B00060E070E0CE0101960E942040FC01808126
:1024C0009181A281B381C81AD90AEA0AFB0ACD8A8E
:1024D000DE8AEF8AF88E61E070E0C8010E94204039
:1024E000FC01C080D180E280F38061E070E0CE0129
:1024F00001960E942040FC0180819181A281B381DC
:10250000C81AD90AEA0AFB0AC98EDA8EEB8EFC8E4B
:1025100062E070E0C8010E942040FC01C080D180D0
:10252000E280F38062E070E0CE0101960E942040DC
:10253000FC0180819181A281B381A7019601281BB2
:10254000390B4A0B5B0BDA01C9012D8F3E8F4F8F80
:1025500058A34D895E896F89788D452B462B472B73
:1025600061F4498D5A8D6B8D7C8D452B462B472B05
:1025700021F4892B8A2B8B2B59F08091520683FFF3
:1025800005C0CE0145960E94014402C01092520639
:10259000A0960FB6F894DEBF0FBECDBFDF91CF91EE
:1025A0001F910F91FF90EF90DF90CF9008951092C0
:1025B0006F060895882311F080E401C080E88093BD
:1025C000B5066093B2061092C4081092C30808952D
:1025D00081E08093B10608958091B506181634F411
:1025E0008091B206882321F082E0089580E008956A
:1025F00081E008958091B506089581E09091B50637
:10260000923008F480E00895CF93DF93CDB7DEB722
:1026100064970FB6F894DEBF0FBECDBF60939906E6
:1026200070939A0680939B0690939C06CE01019628
:102630000E942B7262E070E0CE0101960E94194068
:10264000FC01408151816281738180919906909152
:102650009A06A0919B06B0919C06481759076A07F5
:102660007B071CF01092980603C081E080939806C7
:1026700064960FB6F894DEBF0FBECDBFDF91CF9149
:1026800008956091990670919A0680919B069091A9
:102690009C0608952091B9063091BA0681E0232B5B
:1026A00009F080E00895CF9360E070E0CB010E94D4
:1026B00004131092980610925E0610925F06109214
:1026C00060061092610610926206C1E0C09301029A
:1026D0001092C5081092B5061092B4061092B30677
:1026E0001092B206109288061092890610928A06FD
:1026F00010928B0610928C0610928D0610928E0608
:1027000010928F06109278061092790610927A062F
:1027100010927B0610927C0610927D0610927E0627
:1027200010927F0610927006109271061092720637
:1027300010927306109290061092910610929206D3
:102740001092930610929406109295061092960697
:1027500010929706109280061092810610928206BF
:1027600010928306109284061092850610928606B7
:1027700010928706109274061092750610927606D3
:102780001092770661E082E490E00E94B69B82306E
:1027900039F460E08FEF9FE00E94B69B81113BC04F
:1027A000109253061092590610925A0610925B0628
:1027B00010925C061092580610925406109255061C
:1027C00010925606109257061092C4081092C10833
:1027D0001092C208109251061092C30810926E0611
:1027E00010926D0610926A061092690610926C069D
:1027F00010926B061092680610926706109264069B
:1028000010926306109266061092650610925206A8
:10281000CF910C94AB44C0935306C4CF0E94531382
:1028200085E6809302021092BA061092B9061092C1
:10283000BC061092BB061092BF061092C006109202
:102840005006089581E090915006963009F080E09E
:1028500008958091520683FF16C09091000299233B
:1028600091F080915006833071F08091C2088823E6
:1028700051F0809151068F5F80935106981718F49C
:1028800081E08093C30808958F929F92AF92BF9288
:10289000DF92EF92FF920F931F93CF93DF93CDB709
:1028A000DEB7AA970FB6F894DEBF0FBECDBFD82E05
:1028B000882321F081E080936F0605C080916F0628
:1028C000882309F4E9C0CE0145960E942B7281E06D
:1028D00089A78AA77E0189E2E80EF11C03E010E0D7
:1028E0008BE59AE0FC01E759FF4F2081FC01222390
:1028F00019F026A137A104C0EC5AFF4F2081318185
:10290000232B61F148960E9421A0882339F1F70119
:1029100080818D11BCC0812C912C54018394402F57
:1029200060E070E080E090E40E943070A5019401C6
:102930000E94EEDF4B015C01B801CE0145960E947A
:102940002040FC014081518162817381480D591DF5
:102950006A1D7B1D4083518362837383043011059C
:1029600041F0EFEFEE1AFE0A8AED9AE004E010E083
:10297000B9CF60ED77E08CEE91E00E94C69BBC0180
:1029800080E090E00E943CDE20917B1530917C1528
:1029900040917D1550917E150E9442DF9B01AC0154
:1029A00060E074E284E799E40E9469DD0E940BDE36
:1029B0004B015C0180915306882329F18091B60672
:1029C00081110AC064E070E0CE0145960E9420406B
:1029D0008C0163E070E009C063E070E0CE014596D1
:1029E0000E9420408C0164E070E0CE0145960E9478
:1029F0002040FC0180819181A281B381F801808314
:102A00009183A283B383E12C00E010E09801B5012B
:102A1000A401CE0145960E948173D1103DC0CE0124
:102A200001960E942B7263E070E0CE0101960E9435
:102A300020408C0163E070E08DE996E00E94204028
:102A4000FC014081518162817381F801408351838F
:102A50006283738364E070E0CE0101960E9420409F
:102A60008C0164E070E08DE996E00E942040FC015A
:102A70004081518162817381F80140835183628377
:102A8000738360E0CE0101960E94A27105C0882484
:102A90008A94982C540143CFAA960FB6F894DEBFBF
:102AA0000FBECDBFDF91CF911F910F91FF90EF909F
:102AB000DF90BF90AF909F908F9008952F923F929C
:102AC0004F925F926F927F928F929F92AF92BF923E
:102AD000CF92DF92EF92FF920F931F93CF93DF93EA
:102AE000CDB7DEB7C856D1090FB6F894DEBF0FBE1A
:102AF000CDBF182FCE01CD960E94E43FCE0189961E
:102B00000E94E43F112309F4F6C0EDEFF4E1808167
:102B1000882309F477C2DF0111978C91882309F487
:102B200071C2BD9625E1E438F20789F784E1EDE949
:102B3000F6E0DE01559601900D928A95E1F7CE01FF
:102B400001960E942B7260E070E0CE0145960E94D3
:102B500020405C01409102155091031560910415CD
:102B6000709105158EE090E00E94DC9B6B017C016A
:102B700080E00E940C7020E030E040EA50E40E94C7
:102B800042DF0E940BDEC61AD70AE80AF90AF501ED
:102B9000C082D182E282F38261E070E0CE0145968C
:102BA0000E9420405C0140912F155091301560919A
:102BB00031157091321582E190E00E94DC9B6B012F
:102BC0007C0181E00E940C7020E030E040EA50E49B
:102BD0000E9442DF0E940BDEC61AD70AE80AF90AF1
:102BE000F501C082D182E282F38262E070E0CE0120
:102BF00045960E94204040915C1550915D15609172
:102C00005E1570915F15FC0140835183628373836D
:102C100062E070E0CE0101960E942040FC01C0807D
:102C2000D180E280F38062E070E0CE0145960E94A0
:102C30002040FC0180819181A281B3818C159D058A
:102C4000AE05BF05BCF462E070E0CE0145960E947F
:102C500020408C0162E070E0CE0101960E9420408D
:102C6000FC014081518162817381F801408351836D
:102C70006283738363E070E0CE0145960E9420403A
:102C80008C0163E070E0CE0101960E942040FC01BF
:102C90004081518162817381F80140835183628355
:102CA000738364E070E0CE0145960E9420408C0161
:102CB00064E070E0CE0101960E942040FC0140815A
:102CC000518162817381F8014083518362837383F0
:102CD000BE016B5E7F4FCE018F5A9F4F0E94647181
:102CE00084E1FE01EF5AFF4FDE01999601900D92AB
:102CF0008A95E1F757C084E1EDE9F6E0DE019996A7
:102D000001900D928A95E1F7CE0145960E942B72B3
:102D100064E070E0CE0189960E942040FC011081A1
:102D200001813280238063E070E0CE0189960E94A9
:102D30002040FC0180809180A280B38062E070E03E
:102D4000CE0145960E942040FC01C080D180E280E7
:102D5000F38061E070E0CE0145960E942040FC01C6
:102D6000408051806280738060E070E0CE014596C3
:102D70000E942040FC0140815181628173812F9229
:102D80003F920F931F9393018201CE0101960E94FF
:102D9000E53F60E0CE0101960E94A2710F900F9076
:102DA0000F900F90609152157091531580915415AA
:102DB000909155150E943EDE20E030E040E857E358
:102DC0000E9442DF20914E1530914F1540915015D1
:102DD000509151150E9442DF0E940BDEA9966CAF04
:102DE0007DAF8EAF9FAFA997CE018F5A9F4F0E94A4
:102DF0002B7284E1FE01EF5AFF4FDE01DD96019058
:102E00000D928A95E1F760E070E0CE01CD960E94C8
:102E10002040FC01C080D180E280F38060E070E05F
:102E2000CE0189960E942040FC0180819181A2817F
:102E3000B381A7019601281B390B4A0B5B0BCA0112
:102E4000B9010E943EDE2091F4143091F5144091B6
:102E5000F6145091F7140E9469DD2B013C0161E0EA
:102E600070E0CE01CD960E942040FC01C080D18050
:102E7000E280F38061E070E0CE0189960E942040FC
:102E8000FC0180819181A281B381A7019601281B59
:102E9000390B4A0B5B0BCA01B9010E943EDE20913F
:102EA00021153091221540912315509124150E942F
:102EB00069DD4B015C0162E070E0CE01CD960E94BD
:102EC0002040FC01C080D180E280F38062E070E0AD
:102ED000CE0189960E942040FC0180819181A281CF
:102EE000B381A7019601281B390B4A0B5B0BCA0162
:102EF000B9010E943EDE20914E1530914F15409150
:102F00005015509151150E9469DD6B017C01A301A0
:102F10009201C301B2010E9442DF2B013C01A501D5
:102F20009401C501B4010E9442DF9B01AC01C301C1
:102F3000B2010E94EEDC4B015C01A7019601C701C2
:102F4000B6010E9442DF9B01AC01C501B4010E94A1
:102F5000EEDC0E94A9DF4B015C01809153068823BF
:102F600029F18091B60681110AC064E070E0CE01BB
:102F700089960E9420407C0163E070E009C063E014
:102F800070E0CE0189960E9420407C0164E070E0F0
:102F9000CE0189960E942040FC0180819181A2810E
:102FA000B381F70180839183A283B38370901E164F
:102FB00010921E1660915215709153158091541500
:102FC000909155150E943EDE20E030E040E857E346
:102FD0000E9442DF20E030E040E852E40E9442DFFD
:102FE0000E940BDE6B018501740120E0A9964CADB7
:102FF0005DAD6EAD7FADA997CE0189960E94E87454
:1030000070921E16C859DF4F0FB6F894DEBF0FBE80
:10301000CDBFDF91CF911F910F91FF90EF90DF9087
:10302000CF90BF90AF909F908F907F906F905F9068
:103030004F903F902F900895EF92FF920F931F9320
:10304000CF93DF9398E0899FF0011124E857F94F5F
:10305000E080F18002811381D481C581B681E7814E
:103060009701A8016D2F7C2F8B2F9E2FA0E00E942F
:1030700037E244F40E94A7E179018A01D62FC72FD5
:10308000B82FE92F9701A8016D2F7C2F8B2F9E2F32
:10309000DF91CF911F910F91FF90EF9008956F9264
:1030A0007F928F929F92AF92BF92CF92DF92EF92D8
:1030B000FF920F931F93CF93DF93C82F0E941C188A
:1030C00059016A017B013C01A0E00E9437E209F04E
:1030D0000CF449C088E0C89FE00111244E0188E447
:1030E000881A8EEF980A00E010E020E030E040E01F
:1030F00050E060E070E0C4010E947D9C83010E946A
:1031000010E289019A01AB01BC01C4010E94CE9C6E
:10311000DE01A858B94FFE01E857F94F80818C9322
:10312000818111968C931197828112968C931297BC
:10313000838113968C931397848114968C931497A0
:10314000858115968C931597868116968C93169784
:10315000878117968C9310821182128213821482B7
:10316000158216821782DF91CF911F910F91FF90E8
:10317000EF90DF90CF90BF90AF909F908F907F9017
:103180006F90089580E00E944F1881E00C944F18D2
:10319000EF92FF920F931F93CF93DF9398E0899F55
:1031A000F0011124E858F94FE080F1800281138189
:1031B000D481C581B681E7819701A8016D2F7C2F4D
:1031C0008B2F9E2FA0E00E9437E244F40E94A7E1DB
:1031D00079018A01D62FC72FB82FE92F9701A801AF
:1031E0006D2F7C2F8B2F9E2FDF91CF911F910F91F1
:1031F000FF90EF900895CF92DF92EF92FF9280E0E0
:103200000E94C818E42F43E0B9018E2F952F0E9429
:1032100017706B017C0181E00E94C818E42F44E024
:10322000B9018E2F952F0E9417709B01AC01C70129
:10323000B6010E94EEDC6B017C0180E00E941C184C
:10324000E42F43E0B9018E2F952F0E9417709B0148
:10325000AC01C701B6010E94EEDC6B017C0181E08C
:103260000E941C18E42F44E0B9018E2F952F0E9474
:1032700017709B01AC01C701B6010E94EEDCFF9004
:10328000EF90DF90CF9008950F931F93CF93DF932C
:10329000082FCEE5D6E010E0888181110EC0812F85
:1032A0000E94F0778883002321F0812F0E94F67717
:1032B00004C064E1812F0E94EB771F5F21961530D7
:1032C00059F7DF91CF911F910F9108951F93CF93DD
:1032D000DF93CEE5D6E010E06881812F0E94EB7786
:1032E00019921F5F1530C1F7DF91CF911F9108959B
:1032F0000F931F93CF93DF93CDB7DEB769970FB6C8
:10330000F894DEBF0FBECDBF8091B506853409F4B9
:1033100000C190F5813409F456C0B8F4803209F444
:10332000C7C1803409F43FC0823009F0F6C10E9461
:1033300011126091B3067091B40621E040E086E37B
:1033400099E00E948C3981E051C0833409F445C072
:1033500008F04FC0CE0106960E942B7284E1FE0158
:103360003696ADE9B6E001900D928A95E1F781E0DD
:103370000E94441483E43AC0843809F460C150F4D4
:10338000813809F43EC1833809F44AC1803809F014
:10339000C4C1EAC0863809F46BC108F45FC187383C
:1033A00009F46BC1BAC10E943930853029F00E94FE
:1033B0003930843009F093C181E48093B50681E00F
:1033C0000E944419AAC18091810C9091800C891BA4
:1033D0008F7009F0A2C182E409C08091810C9091A4
:1033E000800C891B8F7009F098C184E48093B50626
:1033F00094C181E00E945E1585E48093B5060E9429
:103400003930853039F00E94393011E0843019F0BC
:1034100010E001C011E045E062E979E1CE010196DA
:103420000E948AD6CE0101960E94D7D680935D066F
:1034300080E00E94393B8091C40A882329F0809162
:10344000810A9091820A04C08091AF0A9091B00ADB
:1034500090936406809363068091430B882329F040
:103460008091000B9091010B04C080912E0B9091E4
:103470002F0B90936606809365068091570A8823E8
:1034800029F08091140A9091150A04C08091420A93
:103490009091430A90936806809367068091B206E4
:1034A000811125C160E08EEF9FE00E94B69B8823CA
:1034B00009F41DC18091B206882351F021E040E05B
:1034C00060E080E00E942C7E60E088EF0E94C07780
:1034D0006091B3067091B4066115710569F0809131
:1034E000C508882319F081E097E104C01111FBCFD2
:1034F00086E197E141E00AC0112319F081E097E1EC
:1035000002C086E197E141E062EC76E10E94DD11C4
:1035100004C18091810C9091800C891B8F7009F0FF
:10352000FCC00E9466198091C508882311F080E2D2
:1035300009C08091B3069091B406892B11F082E006
:1035400001C081E08093B5060E9411120E943930BB
:10355000853009F4E2C00E943930843009F4DDC0BE
:1035600087E00E94683FD9C080E00E944419009122
:103570006D0610916E060115110521F40091670684
:10358000109168061016110654F460E086E09AE087
:103590000E9484A0B80186E09AE00E94519F0091A9
:1035A000690610916A060115110521F40091630660
:1035B000109164061016110654F460E083E79AE057
:1035C0000E9484A0B80183E79AE00E94519F009175
:1035D0006B0610916C060115110521F4009165062A
:1035E000109166061016110654F460E082EF9AE01E
:1035F0000E9484A0B80182EF9AE00E94519F81E866
:10360000F5CE8091670690916806181619060CF0A1
:1036100071C086E09AE00E9421A081116BC07DC03C
:103620008091630690916406181619060CF064C028
:1036300083E79AE00E9421A081115EC06EC081E004
:103640000E94441980E00E945E1585E88093B506CB
:1036500041E06DEA76E18CEE96E158CF8091810CE5
:103660009091800C891B8F7009F057C086E8BECE00
:1036700080E00E94441487E8B9CE8091810C90913B
:10368000800C891B8F7009F048C080915D060E94F4
:10369000393B0E9466190E9411121092B5061092D1
:1036A000B4061092B3061092C4081092C30835C035
:1036B0000E9411126091B3067091B40621E040E0BF
:1036C00086E399E00E948C390E946E411092B40604
:1036D0001092B3061092C5081092B5061EC041E0C4
:1036E00067ED76E186E197E10E94DD1165CE0E94EB
:1036F000B611E0CE83E87ACE809165069091660699
:103700001816190634F482EF9AE00E9421A088234B
:1037100021F00E94661984E869CE69960FB6F89484
:10372000DEBF0FBECDBFDF91CF911F910F910895E6
:10373000CF92DF92EF92FF92CF93DF93C09102027C
:10374000C53609F453C0CC2309F450C0D0915806B3
:10375000CD1709F44BC0DD2309F448C0609154062D
:103760007091550680915606909157066115710526
:1037700081059105D9F10E943CDE6B017C016C2F23
:1037800070E06D1B7109882777FD8095982F0E9446
:103790003EDE9B01AC01C701B6010E9469DD6B01F1
:1037A0007C016C2F70E080E090E00E943CDE9B0189
:1037B000AC0160E070E088EC92E40E94EDDC9B01DB
:1037C000AC01C701B6010E9442DF6B017C0120E021
:1037D00030E0A9010E9465DD87FF03C0C12CD12C18
:1037E0007601C701B6010E940BDE03C060E070E005
:1037F000CB01DF91CF91FF90EF90DF90CF900895B4
:10380000FC01CB0124813581820F931F608171817E
:103810000E940AE026813781820F931F08951F932B
:10382000CF93DF93EC01162F2A813B818881998108
:103830002817390768F46A817B81CE010E94001C39
:10384000FC0110838A819B8101969B838A8302C03D
:1038500081E08887DF91CF911F910895682F87EBD2
:1038600096E00C940F1CCF93DF93EC018A819B812F
:10387000892B21F481E0898780E016C060E070E048
:10388000CE010E94001CFC018C819D810196688103
:1038900079810E940AE09D838C832A813B8121509B
:1038A00031093B832A838081DF91CF91089587EB93
:1038B00096E00C94331CCF9387EB96E00E94331C68
:1038C000C82F87EB96E00E94331C982F8C2FCF9146
:1038D00008951F93CF93DF931F921F92CDB7DEB74A
:1038E00087EB96E00E94331C682F87EB96E06A8393
:1038F0000E94331C782F87EB96E079830E94331C5B
:10390000182F87EB96E00E94331C982F6A817981EB
:10391000812F0F900F90DF91CF911F910895DF922B
:10392000EF92FF920F931F93CF93DF93C82F61E025
:1039300070E087EB96E00E94001CFC01D080CF3F36
:1039400009F0DC2E62E070E087EB96E00E94001C3C
:10395000FC0180818D3009F476C048F48C3008F089
:103960005EC0843008F04FC0833069F0C0C087313A
:1039700009F44BC020F4803108F445C0B8C08F3141
:1039800009F46DC0B4C064E070E087EB96E00E947B
:10399000001CFC01C081D0E065E070E087EB96E0A0
:1039A0000E94001CFC01808190E0982F8827C80F9E
:1039B000D91F209719F40E94C21814C00D2D10E0D1
:1039C0007801EE0CFF1CF701E759F94F80819181D6
:1039D000892B09F08EC060E08DEF9FE00E94B69BBE
:1039E000811187C0F1E0DF1203C08AED9AE002C0C6
:1039F0008BE59AE0BE0148960E94519F8091720B20
:103A00008E7F8093720B11E08BC00E94EC1291E0CC
:103A1000811190E060E0892F0E949931F4CF64E039
:103A200070E087EB96E00E94001CFC0160816170F1
:103A3000F1E0DF1203C08AED9AE002C08BE59AE064
:103A40000E94949DE0CF64E070E087EB96E00E94D6
:103A5000001CFC01808181700E94393BD4CF0E9400
:103A6000EE2C182F882379F264E070E087EB96E063
:103A70000E94001CFC01C081D0E065E070E087EB93
:103A800096E00E94001CFC01208130E0322F2227AA
:103A9000C20FD31F2097D9F020916D0630916E068A
:103AA000232B39F460E08DEF9FE00E94B69B8823C2
:103AB00071F020916D0630916E062115310571F57A
:103AC00064E670E08CE591E00E94C69BEC01BE01CB
:103AD00086E09AE00E94519F61E086E399E00E94AF
:103AE000343B8091720B8E7F8093720B19C010E073
:103AF00017C0F701E759F94F2081318121153105B0
:103B000051F4C801880F991F66EE70E0885A9E4FE5
:103B10000E94C69B01C0C901EC0164CFC901D6CF88
:103B2000812FDF91CF911F910F91FF90EF90DF9048
:103B300008952F923F924F925F926F927F928F9251
:103B40009F92AF92BF92CF92DF92EF92FF920F932C
:103B50001F93CF93DF93CDB7DEB7C757D1090FB609
:103B6000F894DEBF0FBECDBF0E940D41882381F0C7
:103B70008091B9069091BA062091B7063091B806A7
:103B80002817390711F10E945C418111ACC61DC094
:103B90000E94107C8823A1F18091B9069091BA0609
:103BA0002091B7063091B8062817390709F4A3C643
:103BB0000E941E7C882309F49EC60E942C7C682FDC
:103BC00087EB96E00E940F1CE7CF0E945C418111B9
:103BD00017C080910302882309F47BC69091B50633
:103BE000911177C691E09093C508813009F069C6BC
:103BF00080EC9EE19093B4068093B3060E94BC11C2
:103C00008091990690919A06A0919B06B0919C068E
:103C1000892B8A2B8B2B19F18091980681111FC05B
:103C2000CE0101960E942B7262E070E0CE010196F7
:103C30000E941940DC014D915D916D917C918091C4
:103C4000990690919A06A0919B06B0919C06481700
:103C500059076A077B071CF481E0809398068091DE
:103C6000990690919A06A0919B06B0919C06892B8B
:103C70008A2B8B2B79F180919806882359F10E9429
:103C8000EC12811127C0CE0101960E942B7262E0D6
:103C900070E0CE0101960E941940FC0140815181E3
:103CA000628173818091990690919A06A0919B06FA
:103CB000B0919C06481759076A077B075CF060E0E3
:103CC00070E0CB010E94041360E081E00E94993112
:103CD0000C94CB291091B506123020F00E9478196F
:103CE0000C94CB291130F9F48091B20681110C9417
:103CF000CB298091B10681110C94CB2982EC99E0FB
:103D00000E9435DA882311F40C94CB291093B20663
:103D10000E94B61121E040E060E080E00E942C7E2D
:103D200060E088EF09C680915006833071F40E94EC
:103D30009770882341F084E496E00E9435DA882366
:103D400021F00E94777B109250068091C408811167
:103D500004C08091C308882329F18091C208882378
:103D600009F1809150068330E9F08091B506811108
:103D700019C00E94EC12811111C08091C3088823E0
:103D800019F089E894E102C08EEC9BE19093B406AF
:103D90008093B30661E081E00E9499311092C408DB
:103DA0001092510680915006813031F40E94977034
:103DB000811102C01092500680915006823039F471
:103DC0008AE496E00E9435DA8111109250068091C3
:103DD0005006843009F051C08EE396E00E9435DA37
:103DE000882349F020E040E068E97DE186E399E03E
:103DF0000E948C3940C08091B606813019F48AED5A
:103E00009AE002C08BE59AE048960E944DA081118D
:103E100013C080915306882371F18091B6068823E0
:103E200019F08BE59AE002C08AED9AE048960E946C
:103E30004DA0811122C01FC08091B606813019F4B7
:103E40008AED9AE002C08BE59AE048960E9421A094
:103E5000882399F080915306882369F08091B606F3
:103E6000882319F08BE59AE002C08AED9AE0489623
:103E70000E9421A081111092500680915006853039
:103E8000E1F48EE396E00E9435DA882349F020E0E1
:103E900040E063E67DE186E399E00E948C394FC5FE
:103EA00086E09AE00E944DA0882309F448C586E088
:103EB0009AE00E9421A0811142C58091500686306F
:103EC00091F588E396E00E9435DA882391F080919D
:103ED000360681FF06C060E086E399E00E94473D18
:103EE00022C0109250068091720B8F7E8093720BCD
:103EF0001AC08AED99E00E9430A58823A1F0809134
:103F0000360682FF04C08AED99E00E949AA30E94BF
:103F1000283D8091720B8F7E8093720B8FEF0E94F1
:103F2000FF7E109250068091500681110C94CB298F
:103F30008091B9069091BA06892B11F40C94CB2983
:103F400086E399E00E94953960E070E087EB96E0A7
:103F50000E94001CDC011C911B3809F4D0C61E38DD
:103F600009F4F4C41B3909F485C7193809F4D1C41C
:103F7000163811F40C9476291C3811F40C9420296D
:103F80000DE7010F1C3909F4C1C0103909F4BEC096
:103F9000023008F4BBC0183809F4B8C0143949F429
:103FA0008091B9069091BA06059710F40C94CB292C
:103FB00009C0163909F4AAC00E94C55A81112EC041
:103FC0000C94CB290E94571C0E94571C80933706E3
:103FD0000E945B1C8C010E94571C809336060115C1
:103FE000110571F0D80120E432E44FE050E00E9466
:103FF00088E0AB01BC0188E396E00E9403DA74C05C
:10400000CE0101960E9400DA86E0FE013196A8E317
:10401000B6E001900D928A95E1F766C0153811F46B
:104020000C948629153909F071C08091B9069091D8
:10403000BA06069710F40C94CB290E94571C0E94D4
:10404000571C082F0E94571CE82E0E94571CF82E60
:104050000E94571C182F00FD04C082E699E00E94C0
:10406000ABC6E0926509F092660967EB76E082E6FE
:1040700099E00E9447D301FD02C00C94CB29E09146
:10408000F409EE0FFF0BEA51F64F208131812256E1
:10409000394011F40C94A02962E679E08AED99E0A8
:1040A0000E94DEA2047011110C94A629002311F4C1
:1040B0000C94CB29112311F40C94AF29A12FB0E05B
:1040C00020E432E44FE050E00E9488E0AB01BC0104
:1040D00088E396E00E9403DA81E0809337068091BE
:1040E00036068470809336060E941E3D6091370626
:1040F0008AED99E00E942DA58091720B80618093DA
:10410000720B86E0809350060C94CB29023070F538
:104110008091B9069091BA06089710F40C94CB29B7
:104120000E94571C0E94571C082F0E94691C6B019B
:104130007C010E945B1CDC0183E08093500620E43C
:1041400032E44FE050E00E9488E0AB01BC0184E41F
:1041500096E00E9403DA81E0143809F080E0A701BC
:104160009601602F0E9414770C94CB29173849F5DB
:104170008091B9069091BA06069710F40C94CB2959
:1041800084E08093500681E08093C208109251062B
:104190000E94571C0E94571C8093B6060E945B1C0D
:1041A0000E945B1CDC0120E432E44FE050E00E94FE
:1041B00088E0AB01BC018EE396E00E9403DA0C9428
:1041C000CB291D38A9F48091B9069091BA060697BB
:1041D00010F40C94CB2985E08093500681E0809305
:1041E000C208109251060E94571C0E94571CD6CF3D
:1041F0001F3809F09DC08091B9069091BA060297C8
:1042000010F40C94CB290E94571C0E94571C982E26
:10421000CE0101960E942B720EE010E0E12CF12CF1
:10422000C92CD12C96010E2C02C0359527950A94E5
:10423000E2F720FF17C0B701CE0101960E9420408F
:10424000DC014D915D916D917C914AA75BA76CA7B4
:104250007DA7F89444E050E0B801CE018A960E9410
:10426000D0E27894BFEFEB1AFB0A0C5F1F4FE3E03C
:10427000EE16F104B9F6992011F40C94CB29892D8E
:10428000887198120C94CB29F8E09F1629F020E150
:10429000921621F012E003C010E001C011E081E0AD
:1042A00090E0012E01C0880F0A94EAF7909152061F
:1042B000982B9093520660E070E0CE0101960E9428
:1042C0002040FC0180819181A281B3818AA79BA7B4
:1042D000ACA7BDA761E070E0CE0101960E9420402E
:1042E000FC0180819181A281B3818EA79FA7A8AB99
:1042F000B9AB62E070E0CE0101960E942040FC0163
:1043000080819181A281B3818AAB9BABACABBDAB09
:10431000F894FCE01F9FB00111246659704F4CE0E7
:1043200050E0CE018A960E94D0E278940C94CB297A
:10433000103909F02AC18091B9069091BA06029706
:1043400010F40C94CB290E94571C0E94571C282F54
:10435000CE018A96E5962FAFE5970E942B72E596DF
:104360002FADE597283109F070C080915206877013
:10437000873009F043C0F89444E050E066E170E013
:10438000CE01CE960E94ACE249E250E065E67FE0C5
:10439000CE0101960E94ACE278948A819B81AC8127
:1043A000BD81181619061A061B0644F088EC90E029
:1043B000A0E0B0E08A839B83AC83BD8322962CADC2
:1043C0003DAD4EAD5FAD22976A817B818C819D8131
:1043D000DE015E966D01FE0172967F018E010A5F1D
:1043E0001F4F0E94DD44882339F080915206886077
:1043F0008093520610E003C012E001C011E0F8946F
:1044000001E0111101C000E0602F85E69FE00E94ED
:10441000DAE27894002309F4BEC7113019F48AE86F
:1044200095E10CC00E94FE466D3F7F4F8F4F9F4F1E
:1044300019F48FEA95E102C08AED94E19093B406F5
:104440008093B3060E94BC11A6C7283009F044C06F
:10445000F89444E050E066E170E0CE018C5B9F4F41
:104460000E94ACE249E250E065E67FE0CE010196B1
:104470000E94ACE278948CE390E0A0E0B0E08A8304
:104480009B83AC83BD838E01025E1F4F9E012E5E17
:104490003F4FAE014A5F5F4F6CE370E080E090E019
:1044A0000E94464440E061E075E1882319F083E40E
:1044B00095E102C082E295E10E94DD11CE01CE9627
:1044C0000E9400DA86E0FE01FE96A8E3B6E00190C5
:1044D0000D928A95E1F700CE203119F40E94AB4489
:1044E0005AC70EE010E0E12CF12CC22ED12CC601EF
:1044F0000E2C02C0959587950A94E2F780FF0CC0B8
:10450000F894B701CE018A960E94204044E050E022
:10451000B8010E94ACE278942FEFE21AF20A0C5F25
:104520001F4F33E0E316F10411F763E070E0CE01B2
:104530008A960E942040FC0180819181A281B381F2
:104540008093700690937106A0937206B0937306E1
:1045500064E070E0CE018A960E942040FC018081D8
:104560009181A281B3818093740690937506A09384
:104570007606B0937706CE018A960E94341261E0E7
:10458000CE018A960E94A27106C7113999F48091D2
:10459000B9069091BA06039708F4FDC60E94571C0D
:1045A0000E94571C182F0E94571C682F812F0E94B1
:1045B000EB77F1C6123921F58091B9069091BA06D0
:1045C000069708F4E8C60E94571C0E94571C182F33
:1045D0000E94571CE6968FAFE6970E94571CE596FF
:1045E0008FAFE5970E94571C0E94571CE5964FAD70
:1045F000E597E6966FADE697812F0E946F7FCBC659
:104600001339B1F48091B9069091BA06069708F46F
:10461000C2C60E94571C0E945B1C8C010E945B1C3E
:104620007C010E94571CB701C8010E94073FB3C616
:10463000183809F062C08091B9069091BA060497C3
:1046400008F4A9C663E070E087EB96E00E94001CC6
:104650002091B9063091BA06DC01EC90F12CB4E05F
:10466000EB0EF11C2E153F0508F495C680915306FC
:10467000882339F080910102882319F010920102F9
:1046800003C081E08093010262E070E087EB96E076
:104690000E94001CFC018081833059F062E070E0D0
:1046A00087EB96E00E94001CDC018C918C3009F0B5
:1046B00049C18091010281110DC061E070E087EB7A
:1046C00096E00E94001CFC0181E09081992319F082
:1046D00080E001C08FEF0E948F1C8091010288232F
:1046E00009F459C610E0812F90E08E159F0508F05F
:1046F00052C60E94571C1F5FF6CF163909F041C001
:104700008091B9069091BA06039708F444C60E94B6
:10471000571C0E94571C809302020E94571C8091D4
:1047200002028823F1F08091590690915A06A091D7
:104730005B06B0915C06892B8A2B8B2B91F48091C0
:10474000580681110EC00E949130609359067093F3
:104750005A0680935B0690935C06809102028093D8
:10476000580680910202882309F415C60E949130F0
:10477000609354067093550680935606909357069F
:104780000AC61739B9F48091B9069091BA06029712
:10479000B8F10E94571C0E94571C811102C084E08E
:1047A00006C0813019F40E94683F2AC082E00E944E
:1047B000A33F26C0183999F48091B9069091BA06A2
:1047C000029708F4E8C50E94571C0E94571C0E94DB
:1047D000EC2B60E086E399E00E94473DDCC5193987
:1047E00091F48091B9069091BA06059708F4D3C563
:1047F0000E94571C0E94691C87EB96E00E94F134CE
:104800001092C208C8C51A3971F48091B906909106
:10481000BA06029708F4BFC50E94571C0E94571C95
:104820000E94F330EDCF1C3999F48091B906909134
:10483000BA06029708F4AFC50E94571C0E94571C85
:1048400091E0813009F090E0892F0E94FB77A3C5A9
:104850001D39A1F48091B9069091BA06459708F4E4
:104860009AC50E94691C0E94691C0E94691C0E94D2
:10487000691C0E94691C0E94571C8DC51E3909F0D5
:104880008AC58091B9069091BA06059708F483C548
:104890000E94571C0E94691C6B017C012FE632E1CB
:1048A00043E85AE30E9465DD87FF03C0C12CD12C89
:1048B000760142E0C701B6010E9430700E940413E5
:1048C0006AC58B3019F48FE59EE194C98DEA9EE1AB
:1048D00091C98091B3069091B406892B09F090C9D3
:1048E0000E946E418DC90E945F41682F87EB96E060
:1048F0000E940F1C3DC90E941E7C811181C98091BC
:10490000B9069091BA06892B09F07AC90E94677C92
:1049100077C98091B9069091BA06029708F43BC511
:104920000E94571C0E94571C9091530691111FC55D
:10493000682F661F6627661F0E94C0772CC51092DD
:104940005006BBCA81E080930102B3CE8091B906C4
:104950009091BA064A9708F41EC50E94571C81E040
:10496000809350060E94691CA0966CAF7DAF8EAFFD
:104970009FAFA0970E94691CA4966CAF7DAF8EAFCD
:104980009FAFA4970E94691CA8966CAF7DAF8EAFB5
:104990009FAFA8970E94691C4B012D968FAF2D9752
:1049A00061969FAF61970E94691C65966FAF65978E
:1049B000272E69968FAF69976A969FAF6A970E9474
:1049C000691CAC966CAF7DAF8EAF9FAFAC970E9469
:1049D000571C382E80915306882309F455C08091C6
:1049E000B606811117C0832D8F7E33FE2AC08061E9
:1049F000382E65968FAE6597292C2D963FAD2D9755
:104A000069963FAF699761964FAD61976A964FAFD0
:104A10006A973AC0832D877F34FE25C08860382E80
:104A200065968FAC6597922C69965FAD69972D96C8
:104A30005FAF2D976A968FAD6A9761968FAF61973A
:104A400023C0382E65968FAE6597292C2D969FAD85
:104A50002D9769969FAF69976196AFAD61976A96FA
:104A6000AFAF6A9711C0382E65968FAC6597922CC0
:104A70006996BFAD69972D96BFAF2D976A96EFAD3A
:104A80006A976196EFAF61978AA69BA62D96FFADB8
:104A90002D97FCA761962FAD61972DA765963FAD29
:104AA00065973EA72FA669964FAD699748AB6A9662
:104AB0005FAD6A9759ABA8E8B6E0E296BFAFAEAF7C
:104AC000E2972E01BAE24B0E511C80E7682E86E079
:104AD000782EE3E0F0E06C96FFAFEEAF6C97A32D7D
:104AE000B0E0AE96BFAFAEAFAE97AE968EAD9FAD17
:104AF000AE976B960FAC6B9702C0959587950A940D
:104B0000E2F7D2012D913D914D915C912C962CAF05
:104B10003DAF4EAF5FAF2C9780FF42C069017A0175
:104B2000FF0CCC08DC2C760129962FAD29972A960C
:104B30003FAD2A972B964FAD2B972C965FAD2C97B8
:104B40006C2D7C2D8C2D9C2DE296EEADFFADE29769
:104B5000A080B180C280D380E480F5800681178177
:104B60000E9410E2208331834283538364837583E0
:104B700086839783D3014D915D916D917C912C96A5
:104B80008CAD9DADAEADBFAD2C97480F591F6A1FC0
:104B90007B1FD3014D935D936D937C93139752C00C
:104BA000F301C080D180E280F380DA01C9018C1961
:104BB0009D09AE09BF096C017D01FF0CCC08DC2CFE
:104BC00076019C01AD016C2D7C2D8C2D9C2DE296E7
:104BD000AEADBFADE297AC901196BC901197129616
:104BE000CC9012971396DC9013971496EC90149730
:104BF0001596FC90159716960C91169717961C9182
:104C000017970E9410E22C9311963C9311971296DD
:104C10004C93129713965C93139714966C93149776
:104C200015967C93159716968C93169717969C93CA
:104C30002C962CAD3DAD4EAD5FAD2C9720833183CE
:104C4000428353836C96EEADFFAD6C9731966C96B4
:104C5000FFAFEEAF6C97E296AEADBFADE2971896A0
:104C6000E296BFAFAEAFE297B4E04B0E511CE4E06A
:104C70006E0E711C6C96AEADBFAD6C97159709F0BA
:104C800034CF0E94A5116A96BFAD6A97BF9369960B
:104C9000EFAD6997EF932F926596FFAD6597FF9300
:104CA0002D96AFAC2D976196BFAC6197A896CCAC12
:104CB000DDACEEACFFACA897A4960CAD1DAD2EAD4F
:104CC0003FADA497A0964CAD5DAD6EAD7FADA09706
:104CD000CE0101960E94E53FE32CAC960CAD1DADD4
:104CE0002EAD3FADAC9740E050E0BA01CE01019649
:104CF0000E9481730F900F900F900F904CC3809182
:104D0000B9069091BA06499708F445C30E94571C0A
:104D100081E0809350060E94691C2C966CAF7DAF99
:104D20008EAF9FAF2C970E94691C60966CAF7DAFD1
:104D30008EAF9FAF60970E94691C64966CAF7DAF89
:104D40008EAF9FAF64970E94691C4B01382E292EAD
:104D50000E94691C2B013C010E94691C68966CAF83
:104D60007DAF8EAF9FAF689780915306882359F02F
:104D70008091B606811104C02401632C722C03C0FB
:104D80004201362C272C8092700690927106309248
:104D90007206209273068091740690917506A09118
:104DA0007606B0917706A3019201281B390B4A0BB6
:104DB0005B0BDA01C90169017A01FF0CCC08DC2C1C
:104DC00076019C01AD016C2D7C2D8C2D9C2DA0902D
:104DD0009006B0909106C0909206D0909306E09015
:104DE0009406F090950600919606109197060E9401
:104DF00010E22093900630939106409392065093D0
:104E0000930660939406709395068093960690930C
:104E100097064092740650927506609276067092DC
:104E200077060E94A5117F926F925F924F92A32CFA
:104E3000B22C6496CCACDDACEEACFFAC6497609663
:104E40000CAD1DAD2EAD3FAD60972C964CAD5DAD5C
:104E50006EAD7FAD2C97CE0101960E94E53FE12C0F
:104E600000E010E0980168964CAD5DAD6EAD7FAD91
:104E700068973CCF8091B9069091BA06809708F464
:104E80008AC20E94571C81E0809350060E94691CD0
:104E9000A0966CAF7DAF8EAF9FAFA0970E94691CAC
:104EA000A4966CAF7DAF8EAF9FAFA4970E94691C94
:104EB000A8966CAF7DAF8EAF9FAFA8970E94691C7C
:104EC0004B0161968FAF6197392E0E94691C6596E0
:104ED0006FAF6597272E69968FAF69976A969FAFD8
:104EE0006A970E94691CAC966CAF7DAF8EAF9FAF86
:104EF000AC970E94571C182F0E94691CE0966CAF5B
:104F00007DAF8EAF9FAFE0970E945B1CE2969FAF94
:104F10008EAFE29780915306811105C01F772996C5
:104F20001FAF29974BC08091B606811116C0212F63
:104F30002F7629962FAF299713FF25C02061299638
:104F40002FAF299765968FAE6597292C61963FAD57
:104F5000619769963FAF699720C0412F477729969F
:104F60004FAF299714FF1DC0486029964FAF29976E
:104F700065968FAC6597922C69965FAD699761963F
:104F80005FAF619718C065968FAE6597292C6196C3
:104F90008FAD619769968FAF69976A963FAE6A97B2
:104FA0000DC065968FAC6597922C69969FAD6997F9
:104FB00061969FAF61976A963FAC6A978AA69BA657
:104FC0006196AFAD6197ACA73DA66596BFAD6597FD
:104FD000BEA72FA66996EFAD6997E8AB6A96FFADBD
:104FE0006A97F9ABA8E8B6E0E896BFAFAEAFE8972E
:104FF0002E01BAE24B0E511CF0E76F2EF6E07F2E29
:10500000E3E0F0E06C96FFAFEEAF6C972996BFAD92
:105010002997AB2FB0E0E496BFAFAEAFE497E4962C
:105020008EAD9FADE4976B960FAC6B9702C09595D4
:1050300087950A94E2F7D2012D913D914D915C91B3
:1050400060962CAF3DAF4EAF5FAF609780FF42C020
:1050500069017A01FF0CCC08DC2C76012D962FAD6E
:105060002D972E963FAD2E972F964FAD2F9760968A
:105070005FAD60976C2D7C2D8C2D9C2DE896EEAD50
:10508000FFADE897A080B180C280D380E480F58036
:10509000068117810E9410E220833183428353836B
:1050A0006483758386839783D3014D915D916D9160
:1050B0007C9160968CAD9DADAEADBFAD6097480F55
:1050C000591F6A1F7B1FD3014D935D936D937C9392
:1050D000139752C0F301C080D180E280F380DA01DF
:1050E000C9018C199D09AE09BF096C017D01FF0C36
:1050F000CC08DC2C76019C01AD016C2D7C2D8C2D17
:105100009C2DE896AEADBFADE897AC901196BC90E3
:1051100011971296CC9012971396DC9013971496D1
:10512000EC9014971596FC90159716960C9116977F
:1051300017961C9117970E9410E22C9311963C939E
:10514000119712964C93129713965C93139714969B
:105150006C93149715967C93159716968C931697C7
:1051600017969C9360962CAD3DAD4EAD5FAD6097AC
:1051700020833183428353836C96EEADFFAD6C97F1
:1051800031966C96FFAFEEAF6C97E896AEADBFADC3
:10519000E8971896E896BFAFAEAFE897B4E04B0E2D
:1051A000511CE4E06E0E711C6C96AEADBFAD6C97F9
:1051B000159709F034CF0E94A51170901E162996FC
:1051C000BFAD29977B2A6A96EFAD6A97EF936996F0
:1051D000FFAD6997FF932F9265962FAD65972F933B
:1051E0006196AFAC6197B32CA896CCACDDACEEACBD
:1051F000FFACA897A4960CAD1DAD2EAD3FADA49706
:10520000A0964CAD5DAD6EAD7FADA097CE01019681
:105210000E94E53FE296CEACDFACE297E096ECACC4
:10522000FDAC0EAD1FADE097272DAC964CAD5DAD3E
:105230006EAD7FADAC97CE0101960E94E8745ACD59
:105240008091B9069091BA06459708F4A4C00E94CF
:10525000571C0E94691C2B013C010E94691C2C9662
:105260006CAF7DAF8EAF9FAF2C970E94691C6B0116
:105270007C010E94691C4B015C010E94691C209109
:105280005306222349F02091B606211103C0B40130
:10529000C50102C04B015C018092700690927106BC
:1052A000A0927206B09273066093740670937506AE
:1052B00080937606909377069F938F937F936F9357
:1052C0002C960CAD1DAD2EAD3FAD2C97B301A201B8
:1052D000CE0101960E94E53FCE0101960E94341254
:1052E00060E0CE0101960E94A27104CD8091B906C2
:1052F0009091BA06029708F44EC00E94571C0E9473
:10530000571C8093B6060E94FE7745C08091B9066F
:105310009091BA06059708F43EC082E0809350064B
:105320000E94571C0E94691C9B01AC01A8EEB3E0CF
:105330000E9488E0AB01BC018AE496E00C94DD2079
:1053400082E699E00E94EAC60C94522001110C9466
:105350005620612F82E699E00E94DAC61CC0CE0179
:1053600001960E9400DA86E0FE013196AEC8909167
:10537000B606911107C0982F9F7E83FF0AC0892F20
:105380008061D6CA982F977F84FF03C0892F8860D9
:10539000CFCA892FCDCAC958DF4F0FB6F894DEBFE8
:1053A0000FBECDBFDF91CF911F910F91FF90EF9076
:1053B000DF90CF90BF90AF909F908F907F906F9035
:1053C0005F904F903F902F90089540E060E979E121
:1053D00086EC98E00E948AD680E092E09093B8062E
:1053E0008093B7061092BA061092B9061092BC06C6
:1053F0001092BB0681EC96E09093BE068093BD06AA
:105400001092BF061092C0068DE996E00E94E43F1C
:105410008AE496E00E9400DA84E496E00E9400DAD2
:105420008EE396E00E9400DA88E396E00C9400DABE
:10543000CF93DF931F921F92CDB7DEB721E0298370
:1054400022E32A8342E050E0BC01CE0101960E9493
:10545000D0E20F900F90DF91CF910895CF93DF931B
:10546000EC0140E050E060EE70E40E94439C46E6B0
:1054700056E666EA7EE3CE0102960E94439C40E037
:1054800050E060E172E4CE010496DF91CF910C947C
:10549000439CCF93DF93EC010A960E942E2ACE0103
:1054A00040960E942E2ACE014A96DF91CF910C940D
:1054B000182A0F931F93CF93DF9300D0CDB7DEB799
:1054C0008C0167E00E94DAE261E0C80102960E9466
:1054D000DAE28FEF89838A838B83B8016C5F7F4F19
:1054E00043E050E0CE0101960E94D0E20F900F9071
:1054F0000F90DF91CF911F910F91089567E080E4A5
:1055000091E00C94B69B682F80E491E00C94DAE271
:105510000F931F93CF93DF9300D01F92CDB7DEB7C9
:10552000082F162F68E080E491E04C830E94DAE2B5
:1055300009831A834C814B8343E050E064E471E0BB
:10554000CE0101960E94D0E20F900F900F900F9025
:10555000DF91CF911F910F910895CF92DF92EF923B
:10556000FF92CF93DF936B017C01EA01CA010E9495
:10557000F0E2B701CE010496DF91CF91FF90EF905A
:10558000DF90CF900C94F0E2AC016BE770E084EF19
:1055900091E00E94AD2A0895CF93DF93EC0166EE6F
:1055A00070E00E94F0E266EE70E0CE0102960E948A
:1055B000F0E264E670E0CE0104960E94F0E265E05D
:1055C000CE010696DF91CF910C94DAE261E08EE68F
:1055D00091E00E94DAE268EE73E082E791E00E94D7
:1055E000F0E268EE73E084E791E00E94F0E266E9A1
:1055F00070E086E791E00E94F0E260ED77E088E7F6
:1056000091E00E94F0E260ED77E08AE791E00E948D
:10561000F0E26FE070E08CE791E00E94F0E26FE072
:1056200070E08EE791E00E94F0E26AE070E080E8CE
:1056300091E00E94F0E264E170E082E891E00E9473
:10564000F0E264E170E084E891E00E94F0E244EF6F
:1056500051E060E070E088ED91E00E94E8E24CE704
:1056600055E160E070E08CED91E00E94E8E260E1DD
:1056700070E080EE91E00E94F0E260E170E082EE86
:1056800091E00E94F0E260E08BE092E00E94DAE2BA
:1056900061E084EE91E00E94DAE260E888E891E05F
:1056A0000C94DAE2CF93DF93CDB7DEB764970FB6F1
:1056B000F894DEBF0FBECDBF84E1E4ECF2E0DE0182
:1056C000119601900D928A95E1F744E150E06EE069
:1056D00070E0CE0101960E94D0E264960FB6F89475
:1056E000DEBF0FBECDBFDF91CF910895CF92DF9285
:1056F000EF92FF920F931F93CF93DF93CDB7DEB757
:1057000064970FB6F894DEBF0FBECDBF6C0128E0E2
:10571000E8EDF2E0DE011D9601900D922A95E1F789
:105720004CE050E06EE070E0CE0101960E94ACE2E9
:105730007E018DE0E80EF11C8601D12C48E050E09E
:10574000B801F701819191917F010E94D0E24CE074
:1057500050E0B801685F7F4FCE0101960E94D0E211
:1057600066EE70E0C80144960E94F0E266EE70E0DA
:10577000C80146960E94F0E2F1E0DF1203C06DE23C
:1057800070E002C064E670E0C80148960E94F0E252
:10579000D394065E1F4F84E0D812D0CF6CEA8CEF12
:1057A0009FE00E94DAE264960FB6F894DEBF0FBE67
:1057B000CDBFDF91CF911F910F91FF90EF90DF90C0
:1057C000CF900895813009F082E0682F82E490E064
:1057D0000E94DAE20C94522B0F931F93CF93DF9326
:1057E000CDB7DEB76D970FB6F894DEBF0FBECDBF55
:1057F00085E0E0EEF2E0DE01559601900D928A958B
:10580000E1F74BE050E062E270E080E493E00E9458
:10581000D0E245E050E066E070E0CE0145960E949F
:10582000D0E26FE984E090E00E94DAE26BE18CE084
:1058300090E00E94DAE20E94522B84E99FE00E94ED
:10584000762BA89544E150E06CE871E08BE493E09E
:105850000E94D0E244E150E064EA71E083E793E023
:105860000E94D0E244E150E064EF71E08FE593E004
:105870000E94D0E20E94E62A81EC93E29B8F8A8FFD
:1058800084E193ED9D8F8C8F44E050E064E470E000
:10589000CE014A960E94D0E280E091E00E94492A1F
:1058A0008CE191E00E94492A00E010E020E030E025
:1058B00040E050E060E070E088EC91E00E94CE9C17
:1058C00020E030E040E050E060E070E080ED91E00A
:1058D0000E94CE9C80E491E00E94592A8AE491E0E3
:1058E0000E94C42A88E591E00E94CC2A61E080E60B
:1058F00091E00E94DAE260E08DEF9FE00E94DAE240
:1059000060E08EEF9FE00E94DAE260E08FEF9FE0C0
:105910000E94DAE261E082E99FE00E94DAE260E060
:1059200081E99FE00E94DAE280E00E94E22B61E0E0
:105930008CE490E00E94DAE260E08FE89FE00E9451
:10594000DAE260E08EE89FE00E94DAE288EC90E024
:10595000A0E0B0E089839A83AB83BC8344E050E04D
:1059600066E67FE08E010F5F1F4FC8010E94D0E204
:1059700063E084E69FE00E94DAE264E683E69FE06B
:105980000E94DAE284E1F80111928A95E9F744E194
:1059900050E069E47FE0C8010E94D0E260E080E965
:1059A0009FE00E94DAE260E088E49FE00E94DAE291
:1059B0006D960FB6F894DEBF0FBECDBFDF91CF91CD
:1059C0001F910F91089561E082E490E00E94B69BE0
:1059D00091E0823009F490E0892F089561E08CE431
:1059E00090E00E94B69B91E0813009F090E0892F11
:1059F0000895CF93DF93CDB7DEB72C970FB6F89409
:105A0000DEBF0FBECDBF81E89CE0A0E0B0E089839F
:105A10009A83AB83BC831D821E821F8218861986DF
:105A20001A861B861C864CE050E062E671E0CE01CF
:105A300001960E94D0E22C960FB6F894DEBF0FBEFE
:105A4000CDBFDF91CF9108950F931F93CF93DF9335
:105A50008C01EB0160E070E080EA91E00E94C69B5F
:105A6000F8019183808360E082EA91E00E94B69B16
:105A70008883DF91CF911F910F910895CF93C62F07
:105A8000BC0180EA91E00E94F0E26C2F82EA91E092
:105A9000CF910C94DAE2FF920F931F93CF93DF9391
:105AA00000D0CDB7DEB78C01F62EBE016D5F7F4F03
:105AB000CE0101960E94242D2B812F0D822F6CE3A5
:105AC0000E94FEDF692F9B832D3330F029813A81BC
:105AD000280F311D3A83298389819A81800F911F74
