:100000000C94D60F0C9411100C9411100C94111028
:100010000C9411100C9411100C9411100C941110DC
:100020000C9411100C9411100C9411100C941110CC
:100030000C9411100C9416350C9411100C94111092
:100040000C9411100C9411100C9411100C941110AC
:100050000C9411100C9411100C9411100C9411109C
:100060000C9411100C94F5D10C9411100C9421D215
:100070000C9411100C9402910C9411100C9411100A
:100080000C94EC340C9411100C9411100C9411106D
:100090000C9455D20C9411100C9481D20C94111024
:1000A0000C9411100C9411100C9411100C9411104C
:1000B0000C9411100C9411100C9411100C943E35EA
:1000C0000C9411100C9411100C9411100C9411102C
:1000D0000C9411100C9411100C9411100C9411101C
:1000E0000C9411100B2E4B2E4D2E332E572E102FFD
:1000F000102F332E802E102F8E2E932EA72EAC2E47
:10010000102F102F5F2E332E7B2E102F192E5B2ECB
:10011000B12EC42ECB2E102F102FF02E2576FE756B
:100120000976FB75F8750B761F760E7622B83FB808
:100130004CB875B894B8A7B8B5B8E8B80C94A19FF6
:100140000C940CA10C94EDA40C94CE9B0C94FF98F1
:100150000C9446B70C946FA40C94EACD0C9455D033
:100160000C9423B10C9450D80C942CD00C940E7693
:100170000C947ACA0C9497BE0C94FB750C9419A13C
:100180000C94F59F0C9415A10C941F760C9484BDCF
:100190000C9422A00C94BEAC0C9470760C9403C604
:1001A0000C94CD9F0C947DA70C9420AF0C942C75CF
:1001B0000C9418A00C9440A10C949FB30C9407C706
:1001C0000C9433A10C94EBB10C9463B40C94B5A1D2
:1001D0000C940CCE0C94F09F0C94977E0C94479941
:1001E0000C9407AE0C94DBA00C943BA10C946EB263
:1001F0000C944C760C94E5A60C94B1A50C94B49F89
:100200000C940BCF0C94102F0C94E0A90C94FA9F33
:100210000C94B99F0C9491B40C94D9CF0C94B0C6A3
:100220000C9474760C945F2E0C94F0760C94A2A42B
:100230000C946F940C94EAC70C9465C80C9458B451
:100240000C9454A10C94F02E0C94A72E0C9422B86C
:100250000C94B5B80C94CB2E0C94F3D00C94A6A8A7
:100260000C94E69F0C94A7B80C94E1CF0C940B2E41
:100270000C945E310C94802E0C9409760C948B7641
:100280000C9463AB0C9468D10C94828E0C94B7C61A
:100290000C94FF9F0C945CAA0C944B2E0C943FB8CA
:1002A0000C940AA40C944CB80C9477890C94EBA48D
:1002B0000C94A89F0C945B2E0C94C3A50C94B4933F
:1002C0000C94B9C50C94A5A50C947B2E0C94DDAFB1
:1002D0000C9409A00C94ACA50C94C2C10C94AC2E47
:1002E0000C94B1AB0C94D4CD0C9463B60C94827680
:1002F0000C9457A20C941DB60C94ACAE0C9411A1A6
:100300000C9473B00C9438AC0C94932E0C9472AD86
:100310000C943D250C9436A10C9414B20C94192E17
:100320000C944FA50C94973A0C940EA20C9455A9DA
:100330000C94B3C80C948D680C941DA00C944D2E95
:100340000C940B760C940EA00C94F4A50C94E2A1E2
:100350000C94223E0C94AF9F0C941ACA0C94D2BBFE
:100360000C94B5D20C94332E0C94E97A0C94E4AC32
:100370000C94C39F0C94429C0C94E19F0C9479A81C
:100380000C94EB9F0C94EBA60C94C89F0C94FE75F8
:100390000C94EEA00C94572E0C94328A0C945AC9EB
:1003A0000C9413A00C945ABA0C9446B10C94663178
:1003B0000C9417CE0C9426C50C94D2B00C94FEC3AA
:1003C0000C940FC00C94BE9F0C94D4A20C94DC9F90
:1003D0000C9447A80C9422C30C946B650C943ECEED
:1003E0000C94D29F0C94E2A70C9404A00C94B8AA8D
:1003F0000C941D740C941FA20C94E38F0C94EAAD22
:100400000C94DAA00C94CE910C9412380C94F8A1B0
:100410000C9439A20C9497B50C9439B00C948E2E90
:100420000C94D79F0C942CA80C945F310C94C3941B
:100430000C942C910C94AEA60C943FA10C9472B326
:100440000C940F290C94B12E0C9425C40C9402BE6C
:100450000C9445760C94C13F0C94DAA50C94C42EF0
:100460000C9462730C94F8750C945EB10C94783013
:100470000C94718B0C94CAAF0C949FC20C94C2D292
:100480000C9494B80C9478B50C948C900C9465767C
:100490000C9493900C9425760C94F1A00C94DEA40B
:1004A0000C9429530C9427C60C940CC70C94E8B8F0
:1004B0000C9475B80C9422A10C94F48D0C9404A1A6
:1004C0005265706C6963617430722031001704C822
:1004D000000000DC0027056400000078007505C8F6
:1004E000000000DC002006640000007800E006C880
:1004F000000000DC002006C8000000DC002006C868
:10050000000000DC002D08C80000000000C00DC87D
:100510000000001400C00DC800000014005A10C8EC
:100520000000001400C00D90010000000070039056
:1005300001000014005504C800000014002705C87D
:1005400000000014007003900100000000C805C8FE
:100550000000001400C805C80000001400C805C849
:100560000000001400DD04B004000014007505C88C
:1005700000000014007505C800000014007505C8CF
:1005800000000014009704B00400000000C00DC873
:100590000000001400C00DC80000001400910E906F
:1005A00001000014005A10900100001400C00D203A
:1005B00003000000007003BC000000BC00E006BCAB
:1005C000000000BC00B807BC000000BC002D08BC47
:1005D00000A908BC000000BC00C00D4D01000000D7
:1005E00000C00D20010000BC005311BC000000BC85
:1005F000005B12B101000000009302690000006975
:1006000000EE016900000069002601B80100000049
:100610000024F4D43050C38E20C2A24017828B70C5
:1006200011127A910D816CD90AA861E108C7586648
:1006300007615143061E4B5D05C145A7041A4111D0
:1006400004093D9803713931034036DB026533916B
:1006500002D4305402802E1D02632CEE01752AC58F
:1006600001B028A001102781018F2564012B244BA4
:1006700001E0223401AC211F018D200D01801FFCFF
:1006800000841EED00971DDF00B81CD200E61BC6DB
:1006900000201BBC00641AB200B219A8000A19A0FD
:1006A000006A189900D117910040178B00B5168485
:1006B0000031167E00B31579003A157300C7146F28
:1006C0000058146A00EE1366008813630025135E59
:1006D00000C7125B006C12570015125400C1115173
:1006E0000070114F0021114B00D61049008D1047AA
:1006F000004610440002104200C00F4000800F3E30
:1007000000420F3C00060F3B00CB0E3800930E3723
:10071000005C0E3500270E3400F30D3200C10D31A0
:1007200000900D3000600D2E00320D2D00050D2CB7
:1007300000D90C2B00AE0C2900850C29005C0C277D
:1007400000350C27000E0C2600E80B2400C40B24F7
:1007500000A00B23007D0B23005A0B2100390B2135
:1007600000180B2000F80A1F00D90A1E00BB0A1E41
:10077000009D0A1D00800A1D00630A1C00470A1B19
:10078000002C0A1B00110A1A00F7091A00DD0919CA
:1007900000C4091900AB091900920917007B091858
:1007A00000630917004C09160036091600200916C7
:1007B000000A091500F5081500E0081400CC08141B
:1007C00000B8081400A4081400900813007D081253
:1007D000006B081300580812004608120034081174
:1007E00000230811001208110001081100F0071081
:1007F00000E0071000D0071000C0071000B0070F7E
:1008000000A107100091070E0083070F0074070F67
:100810000065070E0057070E0049070E003B070D45
:10082000002E070E0020070D0013070D0006070D10
:1008300000F9060C00ED060D00E0060C00D4060CD5
:1008400000C8060C00BC060C00B0060C00A4060B89
:100850000099060C008D060B0082060B0077060B34
:10086000006C060B0061060A0057060B004C060AD6
:100870000042060A0038060A002E060A0024060A6C
:10088000001A060A001006090007060A00FD0509FD
:1008900000F4050900EB050900E2050900D9050986
:1008A00000D0050900C7050900BE050900B5050807
:1008B00000AD050800A50509009C05080094050881
:1008C000008C050800840508007C050800740508F4
:1008D000006C050700650508005D05070056050862
:1008E000004E0507004705070040050800380507CA
:1008F00000310507002A050700230507001C05062F
:1009000000160507000F0507000805060002050789
:1009100000FB040600F5040700EE040600E80406E8
:1009200000E2040700DB040600D5040600CF04063D
:1009300000C9040600C3040600BD040600B704068F
:1009400000B1040500AC040600A6040600A00405DE
:10095000009B04060095040500900406008A040527
:100960000085040500800406007A0405007504056E
:1009700000700405006B04050066040500610405B1
:10098000005C04050057040500520405004D0405F1
:100990000048040500430405003E0404003A040531
:1009A0000035040500300404002C0405002704046D
:1009B00000230405001E0404001A040400160405A4
:1009C00000110404000D04040009040500040404DB
:1009D0000000040400FC030400F8030400F4030412
:1009E00000F0030400EC030400E8030400E4030443
:1009F00000E0030400DC030400D8030400D4030473
:100A000000D0030400CC030400C8030300C50303A3
:100A10000024F404D9201BC40C5C0E9804C4095FA4
:100A20000265077101F405F900FB04B3004804876F
:100A300000C10369005803550003034500BE023A94
:100A4000008402310053022A0029022500040220FA
:100A500000E4011C00C8011900AF0117009801143F
:100A60000084011300710110006101100051010E9A
:100A70000043010D0036010B002B010B0020010B80
:100A800000150109000C01090003010800FB000822
:100A900000F3000800EB000700E4000600DE00069B
:100AA00000D8000600D2000600CC000500C70005F3
:100AB00000C2000500BD000400B9000400B5000438
:100AC00000B1000400AD000400A9000400A500036B
:100AD00000A20003009F0004009B00030098000395
:100AE000009500020093000300900003008D0002B7
:100AF000008B0003008800020086000200840003CF
:100B000000810002007F0002007D0002007B0002E5
:100B100000790002007700010076000200740002F4
:100B20000072000100710002006F0002006D000100
:100B3000006C0002006A0001006900020067000109
:100B4000006600010065000100640002006200010F
:100B50000061000100600001005F0002005D000113
:100B6000005C0001005B0001005A00010059000117
:100B70000058000100570001005600010055000117
:100B80000054000100530000005300010052000116
:100B90000051000100500001004F0001004E000014
:100BA000004E0001004D0001004C0001004B000010
:100BB000004B0001004A000100490001004800000C
:100BC0000048000100470001004600000046000107
:100BD0000045000000450001004400010043000002
:100BE00000430001004200000042000100410000FB
:100BF0000041000100400001003F0000003F0001F3
:100C0000003E0000003E0001003D0000003D0001EC
:100C1000003C0000003C0000003C0001003B0000E4
:100C2000003B0001003A0000003A000100390000DA
:100C300000390001003800000038000000380001D1
:100C400000370000003700010036000000360000C9
:100C500000360001003500000035000000350001BD
:100C600000340000003400000034000100330000B4
:100C700000330000003300010032000000320000A9
:100C8000003200010031000000310000003100019D
:100C9000003000000030000000300001002F000094
:100CA000002F0000002F0000002F0001002E000088
:100CB000002E0000002E0001002D0000002D00007D
:100CC000002D0000002D0001002C0000002C000071
:100CD000002C0000002C0001002B0000002B000065
:100CE000002B0000002B0001002A0000002A000059
:100CF000002A0000002A000100290000002900004D
:100D0000002900000029000000290001002800003F
:100D10000028000000280000002800000028000132
:100D20000027000000270000002700000027000027
:100D30000027000100260000002600000026000019
:100D4000002600000026000100250000002500000C
:100D500000250000002500000025000000250001FE
:100D600000240000002400000024000000240000F3
:100D700000240001002300000023000000230000E5
:100D800000230000002300000023000000230001D6
:100D900000220000002200000022000000220000CB
:100DA00000220000002200010021000000210000BC
:100DB00000210000002100000021000000210000AF
:100DC00000210001002000000020000000200000A1
:100DD0000020000000200000002000000020000093
:100DE00000200001001F0000001F0000001F000085
:100DF000001F0000001F0000001F0000001F000176
:100E0000001E0000001E0000001E0000001E00006A
:100E100000890899000000005265704720427569FA
:100E20006C64009600FF84036901000014008304D1
:100E30008800000014008C0000000000000000305A
:100E4000F8FFFF00000000000000009B0000000011
:100E50000000000000000000000000000000000092
:100E6000A51C0000180000A04095048304DC0500C8
:100E7000001400901F891B95000000004C4556454A
:100E80004C494E47202020202020202020202020B8
:100E9000009501000000202020202020202020207C
:100EA000202020202020202020200095010000006C
:100EB00050726573732063656E746572206B65791B
:100EC000202020200095030000007768656E2064D4
:100ED0006F6E65008500CA9A3B891F62003B020065
:100EE0000000002110422063308440A550C660E716
:100EF00070088129914AA16BB18CC1ADD1CEE1EFCF
:100F0000F13112100273325222B5529442F772D666
:100F100062399318837BB35AA3BDD39CC3FFF3DE1E
:100F2000E36224433420040114E664C774A44485B6
:100F3000546AA54BB528850995EEE5CFF5ACC58D6E
:100F4000D55336722611163006D776F6669556B406
:100F5000465BB77AA719973887DFF7FEE79DD7BCBE
:100F6000C7C448E5588668A7784008611802282356
:100F700038CCC9EDD98EE9AFF9488969990AA92B0E
:100F8000B9F55AD44AB77A966A711A500A333A12A6
:100F90002AFDDBDCCBBFFB9EEB799B588B3BBB1A5E
:100FA000ABA66C877CE44CC55C222C033C600C41F6
:100FB0001CAEED8FFDECCDCDDD2AAD0BBD688D49AE
:100FC0009D977EB66ED55EF44E133E322E511E7046
:100FD0000E9FFFBEEFDDDFFCCF1BBF3AAF599F78FE
:100FE0008F8891A981CAB1EBA10CD12DC14EF16FAF
:100FF000E18010A100C230E3200450254046706714
:1010000060B9839893FBA3DAB33DC31CD37FE35E3F
:10101000F3B1029012F322D2323542145277625663
:1010200072EAB5CBA5A89589856EF54FE52CD50D4F
:10103000C5E234C324A014810466744764245405B3
:1010400044DBA7FAB79987B8975FE77EF71DC73CDF
:10105000D7D326F2369106B0165766767615463403
:10106000564CD96DC90EF92FE9C899E9898AB9ABEF
:10107000A94458654806782768C018E1088238A353
:10108000287DCB5CDB3FEB1EFBF98BD89BBBAB9A7F
:10109000BB754A545A376A167AF10AD01AB32A92A3
:1010A0003A2EFD0FED6CDD4DCDAABD8BADE89DC98F
:1010B0008D267C076C645C454CA23C832CE01CC1F3
:1010C0000C1FEF3EFF5DCF7CDF9BAFBABFD98FF81F
:1010D0009F176E367E554E745E932EB23ED10EF043
:1010E0001E78206D6F726521002A2050726573731F
:1010F000200045726173696E672E2E2E0065657043
:10110000726F6D5F64756D702E62696E2066696CBA
:10111000656E6F7420666F756E6400526561642041
:101120006661696C65643B20454550524F4D206DAA
:10113000617920626520636F727275707400526508
:1011400073746F72696E672E2E2E00656570726FF4
:101150006D5F64756D702E62696E2066696C656185
:101160006C726561647920657869737473005344A7
:101170002063617264207772697465206661696CAE
:10118000656400536176696E672E2E2E005072657D
:10119000737320555020746F2070726F636565649F
:1011A0002E00796F757220626F7420696E6F7065A2
:1011B0007261626C652E0054686973206D656E758E
:1011C0002063616E206D616B6500537065636961BA
:1011D0006C2045646974696F6E20202020200053C4
:1011E00061696C66697368202020202020202020FF
:1011F000202020002020202020202020202020200F
:1012000020202020202020200046462043726561B7
:10121000746F722050726F20202020202000202028
:1012200020202020202020202020202020202020BE
:10123000202000202020200020004320202020000B
:101240002F2020204300010049033600FF006B00DF
:10125000D100A000B800D500A6000A0199003F0106
:101260008E0074018400A9017C00DE017400130269
:101270006C00480265007D025D00B2025600E70284
:101280004E001C03460051033D0086033200BB03A1
:101290002200F0030300FF030000456C61707365DA
:1012A000643A20202020202020202020306D0020A3
:1012B0007365637300546F20476F3A20202020200D
:1012C0002020202020202D2D2D005541525431006A
:1012D00020205553420053657269616C20492F4F9D
:1012E00000457261736520456570726F6D005344EF
:1012F000202D3E20456570726F6D00456570726FE0
:101300006D202D3E20534400456570726F6D005076
:1013100072696E742054696D653A2020206820300F
:10132000306D004C617374205072696E743A2020E5
:101330002020682030306D004C69666574696D65E9
:101340003A202020202020682030306D0052657324
:10135000756D696E6720706F736974696F6E2E2E7C
:101360002E00436C656172696E67206275696C64FA
:101370002E2E2E20202000447261696E696E672037
:10138000706970656C696E652E2E2E004C656176F5
:10139000696E672070617573652E2E2E20202020C7
:1013A0000043616E63656C6C696E67207072696E74
:1013B000742E2E2E2000456E746572696E67207043
:1013C000617573652E2E2E20202000506175736587
:1013D000206174205A506F733A2000506C6174661B
:1013E0006F726D2054656D703A202020004C656648
:1013F000742054656D703A200052696768742054F7
:10140000656D703A2000546F6F6C68656164204FA1
:101410006666736574730020546F6F6C68656164F1
:10142000204F66667365743A00204F666673657474
:101430003A0055702F446E2F4C6566742F4D207402
:101440006F207365740055702F446E2F522F4C2FF0
:101450004D20746F207365740050726F66696C65FF
:10146000204E616D653A005361766520546F2050BF
:10147000726F66696C65004368616E6765204E61D6
:101480006D6500446973706C617920436F6E6669A5
:101490006700526573746F72650052657365743AC4
:1014A0002070726573732043454E5445520046695F
:1014B0006C2E20547269703A0046696C616D656EDD
:1014C000743A00547269703A004C6966653A004695
:1014D000696C616D656E74204F646F6D65746572C3
:1014E0000048656174657273204F66660043616EE3
:1014F00063656C205072696E74005072696E74205E
:1015000053746174697374696373004261636B201F
:10151000746F204D6F6E69746F72006D006D6D0099
:10152000486F6D65204F6666736574730050726F07
:1015300066696C65730046696C616D656E743A002E
:101540004865696768743A202020202020200050D8
:1015500072696E742054696D653A202020202068DD
:1015600020206D0054656D70657261747572652020
:1015700072656164732020206F7574206F6620721D
:10158000616E67652E20202020202020436865633F
:101590006B20776972696E672E0054656D70657295
:1015A00061747572652072656164732020206172B8
:1015B00065206661696C696E672E202020202020DE
:1015C0002020436865636B20776972696E672E001F
:1015D00054656D70657261747572652064726F70A8
:1015E00070696E67436865636B20776972696E67BF
:1015F0002E004E6F742068656174696E672070728A
:101600006F7065726C79436865636B207769726986
:101610006E672E0054656D70206C696D6974207260
:101620006561636865642E2053687574646F776EB6
:10163000206F7220726573746172742E00506C6139
:1016400074666F726D204661696C75726521202029
:101650002000546F6F6C2031204661696C75726593
:1016600021202020202000546F6F6C203020466104
:10167000696C7572652120202020200045787472E5
:1016800075646572204661696C7572652120202041
:1016900000486561746572732073687574646F7750
:1016A0006E20647565746F20696E61637469766914
:1016B00074790046696C616D656E74206C6F61644D
:1016C0002F756E6C6F616463616E63656C65642019
:1016D00064756520746F20746865207072696F721C
:1016E00020686561746572206572726F72004D7951
:1016F0002074656D706572617475726520776173B1
:1017000020206368616E6765642065787465726E19
:10171000616C6C792E20526573656C65637420660C
:10172000696C616D656E742020206D656E75207426
:101730006F2074727920616761696E2E007761692C
:1017400074696E67200020204E4120202020006513
:1017500072726F7221004F4646202020004355537D
:10176000544F4D0057484954452000505552504C55
:101770004500424C5545202000475245454E20002B
:1017800050494E4B2020004F52414E474500524594
:1017900044202020004C454420436F6C6F7572003C
:1017A000536574204C6967687473204F4E20005352
:1017B0006574204C6967687473204F46460028435F
:1017C000616E6E6F74205072696E7420436F707911
:1017D00029005072696E7420416E6F7468657220C2
:1017E000436F7079004D61696E204D656E750053D1
:1017F000657420436F6F6C696E672046616E204F81
:1018000046460053657420436F6F6C696E672046CF
:10181000616E204F4E20004368616E67652048422C
:10182000502054656D70004368616E676520546593
:101830006D7065726174757265004368616E67658D
:101840002053706565640050617573652061742074
:101850005A506F7300446974746F205072696E74CB
:10186000696E67004E2F4100502D53746F702074C5
:10187000726967676572656400502D53746F7020DC
:10188000496E76657274656400502D53746F7020D4
:10189000436F6E74726F6C00436865636B205344D2
:1018A00020526561647300457874727564657220B6
:1018B000486F6C64005061757365207769746820A7
:1018C00048656174004F766572726964652047638C
:1018D00054656D700048425020696E7374616C6C81
:1018E000656400416363656C65726174696F6E0065
:1018F00045786974204D656E7500536F756E640090
:10190000457874727564657220436F756E74004219
:101910006F742053746174697374696373004361F5
:101920006C696272617465204E6F7A7A6C657300BF
:10193000526573746F72652053657474696E677352
:101940000047656E6572616C2053657474696E67DB
:101950007300507265686561742053657474696EB4
:101960006773004C6576656C00456E61626C65203E
:1019700053746570706572732020004469736162EE
:101980006C65205374657070657273005665727370
:10199000696F6E20496E666F726D6174696F6E005B
:1019A00046696C616D656E74204C6F6164696E6729
:1019B00000486F6D652041786573004A6F67204D60
:1019C0006F6465004D6F6E69746F72204D6F646552
:1019D000005574696C697469657300507265686557
:1019E0006174005072696E7400492074696D656499
:1019F000206F7574207768696C652020206174748D
:101A0000656D7074696E6720746F206865617420FD
:101A1000206D7920706C6174666F726D2E004920A4
:101A200074696D6564206F7574207768696C6520D2
:101A30002020617474656D7074696E6720746F2006
:101A40006865617420206D792065787472756465AD
:101A5000722E00556E61626C6520746F2072656134
:101A6000642053442020206361726420706172748A
:101A70006974696F6E73206F7665723247422069B0
:101A80006E2073697A652E2020466F726D617461D5
:101A900073204641542D3136206F72202D33322E63
:101AA00000556E61626C6520746F20726561642000
:101AB00074686973205344206361726420666F7296
:101AC0006D61742E2020202020466F726D6174207D
:101AD0006173204641542D3136206F7220464154A7
:101AE0002D33322E0053442063617264207265618D
:101AF00064206572726F722E20546F6F206D616E5C
:101B00007920435243206572726F72732E42616472
:101B1000206361726420636F6E7461637473206FFD
:101B200072656C656374726963616C206E6F697352
:101B3000652E0053442063617264207265616420E5
:101B40006572726F720053442063617264206E6F1D
:101B5000742070726573656E740053442063617203
:101B60006420697320656D7074790043616E6E6FD7
:101B700074206F70656E207468652066696C6500FE
:101B800053442063617264207265616473206172E2
:101B9000652020206E6F7420676F696E67207765FF
:101BA0006C6C2E20205472796120646966666572BF
:101BB000656E7420636172640049276D20616C72E8
:101BC00065616479206275696C64696E6700436F52
:101BD0006C6420506175736500526573756D652086
:101BE00000506175736520200043616E63656C2051
:101BF0006C6F61642F756E6C6F61643F0043616E42
:101C000063656C2074686973207072696E743F003C
:101C100073657474696E67733F00526573746F7295
:101C20006520666163746F727900506C6174666FD1
:101C3000726D2020202020202020202020004C65B4
:101C400066742045787472756465722020202020A7
:101C500020005269676874204578747275646572F3
:101C60002020202020004578747275646572202041
:101C70002020202020202020200050726573732017
:101C80006C65667420746F2063616E63656C0045DB
:101C9000787472756465723A2020202D2D2D2F2DB9
:101CA0002D2D4300506C6174666F726D3A202020B8
:101CB0002D2D2D2F2D2D2D43004C20457874727520
:101CC0006465723A202D2D2D2F2D2D2D430052208D
:101CD00045787472756465723A202D2D2D2F2D2D47
:101CE0002D4300202D2D250048656174696E673AEB
:101CF0002020202020202020202020200048656156
:101D000074696E673A00203C2D592020284D656E7D
:101D10007529202020202020202000203C2D582024
:101D200020284D656E752920205A2D3E2020200048
:101D30002020202020202020582D2020202020205E
:101D40002020202000202020202020284D656E7596
:101D5000292020592D3E2020200020202020202036
:101D60002020582B20202020202020202020002050
:101D7000202020204A6F67206D6F6465202020207E
:101D800020202000556E6C6F6164206C65667400C5
:101D9000556E6C6F616420726967687400556E6C73
:101DA0006F6164004C6F6164004C6F6164004C6F44
:101DB00061642072696768740035206D696E75749E
:101DC000652074696D656F757420686173656C61F9
:101DD000707365642E20205072657373207468657B
:101DE0002063656E74657220627574746F6E207402
:101DF0006F2020202066696E6973682E004C4F4169
:101E000044494E472E2E2E20202020202020202006
:101E100020202020202020202020202020202020C2
:101E200020202020202020202020202020202020B2
:101E30002020202020202020205072657373204F06
:101E40004B207768656E20646F6E65004C4F41448F
:101E5000494E472E2E2E00494E5345525420464996
:101E60004C414D454E542020202020202020202071
:101E70002020202020202020202020202020202062
:101E80002020202020202020202020202020202052
:101E90002020205072657373204F4B20746F206395
:101EA0006F6E74696E756500554E4C4F4144494ED6
:101EB000472E2E2E0045787472756465727320610A
:101EC0007265206E6F7420202068656174696E678A
:101ED0002E2020436865636B2074686520776972E3
:101EE000696E672E00592041786973204C696E65D0
:101EF00000582041786973204C696E65005945533C
:101F0000004E4F2000446F6E650053656C6563742E
:101F10002062657374206C696E65733A004578744D
:101F2000727564657200506C6174666F726D0054F6
:101F300075726E2048656174657273204F46460065
:101F400053746172742050726568656174696E675C
:101F50000046726565205352414D20004F464600B1
:101F60004F4E20003D250F2978305F311238973AC7
:101F7000223EC13F29536B658D6862731D742C75B9
:101F80004576F0767789328A8C9093902C91CE9119
:101F9000B493C394FF984799CE9BA19FA89F7ACAF8
:101FA000D4CD0BCFF3D068D1B5D2C2D2E8E8FBE1F3
:101FB00085EC91E201C08193EF3FF907E0F3D9F39B
:101FC00011241FBECFEFD1E2DEBFCDBF00E00CBFBA
:101FD00016E0A0E0B2E0ECE3F4EB01E00BBF02C0DE
:101FE00007900D92A632B107D9F72BE1A6E2B6E031
:101FF00001C01D92A838B207E1F71FE0C6EDDFE08F
:1020000000E006C021970109802FFE010E9494D7AD
:10201000C23BD10780E00807A9F70E94D5300C9495
:102020001CDA0C9400006BBFFA01DC0102C00790BF
:102030000D9221503040D8F708958091B008811159
:102040000AC08091AF088F5F8093AF08853018F089
:1020500081E08093B008089581E00E942C3680E0F2
:102060000C940E36F894E5EAF6E022813381808103
:102070009181821B930B78940895EF92FF920F93B6
:102080001F93CF937C018B01C42F8FE499E00E94B2
:10209000BAC0B7018FE499E00E9493C0B8018FE401
:1020A00099E00E9493C0E091E109EE0FFF0BED5221
:1020B000F64F808191818F54994039F06FE479E037
:1020C00087EC99E00E949B9904C08FE499E00E94FC
:1020D000F9C0C093AE09CF911F910F91FF90EF907F
:1020E00008951092AE09E091E109EE0FFF0BED5259
:1020F000F64F808191818F54994021F487EC99E0CB
:102100000E94579AE091E109EE0FFF0BED52F64F56
:1021100080819181DC01ED91FC910480F581E02DBD
:10212000199480910102089510925D060895882304
:1021300011F080E401C080E88093A3066093A006BC
:102140001092B108089581E080939F0608958091D0
:10215000A306181634F48091A006811104C081E012
:10216000089580E0089582E008958091A30608957F
:1021700081E09091A306923008F480E00895CF9317
:10218000DF93CDB7DEB764970FB6F894DEBF0FBE0E
:10219000CDBF6093870670938806809389069093DD
:1021A0008A06CE0101960E943B6A62E070E0CE0191
:1021B00001960E94E73AFC0140815181628173815E
:1021C0008091870690918806A0918906B0918A0631
:1021D000481759076A077B071CF01092860603C050
:1021E00081E08093860664960FB6F894DEBF0FBE3A
:1021F000CDBFDF91CF9108956091870670918806D9
:102200008091890690918A0608952091A7063091C1
:10221000A80681E0232B09F080E00895CF9360E0C9
:1022200070E0CB010E94BF101092860610924C06FF
:1022300010924D0610924E0610924F0610925006C4
:10224000C1E0C09300021092B2081092A30610924F
:10225000A2061092A1061092A00610927606109285
:102260007706109278061092790610927A061092EC
:102270007B0610927C0610927D06109266061092E4
:102280006706109268061092690610926A0610920C
:102290006B0610926C0610926D0610925E061092FC
:1022A0005F06109260061092610610927E061092F0
:1022B0007F0610928006109281061092820610927C
:1022C0008306109284061092850610926E06109274
:1022D0006F0610927006109271061092720610929C
:1022E0007306109274061092750610926206109290
:1022F0006306109264061092650661E082E490E045
:102300000E946892823039F460E08FEF9FE00E9473
:102310006892811134C010924106109247061092C3
:1023200048061092490610924A06109246061092EC
:1023300042061092430610924406109245061092EF
:10234000B1081092AF081092B00810925C0610927B
:102350005B06109258061092570610925A06109279
:102360005906109256061092550610925206109277
:1023700051061092540610925306CF910895C093BF
:102380004106CBCF0E940E1185E680930102E5EA5B
:10239000F6E0138212821582148210861186109242
:1023A0004006089581E090914006963009F080E063
:1023B00008958F929F92AF92BF92CF92DF92EF9249
:1023C000FF920F931F93CF93DF93CDB7DEB7AA97FA
:1023D0000FB6F894DEBF0FBECDBF882321F091E089
:1023E00090935D0605C090915D06992309F4EAC0BB
:1023F000F82ECE0145960E943B6A81E089A78AA704
:102400006E0189E2C80ED11C03E010E088E49AE076
:10241000FC01E759FF4F2081FC01222319F026A17E
:1024200037A104C0EC5AFF4F20813181232B91F159
:1024300048960E94E096882369F1F60180818F1109
:1024400024C0812C912C54018394402F60E070E0D3
:1024500080E090E40E943968A50194010E940FD7A2
:102460004B015C01B801CE0145960E94EE3AFC0199
:102470004081518162817381840E951EA61EB71E14
:1024800080829182A282B38205C088248A94982C8B
:102490005401DBCF0430110541F0EFEFCE1ADE0A14
:1024A00087EC9AE004E010E0B3CF60ED77E08CEECB
:1024B00091E00E947892BC0180E090E00E944DD5AE
:1024C00020913E1530913F15409140155091411596
:1024D0000E9455D69B01AC0160E074E284E799E468
:1024E0000E9469D40E9417D54B015C01809141067E
:1024F000882329F18091A40681110AC064E070E06C
:10250000CE0145960E94EE3A8C0163E070E009C06E
:1025100063E070E0CE0145960E94EE3A8C0164E0E3
:1025200070E0CE0145960E94EE3AFC0180819181D7
:10253000A281B381F80180839183A283B383E12CCC
:1025400000E010E09801B501A401CE0145960E947B
:10255000626BF11037C0CE0101960E943B6A63E0C6
:1025600070E0CE0101960E94EE3A8C0163E070E0CB
:102570008BE896E00E94EE3AFC0180819181A28175
:10258000B381F80180839183A283B38364E070E018
:10259000CE0101960E94EE3A8C0164E070E08BE877
:1025A00096E00E94EE3AFC0180819181A281B38184
:1025B000F80180839183A283B38360E0CE0101960A
:1025C0000E94B269AA960FB6F894DEBF0FBECDBFC7
:1025D000DF91CF911F910F91FF90EF90DF90CF90FF
:1025E000BF90AF909F908F9008952F923F924F92FF
:1025F0005F926F927F928F929F92AF92BF92CF9293
:10260000DF92EF92FF920F931F93CF93DF93CDB79B
:10261000DEB7C856D1090FB6F894DEBF0FBECDBFE6
:10262000182FCE01CD960E94B23ACE0189960E9413
:10263000B23A112309F4F6C080E090E0FC01EB54BB
:10264000FB4E2385222309F474C22285222309F438
:1026500070C28D968738910589F784E1EBE8F6E042
:10266000DE01559601900D928A95E1F7CE01019613
:102670000E943B6A60E070E0CE0145960E94EE3A0F
:102680008C014091C5145091C6146091C71470918B
:10269000C8148EE090E00E948E926B017C0180E075
:1026A0000E94146820E030E040EA50E40E9455D6D1
:1026B0000E9417D5C61AD70AE80AF90AF801C0829B
:1026C000D182E282F38261E070E0CE0145960E9401
:1026D000EE3A8C014091F2145091F3146091F4148D
:1026E0007091F51482E190E00E948E926B017C0162
:1026F00081E00E94146820E030E040EA50E40E944B
:1027000055D60E9417D5C61AD70AE80AF90AF80161
:10271000C082D182E282F38262E070E0CE0145960F
:102720000E94EE3A40911F1550912015609121159D
:1027300070912215FC01408351836283738362E0B0
:1027400070E0CE0101960E94EE3AFC01C080D1807B
:10275000E280F38062E070E0CE0145960E94EE3A9E
:10276000FC0180819181A281B3818C159D05AE050C
:10277000BF05BCF462E070E0CE0145960E94EE3ADF
:102780008C0162E070E0CE0101960E94EE3AFC01FD
:1027900080819181A281B381F80180839183A2839A
:1027A000B38363E070E0CE0145960E94EE3A8C015F
:1027B00063E070E0CE0101960E94EE3AFC01808158
:1027C0009181A281B381F80180839183A283B38335
:1027D00064E070E0CE0145960E94EE3A8C0164E020
:1027E00070E0CE0101960E94EE3AFC018081918159
:1027F000A281B381F80180839183A283B383BE0158
:102800006B5E7F4FCE018F5A9F4F0E94756984E1A6
:10281000FE01EF5AFF4FDE01999601900D928A95C5
:10282000E1F757C084E1EBE8F6E0DE01999601900C
:102830000D928A95E1F7CE0145960E943B6A64E0CD
:1028400070E0CE0189960E94EE3AFC011081018170
:102850003280238063E070E0CE0189960E94EE3AD8
:10286000FC0180809180A280B38062E070E0CE01A4
:1028700045960E94EE3AFC01C080D180E280F38050
:1028800061E070E0CE0145960E94EE3AFC01408086
:1028900051806280738060E070E0CE0145960E94B6
:1028A000EE3AFC0140815181628173812F923F9207
:1028B0000F931F9393018201CE0101960E94B33AB8
:1028C00060E0CE0101960E94B2690F900F900F90C8
:1028D0000F906091151570911615809117159091B4
:1028E00018150E944FD520E030E040E857E30E94E1
:1028F00055D6209111153091121540911315509114
:1029000014150E9455D60E9417D5A9966CAF7DAFBD
:102910008EAF9FAFA997CE018F5A9F4F0E943B6AFF
:1029200084E1FE01EF5AFF4FDE01DD9601900D922A
:102930008A95E1F760E070E0CE01CD960E94EE3A14
:10294000FC01C080D180E280F38060E070E0CE01C5
:1029500089960E94EE3AFC0180819181A281B38127
:10296000A7019601281B390B4A0B5B0BCA01B90161
:102970000E944FD52091B7143091B8144091B914EA
:102980005091BA140E9469D42B013C0161E070E0BF
:10299000CE01CD960E94EE3AFC01C080D180E2804B
:1029A000F38061E070E0CE0189960E94EE3AFC016E
:1029B00080819181A281B381A7019601281B390BE7
:1029C0004A0B5B0BCA01B9010E944FD52091E41458
:1029D0003091E5144091E6145091E7140E9469D4B7
:1029E0004B015C0162E070E0CE01CD960E94EE3AB0
:1029F000FC01C080D180E280F38062E070E0CE0113
:102A000089960E94EE3AFC0180819181A281B38176
:102A1000A7019601281B390B4A0B5B0BCA01B901B0
:102A20000E944FD520911115309112154091131528
:102A3000509114150E9469D46B017C01A30192018D
:102A4000C301B2010E9455D62B013C01A50194019E
:102A5000C501B4010E9455D69B01AC01C301B2016E
:102A60000E94E1D34B015C01A7019601C701B601A9
:102A70000E9455D69B01AC01C501B4010E94E1D36F
:102A80000E94C8D62B013C0180914106882329F180
:102A90008091A40681110AC064E070E0CE0189969D
:102AA0000E94EE3A8C0163E070E009C063E070E0E0
:102AB000CE0189960E94EE3A8C0164E070E0CE016E
:102AC00089960E94EE3AFC0180819181A281B381B6
:102AD000F80180839183A283B383B090E1151092B3
:102AE000E11560911515709116158091171590914B
:102AF00018150E944FD520E030E040E857E30E94CF
:102B000055D620E030E040E852E40E9455D60E94BD
:102B100017D56B018301720120E0A9964CAD5DAD24
:102B20006EAD7FADA997CE0189960E94AF6CB09231
:102B3000E115C859DF4F0FB6F894DEBF0FBECDBF09
:102B4000DF91CF911F910F91FF90EF90DF90CF9089
:102B5000BF90AF909F908F907F906F905F904F90BD
:102B60003F902F900895EF92FF920F931F93CF9372
:102B7000DF9328E0829FC0011124FC01EA58F94F3D
:102B8000F08001811281D381C481B581E680E78123
:102B90002F2D302F412F5D2F6C2F7B2F8E2D9E2FB1
:102BA000A0E00E945ED954F40E94D2D8F22E032FE6
:102BB000142FD52FC62FB72FE82EE92F2F2D302F0A
:102BC000412F5D2F6C2F7B2F8E2D9E2FDF91CF916C
:102BD0001F910F91FF90EF9008956F927F928F92C7
:102BE0009F92AF92BF92CF92DF92EF92FF920F939C
:102BF0001F93CF93DF93C82F0E94B31559016A0129
:102C00007B013C01A0E00E945ED909F00CF449C0B0
:102C100088E0C89FE00111244E0188E4881A8EEFF5
:102C2000980A00E010E020E030E040E050E060E092
:102C300070E0C4010E943C9383010E9437D989014E
:102C40009A01AB01BC01C4010E948E93DE01AA5916
:102C5000B94FFE01EA58F94F80818C93818111961A
:102C60008C931197828112968C931297838113967D
:102C70008C931397848114968C9314978581159661
:102C80008C931597868116968C9316978781179645
:102C90008C93108211821282138214821582168202
:102CA0001782DF91CF911F910F91FF90EF90DF90EE
:102CB000CF90BF90AF909F908F907F906F9008952E
:102CC00080E00E94ED1581E00C94ED15EF92FF92EB
:102CD0000F931F93CF93DF9328E0829FC0011124AD
:102CE000FC01EA59F94FF08001811281D381C4813E
:102CF000B581E680E7812F2D302F412F5D2F6C2F7E
:102D00007B2F8E2D9E2FA0E00E945ED954F40E944E
:102D1000D2D8F22E032F142FD52FC62FB72FE82E7F
:102D2000E92F2F2D302F412F5D2F6C2F7B2F8E2DD4
:102D30009E2FDF91CF911F910F91FF90EF900895FB
:102D4000CF92DF92EF92FF9280E00E946616E42F0E
:102D500043E0B9018E2F952F0E9420686B017C0102
:102D600081E00E946616642F44E0732F862F952F12
:102D7000622F0E9420689B01AC01C701B6010E942E
:102D8000E1D36B017C0180E00E94B315642F43E026
:102D9000732F862F952F622F0E9420689B01AC0114
:102DA000C701B6010E94E1D36B017C0181E00E9462
:102DB000B315642F44E0732F862F952F622F0E9446
:102DC00020689B01AC01C701B6010E94E1D3FF90CE
:102DD000EF90DF90CF9008950F931F93CF93DF93E1
:102DE000D82F0CE416E0C0E0F801808181110FC0FB
:102DF0008C2F0E94A06FF8018083DD2321F08C2F9F
:102E00000E94A66F04C064E18C2F0E949B6FCF5F6D
:102E10000F5F1F4FC53041F7DF91CF911F910F9189
:102E200008950F931F93CF930CE416E0C0E0F801D0
:102E300060818C2F0E949B6FF80111928F01CF5FF0
:102E4000C530A9F7CF911F910F9108950F931F934C
:102E5000CF93DF93CDB7DEB769970FB6F894DEBF97
:102E60000FBECDBF8091A306853409F400C190F553
:102E7000813409F456C0B8F4803209F4C5C18034F5
:102E800009F43FC0823009F0F4C10E9471106091D2
:102E9000A1067091A20621E040E083E299E00E9441
:102EA000DB3481E051C0833409F445C008F04FC0E1
:102EB000CE0106960E943B6A84E1FE013696ABE89D
:102EC000B6E001900D928A95E1F781E00E94D91158
:102ED00083E43AC0843809F460C150F4813809F4BD
:102EE0003EC1833809F44AC1803809F0C2C1EAC042
:102EF000863809F46BC108F45FC1873809F46BC1E7
:102F0000B8C10E94862B853029F00E94862B843020
:102F100009F091C181E48093A30681E00E94EC1640
:102F2000A8C18091440C9091430C891B8F7009F0CB
:102F3000A0C182E409C08091440C9091430C891B8C
:102F40008F7009F096C184E48093A30692C181E05A
:102F50000E94F51285E48093A3060E94862B85309B
:102F600039F00E94862B11E0843019F010E001C086
:102F700011E045E065E579E1CE0101960E9479CD49
:102F8000CE0101960E94C7CD80934B0680E00E943F
:102F90000E368091B10A882329F080916E0A9091B3
:102FA0006F0A04C080919C0A90919D0A90935206EA
:102FB000809351068091300B882329F08091ED0A8F
:102FC0009091EE0A04C080911B0B90911C0B909382
:102FD0005406809353068091440A882329F08091F7
:102FE000010A9091020A04C080912F0A9091300A40
:102FF00090935606809355068091A006811123C1B7
:1030000060E08EEF9FE00E946892882309F41BC164
:103010008091A006882351F021E040E060E080E04C
:103020000E943E7660E088EF0E946B6F6091A1067F
:103030007091A2066115710569F08091B208811145
:1030400005C0111103C086EB93E102C081EA93E150
:1030500041E00AC0111103C086EB93E102C081EA8E
:1030600093E141E062E673E10E943D1002C180916C
:10307000440C9091430C891B8F7009F0FAC00E9498
:1030800011178091B208882311F080E209C0809165
:10309000A1069091A206892B11F481E001C082E083
:1030A0008093A3060E9471100E94862B853009F43C
:1030B000E0C00E94862B843009F4DBC087E00E94C8
:1030C0003D3AD7C080E00E94EC1600915B0610915B
:1030D0005C060115110521F4009155061091560664
:1030E0001016110654F460E083EF99E00E944397B4
:1030F000B80183EF99E00E94109600915706109155
:1031000058060115110521F400915106109152063F
:103110001016110654F460E080E69AE00E9443978E
:10312000B80180E69AE00E9410960091590610912D
:103130005A060115110521F4009153061091540609
:103140001016110654F460E08FED9AE00E94439748
:10315000B8018FED9AE00E94109681E8F5CE80913B
:10316000550690915606181619060CF06FC083EF9D
:1031700099E00E94E096811169C07BC08091510660
:1031800090915206181619060CF062C080E69AE07B
:103190000E94E09681115CC06CC081E00E94EC1638
:1031A00080E00E94F51285E88093A30641E06DE47B
:1031B00073E18CE893E158CF8091440C9091430CDB
:1031C000891B8F7009F055C086E8BECE80E00E9452
:1031D000D91187E8B9CE8091440C9091430C891B9A
:1031E0008F7009F046C080914B060E940E360E94F7
:1031F00011170E9471101092A3061092A20610924D
:10320000A1061092B10835C00E9471106091A1060C
:103210007091A20621E040E083E299E00E94DB3455
:103220000E943C3C1092A2061092A1061092B20895
:103230001092A3061EC041E067E773E186EB93E1BD
:103240000E943D1067CE0E942C10E2CE83E87CCE17
:1032500080915306909154061816190634F48FED98
:103260009AE00E94E096882321F00E94111784E8DA
:103270006BCE69960FB6F894DEBF0FBECDBFDF915F
:10328000CF911F910F9108958F929F92AF92BF920D
:10329000CF92DF92EF92FF92CF93C0910102C53699
:1032A00009F453C0CC2309F450C0F0904606CF1562
:1032B00009F44BC0FF2009F448C0609142067091A8
:1032C000430680914406909145066115710581057C
:1032D0009105D9F10E944DD54B015C018C2F90E0F6
:1032E0008F199109BC01990F880B990B0E944FD53A
:1032F0009B01AC01C501B4010E9469D46B017C0142
:103300006C2F70E080E090E00E944DD59B01AC01F5
:1033100060E070E088EC92E40E94E0D39B01AC0195
:10332000C701B6010E9455D66B017C0120E030E058
:10333000A9010E9464D487FF03C0C12CD12C76015F
:10334000C701B6010E9417D503C060E070E0CB0151
:10335000CF91FF90EF90DF90CF90BF90AF909F9074
:103360008F900895FC0184819581860F971F60815D
:1033700071810E942BD726813781820F931F089578
:103380001F93CF93DF93EC012A813B818881998140
:103390002817390770F4162F6A817B81CE010E94AD
:1033A000B219FC0110838A819B8101969B838A83D9
:1033B00002C081E08887DF91CF911F910895682F27
:1033C00085EA96E00C94C019CF93DF93EC018A81D3
:1033D0009B81892B21F481E0898780E017C060E020
:1033E00070E0CE010E94B219FC012C813D81C9011F
:1033F0000196688179810E942BD79D838C832A81D5
:103400003B81215031093B832A838081DF91CF9119
:10341000089585EA96E00C94E419CF9385EA96E046
:103420000E94E419C82F85EA96E00E94E419982FBB
:103430008C2FCF9108951F93CF93DF931F921F92EC
:10344000CDB7DEB785EA96E00E94E419682F85EAD9
:1034500096E06A830E94E419782F85EA96E07983E2
:103460000E94E419182F85EA96E00E94E419982F2B
:103470006A817981812F0F900F90DF91CF911F91F9
:103480000895CF92DF92EF92FF921F93CF93DF9335
:10349000C82F61E070E085EA96E00E94B219FC0155
:1034A0001081CF3F09F01C2F62E070E085EA96E0C2
:1034B0000E94B219FC0180818D3009F476C048F475
:1034C0008C3008F05FC0843008F0C5C0833071F0E4
:1034D0000BC0873109F44CC020F4803108F4BBC024
:1034E00003C08F3109F46DC010E0C9C064E070E022
:1034F00085EA96E00E94B219FC01C081EC2EF12C05
:1035000065E070E085EA96E00E94B219FC019081C6
:10351000C92FD0E0DC2FCC27CE0DDF1D209719F46A
:103520000E94601614C0E12EF12C6701CC0CDD1C4A
:10353000F601E95AF94F80819181892B09F08DC0FC
:1035400060E08DEF9FE00E946892811186C011308B
:1035500019F088E49AE002C087EC9AE0BE01489630
:103560000E9410968091570B8E7F8093570B73C0EB
:103570000E94A71091E0811190E060E0892F0E94E5
:10358000E52C69C064E070E085EA96E00E94B2191B
:10359000FC0160816170113019F088E49AE002C08A
:1035A00087EC9AE00E94539456C064E070E085EA8C
:1035B00096E00E94B219FC01808181700E940E3653
:1035C0004AC00E943E28182F882309F444C064E0B2
:1035D00070E085EA96E00E94B219FC01C081EC2EF1
:1035E000F12C65E070E085EA96E00E94B219FC01DA
:1035F0009081C92FD0E0DC2FCC27CE0DDF1D209786
:10360000D1F080915B0690915C06892B39F460E0E3
:103610008DEF9FE00E946892882369F080915B069D
:1036200090915C06009731F464E670E08CE591E0DF
:103630000E947892EC01BE0183EF99E00E941096FF
:1036400061E083E299E00E9409368091570B8E7FFA
:103650008093570B14C011E012C0F601E95AF94FDC
:1036600080819181009749F4C701880F991F66EE08
:1036700070E0885A9E4F0E947892EC0168CF812FAB
:10368000DF91CF911F91FF90EF90DF90CF90089541
:103690002F923F924F925F926F927F928F929F9262
:1036A000AF92BF92CF92DF92EF92FF920F931F9350
:1036B000CF93DF93CDB7DEB7C755D1090FB6F894D6
:1036C000DEBF0FBECDBF0E94DB3B8823B9F08091E7
:1036D000A7069091A8062091A5063091A606281766
:1036E000390751F10E942A3C882331F10E942D3C78
:1036F000682F85EA96E00E94C019E9CF0E94C37343
:10370000882309F446C08091A7069091A8062091CD
:10371000A5063091A6062817390709F460C50E944E
:10372000D173882309F45BC50E94DF73682F85EA93
:1037300096E00E94C019E7CF0E942A3C811129C05F
:1037400080910202882309F440C59091A30691114B
:103750003CC591E09093B208813009F02EC586E413
:103760009BE19093A2068093A1060E942C1060E03A
:103770008FEF0E946B6F1092A8061092A70610920E
:10378000AA061092A9061092AD061092AE060E94EB
:10379000C92C8091870690918806A0918906B091E6
:1037A0008A06892B8A2B8B2B19F180918606811131
:1037B0001FC0CE0101960E943B6A62E070E0CE011C
:1037C00001960E94E73ADC014D915D916D917C91EB
:1037D0008091870690918806A0918906B0918A060B
:1037E000481759076A077B071CF481E08093860617
:1037F0008091870690918806A0918906B0918A06EB
:10380000892B8A2B8B2B79F180918606882359F19D
:103810000E94A710811127C0CE0101960E943B6A29
:1038200062E070E0CE0101960E94E73AFC0140811F
:103830005181628173818091870690918806A09161
:103840008906B0918A06481759076A077B075CF01A
:1038500060E070E0CB010E94BF1060E081E00E9458
:10386000E52C0C9423251091A306123020F00E9421
:1038700026170C9423251130F9F48091A0068111AC
:103880000C94232580919F0681110C9423258FEAA7
:1038900099E00E9431D1882311F40C9423251093D0
:1038A000A0060E942C1021E040E060E080E00E9431
:1038B0003E7660E088EFB4C480914006833071F4B6
:1038C0000E94A068882341F084E396E00E9431D1F1
:1038D000882321F00E942A73109240068091B1083B
:1038E0008823E1F08091B0088823C1F080914006E0
:1038F0008330A1F08091A306811110C00E94A7100F
:1039000081110AC088E698E19093A2068093A106EF
:1039100061E081E00E94E52C1092B10880914006A0
:10392000813031F40E94A068811102C010924006DB
:1039300080914006823039F48AE396E00E9431D1CA
:1039400081111092400680914006843009F052C0E7
:103950008EE296E00E9431D1882349F020E040E0D9
:103960006EE17AE183E299E00E94DB3420C080912D
:10397000A406813019F088E49AE002C087EC9AE04E
:1039800048960E940C97811115C0809141068823AA
:1039900071F08091A406882319F088E49AE002C0AF
:1039A00087EC9AE048960E940C97811123C01092F0
:1039B000400620C08091A406813019F088E49AE086
:1039C00002C087EC9AE048960E94E096882391F026
:1039D00080914106882359F38091A406882319F029
:1039E00088E49AE002C087EC9AE048960E94E0964C
:1039F0008111DDCF809140068530E1F48EE296E0C2
:103A00000E9431D1882349F020E040E069EE79E15D
:103A100083E299E00E94DB3406C483EF99E00E94C0
:103A20000C97882309F4FFC383EF99E00E94E09686
:103A30008111F9C380914006863091F588E296E0C5
:103A40000E9431D1882391F08091260681FF06C023
:103A500060E083E299E00E941D3822C01092400687
:103A60008091570B8F7E8093570B1AC087EC99E09B
:103A70000E94C39B8823A1F08091260682FF04C088
:103A800087EC99E00E94579A0E94FE378091570B6D
:103A90008F7E8093570B8FEF0E94DC75109240064B
:103AA000809140068111CFC78091A7069091A8060A
:103AB000892B09F4C8C783E299E00E94E43460E0EE
:103AC00070E085EA96E00E94B219DC011C911B3877
:103AD00009F4ACC31E3809F43FC61B3909F4CDC440
:103AE000193809F48AC3163809F49FC71C3809F439
:103AF0004EC70DE7010F1C3909F4B6C0103909F49F
:103B0000B3C0023008F4B0C0183809F4ADC014399D
:103B100041F48091A7069091A806059708F493C7F1
:103B200008C0163909F4A0C00E941A5281112DC094
:103B30008AC70E94091A0E94091A809327060E94C8
:103B40000D1A8C010E94091A809326060115110591
:103B500071F0D80120E432E44FE050E00E94ABD78E
:103B6000AB01BC0188E296E00E94FDD06CC0CE01A2
:103B700001960E94FAD086E0FE013196A8E2B6E0F6
:103B800001900D928A95E1F75EC0153809F42DC4B5
:103B9000153909F069C08091A7069091A80606978B
:103BA00008F451C70E94091A0E94091A182F0E948E
:103BB000091AE82E0E94091A082F0E94091AF82EE5
:103BC00010FD04C08FE499E00E94BAC0E09252094F
:103BD0000093530965EA76E08FE499E00E9443CAB6
:103BE00011FF31C7E091E109EE0FFF0BED52F64FE7
:103BF000808191818F54994009F410C46FE479E079
:103C000087EC99E00E949B991470F1100CC4112369
:103C100009F419C7FF2009F40EC4AF2DB0E020E469
:103C200032E44FE050E00E94ABD7AB01BC0188E228
:103C300096E00E94FDD081E08093270680912606C1
:103C40008470809326060E94F4376091270687ECE3
:103C500099E00E94C09B8091570B80618093570B25
:103C600086E080934006EFC6023060F58091A7069B
:103C70009091A806089708F4E6C60E94091A0E94C7
:103C8000091A082F0E941B1A6B017C010E940D1A51
:103C900023E020934006DC0120E432E44FE050E0D2
:103CA0000E94ABD7AB01BC0184E396E00E94FDD03B
:103CB00081E0143809F080E0A7019601602F0E948E
:103CC000B46EC1C6173829F58091A7069091A80651
:103CD000069708F4B8C684E08093400681E080939C
:103CE000B0080E94091A0E94091A8093A4060E9433
:103CF0000D1A0E940D1ADC0120E432E44FE050E07E
:103D00000E94ABD7AB01BC018EE296E00E94FDD0D1
:103D10009AC61D3891F48091A7069091A80606973F
:103D200008F491C685E08093400681E08093B00856
:103D30000E94091A0E94091ADACF1F3809F03FC001
:103D40008091A7069091A806029708F47CC60E946D
:103D5000091A0E94091AC82ECE0101960E943B6AD8
:103D60000EE010E0E12CF12CD12CC6010E2C02C08B
:103D7000959587950A94E2F780FF17C0B701CE01A9
:103D800001960E94EE3AFC0180819181A281B3816B
:103D90008D8B9E8BAF8BB88FF89444E050E0B801C8
:103DA000CE0145960E94F7D97894FFEFEF1AFF0AEB
:103DB0000C5F1F4F25E0E216F104B9F644C6103936
:103DC00009F05FC08091A7069091A806029708F4B9
:103DD0003AC60E94091A0E94091AC82ECE010196FD
:103DE0000E943B6A0EE010E0E12CF12CD12CC601C0
:103DF0000E2C02C0959587950A94E2F780FF0CC0BF
:103E0000F894B701CE0101960E94EE3A44E050E0EA
:103E1000B8010E94D3D978943FEFE31AF30A0C5FFC
:103E20001F4F43E0E416F10411F763E070E0CE01A8
:103E300001960E94EE3AFC0180819181A281B381BA
:103E400080935E0690935F06A0936006B093610630
:103E500064E070E0CE0101960E94EE3AFC018081A0
:103E60009181A281B3818093620690936306A093AF
:103E70006406B093650661E0CE0101960E94B269C6
:103E8000E2C5113999F48091A7069091A80603978D
:103E900008F4D9C50E94091A0E94091A182F0E9415
:103EA000091A682F812F0E949B6FCDC5123921F509
:103EB0008091A7069091A806069708F4C4C50E94B1
:103EC000091A0E94091A182F0E94091A66968FAFC4
:103ED00066970E94091A65968FAF65970E94091A26
:103EE0000E94091A65964FAD659766966FAD669705
:103EF000812F0E943776A7C51339B1F48091A706A8
:103F00009091A806069708F49EC50E94091A0E947F
:103F10000D1A8C010E940D1A7C010E94091AB7012A
:103F2000C8010E94DC398FC5183809F062C0809141
:103F3000A7069091A806049708F485C563E070E091
:103F400085EA96E00E94B2192091A7063091A80652
:103F5000DC01EC90F12CB4E0EB0EF11C2E153F05CA
:103F600008F471C580914106882339F080910002E0
:103F7000882319F01092000203C081E080930002B0
:103F800062E070E085EA96E00E94B219FC0180814F
:103F9000833059F062E070E085EA96E00E94B21941
:103FA000DC018C918C3009F01CC2809100028111DF
:103FB0000DC061E070E085EA96E00E94B219FC0154
:103FC00081E09081992319F080E001C08FEF0E9479
:103FD000411A80910002882309F435C510E0812F31
:103FE00090E08E159F0508F02EC50E94091A1F5FEC
:103FF000F6CF163909F041C08091A7069091A80626
:10400000039708F420C50E94091A0E94091A809398
:1040100001020E94091A809101028823F1F0809127
:10402000470690914806A0914906B0914A06892B0F
:104030008A2B8B2B91F48091460681110EC00E9431
:10404000E02B60934706709348068093490690934F
:104050004A068091010280934606809101028823DE
:1040600009F4F1C40E94E02B60934206709343066A
:104070008093440690934506E6C41739B9F48091BD
:10408000A7069091A8060297B8F10E94091A0E940B
:10409000091A811102C084E006C0813019F40E941F
:1040A0003D3A2AC082E00E94783A26C0183999F435
:1040B0008091A7069091A806029708F4C4C40E94B4
:1040C000091A0E94091A0E943C2760E083E299E0E5
:1040D0000E941D38B8C4193991F48091A7069091B7
:1040E000A806059708F4AFC40E94091A0E941B1A7B
:1040F00085EA96E00E943A301092B008A4C41A39BA
:1041000071F48091A7069091A806029708F49BC4C9
:104110000E94091A0E94091A0E94432CEDCF1C39F3
:1041200099F48091A7069091A806029708F48BC491
:104130000E94091A0E94091A91E0813009F090E06A
:10414000892F0E94AB6F7FC41D39A1F48091A7060F
:104150009091A806459708F476C40E941B1A0E9405
:104160001B1A0E941B1A0E941B1A0E941B1A0E94F3
:10417000091A69C41E3909F066C48091A706909196
:10418000A806059708F45FC40E94091A0E941B1A2A
:104190006B017C012FE632E143E85AE30E9464D4CC
:1041A00087FF03C0C12CD12C760142E0C701B601C4
:1041B0000E9439680E94BF1046C48B3019F485EE06
:1041C0009AE1CFCA83E39BE1CCCA8091A10690918A
:1041D000A206892B09F0DDCA0E943C3CDACA0E9483
:1041E000D1738111D6CA8091A7069091A806892B18
:1041F00009F0CFCA0E941A74CCCA8091A706909188
:10420000A806029708F41FC40E94091A0E94091AFE
:104210009091410691111DC1682F661F6627661F88
:104220000E946B6F10C41092400604CC8091A706C8
:104230009091A806499708F406C40E94091A81E0E3
:10424000809340060E941B1A6D8F7E8F8F8F98A3DC
:104250000E941B1A69A37AA38BA39CA30E941B1A1A
:104260006DA37EA38FA398A70E941B1A4B01382E23
:10427000292E0E941B1A2B013C010E941B1A69A7C0
:104280007AA78BA79CA780914106882359F080913B
:10429000A406882321F04201362C272C03C02401D8
:1042A000632C722C80925E0690925F0630926006BC
:1042B000209261068091620690916306A091640647
:1042C000B091650693018201081B190B2A0B3B0B69
:1042D000D901C80168017901FF0CCC08DC2C7601FA
:1042E0009801AD016C2D7C2D8C2D9C2DA0907E060F
:1042F000B0907F06C0908006D0908106E090820644
:10430000F090830600918406109185060E9437D9AB
:1043100020937E0630937F0640938006509381065B
:10432000609382067093830680938406909385063B
:10433000409262065092630660926406709265062F
:104340000E941D107F926F925F924F92A32CB22C0D
:10435000CDA0DEA0EFA0F8A409A11AA12BA13CA139
:104360004D8D5E8D6F8D78A1CE0101960E94B33A7E
:10437000E12C00E010E0980149A55AA56BA57CA5A9
:1043800027C00E941D10BDA5BF93E9A5EF936F92B2
:10439000FDA1FF93AD8CB9A02296CCACDDACEEAC08
:1043A000FFAC22970AAD1BAD2CAD3DAD4EA95FA968
:1043B00068AD79ADCE0101960E94B33AE72C2696FE
:1043C0000CAD1DAD2EAD3FAD269740E050E0BA01DB
:1043D000CE0101960E94626B0F900F900F900F908C
:1043E00032C381E080930002E0CD8091A7069091D6
:1043F000A806059708F427C382E0809340060E9430
:10440000091A0E941B1A9B01AC01A8EEB3E00E949E
:10441000ABD7AB01BC018AE396E078CC8FE499E09E
:104420000E94F9C0F1CB1111F2CB6F2D8FE499E00E
:104430000E94E9C008C3CE0101960E94FAD086E02E
:10444000FE013196A8E2B6E001900D928A95E1F75F
:10445000F2CB9091A406911107C0982F9F7E83FF05
:104460000AC0892F8061D8CE982F977F84FF03C020
:10447000892F8860D1CE892FCFCE8091A7069091C9
:10448000A806809708F4DFC20E94091A81E0809391
:1044900040060E941B1A22966CAF7DAF8EAF9FAF75
:1044A00022970E941B1A26966CAF7DAF8EAF9FAFEE
:1044B00026970E941B1A2A966CAF7DAF8EAF9FAFD6
:1044C0002A970E941B1A69A37DA389A79DA70E9412
:1044D0001B1A6EA778AB8AAB9EAB0E941B1A2E9656
:1044E0006CAF7DAF8EAF9FAF2E970E94091A182F29
:1044F0000E941B1A62966CAF7DAF8EAF9FAF629722
:104500000E940D1A64969FAF8EAF6497809141060A
:10451000811103C01F771D8F35C08091A4068111C2
:1045200010C0012F0F760D8F13FF1BC000610D8F80
:1045300019A11EA72DA128AB39A53AAB4DA54EABAD
:1045400021C0512F57775D8F14FF14C058605D8FC5
:104550008EA589A398A99DA3AAA9A9A7BEA9BDA70D
:1045600011C0E9A1EEA7FDA1F8AB09A50AAB1DA5F5
:104570001EAB08C02EA529A338A93DA34AA949A767
:104580005EA95DA789A18D8B9DA19E8BA9A5AF8BEF
:10459000BDA5B88FEEA5E98FF8A9FA8F0AA90B8FF0
:1045A0001EA91C8FE6E7F6E02E0125E1420E511C04
:1045B000AEE5B6E06896BFAFAEAF68971BAE1AAE79
:1045C000BD8D2B2E312C8AAD9BAD0396810102C08F
:1045D000159507958A95E2F7D2016D907D908D90A3
:1045E0009C9000FF31C074016301FF0CCC08DC2CEF
:1045F00076019301A4016C2D7C2D8C2D9C2DA08027
:10460000B180C280D380E480F580068117810E944A
:1046100037D92083318342835383648375838683B0
:1046200097836896AEADBFAD68974D915D916D91E2
:104630007C911397460D571D681D791D4D935D9311
:104640006D937C93139734C06896AEADBFAD6897F9
:104650004D915D916D917C91139794018301041BA1
:10466000150B260B370BC901B80168017901FF0C46
:10467000CC08DC2C76019B01AC016C2D7C2D8C2DA3
:104680009C2DA080B180C280D380E480F58006811B
:1046900017810E9437D920833183428353836483F7
:1046A0007583868397836D927D928D929C921397EA
:1046B0003896B4E04B0E511C6896AEADBFAD68970E
:1046C00014966896BFAFAEAF6897AAADBBAD119711
:1046D00029F0A1E0B0E0BBAFAAAF75CF0E941D10DA
:1046E0007090E115BD8D7B2AEEA9EF93FAA9FF9397
:1046F00008A90F931EA51F9389A09DA0A9A4BDA4DE
:104700002A96CCACDDACEEACFFAC2A9726960CAD6D
:104710001DAD2EAD3FAD269722964CAD5DAD6EAD75
:104720007FAD2297CE0101960E94B33A6496CEAC3B
:10473000DFAC64976296ECACFDAC0EAD1FAD62973A
:10474000272D2E964CAD5DAD6EAD7FAD2E97CE0173
:1047500001960E94AF6C40CE8091A7069091A8066A
:104760004A9708F470C10E94091A81E080934006BC
:104770000E941B1A6EAB7FAB88AF99AF0E941B1AC9
:104780006AAF7BAF8CAF9DAF0E941B1A22966CAFB5
:104790007DAF8EAF9FAF22970E941B1A4B018D8F6A
:1047A00099A30E941B1A6DA3672E89A79DA70E943B
:1047B0001B1A26966CAF7DAF8EAF9FAF26970E94D7
:1047C000091A782E80914106882369F18091A40608
:1047D00081110DC0872D8F7E73FE16C08061782EEB
:1047E0008DA2692C1D8D19A729A12DA71CC0872D6D
:1047F000877F74FE11C08860782E8DA0962C39A515
:104800003D8F4DA549A30FC0782E8DA2692C5D8DDB
:1048100059A789A18DA707C0782E8DA0962C99A5A0
:104820009D8FADA5A9A38D8A9E8ABD8DBF8BE9A161
:10483000E88FFDA1F98F6A8E09A50B8F1DA51C8F2E
:10484000E6E7F6E0DE015596BFA7AEA7AEE5B6E017
:104850002C96BFAFAEAF2C9719AA18AAA72DB0E01F
:104860002896BFAFAEAF289788A999A90396289636
:10487000AEADBFAD289702C0B595A7958A95E2F772
:10488000CD01AEA5BFA52D903D904D905C9080FFD1
:1048900031C072016101FF0CCC08DC2C7601910162
:1048A000A2016C2D7C2D8C2D9C2DA080B180C2800E
:1048B000D380E480F580068117810E9437D9208358
:1048C00031834283538364837583868397832C96D5
:1048D000AEADBFAD2C974D915D916D917C911397CD
:1048E000420D531D641D751D4D935D936D937C9317
:1048F000139734C02C96AEADBFAD2C974D915D9102
:104900006D917C91139792018101041B150B260B6D
:10491000370BC901B80168017901FF0CCC08DC2C08
:1049200076019801AC016C2D7C2D8C2D9C2DA080E6
:10493000B180C280D380E480F580068117810E9417
:1049400037D920833183428353836483758386837D
:1049500097832D923D924D925C9213973896AEA517
:10496000BFA51496BFA7AEA72C96AEADBFAD2C9732
:1049700014962C96BFAFAEAF2C97A8A9B9A91197E2
:1049800009F4FFCCA1E0B0E0B9ABA8AB6DCF80914A
:10499000A7069091A806459708F455C00E94091AE9
:1049A0000E941B1A2B013C010E941B1A6D8F7E8FE7
:1049B0008F8F98A30E941B1A6B017C010E941B1A07
:1049C0004B015C010E941B1A20914106222349F0F1
:1049D0002091A406222319F04B015C0102C0B4010E
:1049E000C50180925E0690925F06A0926006B0922A
:1049F00061066093620670936306809364069093E9
:104A000065069F938F937F936F930D8D1E8D2F8DD2
:104A100038A1B301A201CE0101960E94B33A60E031
:104A2000CE0101960E94B269D7CC8091A7069091E1
:104A3000A806029740F00E94091A0E94091A809362
:104A4000A4060E94AE6FC95ADF4F0FB6F894DEBFBE
:104A50000FBECDBFDF91CF911F910F91FF90EF90CF
:104A6000DF90CF90BF90AF909F908F907F906F908E
:104A70005F904F903F902F90089540E063E579E17B
:104A800083EB98E00E9479CDE5EAF6E080E092E0E1
:104A90009183808313821282158214828FEA96E0BA
:104AA00097838683108611868BE896E00E94B23A3F
:104AB0008AE396E00E94FAD084E396E00E94FAD05E
:104AC0008EE296E00E94FAD088E296E00C94FAD04A
:104AD000CF93DF931F921F92CDB7DEB721E02983DA
:104AE00022E32A8342E050E0BC01CE0101960E94FD
:104AF000F7D90F900F90DF91CF910895CF93DF9367
:104B0000EC0140E050E060EE70E40E94029346E663
:104B100056E666EA7EE3CE0102960E94029340E0EA
:104B200050E060E172E4CE010496DF91CF910C94E5
:104B30000293CF93DF93EC010A960E947E25CE016B
:104B400040960E947E25CE014A96DF91CF910C942B
:104B500068250F931F93CF93DF9300D0CDB7DEB7B7
:104B60008C0167E00E9401DA61E0C80102960E94B0
:104B700001DA8FEF89838A838B83B8016C5F7F4F63
:104B800043E050E0CE0101960E94F7D90F900F90BC
:104B90000F90DF91CF911F910F91089567E080E40E
:104BA00091E00C946892682F80E491E00C9401DA13
:104BB0000F931F93CF93DF9300D01F92CDB7DEB733
:104BC000082F162F68E080E491E04C830E9401DA00
:104BD00009831A834C814B8343E050E064E471E025
:104BE000CE0101960E94F7D90F900F900F900F9071
:104BF000DF91CF911F910F910895CF92DF92EF92A5
:104C0000FF92CF93DF936B017C01EA01CA010E94FE
:104C100017DAB701CE010496DF91CF91FF90EF90A4
:104C2000DF90CF900C9417DAAC016BE770E084EF63
:104C300091E00E94FD250895CF93DF93EC0166EE8D
:104C400070E00E9417DA66EE70E0CE0102960E94D4
:104C500017DA64E670E0CE0104960E9417DA65E088
:104C6000CE010696DF91CF910C9401DA61E08EE6D9
:104C700091E00E9401DA68EE73E082E791E00E9421
:104C800017DA68EE73E084E791E00E9417DA66E9CC
:104C900070E086E791E00E9417DA60ED77E088E740
:104CA00091E00E9417DA60ED77E08AE791E00E94D8
:104CB00017DA6FE070E08CE791E00E9417DA6FE09E
:104CC00070E08EE791E00E9417DA6AE070E080E819
:104CD00091E00E9417DA64E170E082E891E00E94BE
:104CE00017DA64E170E084E891E00E9417DA44EF9B
:104CF00051E060E070E088ED91E00E940FDA4CE74F
:104D000055E160E070E08CED91E00E940FDA60E127
:104D100070E080EE91E00E9417DA60E170E082EED0
:104D200091E00E9417DA60E08BE092E00E9401DAE5
:104D300061E084EE91E00E9401DA60E888E891E0A9
:104D40000C9401DACF93DF93CDB7DEB764970FB63B
:104D5000F894DEBF0FBECDBF84E1EFEBF2E0DE01E1
:104D6000119601900D928A95E1F744E150E06EE0D2
:104D700070E0CE0101960E94F7D964960FB6F894C0
:104D8000DEBF0FBECDBFDF91CF910895CF92DF92EE
:104D9000EF92FF920F931F93CF93DF93CDB7DEB7C0
:104DA00064970FB6F894DEBF0FBECDBF7C0128E03C
:104DB000E3EDF2E0DE011D9601900D922A95E1F7F8
:104DC0004CE050E06EE070E0CE0101960E94D3D935
:104DD0006E018DE0C80ED11C8701F12C48E050E037
:104DE000B801F601819191916F010E94F7D94CE0D1
:104DF00050E0B801685F7F4FCE0101960E94F7D95D
:104E000066EE70E0C80144960E9417DA66EE70E024
:104E1000C80146960E9417DAF1E0FF1619F064E621
:104E200070E002C06DE270E0C80148960E9417DA97
:104E3000F394065E1F4F84E0F812D0CF6CEA8CEF3B
:104E40009FE00E9401DA64960FB6F894DEBF0FBEB1
:104E5000CDBFDF91CF911F910F91FF90EF90DF9029
:104E6000CF900895813009F082E0682F82E490E0CD
:104E70000E9401DA0C94A2260F931F93CF93DF9325
:104E8000CDB7DEB76D970FB6F894DEBF0FBECDBFBE
:104E900085E0EBEDF2E0DE01559601900D928A95EA
:104EA000E1F74BE050E062E270E08BE393E00E94B8
:104EB000F7D945E050E066E070E0CE0145960E94EB
:104EC000F7D96FE984E090E00E9401DA6BE18CE0B1
:104ED00090E00E9401DA0E94A22684E99FE00E94ED
:104EE000C626A89544E150E06CE871E086E493E0C2
:104EF0000E94F7D944E150E064EA71E08EE693E065
:104F00000E94F7D944E150E064EF71E08AE593E054
:104F10000E94F7D90E94362681EC93E29B8F8A8FFC
:104F200084E193ED9D8F8C8F44E050E064E470E069
:104F3000CE014A960E94F7D980E091E00E9499251F
:104F40008CE191E00E94992500E010E020E030E043
:104F500040E050E060E070E088EC91E00E948E93C9
:104F600020E030E040E050E060E070E080ED91E073
:104F70000E948E9380E491E00E94A9258AE491E04A
:104F80000E94142688E591E00E941C2661E080E6DC
:104F900091E00E9401DA60E08DEF9FE00E9401DA6B
:104FA00060E08EEF9FE00E9401DA60E08FEF9FE00B
:104FB0000E9401DA61E082E99FE00E9401DA60E08C
:104FC00081E99FE00E9401DA80E00E94322761E0DF
:104FD0008CE490E00E9401DA60E08FE89FE00E949C
:104FE00001DA60E08EE89FE00E9401DA88EC90E050
:104FF000A0E0B0E089839A83AB83BC8344E050E0B7
:1050000066E67FE08E010F5F1F4FC8010E94F7D94F
:1050100063E084E69FE00E9401DA64E683E69FE0B5
:105020000E9401DA84E1F80111928A95E9F744E1DE
:1050300050E069E47FE0C8010E94F7D960E080E9B0
:105040009FE00E9401DA60E088E49FE00E9401DABC
:105050006D960FB6F894DEBF0FBECDBFDF91CF9136
:105060001F910F91089561E082E490E00E946892A0
:1050700091E0823009F490E0892F089561E08CE49A
:1050800090E00E94689291E0813009F090E0892FD1
:105090000895CF93DF93CDB7DEB72C970FB6F89472
:1050A000DEBF0FBECDBF81E89CE0A0E0B0E0898309
:1050B0009A83AB83BC831D821E821F821886198649
:1050C0001A861B861C864CE050E062E671E0CE0139
:1050D00001960E94F7D92C960FB6F894DEBF0FBE4A
:1050E000CDBFDF91CF9108950F931F93CF93DF939F
:1050F0008C01EB0160E070E080EA91E00E94789220
:10510000F8019183808360E082EA91E00E946892D6
:105110008883DF91CF911F910F910895CF93C62F70
:10512000BC0180EA91E00E9417DA6C2F82EA91E0DC
:10513000CF910C9401DAFF920F931F93CF93DF93DB
:1051400000D0CDB7DEB78C01F62EBE016D5F7F4F6C
:10515000CE0101960E9474289B812F2D290F822F4A
:105160006CE30E941FD79B832D3330F029813A8155
:10517000280F311D3A83298329813A81692FC8017B
:10518000820F931F0E948E280F900F900F90DF9137
:10519000CF911F910F91FF9008950F931F9367E197
:1051A00082E090E00E9401DA80E00E9432270E94B3
:1051B000492860E080E090E00E948E2861E088E06D
:1051C00092E00E9401DA00E010E020E030E040E0F0
:1051D00050E060E070E088EB91E00E948E9320E068
:1051E00030E040E050E060E070E080EC91E00E9450
:1051F0008E931F910F910C943C2767E080E491E01F
:105200000E946892873041F061E082E491E00E9460
:10521000689291E0873009F490E0892F089540E08A
:1052200063E579E188EB98E00C9479CDCF92DF9239
:10523000EF92FF920F931F93CF93DF93EC0188813E
:10524000811102C080E034C08B0160E0CE010E9479
:10525000E5CC87FFF7CF0E94DB3B811104C00E94A1
:10526000C373882331F06AE8C8010E942FCD81E022
:105270001FC0F894E8800E943210F12C8E159F0513
:1052800088F0C12CD12CCE14DF0454F46C2DCE0147
:105290000E94E5CC0E94DF198FEFC81AD80AF3CF1D
:1052A00061E801C062E8C8010E942FCD7894DFCF89
:1052B000DF91CF911F910F91FF90EF90DF90CF90F2
:1052C000089586E08093CD0881E08093BD0808951D
:1052D0000F931F93CF93DF93CDB7DEB765970FB6CC
:1052E000F894DEBF0FBECDBF8C01F894BE016B5E9B
:1052F0007F4FCE0101960E94CF6A61E8C8010E94EB
:105300002FCD60E070E0CE0101960E94E73AFC01EB
:105310004081518162817381C8010E9446CD61E064
:1053200070E0CE0101960E94E73AFC014081518174
:1053300062817381C8010E9446CD62E070E0CE01B7
:1053400001960E94E73AFC0140815181628173819C
:10535000C8010E9446CD0E94BD6F682FC8010E94FF
:105360002FCD789465960FB6F894DEBF0FBECDBFF3
:10537000DF91CF911F910F9108950F931F93CF93BA
:10538000DF93CDB7DEB765970FB6F894DEBF0FBEDB
:10539000CDBF8C01F894BE016B5E7F4FCE010196AC
:1053A0000E94CF6A61E8C8010E942FCD60E070E0E2
:1053B000CE0101960E94E73AFC0140815181628151
:1053C0007381C8010E9446CD61E070E0CE01019674
:1053D0000E94E73AFC014081518162817381C801DA
:1053E0000E9446CD62E070E0CE0101960E94E73A4D
:1053F000FC014081518162817381C8010E9446CDC8
:1054000063E070E0CE0101960E94E73AFC01408122
:10541000518162817381C8010E9446CD64E070E0D1
:10542000CE0101960E94E73AFC01408151816281E0
:105430007381C8010E9446CD0E94BD6F682F70E045
:10544000C8010E9431CD789465960FB6F894DEBFFE
:105450000FBECDBFDF91CF911F910F910895DF92C5
:10546000EF92FF920F931F93CF93DF93CDB7DEB7E9
:10547000A0970FB6F894DEBF0FBECDBF8C017B01A5
:1054800061E8C7010E942FCD61E0C8010E94E5CC10
:10549000882321F00E94F53C81112BC09E01205EE3
:1054A0003F4F40E050E06FE1CE0101960E94063D83
:1054B00089818E3249F488A1882381F38A818E32D2
:1054C00069F78B818111EACF60E0C7010E942FCD7F
:1054D0008E010F5F1F4F8FE1D82ED00EF801619122
:1054E0008F01662351F0C7010E942FCDD012F6CF55
:1054F00004C0682FC7010E942FCD60E0C7010E9441
:105500002FCDA0960FB6F894DEBF0FBECDBFDF91B2
:10551000CF911F910F91FF90EF90DF9008958F92A0
:105520009F92AF92BF92CF92DF92EF92FF920F9332
:105530001F93CF93DF93CDB7DEB78C015B018DB6A0
:105540009EB661E00E94EACC6C0163E0C8010E9453
:10555000E5CC082F10E08DB79EB7801B910B0FB6DE
:10556000F8949EBF0FBE8DBFEDB7FEB731967F0199
:10557000A801B601CF010E94D3D961E8C5010E94FC
:105580002FCD6701C6018E199F09801791073CF442
:10559000F60161916F01C5010E942FCDF3CF0FB6C7
:1055A000F8949EBE0FBE8DBEDF91CF911F910F91DB
:1055B000FF90EF90DF90CF90BF90AF909F908F9033
:1055C00008952F923F924F925F926F927F928F92A7
:1055D0009F92AF92BF92CF92DF92EF92FF920F9382
:1055E0001F93CF93DF931F92CDB7DEB76C015B01A2
:1055F0002DB63EB661E00E94EACC4C0163E0C601E4
:105600000E94E5CC8983082F10E08DB79EB7801BE0
:10561000910B0FB6F8949EBF0FBE8DBFEDB7FEB7CE
:1056200031967F01A801B401CF010E94D3D937017F
:10563000412C512C4016510664F464E0640DC601FF
:105640000E94E5CCF30181933F01FFEF4F1A5F0AFF
:10565000F1CFDFB6F894A801B401C7010E94F7D9D1
:10566000DFBE61E8C5010E942FCD6981C5010E949E
:105670002FCD0FB6F8943EBE0FBE2DBE0F90DF911A
:10568000CF911F910F91FF90EF90DF90CF90BF903F
:10569000AF909F908F907F906F905F904F903F90D2
:1056A0002F9008950F931F93CF93DF938091ED0870
:1056B000811111C00DEE18E0C2E2D0E060E0CE0131
:1056C0000E946892F80181938F012196C233D1051F
:1056D000A9F71092FD088091ED0881110DC0E0EC52
:1056E000F4E0ADEEB8E08CE08A0F94919D93319692
:1056F0008A13FBCF1092F9088DEE98E0DF91CF91DD
:105700001F910F9108958091CD0808958091CC0844
:10571000089583E299E00E9426336093C70870934E
:10572000C8088093C9089093CA0881E08093CB0889
:1057300008951092C3081092C4081092C5081092E0
:10574000C6080C94892B0F931F938091CB0881304E
:1057500089F483E299E00E9426330091C7081091F2
:10576000C8082091C9083091CA08601B710B820BD0
:10577000930B03C060E070E0CB011F910F9108957F
:105780000F931F930E94A32B0091C3081091C4088C
:105790002091C5083091C608DC01CB01800F911F14
:1057A000A21FB31F8093C3089093C408A093C50899
:1057B000B093C60882E08093CB081F910F910895A3
:1057C0000F931F930E94A32B0091C3081091C4084C
:1057D0002091C5083091C608600F711F821F931F6A
:1057E0001F910F9108958F929F92AF92BF92FF9257
:1057F0000F931F93CF93DF932091CB0821110CC0FF
:105800002091C1083091C208FC013183208380912E
:10581000C008FB0180831DC08B01EC010E94E02BBE
:105820004B015C0120E13EE040E050E00E9453D794
:10583000F22E28833983C501B4012CE330E040E027
:1058400050E00E9453D7FCE3FF9E20191124F80179
:105850002083DF91CF911F910F91FF90BF90AF9068
:105860009F908F90089560EC78E081EC98E00E9422
:10587000F32B1092CB086091C0088091C1089091E1
:10588000C2080C949B280E94332C60E088EF0E9491
:105890006B6F81E00E942C3680E00E940E3682E021
:1058A0008093CC081092CD0808950097C1F028E0AD
:1058B0008E3C9207B1F0603208F06EE1DC014EECF4
:1058C00058E0FA012E2F241B261718F42D9121934E
:1058D000F9CFE62FF0E0E253F74F108202C08EECD2
:1058E00098E00E94D33D8930A9F0811114C081E075
:1058F0000E942C360E94C2110E948A700E942A7354
:105900001092FE0882E08093CD088091570B80684A
:105910008093570B80E008951092FE080E94FB735D
:10592000882319F085E08093CD088091570B84601F
:105930008093570B0E94C2110E942A738FEF8093AD
:10594000BE020895CF93C091CD08C13069F484E0C0
:105950008093CD0840E452E46FE070E085E099E088
:105960000E94FDD0C093BD080E94332C81E080933B
:10597000BF0840E45DE063E070E08FEF98E00E94D4
:10598000FDD08FEF0E94DC7584E08093CC08CF912E
:10599000089585E08093CC0881E08093FE080E9402
:1059A0002A738091570B8B7780628093570B0E94EC
:1059B000A710811108C00E94B810811104C060E0D6
:1059C00081E00C9497100C94A22C1F93CF93DF933B
:1059D0001F92CDB7DEB7182F69830E94A71091E000
:1059E0006981811101C090E01917E9F069830E9473
:1059F000B8106981811117C0812F0E94971011235F
:105A000049F083E08093CC080F90DF91CF911F91F4
:105A10000C94C02B81E08093CC080F90DF91CF9144
:105A20001F910C94892B0F90DF91CF911F910895B6
:105A3000EF92FF920F931F93CF93DF93FC0120818E
:105A4000222309F4BAC0EB017C0161E00E94E5CC9D
:105A5000082F62E0C7010E94E5CC182F61E8CE0153
:105A60000E942FCD103209F447C090F4123089F112
:105A700028F41111A2C064EC72E04AC0163199F109
:105A80001E3109F09AC06091FD097091FE0940C075
:105A9000133209F457C020F4113209F445C08DC007
:105AA000143209F455C0153209F087C040E050E0C7
:105AB000BA01CE010E9446CD40E050E0BA01CE01CD
:105AC0000E9446CD40E050E0BA01CE010E9446CD92
:105AD00072C0013019F0E8E4FAE002C0E7ECFAE045
