:100000000C94950F0C94D00F0C94D00F0C94D00F2F
:100010000C94D00F0C94D00F0C94D00F0C94D00FE4
:100020000C94D00F0C94D00F0C94D00F0C94D00FD4
:100030000C94D00F0C94D5340C94D00F0C94D00F9A
:100040000C94D00F0C94D00F0C94D00F0C94D00FB4
:100050000C94D00F0C94D00F0C94D00F0C94D00FA4
:100060000C94D00F0C9439D00C94D00F0C9465D014
:100070000C94D00F0C94B8910C94D00F0C94D00F1A
:100080000C94AB340C94D00F0C94D00F0C94D00F74
:100090000C9499D00C94D00F0C94C5D00C94D00F24
:1000A0000C94D00F0C94D00F0C94D00F0C94D00F54
:1000B0000C94D00F0C94D00F0C94D00F0C94FD34F2
:1000C0000C94D00F0C94D00F0C94D00F0C94D00F34
:1000D0000C94D00F0C94D00F0C94D00F0C94D00F24
:1000E0000C94D00FCA2D0A2E0C2EF22D162ECF2EC8
:1000F000CF2EF22D3F2ECF2E4D2E522E662E6B2E52
:10010000CF2ECF2E1E2EF22D3A2ECF2ED82D1A2ED8
:10011000702E832E8A2ECF2ECF2EAF2ED5769C76A4
:10012000A77699769676A976C876AC76F8B715B89C
:1001300022B84BB86AB87DB88BB8C0B80C94D3A1BC
:100140000C945BCC0C9462A60C949EA50C9465A0B8
:100150000C9427B30C9469BC0C94A7760C94F2AB66
:100160000C9449910C94AC760C94ECA10C94BAA02C
:100170000C94E7A10C94D9AF0C948CA10C94278C0F
:100180000C942A770C9499BE0C9492A00C942AA9F2
:100190000C94DCB10C9475C10C9425CE0C94A9A2DE
:1001A0000C946DC80C9447AB0C94F1A10C941CB545
:1001B0000C94D0A20C94D6B60C9425950C94B5A0B2
:1001C0000C942CB10C94B5A10C9466A20C941B77E2
:1001D0000C94DDA80C94B0BE0C945FA70C9479A08D
:1001E0000C94CF2E0C9457A00C94C7AC0C94BFA0C9
:1001F0000C947EA00C941CB70C94B8C60C94387761
:100200000C9470CE0C94E2910C9442910C941E2E9E
:100210000C9400A60C9403C50C94A9760C943DC6CE
:100220000C9450B60C94BFA20C9479950C94AF2EFC
:100230000C94662E0C948A2E0C94ABA00C94EBAA12
:100240000C9479C30C94CA2D0C941D310C943F2E40
:100250000C946AB80C94A6770C9448AE0C94CDC854
:100260000C9499900C9406C70C94C4A00C944DADBA
:100270000C940A2E0C9499CE0C949C760C940277D4
:100280000C947AC40C949CA50C94C8760C94ACCFB6
:100290000C94F9D00C9456C40C945DA60C948CD696
:1002A0000C941A2E0C9496A70C940CC40C948BA648
:1002B0000C943A2E0C9417B20C94CEA00C9437CF19
:1002C0000C94FB760C946A940C94C0B80C94A5A67C
:1002D0000C946B2E0C94C0AE0C9406D10C94F1BA15
:1002E0000C9441770C9453A50C948BB10C94E4A11D
:1002F0000C94A4B20C9465AF0C94522E0C94A2A151
:100300000C9496B00C94FC240C944AB50C9405A261
:100310000C94D82D0C942D8A0C9482CC0C94F2C0A1
:100320000C9474A60C94563A0C9485A30C9440AC8F
:100330000C947DB80C9499760C944C680C948BA119
:100340000C940C2E0C9422B80C94D3A00C942EA8D0
:100350000C94849C0C94B5990C94EAA20C94E13D05
:100360000C9474A00C9484920C94F22D0C9483B091
:100370000C949FA10C94C6A10C9488A00C946FAA15
:100380000C94A6A00C94B0A00C948BB80C94F89C80
:100390000C948DA00C94F8A80C9450CC0C94BDA196
:1003A0000C94162E0C9415C00C942BB40C9425317F
:1003B0000C942ECC0C941BBE0C945FC50C94AA8E8E
:1003C0000C94CDB20C9451C20C9483A00C948FA5C4
:1003D0000C94A1A00C94D9A90C944BB80C949F7BBD
:1003E0000C942A650C9497A00C94C9A00C9473AD3E
:1003F0000C946FA00C94BBA40C94F2B00C946AA063
:100400000C94D1370C9408A30C9411B50C9420A52E
:100410000C94D5760C944D2E0C949CA00C941E310B
:100420000C9493A80C9431B60C9493A20C944D7F29
:100430000C94CE280C94F8B70C94702E0C944FCDDD
:100440000C9419730C94803F0C949CA70C94967692
:100450000C94832E0C94E88A0C941DCE0C9478C2D4
:100460000C940AC50C94E3740C9458B40C94373073
:100470000C94FFB10C94D4730C94F6B90C945AC537
:100480000C9418CC0C9415B80C9426770C94FD9908
:100490000C94C2A10C9456A60C945EA00C94E85245
:1004A0000C94ADC70C94F0A10C94388F0C94CAA195
:1004B0005265706C6963617430722031001704C832
:1004C000000000DC0027056400000078007505C806
:1004D000000000DC002006640000007800E006C890
:1004E000000000DC002006C8000000DC002006C878
:1004F000000000DC002D08C80000000000C00DC88E
:100500000000001400C00DC800000014005A10C8FC
:100510000000001400C00D90010000000070039066
:1005200001000014005504C800000014002705C88D
:1005300000000014007003900100000000C805C80E
:100540000000001400C805C80000001400C805C859
:100550000000001400DD04B004000014007505C89C
:1005600000000014007505C800000014007505C8DF
:1005700000000014009704B00400000000C00DC883
:100580000000001400C00DC80000001400910E907F
:1005900001000014005A10900100001400C00D204A
:1005A00003000000007003BC000000BC00E006BCBB
:1005B000000000BC00B807BC000000BC002D08BC57
:1005C00000A908BC000000BC00C00D4D01000000E7
:1005D00000C00D20010000BC005311BC000000BC95
:1005E000005B12B101000000009302690000006985
:1005F00000EE016900000069002601B8010000005A
:100600000024F4D43050C38E20C2A24017828B70D5
:1006100011127A910D816CD90AA861E108C7586658
:1006200007615143061E4B5D05C145A7041A4111E0
:1006300004093D9803713931034036DB026533917B
:1006400002D4305402802E1D02632CEE01752AC59F
:1006500001B028A001102781018F2564012B244BB4
:1006600001E0223401AC211F018D200D01801FFC0F
:1006700000841EED00971DDF00B81CD200E61BC6EB
:1006800000201BBC00641AB200B219A8000A19A00D
:10069000006A189900D117910040178B00B5168495
:1006A0000031167E00B31579003A157300C7146F38
:1006B0000058146A00EE1366008813630025135E69
:1006C00000C7125B006C12570015125400C1115183
:1006D0000070114F0021114B00D61049008D1047BA
:1006E000004610440002104200C00F4000800F3E40
:1006F00000420F3C00060F3B00CB0E3800930E3734
:10070000005C0E3500270E3400F30D3200C10D31B0
:1007100000900D3000600D2E00320D2D00050D2CC7
:1007200000D90C2B00AE0C2900850C29005C0C278D
:1007300000350C27000E0C2600E80B2400C40B2407
:1007400000A00B23007D0B23005A0B2100390B2145
:1007500000180B2000F80A1F00D90A1E00BB0A1E51
:10076000009D0A1D00800A1D00630A1C00470A1B29
:10077000002C0A1B00110A1A00F7091A00DD0919DA
:1007800000C4091900AB091900920917007B091868
:1007900000630917004C09160036091600200916D7
:1007A000000A091500F5081500E0081400CC08142B
:1007B00000B8081400A4081400900813007D081263
:1007C000006B081300580812004608120034081184
:1007D00000230811001208110001081100F0071091
:1007E00000E0071000D0071000C0071000B0070F8E
:1007F00000A107100091070E0083070F0074070F78
:100800000065070E0057070E0049070E003B070D55
:10081000002E070E0020070D0013070D0006070D20
:1008200000F9060C00ED060D00E0060C00D4060CE5
:1008300000C8060C00BC060C00B0060C00A4060B99
:100840000099060C008D060B0082060B0077060B44
:10085000006C060B0061060A0057060B004C060AE6
:100860000042060A0038060A002E060A0024060A7C
:10087000001A060A001006090007060A00FD05090D
:1008800000F4050900EB050900E2050900D9050996
:1008900000D0050900C7050900BE050900B5050817
:1008A00000AD050800A50509009C05080094050891
:1008B000008C050800840508007C05080074050804
:1008C000006C050700650508005D05070056050872
:1008D000004E0507004705070040050800380507DA
:1008E00000310507002A050700230507001C05063F
:1008F00000160507000F050700080506000205079A
:1009000000FB040600F5040700EE040600E80406F8
:1009100000E2040700DB040600D5040600CF04064D
:1009200000C9040600C3040600BD040600B704069F
:1009300000B1040500AC040600A6040600A00405EE
:10094000009B04060095040500900406008A040537
:100950000085040500800406007A0405007504057E
:1009600000700405006B04050066040500610405C1
:10097000005C04050057040500520405004D040501
:100980000048040500430405003E0404003A040541
:100990000035040500300404002C0405002704047D
:1009A00000230405001E0404001A040400160405B4
:1009B00000110404000D04040009040500040404EB
:1009C0000000040400FC030400F8030400F4030422
:1009D00000F0030400EC030400E8030400E4030453
:1009E00000E0030400DC030400D8030400D4030483
:1009F00000D0030400CC030400C8030300C50303B4
:100A00000024F404D9201BC40C5C0E9804C4095FB4
:100A10000265077101F405F900FB04B3004804877F
:100A200000C10369005803550003034500BE023AA4
:100A3000008402310053022A00290225000402200A
:100A400000E4011C00C8011900AF0117009801144F
:100A50000084011300710110006101100051010EAA
:100A60000043010D0036010B002B010B0020010B90
:100A700000150109000C01090003010800FB000832
:100A800000F3000800EB000700E4000600DE0006AB
:100A900000D8000600D2000600CC000500C7000503
:100AA00000C2000500BD000400B9000400B5000448
:100AB00000B1000400AD000400A9000400A500037B
:100AC00000A20003009F0004009B000300980003A5
:100AD000009500020093000300900003008D0002C7
:100AE000008B0003008800020086000200840003DF
:100AF00000810002007F0002007D0002007B0002F6
:100B00000079000200770001007600020074000204
:100B10000072000100710002006F0002006D000110
:100B2000006C0002006A0001006900020067000119
:100B3000006600010065000100640002006200011F
:100B40000061000100600001005F0002005D000123
:100B5000005C0001005B0001005A00010059000127
:100B60000058000100570001005600010055000127
:100B70000054000100530000005300010052000126
:100B80000051000100500001004F0001004E000024
:100B9000004E0001004D0001004C0001004B000020
:100BA000004B0001004A000100490001004800001C
:100BB0000048000100470001004600000046000117
:100BC0000045000000450001004400010043000012
:100BD000004300010042000000420001004100000B
:100BE0000041000100400001003F0000003F000103
:100BF000003E0000003E0001003D0000003D0001FD
:100C0000003C0000003C0000003C0001003B0000F4
:100C1000003B0001003A0000003A000100390000EA
:100C200000390001003800000038000000380001E1
:100C300000370000003700010036000000360000D9
:100C400000360001003500000035000000350001CD
:100C500000340000003400000034000100330000C4
:100C600000330000003300010032000000320000B9
:100C700000320001003100000031000000310001AD
:100C8000003000000030000000300001002F0000A4
:100C9000002F0000002F0000002F0001002E000098
:100CA000002E0000002E0001002D0000002D00008D
:100CB000002D0000002D0001002C0000002C000081
:100CC000002C0000002C0001002B0000002B000075
:100CD000002B0000002B0001002A0000002A000069
:100CE000002A0000002A000100290000002900005D
:100CF0000029000000290000002900010028000050
:100D00000028000000280000002800000028000142
:100D10000027000000270000002700000027000037
:100D20000027000100260000002600000026000029
:100D3000002600000026000100250000002500001C
:100D4000002500000025000000250000002500010E
:100D50000024000000240000002400000024000003
:100D600000240001002300000023000000230000F5
:100D700000230000002300000023000000230001E6
:100D800000220000002200000022000000220000DB
:100D900000220000002200010021000000210000CC
:100DA00000210000002100000021000000210000BF
:100DB00000210001002000000020000000200000B1
:100DC00000200000002000000020000000200000A3
:100DD00000200001001F0000001F0000001F000095
:100DE000001F0000001F0000001F0000001F000186
:100DF000001E0000001E0000001E0000001E00007B
:100E0000008908990000000052657047204275690A
:100E10006C64009600FF84036901000014008304E1
:100E20008800000014008C0000000000000000306A
:100E3000F8FFFF00000000000000009B0000000021
:100E400000000000000000000000000000000000A2
:100E5000A51C0000180000A04095048304DC0500D8
:100E6000001400901F891B95000000004C4556455A
:100E70004C494E47202020202020202020202020C8
:100E8000009501000000202020202020202020208C
:100E9000202020202020202020200095010000007C
:100EA00050726573732063656E746572206B65792B
:100EB000202020200095030000007768656E2064E4
:100EC0006F6E65008500CA9A3B891F62003B020075
:100ED0000000002110422063308440A550C660E726
:100EE00070088129914AA16BB18CC1ADD1CEE1EFDF
:100EF000F13112100273325222B5529442F772D677
:100F000062399318837BB35AA3BDD39CC3FFF3DE2E
:100F1000E36224433420040114E664C774A44485C6
:100F2000546AA54BB528850995EEE5CFF5ACC58D7E
:100F3000D55336722611163006D776F6669556B416
:100F4000465BB77AA719973887DFF7FEE79DD7BCCE
:100F5000C7C448E5588668A7784008611802282366
:100F600038CCC9EDD98EE9AFF9488969990AA92B1E
:100F7000B9F55AD44AB77A966A711A500A333A12B6
:100F80002AFDDBDCCBBFFB9EEB799B588B3BBB1A6E
:100F9000ABA66C877CE44CC55C222C033C600C4106
:100FA0001CAEED8FFDECCDCDDD2AAD0BBD688D49BE
:100FB0009D977EB66ED55EF44E133E322E511E7056
:100FC0000E9FFFBEEFDDDFFCCF1BBF3AAF599F780E
:100FD0008F8891A981CAB1EBA10CD12DC14EF16FBF
:100FE000E18010A100C230E3200450254046706724
:100FF00060B9839893FBA3DAB33DC31CD37FE35E50
:10100000F3B1029012F322D2323542145277625673
:1010100072EAB5CBA5A89589856EF54FE52CD50D5F
:10102000C5E234C324A014810466744764245405C3
:1010300044DBA7FAB79987B8975FE77EF71DC73CEF
:10104000D7D326F2369106B0165766767615463413
:10105000564CD96DC90EF92FE9C899E9898AB9ABFF
:10106000A94458654806782768C018E1088238A363
:10107000287DCB5CDB3FEB1EFBF98BD89BBBAB9A8F
:10108000BB754A545A376A167AF10AD01AB32A92B3
:101090003A2EFD0FED6CDD4DCDAABD8BADE89DC99F
:1010A0008D267C076C645C454CA23C832CE01CC103
:1010B0000C1FEF3EFF5DCF7CDF9BAFBABFD98FF82F
:1010C0009F176E367E554E745E932EB23ED10EF053
:1010D0001E78206D6F726521002A2050726573732F
:1010E000200045726173696E672E2E2E0065657053
:1010F000726F6D5F64756D702E62696E2066696CCB
:10110000656E6F7420666F756E6400526561642051
:101110006661696C65643B20454550524F4D206DBA
:10112000617920626520636F727275707400526518
:1011300073746F72696E672E2E2E00656570726F04
:101140006D5F64756D702E62696E2066696C656195
:101150006C726561647920657869737473005344B7
:101160002063617264207772697465206661696CBE
:10117000656400536176696E672E2E2E005072658D
:10118000737320555020746F2070726F63656564AF
:101190002E00796F757220626F7420696E6F7065B2
:1011A0007261626C652E0054686973206D656E759E
:1011B0002063616E206D616B65005361696C6669C7
:1011C00073682076372E38207230613265660041B0
:1011D000546D65676120323536302031372F303716
:1011E0002F3036002D2D20486561746572205370B4
:1011F000656369616C202D2D005361696C666973AC
:10120000682046462043726561746F72200020207A
:1012100020202020202020202020202020202020CE
:10122000202000202020200020004320202020001B
:101230002F2020204300010049033600FF006B00EF
:10124000D100A000B800D500A6000A0199003F0116
:101250008E0074018400A9017C00DE017400130279
:101260006C00480265007D025D00B2025600E70294
:101270004E001C03460051033D0086033200BB03B1
:101280002200F0030300FF030000456C61707365EA
:10129000643A20202020202020202020306D0020B3
:1012A0007365637300546F20476F3A20202020201D
:1012B00020202020202020306D0055415254310044
:1012C00020205553420053657269616C20492F4FAD
:1012D00000457261736520456570726F6D005344FF
:1012E000202D3E20456570726F6D00456570726FF0
:1012F0006D202D3E20534400456570726F6D005087
:1013000072696E742054696D653A2020206820301F
:10131000306D004C617374205072696E743A2020F5
:101320002020682030306D004C69666574696D65F9
:101330003A202020202020682030306D0052657334
:10134000756D696E6720706F736974696F6E2E2E8C
:101350002E00436C656172696E67206275696C640A
:101360002E2E2E20202000447261696E696E672047
:10137000706970656C696E652E2E2E004C65617605
:10138000696E672070617573652E2E2E20202020D7
:101390000043616E63656C6C696E67207072696E84
:1013A000742E2E2E2000456E746572696E67207053
:1013B000617573652E2E2E20202000506175736597
:1013C000206174205A506F733A2000506C6174662B
:1013D0006F726D2054656D703A202020004C656658
:1013E000742054656D703A20005269676874205407
:1013F000656D703A2000546F6F6C68656164204FB2
:101400006666736574730020546F6F6C6865616401
:10141000204F66667365743A00204F666673657484
:101420003A0055702F446E2F4C6566742F4D207412
:101430006F207365740055702F446E2F522F4C2F00
:101440004D20746F207365740050726F66696C650F
:10145000204E616D653A005361766520546F2050CF
:10146000726F66696C65004368616E6765204E61E6
:101470006D6500446973706C617920436F6E6669B5
:101480006700526573746F72650052657365743AD4
:101490002070726573732043454E5445520046696F
:1014A0006C2E20547269703A0046696C616D656EED
:1014B000743A00547269703A004C6966653A0046A5
:1014C000696C616D656E74204F646F6D65746572D3
:1014D0000048656174657273204F66660043616EF3
:1014E00063656C205072696E74005072696E74206E
:1014F00053746174697374696373004261636B2030
:10150000746F204D6F6E69746F72006D006D6D00A9
:10151000486F6D65204F6666736574730050726F17
:1015200066696C65730046696C616D656E743A003E
:101530005A506F736974696F6E3A202020005072A0
:10154000696E742054696D653A202020202068203F
:10155000206D0054656D70657261747572652072DE
:10156000656164732020206F7574206F662072613E
:101570006E67652E20202020202020436865636B45
:1015800020776972696E672E0054656D70657261AF
:1015900074757265207265616473202020617265C4
:1015A000206661696C696E672E2020202020202033
:1015B00020436865636B20776972696E672E0054FB
:1015C000656D70657261747572652064726F70709C
:1015D000696E67436865636B20776972696E672E11
:1015E000004E6F742068656174696E672070726F59
:1015F0007065726C79436865636B20776972696E98
:10160000672E0054656D70206C696D697420726579
:1016100061636865642E2053687574646F776E200B
:101620006F7220726573746172742E00506C6174F5
:10163000666F726D204661696C757265212020208D
:1016400000546F6F6C2031204661696C75726521A2
:10165000202020202000546F6F6C203020466169CC
:101660006C757265212020202020004578747275E9
:10167000646572204661696C7572652120202000C6
:10168000486561746572732073687574646F776EF2
:1016900020647565746F20696E616374697669741E
:1016A000790046696C616D656E74206C6F61642FA2
:1016B000756E6C6F616463616E63656C65642064F4
:1016C000756520746F20746865207072696F722070
:1016D000686561746572206572726F72004D792061
:1016E00074656D70657261747572652077617320C1
:1016F000206368616E6765642065787465726E61E9
:101700006C6C792E20526573656C65637420666914
:101710006C616D656E742020206D656E7520746F30
:101720002074727920616761696E2E007761697437
:10173000696E67200020204E412020202000657225
:10174000726F7221004F46462020200043555354AB
:101750004F4D0057484954452000505552504C4574
:1017600000424C5545202000475245454E20005030
:10177000494E4B2020004F52414E474500524544B0
:10178000202020004C454420436F6C6F757200533D
:101790006574204C6967687473204F4E2000536550
:1017A00074204C6967687473204F46460028436173
:1017B0006E6E6F74205072696E7420436F70792959
:1017C000005072696E7420416E6F746865722043B8
:1017D0006F7079004D61696E204D656E75005365BF
:1017E0007420436F6F6C696E672046616E204F46B0
:1017F000460053657420436F6F6C696E67204661C5
:101800006E204F4E20004368616E6765204842504D
:101810002054656D70004368616E67652054656D86
:101820007065726174757265004368616E676520EA
:101830005370656564005061757365206174205A4A
:10184000506F7300446974746F205072696E7469CC
:101850006E67004E2F4100502D53746F70207472CC
:101860006967676572656400502D53746F70204915
:101870006E76657274656400502D53746F702043EA
:101880006F6E74726F6C00436865636B2053442005
:10189000526561647300457874727564657220489E
:1018A0006F6C6400506175736520776974682048B7
:1018B000656174004F766572726964652047635490
:1018C000656D700048425020696E7374616C6C6580
:1018D0006400416363656C65726174696F6E004595
:1018E000786974204D656E7500536F756E640045A0
:1018F0007874727564657220436F756E7400426F00
:101900007420537461746973746963730043616C08
:10191000696272617465204E6F7A7A6C65730052E9
:101920006573746F72652053657474696E677300B4
:1019300047656E6572616C2053657474696E677378
:1019400000507265686561742053657474696E67D0
:1019500073004C6576656C00456E61626C65205362
:101960007465707065727320200044697361626CE5
:101970006520537465707065727300566572736983
:101980006F6E20496E666F726D6174696F6E00468E
:10199000696C616D656E74204C6F6164696E67007F
:1019A000486F6D652041786573004A6F67204D6F01
:1019B0006465004D6F6E69746F72204D6F646500D1
:1019C0005574696C69746965730050726568656106
:1019D00074005072696E7400492074696D656420EA
:1019E0006F7574207768696C652020206174746558
:1019F0006D7074696E6720746F2068656174202053
:101A00006D7920706C6174666F726D2E0049207460
:101A1000696D6564206F7574207768696C65202036
:101A200020617474656D7074696E6720746F2068CE
:101A300065617420206D79206578747275646572B3
:101A40002E00556E61626C6520746F207265616452
:101A50002053442020206361726420706172746995
:101A600074696F6E73206F76657232474220696EBB
:101A70002073697A652E2020466F726D61746173E0
:101A8000204641542D3136206F72202D33322E00E6
:101A9000556E61626C6520746F207265616420749C
:101AA000686973205344206361726420666F726DAD
:101AB00061742E2020202020466F726D6174206199
:101AC00073204641542D3136206F72204641542DEB
:101AD00033322E0053442063617264207265616466
:101AE000206572726F722E20546F6F206D616E7957
:101AF00020435243206572726F72732E42616420DC
:101B00006361726420636F6E7461637473206F72BB
:101B1000656C656374726963616C206E6F6973656F
:101B20002E005344206361726420726561642065F5
:101B300072726F720053442063617264206E6F741E
:101B40002070726573656E74005344206361726423
:101B500020697320656D7074790043616E6E6F74D7
:101B6000206F70656E207468652066696C6500532F
:101B700044206361726420726561647320617265E0
:101B80002020206E6F7420676F696E672077656C08
:101B90006C2E2020547279612064696666657265D6
:101BA0006E7420636172640049276D20616C7265F8
:101BB000616479206275696C64696E6700436F6C5B
:101BC0006420506175736500556E706175736500B2
:101BD000506175736520200043616E63656C206CF5
:101BE0006F61642F756E6C6F61643F0043616E635B
:101BF000656C2074686973207072696E743F00733D
:101C0000657474696E67733F00526573746F7265B3
:101C100020666163746F727900506C6174666F72D4
:101C20006D2020202020202020202020004C6566D0
:101C300074204578747275646572202020202020FD
:101C40000052696768742045787472756465722003
:101C50002020202000457874727564657220202051
:101C60002020202020202020005072657373206CDB
:101C700065667420746F2063616E63656C004578DF
:101C80007472756465723A2020202D2D2D2F2D2D14
:101C90002D4300506C6174666F726D3A2020202DC8
:101CA0002D2D2F2D2D2D43004C20457874727564F9
:101CB00065723A202D2D2D2F2D2D2D4300522045BC
:101CC000787472756465723A202D2D2D2F2D2D2D6F
:101CD0004300202D2D250048656174696E673A2008
:101CE0002020202020202020202020004865617412
:101CF000696E673A00203C2D592020284D656E758D
:101D000029202020202020202000203C2D58202089
:101D1000284D656E752920205A2D3E202020002058
:101D200020202020202020582D202020202020206E
:101D300020202000202020202020284D656E75299D
:101D40002020592D3E20202000202020202020204F
:101D500020582B2020202020202020202000202060
:101D60002020204A6F67206D6F646520202020208E
:101D7000202000556E6C6F6164206C6566740055A0
:101D80006E6C6F616420726967687400556E6C6F69
:101D90006164004C6F6164004C6F6164004C6F6162
:101DA000642072696768740035206D696E757465AA
:101DB0002074696D656F757420686173656C6170FE
:101DC0007365642E202050726573732074686520DB
:101DD00063656E74657220627574746F6E20746FC3
:101DE0002020202066696E6973682E00426567694D
:101DF0006E206C6F6164696E67206F7220202020F6
:101E0000756E6C6F6164696E672E205072657373B6
:101E10002074686563656E74657220627574746F92
:101E20006E207768656E202066696E6973686564E8
:101E30002E00457874727564657273206172652036
:101E40006E6F7420202068656174696E672E202093
:101E5000436865636B2074686520776972696E6793
:101E60002E00592041786973204C696E6500582016
:101E700041786973204C696E6500594553004E4F97
:101E80002000446F6E650053656C65637420626565
:101E90007374206C696E65733A004578747275646A
:101EA000657200506C6174666F726D005475726E6D
:101EB0002048656174657273204F46460053746113
:101EC00072742050726568656174696E670046724D
:101ED0006565205352414D20004F4646004F4E202D
:101EE0000000FC24CE2837301E31D137563AE13D70
:101EF000803FE8522A654C681973D473E374FB760B
:101F0000A6772D8AE88A42914991E29184926A9457
:101F10007995B599FD99849C57A05EA0CDC818CC41
:101F20004FCD37CFACCFF9D006D1E8E6FBE185EC59
:101F300091E201C08193EF3FF907E0F3D9F3112457
:101F40001FBECFEFD1E2DEBFCDBF00E00CBF16E079
:101F5000A0E0B2E0E4EBF0EB01E00BBF02C00790C1
:101F60000D92AA31B107D9F72BE1AAE1B6E001C081
:101F70001D92A836B207E1F71FE0C5E9DFE000E0F7
:101F800006C021970109802FFE010E94D8D5C137D4
:101F9000D10780E00807A9F70E9494300C9458D824
:101FA0000C9400006BBFFA01DC0102C007900D9297
:101FB00021503040D8F708958091A40881110AC0BB
:101FC0008091A3088F5F8093A308853018F081E08B
:101FD0008093A408089581E00E94EB3580E00C9482
:101FE000CD35F894E9E9F6E0228133818081918151
:101FF000821B930B78940895EF92FF920F931F9397
:10200000CF937C018B01C42F83E499E00E940DBF24
:10201000B70183E499E00E94E6BEB80183E499E049
:102020000E94E6BEE091D509EE0FFF0BE953F64F93
:10203000808191818354994039F063E479E08BEB9E
:1020400099E00E94519A04C083E499E00E944CBF39
:10205000C093A209CF911F910F91FF90EF90089527
:102060001092A209E091D509EE0FFF0BE953F64F4C
:10207000808191818354994021F48BEB99E00E94F7
:102080000D9BE091D509EE0FFF0BE953F64F8081D0
:102090009181DC01ED91FC910480F581E02D199492
:1020A000809101020895109251060895882311F03D
:1020B00080E401C080E880939706609394061092B4
:1020C000A508089581E0809393060895809197066E
:1020D000181634F480919406811104C081E00895AB
:1020E00080E0089582E0089580919706089581E048
:1020F00090919706923008F480E00895CF93DF9393
:10210000CDB7DEB764970FB6F894DEBF0FBECDBF74
:1021100060937B0670937C0680937D0690937E0689
:10212000CE0101960E94F26962E070E0CE01019654
:102130000E94A63AFC0140815181628173818091A5
:102140007B0690917C06A0917D06B0917E06481793
:1021500059076A077B071CF010927A0603C081E0DA
:1021600080937A0664960FB6F894DEBF0FBECDBF9B
:10217000DF91CF91089560917B0670917C068091EC
:102180007D0690917E06089520919B0630919C06D5
:1021900081E0232B09F080E00895CF9360E070E0A8
:1021A000CB010E947E1010927A0610924006109287
:1021B0004106109242061092430610924406C1E076
:1021C000C09300021092A6081092970610929606ED
:1021D000109295061092940610926A0610926B0661
:1021E00010926C0610926D0610926E0610926F0699
:1021F000109270061092710610925A0610925B06A9
:1022000010925C0610925D0610925E0610925F06B8
:1022100010926006109261061092520610925306B8
:102220001092540610925506109272061092730680
:102230001092740610927506109276061092770628
:102240001092780610927906109262061092630638
:102250001092640610926506109266061092670648
:102260001092680610926906109256061092570650
:10227000109258061092590661E082E490E00E94A4
:102280001E93823039F460E08FEF9FE00E941E932E
:10229000811134C01092350610923B0610923C0614
:1022A00010923D0610923E0610923A0610923606A3
:1022B0001092370610923806109239061092A5082F
:1022C0001092A3081092A4081092500610924F0684
:1022D00010924C0610924B0610924E0610924D062C
:1022E00010924A0610924906109246061092450630
:1022F0001092480610924706CF910895C093350674
:10230000CBCF0E94CD1085E680930102E9E9F6E08B
:10231000138212821582148210861186109234065E
:10232000089581E090913406963009F080E0089598
:102330008F929F92AF92BF92CF92DF92EF92FF92D5
:102340000F931F93CF93DF93CDB7DEB7AA970FB646
:10235000F894DEBF0FBECDBF882321F091E09093AB
:10236000510605C090915106992309F4EAC0F82E50
:10237000CE0145960E94F26981E089A78AA76E0185
:1023800089E2C80ED11C03E010E08CE39AE0FC0166
:10239000E759FF4F2081FC01222319F026A137A124
:1023A00004C0EC5AFF4F20813181232B91F14896D4
:1023B0000E949697882369F1F60180818F1124C0CD
:1023C000812C912C54018394402F60E070E080E0D8
:1023D00090E40E94F867A50194010E9453D54B0137
:1023E0005C01B801CE0145960E94AD3AFC014081E6
:1023F000518162817381840E951EA61EB71E808254
:102400009182A282B38205C088248A94982C5401B8
:10241000DBCF0430110541F0EFEFCE1ADE0A8BEB73
:102420009AE004E010E0B3CF60ED77E08CEE91E04D
:102430000E942E93BC0180E090E00E9491D32091F5
:1024400032153091331540913415509135150E9455
:1024500099D49B01AC0160E074E284E799E40E94A6
:10246000ADD20E945BD34B015C018091350688237D
:1024700029F18091980681110AC064E070E0CE01D4
:1024800045960E94AD3A8C0163E070E009C063E0BC
:1024900070E0CE0145960E94AD3A8C0164E070E098
:1024A000CE0145960E94AD3AFC0180819181A281C6
:1024B000B381F80180839183A283B383E12C00E090
:1024C00010E09801B501A401CE0145960E94196B58
:1024D000F11037C0CE0101960E94F26963E070E00E
:1024E000CE0101960E94AD3A8C0163E070E08FE767
:1024F00096E00E94AD3AFC0180819181A281B38176
:10250000F80180839183A283B38364E070E0CE01FD
:1025100001960E94AD3A8C0164E070E08FE796E08E
:102520000E94AD3AFC0180819181A281B381F801C2
:1025300080839183A283B38360E0CE0101960E94E1
:102540006969AA960FB6F894DEBF0FBECDBFDF91C2
:10255000CF911F910F91FF90EF90DF90CF90BF90A0
:10256000AF909F908F9008952F923F924F925F92DD
:102570006F927F928F929F92AF92BF92CF92DF9293
:10258000EF92FF920F931F93CF93DF93CDB7DEB7F8
:10259000C856D1090FB6F894DEBF0FBECDBF182FB5
:1025A000CE01CD960E94713ACE0189960E94713A71
:1025B000112309F4F6C080E090E0FC01E755FB4EE2
:1025C0002385222309F474C22285222309F470C2D0
:1025D0008D968738910589F784E1EFE7F6E0DE0113
:1025E000559601900D928A95E1F7CE0101960E94D1
:1025F000F26960E070E0CE0145960E94AD3A8C0130
:102600004091B9145091BA146091BB147091BC14EC
:102610008EE090E00E9444936B017C0180E00E9478
:10262000D36720E030E040EA50E40E9499D40E9451
:102630005BD3C61AD70AE80AF90AF801C082D18228
:10264000E282F38261E070E0CE0145960E94AD3AED
:102650008C014091E6145091E7146091E814709158
:10266000E91482E190E00E9444936B017C0181E0D7
:102670000E94D36720E030E040EA50E40E9499D401
:102680000E945BD3C61AD70AE80AF90AF801C08289
:10269000D182E282F38262E070E0CE0145960E9430
:1026A000AD3A409113155091141560911515709124
:1026B0001615FC01408351836283738362E070E0EE
:1026C000CE0101960E94AD3AFC01C080D180E2802B
:1026D000F38062E070E0CE0145960E94AD3AFC01C5
:1026E00080819181A281B3818C159D05AE05BF05C6
:1026F000BCF462E070E0CE0145960E94AD3A8C01D8
:1027000062E070E0CE0101960E94AD3AFC0180814A
:102710009181A281B381F80180839183A283B383E5
:1027200063E070E0CE0145960E94AD3A8C0163E013
:1027300070E0CE0101960E94AD3AFC01808191814A
:10274000A281B381F80180839183A283B38364E083
:1027500070E0CE0145960E94AD3A8C0164E070E0D5
:10276000CE0101960E94AD3AFC0180819181A28147
:10277000B381F80180839183A283B383BE016B5E32
:102780007F4FCE018F5A9F4F0E942C6984E1FE013A
:10279000EF5AFF4FDE01999601900D928A95E1F76D
:1027A00057C084E1EFE7F6E0DE01999601900D92C3
:1027B0008A95E1F7CE0145960E94F26964E070E0E7
:1027C000CE0189960E94AD3AFC01108101813280D0
:1027D000238063E070E0CE0189960E94AD3AFC014F
:1027E00080809180A280B38062E070E0CE01459647
:1027F0000E94AD3AFC01C080D180E280F38061E0AC
:1028000070E0CE0145960E94AD3AFC0140805180B7
:102810006280738060E070E0CE0145960E94AD3A20
:10282000FC0140815181628173812F923F920F930D
:102830001F9393018201CE0101960E94723A60E0DB
:10284000CE0101960E9469690F900F900F900F9032
:102850006091091570910A1580910B1590910C15D6
:102860000E9493D320E030E040E857E30E9499D4DF
:1028700020910515309106154091071550910815C6
:102880000E9499D40E945BD3A9966CAF7DAF8EAFA6
:102890009FAFA997CE018F5A9F4F0E94F26984E1A2
:1028A000FE01EF5AFF4FDE01DD9601900D928A95F1
:1028B000E1F760E070E0CE01CD960E94AD3AFC01F8
:1028C000C080D180E280F38060E070E0CE01899624
:1028D0000E94AD3AFC0180819181A281B381A70160
:1028E0009601281B390B4A0B5B0BCA01B9010E94E8
:1028F00093D32091AB143091AC144091AD1450910E
:10290000AE140E94ADD22B013C0161E070E0CE011B
:10291000CD960E94AD3AFC01C080D180E280F38068
:1029200061E070E0CE0189960E94AD3AFC018081A1
:102930009181A281B381A7019601281B390B4A0B13
:102940005B0BCA01B9010E9493D32091D814309136
:10295000D9144091DA145091DB140E94ADD24B018E
:102960005C0162E070E0CE01CD960E94AD3AFC01C0
:10297000C080D180E280F38062E070E0CE01899671
:102980000E94AD3AFC0180819181A281B381A701AF
:102990009601281B390B4A0B5B0BCA01B9010E9437
:1029A00093D320910515309106154091071550914C
:1029B00008150E94ADD26B017C01A3019201C301F5
:1029C000B2010E9499D42B013C01A5019401C501DB
:1029D000B4010E9499D49B01AC01C301B2010E94D1
:1029E00025D24B015C01A7019601C701B6010E94E7
:1029F00099D49B01AC01C501B4010E9425D20E946B
:102A00000CD52B013C0180913506882329F180915A
:102A1000980681110AC064E070E0CE0189960E9498
:102A2000AD3A8C0163E070E009C063E070E0CE0174
:102A300089960E94AD3A8C0164E070E0CE018996DF
:102A40000E94AD3AFC0180819181A281B381F8019D
:102A500080839183A283B383B090D5151092D5154E
:102A60006091091570910A1580910B1590910C15C4
:102A70000E9493D320E030E040E857E30E9499D4CD
:102A800020E030E040E852E40E9499D40E945BD3F9
:102A90006B018301720120E0A9964CAD5DAD6EAD76
:102AA0007FADA997CE0189960E94666CB092D5152C
:102AB000C859DF4F0FB6F894DEBF0FBECDBFDF9110
:102AC000CF911F910F91FF90EF90DF90CF90BF902B
:102AD000AF909F908F907F906F905F904F903F90BE
:102AE0002F900895EF92FF920F931F93CF93DF9350
:102AF00028E0829FC0011124FC01E659F94FF080C3
:102B000001811281D381C481B581E680E7812F2DB7
:102B1000302F412F5D2F6C2F7B2F8E2D9E2FA0E00D
:102B20000E949AD754F40E940ED7F22E032F142F2E
:102B3000D52FC62FB72FE82EE92F2F2D302F412F5D
:102B40005D2F6C2F7B2F8E2D9E2FDF91CF911F91AC
:102B50000F91FF90EF9008956F927F928F929F92C6
:102B6000AF92BF92CF92DF92EF92FF920F931F939B
:102B7000CF93DF93C82F0E94721559016A017B0120
:102B80003C01A0E00E949AD709F00CF449C088E00B
:102B9000C89FE00111244E0188E4881A8EEF980A3C
:102BA00000E010E020E030E040E050E060E070E065
:102BB000C4010E94F29383010E9473D789019A0194
:102BC000AB01BC01C4010E944494DE01A65AB94F76
:102BD000FE01E659F94F80818C93818111968C9387
:102BE0001197828112968C931297838113968C93FE
:102BF0001397848114968C931497858115968C93E2
:102C00001597868116968C931697878117968C93C5
:102C10001082118212821382148215821682178208
:102C2000DF91CF911F910F91FF90EF90DF90CF90A8
:102C3000BF90AF909F908F907F906F90089580E0AD
:102C40000E94AC1581E00C94AC15EF92FF920F93AB
:102C50001F93CF93DF9328E0829FC0011124FC01D2
:102C6000E65AF94FF08001811281D381C481B58188
:102C7000E680E7812F2D302F412F5D2F6C2F7B2F8A
:102C80008E2D9E2FA0E00E949AD754F40E940ED75A
:102C9000F22E032F142FD52FC62FB72FE82EE92F92
:102CA0002F2D302F412F5D2F6C2F7B2F8E2D9E2FA0
:102CB000DF91CF911F910F91FF90EF900895CF92E8
:102CC000DF92EF92FF9280E00E942516E42F43E00E
:102CD000B9018E2F952F0E94DF676B017C0181E087
:102CE0000E942516642F44E0732F862F952F622FA4
:102CF0000E94DF679B01AC01C701B6010E9425D28B
:102D00006B017C0180E00E947215642F43E0732FF9
:102D1000862F952F622F0E94DF679B01AC01C701B0
:102D2000B6010E9425D26B017C0181E00E947215E0
:102D3000642F44E0732F862F952F622F0E94DF6748
:102D40009B01AC01C701B6010E9425D2FF90EF9014
:102D5000DF90CF9008950F931F93CF93DF93D82FD9
:102D600000E416E0C0E0F801808181110FC08C2FD3
:102D70000E94576FF8018083DD2321F08C2F0E9481
:102D80005D6F04C064E18C2F0E94526FCF5F0F5FB4
:102D90001F4FC53041F7DF91CF911F910F910895DB
:102DA0000F931F93CF9300E416E0C0E0F801608119
:102DB0008C2F0E94526FF80111928F01CF5FC530A6
:102DC000A9F7CF911F910F9108950F931F93CF9360
:102DD000DF93CDB7DEB769970FB6F894DEBF0FBEAD
:102DE000CDBF80919706853409F400C190F58134F8
:102DF00009F456C0B8F4803209F4C5C1803409F42E
:102E00003FC0823009F0F4C10E94301060919506F5
:102E10007091960621E040E087E199E00E949A34A3
:102E200081E051C0833409F445C008F04FC0CE01A1
:102E300006960E94F26984E1FE013696AFE7B6E09D
:102E400001900D928A95E1F781E00E94981183E448
:102E50003AC0843809F460C150F4813809F43EC1A5
:102E6000833809F44AC1803809F0C2C1EAC0863803
:102E700009F46BC108F45FC1873809F46BC1B8C1AC
:102E80000E94452B853029F00E94452B843009F0A3
:102E900091C181E48093970681E00E94AB16A8C19E
:102EA0008091380C9091370C891B8F7009F0A0C16C
:102EB00082E409C08091380C9091370C891B8F7087
:102EC00009F096C184E48093970692C181E00E9444
:102ED000B41285E4809397060E94452B853039F023
:102EE0000E94452B11E0843019F010E001C011E080
:102EF00045E069E479E1CE0101960E94BDCBCE01A7
:102F000001960E940BCC80933F0680E00E94CD3555
:102F10008091A50A882329F08091620A9091630A22
:102F200004C08091900A9091910A909346068093F4
:102F300045068091240B882329F08091E10A909125
:102F4000E20A04C080910F0B9091100B90934806F9
:102F5000809347068091380A882329F08091F509EB
:102F60009091F60904C08091230A9091240A9093CD
:102F70004A068093490680919406811123C160E03E
:102F80008EEF9FE00E941E93882309F41BC180915D
:102F90009406882351F021E040E060E080E00E9448
:102FA0009D7560E088EF0E94226F60919506709198
:102FB00096066115710569F08091A608811105C01A
:102FC000111103C086EA93E102C081E993E141E077
:102FD0000AC0111103C086EA93E102C081E993E1BE
:102FE00041E062E573E10E94FC0F02C18091380C60
:102FF0009091370C891B8F7009F0FAC00E94D0168F
:103000008091A608882311F080E209C0809195067E
:1030100090919606892B11F481E001C082E08093A3
:1030200097060E9430100E94452B853009F4E0C0BD
:103030000E94452B843009F4DBC087E00E94FC39F4
:10304000D7C080E00E94AB1600914F061091500649
:103050000115110521F40091490610914A06101638
:10306000110654F460E087EE99E00E94F997B801E8
:1030700087EE99E00E94C69600914B0610914C068F
:103080000115110521F40091450610914606101610
:10309000110654F460E084E59AE00E94F997B801C3
:1030A00084E59AE00E94C69600914D0610914E0666
:1030B0000115110521F400914706109148061016DC
:1030C000110654F460E083ED9AE00E94F997B8018C
:1030D00083ED9AE00E94C69681E8F5CE809149067C
:1030E00090914A06181619060CF06FC087EE99E009
:1030F0000E949697811169C07BC08091450690918E
:103100004606181619060CF062C084E59AE00E9483
:10311000969781115CC06CC081E00E94AB1680E084
:103120000E94B41285E88093970641E06DE373E155
:103130008CE793E158CF8091380C9091370C891B24
:103140008F7009F055C086E8BECE80E00E949811CD
:1031500087E8B9CE8091380C9091370C891B8F701D
:1031600009F046C080913F060E94CD350E94D016DE
:103170000E943010109297061092960610929506B3
:103180001092A50835C00E9430106091950670918C
:10319000960621E040E087E199E00E949A340E947F
:1031A000FB3B10929606109295061092A60810927C
:1031B00097061EC041E067E673E186EA93E10E944C
:1031C000FC0F67CE0E94EB0FE2CE83E87CCE8091AD
:1031D0004706909148061816190634F483ED9AE0D4
:1031E0000E949697882321F00E94D01684E86BCE27
:1031F00069960FB6F894DEBF0FBECDBFDF91CF91B9
:103200001F910F9108958F929F92AF92BF92CF928C
:10321000DF92EF92FF92CF93C0910102C53609F47D
:1032200053C0CC2309F450C0F0903A06CF1509F4EE
:103230004BC0FF2009F448C06091360670913706F4
:1032400080913806909139066115710581059105C7
:10325000D9F10E9491D34B015C018C2F90E08F1922
:103260009109BC01990F880B990B0E9493D39B0184
:10327000AC01C501B4010E94ADD26B017C016C2F81
:1032800070E080E090E00E9491D39B01AC0160E08F
:1032900070E088EC92E40E9424D29B01AC01C7014B
:1032A000B6010E9499D46B017C0120E030E0A901B5
:1032B0000E94A8D287FF03C0C12CD12C7601C70180
:1032C000B6010E945BD303C060E070E0CB01CF91F8
:1032D000FF90EF90DF90CF90BF90AF909F908F9036
:1032E0000895FC0184819581860F971F608171810B
:1032F0000E946FD526813781820F931F08951F93F7
:10330000CF93DF93EC012A813B8188819981281733
:10331000390770F4162F6A817B81CE010E947119E2
:10332000FC0110838A819B8101969B838A8302C062
:1033300081E08887DF91CF911F910895682F89E9F7
:1033400096E00C947F19CF93DF93EC018A819B81E7
:10335000892B21F481E0898780E017C060E070E06C
:10336000CE010E947119FC012C813D81C901019699
:10337000688179810E946FD59D838C832A813B81EE
:10338000215031093B832A838081DF91CF910895B9
:1033900089E996E00C94A319CF9389E996E00E94FD
:1033A000A319C82F89E996E00E94A319982F8C2FA2
:1033B000CF9108951F93CF93DF931F921F92CDB7A4
:1033C000DEB789E996E00E94A319682F89E996E0A3
:1033D0006A830E94A319782F89E996E079830E9475
:1033E000A319182F89E996E00E94A319982F6A81E2
:1033F0007981812F0F900F90DF91CF911F910895C8
:10340000CF92DF92EF92FF921F93CF93DF93C82F5B
:1034100061E070E089E996E00E947119FC01108179
:10342000CF3F09F01C2F62E070E089E996E00E942E
:103430007119FC0180818D3009F476C048F48C301C
:1034400008F05FC0843008F0C5C0833071F00BC055
:10345000873109F44CC020F4803108F4BBC003C0AC
:103460008F3109F46DC010E0C9C064E070E089E9F3
:1034700096E00E947119FC01C081EC2EF12C65E0F0
:1034800070E089E996E00E947119FC019081C92FD2
:10349000D0E0DC2FCC27CE0DDF1D209719F40E9441
:1034A0001F1614C0E12EF12C6701CC0CDD1CF601B7
:1034B000E55BF94F80819181892B09F08DC060E037
:1034C0008DEF9FE00E941E93811186C0113019F08C
:1034D0008CE39AE002C08BEB9AE0BE0148960E9412
:1034E000C69680914B0B8E7F80934B0B73C00E94CE
:1034F000661091E0811190E060E0892F0E94A42C79
:1035000069C064E070E089E996E00E947119FC01ED
:1035100060816170113019F08CE39AE002C08BEB8E
:103520009AE00E94099556C064E070E089E996E04F
:103530000E947119FC01808181700E94CD354AC0C2
:103540000E94FD27182F882309F444C064E070E02E
:1035500089E996E00E947119FC01C081EC2EF12CE2
:1035600065E070E089E996E00E947119FC019081A4
:10357000C92FD0E0DC2FCC27CE0DDF1D2097D1F056
:1035800080914F0690915006892B39F460E08DEFC1
:103590009FE00E941E93882369F080914F069091CE
:1035A0005006009731F464E670E08CE591E00E94EB
:1035B0002E93EC01BE0187EE99E00E94C69661E071
:1035C00087E199E00E94C83580914B0B8E7F8093F4
:1035D0004B0B14C011E012C0F601E55BF94F80817E
:1035E0009181009749F4C701880F991F66EE70E03A
:1035F000885A9E4F0E942E93EC0168CF812FDF9155
:10360000CF911F91FF90EF90DF90CF9008952F9270
:103610003F924F925F926F927F928F929F92AF9262
:10362000BF92CF92DF92EF92FF920F931F93CF93AF
:10363000DF93CDB7DEB7C755D1090FB6F894DEBF1B
:103640000FBECDBF0E949A3B8823B9F080919B06A4
:1036500090919C062091990630919A062817390777
:1036600051F10E94E93B882331F10E94EC3B682F25
:1036700089E996E00E947F19E9CF0E947A73882336
:1036800009F446C080919B0690919C062091990672
:1036900030919A062817390709F460C50E9488738B
:1036A000882309F45BC50E949673682F89E996E028
:1036B0000E947F19E7CF0E94E93B811129C08091C8
:1036C0000202882309F440C59091970691113CC5E8
:1036D00091E09093A608813009F02EC585E39BE127
:1036E00090939606809395060E94EB0F60E08FEF13
:1036F0000E94226F10929C0610929B0610929E06CA
:1037000010929D061092A1061092A2060E94882C8B
:1037100080917B0690917C06A0917D06B0917E06FB
:10372000892B8A2B8B2B19F180917A0681111FC06E
:10373000CE0101960E94F26962E070E0CE0101962E
:103740000E94A63ADC014D915D916D917C91809132
:103750007B0690917C06A0917D06B0917E0648176D
:1037600059076A077B071CF481E080937A068091F1
:103770007B0690917C06A0917D06B0917E06892BF8
:103780008A2B8B2B79F180917A06882359F10E943C
:103790006610811127C0CE0101960E94F26962E095
:1037A00070E0CE0101960E94A63AFC014081518151
:1037B0006281738180917B0690917C06A0917D0649
:1037C000B0917E06481759076A077B075CF060E0F6
:1037D00070E0CB010E947E1060E081E00E94A42C8A
:1037E0000C94E22410919706123020F00E94E51606
:1037F0000C94E2241130F9F48091940681110C9418
:10380000E2248091930681110C94E22483EA99E0EA
:103810000E9475CF882311F40C94E224109394062F
:103820000E94EB0F21E040E060E080E00E949D7587
:1038300060E088EFB4C480913406833071F40E9454
:103840005F68882341F088E296E00E9475CF882364
:1038500021F00E94E172109234068091A50888231D
:10386000E1F08091A4088823C1F080913406833070
:10387000A1F080919706811110C00E9466108111FD
:103880000AC087E598E1909396068093950661E0DB
:1038900081E00E94A42C1092A5088091340681300A
:1038A00031F40E945F68811102C010923406809149
:1038B0003406823039F48EE296E00E9475CF811191
:1038C0001092340680913406843009F052C082E2AE
:1038D00096E00E9475CF882349F020E040E06DE03B
:1038E0007AE187E199E00E949A3420C0809198069D
:1038F000813019F08CE39AE002C08BEB9AE0489695
:103900000E94C297811115C080913506882371F0FD
:1039100080919806882319F08CE39AE002C08BEB23
:103920009AE048960E94C297811123C010923406F3
:1039300020C080919806813019F08CE39AE002C093
:103940008BEB9AE048960E949697882391F080919D
:103950003506882359F380919806882319F08CE363
:103960009AE002C08BEB9AE048960E9496978111EC
:10397000DDCF809134068530E1F482E296E00E944A
:1039800075CF882349F020E040E068ED79E187E1D8
:1039900099E00E949A3406C487EE99E00E94C2978B
:1039A000882309F4FFC387EE99E00E94969781115E
:1039B000F9C380913406863091F58CE196E00E943F
:1039C00075CF882391F080911A0681FF06C060E0D0
:1039D00087E199E00E94DC3722C010923406809182
:1039E0004B0B8F7E80934B0B1AC08BEB99E00E94A0
:1039F000799C8823A1F080911A0682FF04C08BEB8A
:103A000099E00E940D9B0E94BD3780914B0B8F7EE9
:103A100080934B0B8FEF0E94757610923406809145
:103A200034068111CFC780919B0690919C06892B0B
:103A300009F4C8C787E199E00E94A33460E070E010
:103A400089E996E00E947119DC011C911B3809F488
:103A5000ACC31E3809F43FC61B3909F4CDC419386C
:103A600009F48AC3163809F49FC71C3809F44EC7F5
:103A70000DE7010F1C3909F4B6C0103909F4B3C0C1
:103A8000023008F4B0C0183809F4ADC0143941F45C
:103A900080919B0690919C06059708F493C708C0F7
:103AA000163909F4A0C00E94D95181112DC08AC7CE
:103AB0000E94C8190E94C81980931B060E94CC1945
:103AC0008C010E94C81980931A060115110571F026
:103AD000D80120E432E44FE050E00E94EFD5AB0182
:103AE000BC018CE196E00E9441CF6CC0CE010196F2
:103AF0000E943ECF86E0FE013196ACE1B6E0019037
:103B00000D928A95E1F75EC0153809F42DC4153978
:103B100009F069C080919B0690919C06069708F475
:103B200051C70E94C8190E94C819182F0E94C819AD
:103B3000E82E0E94C819082F0E94C819F82E10FDFF
:103B400004C083E499E00E940DBFE092460900930F
:103B5000470969E976E083E499E00E9496C811FF7D
:103B600031C7E091D509EE0FFF0BE953F64F808185
:103B700091818354994009F410C463E479E08BEB9C
:103B800099E00E94519A1470F1100CC4112309F4A9
:103B900019C7FF2009F40EC4AF2DB0E020E432E4D1
:103BA0004FE050E00E94EFD5AB01BC018CE196E004
:103BB0000E9441CF81E080931B0680911A06847099
:103BC00080931A060E94B33760911B068BEB99E035
:103BD0000E94769C80914B0B806180934B0B86E01A
:103BE00080933406EFC6023060F580919B06909179
:103BF0009C06089708F4E6C60E94C8190E94C819D6
:103C0000082F0E94DA196B017C010E94CC1923E075
:103C100020933406DC0120E432E44FE050E00E94BF
:103C2000EFD5AB01BC0188E296E00E9441CF81E074
:103C3000143809F080E0A7019601602F0E946B6E96
:103C4000C1C6173829F580919B0690919C0606976E
:103C500008F4B8C684E08093340681E08093A40819
:103C60000E94C8190E94C819809398060E94CC1916
:103C70000E94CC19DC0120E432E44FE050E00E94C5
:103C8000EFD5AB01BC0182E296E00E9441CF9AC61B
:103C90001D3891F480919B0690919C06069708F43C
:103CA00091C685E08093340681E08093A4080E9449
:103CB000C8190E94C819DACF1F3809F03FC0809197
:103CC0009B0690919C06029708F47CC60E94C81936
:103CD0000E94C819C82ECE0101960E94F2690EE01A
:103CE00010E0E12CF12CD12CC6010E2C02C09595D0
:103CF00087950A94E2F780FF17C0B701CE010196BD
:103D00000E94AD3AFC0180819181A281B3818D8BAB
:103D10009E8BAF8BB88FF89444E050E0B801CE0191
:103D200045960E9433D87894FFEFEF1AFF0A0C5F94
:103D30001F4F25E0E216F104B9F644C6103909F028
:103D40005FC080919B0690919C06029708F43AC64A
:103D50000E94C8190E94C819C82ECE0101960E945F
:103D6000F2690EE010E0E12CF12CD12CC6010E2CF2
:103D700002C0959587950A94E2F780FF0CC0F894ED
:103D8000B701CE0101960E94AD3A44E050E0B8017F
:103D90000E940FD878943FEFE31AF30A0C5F1F4F8D
:103DA00043E0E416F10411F763E070E0CE01019600
:103DB0000E94AD3AFC0180819181A281B381809300
:103DC000520690935306A0935406B093550664E0B0
:103DD00070E0CE0101960E94AD3AFC018081918194
:103DE000A281B3818093560690935706A0935806FC
:103DF000B093590661E0CE0101960E946969E2C55F
:103E0000113999F480919B0690919C06039708F4D0
:103E1000D9C50E94C8190E94C819182F0E94C81934
:103E2000682F812F0E94526FCDC5123921F58091E4
:103E30009B0690919C06069708F4C4C50E94C81979
:103E40000E94C819182F0E94C81966968FAF6697EE
:103E50000E94C81965968FAF65970E94C8190E9485
:103E6000C81965964FAD659766966FAD6697812FB9
:103E70000E94E776A7C51339B1F480919B06909113
:103E80009C06069708F49EC50E94C8190E94CC198A
:103E90008C010E94CC197C010E94C819B701C8018D
:103EA0000E949B398FC5183809F062C080919B062B
:103EB00090919C06049708F485C563E070E089E959
:103EC00096E00E94711920919B0630919C06DC01BE
:103ED000EC90F12CB4E0EB0EF11C2E153F0508F42C
:103EE00071C580913506882339F0809100028823BE
:103EF00019F01092000203C081E08093000262E09A
:103F000070E089E996E00E947119FC01808183309C
:103F100059F062E070E089E996E00E947119DC01D5
:103F20008C918C3009F01CC28091000281110DC06F
:103F300061E070E089E996E00E947119FC0181E07E
:103F40009081992319F080E001C08FEF0E94001A40
:103F500080910002882309F435C510E0812F90E09C
:103F60008E159F0508F02EC50E94C8191F5FF6CF59
:103F7000163909F041C080919B0690919C060397E9
:103F800008F420C50E94C8190E94C8198093010234
:103F90000E94C819809101028823F1F080913B06AC
:103FA00090913C06A0913D06B0913E06892B8A2B4C
:103FB0008B2B91F480913A0681110EC00E949F2BA9
:103FC00060933B0670933C0680933D0690933E06BB
:103FD0008091010280933A0680910102882309F4BE
:103FE000F1C40E949F2B609336067093370680932E
:103FF000380690933906E6C41739B9F480919B06C8
:1040000090919C060297B8F10E94C8190E94C819A5
:10401000811102C084E006C0813019F40E94FC398D
:104020002AC082E00E94373A26C0183999F480915C
:104030009B0690919C06029708F4C4C40E94C8197C
:104040000E94C8190E94FB2660E087E199E00E9467
:10405000DC37B8C4193991F480919B0690919C0685
:10406000059708F4AFC40E94C8190E94DA1989E9BB
:1040700096E00E94F92F1092A408A4C41A3971F492
:1040800080919B0690919C06029708F49BC40E9425
:10409000C8190E94C8190E94022CEDCF1C3999F44E
:1040A00080919B0690919C06029708F48BC40E9415
:1040B000C8190E94C81991E0813009F090E0892F59
:1040C0000E94626F7FC41D39A1F480919B0690917C
:1040D0009C06459708F476C40E94DA190E94DA1902
:1040E0000E94DA190E94DA190E94DA190E94C8198E
:1040F00069C41E3909F066C480919B0690919C06A4
:10410000059708F45FC40E94C8190E94DA196B0170
:104110007C012FE632E143E85AE30E94A8D287FFF0
:1041200003C0C12CD12C760142E0C701B6010E9428
:10413000F8670E947E1046C48B3019F484ED9AE132
:10414000CFCA82E29BE1CCCA8091950690919606F7
:10415000892B09F0DDCA0E94FB3BDACA0E948873F2
:104160008111D6CA80919B0690919C06892B09F0FB
:10417000CFCA0E94D173CCCA80919B0690919C06B5
:10418000029708F41FC40E94C8190E94C819909190
:10419000350691111DC1682F661F6627661F0E9494
:1041A000226F10C41092340604CC80919B0690912B
:1041B0009C06499708F406C40E94C81981E08093C0
:1041C00034060E94DA196D8F7E8F8F8F98A30E941C
:1041D000DA1969A37AA38BA39CA30E94DA196DA3B1
:1041E0007EA38FA398A70E94DA194B01382E292E9F
:1041F0000E94DA192B013C010E94DA1969A77AA7FB
:104200008BA79CA780913506882359F0809198064A
:10421000882321F04201362C272C03C02401632C73
:10422000722C80925206909253063092540620923D
:1042300055068091560690915706A0915806B09168
:10424000590693018201081B190B2A0B3B0BD9015C
:10425000C80168017901FF0CCC08DC2C76019801BB
:10426000AD016C2D7C2D8C2D9C2DA0907206B090F4
:104270007306C0907406D0907506E0907606F090B4
:10428000770600917806109179060E9473D72093E3
:1042900072063093730640937406509375066093CC
:1042A000760670937706809378069093790640920D
:1042B00056065092570660925806709259060E9410
:1042C000DC0F7F926F925F924F92A32CB22CCDA005
:1042D000DEA0EFA0F8A409A11AA12BA13CA14D8D4D
:1042E0005E8D6F8D78A1CE0101960E94723AE12C0D
:1042F00000E010E0980149A55AA56BA57CA527C050
:104300000E94DC0FBDA5BF93E9A5EF936F92FDA1BD
:10431000FF93AD8CB9A02296CCACDDACEEACFFAC7B
:1043200022970AAD1BAD2CAD3DAD4EA95FA968AD7E
:1043300079ADCE0101960E94723AE72C26960CAD1B
:104340001DAD2EAD3FAD269740E050E0BA01CE0145
:1043500001960E94196B0F900F900F900F9032C32F
:1043600081E080930002E0CD80919B0690919C06B5
:10437000059708F427C382E0809334060E94C81989
:104380000E94DA199B01AC01A8EEB3E00E94EFD5C0
:10439000AB01BC018EE296E078CC83E499E00E9408
:1043A0004CBFF1CB1111F2CB6F2D83E499E00E9449
:1043B0003CBF08C3CE0101960E943ECF86E0FE01BD
:1043C0003196ACE1B6E001900D928A95E1F7F2CB1F
:1043D00090919806911107C0982F9F7E83FF0AC085
:1043E000892F8061D8CE982F977F84FF03C0892FB3
:1043F0008860D1CE892FCFCE80919B0690919C066C
:10440000809708F4DFC20E94C81981E080933406C7
:104410000E94DA1922966CAF7DAF8EAF9FAF2297C4
:104420000E94DA1926966CAF7DAF8EAF9FAF2697AC
:104430000E94DA192A966CAF7DAF8EAF9FAF2A9794
:104440000E94DA1969A37DA389A79DA70E94DA19A2
:104450006EA778AB8AAB9EAB0E94DA192E966CAF32
:104460007DAF8EAF9FAF2E970E94C819182F0E9464
:10447000DA1962966CAF7DAF8EAF9FAF62970E94E4
:10448000CC1964969FAF8EAF6497809135068111E9
:1044900003C01F771D8F35C080919806811110C011
:1044A000012F0F760D8F13FF1BC000610D8F19A117
:1044B0001EA72DA128AB39A53AAB4DA54EAB21C007
:1044C000512F57775D8F14FF14C058605D8F8EA5F4
:1044D00089A398A99DA3AAA9A9A7BEA9BDA711C0F0
:1044E000E9A1EEA7FDA1F8AB09A50AAB1DA51EAB7E
:1044F00008C02EA529A338A93DA34AA949A75EA9AA
:104500005DA789A18D8B9DA19E8BA9A5AF8BBDA514
:10451000B88FEEA5E98FF8A9FA8F0AA90B8F1EA90B
:104520001C8FEAE6F6E02E0125E1420E511CA2E5C1
:10453000B6E06896BFAFAEAF68971BAE1AAEBD8D42
:104540002B2E312C8AAD9BAD0396810102C01595AF
:1045500007958A95E2F7D2016D907D908D909C90A1
:1045600000FF31C074016301FF0CCC08DC2C760124
:104570009301A4016C2D7C2D8C2D9C2DA080B180ED
:10458000C280D380E480F580068117810E9473D7B2
:104590002083318342835383648375838683978327
:1045A0006896AEADBFAD68974D915D916D917C9170
:1045B0001397460D571D681D791D4D935D936D939F
:1045C0007C93139734C06896AEADBFAD68974D919C
:1045D0005D916D917C91139794018301041B150BE0
:1045E000260B370BC901B80168017901FF0CCC0813
:1045F000DC2C76019B01AC016C2D7C2D8C2D9C2D2F
:10460000A080B180C280D380E480F58006811781CC
:104610000E9473D7208331834283538364837583DD
:10462000868397836D927D928D929C921397389694
:10463000B4E04B0E511C6896AEADBFAD68971496B2
:104640006896BFAFAEAF6897AAADBBAD119729F022
:10465000A1E0B0E0BBAFAAAF75CF0E94DC0F7090B5
:10466000D515BD8D7B2AEEA9EF93FAA9FF9308A972
:104670000F931EA51F9389A09DA0A9A4BDA42A964F
:10468000CCACDDACEEACFFAC2A9726960CAD1DADE4
:104690002EAD3FAD269722964CAD5DAD6EAD7FAD94
:1046A0002297CE0101960E94723A6496CEACDFAC9E
:1046B00064976296ECACFDAC0EAD1FAD6297272DF2
:1046C0002E964CAD5DAD6EAD7FAD2E97CE010196B1
:1046D0000E94666C40CE80919B0690919C064A9702
:1046E00008F470C10E94C81981E0809334060E94CA
:1046F000DA196EAB7FAB88AF99AF0E94DA196AAF57
:104700007BAF8CAF9DAF0E94DA1922966CAF7DAF64
:104710008EAF9FAF22970E94DA194B018D8F99A31C
:104720000E94DA196DA3672E89A79DA70E94DA1946
:1047300026966CAF7DAF8EAF9FAF26970E94C819AB
:10474000782E80913506882369F180919806811131
:104750000DC0872D8F7E73FE16C08061782E8DA2CE
:10476000692C1D8D19A729A12DA71CC0872D877F16
:1047700074FE11C08860782E8DA0962C39A53D8FCF
:104780004DA549A30FC0782E8DA2692C5D8D59A728
:1047900089A18DA707C0782E8DA0962C99A59D8FF5
:1047A000ADA5A9A38D8A9E8ABD8DBF8BE9A1E88F97
:1047B000FDA1F98F6A8E09A50B8F1DA51C8FEAE656
:1047C000F6E0DE015596BFA7AEA7A2E5B6E02C96AF
:1047D000BFAFAEAF2C9719AA18AAA72DB0E02896A4
:1047E000BFAFAEAF289788A999A903962896AEAD1A
:1047F000BFAD289702C0B595A7958A95E2F7CD0180
:10480000AEA5BFA52D903D904D905C9080FF31C02E
:1048100072016101FF0CCC08DC2C76019101A20130
:104820006C2D7C2D8C2D9C2DA080B180C280D380DE
:10483000E480F580068117810E9473D7208331833D
:104840004283538364837583868397832C96AEADAE
:10485000BFAD2C974D915D916D917C911397420D59
:10486000531D641D751D4D935D936D937C9313973C
:1048700034C02C96AEADBFAD2C974D915D916D912E
:104880007C91139792018101041B150B260B370BAA
:10489000C901B80168017901FF0CCC08DC2C760154
:1048A0009801AC016C2D7C2D8C2D9C2DA080B180AD
:1048B000C280D380E480F580068117810E9473D77F
:1048C00020833183428353836483758386839783F4
:1048D0002D923D924D925C9213973896AEA5BFA54E
:1048E0001496BFA7AEA72C96AEADBFAD2C9714966D
:1048F0002C96BFAFAEAF2C97A8A9B9A9119709F410
:10490000FFCCA1E0B0E0B9ABA8AB6DCF80919B0626
:1049100090919C06459708F455C00E94C8190E94C2
:10492000DA192B013C010E94DA196D8F7E8F8F8F6F
:1049300098A30E94DA196B017C010E94DA194B01DD
:104940005C010E94DA1920913506222349F020915A
:104950009806222319F04B015C0102C0B401C50185
:104960008092520690925306A0925406B092550639
:104970006093560670935706809358069093590695
:104980009F938F937F936F930D8D1E8D2F8D38A1E5
:10499000B301A201CE0101960E94723A60E0CE01FD
:1049A00001960E946969D7CC80919B0690919C06E4
:1049B000029740F00E94C8190E94C8198093980677
:1049C0000E94656FC95ADF4F0FB6F894DEBF0FBE65
:1049D000CDBFDF91CF911F910F91FF90EF90DF90AE
:1049E000CF90BF90AF909F908F907F906F905F908F
:1049F0004F903F902F90089540E067E479E187EA77
:104A000098E00E94BDCBE9E9F6E080E092E0918376
:104A10008083138212821582148283EA96E0978340
:104A20008683108611868FE796E00E94713A8EE2A7
:104A300096E00E943ECF88E296E00E943ECF82E25E
:104A400096E00E943ECF8CE196E00C943ECFCF934F
:104A5000DF931F921F92CDB7DEB721E0298322E3B7
:104A60002A8342E050E0BC01CE0101960E9433D877
:104A70000F900F90DF91CF910895CF93DF93EC01CA
:104A800040E050E060EE70E40E94B89346E656E6DF
:104A900066EA7EE3CE0102960E94B89340E050E0C1
:104AA00060E172E4CE010496DF91CF910C94B8934B
:104AB000CF93DF93EC010A960E943D25CE014096EC
:104AC0000E943D25CE014A96DF91CF910C94272577
:104AD0000F931F93CF93DF9300D0CDB7DEB78C0138
:104AE00067E00E943DD861E0C80102960E943DD86F
:104AF0008FEF89838A838B83B8016C5F7F4F43E09C
:104B000050E0CE0101960E9433D80F900F900F9085
:104B1000DF91CF911F910F91089567E080E491E0BC
:104B20000C941E93682F80E491E00C943DD80F9371
:104B30001F93CF93DF9300D01F92CDB7DEB7082F1E
:104B4000162F68E080E491E04C830E943DD80983F1
:104B50001A834C814B8343E050E064E471E0CE0162
:104B600001960E9433D80F900F900F900F90DF9115
:104B7000CF911F910F910895CF92DF92EF92FF9204
:104B8000CF93DF936B017C01EA01CA010E9453D8E5
:104B9000B701CE010496DF91CF91FF90EF90DF90A7
:104BA000CF900C9453D8AC016BE770E084EF91E0A8
:104BB0000E94BC250895CF93DF93EC0166EE70E070
:104BC0000E9453D866EE70E0CE0102960E9453D840
:104BD00064E670E0CE0104960E9453D865E0CE01F1
:104BE0000696DF91CF910C943DD861E08EE691E07E
:104BF0000E943DD868EE73E082E791E00E9453D8AE
:104C000068EE73E084E791E00E9453D866E970E0B3
:104C100086E791E00E9453D860ED77E088E791E065
:104C20000E9453D860ED77E08AE791E00E9453D864
:104C30006FE070E08CE791E00E9453D86FE070E085
:104C40008EE791E00E9453D86AE070E080E891E03E
:104C50000E9453D864E170E082E891E00E9453D84A
:104C600064E170E084E891E00E9453D844EF51E0A1
:104C700060E070E088ED91E00E944BD84CE755E190
:104C800060E070E08CED91E00E944BD860E170E054
:104C900080EE91E00E9453D860E170E082EE91E0F6
:104CA0000E9453D860E08BE092E00E943DD861E022
:104CB00084EE91E00E943DD860E888E891E00C9491
:104CC0003DD8CF93DF93CDB7DEB764970FB6F89496
:104CD000DEBF0FBECDBF84E1EFEBF2E0DE01119647
:104CE00001900D928A95E1F744E150E06EE070E0AA
:104CF000CE0101960E9433D864960FB6F894DEBFB9
:104D00000FBECDBFDF91CF910895CF92DF92EF928A
:104D1000FF920F931F93CF93DF93CDB7DEB76497C6
:104D20000FB6F894DEBF0FBECDBF7C0128E0E3EDE7
:104D3000F2E0DE011D9601900D922A95E1F74CE01C
:104D400050E06EE070E0CE0101960E940FD86E0137
:104D50008DE0C80ED11C8701F12C48E050E0B8016D
:104D6000F601819191916F010E9433D84CE050E09F
:104D7000B801685F7F4FCE0101960E9433D866EE7E
:104D800070E0C80144960E9453D866EE70E0C801F6
:104D900046960E9453D8F1E0FF1619F064E670E0E1
:104DA00002C06DE270E0C80148960E9453D8F394A7
:104DB000065E1F4F84E0F812D0CF6CEA8CEF9FE0C4
:104DC0000E943DD864960FB6F894DEBF0FBECDBFEB
:104DD000DF91CF911F910F91FF90EF90DF90CF90D7
:104DE0000895813009F082E0682F82E490E00E940B
:104DF0003DD80C9461260F931F93CF93DF93CDB7CB
:104E0000DEB76D970FB6F894DEBF0FBECDBF85E05D
:104E1000EBEDF2E0DE01559601900D928A95E1F7F7
:104E20004BE050E062E270E08BE393E00E9433D805
:104E300045E050E066E070E0CE0145960E9433D830
:104E40006FE984E090E00E943DD86BE18CE090E057
:104E50000E943DD80E94612684E99FE00E94852639
:104E6000A89544E150E06CE871E086E493E00E948C
:104E700033D844E150E064EA71E08EE693E00E94AA
:104E800033D844E150E064EF71E08AE593E00E949A
:104E900033D80E94F52581EC93E29B8F8A8F84E1C1
:104EA00093ED9D8F8C8F44E050E064E470E0CE0180
:104EB0004A960E9433D880E091E00E9458258CE108
:104EC00091E00E94582500E010E020E030E040E052
:104ED00050E060E070E088EC91E00E94449420E0B3
:104EE00030E040E050E060E070E080ED91E00E9452
:104EF000449480E491E00E9468258AE491E00E9455
:104F0000D32588E591E00E94DB2561E080E691E011
:104F10000E943DD860E08DEF9FE00E943DD860E0A8
:104F20008EEF9FE00E943DD860E08FEF9FE00E94EF
:104F30003DD861E082E99FE00E943DD860E081E9D0
:104F40009FE00E943DD880E00E94F12661E08CE461
:104F500090E00E943DD860E08FE89FE00E943DD83D
:104F600060E08EE89FE00E943DD888EC90E0A0E0F1
:104F7000B0E089839A83AB83BC8344E050E066E66B
:104F80007FE08E010F5F1F4FC8010E9433D863E09E
:104F900084E69FE00E943DD864E683E69FE00E949D
:104FA0003DD884E1F80111928A95E9F744E150E097
:104FB00069E47FE0C8010E9433D860E080E99FE0A7
:104FC0000E943DD860E088E49FE00E943DD86D9645
:104FD0000FB6F894DEBF0FBECDBFDF91CF911F910A
:104FE0000F91089561E082E490E00E941E9391E0A9
:104FF000823009F490E0892F089561E08CE490E01C
:105000000E941E9391E0813009F090E0892F08956D
:10501000CF93DF93CDB7DEB72C970FB6F894DEBFF2
:105020000FBECDBF81E89CE0A0E0B0E089839A8309
:10503000AB83BC831D821E821F82188619861A8646
:105040001B861C864CE050E062E671E0CE010196C2
:105050000E9433D82C960FB6F894DEBF0FBECDBF9A
:10506000DF91CF9108950F931F93CF93DF938C011E
:10507000EB0160E070E080EA91E00E942E93F8017D
:105080009183808360E082EA91E00E941E9388838E
:10509000DF91CF911F910F910895CF93C62FBC013F
:1050A00080EA91E00E9453D86C2F82EA91E0CF9180
:1050B0000C943DD8FF920F931F93CF93DF9300D0B2
:1050C000CDB7DEB78C01F62EBE016D5F7F4FCE01EE
:1050D00001960E9433289B812F2D290F822F6CE38C
:1050E0000E9463D59B832D3330F029813A81280FAC
:1050F000311D3A83298329813A81692FC801820FA2
:10510000931F0E944D280F900F900F90DF91CF9129
:105110001F910F91FF9008950F931F9367E182E015
:1051200090E00E943DD880E00E94F1260E9408286D
:1051300060E080E090E00E944D2861E088E092E02D
:105140000E943DD800E010E020E030E040E050E078
:1051500060E070E088EB91E00E94449420E030E051
:1051600040E050E060E070E080EC91E00E94449408
:105170001F910F910C94FB2667E080E491E00E9460
:105180001E93873041F061E082E491E00E941E931B
:1051900091E0873009F490E0892F089540E067E4BA
:1051A00079E18CEA98E00C94BDCBCF92DF92EF923C
:1051B000FF920F931F93CF93DF93EC0188818111AE
:1051C00002C080E034C08B0160E0CE010E9429CB98
:1051D00087FFF7CF0E949A3B811104C00E947A7327
:1051E000882331F06AE8C8010E9473CB81E01FC0B8
:1051F000F894E8800E94F10FF12C8E159F0588F03D
:10520000C12CD12CCE14DF0454F46C2DCE010E949D
:1052100029CB0E949E198FEFC81AD80AF3CF61E8F4
:1052200001C062E8C8010E9473CB7894DFCFDF91A0
:10523000CF911F910F91FF90EF90DF90CF90089545
:1052400086E08093C10881E08093B10808950F93B0
:105250001F93CF93DF93CDB7DEB765970FB6F89462
:10526000DEBF0FBECDBF8C01F894BE016B5E7F4FD9
:10527000CE0101960E94866A61E8C8010E9473CB44
:1052800060E070E0CE0101960E94A63AFC014081E8
:10529000518162817381C8010E948ACB61E070E014
:1052A000CE0101960E94A63AFC01408151816281A3
:1052B0007381C8010E948ACB62E070E0CE01019642
:1052C0000E94A63AFC014081518162817381C8012C
:1052D0000E948ACB0E94746F682FC8010E9473CB12
:1052E000789465960FB6F894DEBF0FBECDBFDF9100
:1052F000CF911F910F9108950F931F93CF93DF9339
:10530000CDB7DEB765970FB6F894DEBF0FBECDBF41
:105310008C01F894BE016B5E7F4FCE0101960E9416
:10532000866A61E8C8010E9473CB60E070E0CE013C
:1053300001960E94A63AFC014081518162817381ED
:10534000C8010E948ACB61E070E0CE0101960E9404
:10535000A63AFC014081518162817381C8010E949B
:105360008ACB62E070E0CE0101960E94A63AFC0171
:105370004081518162817381C8010E948ACB63E0C0
:1053800070E0CE0101960E94A63AFC014081518155
:1053900062817381C8010E948ACB64E070E0CE0113
:1053A00001960E94A63AFC0140815181628173817D
:1053B000C8010E948ACB0E94746F682F70E0C801F8
:1053C0000E9475CB789465960FB6F894DEBF0FBE39
:1053D000CDBFDF91CF911F910F910895DF92EF9292
:1053E000FF920F931F93CF93DF93CDB7DEB7A097B4
:1053F0000FB6F894DEBF0FBECDBF8C017B0161E814
:10540000C7010E9473CB61E0C8010E9429CB8823A9
:1054100021F00E94B43C81112BC09E01205E3F4FC1
:1054200040E050E06FE1CE0101960E94C53C8981C9
:105430008E3249F488A1882381F38A818E3269F7FC
:105440008B818111EACF60E0C7010E9473CB8E018E
:105450000F5F1F4F8FE1D82ED00EF80161918F01A1
:10546000662351F0C7010E9473CBD012F6CF04C05F
:10547000682FC7010E9473CB60E0C7010E9473CB05
:10548000A0960FB6F894DEBF0FBECDBFDF91CF91CF
:105490001F910F91FF90EF90DF9008958F929F9250
:1054A000AF92BF92CF92DF92EF92FF920F931F9332
:1054B000CF93DF93CDB7DEB78C015B018DB69EB67F
:1054C00061E00E942ECB6C0163E0C8010E9429CBF1
:1054D000082F10E08DB79EB7801B910B0FB6F89484
:1054E0009EBF0FBE8DBFEDB7FEB731967F01A801FD
:1054F000B601CF010E940FD861E8C5010E9473CBAD
:105500006701C6018E199F09801791073CF4F601C7
:1055100061916F01C5010E9473CBF3CF0FB6F89470
:105520009EBE0FBE8DBEDF91CF911F910F91FF9058
:10553000EF90DF90CF90BF90AF909F908F900895A5
:105540002F923F924F925F926F927F928F929F9293
:10555000AF92BF92CF92DF92EF92FF920F931F9381
:10556000CF93DF931F92CDB7DEB76C015B012DB6F1
:105570003EB661E00E942ECB4C0163E0C6010E9462
:1055800029CB8983082F10E08DB79EB7801B910B24
:105590000FB6F8949EBF0FBE8DBFEDB7FEB7319624
:1055A0007F01A801B401CF010E940FD83701412C1F
:1055B000512C4016510664F464E0640DC6010E944B
:1055C00029CBF30181933F01FFEF4F1A5F0AF1CF1F
:1055D000DFB6F894A801B401C7010E9433D8DFBE3A
:1055E00061E8C5010E9473CB6981C5010E9473CB3C
:1055F0000FB6F8943EBE0FBE2DBE0F90DF91CF9137
:105600001F910F91FF90EF90DF90CF90BF90AF90E0
:105610009F908F907F906F905F904F903F902F90D2
:1056200008950F931F93CF93DF938091E108811129
:1056300011C001EE18E0C2E2D0E060E0CE010E94AD
:105640001E93F80181938F012196C233D105A9F7EA
:105650001092F1088091E10881110DC0E0EBF4E0B7
:10566000A1EEB8E08CE08A0F94919D9331968A1355
:10567000FBCF1092ED0881EE98E0DF91CF911F9162
:105680000F9108958091C10808958091C0080895F0
:1056900087E199E00E94E5326093BB087093BC08F3
:1056A0008093BD089093BE0881E08093BF08089561
:1056B0001092B7081092B8081092B9081092BA0860
:1056C0000C94482B0F931F938091BF08813089F46D
:1056D00087E199E00E94E5320091BB081091BC0877
:1056E0002091BD083091BE08601B710B820B930B9B
:1056F00003C060E070E0CB011F910F9108950F93FC
:105700001F930E94622B0091B7081091B808209156
:10571000B9083091BA08DC01CB01800F911FA21F9C
:10572000B31F8093B7089093B808A093B908B093BB
:10573000BA0882E08093BF081F910F9108950F93DC
:105740001F930E94622B0091B7081091B808209116
:10575000B9083091BA08600F711F821F931F1F9103
:105760000F9108958F929F92AF92BF92FF920F93E5
:105770001F93CF93DF932091BF0821110CC020917C
:10578000B5083091B608FC01318320838091B408BC
:10579000FB0180831DC08B01EC010E949F2B4B01FC
:1057A0005C0120E13EE040E050E00E9497D5F22EFF
:1057B00028833983C501B4012CE330E040E050E098
:1057C0000E9497D5FCE3FF9E20191124F801208345
:1057D000DF91CF911F910F91FF90BF90AF909F905D
:1057E0008F90089564EB78E085EB98E00E94B22BEF
:1057F0001092BF086091B4088091B5089091B608E6
:105800000C945A280E94F22B60E088EF0E94226FCD
:1058100081E00E94EB3580E00E94CD3582E08093EC
:10582000C0081092C10808950097C1F028E0823C9A
:105830009207B1F0603208F06EE1DC0142EC58E012
:10584000FA012E2F241B261718F42D912193F9CF3E
:10585000E62FF0E0EE53F74F108202C082EC98E0A2
:105860000E94923D8930A9F0811114C081E00E940C
:10587000EB350E9481110E9441700E94E1721092EA
:10588000F20882E08093C10880914B0B806880937E
:105890004B0B80E008951092F2080E94B2738823A7
:1058A00019F085E08093C10880914B0B8460809350
:1058B0004B0B0E9481110E94E1728FEF8093BE0218
:1058C0000895CF93C091C108C13069F484E08093FA
:1058D000C10840E452E46FE070E089EF98E00E9474
:1058E00041CFC093B1080E94F22B81E08093B308AE
:1058F00040E45DE063E070E083EF98E00E9441CF18
:105900008FEF0E94757684E08093C008CF91089550
:1059100085E08093C00881E08093F2080E94E172E4
:1059200080914B0B8B77806280934B0B0E946610AB
:10593000811108C00E947710811104C060E081E0ED
:105940000C9456100C94612C1F93CF93DF931F92ED
:10595000CDB7DEB7182F69830E94661091E0698188
:10596000811101C090E01917E9F069830E94771056
:105970006981811117C0812F0E945610112349F0AF
:1059800083E08093C0080F90DF91CF911F910C941A
:105990007F2B81E08093C0080F90DF91CF911F9102
:1059A0000C94482B0F90DF91CF911F910895EF92A7
:1059B000FF920F931F93CF93DF93FC01208122234B
:1059C00009F4BAC0EB017C0161E00E9429CB082FE9
:1059D00062E0C7010E9429CB182F61E8CE010E9426
:1059E00073CB103209F447C090F4123089F128F4D7
:1059F0001111A2C064EC72E04AC0163199F11E3157
:105A000009F09AC06091F1097091F20940C0133217
:105A100009F457C020F4113209F445C08DC0143286
:105A200009F455C0153209F087C040E050E0BA01D2
:105A3000CE010E948ACB40E050E0BA01CE010E9424
:105A40008ACB40E050E0BA01CE010E948ACB72C0FE
:105A5000013019F0ECE3FAE002C0EBEBFAE062A1EE
:105A600073A115C0013019F08CE39AE002C08BEBF2
:105A70009AE0489628C0013071F0ECE3FAE0DF01CB
:105A8000A759BF4F8C91882349F066A177A1CE0119
:105A90000E9475CB4FC0EBEBFAE0F1CFEC5AFF4F11
:105AA00060817181F4CF8091380A882329F0609158
:105AB000F5097091F609EBCF6091230A7091240AE1
:105AC000E6CF87EE99E00E949697682F30C00130AC
:105AD00019F08CE39AE002C08BEB9AE0FC01E95AE2
